:020000040800F2
:1000000000500020C5130008691400086914000896
:100010006914000869140008691400080000000051
:10002000000000000000000000000000691400084B
:10003000691400080000000069140008115A000843
:10004000691400086914000869140008691400089C
:10005000691400086914000869140008691400088C
:10006000691400086914000869140008691400087C
:100070006914000869140008895F00086914000801
:10008000691400086914000869140008691400085C
:10009000691400086914000869140008691400084C
:1000A0006914000869140008691400089D570008C5
:1000B00091570008855700087957000841540008F7
:1000C000015100083D540008FD5000086914000863
:1000D00069140008691400088D5D0008691400089F
:1000E000597800086914000869140008000000002D
:1000F0000000000000000000000000000000000000
:0C01000000000000000000005FF808F1A3
:1001100040F2C413C2F200031A780AB90120187021
:10012000704700BF40F2C410C2F2000008B5036877
:100130002BB140F20003C0F2000303B1984708BDA1
:1001400081F0004102E000BF83F0004330B54FEA88
:1001500041044FEA430594EA050F08BF90EA020FF5
:100160001FBF54EA000C55EA020C7FEA645C7FEA88
:10017000655C00F0E2804FEA5454D4EB5555B8BFAB
:100180006D420CDD2C4480EA020281EA030382EA1C
:10019000000083EA010180EA020281EA0303362DAE
:1001A00088BF30BD11F0004F4FEA01314FF4801C81
:1001B0004CEA113102D0404261EB410113F0004F93
:1001C0004FEA03334CEA133302D0524263EB43034A
:1001D00094EA050F00F0A780A4F10104D5F1200EE8
:1001E0000DDB02FA0EFC22FA05F2801841F1000143
:1001F00003FA0EF2801843FA05F359410EE0A5F117
:1002000020050EF1200E012A03FA0EFC28BF4CF047
:10021000020C43FA05F3C01851EBE37101F00045FD
:1002200007D54FF0000EDCF1000C7EEB00006EEB0A
:100230000101B1F5801F1BD3B1F5001F0CD3490894
:100240005FEA30004FEA3C0C04F101044FEA4452EB
:1002500012F5800F80F09A80BCF1004F08BF5FEA72
:10026000500C50F1000041EB045141EA050130BD52
:100270005FEA4C0C404141EB010111F4801FA4F1F5
:100280000104E9D191F0000F04BF01460020B1FA4A
:1002900081F308BF2033A3F10B03B3F120020CDA82
:1002A0000C3208DD02F1140CC2F10C0201FA0CF060
:1002B00021FA02F10CE002F11402D8BFC2F1200CC5
:1002C00001FA02F120FA0CFCDCBF41EA0C0190407B
:1002D000E41AA2BF01EB0451294330BD6FEA0404C4
:1002E0001F3C1CDA0C340EDC04F11404C4F12002AF
:1002F00020FA04F001FA02F340EA030021FA04F3C1
:1003000045EA030130BDC4F10C04C4F1200220FA17
:1003100002F001FA04F340EA0300294630BD21FA55
:1003200004F0294630BD94F0000F83F4801306BF1B
:1003300081F480110134013D4EE77FEA645C18BF0F
:100340007FEA655C29D094EA050F08BF90EA020FA6
:1003500005D054EA000C04BF1946104630BD91EA9E
:10036000030F1EBF0021002030BD5FEA545C05D1A1
:100370004000494128BF41F0004130BD14F58004E0
:100380003CBF01F5801130BD01F0004545F0FE4154
:1003900041F470014FF0000030BD7FEA645C1ABF89
:1003A000194610467FEA655C1CBF0B46024650EAC0
:1003B000013406BF52EA033591EA030F41F40021EC
:1003C00030BD00BF90F0000F04BF0021704730B572
:1003D0004FF4806404F132044FF000054FF0000147
:1003E00050E700BF90F0000F04BF0021704730B508
:1003F0004FF4806404F1320410F0004548BF4042DD
:100400004FF000013EE700BF42004FEAE2014FEA31
:1004100031014FEA02701FBF12F07F4393F07F4F0C
:1004200081F06051704792F0000F14BF93F07F4F3E
:10043000704730B54FF4607401F0004521F0004181
:1004400020E700BF50EA010208BF704730B54FF007
:1004500000050AE050EA010208BF704730B511F00C
:10046000004502D5404261EB41014FF4806404F144
:1004700032045FEA915C3FF4DCAE4FF003025FEAC6
:10048000DC0C18BF03325FEADC0C18BF033202EB4E
:10049000DC02C2F1200300FA03FC20FA02F001FAA8
:1004A00003FE40EA0E0021FA02F11444C1E600BF47
:1004B00070B54FF0FF0C4CF4E06C1CEA11541DBFFA
:1004C0001CEA135594EA0C0F95EA0C0F00F0DEF8C5
:1004D0002C4481EA030621EA4C5123EA4C5350EAAA
:1004E000013518BF52EA033541F4801143F48013FB
:1004F00038D0A0FB02CE4FF00005E1FB02E506F08C
:100500000042E0FB03E54FF00006E1FB03569CF0E0
:10051000000F18BF4EF0010EA4F1FF04B6F5007FE6
:1005200064F5407404D25FEA4E0E6D4146EB060658
:1005300042EAC62141EA55514FEAC52040EA5E50E1
:100540004FEACE2EB4F1FD0C88BFBCF5E06F1ED88B
:10055000BEF1004F08BF5FEA500E50F1000041EBC2
:10056000045170BD06F0004646EA010140EA02006F
:1005700081EA0301B4EB5C04C2BFD4EB0C0541EA91
:10058000045170BD41F480114FF0000E013C00F3A6
:10059000AB8014F1360FDEBF002001F0004170BDCA
:1005A000C4F10004203C35DA0C341BDC04F11404E3
:1005B000C4F1200500FA05F320FA04F001FA05F26F
:1005C00040EA020001F0004221F0004110EBD3703C
:1005D00021FA04F642EB06015EEA430E08BF20EA68
:1005E000D37070BDC4F10C04C4F1200500FA04F30B
:1005F00020FA05F001FA04F240EA020001F000419D
:1006000010EBD37041F100015EEA430E08BF20EA0F
:10061000D37070BDC4F1200500FA05F24EEA020E57
:1006200020FA04F301FA05F243EA020321FA04F086
:1006300001F0004121FA04F220EA020000EBD3703D
:100640005EEA430E08BF20EAD37070BD94F0000F3D
:100650000FD101F00046400041EB010111F4801F71
:1006600008BF013CF7D041EA060195F0000F18BF22
:10067000704703F00046520043EB030313F4801F5E
:1006800008BF013DF7D043EA0603704794EA0C0F18
:100690000CEA135518BF95EA0C0F0CD050EA41062E
:1006A00018BF52EA4306D1D181EA030101F00041AB
:1006B0004FF0000070BD50EA410606BF10461946D3
:1006C00052EA430619D094EA0C0F02D150EA0136DF
:1006D00013D195EA0C0F05D152EA03361CBF104620
:1006E00019460AD181EA030101F0004141F0FE41BF
:1006F00041F470014FF0000070BD41F0FE4141F443
:10070000780170BD70B54FF0FF0C4CF4E06C1CEA42
:1007100011541DBF1CEA135594EA0C0F95EA0C0FF7
:1007200000F0A7F8A4EB050481EA030E52EA0335B2
:100730004FEA013100F088804FEA03334FF08055D3
:1007400045EA131343EA12634FEA022245EA111500
:1007500045EA10654FEA00260EF000419D4208BFB1
:10076000964244F1FD0404F5407402D25B084FEA5E
:100770003202B61A65EB03055B084FEA32024FF40A
:1007800080104FF4002CB6EB020E75EB030E22BF67
:10079000B61A754640EA0C005B084FEA3202B6EB27
:1007A000020E75EB030E22BFB61A754640EA5C00D6
:1007B0005B084FEA3202B6EB020E75EB030E22BF66
:1007C000B61A754640EA9C005B084FEA3202B6EB67
:1007D000020E75EB030E22BFB61A754640EADC0026
:1007E00055EA060E18D04FEA051545EA16754FEA88
:1007F00006164FEAC30343EA52734FEAC2025FEAA6
:100800001C1CC0D111F4801F0BD141EA00014FF034
:1008100000004FF0004CB6E711F4801F04BF014305
:100820000020B4F1FD0C88BFBCF5E06F3FF6AFAE21
:10083000B5EB030C04BFB6EB020C5FEA500C50F1B1
:10084000000041EB045170BD0EF0004E4EEA113134
:1008500014EB5C04C2BFD4EB0C0541EA045170BD3B
:1008600041F480114FF0000E013C90E645EA060E7F
:100870008DE60CEA135594EA0C0F08BF95EA0C0FAD
:100880003FF43BAF94EA0C0F0AD150EA01347FF4F5
:1008900034AF95EA0C0F7FF425AF104619462CE7CC
:1008A00095EA0C0F06D152EA03353FF4FDAE10462F
:1008B000194622E750EA410618BF52EA43067FF480
:1008C000C5AE50EA41047FF40DAF52EA43057FF410
:1008D000EBAE12E74FF0FF3C06E000BF4FF0010C1B
:1008E00002E000BF4FF0010C4DF804CD4FEA410C7F
:1008F0007FEA6C5C4FEA430C18BF7FEA6C5C1BD04C
:1009000001B050EA410C0CBF52EA430C91EA030FCC
:1009100002BF90EA020F0020704710F1000F91EA29
:10092000030F58BF994208BF90422CBFD8176FEAF7
:10093000E37040F0010070474FEA410C7FEA6C5CC5
:1009400002D150EA013C07D14FEA430C7FEA6C5CCC
:10095000D6D152EA033CD3D05DF8040B704700BFF8
:100960008446104662468C461946634600E000BF46
:1009700001B5FFF7B7FF002848BF10F1000F01BD18
:100980004DF808EDFFF7F4FF0CBF012000205DF8E3
:1009900008FB00BF4DF808EDFFF7EAFF34BF012068
:1009A00000205DF808FB00BF4DF808EDFFF7E0FF01
:1009B00094BF012000205DF808FB00BF4DF808ED52
:1009C000FFF7CEFF94BF012000205DF808FB00BFB9
:1009D0004DF808EDFFF7C4FF34BF012000205DF89B
:1009E00008FB00BF4FEA410212F5001215D211D5E3
:1009F0006FF47873B3EB625212D94FEAC12343F01C
:100A0000004343EA505311F0004F23FA02F018BF9D
:100A1000404270474FF00000704750EA013005D166
:100A200011F0004008BF6FF0004070474FF0000029
:100A3000704700BF4A0011D212F5001211D20DD535
:100A40006FF47873B3EB62520ED44FEAC12343F0D4
:100A5000004343EA505323FA02F070474FF000007E
:100A6000704750EA013002D14FF0FF3070474FF02D
:100A7000000070474FEA4102B2F1E04324BFB3F5F2
:100A8000001CDCF1FE5C0DD901F0004C4FEAC00205
:100A90004CEA5070B2F1004F40EB830008BF20F0E9
:100AA0000100704711F0804F21D113F13872BCBFA3
:100AB00001F00040704741F480114FEA5252C2F1F8
:100AC0001802C2F1200C10FA0CF320FA02F018BF41
:100AD00040F001004FEAC1234FEAD32303FA0CFC94
:100AE00040EA0C0023FA02F34FEA4303CCE77FEA23
:100AF000625307D150EA01331EBF4FF0FE4040F46D
:100B00004000704701F0004040F0FE4040F400001B
:100B1000704700BF80F0004002E000BF81F000415C
:100B200042001FBF5FEA410392EA030F7FEA226C93
:100B30007FEA236C6AD04FEA1262D2EB1363C1BF23
:100B4000D218414048404140B8BF5B42192B88BF92
:100B5000704710F0004F40F4000020F07F4018BFB5
:100B6000404211F0004F41F4000121F07F4118BFD5
:100B7000494292EA030F3FD0A2F1010241FA03FC7D
:100B800010EB0C00C3F1200301FA03F100F0004365
:100B900002D5494260EB4000B0F5000F13D3B0F12D
:100BA000807F06D340084FEA310102F10102FE2A9C
:100BB00051D2B1F1004F40EBC25008BF20F001000C
:100BC00040EA03007047490040EB000010F4000FBA
:100BD000A2F10102EDD1B0FA80FCACF1080CB2EB4D
:100BE0000C0200FA0CF0AABF00EBC25052421843AC
:100BF000BCBFD0401843704792F0000F81F4000151
:100C000006BF80F400000132013BB5E74FEA410323
:100C10007FEA226C18BF7FEA236C21D092EA030F8F
:100C200004D092F0000F08BF0846704790EA010F09
:100C30001CBF0020704712F07F4F04D1400028BF36
:100C400040F00040704712F100723CBF00F5000018
:100C5000704700F0004343F0FE4040F4000070474E
:100C60007FEA226216BF08467FEA236301464202FA
:100C700006BF5FEA412390EA010F40F4800070470D
:100C80004FF0000304E000BF10F0004348BF4042B3
:100C90005FEA000C08BF704743F0964301464FF0EF
:100CA00000001CE050EA010208BF70474FF000034B
:100CB0000AE000BF50EA010208BF704711F000438C
:100CC00002D5404261EB41015FEA010C02BF84465C
:100CD0000146002043F0B64308BFA3F18053A3F5BB
:100CE0000003BCFA8CF2083AA3EBC25310DB01FA02
:100CF00002FC634400FA02FCC2F12002BCF1004F86
:100D000020FA02F243EB020008BF20F00100704716
:100D100002F1200201FA02FCC2F1200250EA4C006A
:100D200021FA02F243EB020008BF20EADC707047B0
:100D30004FF0FF0C1CEAD0521EBF1CEAD15392EABE
:100D40000C0F93EA0C0F6FD01A4480EA010C40029A
:100D500018BF5FEA41211ED04FF0006343EA5010F4
:100D600043EA5111A0FB01310CF00040B1F5000F36
:100D70003EBF490041EAD3715B0040EA010062F1E5
:100D80007F02FD2A1DD8B3F1004F40EBC25008BFCF
:100D900020F00100704790F0000F0CF0004C08BFED
:100DA00049024CEA502040EA51207F3AC2BFD2F1BA
:100DB000FF0340EAC250704740F400004FF00003C8
:100DC000013A5DDC12F1190FDCBF00F00040704702
:100DD000C2F10002410021FA02F1C2F1200200FA40
:100DE00002FC5FEA310040F1000053EA4C0308BF07
:100DF00020EADC70704792F0000F00F0004C02BF58
:100E0000400010F4000F013AF9D040EA0C0093F0D2
:100E1000000F01F0004C02BF490011F4000F013B2C
:100E2000F9D041EA0C018FE70CEAD15392EA0C0F9A
:100E300018BF93EA0C0F0AD030F0004C18BF31F005
:100E4000004CD8D180EA010000F00040704790F0DB
:100E5000000F17BF90F0004F084691F0000F91F07F
:100E6000004F14D092EA0C0F01D142020FD193EA45
:100E70000C0F03D14B0218BF084608D180EA0100CD
:100E800000F0004040F0FE4040F40000704740F0A9
:100E9000FE4040F4400070474FF0FF0C1CEAD05277
:100EA0001EBF1CEAD15392EA0C0F93EA0C0F69D0D3
:100EB000A2EB030280EA010C49024FEA402037D03E
:100EC0004FF0805343EA111143EA10130CF0004035
:100ED0008B4238BF5B0042F17D024FF4000C8B4225
:100EE00024BF5B1A40EA0C00B3EB510F24BFA3EB05
:100EF000510340EA5C00B3EB910F24BFA3EB9103D5
:100F000040EA9C00B3EBD10F24BFA3EBD10340EA2E
:100F1000DC001B0118BF5FEA1C1CE0D1FD2A3FF674
:100F200050AF8B4240EBC25008BF20F00100704729
:100F30000CF0004C4CEA50207F32C2BFD2F1FF03CC
:100F400040EAC250704740F400004FF00003013AFD
:100F500037E792F0000F00F0004C02BF400010F4A1
:100F6000000F013AF9D040EA0C0093F0000F01F0B5
:100F7000004C02BF490011F4000F013BF9D041EAD7
:100F80000C0195E70CEAD15392EA0C0F08D142020A
:100F90007FF47DAF93EA0C0F7FF470AF084676E7DD
:100FA00093EA0C0F04D14B023FF44CAF08466EE7B6
:100FB00030F0004C18BF31F0004CCAD130F0004284
:100FC0007FF45CAF31F000437FF43CAF5FE700BFDC
:100FD0004FF0FF3C06E000BF4FF0010C02E000BF05
:100FE0004FF0010C4DF804CD4FEA40024FEA4103A7
:100FF0007FEA226C18BF7FEA236C11D001B052EA5D
:10100000530C18BF90EA010F58BFB2EB030088BF22
:10101000C81738BF6FEAE17018BF40F00100704791
:101020007FEA226C02D15FEA402C05D17FEA236C73
:10103000E4D15FEA412CE1D05DF8040B704700BFBA
:10104000844608466146FFE70FB5FFF7C9FF002851
:1010500048BF10F1000F0FBD4DF808EDFFF7F4FF8A
:101060000CBF012000205DF808FB00BF4DF808ED23
:10107000FFF7EAFF34BF012000205DF808FB00BF46
:101080004DF808EDFFF7E0FF94BF012000205DF868
:1010900008FB00BF4DF808EDFFF7D2FF94BF012019
:1010A00000205DF808FB00BF4DF808EDFFF7C8FF12
:1010B00034BF012000205DF808FB00BF4FEA40026A
:1010C000B2F1FE4F0FD34FF09E03B3EB12620DD976
:1010D0004FEA002343F0004310F0004F23FA02F0E0
:1010E00018BF404270474FF00000704712F1610F87
:1010F00001D1420205D110F0004008BF6FF000405E
:1011000070474FF00000704742000ED2B2F1FE4F20
:101110000BD34FF09E03B3EB126209D44FEA0023C6
:1011200043F0004323FA02F070474FF0000070478D
:1011300012F1610F01D1420202D14FF0FF3070472E
:101140004FF00000704700BF4A1E08BF7047C0F054
:101150002481884240F21681114200F01781B0FAD2
:1011600080F3B1FA81F2A2EB0303C3F11F0304A2DF
:1011700002EB03134FF000029F4600BFAFF3008065
:10118000B0EBC17F00BF42EB020228BFA0EBC170F1
:10119000B0EB817F00BF42EB020228BFA0EB817061
:1011A000B0EB417F00BF42EB020228BFA0EB4170D1
:1011B000B0EB017F00BF42EB020228BFA0EB017041
:1011C000B0EBC16F00BF42EB020228BFA0EBC160D1
:1011D000B0EB816F00BF42EB020228BFA0EB816041
:1011E000B0EB416F00BF42EB020228BFA0EB4160B1
:1011F000B0EB016F00BF42EB020228BFA0EB016021
:10120000B0EBC15F00BF42EB020228BFA0EBC150B0
:10121000B0EB815F00BF42EB020228BFA0EB815020
:10122000B0EB415F00BF42EB020228BFA0EB415090
:10123000B0EB015F00BF42EB020228BFA0EB015000
:10124000B0EBC14F00BF42EB020228BFA0EBC14090
:10125000B0EB814F00BF42EB020228BFA0EB814000
:10126000B0EB414F00BF42EB020228BFA0EB414070
:10127000B0EB014F00BF42EB020228BFA0EB0140E0
:10128000B0EBC13F00BF42EB020228BFA0EBC13070
:10129000B0EB813F00BF42EB020228BFA0EB8130E0
:1012A000B0EB413F00BF42EB020228BFA0EB413050
:1012B000B0EB013F00BF42EB020228BFA0EB0130C0
:1012C000B0EBC12F00BF42EB020228BFA0EBC12050
:1012D000B0EB812F00BF42EB020228BFA0EB8120C0
:1012E000B0EB412F00BF42EB020228BFA0EB412030
:1012F000B0EB012F00BF42EB020228BFA0EB0120A0
:10130000B0EBC11F00BF42EB020228BFA0EBC1102F
:10131000B0EB811F00BF42EB020228BFA0EB81109F
:10132000B0EB411F00BF42EB020228BFA0EB41100F
:10133000B0EB011F00BF42EB020228BFA0EB01107F
:10134000B0EBC10F00BF42EB020228BFA0EBC1000F
:10135000B0EB810F00BF42EB020228BFA0EB81007F
:10136000B0EB410F00BF42EB020228BFA0EB4100EF
:10137000B0EB010F00BF42EB020228BFA0EB01005F
:10138000104670470CBF012000207047B1FA81F26F
:10139000C2F11F0220FA02F0704708B14FF0FF308F
:1013A00000F00EB80029F8D02DE90340FFF7CCFE7D
:1013B000BDE8064002FB00F3A1EB0301704700BF4C
:1013C000704700BF1A481B49026800608A4219D062
:1013D000002103E0184B5B58435004311748184B69
:1013E00042189A42F6D3174A02E0002342F8043B1F
:1013F000154B9A42F9D306F049FE0AF055FD00F06C
:1014000073F8FEE7114E124830601248016821F06F
:1014100070610160410201600F4C182020600F498B
:101420000F4808600F48D0F800D04068004700001F
:10143000F04F0020EFBEADDECCDB00080000002046
:10144000C4010020C4010020980D002018100240A3
:101450000900000004000140140C0140000C014090
:101460004434434400F0FF1FFEE700000F4B93F8A5
:101470001C312BB90E4BDA6882F01002DA6009E0F9
:101480000C4B1B791BB10A4B10225A6102E0084B2E
:1014900010221A61074B5B781BB1054B08225A6179
:1014A0007047034B08221A61704700BF30090020C3
:1014B000000C0140F808002010B504F0B1FA084B08
:1014C000084A19681860411A116001F00DF900F01E
:1014D000F3F800F0E7FFBDE8104001F019B800BFD5
:1014E000C8010020E00700201FB504F073FB03F0E3
:1014F000CFFB3C4803F034FC4FF4E13004F0AAFC8D
:1015000005F084FE00F08AF8374B93F836300E2B46
:1015100001D0082B02D101238DF80830012002F000
:1015200013FA01238DF80430304B2F4C1B788DF8C3
:101530000500003B18BF01238DF8063094F8783081
:1015400001A8DB0803F001038DF80730E38AADF84A
:101550000A30238BADF80C3004F0DCF901F018F8F8
:101560004FF4FA6004F0E5FA94F82C310BB105F071
:101570004FFC1F484FF4FA7104F06AFA1D484FF40B
:10158000FA7104F065FA1C4840F6B83104F060FACC
:101590001A484FF47A6104F05BFA194844F6206166
:1015A00004F056FA174844F6206104F051FA164840
:1015B00049F6404104F04CFA144844F6206104F026
:1015C00047FA1348134904F043FA022002F0BCF929
:1015D00020B1114849F6404104F03AFA04F05CFAAF
:1015E000FCE700BF0058004030090020CC0100207B
:1015F000F57200084573000819600008B914000866
:101600001934000895730008BD5F00087141000897
:101610006D140008A0860100E573000808B5224B90
:1016200093F83630042B07D0012B05D0082B03D0BC
:101630000E2B01D0052B02D11C4B01221A70082061
:1016400002F082F910B1194B01221A70164B93F86F
:101650003630013B112B26D8DFE803F00F11110DB6
:101660000913130B11131515150B2525111900223C
:101670000AE0012208E0022206E0032204E004223C
:1016800002E0062200E00822094B1A7008BD002380
:101690001A460849C95C09B10132D2B21433F02BA1
:1016A000F7D1034B1A7008BD30090020CC0100208F
:1016B00010000020D00100202DE9F74F9B4B1B7834
:1016C000032B3CD99A4B00219D689A4B4FF00006A2
:1016D0009C682046FFF7E8FC08B14FF00106F6B21F
:1016E00016B19548214601E094492046FFF716FAC5
:1016F00001462846FFF7BAFC28B10EB18E4818E023
:1017000020468E4916E026B120468C49FFF708FA9C
:1017100003E08A482146FFF701FA01462846FFF711
:10172000C3FC50B126B120468449FFF7F9F903E024
:1017300082482146FFF7F2F905467D4B9D60804CBB
:1017400094F83630013B102B00F2B085DFE813F03F
:101750007A000E01540111001F05D40144028C05CA
:101760009801BB023503A6033C04AE05AE05AE05E9
:10177000D604704B6E4DD868E968FFF7D1F96E68F2
:10178000824600213046FFF7D3FA074694F97000ED
:10179000FFF77AFAA968FFF7CBFA00218146FFF735
:1017A000C7FAD5F80080054641465046FFF7B8F91C
:1017B0003946FFF7B5F92946FFF7B2F9FFF77EFC86
:1017C000604C414620805046FFF7A8F93946FFF7A4
:1017D000A7F92946FFF7A4F9FFF770FC5A49608082
:1017E0004846FFF79DF931460546FFF799F95749F5
:1017F0000446FFF73BFC10B14FF47F700BE020462E
:101800005349FFF751FC10B14FF4FA6003E0204652
:10181000FFF754FC80B24F4B314618812846FFF742
:101820007DF94A490446FFF721FC10B14FF47F705F
:1018300098E020464649FFF737FC002874D04FF463
:10184000FA608FE03B4B3A4DD868E968FFF768F9DA
:10185000804694F97000FFF717FAA968FFF768FA55
:1018600000218146FFF764FA2F68064600213846BA
:10187000FFF75EFA01464046FFF752F9D5F804A09B
:1018800083464FF081415046FFF752FA3249FFF745
:1018900003FB01465846FFF743F93146FFF740F98D
:1018A000FFF70CFC274D4FF0404128805046FFF7D2
:1018B0003FFA2949FFF7F0FA394682464046FFF7DA
:1018C0002DF95146FFF72CF93146FFF729F9FFF7BB
:1018D000F5FB394668804046FFF722F95146FFF78D
:1018E0001FF93146FFF71CF9FFF7E8FBA880B4F8B1
:1018F0007400FFF7C9F94946FFF712F90546B4F835
:101900007200FFF7C1F9044621462846FFF7AEFBF7
:1019100050B90B4BB3F87600FFF7B6F904462146F1
:101920002846FFF7C1FBC8B1204618E01000002090
:10193000DC080020800000200000C8C20000C8426F
:1019400030090020E40700200080BB4400007F44F1
:101950000000FA4400000020000040402846FFF745
:10196000ADFB80B2974B588100F0A0BC964B974DD1
:10197000D868E968FFF7D4F82F6880460021384618
:10198000FFF7D6F901464046FFF7CAF8824694F9B8
:101990007000FFF779F9A968FFF7CAF96E68054684
:1019A00031465046FFF7BCF82946FFF7B7F8FFF776
:1019B00085FB874C002120803046FFF7B9F9394676
:1019C00081464046FFF7AAF84946FFF7A9F829469D
:1019D000FFF7A6F8FFF772FB394660804046FFF735
:1019E0009FF84946FFF79CF82946FFF799F8FFF75B
:1019F00065FBA080504638E0734B744DD868E968A9
:101A0000FFF78EF82F6882463946FFF787F8804641
:101A100094F97000FFF738F9A968FFF789F96E6843
:101A2000054631464046FFF77BF82946FFF776F832
:101A3000FFF744FB664C314620804046FFF76EF8C6
:101A40002946FFF76DF8FFF739FB394660805046AD
:101A5000FFF766F831460746FFF762F82946FFF7B9
:101A60005FF8FFF72BFBA08038463146FFF756F8AA
:101A70002946FFF753F8FFF721FBE08000F016BC82
:101A8000514B524DD868E968FFF74AF82F688046F5
:101A900000213846FFF74CF96E6801464046FFF7D3
:101AA0003FF83146FFF73CF8824694F97000FFF7A3
:101AB000EBF8A968FFF73CF9054629465046FFF7C1
:101AC0002DF8FFF7FBFA424C002120802846FFF753
:101AD0002FF9394681464046FFF720F83146FFF797
:101AE0001DF84946FFF71CF8FFF7E8FA2946608021
:101AF0005046FFF715F83CE3334B344DD868E9689E
:101B0000FFF70EF82E68074600213046FFF710F960
:101B100001463846FFF704F8D5F804A080464FF098
:101B200081415046FFF704F92A49FFF7B5F901460C
:101B30004046FEF7F5FF804694F97000FFF7A4F8E1
:101B4000A968FFF7F5F8054629464046FEF7E8FF85
:101B5000FFF7B4FA1E4C4FF0404120805046FFF78B
:101B6000E7F81C49FFF798F9314682463846FEF7F8
:101B7000D5FF5146FEF7D4FF29468146FEF7CEFF3A
:101B8000FFF79CFA314660803846FEF7C9FF5146A0
:101B9000FEF7C6FF29460646FEF7C0FFFFF78EFA9E
:101BA0002946A0804046FEF7B9FFFFF787FA29468D
:101BB000E0804846FEF7B4FFFFF780FA2081304608
:101BC000F7E000BF0000002080000020DC080020BB
:101BD000E407002000004040A84BA94DD868E96800
:101BE000FEF79EFFD5F8008007464FF03F41404684
:101BF000FFF79EF801463846FEF792FF6E68814671
:101C00004FF07C513046FFF793F8824694F970000C
:101C1000FFF73AF8A968FFF78BF8514605464846A2
:101C2000FEF77EFF2946FEF77BFFFFF747FA954C4C
:101C30004FF03F4120803046FFF77AF883465946FF
:101C40004846FEF76DFF2946FEF768FFFFF736FAB4
:101C50004FF07C5160804046FFF76AF801463846F5
:101C6000FEF75EFF51468146FEF75AFF2946FEF712
:101C700057FFFFF723FA5946A0804846FEF750FF6A
:101C80002946FEF74BFFFFF719FA0021E080404696
:101C9000FFF74EF801463846FEF742FF3146074649
:101CA000FEF73CFF2946FEF73BFFFFF707FA3146F8
:101CB00020813846FEF734FF2946FEF72FFFFFF755
:101CC000FDF96081F2E26D4B6D4DD868E968FEF771
:101CD00027FFD5F8009082466B494846FFF728F861
:101CE0006A49FFF7D9F801465046FEF719FF6F68B9
:101CF000064667493846FFF71BF86649FFF7CCF8F8
:101D0000804694F97000FEF7BFFFA968FFF710F84E
:101D1000414605463046FEF703FF2946FEF700FF21
:101D2000FFF7CCF9574C5C4920803846FFF700F8A4
:101D30005849FFF7B1F8834659463046FEF7F0FEA2
:101D40002946FEF7EDFEFFF7B9F94FF081416080BB
:101D50004846FEF7EDFF4D49FFF79EF80146504615
:101D6000FEF7DEFE41468246FEF7DAFE2946FEF722
:101D7000D5FEFFF7A3F95946A0805046FEF7D0FEE6
:101D80002946FEF7CBFEFFF799F90021E08038469F
:101D9000FEF7CEFF074639463046FEF7C1FE29461C
:101DA000FEF7BCFEFFF78AF9394620815046FEF760
:101DB000B7FE2946FEF7B4FE81E7304B304DD868B8
:101DC000E968FEF7ADFED5F8008082464146FEF791
:101DD000A5FE6E6881463146FEF7A2FE074694F9DD
:101DE0007000FEF751FFA968FEF7A2FF05462946DD
:101DF0003846FEF793FEFFF761F9224C314620800A
:101E00004846FEF78BFE29468146FEF789FEFFF71E
:101E100055F9414660805046FEF782FE31468246C3
:101E2000FEF77EFE29468046FEF77AFEFFF746F96A
:101E30003146A0805046FEF771FE29460646FEF761
:101E40006DFEFFF73BF92946E0803846FEF768FE55
:101E5000FFF734F9294620814846FEF75FFEFFF779
:101E60002DF9294660814046FEF758FEFFF726F916
:101E70002946A0813046FEF753FE2EE18000002067
:101E8000DC080020E4070020000080C00000A04023
:101E90000000104100002041000010C1914B924D04
:101EA000D868E968FEF73CFE2E6807468F49304641
:101EB000FEF73EFF8E49FEF7EFFF01463846FEF77C
:101EC0002FFED5F8048082468A494046FEF730FF4F
:101ED0008749FEF7E1FF814694F97000FEF7D4FED2
:101EE000A968FEF725FF494605465046FEF718FE4D
:101EF0002946FEF715FEFFF7E1F87F4C7D4920806B
:101F00003046FEF715FF7A49FEF7C6FF0146384610
:101F1000FEF706FE49468346FEF702FE2946FEF717
:101F2000FFFDFFF7CBF8714960804046FEF700FFE8
:101F30006F49FEF7B1FF814649465846FEF7F0FD6E
:101F40002946FEF7EDFDFFF7B9F84946A080504657
:101F5000FEF7E6FD2946FEF7E3FDFFF7AFF80021A7
:101F6000E0803046FEF7E4FE01463846FEF7D8FD35
:101F700041468146FEF7D2FD2946FEF7CFFDFFF729
:101F80009DF8002120814046FEF7D2FE3146824670
:101F90003846FEF7C3FD5146FEF7C2FD2946FEF75F
:101FA000BDFDFFF78BF8414660814846FEF7B8FD5E
:101FB0002946FEF7B3FDFFF781F83146A081384688
:101FC000FEF7AEFD514683E0464B474DD868E968C1
:101FD000FEF7A6FD2F6880463946FEF7A1FD6E6824
:101FE00082464FF03F413046FEF7A2FE814694F90B
:101FF0007000FEF749FEA968FEF79AFE49460546BD
:102000005046FEF78DFD2946FEF78AFDFFF756F88C
:10201000394C4FF03F4120803846FEF789FE01469B
:102020004046FEF77DFD31460090FEF777FD2946DC
:10203000FEF776FDFFF742F8394660804046FEF72E
:102040006DFD4FF07C5183463046FEF771FE03462E
:10205000194658460193FEF763FD2946FEF760FDD9
:10206000FFF72CF84FF07C51A0803846FEF760FE59
:1020700001464046FEF754FD31460746FEF750FD47
:102080002946FEF74DFDFFF719F83146E080384646
:10209000FEF744FD2946FEF741FDFFF70FF84946DC
:1020A00020815846FEF73CFD2946FEF737FDFFF735
:1020B00005F86081009A31461046FEF731FD294649
:1020C000FEF72CFDFEF7FAFF019BA0811946504652
:1020D000FEF726FD2946FEF721FDFEF7EFFFE08122
:1020E000E4E000BF80000020DC0800200000E040A9
:1020F000000020410000E0C0E4070020764B774D4F
:10210000D868E968FEF70CFD2F6880460021384644
:10211000FEF70EFE6E6801464046FEF701FD3146B1
:10212000FEF7FEFC824694F97000FEF7ADFDA9684B
:10213000FEF7FEFD054629465046FEF7F1FCFEF788
:10214000BDFF674C002120802846FEF7F1FD39468F
:1021500081464046FEF7E2FC3146FEF7DFFC494689
:10216000FEF7DEFCFEF7AAFF294660805046FEF728
:10217000D5FCFEF7A3FF3946A0804046FEF7D0FC11
:102180003146FEF7CBFC4946FEF7CAFC73E4B4F8CF
:102190008600FEF779FD534B05465969D4F88C004B
:1021A000FEF7C6FD4FF08641FEF7C2FD0146284608
:1021B000FEF7B6FC484B5968FEF7B2FC0546B4F88A
:1021C0008400FEF761FD044621462846FEF74EFFD7
:1021D00050B9454BB3F88800FEF756FD044621463A
:1021E0002846FEF761FF08B1204600E02846FEF7CA
:1021F00065FF3D4C3D4B80B21880B4F87C00FEF783
:1022000043FD384B05461969D4F88000FEF790FD70
:102210004FF08641FEF78CFD01462846FEF780FC14
:102220002D4B1968FEF77CFC0546B4F87A00FEF7E2
:102230002BFD064631462846FEF718FF08B130460A
:102240000CE0B4F87E00FEF71FFD04462146284648
:10225000FEF72AFF08B1204600E02846FEF72EFFD1
:10226000224B80B2588021E01B4B204CD868FEF7EF
:1022700025FF1B4B18801E4B9B7A23B14FF00003A8
:102280002380638012E0154D00216868FEF750FD41
:10229000002106462868FEF74BFD01463046FEF752
:1022A0003FFCFEF70BFF80B220806080082001F029
:1022B0004BFB00287DD00C4A92F8783013F00300D5
:1022C00004D00C49528F8889801A80B213F0040F11
:1022D00012D0002716E000BF80000020DC0800209C
:1022E000E4070020240D0020300900200000002019
:1022F000F80800201C090020624BDF89624B5B8FCD
:10230000FF1ABFB2604D614CB5F88630C018B5F801
:102310007C3080B2FF185E4BBFB2DB7820806780D4
:1023200043B300B2FEF7B0FC5A4E80467169D5F84F
:102330008C00FEF7FDFC4FF08641FEF7F9FC0146EC
:102340004046FEF7EDFBFEF7B9FE208038B2FEF7FF
:102350009BFC31690746D5F88000FEF7E9FC4FF099
:102360008641FEF7E5FC01463846FEF7D9FBFEF74D
:10237000A5FE6080454B4449B3F90020B1F8843094
:102380009A4205DBB1F888309342A8BF13469BB24E
:102390003E4A3D491380B2F90220B1F87A309A42A0
:1023A00005DBB1F87E309342A8BF13469BB2374A93
:1023B0005380354B93F8783013F0080F12D0082073
:1023C00001F0C2FA2F4C002814BF0225002504F1A9
:1023D0000806284621890234013503F073F8B44217
:1023E000EDB2F6D12C4B1D882C4B1A78012308E056
:1023F00029492DB231F9131001338D42B8BF0D4672
:10240000ADB29342F4D30024264635E01E4B2AB2E7
:10241000B3F844309A4204DD1F4AA15A5918491BA7
:10242000A1521D4A1849A25EB1F842108A4201DA4F
:102430000B4603E09342A8BF13469BB2164A124FC5
:10244000A352104B04EB0208B3F90620FB8F9A420B
:1024500009DA042001F078FA08B13F8F01E0B7F8FB
:102460004270A8F800700E4B5B781BB9064A0A4B05
:10247000128FE25201360234084B1B789E42C5D3BC
:10248000BDE8FE8F1C09002030090020000000205C
:1024900008090020240D0020E4070020100000207F
:1024A000F808002010B5174B1B78002B29D0164BCD
:1024B00093F83630013B0D2B14D8DFE803F00F13EF
:1024C0001307171313221313131313220F4C002097
:1024D000218902F0F7FF012061890EE00B4B0020FB
:1024E00059890AE0082001F02FFA50B1074C00206A
:1024F000218802F0E7FF61880120BDE8104002F06A
:10250000E1BF10BDCC0100203009002000000020F8
:1025100010B5002407E0064B204633F8141002F0F3
:10252000C3FF0134E4B2034B1B78A342F3D810BDC0
:10253000E407002010000020064A074B11789A1C7F
:1025400002EB410201E023F8020C02339342FAD17C
:10255000FFF7DEBF10000020E407002038B5054675
:10256000002410E0094B0134B3F94200FFF7E4FF07
:10257000FA2003F0DEFA4FF47A70FFF7DDFFFA205D
:1025800003F0D7FAE4B2AC42ECD338BD30090020F6
:102590000A4B0B4A03F17001D3F89C001060D3F88A
:1025A000A0005060D3F8A4009060D3F8A8001033C6
:1025B000D06020328B42EFD1704700BF300900203D
:1025C000FC070020054B03F1E00100221A615A616B
:1025D0009A61DA6120338B42F7D17047FC07002003
:1025E000034A0023036143619361D361704700BFD5
:1025F000FC0700202DE9F04704460D46D0F8149062
:10260000616810461746FEF793FB3349FEF790FBCF
:1026100001462846FEF78CFB2169FEF781FAD4F8C3
:102620000CA0804620612D495046FEF781FB0646EE
:1026300031464046FEF71AFD50B927495046FEF78D
:1026400077FB064631464046FEF72EFD00B946466A
:10265000266138462249FEF763FA01463846FEF7FE
:102660001BFCD4F81480824649462846FEF756FAE9
:102670003946FEF711FC4146FEF750FA0146504636
:10268000FEF756FB01464046FEF74AFAA769656128
:1026900039468246FEF744FAE169FEF741FA2168BD
:1026A0008046E761C4F818A02846FEF741FB0A49B6
:1026B00005463046FEF7F0FB01462846FEF730FAA5
:1026C000A16805464046FEF733FB01462846FEF763
:1026D00027FABDE8F08700BF00007A4400007AC402
:1026E0003661023C000000002DE9F84503F098F93E
:1026F000894E8A4B054618603068281AFEF7C0FAE2
:102700008749FEF715FB874B04461A793560002A86
:102710003DD0854DDFF820826868FDF775FE7AA30D
:10272000D3E90023FDF7C4FEFEF7A4F907462868A5
:10273000FDF76AFE74A3D3E90023FDF7B9FE7B4DD4
:10274000FEF798F9D8F81010FEF7E8F9D5F80C1153
:10275000FEF7E4F902F030F9224601467448FFF72B
:1027600049FF02F029F9D8F8141006463846FEF75A
:10277000D5F9D5F81011FEF7D1F902F01DF922466E
:1027800001466C48FFF736FF02F016F945E05B7A28
:10279000654D002B2CD0684B9869684B1968FEF783
:1027A000BDF9064606F090FD8246304606F0C6FDAD
:1027B000D5F80080074651464046FEF7B9FA6D68E5
:1027C000064639462846FEF7B3FA01463046FEF77C
:1027D000A5F9514606462846FEF7AAFA39460546A7
:1027E0004046FEF7A5FA01462846FEF799F914E09F
:1027F0002868FDF709FE46A3D3E90023FDF758FE3C
:10280000FEF738F906466868FDF7FEFD40A3D3E9F8
:102810000023FDF74DFEFEF72DF9424B05465B798F
:10282000CBB1474B9B78B3B1464B9B7813B9464825
:10283000FFF7D6FE454B18683F4B9969FEF76EF9D6
:1028400002F0BAF8224601463F48FFF7D3FE02F0F5
:10285000B3F880460FE0344B9868FDF7D5FD2CA304
:10286000D3E90023FDF724FEFEF704F9324B80463E
:102870009A69364B1A602B4B9B7903B32E4BD86D5C
:10288000FEF702FA324B01461868FEF747F9314964
:10289000FEF702FB224601462F48FFF7ABFE2F4909
:1028A0000746FEF7E3FB08B12C4F05E038462C49FC
:1028B000FEF7FAFB00B12A4F2A4BDF6002E0294BFA
:1028C0000022DA601C4F3046F969FEF727F92246EC
:1028D00001462548FFF78EFE224E396A30602846B1
:1028E000FEF71CF9224601462048FFF783FE796A6D
:1028F00070604046FEF712F9224601461C48FFF779
:1029000079FEB060BDE8F885FCA9F1D24D62603F68
:102910007B14AE47E17A743FC4020020C00200205D
:10292000BD378635F80800208000002030090020DF
:102930005C0800207C080020240D00202C090020C9
:102940007C000020900000209C080020F00800205F
:102950001809002000002041BC080020000048C3E6
:1029600000004843DC080020FC0700201C08002071
:102970003C080020AFF30080014B01221A70704721
:10298000E9020020014803F04BBA00BF9CC10008D7
:10299000014803F045BA00BFD3C1000838B50D485F
:1029A00003F03EFA00240C4D285903F039FA2D1992
:1029B000092003F01FFA686803F032FA074803F0B1
:1029C0002FFA03F0C3F90028FBD00C343C2CEAD1D9
:1029D00038BD00BFD8C100080CCC0008D0C2000828
:1029E00038B50D4803F01CFA00240C4D285903F0AB
:1029F00017FA2D19092003F0FDF9686803F010FAA1
:102A0000074803F00DFA03F0A1F90028FBD00C34BD
:102A1000902CEAD138BD00BFFBC100080CC10008F2
:102A2000D0C2000810B503F073F84FF47A71B0FB10
:102A3000F1F1134C134801F0DCFA134803F0F0F9FC
:102A4000206EFDF7E1FC02460B46104801F0D1FA7A
:102A500094F868100E4801F0CCFA0E4803F0E0F943
:102A60000D4B0E48196801F0C4FA02F073F90146E3
:102A70000B4801F0BEFA0B48BDE8104003F0D0B996
:102A8000240D002011C2000823C2000837C200082C
:102A90003CC2000841C20008E00700204EC2000806
:102AA0005DC20008D0C200082DE9F041074609F0D8
:102AB00043FAC5B255B91F4803F0B2F91E4B93F85B
:102AC00036201E4B013A53F822002AE038461C49B2
:102AD0002A4609F039FA044670B91A4803F0A0F9F9
:102AE000164B53F82400F0B103F09AF9013420207A
:102AF00003F080F9E4B2F3E70024104E56F82410F6
:102B000009B9114810E038462A4609F01DFA631C3D
:102B100070B9094A0D4882F8363003F081F956F849
:102B2000240003F07DF90A48BDE8F04103F078B9CC
:102B3000DCB2E2E76EC20008300900201400002079
:102B400096C600087EC2000891C20008A9C200080B
:102B5000D0C200082DE9F04585B0804609F0ECF9B7
:102B6000074628B1012879D198F800302A2B75D171
:102B70004B4C4C4803F054F9D4F82001FDF744FCC9
:102B80000646D4F824010F46FDF73EFCCDE90001CE
:102B9000D4F82801FDF738FC32463B46CDE9020166
:102BA000414801F026FAD4F83801FDF72DFC06461D
:102BB000D4F83C010F46FDF727FCCDE90001D4F81D
:102BC0004001FDF721FC32463B46CDE90201374882
:102BD00001F00FFAD4F84401FDF716FC0646D4F8CC
:102BE00048010F46FDF710FCCDE90001D4F84C0177
:102BF000FDF70AFC2E4D32463B46CDE902012D4839
:102C000001F0F7F9E86AFDF7FFFB0646286B0F466F
:102C1000FDF7FAFBCDE90001686BFDF7F5FB3246E5
:102C20003B46CDE90201244801F0E3F9D4F8540110
:102C3000FDF7EAFB0646D4F858010F46FDF7E4FB22
:102C4000CDE90001D4F85C01FDF7DEFB3246CDE9A9
:102C500002013B46194801F0CCF91DE000252C4645
:102C6000174E404671593A465FFA84FA09F06CF9FA
:102C700040B90C2303FB0464A3689847BAF1040F1E
:102C80000AD903E001340C35052CE9D10D4805B013
:102C9000BDE8F04503F0C4B805B0BDE8F08500BF5D
:102CA00030090020B7C20008D3C20008EDC20008F6
:102CB000240D002009C300082FC300084BC30008DF
:102CC0000CCC000863C3000870B50D6804462846A4
:102CD00009F032F9024620682946BDE8704009F043
:102CE00033B900007FB5037904460D46052B2BD878
:102CF000DFE803F0030810151B20836820496846AD
:102D00001A7804E083681F4993F90020684601F0AF
:102D100061F919E083681A4968461A88F7E78368F9
:102D200018496846B3F90020F1E7836814496846FA
:102D30001A68ECE783681868FDF766FB02460B46E5
:102D40006846114901F046F968466E4603F068F896
:102D5000ADB10E4803F064F869460A22E06801F05C
:102D60006FFD684603F05CF8084803F059F82069E5
:102D700069460A2201F064FD684603F051F87FBD00
:102D80003EC2000881C3000884C30008D6C1000801
:102D90002DE9F041064609F0CFF8074620B1012899
:102DA0001FD133782A2B1CD1424803F039F8424C0A
:102DB00004F5CE650C35206803F032F83F4803F087
:102DC0002FF820463946FFF78DFF3D4803F028F8DD
:102DD00002F0BCFF0028FBD01434AC42EBD1BDE8BC
:102DE000F08130463D2109F09BF8074600285ED06F
:102DF000314C04F5CE650C35D4F80080404609F01E
:102E00009BF841460246304609F09EF8804600286D
:102E100045D12379781C052B04D101F0EDFD054641
:102E2000404602E009F013F800252379052B06D06F
:102E3000E268904213DB2269904212DD0FE0E06805
:102E4000FDF722FF01462846FEF710F938B9206940
:102E5000FDF71AFF01462846FEF726F988B1194802
:102E600021E0052B0FD8DFE803F003030606090C69
:102E7000A368187007E0A368188004E0A3681860CE
:102E800001E0A3681D60206802F0CAFF0E4802F04E
:102E9000C7FF20460021BDE8F041FFF723BF1434EF
:102EA000AC42A9D10948BDE8F04102F0B9BFBDE884
:102EB000F08100BF87C3000848CC00089CC300080D
:102EC000D0C20008A0C30008AEC20008C5C30008F5
:102ED00010B5084802F0A4FF00F066FD064802F0B5
:102EE0009FFF0A2002F025FE0020BDE8104002F0FE
:102EF0002BBE00BFE2C30008ECC30008F0B585B0EC
:102F0000044609F019F8082824D100231F49E25C7F
:102F100009685118497811F0020F18BF203AE2549D
:102F20000133082BF2D1651C04F1090715F8016C77
:102F30001748314608F0F4FF20B12846314608F022
:102F4000EFFF08B113481CE00135BD42EED1204629
:102F500000F04EFD104802F063FF00230F4A04A961
:102F6000D218927B8A180A49595C0133082B02F85F
:102F70000C1CF3D1083B01A88DF80C3002F050FF77
:102F8000074802F04DFF05B0F0BD00BFCC000020A7
:102F9000C4D20008FBC300081BC40008300900208D
:102FA000D0C200082DE9F041064608F0C5FF0546ED
:102FB00000F0EAFC044695B92A4802F031FF2A4B9A
:102FC00053F82500002845D00123AB40234201D00F
:102FD00002F026FF202002F00DFF0135EFE730461A
:102FE00022492A4608F0B0FF044660B9204802F0A2
:102FF00017FF1D4B1859043460B302F011FF202055
:1030000002F0F8FEF5E733782D2B01D0002702E01F
:103010000136013D01270024134B53F8241009B950
:10302000144818E030462A4608F08EFFB8B92FB190
:103030000130A04000F09AFC0F4804E00120A040BD
:1030400000F08CFC0D4802F0EBFE074B53F8240017
:1030500002F0E6FE0A48BDE8F04102F0E1BE0134AC
:10306000DAE700BF30C400086000002096C6000800
:1030700043C4000858C4000872C400087CC4000897
:10308000D0C2000810B50446084802F0C9FE20224C
:103090000021074808F03BFF064A00231360064A58
:1030A00020461370BDE81040FFF712BF85C400082A
:1030B000C8020020EC020020EC08002010B50848EF
:1030C00002F0AEFE012000F0A9FC064802F0A8FEC6
:1030D0000A2002F02EFD0020BDE8104002F034BDB1
:1030E0009DC40008EEC300082DE9F041854B8AB06D
:1030F0001A7832B901321A70834802F091FEFFF754
:1031000047FC824B1B78002B00F06B8102F094FE91
:1031100018B102F029FE7E4B18707D4A13786D2B92
:1031200044D00CD8622B25D005D8232B0FD0612B8F
:1031300040F0578111E0672B40F0538120E0742B61
:103140005CD0772B5DD0712B40F04B813BE06F4B17
:103150000021197078231370D1E06E4C2068FDF7C0
:1031600053F9064660680F46FDF74EF9CDE90001B8
:10317000A06811E0674B6848996D00F03AFF30E1B4
:10318000644CE069FDF740F90646206A0F46FDF7FA
:103190003BF9CDE90001606AFDF736F93246CDE929
:1031A00002013B465D4800F024FF1AE1594CA06C37
:1031B000FDF72AF90646E06C0F46FDF725F9CDE943
:1031C0000001206DE8E7564C2068FDF71DF9064622
:1031D00060680F46FDF718F9CDE90001A068FDF71A
:1031E00013F9CDE90201E068FDF70EF93246CDE9A9
:1031F00004013B464B4800F0FCFEF2E002F0D0FC3C
:10320000EFE0444C48492069FDF792FDFDF7FCF8DA
:1032100006460F4660694449FDF78AFDFDF7F4F85C
:10322000CDE900014049A069FDF782FDB4E702F055
:103230009BFD092801D03F2853D13C4BDFF8FC808F
:1032400000261F683546A8F190040CE02FB13848DD
:1032500021683A4608F078FE20B915B92646254679
:1032600000E026460C344445F0D1BDB1304A3B461F
:10327000D2192968C85C3168C95C81420CD1581CDC
:10328000013229B92A4A2031D154284B186005E06F
:1032900002F8011C0346ECE7244A1360234B1B6829
:1032A0000BB1B5420FD0234802F0BAFD06E055F845
:1032B0000C0B02F0B5FD092002F09CFDB542F6D9D9
:1032C000FFF766FB00271A4CE41904E014F8010C20
:1032D00002F090FD0137154B01341B689F42F5D376
:1032E0007FE0124B1B682BB9042803D11048FFF76D
:1032F000C9FE7BE00C2823D10F4802F091FDFFF7B7
:1033000047FB6EE0EC080020B8C40008E90200208A
:10331000E8020020240D0020F0C40008F7C40008D3
:1033200094000020F4C40008E02E6542EC02002066
:10333000C802002001C5000806C500089CC100089D
:10334000002B2FD00A2801D00D282BD1294802F0BC
:1033500067FD294B294C1A680023A3540893284B76
:103360000C22009307A827491346079408F073FD21
:10337000054638B1006808F0DFFD0130AB68201861
:10338000984702E0204802F04BFD20221B48002114
:1033900008F0BDFD184B00221A601C4B1B78002B57
:1033A000ADD123E07F2801D008280AD1CBB1124A41
:1033B000013B1360114A0021D154154802F030FD41
:1033C0000FE01F2B0DD81F280BD97E2809D80BB969
:1033D000202806D0094AD054074A0133136002F06E
:1033E00009FD02F029FD00287FF421AF0AB0BDE8F5
:1033F000F08100BFD0C20008EC020020C80200200B
:10340000C92C00080CC1000811C50008EC080020F8
:1034100032C50008000000002DE9F14F9C4B00244C
:103420001A789C4D01321A702646994B9A4F93F8A0
:103430000080BB19987B02F053F8A0F53A73063B65
:103440009BB240F2DC52934288BF788F914B08F0D8
:10345000030808EB860823F818002B886A88D2181E
:10346000AB88D218EB88D21812B2931C48BF531DF8
:103470009B108A4A9BB21353894A19B2A05E033843
:10348000814201DA981CA052854AA05E0330814235
:1034900001DD023BA352013602340835082EC4D1A7
:1034A0007F4C7D4DB4F90610EB8F99424ADAFFF755
:1034B00089F8AB8C7BB17B4B5B7923B17A4B1A7863
:1034C0000AB1012218E0784B5A78002A00F0AC804B
:1034D00000225A70A8E0B4F90420B5F840309A42AE
:1034E00010DD714B597869B970490A78501C142A5B
:1034F000087040F09980133A5A706D4B9A696D4B81
:103500001A6091E0644BDB8F9A4280F28A80664AAF
:10351000517849B165490B78581C142B087040F05C
:103520008380143B53707FE05D4AB2F902209A42D7
:1035300077DD5E4A1378591C142B117074D103F097
:1035400067FC71E0B5F8402091426DDD564949783D
:10355000002969D1B4F9041091420CDDB4F90200DC
:10356000984208DA514A1378591C142B11705BD118
:1035700004F0CAF958E0994210DA4949B1F9021049
:1035800099420BDA494A1378591C142B11704BD10C
:1035900003F0C2FA0320FEF7E1FF45E04049B1F92C
:1035A000020090420ADD3C4CD4F81001FCF72CFFDD
:1035B00035A3D3E90023FCF7C9FD0BE098420EDAEE
:1035C000354CD4F81001FCF71FFF2FA3D3E90023DB
:1035D000FCF7BAFDFDF74EFAC4F810011EE0B1F990
:1035E000001091420ADD2C4CD4F80C01FCF70CFFC2
:1035F00025A3D3E90023FCF7A9FD0BE0994210DADB
:10360000254CD4F80C01FCF7FFFE1FA3D3E90023DF
:10361000FCF79AFDFDF72EFAC4F80C0100F0C4F98E
:1036200002E0224B00221A70102000F08DF90028D1
:1036300047D0214B184AB3F800C014890FFA8CFE0A
:10364000A6453BDD184B5978002937D0508F1449D7
:1036500008804880888090895289C8801419012187
:10366000A645D97302DD00225A701A700E4B5A78A3
:103670000AB95A701A70104B0CF1010CA3F800C073
:103680001FE000BFAFF300807B14AE47E17A843FB8
:1036900044030020F40200203009002034030020FD
:1036A0001C09002008090020F8080020F002002072
:1036B000240D00202C090020B00A00208E4B00228F
:1036C000DA738E4B8E4AD88FB3F8404000231946E8
:1036D000B2F900C0844502DC4FF0000E07E032F979
:1036E00008EC8645ACBF4FF0000E4FF0010E84454C
:1036F000ACBF002501259D40A445D4BF4FF0000C70
:103700004FF0010C45EA01019D1C0CFA05FC41EA51
:103710000C0103F1010C0EFA0CFE033341EA0E0119
:1037200002320C2B89B2D3D1744F0C3B3A46B2F81B
:103730001AC0744811EA0C0F0CBF4FF0000C4FF088
:10374000010C03F800C0013302320E2BEFD1437994
:1037500013B9694B01221A706A4B1A7A664B02B18F
:1037600001229A72674B1B7813B9634BDA7B5AB10B
:10377000614C23794BB96448FEF732FF6348FEF78A
:103780002FFF0123237100E01A715E4B9A785A4B88
:1037900042B15A793AB901325A715D4B9A695D4B1F
:1037A0001A6000E05A71574B5A7A534B42B15A7A19
:1037B0003AB901325A72564B9A69574B1A6000E077
:1037C0005A72504B5B7B1BB1514B9A69524B1A603A
:1037D0000025524B524CE85EFDF756FA44F81500AE
:1037E0000235082DF5D1454B5E8F3046FDF74CFA7A
:1037F000054629462068FDF791F929462060606852
:10380000FDF78CF929466060A068FDF787F9A06094
:10381000A6F5BA600C38FDF737FA0146E068FDF707
:103820007DF90025E0602C46DFF8FCA03D4B1AF83E
:103830000420B7F846B01A555846FDF725FADFF8C8
:10384000E090804659F8056041463046FDF718FC87
:1038500078B1CBF10000FDF717FA01463046FDF7CD
:1038600019FC30B1002349F8053001230AF804306F
:1038700014E02D4B00221A5530460021FDF714FCB0
:10388000DFF89CA020B130464146FDF747F903E040
:1038900030464146FDF744F94AF805000134043545
:1038A0000237032CC0D11E4BDC68204B2046196820
:1038B000FDF734F91E4920F00040FDF7F5FB10B18B
:1038C0000D4B00229A710F4B5A780B4B002A35D0C2
:1038D0009A79002A33D101329A71144B1C600C4B37
:1038E000D86DFDF7D1F9134B1860134801B0BDE84E
:1038F000F04FFEF775BE00BFF80800203009002029
:1039000024090020080900205C0800207C08002011
:10391000240D0020F00800202C0900201C090020A4
:1039200080000020900000207C000020F40800208F
:103930000000A04118090020BC0800209A7101B0C5
:10394000BDE8F08FAFF30080034B5B6818420CBFFB
:1039500000200120704700BF30090020024B5A6848
:1039600040EA02025A60704730090020024B5A6850
:1039700022EA00025A60704730090020014B002201
:103980005A60704730090020014B5868704700BFEB
:1039900030090020024803494FF4C07208F0AABA67
:1039A0003009002000FC010810B504F0D9FD3420D6
:1039B00004F0EAFD0B4804F03FFE04280CD1094C4A
:1039C000094B2046E15804F00DFE042800D0FEE724
:1039D000064B04349C42F3D104F0CEFDBDE8104008
:1039E000FFF7D8BF00FC0108300DFE1780FD01086D
:1039F00070B50646002409E0064D284608F090FA06
:103A000018B1054A83185D1BAC730134315D002980
:103A1000F2D170BDC4D200083009002070B5964BB9
:103A20001B7810B9062B00F02581944C06232370D7
:103A3000033B84F83630FFF7A1FF0220FFF78EFF2B
:103A40000120FFF78BFF8E48FFF7D2FF4FF03201C6
:103A50004FF496634FF4C87044F62062A381E0826D
:103A600021832181628104F11C03002565830234D6
:103A70009C42FAD1814B4FF47A7018874FF4FA6266
:103A800040F24C409A87D88740F27E4240F23A702A
:103A9000A3F84220A3F844004FF47A7240F2DC50BD
:103AA000A3F86420A3F86600A3F86A20A3F86C00CA
:103AB000A3F87220A3F8740040F2DC514FF4FA62CC
:103AC0004FF47A705987A3F87620A3F87A0040F271
:103AD0006C7140F2DC524FF4FA60A3F84010A3F886
:103AE0007C204FF00C01A3F87E004FF07E524FF483
:103AF0007A70A3F84610A3F84810A3F84A10C3F848
:103B000080204FF4FA61A3F88400C3F88C2040F2BF
:103B1000DC504FF0FF32A3F86810A3F86E10A3F842
:103B2000860001214FF4FA6083F8902083F89220F8
:103B30004FF47A7283F8701083F87810A3F8880035
:103B400083F8911083F89310A3F89420A3F89600BB
:103B5000A3F89A004B484C4CC3F89C00C3F8A8004B
:103B6000C3F8AC00C3F8B800C3F8C8004FF07C50ED
:103B7000C3F8D800C3F8E800C3F8F8004348C3F816
:103B8000BC40C3F8FC0042484FF08044C3F8000139
:103B90004048A3F89820C3F804013F480022C3F826
:103BA000CC40C3F8DC404FF07F54C3F8A020C3F8EA
:103BB000A420C3F8B020C3F8B420C3F8C020C3F8D1
:103BC000C420C3F8D020C3F8D420C3F8E020C3F841
:103BD000E420C3F8F020C3F8F420C3F80801C3F8C8
:103BE0000C21C3F81021C3F8EC4083F81411C3F87A
:103BF0002021C3F82421C3F82821C3F83821C3F8B1
:103C00003C21C3F84021C3F84421C3F84821C3F83C
:103C10004C21C3F85421C3F85821C3F85C21C3F8E0
:103C200068211E4A83F82D11C3F870211C4A1D49D2
:103C3000C3F874211C4A1D48C3F83011C3F8782119
:103C40001B491C4AC3F818014FF02A0083F81C5185
:103C500083F82C51A3F8340183F8505183F8605154
:103C6000C3F8641183F86C51C3F87C21BDE870403F
:103C7000FFF79ABE70BD00BF00FC010830090020AC
:103C8000CCD200080000C842000048430000A04118
:103C9000000088410000E0400060EA46A47029412D
:103CA0000000304148E17A3F333353406666663F57
:103CB0000000404066668640F8B504460E46104651
:103CC0004FF07E511546FDF7C7F920BB3046FCF793
:103CD0009BFB064628460F46FCF796FB02460B4622
:103CE00000200E49FCF730FA02460B4630463946B2
:103CF000FCF7DEFB06460F4620462946FDF718F87E
:103D0000FCF782FB02460B4630463946FCF71EFAAA
:103D1000FCF7B0FE04462046F8BD00BF0000F03FAF
:103D200028B1026811700268013202607047C8B29F
:103D300002F060B82DE9F845161E04460D460FDD69
:103D4000002200E00132A95C0029FBD1B242ACBFE5
:103D50000E46B61A13F0020F02D04FF0300A01E0FF
:103D60004FF0200A13F0010809D04FF0000808E0D6
:103D700020465146FFF7D4FF08F10108013E002E0E
:103D8000F6DC474603E02046FFF7CAFF0137C8EBE1
:103D90000503D95D0029F6D105E020465146FFF71D
:103DA000BFFF0137013E002EF7DC3846BDE8F8853D
:103DB0002DE9FF410A9F05460B9EDDF830E08C4659
:103DC00051B930238DF804308DF805103A4601A919
:103DD0003346FFF7AFFF39E03BB10A2A05D100298E
:103DE00003DAC1F1000C012400E0002404AB00213F
:103DF00003F8011D0DE0BCFBF2F102FB11C1092922
:103E0000C4BFAEF13A000918303103F8011DBCFB04
:103E1000F2FC9846BCF1000FEDD184B14FB116F021
:103E2000020F06D028462D21FFF77AFF013F01241B
:103E300005E02D2203F1FF3803F8012C0024284669
:103E400041463A463346FFF775FF001904B0BDE816
:103E5000F08100002DE9F04F82468FB00E461446E7
:103E60004FF0060B0025A4E0252B40F09C8016F8AF
:103E7000013F002B00F0A180252B00F094802D2B1A
:103E800002D04FF0000806E001364FF0010802E0D2
:103E9000013648F002083378302BF9D000229146E1
:103EA0000AE02AB10A2303FB0B1B0BF0FF0B08E00F
:103EB0000A2303FB0909013633782E2B03D14FF077
:103EC000000B0122F7E7A3F13000C1B20929E8D9BC
:103ED000732B07D154F8041B3D4B5046002908BFF3
:103EE00019465AE0642B0BD1033B0293CDF80090A6
:103EF000CDF80480271D504621680A22603B0CE063
:103F0000782B0FD1173BCDF80090CDF804800293A9
:103F10002168271D50461022613BFFF749FF2D18ED
:103F20003C4645E0582B0BD1173B0293CDF800904F
:103F3000CDF80480271D504621681022413BECE754
:103F4000752B0AD1143BCDF80090CDF80480029374
:103F5000271D504621680A22DEE7632B0DD1236816
:103F600050468DF8343000238DF835300DA94A467F
:103F70004346271DFFF7DEFED1E7662B18D1073435
:103F800024F0070305AFD3E9000103F108043A4622
:103F90005B4600F067FC504639464A464346FFF709
:103FA000C9FE2D1804E050463178FFF7B9FE0135FF
:103FB00001363378002B7FF457AFBAF1000F03D0EE
:103FC000DAF8003000221A7028460FB0BDE8F08FF2
:103FD000D5D200080EB40FB505AA52F8041B019003
:103FE00001A80392FFF736FF04B05DF804EB03B0BD
:103FF00070470FB407B504AA52F8041B00200192C1
:10400000FFF728FFBDE80E4004B07047034B04499A
:104010001A78885C01321A70704700BF470300208D
:104020005003002010B5FFF7F1FF0446FFF7EEFF45
:1040300004EB002080B210BD10B5FFF7F3FF04467B
:10404000FFF7F0FF04EB004010BD000010B5044680
:1040500001F0D0FE024B1A7854401C7010BD00BF16
:104060004503002038B50546002401E0FFF7EEFFC8
:10407000285D01340028F9D138BD0000014B1878C3
:10408000FFF7E4BF4503002070B5044624200D4629
:10409000FFF7DCFF4D20FFF7D9FF002C14BF2120D4
:1040A0003E20FFF7D3FF064B00221A702846FFF789
:1040B000CDFF044B1878BDE87040FFF7C7BF00BFC5
:1040C000450300204B03002001460120FFF7DCBF21
:1040D00001460020FFF7D8BF70B50B4D0B4C0646CC
:1040E000C0B2287001F086FE2A782378B6B282EA40
:1040F0000303300A2370287001F07CFE23782A78AD
:1041000082EA0303237070BD4C03002045030020A6
:1041100070B5154D154C0646C0B2287001F06AFE08
:104120002A782378300A82EA0303C0B22370287009
:1041300001F060FE2A782378300C82EA0303C0B2D3
:104140002370287001F056FE2A782378300E82EA18
:1041500003032370287001F04DFE23782A7882EA49
:104160000303237070BD00BF4903002045030020F6
:1041700070B5A34B1B78002B00F03E83BDE8704068
:10418000FEF7B2BF01F0F0FD9E4B1A78A2B92428C9
:1041900014BF002201221A70002A40F02D83232828
:1041A00003D0522840F0288302E0FEF79DFF23E36E
:1041B000012001F0C9FC1FE3012A04D14D280CBFE6
:1041C0000220002005E0022A05D13C280CBF032074
:1041D0000020187010E3032A11D1402801D9033AB6
:1041E00009E3894A8949107000220A7088490A70D7
:1041F000884A107004221A70033A874BFBE2042AA3
:1042000007D1864A1070834A117848401070052201
:10421000F1E2052A40F0F0827C497B4B0A781B785A
:1042200093427C4B0AD993F800C080EA0C0C83F8C7
:1042300000C07B4B985401320A70DDE21B78834248
:1042400040F0D782754B1B78722B00F0A38223D8E5
:104250006A2B5DD010D8662B00F0388106D8642B0D
:1042600000F0E480652B40F0BF82F0E0682B00F0A6
:10427000818100F28B8171E16E2B00F0C48105D841
:104280006C2B00F08F8100F2B88141E0702B00F0C0
:10429000C88100F265823BE0CB2B00F09A8010D8F9
:1042A000762B00F0898205D8742B00F0678200F22B
:1042B0006A8276E2C92B1FD02ED8C82B40F0948298
:1042C00011E0CF2B24D005D8CD2B00F0828200F254
:1042D000858288E0FA2B00F08482FE2B18D0D02B48
:1042E00040F082826BE20024FFF79CFE4D4BE052CF
:1042F0000234102CF8D10BE0FFF788FEFFF786FEA2
:10430000FFF79AFEFFF798FEFFF78CFEFFF78AFE95
:104310000020FFF7DDFE6AE2434C04F13005FFF7B1
:1043200075FEFCF7ADFCC4F89C00FFF76FFEFFF7CD
:104330006DFEFCF7A5FCC4F8A4001034AC42EED12D
:10434000FFF764FEFCF79CFC374CC4F8FC00FFF759
:104350005DFEFFF75BFEFCF793FCC4F8040100244C
:104360000134FFF753FEFFF751FEFFF74FFE032C1A
:10437000F6D1FFF74BFEFCF783FC2B4CC4F8CC00C6
:10438000FFF744FEFFF742FEFCF77AFCD4F8CC308E
:10439000C4F8D400C4F8DC30FFF738FED4F8D430C9
:1043A000C4F8E430FFF732FEFCF76AFCC4F8EC0016
:1043B000FFF72CFEFFF72AFEFCF762FCC4F8F400BE
:1043C00000240134FFF722FE032CFAD1FEF7E0F8B7
:1043D0009EE7154C04F11C05FFF724FE60830234B0
:1043E000AC42F9D194E7FFF711FEFFF70FFEFFF79C
:1043F0000DFEFFF70BFEFFF709FEFFF707FEDBE1FF
:10440000EC08002090030020460300204803002011
:1044100047030020450300204A0300204B030020EF
:10442000500300201C090020300900200720FFF75E
:104430004FFED220FFF70AFEB94B93F83600FFF784
:1044400005FE0020FFF702FE4FF000403BE00A208F
:10445000FFF73EFEB34BB3F90000FFF73DFE00F05F
:1044600079FC00B2FFF738FEAF4BB3F90000FFF75D
:1044700033FEAE4B59799A79890041EA42011A79A3
:1044800011435A7841EA4211A94AD07841EAC00161
:10449000107941EA0011D87941EA8011187A41EA8D
:1044A000C011587A9B7A41EA402141EA0323917A6C
:1044B000507B43EA8123D17A43EAC123117B43EA4B
:1044C000013343EA4030FFF723FE90E1994C12207C
:1044D000FFF7FEFD98492068FCF72AFCFCF7EEFD8B
:1044E00000B2FFF7F9FD94496068FCF721FCFCF786
:1044F000E5FD00B2FFF7F0FD8F49A068FCF718FC5E
:10450000FCF7DCFD00B2FFF7E7FD8C49E069FCF742
:104510000FFCFCF7D3FD00B2FFF7DEFD8749206AF0
:10452000FCF706FCFCF7CAFD00B2FFF7D5FD834996
:10453000606AFCF7FDFBFCF7C1FD00B2FFF7CCFDA4
:10454000A06CFCF7BBFD00B2FFF7C6FDE06CFCF70A
:10455000B5FD00B2FFF7C0FD206D4AE01020FFF767
:10456000B7FD0024764BE05E0234FFF7B5FD102C5A
:10457000F8D13CE11020FFF7ABFD0024714BE05E69
:104580000234FFF7A9FD102CF8D130E11020FFF71D
:104590009FFD00246C4BE05E0234FFF79DFD102C64
:1045A000F8D124E1634C0820FFF792FD20696749A8
:1045B000FCF7BEFB6049FCF7BBFBFCF77FFD00B2DC
:1045C000FFF78AFD60696149FCF7B2FB5A49FCF7C5
:1045D000AFFBFCF773FD00B2FFF77EFD5B49A069FE
:1045E000FCF7A6FBFCF76AFD00B2FFF775FD584B20
:1045F0001868FCF763FD00B2D0E00420FFF768FD07
:104600004C4BD86D5FE70320FFF762FD494B4A49E9
:10461000186EFCF78DFBFCF777FDC0B2FFF716FDB7
:10462000BBE01E20FFF754FD4A4C04F1600554F82E
:10463000080CFCF769FDC0B2FFF708FD464954F8C5
:10464000040CFCF775FBFCF75FFDC0B2FFF7FEFC46
:1046500054F8200BFCF758FDC0B2FFF7F7FCAC4252
:10466000E5D13E4CD4F8C000FCF74EFDC0B2FFF7D8
:10467000EDFC3949D4F8C400FCF75AFBFCF744FDC3
:10468000C0B2FFF7E3FCD4F8C800FCF73DFDC0B2B0
:10469000FFF7DCFC00240020FFF7D8FC0020FFF728
:1046A000D5FC01340020FFF7D1FC032CF3D12B4CB7
:1046B000206EFCF729FDC0B2FFF7C8FC2649606EEA
:1046C000FCF736FBFCF720FDC0B2FFF7BFFCA06E85
:1046D000FCF71AFDC0B2FFF7B9FCD4F8A000FCF754
:1046E00013FDC0B2FFF7B2FC1B49D4F8A400FCF7DD
:1046F0001FFBFCF709FDC0B2FFF7A8FCD4F8A80027
:10470000FCF702FDC0B2FFF7A1FC0020FFF79EFC02
:104710000020FFF79BFC0020FFF798FC67E000BF3C
:1047200030090020E007002090070020F808002052
:1047300008090020240D0020000020410000C8428C
:1047400000000020E40700201C090020E02E654244
:104750002C0900200408002000007A44FC070020F7
:104760001C20FFF7B5FC274C04F11C05B4F91A0016
:104770000234FFF7B1FCAC42F8D138E06D20FFF70E
:10478000A7FC214803E02F20FFF7A2FC1F48FFF7FA
:1047900069FC2CE00220FFF79BFC0020FFF79CFC4B
:1047A00025E00820FFF794FC0124E0B20134FFF774
:1047B0004DFC092CF9D11AE0FFF728FCA8E50020F0
:1047C000FFF786FC0120FFF729F9002001F0BCF972
:1047D0000DE002F0A1F902F01BFB99E503F094F85B
:1047E00096E5FFF7E1F893E50020FFF76DFCFFF792
:1047F00045FC074B00221A7001F01EFB00287FF4D5
:10480000C1AC70BD30090020DCD200084CD30008D8
:104810009003002038B50546B5FBF2F30846144670
:1048200013B11846FFF7F6FFB5FBF4F304FB13547E
:10483000024B1B5D00F8013B38BD00BF7CD3000874
:10484000931E222B88BF0A22031E10B50C4603DAE2
:104850002D2001F8010B5842FFF7DCFF0023037005
:10486000204610BD2DE9FF4D514C1F46002A18BFB0
:1048700014460023002206460D46FCF78BF820B1B3
:104880002D2304F8013B05F10045072F19D800221C
:10489000002330462946FCF79BF8464BFA0038B116
:1048A000D31830462946D3E90023FBF74FFC06E036
:1048B000D31830462946D3E90023FBF745FC0646CA
:1048C0000D4600234FF0010803E00A2202FB08F81E
:1048D0000133BB42F9D330462946FCF7ABF800233D
:1048E00002460CE04FF00A0CB2FBFCF10CFB11226B
:1048F0000DF1040A30320AF8032001330A46002A77
:10490000F0D11BB9303304F8013B0BE00DF1040C7E
:104910000CEB030111F801AD04F802A0013261456E
:10492000F8D1E418002F3ED0FBF74CFD02460B46B1
:1049300030462946FBF708FC824640468B46FBF78B
:1049400041FD02460B4650465946FBF7B1FDFCF7C8
:1049500071F82E23224602F8013B2E3B08E00A257F
:10496000B0FBF5FC05FB1C003030C8540133604639
:1049700001A90028F3D1C91803E0302001F8010C87
:1049800001330131BB42F8D323B91446303304F864
:10499000013B08E001A8C11811F801CD814204F8DB
:1049A00001CFF9D1D4180020207004B0BDE8F08DFB
:1049B00094030020A8D3000810B50B490446FCF767
:1049C00069FB20B120460949FCF7A8F808E0204619
:1049D0000749FCF74BFB20B120460449FCF7A0F83F
:1049E0000446204610BD00BFDB0F4940DB0FC94025
:1049F000DB0F49C0000000002DE9F84F044600E03D
:104A000001342378202BFBD0092BF9D02D2B05D195
:104A100001344FF0000ADFF870B106E02B2BDFF80D
:104A200064B108BF01344FF0000A0026002713E0EC
:104A30000022534B30463946FBF73AFD06462846DE
:104A40000F46FBF7CFFC02460B4630463946FBF7D4
:104A50007DFB013406460F462378A3F13005EAB208
:104A6000092AE5D92E2B21D101344FF00008DFF8B7
:104A7000109116E0FBF7B6FC42464B46FBF742FEB0
:104A800002460B4630463946FBF760FB00220646DD
:104A90000F46404649463A4BFBF70AFD0134804633
:104AA000894620783038C3B2092BE3D92378652BA7
:104AB00001D0452B4CD16278631C2D2A02D10133E1
:104AC000012503E02B2A08BF0133002500221446EC
:104AD00002E00A2000FB0414995C01323039C8B2AC
:104AE0000928F6D9B4F59A7F28BF4FF49A740022AA
:104AF000244B09E0104619461DA3D3E90023FBF718
:104B0000D7FC323C02460B46312CF3D8A04609E0D4
:104B10001046194618A3D3E90023FBF7C9FC083C4B
:104B200002460B46072CF3D808F0070408E01046AD
:104B300019460022124BFBF7BBFC013C02460B4618
:104B4000002CF4D135B130463946FBF7DBFD05E0EA
:104B50000C4B002230463946FBF7AAFC02460B46B6
:104B600050465946FBF7A4FCFBF784FFBDE8F88FDD
:104B70009A647EC50E1B514A0000000084D79741FD
:104B8000000024400000F03F0000F0BFAFF30080C1
:104B90002DE9F74F05680646884628462946FCF762
:104BA000C7F87468834621462046FCF7C1F8B76809
:104BB000814639463846FCF7BBF8F66882463146EE
:104BC0003046FCF7B5F8314601902046FCF7B0F8C6
:104BD0003946034628460093FCF7AAF8009B014695
:104BE0001846FBF79BFF0146FBF79AFF04F09AFD7E
:104BF0003946C8F804002046FCF79AF831460346C7
:104C000028460093FCF794F8009B01461846FBF7F2
:104C100087FF0146FBF784FF494603465846009349
:104C2000FBF77EFF5146FBF779FF0199FBF776FF13
:104C3000009B0146184604F0C1FD3146C8F8080043
:104C40003846FCF775F8214606462846FCF770F80A
:104C500001463046FBF764FF0146FBF761FF49461A
:104C600004465846FBF75AFF5146FBF757FF019998
:104C7000FBF756FF0146204604F0A0FDC8F80000EF
:104C8000BDE8FE8F014B188880B27047B403002046
:104C900030B52A4891B003F057FB294B002500930B
:104CA000284B012401934FF4807306934FF48063E3
:104CB00007932023089321484FF400536946099332
:104CC00002950394049505950A9503F0AFFB1B48E4
:104CD000214603F0CBFB4FF460231B480BA90D9337
:104CE0000B958DF830508DF831400E958DF83C4085
:104CF00003F086FA224603231348042103F0D8FA6E
:104D00001148214603F0ACFA0F48214603F09EFA01
:104D10000D4803F0AFFA0C4803F0B1FA0028FAD1BD
:104D2000094803F0B1FA084803F0B3FA0028FAD1B1
:104D30000548012103F0B2FA11B030BD080002406D
:104D40004C240140B403002000240140BFF35F8FD6
:104D500070470000014B188880B27047B6030020EE
:104D6000F0B54FF4406389B0ADF8143002238DF8EC
:104D7000163012330DEB030105464A488DF8173003
:104D800003F07AFC47484FF4406103F0CDFC002467
:104D900002E0032000F0C2FE42484FF4806103F0BD
:104DA000BDFC0028F5D04FF480613E4803F0BEFC06
:104DB000032000F0B3FE01343A484FF4806103F061
:104DC000B3FCE4B2032000F0A9FE082CE4D14FF4B8
:104DD0000061344803F0AAFC032000F09FFE4FF46A
:104DE0008061304803F0A2FC032000F097FE4FF4EE
:104DF00080612C4803F098FC032000F08FFE4FF4F4
:104E00000061284803F090FC032000F087FE4FF477
:104E10004063254CADF81830022306A98DF81A30EE
:104E200020481A338DF81B3003F026FC25602846F5
:104E300001AD03F09BFD284603F0CAFC0022206868
:104E40004FF4407103F006FD4BF6FF73ADF80A30E6
:104E50004FF48043ADF81030144B002620682946EB
:104E60000193ADF8086003F00DFD2068012103F007
:104E7000BDFC07AC22238DF81C30204601238DF8A1
:104E80001F308DF81D608DF81E6003F087F9212317
:104E9000204637468DF81C308DF81D6003F07EF9F2
:104EA00009B0F0BD000C0140CC030020801A0600C0
:104EB00010B54000224CC0B220702248224C017034
:104EC00022480021017001202070214C2360214CD8
:104ED0002360214B1A70214B1870214B1970214B04
:104EE0001868838813F4007F11D1038813F4807F3E
:104EF00006D1038813F4007FFBD1012103F083FC6A
:104F0000184B4FF440711868012203F0A3FC47F2DC
:104F10003053124A127812B1013BFAD100E053B972
:104F2000114B1A88013292B21A800E4B1868FFF7A3
:104F300017FF002010BD0A4B187880F0010010BD4B
:104F4000D3030020B9030020C8030020B8030020C9
:104F5000BC030020C4030020BA030020D2030020B9
:104F6000C0030020CC030020B603002030B5400071
:104F70002A4CC0B220702A482A4C01702A480121CC
:104F8000017000202070294C294D2270294C85B0D9
:104F90002170C5F800D02849284D102AC5F800D046
:104FA000087005D937E013F800C00DF800C00130D3
:104FB000C1B29142F7D3224B1868838813F4007F63
:104FC00011D1038813F4807F06D1038813F4007F86
:104FD000FBD1012103F017FC194B4FF44071186805
:104FE000012203F037FC47F23053124A127812B113
:104FF000013BFAD100E053B9124B1A88013292B248
:105000001A800F4B1868FFF7ABFE002003E00A4B35
:10501000187880F0010005B030BD00BFD303002038
:10502000B9030020C8030020B8030020BA03002001
:10503000C4030020D2030020C0030020BC030020D2
:10504000CC030020B603002007B502AB03F8012D06
:105050000122FFF78BFF0EBD254B37B51868838AF9
:105060009BB20193019B13F4706F02D0214B01227C
:105070001A70019B13F4E06F2ED0038B00229BB2B9
:105080004FF48061009303F0E5FB019B13F4007F74
:1050900022D1174C2068038813F4007F1CD10588A7
:1050A00015F480750FD0038813F4807FFBD10121A4
:1050B00003F0B6FB0E4B1868038813F4007FFBD196
:1050C000FFF74EFE08E0012103F0AAFB20684FF431
:1050D00040712A4603F0BEFB054B1A68938A23F4FD
:1050E00070631B041B0C9382034B00221A703EBD9D
:1050F000CC030020C0030020D2030020FFF7ACBF88
:10510000FFF7AABF2DE9F04F954C85B02068828A41
:10511000D2B212F001063BD00388012123F40063D0
:105120001B041B0C038003F088FB8E4B00221A70BB
:105130008D4B1B78E3B18D4B1B781BB98C4B1B78C7
:10514000FF2B15D1894B01221A708A4B1B78022B39
:1051500006D1834B1B681A8892B242F400621A800F
:10516000854B012219787E4B186803F083FB38E1E8
:10517000814B002219787A4B186803F07BFB7C4B3B
:105180001B78FF2B00F02D814FF0FF32754BE5E0CF
:1051900012F0020347D00190FFF7D8FD754B01983C
:1051A0001D78012D19D1704B1B78B3B16F4B1B7853
:1051B0009BB1314603F041FBFFF7C8FD206829464B
:1051C000038BDBB28DF80F3003F02AFB6B4B2068AA
:1051D0001D704FF480612A4601E1038B0190DBB220
:1051E0008DF80F30FFF7B2FD624B01981B78022B50
:1051F00009D15D4B1B7833B15C4B1B781BB100218F
:1052000003F01BFBE6E05B4B1B78032B07D1564BEF
:105210001B7823B1554B1B78002B40F0DD804FF4F9
:1052200080610122DBE012F0040572D04E4ADFF803
:105230004C811278012688F80060002A4FD04B4A32
:105240001278002A4BD04B4A464D12784C4F022A16
:105250002AD9194603F0F1FA206895F800A0D7F88A
:10526000009003F004FB4FFA8AFB0BF80900B244EC
:10527000314685F800A0206803F0D2FA88F8006073
:10528000206895F800803F6803F0F1FA4FFA88FA39
:105290000AF80700B04485F8008020684FF4806168
:1052A000324603F0D7FA2DE0314603F0B9FA206810
:1052B000D7F800802E7803F0DAFA4FFA86FA013632
:1052C0000AF80800F6B22E7020683F6803F0CFFAA3
:1052D0004FFA86F8023608F807002E7012E0234CC9
:1052E000237813B9274B1B783BB1012103F098FABF
:1052F0001C4B1A7801321A7004E0012103F083FA82
:1053000001232370164B1B681A8812F4807FFBD18F
:1053100067E012F0400637D0194B124ED3F80080E8
:10532000377803F0A4FA4FFA87FA124B01370AF8DC
:105330000800FFB237701B787FB20337BB4205D13C
:1053400020684FF480612A4603F084FA094B1878EC
:10535000044B1A7851B2884243D101321A7040E0AE
:10536000CC030020D1030020C8030020D00300207C
:10537000B9030020BA030020D3030020BB030020A0
:10538000BC030020B803002012F0800F29D0224D6A
:105390002B785AB2B2F1FF3F11D02049013309688E
:1053A000515C2B7003F061FA1D4B1A7895F90030AF
:1053B0009A4216D120684FF4806132460FE0194BB3
:1053C0002E70197803F051FA174B1B7813B9144B50
:1053D0001B7833B9154B18684FF48061002203F035
:1053E00039FA0F4B0C4A1B7892F9002001339A428C
:1053F0000ED10F4B00221A700E4B1B782BB10B4BAA
:105400004FF44071186803F025FA0B4B00221A7014
:1054100005B0BDE8F08F00BFD1030020C403002019
:10542000BA030020B9030020C8030020CC030020E9
:10543000D0030020BB030020D2030020FFF762BE90
:10544000FFF760BE134A144813881180C91A0380FD
:1054500089B240F68C23994203D9104B00221A706E
:105460007047A1F53A73073B9BB240F2DA52934280
:1054700006D80A4B1B78072B9CBF094A22F8131049
:10548000064B1A7801321A70064B4FF000021A8050
:10549000704700BF02050020D403002058050020FB
:1054A000D8030020B00A0020044B1B78834204D9A3
:1054B000034B53F820305B681980704704050020C7
:1054C00008050020044B1B78834204D9034B53F892
:1054D00020305B68198070470505002038050020E2
:1054E000014B33F810007047D80300207FB501ADA1
:1054F000044628460E4603F067FC4FF04703013E82
:10550000ADF80430204600232946ADF80860ADF818
:105510000A30ADF8063003F0D3FA7FBD73B50D46FF
:105520000446164601A803F0F1F8ADF804500EB198
:10553000282300E018238DF807302046022301A914
:105540008DF8063003F098F87CBDF0B585B001AE5B
:10555000044630460D46174603F049FC4FF0010360
:10556000ADF80830204600233146ADF80450ADF8C0
:105570000670ADF80A30ADF80C3003F065FD05B0EB
:10558000F0BD0000194B142270B502FB003303F18B
:105590000802D4784FEA001C154D400064B901237D
:1055A000D37005EBC00391805CF80500197B0222E3
:1055B000BDE87040FFF7C9BFB2F804E0D180CEEB80
:1055C000010189B2198292F802E00A4B002423F803
:1055D0001E1005EBC003D470197B5CF80500224651
:1055E000FFF7B3FF044B1C8070BD00BFE803002031
:1055F00008D40008D8030020B00A00202DE9F04F9D
:105600002D4D13460201545906464FF014087600FA
:1056100085B002EB050908FB00F801368B462046F1
:105620004FF6FF710193FFF761FF55F83610D9F877
:105630000400012205EBC605FFF770FF2E7900225A
:1056400020463146FFF781FF2046012103F0D8FBB9
:105650006A79DFF868A08DF80C2000228DF80D2003
:1056600003A801328DF80E208DF80F2002F096FD70
:10567000019B0AEB08074AF808B0BB720C2E16D83B
:10568000DFE806F0071515150A1515150D15151582
:1056900010002046022107E02046042104E02046B5
:1056A000082101E020461021012203F0C6FB384604
:1056B00005B0BDE8F08F00BF08D40008E803002063
:1056C00070B50D460221044603F027FC0128204650
:1056D0000BD1022103F02CFC6BB214225A43254B50
:1056E0002046D65803F00CFC27E0042103F015FCFB
:1056F00001280ED101352046EDB2042103F018FC3B
:105700006BB214225A431B4B2046D65803F0FBFBC6
:1057100013E00821204603F000FC012811D10235D6
:105720002046EDB2082103F003FC6BB214225A4369
:10573000104B2046D65803F0E9FB01462846B047F7
:1057400070BD1021204603F0E8FB012810D103357D
:105750001021EDB2204603F0EBFB6BB214225A434A
:10576000044B2046D65803F0D4FB01462846B047E8
:1057700070BD00BFE803002001480A21FFF7A0BF69
:105780000008004001480421FFF79ABF00040040D0
:105790004FF080400021FFF793BF0000022110B5B9
:1057A000124803F0BAFB012810480CD1022103F083
:1057B000BFFB0F4B0D48D3F8A04003F0A1FB0146FF
:1057C0000820A04710BD102103F0A7FB01280CD131
:1057D0001021064803F0ACFB054B0448D3F8B44055
:1057E00003F097FB01460920A04710BD002C0140A3
:1057F000E80300202DE9F045444B454F142505FBF7
:1058000000350301DC5906464FEA460885B003EB34
:10581000070A204608F10108FFF768FE57F838101C
:10582000DAF804000022FFF779FE07EBC8076846A4
:105830003F7903F0D2FA4FF07003ADF800304FF02B
:105840000103ADF802304FF00003ADF804304FF41F
:105850007A73ADF806304FF00203ADF808304FF41C
:105860008073ADF80C300C2F2BD8DFE807F0072A37
:105870002A2A102A2A2A192A2A2A22002046694678
:1058800003F074F92046082103F0E2FA19E02046FB
:10589000694603F0C3F92046082103F0E2FA10E05C
:1058A0002046694603F006FA2046082103F0E3FA91
:1058B00007E02046694603F047FA2046082103F036
:1058C000E3FA134B03EB0616B37B1BB12046012111
:1058D00003F0A3FA2046012103F092FA0C2F10D80E
:1058E000DFE807F0070F0F0F090F0F0F0B0F0F0F58
:1058F0000D00343404E0383402E03C3400E040343D
:105900006C60284605B0BDE8F08500BFE8030020C4
:1059100008D40008037942782DE9F041002B14BF28
:1059200002230023044602B10133304A002552F815
:105930002370785DFF2856D010F0300F00F0F00390
:1059400003D02278002A08BF0023A27800F00F00BD
:105950002AB1A0F10802D2B2012A98BF8023E278CE
:1059600022B1021FD2B2032A98BF802313F0100F76
:1059700007D000221E49FFF741FE1E4B08221A7075
:105980002EE013F0200F08D01A4E1B493278FFF793
:1059900035FE33780133337022E013F0400F0BD023
:1059A000E3881649164E91FBF3F189B296F8008010
:1059B000FFF720FF134B0DE013F0800F10D0238969
:1059C0000E49114E91FBF3F189B296F80080FFF772
:1059D00011FF0E4B43F8280008F1010886F80080FB
:1059E00001350E2DA5D10020BDE8F081E8D30008D7
:1059F00045540008000500208555000840420F006E
:105A000004050020080500200505002038050020B9
:105A1000024B1A6801321A60704700BF600500200F
:105A200009490A4B0A689B6809688A42F8D1C3F59C
:105A30008C33482103F5A073B3FBF1F34FF47A7074
:105A400000FB0230704700BF6005002010E000E05E
:105A500070B5002304460E46054D5D19EA68103303
:105A6000002AF9D1FFF7DCFF28606E60EC6070BDA2
:105A70002406002070B5002304460E46054D5D192E
:105A8000AA680C33002AF9D1FFF7CAFF28606E60BC
:105A9000AC6070BD640500202DE9F04100250C27A5
:105AA0006F43194EBC19A36853B1FFF7B9FFBA5938
:105AB0006368821A9A4203D9A36898470023A360B7
:105AC000124C6F00013704EBC708D8F80430ABB1B3
:105AD000FFF7A6FF2E01331932595B68821A9A42EA
