:020000040800F2
:100000000050002075130008191400081914000886
:100010001914000819140008191400080000000041
:10002000000000000000000000000000191400089B
:10003000191400080000000019140008A15100085C
:1000400019140008191400081914000819140008DC
:1000500019140008191400081914000819140008CC
:1000600019140008191400081914000819140008BC
:1000700019140008191400089556000819140008EE
:10008000191400081914000819140008191400089C
:10009000191400081914000819140008191400088C
:1000A000191400081914000819140008191400087C
:1000B000F9500008ED50000819140008B94B000869
:1000C00079480008B54B0008754800081914000865
:1000D000191400081914000819140008191400084C
:1000E0001914000819140008191400080000000071
:1000F0000000000000000000000000000000000000
:0C01000000000000000000005FF808F1A3
:1001100040F2B013C2F200031A780AB90120187035
:10012000704700BF40F2B010C2F2000008B503688B
:100130002BB140F20003C0F2000303B1984708BDA1
:1001400081F0004102E000BF83F0004330B54FEA88
:1001500041044FEA430594EA050F08BF90EA020FF5
:100160001FBF54EA000C55EA020C7FEA645C7FEA88
:10017000655C00F0E2804FEA5454D4EB5555B8BFAB
:100180006D420CDD2C4480EA020281EA030382EA1C
:10019000000083EA010180EA020281EA0303362DAE
:1001A00088BF30BD11F0004F4FEA01314FF4801C81
:1001B0004CEA113102D0404261EB410113F0004F93
:1001C0004FEA03334CEA133302D0524263EB43034A
:1001D00094EA050F00F0A780A4F10104D5F1200EE8
:1001E0000DDB02FA0EFC22FA05F2801841F1000143
:1001F00003FA0EF2801843FA05F359410EE0A5F117
:1002000020050EF1200E012A03FA0EFC28BF4CF047
:10021000020C43FA05F3C01851EBE37101F00045FD
:1002200007D54FF0000EDCF1000C7EEB00006EEB0A
:100230000101B1F5801F1BD3B1F5001F0CD3490894
:100240005FEA30004FEA3C0C04F101044FEA4452EB
:1002500012F5800F80F09A80BCF1004F08BF5FEA72
:10026000500C50F1000041EB045141EA050130BD52
:100270005FEA4C0C404141EB010111F4801FA4F1F5
:100280000104E9D191F0000F04BF01460020B1FA4A
:1002900081F308BF2033A3F10B03B3F120020CDA82
:1002A0000C3208DD02F1140CC2F10C0201FA0CF060
:1002B00021FA02F10CE002F11402D8BFC2F1200CC5
:1002C00001FA02F120FA0CFCDCBF41EA0C0190407B
:1002D000E41AA2BF01EB0451294330BD6FEA0404C4
:1002E0001F3C1CDA0C340EDC04F11404C4F12002AF
:1002F00020FA04F001FA02F340EA030021FA04F3C1
:1003000045EA030130BDC4F10C04C4F1200220FA17
:1003100002F001FA04F340EA0300294630BD21FA55
:1003200004F0294630BD94F0000F83F4801306BF1B
:1003300081F480110134013D4EE77FEA645C18BF0F
:100340007FEA655C29D094EA050F08BF90EA020FA6
:1003500005D054EA000C04BF1946104630BD91EA9E
:10036000030F1EBF0021002030BD5FEA545C05D1A1
:100370004000494128BF41F0004130BD14F58004E0
:100380003CBF01F5801130BD01F0004545F0FE4154
:1003900041F470014FF0000030BD7FEA645C1ABF89
:1003A000194610467FEA655C1CBF0B46024650EAC0
:1003B000013406BF52EA033591EA030F41F40021EC
:1003C00030BD00BF90F0000F04BF0021704730B572
:1003D0004FF4806404F132044FF000054FF0000147
:1003E00050E700BF90F0000F04BF0021704730B508
:1003F0004FF4806404F1320410F0004548BF4042DD
:100400004FF000013EE700BF42004FEAE2014FEA31
:1004100031014FEA02701FBF12F07F4393F07F4F0C
:1004200081F06051704792F0000F14BF93F07F4F3E
:10043000704730B54FF4607401F0004521F0004181
:1004400020E700BF50EA010208BF704730B54FF007
:1004500000050AE050EA010208BF704730B511F00C
:10046000004502D5404261EB41014FF4806404F144
:1004700032045FEA915C3FF4DCAE4FF003025FEAC6
:10048000DC0C18BF03325FEADC0C18BF033202EB4E
:10049000DC02C2F1200300FA03FC20FA02F001FAA8
:1004A00003FE40EA0E0021FA02F11444C1E600BF47
:1004B00070B54FF0FF0C4CF4E06C1CEA11541DBFFA
:1004C0001CEA135594EA0C0F95EA0C0F00F0DEF8C5
:1004D0002C4481EA030621EA4C5123EA4C5350EAAA
:1004E000013518BF52EA033541F4801143F48013FB
:1004F00038D0A0FB02CE4FF00005E1FB02E506F08C
:100500000042E0FB03E54FF00006E1FB03569CF0E0
:10051000000F18BF4EF0010EA4F1FF04B6F5007FE6
:1005200064F5407404D25FEA4E0E6D4146EB060658
:1005300042EAC62141EA55514FEAC52040EA5E50E1
:100540004FEACE2EB4F1FD0C88BFBCF5E06F1ED88B
:10055000BEF1004F08BF5FEA500E50F1000041EBC2
:10056000045170BD06F0004646EA010140EA02006F
:1005700081EA0301B4EB5C04C2BFD4EB0C0541EA91
:10058000045170BD41F480114FF0000E013C00F3A6
:10059000AB8014F1360FDEBF002001F0004170BDCA
:1005A000C4F10004203C35DA0C341BDC04F11404E3
:1005B000C4F1200500FA05F320FA04F001FA05F26F
:1005C00040EA020001F0004221F0004110EBD3703C
:1005D00021FA04F642EB06015EEA430E08BF20EA68
:1005E000D37070BDC4F10C04C4F1200500FA04F30B
:1005F00020FA05F001FA04F240EA020001F000419D
:1006000010EBD37041F100015EEA430E08BF20EA0F
:10061000D37070BDC4F1200500FA05F24EEA020E57
:1006200020FA04F301FA05F243EA020321FA04F086
:1006300001F0004121FA04F220EA020000EBD3703D
:100640005EEA430E08BF20EAD37070BD94F0000F3D
:100650000FD101F00046400041EB010111F4801F71
:1006600008BF013CF7D041EA060195F0000F18BF22
:10067000704703F00046520043EB030313F4801F5E
:1006800008BF013DF7D043EA0603704794EA0C0F18
:100690000CEA135518BF95EA0C0F0CD050EA41062E
:1006A00018BF52EA4306D1D181EA030101F00041AB
:1006B0004FF0000070BD50EA410606BF10461946D3
:1006C00052EA430619D094EA0C0F02D150EA0136DF
:1006D00013D195EA0C0F05D152EA03361CBF104620
:1006E00019460AD181EA030101F0004141F0FE41BF
:1006F00041F470014FF0000070BD41F0FE4141F443
:10070000780170BD70B54FF0FF0C4CF4E06C1CEA42
:1007100011541DBF1CEA135594EA0C0F95EA0C0FF7
:1007200000F0A7F8A4EB050481EA030E52EA0335B2
:100730004FEA013100F088804FEA03334FF08055D3
:1007400045EA131343EA12634FEA022245EA111500
:1007500045EA10654FEA00260EF000419D4208BFB1
:10076000964244F1FD0404F5407402D25B084FEA5E
:100770003202B61A65EB03055B084FEA32024FF40A
:1007800080104FF4002CB6EB020E75EB030E22BF67
:10079000B61A754640EA0C005B084FEA3202B6EB27
:1007A000020E75EB030E22BFB61A754640EA5C00D6
:1007B0005B084FEA3202B6EB020E75EB030E22BF66
:1007C000B61A754640EA9C005B084FEA3202B6EB67
:1007D000020E75EB030E22BFB61A754640EADC0026
:1007E00055EA060E18D04FEA051545EA16754FEA88
:1007F00006164FEAC30343EA52734FEAC2025FEAA6
:100800001C1CC0D111F4801F0BD141EA00014FF034
:1008100000004FF0004CB6E711F4801F04BF014305
:100820000020B4F1FD0C88BFBCF5E06F3FF6AFAE21
:10083000B5EB030C04BFB6EB020C5FEA500C50F1B1
:10084000000041EB045170BD0EF0004E4EEA113134
:1008500014EB5C04C2BFD4EB0C0541EA045170BD3B
:1008600041F480114FF0000E013C90E645EA060E7F
:100870008DE60CEA135594EA0C0F08BF95EA0C0FAD
:100880003FF43BAF94EA0C0F0AD150EA01347FF4F5
:1008900034AF95EA0C0F7FF425AF104619462CE7CC
:1008A00095EA0C0F06D152EA03353FF4FDAE10462F
:1008B000194622E750EA410618BF52EA43067FF480
:1008C000C5AE50EA41047FF40DAF52EA43057FF410
:1008D000EBAE12E74FF0FF3C06E000BF4FF0010C1B
:1008E00002E000BF4FF0010C4DF804CD4FEA410C7F
:1008F0007FEA6C5C4FEA430C18BF7FEA6C5C1BD04C
:1009000001B050EA410C0CBF52EA430C91EA030FCC
:1009100002BF90EA020F0020704710F1000F91EA29
:10092000030F58BF994208BF90422CBFD8176FEAF7
:10093000E37040F0010070474FEA410C7FEA6C5CC5
:1009400002D150EA013C07D14FEA430C7FEA6C5CCC
:10095000D6D152EA033CD3D05DF8040B704700BFF8
:100960008446104662468C461946634600E000BF46
:1009700001B5FFF7B7FF002848BF10F1000F01BD18
:100980004DF808EDFFF7F4FF0CBF012000205DF8E3
:1009900008FB00BF4DF808EDFFF7EAFF34BF012068
:1009A00000205DF808FB00BF4DF808EDFFF7E0FF01
:1009B00094BF012000205DF808FB00BF4DF808ED52
:1009C000FFF7CEFF94BF012000205DF808FB00BFB9
:1009D0004DF808EDFFF7C4FF34BF012000205DF89B
:1009E00008FB00BF4A0011D212F5001211D20DD53A
:1009F0006FF47873B3EB62520ED44FEAC12343F025
:100A0000004343EA505323FA02F070474FF00000CE
:100A1000704750EA013002D14FF0FF3070474FF07D
:100A2000000070474FEA4102B2F1E04324BFB3F542
:100A3000001CDCF1FE5C0DD901F0004C4FEAC00255
:100A40004CEA5070B2F1004F40EB830008BF20F039
:100A50000100704711F0804F21D113F13872BCBFF3
:100A600001F00040704741F480114FEA5252C2F148
:100A70001802C2F1200C10FA0CF320FA02F018BF91
:100A800040F001004FEAC1234FEAD32303FA0CFCE4
:100A900040EA0C0023FA02F34FEA4303CCE77FEA73
:100AA000625307D150EA01331EBF4FF0FE4040F4BD
:100AB0004000704701F0004040F0FE4040F400006C
:100AC000704700BF80F0004002E000BF81F00041AD
:100AD00042001FBF5FEA410392EA030F7FEA226CE4
:100AE0007FEA236C6AD04FEA1262D2EB1363C1BF74
:100AF000D218414048404140B8BF5B42192B88BFE3
:100B0000704710F0004F40F4000020F07F4018BF05
:100B1000404211F0004F41F4000121F07F4118BF25
:100B2000494292EA030F3FD0A2F1010241FA03FCCD
:100B300010EB0C00C3F1200301FA03F100F00043B5
:100B400002D5494260EB4000B0F5000F13D3B0F17D
:100B5000807F06D340084FEA310102F10102FE2AEC
:100B600051D2B1F1004F40EBC25008BF20F001005C
:100B700040EA03007047490040EB000010F4000F0A
:100B8000A2F10102EDD1B0FA80FCACF1080CB2EB9D
:100B90000C0200FA0CF0AABF00EBC25052421843FC
:100BA000BCBFD0401843704792F0000F81F40001A1
:100BB00006BF80F400000132013BB5E74FEA410374
:100BC0007FEA226C18BF7FEA236C21D092EA030FE0
:100BD00004D092F0000F08BF0846704790EA010F5A
:100BE0001CBF0020704712F07F4F04D1400028BF87
:100BF00040F00040704712F100723CBF00F5000069
:100C0000704700F0004343F0FE4040F4000070479E
:100C10007FEA226216BF08467FEA2363014642024A
:100C200006BF5FEA412390EA010F40F4800070475D
:100C30004FF0000304E000BF10F0004348BF404203
:100C40005FEA000C08BF704743F0964301464FF03F
:100C500000001CE050EA010208BF70474FF000039B
:100C60000AE000BF50EA010208BF704711F00043DC
:100C700002D5404261EB41015FEA010C02BF8446AC
:100C80000146002043F0B64308BFA3F18053A3F50B
:100C90000003BCFA8CF2083AA3EBC25310DB01FA52
:100CA00002FC634400FA02FCC2F12002BCF1004FD6
:100CB00020FA02F243EB020008BF20F00100704767
:100CC00002F1200201FA02FCC2F1200250EA4C00BB
:100CD00021FA02F243EB020008BF20EADC70704701
:100CE0004FF0FF0C1CEAD0521EBF1CEAD15392EA0F
:100CF0000C0F93EA0C0F6FD01A4480EA010C4002EB
:100D000018BF5FEA41211ED04FF0006343EA501044
:100D100043EA5111A0FB01310CF00040B1F5000F86
:100D20003EBF490041EAD3715B0040EA010062F135
:100D30007F02FD2A1DD8B3F1004F40EBC25008BF1F
:100D400020F00100704790F0000F0CF0004C08BF3D
:100D500049024CEA502040EA51207F3AC2BFD2F10A
:100D6000FF0340EAC250704740F400004FF0000318
:100D7000013A5DDC12F1190FDCBF00F00040704752
:100D8000C2F10002410021FA02F1C2F1200200FA90
:100D900002FC5FEA310040F1000053EA4C0308BF57
:100DA00020EADC70704792F0000F00F0004C02BFA8
:100DB000400010F4000F013AF9D040EA0C0093F023
:100DC000000F01F0004C02BF490011F4000F013B7D
:100DD000F9D041EA0C018FE70CEAD15392EA0C0FEB
:100DE00018BF93EA0C0F0AD030F0004C18BF31F056
:100DF000004CD8D180EA010000F00040704790F02C
:100E0000000F17BF90F0004F084691F0000F91F0CF
:100E1000004F14D092EA0C0F01D142020FD193EA95
:100E20000C0F03D14B0218BF084608D180EA01001D
:100E300000F0004040F0FE4040F40000704740F0F9
:100E4000FE4040F4400070474FF0FF0C1CEAD052C7
:100E50001EBF1CEAD15392EA0C0F93EA0C0F69D023
:100E6000A2EB030280EA010C49024FEA402037D08E
:100E70004FF0805343EA111143EA10130CF0004085
:100E80008B4238BF5B0042F17D024FF4000C8B4275
:100E900024BF5B1A40EA0C00B3EB510F24BFA3EB55
:100EA000510340EA5C00B3EB910F24BFA3EB910325
:100EB00040EA9C00B3EBD10F24BFA3EBD10340EA7F
:100EC000DC001B0118BF5FEA1C1CE0D1FD2A3FF6C5
:100ED00050AF8B4240EBC25008BF20F0010070477A
:100EE0000CF0004C4CEA50207F32C2BFD2F1FF031D
:100EF00040EAC250704740F400004FF00003013A4E
:100F000037E792F0000F00F0004C02BF400010F4F1
:100F1000000F013AF9D040EA0C0093F0000F01F005
:100F2000004C02BF490011F4000F013BF9D041EA27
:100F30000C0195E70CEAD15392EA0C0F08D142025A
:100F40007FF47DAF93EA0C0F7FF470AF084676E72D
:100F500093EA0C0F04D14B023FF44CAF08466EE706
:100F600030F0004C18BF31F0004CCAD130F00042D4
:100F70007FF45CAF31F000437FF43CAF5FE700BF2C
:100F80004FF0FF3C06E000BF4FF0010C02E000BF55
:100F90004FF0010C4DF804CD4FEA40024FEA4103F7
:100FA0007FEA226C18BF7FEA236C11D001B052EAAD
:100FB000530C18BF90EA010F58BFB2EB030088BF73
:100FC000C81738BF6FEAE17018BF40F001007047E2
:100FD0007FEA226C02D15FEA402C05D17FEA236CC4
:100FE000E4D15FEA412CE1D05DF8040B704700BF0B
:100FF000844608466146FFE70FB5FFF7C9FF0028A2
:1010000048BF10F1000F0FBD4DF808EDFFF7F4FFDA
:101010000CBF012000205DF808FB00BF4DF808ED73
:10102000FFF7EAFF34BF012000205DF808FB00BF96
:101030004DF808EDFFF7E0FF94BF012000205DF8B8
:1010400008FB00BF4DF808EDFFF7D2FF94BF012069
:1010500000205DF808FB00BF4DF808EDFFF7C8FF62
:1010600034BF012000205DF808FB00BF4FEA4002BA
:10107000B2F1FE4F0FD34FF09E03B3EB12620DD9C6
:101080004FEA002343F0004310F0004F23FA02F030
:1010900018BF404270474FF00000704712F1610FD7
:1010A00001D1420205D110F0004008BF6FF00040AE
:1010B00070474FF00000704742000ED2B2F1FE4F71
:1010C0000BD34FF09E03B3EB126209D44FEA002317
:1010D00043F0004323FA02F070474FF000007047DE
:1010E00012F1610F01D1420202D14FF0FF3070477F
:1010F0004FF00000704700BF4A1E08BF7047C0F0A5
:101100002481884240F21681114200F01781B0FA22
:1011100080F3B1FA81F2A2EB0303C3F11F0304A22F
:1011200002EB03134FF000029F4600BFAFF30080B5
:10113000B0EBC17F00BF42EB020228BFA0EBC17041
:10114000B0EB817F00BF42EB020228BFA0EB8170B1
:10115000B0EB417F00BF42EB020228BFA0EB417021
:10116000B0EB017F00BF42EB020228BFA0EB017091
:10117000B0EBC16F00BF42EB020228BFA0EBC16021
:10118000B0EB816F00BF42EB020228BFA0EB816091
:10119000B0EB416F00BF42EB020228BFA0EB416001
:1011A000B0EB016F00BF42EB020228BFA0EB016071
:1011B000B0EBC15F00BF42EB020228BFA0EBC15001
:1011C000B0EB815F00BF42EB020228BFA0EB815071
:1011D000B0EB415F00BF42EB020228BFA0EB4150E1
:1011E000B0EB015F00BF42EB020228BFA0EB015051
:1011F000B0EBC14F00BF42EB020228BFA0EBC140E1
:10120000B0EB814F00BF42EB020228BFA0EB814050
:10121000B0EB414F00BF42EB020228BFA0EB4140C0
:10122000B0EB014F00BF42EB020228BFA0EB014030
:10123000B0EBC13F00BF42EB020228BFA0EBC130C0
:10124000B0EB813F00BF42EB020228BFA0EB813030
:10125000B0EB413F00BF42EB020228BFA0EB4130A0
:10126000B0EB013F00BF42EB020228BFA0EB013010
:10127000B0EBC12F00BF42EB020228BFA0EBC120A0
:10128000B0EB812F00BF42EB020228BFA0EB812010
:10129000B0EB412F00BF42EB020228BFA0EB412080
:1012A000B0EB012F00BF42EB020228BFA0EB0120F0
:1012B000B0EBC11F00BF42EB020228BFA0EBC11080
:1012C000B0EB811F00BF42EB020228BFA0EB8110F0
:1012D000B0EB411F00BF42EB020228BFA0EB411060
:1012E000B0EB011F00BF42EB020228BFA0EB0110D0
:1012F000B0EBC10F00BF42EB020228BFA0EBC10060
:10130000B0EB810F00BF42EB020228BFA0EB8100CF
:10131000B0EB410F00BF42EB020228BFA0EB41003F
:10132000B0EB010F00BF42EB020228BFA0EB0100AF
:10133000104670470CBF012000207047B1FA81F2BF
:10134000C2F11F0220FA02F0704708B14FF0FF30DF
:1013500000F00EB80029F8D02DE90340FFF7CCFECD
:10136000BDE8064002FB00F3A1EB0301704700BF9C
:10137000704700BF1A481B49026800608A4219D0B2
:10138000002103E0184B5B58435004311748184BB9
:1013900042189A42F6D3174A02E0002342F8043B6F
:1013A000154B9A42F9D306F06DFB09F0D1FE00F01F
:1013B00073F8FEE7114E124830601248016821F0C0
:1013C00070610160410201600F4C182020600F49DC
:1013D0000F4808600F48D0F800D040680047000070
:1013E000F04F0020EFBEADDE7CCD000800000020F5
:1013F000B0010020B001002040120020181002406F
:101400000900000004000140140C0140000C0140E0
:101410004434434400F0FF1FFEE700000F4B93F8F5
:1014200058312BB90E4BDA6882F01002DA6009E00D
:101430000C4B1B791BB10A4B10225A6102E0084B7E
:1014400010221A61074B5B781BB1054B08225A61C9
:101450007047034B08221A61704700BFD405002073
:10146000000C0140A005002010B503F0A9FE084BB8
:10147000084A19681860411A116000F081FE00F0F6
:10148000ADF800F0EFFDBDE8104000F0A1BD00BFD9
:10149000B4010020F404002008B503F017FF05F0A4
:1014A0004DFD00F0F3FD1D4840F6055103F0A2FE8E
:1014B0001B4840F6055103F09DFE1A4844F6206192
:1014C00003F098FE184B93F8943123B1174843F278
:1014D000154103F08FFE164844F6206103F08AFEA2
:1014E0001448154903F086FE144844F6206103F0C1
:1014F00081FE1348104903F07DFE0B4B93F8A43195
:1015000023B1104849F6404103F074FE03F084FE15
:1015100005F07CFD05F0ACFDF8E700BF2D57000895
:1015200069140008092E0008D4050020D1700008B5
:1015300031710008C9560008A0860100453900082D
:101540001D1400089D710008214A92F83230191FBD
:10155000C9B2012912D9012B10D0022B0ED0032BB6
:101560000CD0092B0AD0112B08D0122B04D192F8E1
:10157000D820042A02D903E0152B01D1012100E073
:101580000021144A013B1170142B1FD8DFE803F02F
:101590000F11110D0B13131E11131E1E1E1E1E1EE6
:1015A00011151E1E1B0000220AE0022208E0032281
:1015B00006E0042204E0062202E0054B93F8D8205E
:1015C000054B1A707047044B01221A70704700BF18
:1015D000D4050020B8010020F80400202DE9F74FC1
:1015E000974B984C93F83230013B142B00F28D84CA
:1015F000DFE813F0AC00340178012B00BC03FC01E0
:1016000068028B04B701D0028B048B048B048B041B
:101610008B048B043B0315008B048B0423048A4B3F
:10162000874AD3F80C90894B92F8B870D3F800A091
:10163000D3F804809E68864B02F1DC041B78E83204
:101640000C21804D01FB032381E3804F7E4B7E689C
:1016500000213046D3F80C90FFF742FB784D8046CE
:1016600095F9B800FFF7E8FAB968FFF739FB0021F0
:10167000D7F800A00746FFF733FB5146834648469C
:10168000FFF726FA4146FFF723FA5946FFF720FAFB
:10169000FFF712FD514620804846FFF717FA4146F2
:1016A000FFF716FA5946FFF713FAFFF705FD6080BA
:1016B000B5F8AE00FFF7C0FA3946FFF709FA314630
:1016C000FFF706FA0446B5F8AC00FFF7B5FA804616
:1016D00041462046FFF7A2FC08B140460CE0B5F8B1
:1016E000B000FFF7A9FA054629462046FFF7B4FCEB
:1016F00008B1284600E02046FFF7DEFC504D554B70
:1017000080B21880B5F8B400FFF796FA3946FFF7B3
:10171000DFF93146FFF7DAF90446B5F8B200FFF712
:101720008BFA064631462046FFF778FC002840F049
:101730006F83B5F8B600FFF77FFA054629462046C5
:10174000FFF78AFC002800F06F836FE33F4E3E4BAB
:10175000D6F804A04FF040415046DF68FFF7C0FACA
:101760003D49FFF771FB364D814695F9B800FFF70B
:1017700063FAB168FFF7B4FA00218346FFF7B0FAC5
:10178000D6F80080064641463846FFF7A1F949469B
:10179000FFF79EF93146FFF79BF9FFF78DFC4146B5
:1017A00020803846FFF792F94946FFF791F9314614
:1017B000FFF78EF9FFF780FC002160804046FFF7BD
:1017C0008FFA01463846FFF783F94FF0814107460B
:1017D0005046FFF785FA2049FFF736FB01463846A9
:1017E000FFF776F93146FFF773F9FFF765FCA08044
:1017F000B5F8BC00FFF720FA5946FFF769F904462F
:10180000B5F8BA00FFF718FA064631462046FFF74A
:1018100005FC08B130460CE0B5F8BE00FFF70CFA45
:10182000054629462046FFF717FC08B1284600E088
:101830002046FFF741FC074B80B2188065E300BFEC
:10184000D4050020000000206C0000208C05002042
:10185000F80400201000002000004040954D964BF9
:101860002E6800213046DF68FFF73AFA0146384615
:10187000FFF72EF9914B814693F9B800FFF7DCF999
:10188000A968FFF72DFAD5F8048005464146484679
:10189000FFF71CF92946FFF719F9FFF70DFC0021A6
:1018A00020804046FFF71CFA314682463846FFF753
:1018B0000DF95146FFF70CF92946FFF709F9FFF733
:1018C000FBFB414660804846FFF702F92946FFF7D7
:1018D000FDF8FFF7F1FB3146A0803846FFF7F8F836
:1018E000514638E0734D744BD5F80080D3F80CA006
:1018F00041465046FFF7ECF8704B074693F9B800A5
:10190000FFF79AF9A968FFF7EBF96E6805463146CB
:101910003846FFF7DBF82946FFF7D8F8FFF7CCFB8E
:10192000414620805046FFF7D1F831468046FFF708
:10193000CDF82946FFF7CCF8FFF7BEFB31466080B3
:101940004046FFF7C5F82946FFF7C0F8FFF7B4FB9C
:101950003146A0803846FFF7BBF82946FFF7B8F8B4
:10196000C9E1554BDFF84C81DE68544BD8F8045080
:1019700093F9B800FFF760F9D8F80810FFF7B0F94D
:101980000021D8F800708046FFF7AAF93946824650
:101990003046FFF79DF82946FFF798F85146FFF7C4
:1019A00097F8FFF789FB394620803046FFF78EF81D
:1019B0002946FFF78BF85146FFF78AF8FFF77CFBC3
:1019C000002160803846FFF78BF901463046FFF76B
:1019D0007FF82946FFF77CF841460546FFF776F881
:1019E000FFF76AFB4146A0802846B7E7314D324BEE
:1019F000D5F804A04FF040415046DE68FFF770F97B
:101A00002F49FFF721FA2F68814639463046FFF704
:101A10005FF84946FFF75CF8284B804693F9B80019
:101A2000FFF70AF9A968FFF75BF905462946404622
:101A3000FFF74CF8FFF740FB394620803046FFF7B0
:101A400045F84946FFF744F829468146FFF73EF836
:101A5000FFF732FB002160803846FFF741F901466D
:101A60003046FFF735F84FF0814106465046FFF704
:101A700037F91349FFF7E8F901463046FFF728F830
:101A800029460646FFF724F8FFF716FB2946A080F3
:101A90004046FFF71DF8FFF70FFB2946E080484658
:101AA000FFF716F8FFF708FB294620813046FFF7BD
:101AB0000DF8D6E08C0500206C000020D405002035
:101AC00000004040A44DA54BD5F8008000214046C1
:101AD000D3F80CA0FFF704F901465046FEF7F8FFD3
:101AE0006F6881469E493846FFF7FAF84FF0785103
:101AF000FFF7F6F89B4B064693F9B800FFF79CF802
:101B0000A968FFF7EDF8314605464846FEF7E0FFC5
:101B10002946FEF7DBFFFFF7CFFA4146208050460B
:101B2000FEF7D4FF31468346FEF7D2FF2946FEF783
:101B3000CFFFFFF7C1FA8C4960803846FFF7D0F835
:101B40004FF07851FFF7CCF8074639465846FEF774
:101B5000BFFF2946FEF7BAFFFFF7AEFA3946A0806D
:101B60004846FEF7B5FF2946FEF7B2FFFFF7A4FA95
:101B70004146E0805046FEF7ABFF39468046FEF70F
:101B8000A7FF2946FEF7A2FFFFF796FA314620810C
:101B9000404661E0704D714BD5F800A07249504647
:101BA000D3F80C80FFF79CF84FF07851FFF798F8C6
:101BB00001464046FEF78CFF6A4B074693F9B80092
:101BC000FFF73AF8A968FFF78BF86E6805463146CB
:101BD0003846FEF77BFF2946FEF778FFFFF76CFAE1
:101BE0005F4920805046FFF77BF84FF07851FFF7B0
:101BF00077F801464046FEF76BFF31468246FEF716
:101C000065FF2946FEF764FFFFF756FA0021608062
:101C10003046FFF765F8804641465046FEF758FFCC
:101C20002946FEF753FFFFF747FA3146A08050469A
:101C3000FEF74EFF2946FEF74BFFFFF73DFA314610
:101C4000E0803846FEF744FF2946FEF73FFFFFF7E6
:101C500033FA414620813846FEF73AFF2946FEF71F
:101C600037FFFFF729FA60814FE13C4BDFF8E8804E
:101C7000DE683C4BD8F8045093F9B800FEF7DCFF5F
:101C8000D8F80810FFF72CF80021D8F8007080462B
:101C9000FFF726F8394682463046FEF719FF2946F7
:101CA000FEF714FF5146FEF713FFFFF705FA39461A
:101CB00020803046FEF70AFF2946FEF707FF51460F
:101CC000FEF706FFFFF7F8F9002160803846FFF7BE
:101CD00007F801463046FEF7FBFE2946FEF7F8FE00
:101CE00041460546FEF7F4FEFFF7E6F94146A080BF
:101CF0002846FEF7EBFEFFF7DFF9E08005E154F838
:101D00000C1C50460193FEF7EBFF01464846FEF7D8
:101D1000DFFE54F8081C83464046FEF7E1FF01460B
:101D20005846FEF7D5FE834678B2FEF785FF31466A
:101D3000FEF7D6FF54F8041CFEF7D2FF01465846C2
:101D4000FEF7C6FEFFF7B8F9019B25F8020C0C342C
:101D500002359C42D3D1D8E08C0500206C000020D5
:101D60000000E0C0D40500200000E0408F4CB4F833
:101D7000C200FEF761FF8E4B05469969D4F8C80092
:101D8000FEF7AEFF01462846FEF7A2FE894B196812
:101D9000FEF79EFE0546B4F8C000FEF74DFF06466E
:101DA00031462846FFF73AF908B130460CE0B4F85E
:101DB000C400FEF741FF044621462846FFF74CF9D0
:101DC00008B1204600E02846FFF776F9774C7A4BB9
:101DD00080B21880B4F8CE00FEF72EFF744B054693
:101DE000D969D4F8D400FEF77BFF01462846FEF7F8
:101DF0006FFE704B5968FEF76BFE0546B4F8CC00D9
:101E0000FEF71AFF064631462846FFF707F908B1E4
:101E100030460CE0B4F8D000FEF70EFF0446214631
:101E20002846FFF719F908B1204600E02846FFF7D9
:101E300043F9614B80B2588067E05E4E5E4DF068BA
:101E4000FFF73AF95D4B20801B79584C73B9E08E4F
:101E5000FEF7F2FE804641467068FEF737FE4146C7
:101E600007463068FEF732FE064602E0544B5F68D4
:101E70001E6894F92601FEF7DFFE3946FEF730FFB3
:101E8000804694F92401FEF7D7FE3146FEF728FF7D
:101E900001464046FEF71CFEFFF70EF9288094F934
:101EA0002701FEF7C9FE3946FEF71AFF074694F9E7
:101EB0002501FEF7C1FE3146FEF712FF0146384606
:101EC000FEF706FEFFF7F8F838493B4A6880CB8EEC
:101ED0001088B1F828211818904205DBB1F82A21A2
:101EE0009042B8BF024692B233490A804A882F49CD
:101EF000D218B1F82C319A4205DBB1F82E319A4252
:101F0000B8BF13469BB22C4A53802E4B2E4993F8F0
:101F100000B00A88012308E031F8020F0FFA82FCB2
:101F200001336045C8BF0246DBB25B45F4D31F4BAB
:101F3000264CB3F84000D98FB3F83A8093F842703A
:101F40009E8E1E4BC2EB00095D781FFA89F9B4F929
:101F500006A04FEA4B0B002323E00FFA82FC8445D6
:101F600005DD194C34F803C0CC4424F803C0164CEA
:101F700034F803C08C4501D28C4602E0844528BF6A
:101F80008446114CC24524F803C003DA0FB1E6526F
:101F900000E0E15225B90C4C4FF47A7C24F803C0E0
:101FA00002335B45D9D1BDE8FE8F00BFD4050020C8
:101FB0006C1100206C00002010000020A005002003
:101FC0008C050020F804002000000020C00500203F
:101FD00038B50B4B00241D78002D14BF02250025B9
:101FE00008E0084B601933F81410C0B202F0E6FDA7
:101FF0000134E4B2044B1B78A342F2D838BD00BFD1
:10200000B801002000000020F80400200649074B1A
:1020100009789A1C02EB410201E023F8020C02331A
:102020009342FAD1FFF7D4BFF8040020000000204B
:1020300038B5054600240FE0094B0134D88FFFF76F
:10204000E5FFFA2003F027F94FF47A70FFF7DEFF7F
:10205000FA2003F020F9E4B2AC42EDD338BD00BF62
:10206000D4050020074B10B51B7853B1064C002057
:10207000218802F0A3FD61880120BDE8104002F034
:102080009DBD10BDB801002010000020084B094A7A
:1020900003F16001D86C1060186D5060586D90604D
:1020A000986D1033D06018328B42F3D1704700BF67
:1020B000D4050020FC040020044B03F19001002211
:1020C0001A615A6118338B42F9D17047FC04002021
:1020D00000230361436170472DE9F04704460D4634
:1020E000D0F814901046616161689046FEF7F8FDE3
:1020F0002049FEF7F5FD01462846FEF7F1FD21696E
:10210000FEF7E6FCD4F80CA0074620611A495046B9
:10211000FEF7E6FD064631463846FEF77FFF50B92A
:1021200014495046FEF7DCFD064631463846FEF7B8
:1021300093FF00B93E46266121682846FEF7D0FD90
:102140000C4907463046FEF77FFE01463846FEF74B
:10215000BFFC494606462846FEF7B8FCA168FEF7D4
:10216000BFFD4146FEF770FE01463046FEF7B0FC6B
:10217000BDE8F08700007A4400007AC40000000047
:102180002DE9F84503F01CF8714E724B05461860B6
:102190003068281AFEF74CFD6F49FEF7A1FD6F4B22
:1021A00004461A793560002A31D06D4D6868FEF713
:1021B0002BF963A3D3E90023FEF77AF9FEF732FC8B
:1021C00007462868FEF720F95DA3D3E90023654D93
:1021D000FEF76EF9FEF726FCA969FEF777FC01F021
:1021E000BDFF224601466048FFF776FF01F0B6FFCB
:1021F000E96906463846FEF769FC01F0AFFF224662
:1022000001465A48FFF768FF01F0A8FF45E05B7AF6
:10221000534D002B2CD0534B186A554B1968FEF7C1
:1022200055FC064606F09AFC8246304606F0C8FC8D
:10223000D5F80080074651464046FEF751FD6D68CF
:10224000064639462846FEF74BFD01463046FEF766
:102250003DFC514606462846FEF742FD39460546F6
:102260004046FEF73DFD01462846FEF731FC14E0EE
:102270002868FEF7C9F834A3D3E90023FEF718F95C
:10228000FEF7D0FB06466868FEF7BEF82EA3D3E93A
:102290000023FEF70DF9FEF7C5FB304B05465B79D1
:1022A000CBB1344B9B78B3B1334B9B7813B93348E4
:1022B000FFF70EFF324B18682A4B196AFEF706FC2F
:1022C00001F04CFF224601462C48FFF705FF01F0C4
:1022D00045FF80460FE0224B9868FEF795F81AA359
:1022E000D3E90023FEF7E4F8FEF79CFB1D4B804684
:1022F0001A6A234B1A601B4F3046796AFEF7E6FBD9
:10230000224601461F48FFF7E7FE1F4EB96A3060BC
:102310002846FEF7DBFB224601461C48FFF7DCFEA1
:10232000F96A70604046FEF7D1FB22460146184824
:10233000FFF7D2FEB060BDE8F88500BFAFF30080C4
:10234000FCA9F1D24D62503F7B14AE47E17A743F55
:10235000C0010020BC010020BD378635A00500204B
:102360006C0000206C110020440500205C0500205A
:10237000D0050020680000207C00002074050020AB
:102380009C050020FC0400208C0500201405002082
:102390002C050020AFF30080014B01221A7070471A
:1023A000E8010020014803F0C1B800BF38B40008BC
:1023B000014803F0BBB800BF66B4000838B50D484B
:1023C00003F0B4F800240C4D285903F0AFF82D1990
:1023D000092003F095F8686803F0A8F8074803F0AF
:1023E000A5F803F04DF80028FBD00C343C2CEAD1C2
:1023F00038BD00BF6BB400080CBE000837B600083B
:1024000038B50D4803F092F800240C4D285903F01C
:102410008DF82D19092003F073F8686803F086F829
:10242000074803F083F803F02BF80028FBD00C34A6
:10243000842CEAD138BD00BF8EB40008B4B30008C4
:1024400037B600081FB5184803F070F802F012FF05
:102450004FF47A73B0FBF3F069460A2201F0C2FD33
:10246000684603F063F8114803F060F8104803F081
:102470005DF8104803F05AF80F4803F057F80F487A
:1024800003F054F80E4803F051F802F033F86946AF
:102490000A2201F0A7FD684603F048F809486C4697
:1024A00003F044F81FBD00BFA4B40008B4B4000892
:1024B000C8B40008CDB4000883BD0008D7B4000834
:1024C000E4B4000837B600082DE9F041074608F0EB
:1024D00087FEC5B255B91F4803F028F81E4B93F884
:1024E00032201E4B013A53F822002AE038461C499C
:1024F0002A4608F07DFE044670B91A4803F016F823
:10250000164B53F82400F0B103F010F801342020EA
:1025100002F0F6FFE4B2F3E70024104E56F8241060
:1025200009B9114810E038462A4608F061FE631CDC
:1025300070B9094A0D4882F8323002F0F7FF56F8B8
:10254000240002F0F3FF0A48BDE8F04102F0EEBFBC
:10255000DCB2E2E7F3B40008D4050020200000203C
:1025600086B8000803B5000816B500082EB50008A7
:1025700037B6000870B50D680446284608F030FEEE
:10258000024620682946BDE8704008F031BE0000D0
:102590007FB5037904460D46052B2BD8DFE803F001
:1025A000030810151B208368204968461A7804E048
:1025B00083681F4993F90020684601F0F5F819E097
:1025C00083681A4968461A88F7E783681849684695
:1025D000B3F90020F1E78368144968461A68ECE70C
:1025E00083681868FDF710FF02460B4668461149DC
:1025F00001F0DAF868466E4602F098FFADB10E4879
:1026000002F094FF69460A22E06801F0EBFC68469C
:1026100002F08CFF084802F089FF206969460A220F
:1026200001F0E0FC684602F081FF7FBD3CB5000888
:102630003FB50008C2C7000869B400082DE9F041A1
:10264000064608F0CDFD074620B101281FD133789A
:102650002A2B1CD1424802F069FF424C04F5D86590
:102660000C35206802F062FF3F4802F05FFF204611
:102670003946FFF78DFF3D4802F058FF02F000FF9A
:102680000028FBD01434AC42EBD1BDE8F0813046D9
:102690003D2108F099FD074600285ED0314C04F535
:1026A000D8650C35D4F80080404608F099FD4146C5
:1026B0000246304608F09CFD8046002845D123792B
:1026C000781C052B04D101F067FD0546404602E069
:1026D00008F011FD00252379052B06D0E268904211
:1026E00013DB2269904212DD0FE0E068FEF7A4FAE6
:1026F00001462846FEF792FC38B92069FEF79CFA9D
:1027000001462846FEF7A8FC88B1194821E0052BB0
:102710000FD8DFE803F003030606090CA36818705E
:1027200007E0A368188004E0A368186001E0A368CC
:102730001D60206802F0FAFE0E4802F0F7FE204607
:102740000021BDE8F041FFF723BF1434AC42A9D10A
:102750000948BDE8F04102F0E9BEBDE8F08100BFE4
:1027600042B5000848BE000857B5000837B6000853
:102770005BB5000833B5000880B5000810B50848FF
:1027800002F0D4FE00F01EFD064802F0CFFE0A2043
:1027900002F081FD0020BDE8104002F087BD00BFBF
:1027A0009DB50008A7B50008F0B585B0044608F04F
:1027B00017FD082824D100231F49E25C096851183D
:1027C000497811F0020F18BF203AE2540133082B68
:1027D000F2D1651C04F1090715F8016C1748314660
:1027E00008F0F2FC20B12846314608F0EDFC08B1B3
:1027F00013481CE00135BD42EED1204600F006FD35
:10280000104802F093FE00230F4A04A9D218927ACE
:102810008A180A49595C0133082B02F80C1CF3D1C1
:10282000083B01A88DF80C3002F080FE074802F04A
:102830007DFE05B0F0BD00BFB800002014C5000843
:10284000B6B50008D6B50008D405002037B6000894
:1028500010B50446084802F069FE2022002107480E
:1028600008F0A9FC064A00231360064A20461370AC
:10287000BDE81040FFF782BFEBB50008C80100209B
:10288000EC0100209805002010B5084802F04EFE2B
:10289000012000F0D1FC064802F048FE0A2002F0B8
:1028A000FAFC0020BDE8104002F000BD03B60008AD
:1028B000A9B500082DE9F04585B0804608F090FCE8
:1028C000074628B1012879D198F800302A2B75D114
:1028D0004B4C4C4802F02AFED4F85C01FDF794FD05
:1028E0000646D4F860010F46FDF78EFDCDE90001E4
:1028F000D4F86401FDF788FD32463B46CDE902017C
:10290000414800F060FFD4F86C01FDF77DFD0646FC
:10291000D4F870010F46FDF777FDCDE90001D4F83A
:102920007401FDF771FD32463B46CDE9020137489F
:1029300000F049FFD4F87801FDF766FD0646D4F8AB
:102940007C010F46FDF760FDCDE90001D4F8800160
:10295000FDF75AFD2E4D32463B46CDE902012D488A
:1029600000F031FFE86BFDF74FFD0646286C0F467F
:10297000FDF74AFDCDE90001686CFDF745FD3246E3
:102980003B46CDE90201244800F01DFFD4F8880140
:10299000FDF73AFD0646D4F88C010F46FDF734FDED
:1029A000CDE90001D4F89001FDF72EFD3246CDE9C6
:1029B00002013B46194800F006FF1DE000252C46A9
:1029C000174E404671593A465FFA84FA08F010FCF7
:1029D00040B90C2303FB0464A3689847BAF1040FC1
:1029E0000AD903E001340C35052CE9D10D4805B0B6
:1029F000BDE8F04502F09ABD05B0BDE8F08500BF26
:102A0000D40500201EB600083AB6000854B60008E7
:102A10006C11002070B6000896B60008B2B6000827
:102A20000CBE0008CAB600082DE9F041864B8AB0FA
:102A30001A7832B901321A70844802F077FDFFF734
:102A4000B7FC834B1B78002B00F0738102F07AFDFA
:102A500018B102F023FD7F4B18707E4B1B78672B5B
:102A60002BD007D8612B11D0622B1CD0232B40F028
:102A7000608107E0712B43D0772B63D06D2B40F042
:102A8000588130E0724B00221A70D9E0724C2068F5
:102A9000FDF7BAFC064660680F46FDF7B5FCCDE9C8
:102AA0000001A06815E06C4B186FFDF7ADFC024605
:102AB0000B466A4800F087FE3BE1674C606AFDF711
:102AC000A3FC0646A06A0F46FDF79EFCCDE9000177
:102AD000E06AFDF799FC3246CDE902013B466048C9
:102AE00000F071FE25E15C4CA06DFDF78DFC064603
:102AF000E06D0F46FDF788FCCDE90001206EE8E7A8
:102B0000584B1868584BD3F80080584B1F68584BE7
:102B10001E68FDF779FC044640460D46FDF774FC3F
:102B2000CDE900013846FDF76FFCCDE902013046E2
:102B3000FDF76AFC2246CDE904012B464D4800F022
:102B400042FEF6E0444C4C49A069FEF7C9F8FDF797
:102B50005BFC06460F46E0694749FEF7C1F8FDF702
:102B600053FCCDE900014449206AFEF7B9F8B0E70B
:102B700002F094FC092801D03F2853D13F4BDFF8E5
:102B80000C8100261F68A8F1840435460CE02FB1A3
:102B90003B4821683A4608F02BFB20B915B9264678
:102BA000254600E026460C344445F0D1BDB1344AF8
:102BB0003B46D2192968C85C3168C95C81420CD196
:102BC000581C013229B92E4A2031D1542B4B1860A0
:102BD00005E002F8011C0346ECE7284A1360274B86
:102BE0001B680BB1B5420FD0264802F09FFC06E0EF
:102BF00055F80C0B02F09AFC092002F081FCB5425A
:102C0000F6D9FFF7D5FB00271D4CE41904E014F8B2
:102C1000010C02F075FC0137184B01341B689F4210
:102C2000F5D386E0154B1B682BB9042803D1144853
:102C3000FFF70EFE82E00C282AD1134802F076FC42
:102C4000FFF7B6FB75E000BF98050020E8B6000866
:102C5000E8010020C40100206C11002057C70008C3
:102C600023B7000880000020C8040020CC04002006
:102C7000D004002020B70008E02E6542EC010020BF
:102C8000C80100202DB7000832B7000838B400088A
:102C9000002B2FD00A2801D00D282BD1294802F073
:102CA00045FC294B294C1A680023A3540893284B50
:102CB00007A8009327490B220C23079408F01FFA5A
:102CC000054638B1006808F08BFA0130AB6820186F
:102CD000984702E0204802F029FC20221B480021EE
:102CE00008F069FA184B00221A601C4B1B78002B65
:102CF000A6D123E07F2801D008280AD1CBB1124AFF
:102D0000013B1360114A0021D154154802F00EFC1A
:102D10000FE01F2B0DD81F280BD97E2809D80BB91F
:102D2000202806D0094AD054074A0133136002F024
:102D3000E7FB02F007FC00287FF41AAF0AB0BDE8F9
:102D4000F08100BF37B60008EC010020C801002068
:102D500075250008B4B300083DB7000898050020A9
:102D60005EB7000810B5074C0019807A01F034FFF7
:102D7000A0F53A73063B9BB240F2DC52934288BF07
:102D8000E08E10BDD4050020F8B51B4B00241A7846
:102D90001A4D01321A702646174BF0B21F78FFF712
:102DA000E1FF07F00307154B07EB860223F812003B
:102DB0002B886A88D218AB88D218EB88D21812B246
:102DC000931C48BF531D9B100D4A9BB213530D4AD1
:102DD00019B2A05E0338814201DA981CA052094A58
:102DE000A05E0330814201DD023BA352013608356B
:102DF0000234082ED0D1F8BD0402002008020020C1
:102E0000F4010020C00500202DE9F84F864C874DC5
:102E1000FFF7BAFFB4F906206B8F9A4245DAFFF745
:102E20004BF92B8C73B1824B5B7923B1814B1A78B0
:102E30000AB1012215E07F4B5A78002A62D00022A5
:102E40005A705FE0B4F90420AB8F9A420FDD794BE2
:102E5000597861B978490A78501C142A087051D100
:102E6000133A5A70754B1A6A754B1A604AE06F4BE9
:102E70005B8F9A4243DA6F4A517841B16E490B78C1
:102E8000581C142B08703DD1143B53703AE0664A2D
:102E9000B2F902209A4232DD674A1378591C142B8A
:102EA00011702FD103F036FE2CE0A98F8A4229DD64
:102EB000604A527832BBB4F904208A420CDDB4F97E
:102EC0000210994208DA5C4A1378591C142B1170CD
:102ED00018D104F01FFC15E09A4210DA524AB2F9F8
:102EE00002209A420BDA544A1378591C142B1170A1
:102EF00008D103F0E5FC0320FFF79AF802E04E4BFF
:102F000000221A70494B9A78002A2AD04D4AB3F809
:102F100004E01088704521D9464A5178F1B1B3F8E0
:102F200036C04149A1F800C0A1F802C0A1F804C010
:102F3000B3F808C0DB88A1F806C09E4401217045A3
:102F4000D17302DD0023537013703A4B5A780AB9DB
:102F50005A701A703B4B0130188002E0354B00224A
:102F6000DA73324B384A588F9C8F00231946B2F9D6
:102F700000C0844502DC4FF0000E07E032F908EC97
:102F80008645ACBF4FF0000E4FF0010E8445ACBF3C
:102F9000002501259D40A445D4BF4FF0000C4FF003
:102FA000010C45EA01019D1C0CFA05FC41EA0C01EB
:102FB00003F1010C0EFA0CFE033341EA0E0102325A
:102FC0000C2B89B2D3D1194F0C3B3A46B2F816C03C
:102FD000174811EA0C0F0CBF4FF0000C4FF0010C1A
:102FE00003F800C0013302320E2BEFD1437913B93D
:102FF000104B01221A700E4B1A7A0E4B02B10122AD
:103000009A720B4B1B7813B90A4BDA7B12B3094C3B
:10301000237903BB0D48FFF75BF80D48FFF758F81D
:103020000123237117E000BFC0050020D405002054
:10303000B0050020A0050020F00100206C11002048
:10304000D005002088070020C80500204405002086
:103050005C0500201A714C4B5A784C4B12B19A798E
:103060000AB901329A71484B9A78484B42B15A7961
:103070003AB901325A71464B1A6A464B1A6000E05F
:103080005A71414B5A7A414B42B15A7A3AB901329C
:103090005A723F4B1A6A404B1A6000E05A723A4B20
:1030A0005D7B25B13A4B00251A6A3B4B1A603B4BBE
:1030B0003B4CE85EFDF7C0FD44F815000235082DD5
:1030C000F5D1384BDE8E3046FDF7B6FD0546294674
:1030D0002068FDF7FBFC294620606068FDF7F6FCE0
:1030E00029466060A068FDF7F1FCA060A6F5BA6013
:1030F0000C38FDF7A1FD0146E068FDF7E7FC00256F
:10310000E0602C46DFF8A4A0274B1AF80420B7F89B
:1031100044B01A555846FDF78FFDDFF8849080467D
:1031200059F8056041463046FDF782FF78B1CBF192
:103130000000FDF781FD01463046FDF783FF30B109
:10314000002349F8053001230AF8043014E0174B36
:1031500000221A5530460021FDF77EFFDFF840A01F
:1031600020B130464146FDF7B1FC03E03046414610
:10317000FDF7AEFC4AF80500013404350237032C94
:10318000C0D1BDE8F88F00BFB0050020A005002029
:103190006C1100209C050020D0050020C0050020F7
:1031A0006C000020D40500207C0000206800002076
:1031B000024803494FF4DA7207F0F0BFD40500204B
:1031C00000FC010810B504F071FE342004F082FE0A
:1031D0000B4804F0D7FE04280CD1094C094B2046BB
:1031E000E15804F0A5FE042800D0FEE7064B0434A5
:1031F0009C42F3D104F066FEBDE81040FFF7D8BF53
:1032000000FC0108D409FE17B4FD010870B506469C
:10321000002409E0064D284607F0D6FF18B1054AFC
:1032200083185D1BAC720134315D0029F2D170BD91
:1032300014C50008D40500202DE9F0419C4B1B78F3
:1032400010B9022B00F031819A4C022323709A4866
:10325000FFF7DCFF01234FF4C8706370013B4FF0B0
:1032600032026082A3704FF4966044F62063E380DC
:10327000A282A280208104F11C034FF0000CA4F86C
:1032800016C002349C426546F7D18A4B4FF4FA606F
:103290000322188740F27E4083F83220D8874FF40B
:1032A0007A724FF47A709A86A3F8AC00A3F8B20051
:1032B000A3F8BA00A3F8C000A3F8CC0040F2DC5495
:1032C00040F24C4240F2DC50DC865A87A3F8CE0034
:1032D00040F26C74042040F23A729C87A3F84020BC
:1032E0004FF00C0440F2DC5283F8D80073480121FF
:1032F000A3F84440A3F84640A3F84840A3F8AE2002
:103300004FF4FA64A3F8B420A3F8BC20A3F8C220B9
:103310004FF07E5283F84210A3F8B040A3F8B640B5
:1033200083F8B810A3F8BE40A3F8C440C3F8C8207F
:10333000A3F8D040C3F8D420C3F8DC20C3F8E000E1
:103340004FF47A74C3F8E400C3F8E800C3F8EC0063
:10335000C3F8F400C3F8FC004FF0FF3083F82401F9
:1033600083F82601A3F828414FF4FA60A3F82C4112
:10337000534CA3F82A01A3F82E015248C3F8F020B9
:10338000C3F8F820C3F80021C3F80421C3F80821CA
:10339000DC6600224FF07C54C3F80C21C3F81021E6
:1033A000C3F81421C3F81821C3F81C21C3F8202145
:1033B00083F8251183F82711D8641A655A65986532
:1033C000D8651A665A6698661A675A67C3F88840BD
:1033D000C3F89840C3F8A8403B4C4FF07F56C3F861
:1033E00034413A4CC3F89C60C3F83841384C394EEC
:1033F000C3F83C41384C394FC3F84041384C9867CA
:10340000C3F844414FF08040C3F854414FF48074F6
:10341000C3F88020C3F88420C3F89020C3F8942018
:10342000C3F8A020C3F8A42083F83011C3F85C21AE
:10343000C3F86021C3F86421C3F86C21C3F870217C
:10344000C3F87421C3F87821C3F87C21D867C3F886
:103450008C00C3F84861C3F84C71C3F8506183F81D
:1034600058C1A3F86841C3F88021C3F88821C3F884
:103470008C21C3F89021C3F8A0211A4A83F8941133
:10348000C3F8A821184A1949C3F8AC21184A83F88F
:1034900084C1C3F89811C3F89C0183F8A4C1C3F890
:1034A000B021BDE8F041FFF78DBEBDE8F08100BF5F
:1034B00000FC0108D40500201CC50008000080BFE6
:1034C000000048430000C842534F6CC0BAF3A34009
:1034D000E09E4AC0B1EB5DBB3C263C3FE6E0983B3A
:1034E000AE57953A0000304133335340A470294120
:1034F0006666864028B10268117002680132026077
:103500007047C8B201F0FCBF2DE9F845161E04460D
:103510000D460FDD002200E00132A95C0029FBD13D
:10352000B242ACBF0E46B61A13F0020F02D04FF0F3
:10353000300A01E04FF0200A13F0010809D04FF0E3
:10354000000808E020465146FFF7D4FF08F10108C3
:10355000013E002EF6DC474603E02046FFF7CAFF97
:103560000137C8EB0503D95D0029F6D105E02046F7
:103570005146FFF7BFFF0137013E002EF7DC38460A
:10358000BDE8F8852DE9FF410A9F05460B9EDDF851
:1035900030E08C4651B930238DF804308DF8051099
:1035A0003A4601A93346FFF7AFFF39E03BB10A2A9B
:1035B00005D1002903DAC1F1000C012400E0002448
:1035C00004AB002103F8011D0DE0BCFBF2F102FB8E
:1035D00011C10929C4BFAEF13A000918303103F80E
:1035E000011DBCFBF2FC9846BCF1000FEDD184B18B
:1035F0004FB116F0020F06D028462D21FFF77AFFB3
:10360000013F012405E02D2203F1FF3803F8012CCE
:103610000024284641463A463346FFF775FF001915
:1036200004B0BDE8F08100002DE9F04F82468FB074
:103630000E4614464FF0060B0025A4E0252B40F063
:103640009C8016F8013F002B00F0A180252B00F094
:1036500094802D2B02D04FF0000806E001364FF089
:10366000010802E0013648F002083378302BF9D027
:10367000002291460AE02AB10A2303FB0B1B0BF040
:10368000FF0B08E00A2303FB0909013633782E2BD0
:1036900003D14FF0000B0122F7E7A3F13000C1B2D4
:1036A0000929E8D9732B07D154F8041B3D4B504628
:1036B000002908BF19465AE0642B0BD1033B029343
:1036C000CDF80090CDF80480271D504621680A22CD
:1036D000603B0CE0782B0FD1173BCDF80090CDF874
:1036E000048002932168271D50461022613BFFF79A
:1036F00049FF2D183C4645E0582B0BD1173B029350
:10370000CDF80090CDF80480271D50462168102286
:10371000413BECE7752B0AD1143BCDF80090CDF876
:1037200004800293271D504621680A22DEE7632B9E
:103730000DD1236850468DF8343000238DF8353094
:103740000DA94A464346271DFFF7DEFED1E7662B4B
:1037500018D1073424F0070305AFD3E9000103F1C2
:1037600008043A465B4600F04FFC504639464A464C
:103770004346FFF7C9FE2D1804E050463178FFF7A5
:10378000B9FE013501363378002B7FF457AFBAF11B
:10379000000F03D0DAF8003000221A7028460FB06C
:1037A000BDE8F08F25C500080EB40FB505AA52F884
:1037B000041B019001A80392FFF736FF04B05DF8E7
:1037C00004EB03B070470FB407B504AA52F8041B0A
:1037D00000200192FFF728FFBDE80E4004B07047BB
:1037E000034B04491A78885C01321A70704700BF95
:1037F000490200205002002010B5FFF7F1FF0446F7
:10380000FFF7EEFF04EB002080B210BD10B5FFF70C
:10381000F3FF0446FFF7F0FF04EB004010BD00008B
:1038200010B5044601F06CFE024B1A7854401C702F
:1038300010BD00BF4802002038B50546002401E055
:10384000FFF7EEFF285D01340028F9D138BD0000F4
:10385000014B1878FFF7E4BF4802002070B504461A
:1038600024200D46FFF7DCFF4D20FFF7D9FF002C89
:1038700014BF21203E20FFF7D3FF064B00221A7011
:103880002846FFF7CDFF044B1878BDE87040FFF7DE
:10389000C7BF00BF480200204F02002001460120A0
:1038A000FFF7DCBF01460020FFF7D8BF70B50B4D16
:1038B0000B4C0646C0B2287001F022FE2A7823780D
:1038C000B6B282EA0303300A2370287001F018FEB2
:1038D00023782A7882EA0303237070BD4A0200200D
:1038E0004802002070B5154D154C0646C0B2287030
:1038F00001F006FE2A782378300A82EA0303C0B278
:103900002370287001F0FCFD2A782378300C82EABD
:103910000303C0B22370287001F0F2FD2A782378E7
:10392000300E82EA03032370287001F0E9FD23784A
:103930002A7882EA0303237070BD00BF9002002042
:103940004802002070B5A44B1B78002B00F02C839C
:10395000BDE87040FFF768B801F0A0FD9F4B1A78F2
:10396000A2B9242814BF002201221A70002A40F0B4
:103970001B83232803D0522840F0168302E0FFF770
:1039800053F811E3012001F091FC0DE3012A04D169
:103990004D280CBF0220002005E0022A05D13C285A
:1039A0000CBF032000201870FEE2032A11D140282A
:1039B00001D9033AF7E28A4A8A49107000220A7054
:1039C00089490A70894A107004221A70033A884B98
:1039D000E9E2042A07D1874A1070844A11784840E6
:1039E00010700522DFE2052A40F0DE827D497C4B23
:1039F0000A781B7893427D4B0AD993F800C080EA7D
:103A00000C0C83F800C07C4B985401320A70CBE256
:103A10001B78834240F0C582764B1B78722B00F0F6
:103A2000918223D86A2B5DD010D8662B00F03C81A0
:103A300006D8642B00F0E880652B40F0AD82F4E0FE
:103A4000682B00F0858100F28F8175E16E2B00F00C
:103A5000CA8105D86C2B00F0938100F2BC8141E053
:103A6000702B00F0CE8100F22F823BE0CB2B00F0D8
:103A70009B8010D8762B00F0778205D8742B00F04D
:103A8000318200F2348264E2C92B1FD02ED8C82BB9
:103A900040F0828211E0CF2B24D005D8CD2B00F04E
:103AA000708200F2738289E0FA2B00F07282FE2BA2
:103AB00018D0D02B40F0708259E20024FFF79CFE12
:103AC0004E4BE0520234102CF8D10BE0FFF788FE89
:103AD000FFF786FEFFF79AFEFFF798FEFFF78CFED2
:103AE000FFF78AFE0020FFF7DDFE58E2444C04F1A8
:103AF0003005FFF775FEFDF79BF8E064FFF770FEF9
:103B0000FDF79AF83F49FDF79FF92065FFF768FE3A
:103B1000FDF78EF860651034AC42EAD10024013420
:103B2000FFF75EFEFFF75CFEFFF75AFE042CF6D1AE
:103B3000FFF756FEFDF77CF8314CE067FFF750FECB
:103B4000FDF77AF82F49FDF77FF9C4F88000FFF7F9
:103B500047FEFDF76DF8E36FC4F88400C4F88C30BD
:103B6000D4F88030C4F89400C4F89030FFF738FEE1
:103B7000FDF75EF8C4F89C00FFF732FEFDF75CF835
:103B80002049FDF761F9C4F8A000FFF729FEFDF711
:103B90004FF8C4F8A40000240134FFF721FE032CE1
:103BA000FAD1FEF773FA9DE7154C04F11C05FFF7F7
:103BB00023FEE0820234AC42F9D193E7FFF710FE16
:103BC000FFF70EFEFFF70CFEFFF70AFEFFF708FEF9
:103BD000FFF706FEC8E100BF980500204B02002059
:103BE0004C0200204E020020490200204802002022
:103BF0004D0200204F02002050020020C00500208E
:103C0000D405002000007A440720FFF74BFED220A5
:103C1000FFF706FEB94B93F83200FFF701FE0020D4
:103C2000FFF7FEFD4FF000403BE00A20FFF73AFEB1
:103C3000B34BB3F90000FFF739FE00F05BFC00B2B4
:103C4000FFF734FEAF4BB3F90000FFF72FFEAE4B8A
:103C500059799A79890041EA42011A7911435A78CF
:103C600041EA4211A94AD07841EAC001107941EAFB
:103C70000011D87941EA8011187A41EAC011587AC6
:103C80009B7A41EA402141EA0323917A507B43EA3F
:103C90008123D17A43EAC123117B43EA013343EA0A
:103CA0004030FFF71FFE7AE1994C1220FFF7FAFD32
:103CB00098492068FDF714F8FDF7D8F900B2FFF72E
:103CC000F5FD94496068FDF70BF8FDF7CFF900B2F8
:103CD000FFF7ECFD8F49A068FDF702F8FDF7C6F984
:103CE00000B2FFF7E3FD8C49606AFCF7F9FFFDF7CE
:103CF000BDF900B2FFF7DAFD8749A06AFCF7F0FFD3
:103D0000FDF7B4F900B2FFF7D1FD8349E06AFCF793
:103D1000E7FFFDF7ABF900B2FFF7C8FDA06DFDF7B7
:103D2000A5F900B2FFF7C2FDE06DFDF79FF900B203
:103D3000FFF7BCFD206E4AE01020FFF7B3FD002422
:103D4000764BE05E0234FFF7B1FD102CF8D126E18E
:103D50001020FFF7A7FD0024714BE05E0234FFF74F
:103D6000A5FD102CF8D11AE11020FFF79BFD0024CF
:103D70006C4BE05E0234FFF799FD102CF8D10EE198
:103D8000634C0820FFF78EFDA0696749FCF7A8FF88
:103D90006049FCF7A5FFFDF769F900B2FFF786FD62
:103DA000E0696149FCF79CFF5A49FCF799FFFDF770
:103DB0005DF900B2FFF77AFD5B49206AFCF790FFDE
:103DC000FDF754F900B2FFF771FD584B1868FDF785
:103DD0004DF900B2BAE00420FFF764FD4C4B186FB8
:103DE000FDF76AF95DE70320FFF75CFD484B4949A1
:103DF000586FFCF775FFFDF75FF9C0B2FFF710FDD4
:103E0000A3E01E20FFF74EFD494C04F1480554F88D
:103E1000080CFDF751F9C0B2FFF702FD454954F80F
:103E2000040CFCF75DFFFDF747F9C0B2FFF7F8FCA3
:103E300054F8180BFDF740F9C0B2FFF7F1FCAC42A3
:103E4000E5D100240020FFF7EBFC0020FFF7E8FCA1
:103E500001340020FFF7E4FC042CF3D1364CA06CB5
:103E6000FDF72AF9C0B2FFF7DBFC3249E06CFCF742
:103E700037FFFDF721F9C0B2FFF7D2FC206DFDF747
:103E80001BF9C0B2FFF7CCFCA06FFDF715F9C0B26B
:103E9000FFF7C6FC2749E06FFCF722FFFDF70CF99E
:103EA000C0B2FFF7BDFCD4F88000FDF705F9C0B241
:103EB000FFF7B6FC0020FFF7B3FC0020FFF7B0FCD3
:103EC0000020FFF7ADFC6AE01C20FFF7EBFC0B4C79
:103ED00004F11C05B4F916000234FFF7E7FCAC420C
:103EE000F8D15CE06320FFF7DDFC144803E02F20ED
:103EF000FFF7D8FC1248FFF79FFC50E0D4050020E4
:103F0000F4040020F0040020A0050020B0050020EB
:103F10006C110020000020410000C8421000002069
:103F200000000020C0050020E02E6542D0050020E2
:103F30000405002000007A44FC0400202CC5000881
:103F400090C500080220FFF7ADFC0020FFF7AEFC93
:103F500025E00820FFF7A6FC0124E0B20134FFF7BA
:103F60005FFC092CF9D11AE0FFF73AFCBAE5002012
:103F7000FFF798FC0120FFF75FF9002001F096F9A8
:103F80000DE002F09DFC02F0C5FDABE503F0C2FBC5
:103F9000A8E5FFF717F9A5E50020FFF77FFCFFF77D
:103FA00057FC044B00221A7001F0CCFA00287FF471
:103FB000D3AC70BD4B02002038B50546B5FBF2F31B
:103FC0000846144613B11846FFF7F6FFB5FBF4F3A5
:103FD00004FB1354024B1B5D00F8013B38BD00BFCE
:103FE000C0C50008931E222B88BF0A22031E10B5ED
:103FF0000C4603DA2D2001F8010B5842FFF7DCFFD5
:1040000000230370204610BD2DE9FF4D514C1F4683
:10401000002A18BF14460023002206460D46FCF76E
:10402000B9FC20B12D2304F8013B05F10045072F11
:1040300019D80022002330462946FCF7C9FC464B1C
:10404000FA0038B1D31830462946D3E90023FCF7EB
:104050007DF806E0D31830462946D3E90023FCF763
:1040600073F806460D4600234FF0010803E00A22CC
:1040700002FB08F80133BB42F9D330462946FCF76E
:10408000B1FC002302460CE04FF00A0CB2FBFCF13D
:104090000CFB11220DF1040A30320AF8032001331F
:1040A0000A46002AF0D11BB9303304F8013B0BE07B
:1040B0000DF1040C0CEB030111F801AD04F802A0A2
:1040C00001326145F8D1E418002F3ED0FCF77AF9AF
:1040D00002460B4630462946FCF736F882464046F3
:1040E0008B46FCF76FF902460B4650465946FCF7E3
:1040F000DFF9FCF777FC2E23224602F8013B2E3B2A
:1041000008E00A25B0FBF5FC05FB1C003030C85464
:104110000133604601A90028F3D1C91803E030201B
:1041200001F8010C01330131BB42F8D323B9144625
:10413000303304F8013B08E001A8C11811F801CDA3
:10414000814204F801CFF9D1D4180020207004B0C6
:10415000BDE8F08D94020020E8C5000810B50B49B9
:104160000446FCF76FFF20B120460949FCF7AEFC7E
:1041700008E020460749FCF751FF20B120460449DA
:10418000FCF7A6FC0446204610BD00BFDB0F4940EB
:10419000DB0FC940DB0F49C02DE9F84F044600E0B2
:1041A00001342378202BFBD0092BF9D02D2B05D1FE
:1041B00001344FF0000ADFF870B106E02B2BDFF876
:1041C00064B108BF01344FF0000A0026002713E055
:1041D0000022534B30463946FCF76AF9064628461A
:1041E0000F46FCF7FFF802460B4630463946FBF710
:1041F000ADFF013406460F462378A3F13005EAB23D
:10420000092AE5D92E2B21D101344FF00008DFF81F
:10421000109116E0FCF7E6F842464B46FCF772FABE
:1042200002460B4630463946FBF790FF0022064611
:104230000F46404649463A4BFCF73AF9013480466E
:10424000894620783038C3B2092BE3D92378652B0F
:1042500001D0452B4CD16278631C2D2A02D1013349
:10426000012503E02B2A08BF013300250022144654
:1042700002E00A2000FB0414995C01323039C8B214
:104280000928F6D9B4F59A7F28BF4FF49A74002212
:10429000244B09E0104619461DA3D3E90023FCF77F
:1042A00007F9323C02460B46312CF3D8A04609E010
:1042B0001046194618A3D3E90023FCF7F9F8083C87
:1042C00002460B46072CF3D808F0070408E0104616
:1042D00019460022124BFCF7EBF8013C02460B4654
:1042E000002CF4D135B130463946FCF70BFA05E025
:1042F0000C4B002230463946FCF7DAF802460B46F2
:1043000050465946FCF7D4F8FCF78CFBBDE8F88F13
:104310009A647EC50E1B514A0000000084D7974165
:10432000000024400000F03F0000F0BFAFF3008029
:104330002DE9F74F05680646884628462946FCF7CA
:10434000CFFC7468834621462046FCF7C9FCB76859
:10435000814639463846FCF7C3FCF668824631464A
:104360003046FCF7BDFC314601902046FCF7B8FC16
:104370003946034628460093FCF7B2FC009B0146F1
:104380001846FCF7A3FB0146FCF7A2FB04F00AFE6B
:104390003946C8F804002046FCF7A2FC3146034623
:1043A00028460093FCF79CFC009B01461846FCF74E
:1043B0008FFB0146FCF78CFB4946034658460093A9
:1043C000FCF786FB5146FCF781FB0199FCF77EFB6D
:1043D000009B0146184604F031FE3146C8F808003B
:1043E0003846FCF77DFC214606462846FCF778FC5B
:1043F00001463046FCF76CFB0146FCF769FB494679
:1044000004465846FCF762FB5146FCF75FFB0199F6
:10441000FCF75EFB0146204604F010FEC8F80000E1
:10442000BDE8FE8F014B188880B27047B4020020AF
:1044300030B52A4891B003F083FC294B0025009346
:10444000284B012401934FF4807306934FF480634B
:1044500007932023089321484FF40053694609939A
:1044600002950394049505950A9503F0DBFC1B481F
:10447000214603F0F7FC4FF460231B480BA90D9372
:104480000B958DF830508DF831400E958DF83C40ED
:1044900003F0B2FB224603231348042103F004FC7B
:1044A0001148214603F0D8FB0F48214603F0CAFB10
:1044B0000D4803F0DBFB0C4803F0DDFB0028FAD1CC
:1044C000094803F0DDFB084803F0DFFB0028FAD1C0
:1044D0000548012103F0DEFB11B030BD08000240A9
:1044E0004C240140B402002000240140BFF35F8F40
:1044F00070470000014B188880B27047B602002058
:10450000F0B54FF4406389B0ADF8143002238DF854
:10451000163012330DEB030105464A488DF817306B
:1045200003F050FD47484FF4406103F09BFD002429
:1045300002E0032000F0A4FE42484FF4806103F043
:104540008BFD0028F5D04FF480613E4803F08CFDD0
:10455000032000F095FE01343A484FF4806103F0E7
:1045600081FDE4B2032000F08BFE082CE4D14FF46F
:104570000061344803F078FD032000F081FE4FF421
:104580008061304803F070FD032000F079FE4FF4A5
:1045900080612C4803F066FD032000F071FE4FF4AB
:1045A0000061284803F05EFD032000F069FE4FF42F
:1045B0004063254CADF81830022306A98DF81A3057
:1045C00020481A338DF81B3003F0FCFC2560284688
:1045D00001AD03F04FFE284603F07EFD0022206867
:1045E0004FF4407103F0BAFD4BF6FF73ADF80A309B
:1045F0004FF48043ADF81030144B00262068294654
:104600000193ADF8086003F0C1FD2068012103F0BB
:1046100071FD07AC22238DF81C30204601238DF854
:104620001F308DF81D608DF81E6003F0B3FA212352
:10463000204637468DF81C308DF81D6003F0AAFA2D
:1046400009B0F0BD000C0140C8020020801A06002D
:1046500040005FFA80FC214808B580F800C020487F
:1046600001702049002008701F48012101701F4877
:1046700003601F4803601F4B1A701F4B19701F4BBC
:104680001868838813F4007F11D1038813F4807FA6
:1046900006D1038813F4007FFBD1012103F037FD1D
:1046A000164B4FF440711868012203F057FD47F292
:1046B0003053114A127812B1013BFAD102E00BB12A
:1046C000012008BD0E4B1A88013292B21A800B4BA2
:1046D0001868FFF715FF002008BD00BFCE020020BC
:1046E000B9020020B8020020C5020020BC02002050
:1046F000C0020020BA020020CD020020C802002023
:10470000B602002030B54000274CC0B220702748C8
:10471000274C017027480121017000202070264D90
:10472000264C85B02270C5F800D0254C254D102AA6
:10473000C5F800D0217005D934E013F800C00DF899
:1047400000C00130C1B29142F7D31F4B1868838873
:1047500013F4007F11D1038813F4807F06D10388FE
:1047600013F4007FFBD1012103F0D1FC164B4FF471
:1047700040711868012203F0F1FC47F23053104AEF
:10478000127812B1013BFAD102E00BB1012009E02D
:104790000E4B1A88013292B21A800B4B1868FFF741
:1047A000AFFE002005B030BDCE020020B9020020CF
:1047B000C5020020B8020020C0020020BA0200207A
:1047C000CD020020BC020020C8020020B60200205A
:1047D00007B502AB03F8012D0122FFF793FF0EBDD1
:1047E00037B5224C2068838A9BB20193019B019BC1
:1047F00013F4E06F2DD0038B00229BB24FF4806145
:10480000009303F0ABFC019B13F4007F21D12068DF
:10481000038813F4007F1CD1058815F480750FD030
:10482000038813F4807FFBD1012103F07DFC0F4B43
:104830001868038813F4007FFBD1FFF761FE08E0DE
:10484000012103F071FC20684FF440712A4603F007
:1048500085FC064B1A68938A23F470631B041B0CB7
:104860009382034B00221A703EBD00BFC802002095
:10487000CD020020FFF7B4BFFFF7B2BF2DE9F04F24
:10488000954C85B02068828AD2B212F001063BD0E6
:104890000388012123F400631B041B0C038003F035
:1048A00050FC8E4B00221A708D4B1B78E3B18D4B60
:1048B0001B781BB98C4B1B78FF2B15D1894B012220
:1048C0001A708A4B1B78022B06D1834B1B681A88FF
:1048D00092B242F400621A80854B012219787E4B15
:1048E000186803F04BFC38E1814B002219787A4BB1
:1048F000186803F043FC7C4B1B78FF2B00F02D81E4
:104900004FF0FF32754BE5E012F0020347D0019003
:10491000FFF7ECFD754B01981D78012D19D1704BF7
:104920001B78B3B16F4B1B789BB1314603F009FC88
:10493000FFF7DCFD20682946038BDBB28DF80F30D2
:1049400003F0F2FB6B4B20681D704FF480612A4628
:1049500001E1038B0190DBB28DF80F30FFF7C6FD4C
:10496000624B01981B78022B09D15D4B1B7833B148
:104970005C4B1B781BB1002103F0E3FBE6E05B4BD3
:104980001B78032B07D1564B1B7823B1554B1B7853
:10499000002B40F0DD804FF480610122DBE012F05B
:1049A000040572D04E4ADFF84C811278012688F84F
:1049B0000060002A4FD04B4A1278002A4BD04B4A55
:1049C000464D12784C4F022A2AD9194603F0B9FBFA
:1049D000206895F800A0D7F8009003F0CCFB4FFAC0
:1049E0008AFB0BF80900B244314685F800A0206824
:1049F00003F09AFB88F80060206895F800803F6813
:104A000003F0B9FB4FFA88FA0AF80700B04485F8BA
:104A1000008020684FF48061324603F09FFB2DE058
:104A2000314603F081FB2068D7F800802E7803F030
:104A3000A2FB4FFA86FA01360AF80800F6B22E7089
:104A400020683F6803F097FB4FFA86F8023608F8B3
:104A500007002E7012E0234C237813B9274B1B78E4
:104A60003BB1012103F060FB1C4B1A7801321A7034
:104A700004E0012103F04BFB01232370164B1B685C
:104A80001A8812F4807FFBD167E012F0400637D01D
:104A9000194B124ED3F80080377803F06CFB4FFAB5
:104AA00087FA124B01370AF80800FFB237701B78FB
:104AB0007FB20337BB4205D120684FF480612A469C
:104AC00003F04CFB094B1878044B1A7851B288421A
:104AD00043D101321A7040E0C8020020CC0200200D
:104AE000C5020020BB020020B9020020BA0200204B
:104AF000CE020020C4020020BC020020B802002028
:104B000012F0800F29D0224D2B785AB2B2F1FF3F1C
:104B100011D0204901330968515C2B7003F029FB47
:104B20001D4B1A7895F900309A4216D120684FF43F
:104B3000806132460FE0194B2E70197803F019FB93
:104B4000174B1B7813B9144B1B7833B9154B1868E6
:104B50004FF48061002203F001FB0F4B0C4A1B78DD
:104B600092F9002001339A420ED10F4B00221A70A5
:104B70000E4B1B782BB10B4B4FF44071186803F0B0
:104B8000EDFA0B4B00221A7005B0BDE8F08F00BFA4
:104B9000CC020020C0020020BA020020B90200208E
:104BA000C5020020C8020020BB020020C402002071
:104BB000CD020020FFF762BEFFF760BE044B1B78FA
:104BC000834203D9034B53F820301980704700BF4C
:104BD000E202002068C60008024B03EBC003D8883D
:104BE000704700BFE40200202DE9F04F002491B08F
:104BF00021460A220AA806F0DEFA2146102203A85E
:104C000006F0D9FA48234FF001028DF83F3087486B
:104C1000463B0FA9ADF83C208DF83E3003F0D2F9A9
:104C2000834B40F2DC521B190834402CDA80F7D158
:104C3000403C07AD0A27284621463A4606F0BBFA13
:104C40007C4B0D945E780DF138090DF1340ADFF8D4
:104C5000F881002E4BD001264946334628224FF0DA
:104C6000020B72488DF83B200193ADF838608DF847
:104C70003AB003F0A7F9019B1C2250468DF834206E
:104C80008DF836308DF835408DF8376002F082FFB0
:104C9000284603F01DFD4FF047034FF0FF324FF061
:104CA00080402946ADF81C30ADF82020ADF81E40FC
:104CB00003F08AFB4FF080404146A8F80240A8F874
:104CC0000460A8F80640A8F80840A8F8004003F0DF
:104CD0002DFE4FF080405946324603F01FFD4FF045
:104CE0008040314603F0FDFC534B1F7068E04FF0ED
:104CF000CF03ADF8383028238DF83B304B48263BA6
:104D000049468DF83A3003F05DF94FF00302494609
:104D10004A48ADF83820012403F054F91C235046CA
:104D20008DF834308DF835608DF836408DF8374089
:104D300002F030FF1D2350468DF8343002F02AFF78
:104D4000284603F0C5FC4FF047034FF0FF324FF009
:104D500080402946ADF81C30ADF82020ADF81E602B
:104D600003F032FB3648294603F02EFBA8F8026018
:104D7000A8F80440A8F80660A8F80860314B32494A
:104D80009A19928898590A80083603F0CFFD402E70
:104D9000F4D14FF080401E21012203F0BFFC01221C
:104DA00027481E2103F0BAFC4FF08040012103F098
:104DB00098FC2348012103F094FC1F4B06221A7033
:104DC0004FF410630FACADF83C30182321468DF83A
:104DD0003F301648163B8DF83E3003F0F3F84FF4A1
:104DE0007072214615480AACADF83C2003F0EAF891
:104DF000204603F06DFC4FF04703ADF82830134B0D
:104E00000C4D1B7843B3AB8A114E124896FBF3F35B
:104E1000013B2146ADF82C3003F0D6FA6B8A96FBA5
:104E2000F3F6013EADF82C6021E000BF0008014020
:104E3000E4020020D4050020E2020020000C014022
:104E40000004004028C60008D0020020B80100205D
:104E500040420F00002C01406B8A684A684892FB70
:104E6000F3F3013B2146ADF82C3003F0ADFA2146B7
:104E7000644803F0A9FA4FF0700203ACADF80C20BF
:104E80004FF001034FF00002ADF80E30ADF81020E6
:104E90004FF47A734FF48072594821464FF002055F
:104EA000ADF81230ADF81820ADF8145003F0E2FA66
:104EB0005348214603F0CCFB5148082103F039FC4C
:104EC0004F48082103F051FC4E48214603F0D2FA26
:104ED0004C48214603F026FB4A48214603F06EFB6E
:104EE0004848214603F0B4FB4648082103F021FC62
:104EF0004448082103F026FC4248082103F02CFC1A
:104F00004048082103F031FC3D48012103F0E9FB52
:104F10003C48012103F0E5FB3B4E3948012103F0F9
:104F2000EDFB3848012103F0E9FB7378002B61D0D9
:104F30004FF0C0030FAFADF83C303448182339466A
:104F40008DF83F308DF83E5003F03CF84FF00302EF
:104F50002F483946ADF83C2003F034F8274A738ACD
:104F60002C4892FBF3F3013B0AA9ADF82C3003F077
:104F70002BFA4FF07003ADF80C304FF001024FF0F8
:104F80000003ADF80E20ADF810304FF47A724FF4F4
:104F9000807320482146ADF81220ADF81830ADF8E6
:104FA000145003F067FA1B48214603F0BBFA194876
:104FB000214603F003FB1748214603F049FB15483F
:104FC000082103F0B6FB1348082103F0BBFB11488E
:104FD000082103F0C1FB0F48082103F0C6FB0D4870
:104FE000012103F07EFB0B48012103F087FB0A4BF4
:104FF0000A221A7011B0BDE8F08F00BF40420F00C6
:10500000002C014000080040D405002000080140A9
:10501000000C014000040040E20200202DE9F845A8
:105020000024064625462D4B1F591A19B742B2F8DF
:105030000480B2F806A04BD13046514603F0DEFBA7
:10504000012845D13046514603F0E3FBB8F10C0F7F
:1050500018D8DFE808F0071717170B1717170F17DF
:1050600017171300304603F0BCFB0AE0304603F08C
:10507000BBFB06E0384603F0BAFB02E0384603F01B
:10508000B9FB0546164B1A5D1B190AB95D8000E095
:105090009D80134B1A5D2AB901321A5511494FF000
:1050A00002030FE01B199A8859888A4201D9521AC3
:1050B00001E0C9435218DA80094A002313550A4A0D
:1050C000084913804B80A1F80080384603F02EFC7D
:1050D0000834402CA7D1BDE8F88500BF28C60008D9
:1050E000E4020020D0020020880700200148FFF7DA
:1050F00095BF00BF0004004010B5234B5B78002B28
:105100003BD002214FF0804003F078FB012808D10A
:105110001E4C1F4B22884FF080401A8003F061FB29
:10512000208002214FF0804003F073FB174B1A8858
:10513000174B1B88D31A9BB240F68C22934203D99B
:10514000144B00221A7010BDA3F53A72073A92B2BE
:1051500040F2DA518A4207D80E4A1278072A03D859
:105160000D4901EBC202D3800A4B1A7801321A7042
:105170000A4B4FF000021A8010BD4FF08040BDE88E
:105180001040FFF74BBF00BFD4050020DC02002019
:10519000E0020020DE020020E40200208807002058
:1051A000044B1A6801321A60034B1A68034B1A60E9
:1051B000704700BF24030020041000E0AC0400206E
:1051C00072B6084B084A1868084B1B68126862B62A
:1051D0000749C31A09684FF47A70B3FBF1F300FB77
:1051E00002307047041000E024030020AC040020CB
:1051F000A804002070B5002304460E46054D5D1935
:10520000AA680C33002AF9D1FFF7DAFF28606E6034
:10521000AC6070BDE8030020F8B500240C2767439C
:10522000124EBD19AB6853B1FFF7CAFFBA596B688C
:10523000821A9A4203D9AB6898470023AB600C26C8
:1052400066430B4D7719BB685BB1FFF7B9FF725925
:105250007B68821A9A4204D9BB689847FFF7B0FF6F
:1052600070510134102CD9D1F8BD00BF28030020A3
:10527000E8030020014B1868704700BF240300209A
:1052800038B50546FFF79CFF0446FFF799FF001B62
:10529000A842FAD338BD10B5044604E04FF47A7042
:1052A000FFF7EEFF013C002CF8D110BD10B1034A0E
:1052B000034B1A60034A044BDA607047EFBEADDE61
:1052C000F04F00200400FA0500ED00E070B55D4BE2
:1052D0008AB00DF1140C0FCB8CE80F001D200121BA
:1052E00003F040F84FF40060012103F03BF8012087
:1052F000014603F045F80220012103F041F80420A3
:10530000012103F03DF84FF40070012103F02AF869
:105310004FF48040012103F025F84FF48000012173
:1053200003F02EF80120014609AC03F00DF802202D
:10533000012103F009F8002503F03EF84FF0FF3398
:1053400041482146ADF824308DF8275002F03AFE4E
:105350003E48214602F036FE3D48214602F032FE2C
:105360003C48012102F082FEBDF818300326ADF85A
:1053700024309DF81A30059821468DF827308DF895
:10538000266002F01FFEBDF820300798ADF82430EB
:105390009DF8223021468DF826608DF8273002F0E6
:1053A00011FE0C236B432C4A00249A1894602B4A5C
:1053B00001359B18102D9C60F3D1684602F074FFF4
:1053C000009A274B4FF47A76B2FBF3F2254B6FF03D
:1053D0000F011A60244B4FF4A060DA6842F080722B
:1053E000DA60224B1A6842F001021A60204B1A68F8
:1053F000204BB2FBF6F222F07F42013A5A601E4A7D
:1054000082F8231007229C601A60104B01321A6147
:105410001D6102F0B5FB2046FDF70EFFFDF7C8FE4B
:10542000FCF792F8FFF704F81448FFF769F8FFF764
:10543000DBFB4FF4E13000F093F83046FFF72BFF31
:105440000AB070BD90C6000800080140000C014081
:10545000001001400002300028030020E803002073
:1054600040420F00A8040020F0ED00E0001000E032
:105470009C00002010E000E000ED00E0005800403B
:10548000044B1868044B1B68984214BF002001208D
:10549000704700BFB4040020B8040020064B074842
:1054A0001A68C2F58061013A405C1A6012B94FF483
:1054B00080621A60704700BFB00400208C07002093
:1054C0000B4A0C4813680C49C018C8600B480068A8
:1054D000984203D9C31A4B60106004E0C3F580639F
:1054E0004B60002313600448012102F0BBBC00BFE5
:1054F000B40400208C0B002044000240B8040020BB
:10550000074A08491368C85401339B059B0D136073
:10551000054B1B6813F0010F01D1FFF7D1BF704796
:10552000B80400208C0B00204400024038B505462A
:10553000002401E0FFF7E4FF285D01340028F9D1E1
:1055400038BD000008B5044802F0A1FC034B1B68FD
:10555000C01A18BF012008BD58000240B004002046
:105560002DE9F04593B011AC4FF400730646ADF849
:1055700044300227182321463F488DF847304FF426
:1055800080688DF8467002F01DFD482321463A4898
:105590000125ADF844808DF8473002F013FD0E234D
:1055A00010A800248DF840308DF841508DF84250FD
:1055B0008DF8435002F0EEFA4FF00C030CA92F487F
:1055C000ADF83A300C96ADF83440ADF83640ADF851
:1055D0003840ADF83C4003F065FA294802F0B0FBD2
:1055E0004FF480530A93274BDFF8A4A0CDF8108026
:1055F0000DF1040880260293414620232048099398
:105600000B94CDF804A0039405940794069608948F
:1056100002F008FC29461A4802F024FC2A464021E0
:10562000164803F034FA164802F031FC164B1860A5
:10563000164802F085FB1023414614480393CDF829
:1056400004A00594079406960894099402F0EAFBD6
:1056500039462A460D4802F011FC0C4B31465C607D
:1056600006482A4603F013FA0448294603F002FAD2
:1056700013B0BDE8F08500BF0008014000380140CC
:10568000580002408C070020B00400204400024073
:105690000438014010B54FF4005002F0FBFB00212C
:1056A000064802F0DFFB064B1A68064B1B689A425D
:1056B00003D0BDE81040FFF703BF10BD4400024017
:1056C000B8040020B404002038B5144B00211B6836
:1056D0009878024611E093F801E05C6893F800C006
:1056E00054F82E400EF1010E9EFBFCF50CFB15EC60
:1056F000013A83F801C00919D2B2002AEBD19A709D
:10570000074B91FBF0F1196001F0D0FD01F044FE70
:10571000044B1A68044B1A6738BD00BF8C00002088
:105720001C120020141200206C1100202DE9F04FF3
:1057300091B0FFF745FD4B4D4B4B04461860286870
:10574000201AFBF775FA4949FBF7CAFA484B2C6057
:105750001B680A909F7800253A46AA46A8461DE095
:1057600058784FF0060C0CFB00FC596801300CEB2C
:1057700001043CF801C01978B4F804E090FBF1F69C
:1057800001FB1601648859700FFA8CF16D1821B273
:105790008A44013A0FFA8EF18844D2B2002ADFD14E
:1057A0009A707FB33846FBF747FA06462846314DD4
:1057B000314CFBF741FA3146FBF746FBD5F888112F
:1057C000FBF784F9616EFBF78BFAA0655046FBF797
:1057D00033FA3146FBF738FBD5F88C11FBF776F935
:1057E000A16EFBF77DFAE0654046FBF725FA3146EE
:1057F000FBF72AFBD5F89011FBF768F9E16EFBF790
:105800006FFA20661D4B00241B68A3469878A146BA
:1058100006461BE0597806254D435A68013105EBD1
:10582000020EAD5A1A78BEF804C091FBF2F802FBE2
:105830001812BEF802E00FFA8CFC5A700FFA8EFEB6
:105840002AB2013EA418F344E144F6B2002EE1D19D
:105850009E700B4B1B6893F802800896424609968F
:105860003BE000BFBC040020C0040020BD378635EB
:1058700094000020D40500206C110020900000202E
:105880009800002093F801C0062505FB0CF5596827
:105890000CF1010C05EB010EBEF804A06D5ACDF819
:1058A0002CA01978BEF802E09CFBF1FA01FB1AC1AA
:1058B0005970DDF820C00FFA8EFEF444DDF82CA0FC
:1058C000CDF820C0DDF824C00FFA8AF12DB28C4447
:1058D000013A7619CDF824C0D2B2002AD2D19A70FA
:1058E00000284FD0FBF7A8F9674D82462046FBF70A
:1058F000A3F9664C5146FBF7A7FAD5F85C11FBF704
:10590000E5F8E168FBF7ECF9034620605846079399
:10591000FBF792F95146FBF797FAD5F86011FBF7C0
:10592000D5F82169FBF7DCF960604846FBF784F99C
:105930005146FBF789FAD5F86411FBF7C7F861699E
:10594000FBF7CEF995F83021A060079BD2B118463D
:105950004F4905F59A7205F5A27301F06FFE4D49A6
:10596000206005F59A7205F5A273606801F066FE85
:105970004949606005F59A72A06805F5A27301F0C7
:105980005DFEA060B8F1000F36D001F07FF8404610
:10599000FBF752F93D4C05463046FBF74DF92946D9
:1059A000FBF752FAE16BFBF791F8A16CFBF78EF86D
:1059B000216BFBF795F960620898FBF73DF92946E2
:1059C000FBF742FA216CFBF781F8E16CFBF77EF8FC
:1059D000616BFBF785F9A0620998FBF72DF9294661
:1059E000FBF732FA616CFBF771F8216DFBF76EF88B
:1059F000A16BFBF775F9E062CFB1234B93F89431BB
:105A0000ABB1224B5A68996A00929A6801F1004141
:105A100001929A6D0292DA6D03921A6E04920A9ABA
:105A20000592586ADA6A1B6800F0FCFA10E0174B1E
:105A3000DDF828A05A68996A00929A68CDF808A003
:105A40000192586ADA6A01F100411B6800F04AF8D5
:105A5000124B0E4C1868124B0C901968114B0D919B
:105A60001A68114B0CA81B6810490E920F93FEF791
:105A70005FFC054B206AD3F89811FBF729F82062E8
:105A800011B0BDE8F08F00BFD40500206C110020DC
:105A90008C0F0020AC0F0020CC0F002080000020D5
:105AA000C8040020CC040020D00400208411002071
:105AB00010B50B4C4FF07C51A4EB6004FBF710F9D0
:105AC0002146FBF70DF92146FBF70AF901464FF095
:105AD0007F50FAF7FBFF01462046FBF701F910BDA6
