:020000040800F2
:1000000000500020C5130008691400086914000896
:100010006914000869140008691400080000000051
:10002000000000000000000000000000691400084B
:10003000691400080000000069140008E95800086D
:10004000691400086914000869140008691400089C
:10005000691400086914000869140008691400088C
:10006000691400086914000869140008691400087C
:100070006914000869140008595E00086914000832
:10008000691400086914000869140008691400085C
:10009000691400086914000869140008691400084C
:1000A00069140008691400086914000875560008EE
:1000B000695600085D56000851560008195300089B
:1000C000D94F000815530008D54F000869140008DF
:1000D00069140008691400085D5C000869140008D0
:1000E0008576000869140008691400080000000003
:1000F0000000000000000000000000000000000000
:0C01000000000000000000005FF808F1A3
:1001100040F2C013C2F200031A780AB90120187025
:10012000704700BF40F2C010C2F2000008B503687B
:100130002BB140F20003C0F2000303B1984708BDA1
:1001400081F0004102E000BF83F0004330B54FEA88
:1001500041044FEA430594EA050F08BF90EA020FF5
:100160001FBF54EA000C55EA020C7FEA645C7FEA88
:10017000655C00F0E2804FEA5454D4EB5555B8BFAB
:100180006D420CDD2C4480EA020281EA030382EA1C
:10019000000083EA010180EA020281EA0303362DAE
:1001A00088BF30BD11F0004F4FEA01314FF4801C81
:1001B0004CEA113102D0404261EB410113F0004F93
:1001C0004FEA03334CEA133302D0524263EB43034A
:1001D00094EA050F00F0A780A4F10104D5F1200EE8
:1001E0000DDB02FA0EFC22FA05F2801841F1000143
:1001F00003FA0EF2801843FA05F359410EE0A5F117
:1002000020050EF1200E012A03FA0EFC28BF4CF047
:10021000020C43FA05F3C01851EBE37101F00045FD
:1002200007D54FF0000EDCF1000C7EEB00006EEB0A
:100230000101B1F5801F1BD3B1F5001F0CD3490894
:100240005FEA30004FEA3C0C04F101044FEA4452EB
:1002500012F5800F80F09A80BCF1004F08BF5FEA72
:10026000500C50F1000041EB045141EA050130BD52
:100270005FEA4C0C404141EB010111F4801FA4F1F5
:100280000104E9D191F0000F04BF01460020B1FA4A
:1002900081F308BF2033A3F10B03B3F120020CDA82
:1002A0000C3208DD02F1140CC2F10C0201FA0CF060
:1002B00021FA02F10CE002F11402D8BFC2F1200CC5
:1002C00001FA02F120FA0CFCDCBF41EA0C0190407B
:1002D000E41AA2BF01EB0451294330BD6FEA0404C4
:1002E0001F3C1CDA0C340EDC04F11404C4F12002AF
:1002F00020FA04F001FA02F340EA030021FA04F3C1
:1003000045EA030130BDC4F10C04C4F1200220FA17
:1003100002F001FA04F340EA0300294630BD21FA55
:1003200004F0294630BD94F0000F83F4801306BF1B
:1003300081F480110134013D4EE77FEA645C18BF0F
:100340007FEA655C29D094EA050F08BF90EA020FA6
:1003500005D054EA000C04BF1946104630BD91EA9E
:10036000030F1EBF0021002030BD5FEA545C05D1A1
:100370004000494128BF41F0004130BD14F58004E0
:100380003CBF01F5801130BD01F0004545F0FE4154
:1003900041F470014FF0000030BD7FEA645C1ABF89
:1003A000194610467FEA655C1CBF0B46024650EAC0
:1003B000013406BF52EA033591EA030F41F40021EC
:1003C00030BD00BF90F0000F04BF0021704730B572
:1003D0004FF4806404F132044FF000054FF0000147
:1003E00050E700BF90F0000F04BF0021704730B508
:1003F0004FF4806404F1320410F0004548BF4042DD
:100400004FF000013EE700BF42004FEAE2014FEA31
:1004100031014FEA02701FBF12F07F4393F07F4F0C
:1004200081F06051704792F0000F14BF93F07F4F3E
:10043000704730B54FF4607401F0004521F0004181
:1004400020E700BF50EA010208BF704730B54FF007
:1004500000050AE050EA010208BF704730B511F00C
:10046000004502D5404261EB41014FF4806404F144
:1004700032045FEA915C3FF4DCAE4FF003025FEAC6
:10048000DC0C18BF03325FEADC0C18BF033202EB4E
:10049000DC02C2F1200300FA03FC20FA02F001FAA8
:1004A00003FE40EA0E0021FA02F11444C1E600BF47
:1004B00070B54FF0FF0C4CF4E06C1CEA11541DBFFA
:1004C0001CEA135594EA0C0F95EA0C0F00F0DEF8C5
:1004D0002C4481EA030621EA4C5123EA4C5350EAAA
:1004E000013518BF52EA033541F4801143F48013FB
:1004F00038D0A0FB02CE4FF00005E1FB02E506F08C
:100500000042E0FB03E54FF00006E1FB03569CF0E0
:10051000000F18BF4EF0010EA4F1FF04B6F5007FE6
:1005200064F5407404D25FEA4E0E6D4146EB060658
:1005300042EAC62141EA55514FEAC52040EA5E50E1
:100540004FEACE2EB4F1FD0C88BFBCF5E06F1ED88B
:10055000BEF1004F08BF5FEA500E50F1000041EBC2
:10056000045170BD06F0004646EA010140EA02006F
:1005700081EA0301B4EB5C04C2BFD4EB0C0541EA91
:10058000045170BD41F480114FF0000E013C00F3A6
:10059000AB8014F1360FDEBF002001F0004170BDCA
:1005A000C4F10004203C35DA0C341BDC04F11404E3
:1005B000C4F1200500FA05F320FA04F001FA05F26F
:1005C00040EA020001F0004221F0004110EBD3703C
:1005D00021FA04F642EB06015EEA430E08BF20EA68
:1005E000D37070BDC4F10C04C4F1200500FA04F30B
:1005F00020FA05F001FA04F240EA020001F000419D
:1006000010EBD37041F100015EEA430E08BF20EA0F
:10061000D37070BDC4F1200500FA05F24EEA020E57
:1006200020FA04F301FA05F243EA020321FA04F086
:1006300001F0004121FA04F220EA020000EBD3703D
:100640005EEA430E08BF20EAD37070BD94F0000F3D
:100650000FD101F00046400041EB010111F4801F71
:1006600008BF013CF7D041EA060195F0000F18BF22
:10067000704703F00046520043EB030313F4801F5E
:1006800008BF013DF7D043EA0603704794EA0C0F18
:100690000CEA135518BF95EA0C0F0CD050EA41062E
:1006A00018BF52EA4306D1D181EA030101F00041AB
:1006B0004FF0000070BD50EA410606BF10461946D3
:1006C00052EA430619D094EA0C0F02D150EA0136DF
:1006D00013D195EA0C0F05D152EA03361CBF104620
:1006E00019460AD181EA030101F0004141F0FE41BF
:1006F00041F470014FF0000070BD41F0FE4141F443
:10070000780170BD70B54FF0FF0C4CF4E06C1CEA42
:1007100011541DBF1CEA135594EA0C0F95EA0C0FF7
:1007200000F0A7F8A4EB050481EA030E52EA0335B2
:100730004FEA013100F088804FEA03334FF08055D3
:1007400045EA131343EA12634FEA022245EA111500
:1007500045EA10654FEA00260EF000419D4208BFB1
:10076000964244F1FD0404F5407402D25B084FEA5E
:100770003202B61A65EB03055B084FEA32024FF40A
:1007800080104FF4002CB6EB020E75EB030E22BF67
:10079000B61A754640EA0C005B084FEA3202B6EB27
:1007A000020E75EB030E22BFB61A754640EA5C00D6
:1007B0005B084FEA3202B6EB020E75EB030E22BF66
:1007C000B61A754640EA9C005B084FEA3202B6EB67
:1007D000020E75EB030E22BFB61A754640EADC0026
:1007E00055EA060E18D04FEA051545EA16754FEA88
:1007F00006164FEAC30343EA52734FEAC2025FEAA6
:100800001C1CC0D111F4801F0BD141EA00014FF034
:1008100000004FF0004CB6E711F4801F04BF014305
:100820000020B4F1FD0C88BFBCF5E06F3FF6AFAE21
:10083000B5EB030C04BFB6EB020C5FEA500C50F1B1
:10084000000041EB045170BD0EF0004E4EEA113134
:1008500014EB5C04C2BFD4EB0C0541EA045170BD3B
:1008600041F480114FF0000E013C90E645EA060E7F
:100870008DE60CEA135594EA0C0F08BF95EA0C0FAD
:100880003FF43BAF94EA0C0F0AD150EA01347FF4F5
:1008900034AF95EA0C0F7FF425AF104619462CE7CC
:1008A00095EA0C0F06D152EA03353FF4FDAE10462F
:1008B000194622E750EA410618BF52EA43067FF480
:1008C000C5AE50EA41047FF40DAF52EA43057FF410
:1008D000EBAE12E74FF0FF3C06E000BF4FF0010C1B
:1008E00002E000BF4FF0010C4DF804CD4FEA410C7F
:1008F0007FEA6C5C4FEA430C18BF7FEA6C5C1BD04C
:1009000001B050EA410C0CBF52EA430C91EA030FCC
:1009100002BF90EA020F0020704710F1000F91EA29
:10092000030F58BF994208BF90422CBFD8176FEAF7
:10093000E37040F0010070474FEA410C7FEA6C5CC5
:1009400002D150EA013C07D14FEA430C7FEA6C5CCC
:10095000D6D152EA033CD3D05DF8040B704700BFF8
:100960008446104662468C461946634600E000BF46
:1009700001B5FFF7B7FF002848BF10F1000F01BD18
:100980004DF808EDFFF7F4FF0CBF012000205DF8E3
:1009900008FB00BF4DF808EDFFF7EAFF34BF012068
:1009A00000205DF808FB00BF4DF808EDFFF7E0FF01
:1009B00094BF012000205DF808FB00BF4DF808ED52
:1009C000FFF7CEFF94BF012000205DF808FB00BFB9
:1009D0004DF808EDFFF7C4FF34BF012000205DF89B
:1009E00008FB00BF4FEA410212F5001215D211D5E3
:1009F0006FF47873B3EB625212D94FEAC12343F01C
:100A0000004343EA505311F0004F23FA02F018BF9D
:100A1000404270474FF00000704750EA013005D166
:100A200011F0004008BF6FF0004070474FF0000029
:100A3000704700BF4A0011D212F5001211D20DD535
:100A40006FF47873B3EB62520ED44FEAC12343F0D4
:100A5000004343EA505323FA02F070474FF000007E
:100A6000704750EA013002D14FF0FF3070474FF02D
:100A7000000070474FEA4102B2F1E04324BFB3F5F2
:100A8000001CDCF1FE5C0DD901F0004C4FEAC00205
:100A90004CEA5070B2F1004F40EB830008BF20F0E9
:100AA0000100704711F0804F21D113F13872BCBFA3
:100AB00001F00040704741F480114FEA5252C2F1F8
:100AC0001802C2F1200C10FA0CF320FA02F018BF41
:100AD00040F001004FEAC1234FEAD32303FA0CFC94
:100AE00040EA0C0023FA02F34FEA4303CCE77FEA23
:100AF000625307D150EA01331EBF4FF0FE4040F46D
:100B00004000704701F0004040F0FE4040F400001B
:100B1000704700BF80F0004002E000BF81F000415C
:100B200042001FBF5FEA410392EA030F7FEA226C93
:100B30007FEA236C6AD04FEA1262D2EB1363C1BF23
:100B4000D218414048404140B8BF5B42192B88BF92
:100B5000704710F0004F40F4000020F07F4018BFB5
:100B6000404211F0004F41F4000121F07F4118BFD5
:100B7000494292EA030F3FD0A2F1010241FA03FC7D
:100B800010EB0C00C3F1200301FA03F100F0004365
:100B900002D5494260EB4000B0F5000F13D3B0F12D
:100BA000807F06D340084FEA310102F10102FE2A9C
:100BB00051D2B1F1004F40EBC25008BF20F001000C
:100BC00040EA03007047490040EB000010F4000FBA
:100BD000A2F10102EDD1B0FA80FCACF1080CB2EB4D
:100BE0000C0200FA0CF0AABF00EBC25052421843AC
:100BF000BCBFD0401843704792F0000F81F4000151
:100C000006BF80F400000132013BB5E74FEA410323
:100C10007FEA226C18BF7FEA236C21D092EA030F8F
:100C200004D092F0000F08BF0846704790EA010F09
:100C30001CBF0020704712F07F4F04D1400028BF36
:100C400040F00040704712F100723CBF00F5000018
:100C5000704700F0004343F0FE4040F4000070474E
:100C60007FEA226216BF08467FEA236301464202FA
:100C700006BF5FEA412390EA010F40F4800070470D
:100C80004FF0000304E000BF10F0004348BF4042B3
:100C90005FEA000C08BF704743F0964301464FF0EF
:100CA00000001CE050EA010208BF70474FF000034B
:100CB0000AE000BF50EA010208BF704711F000438C
:100CC00002D5404261EB41015FEA010C02BF84465C
:100CD0000146002043F0B64308BFA3F18053A3F5BB
:100CE0000003BCFA8CF2083AA3EBC25310DB01FA02
:100CF00002FC634400FA02FCC2F12002BCF1004F86
:100D000020FA02F243EB020008BF20F00100704716
:100D100002F1200201FA02FCC2F1200250EA4C006A
:100D200021FA02F243EB020008BF20EADC707047B0
:100D30004FF0FF0C1CEAD0521EBF1CEAD15392EABE
:100D40000C0F93EA0C0F6FD01A4480EA010C40029A
:100D500018BF5FEA41211ED04FF0006343EA5010F4
:100D600043EA5111A0FB01310CF00040B1F5000F36
:100D70003EBF490041EAD3715B0040EA010062F1E5
:100D80007F02FD2A1DD8B3F1004F40EBC25008BFCF
:100D900020F00100704790F0000F0CF0004C08BFED
:100DA00049024CEA502040EA51207F3AC2BFD2F1BA
:100DB000FF0340EAC250704740F400004FF00003C8
:100DC000013A5DDC12F1190FDCBF00F00040704702
:100DD000C2F10002410021FA02F1C2F1200200FA40
:100DE00002FC5FEA310040F1000053EA4C0308BF07
:100DF00020EADC70704792F0000F00F0004C02BF58
:100E0000400010F4000F013AF9D040EA0C0093F0D2
:100E1000000F01F0004C02BF490011F4000F013B2C
:100E2000F9D041EA0C018FE70CEAD15392EA0C0F9A
:100E300018BF93EA0C0F0AD030F0004C18BF31F005
:100E4000004CD8D180EA010000F00040704790F0DB
:100E5000000F17BF90F0004F084691F0000F91F07F
:100E6000004F14D092EA0C0F01D142020FD193EA45
:100E70000C0F03D14B0218BF084608D180EA0100CD
:100E800000F0004040F0FE4040F40000704740F0A9
:100E9000FE4040F4400070474FF0FF0C1CEAD05277
:100EA0001EBF1CEAD15392EA0C0F93EA0C0F69D0D3
:100EB000A2EB030280EA010C49024FEA402037D03E
:100EC0004FF0805343EA111143EA10130CF0004035
:100ED0008B4238BF5B0042F17D024FF4000C8B4225
:100EE00024BF5B1A40EA0C00B3EB510F24BFA3EB05
:100EF000510340EA5C00B3EB910F24BFA3EB9103D5
:100F000040EA9C00B3EBD10F24BFA3EBD10340EA2E
:100F1000DC001B0118BF5FEA1C1CE0D1FD2A3FF674
:100F200050AF8B4240EBC25008BF20F00100704729
:100F30000CF0004C4CEA50207F32C2BFD2F1FF03CC
:100F400040EAC250704740F400004FF00003013AFD
:100F500037E792F0000F00F0004C02BF400010F4A1
:100F6000000F013AF9D040EA0C0093F0000F01F0B5
:100F7000004C02BF490011F4000F013BF9D041EAD7
:100F80000C0195E70CEAD15392EA0C0F08D142020A
:100F90007FF47DAF93EA0C0F7FF470AF084676E7DD
:100FA00093EA0C0F04D14B023FF44CAF08466EE7B6
:100FB00030F0004C18BF31F0004CCAD130F0004284
:100FC0007FF45CAF31F000437FF43CAF5FE700BFDC
:100FD0004FF0FF3C06E000BF4FF0010C02E000BF05
:100FE0004FF0010C4DF804CD4FEA40024FEA4103A7
:100FF0007FEA226C18BF7FEA236C11D001B052EA5D
:10100000530C18BF90EA010F58BFB2EB030088BF22
:10101000C81738BF6FEAE17018BF40F00100704791
:101020007FEA226C02D15FEA402C05D17FEA236C73
:10103000E4D15FEA412CE1D05DF8040B704700BFBA
:10104000844608466146FFE70FB5FFF7C9FF002851
:1010500048BF10F1000F0FBD4DF808EDFFF7F4FF8A
:101060000CBF012000205DF808FB00BF4DF808ED23
:10107000FFF7EAFF34BF012000205DF808FB00BF46
:101080004DF808EDFFF7E0FF94BF012000205DF868
:1010900008FB00BF4DF808EDFFF7D2FF94BF012019
:1010A00000205DF808FB00BF4DF808EDFFF7C8FF12
:1010B00034BF012000205DF808FB00BF4FEA40026A
:1010C000B2F1FE4F0FD34FF09E03B3EB12620DD976
:1010D0004FEA002343F0004310F0004F23FA02F0E0
:1010E00018BF404270474FF00000704712F1610F87
:1010F00001D1420205D110F0004008BF6FF000405E
:1011000070474FF00000704742000ED2B2F1FE4F20
:101110000BD34FF09E03B3EB126209D44FEA0023C6
:1011200043F0004323FA02F070474FF0000070478D
:1011300012F1610F01D1420202D14FF0FF3070472E
:101140004FF00000704700BF4A1E08BF7047C0F054
:101150002481884240F21681114200F01781B0FAD2
:1011600080F3B1FA81F2A2EB0303C3F11F0304A2DF
:1011700002EB03134FF000029F4600BFAFF3008065
:10118000B0EBC17F00BF42EB020228BFA0EBC170F1
:10119000B0EB817F00BF42EB020228BFA0EB817061
:1011A000B0EB417F00BF42EB020228BFA0EB4170D1
:1011B000B0EB017F00BF42EB020228BFA0EB017041
:1011C000B0EBC16F00BF42EB020228BFA0EBC160D1
:1011D000B0EB816F00BF42EB020228BFA0EB816041
:1011E000B0EB416F00BF42EB020228BFA0EB4160B1
:1011F000B0EB016F00BF42EB020228BFA0EB016021
:10120000B0EBC15F00BF42EB020228BFA0EBC150B0
:10121000B0EB815F00BF42EB020228BFA0EB815020
:10122000B0EB415F00BF42EB020228BFA0EB415090
:10123000B0EB015F00BF42EB020228BFA0EB015000
:10124000B0EBC14F00BF42EB020228BFA0EBC14090
:10125000B0EB814F00BF42EB020228BFA0EB814000
:10126000B0EB414F00BF42EB020228BFA0EB414070
:10127000B0EB014F00BF42EB020228BFA0EB0140E0
:10128000B0EBC13F00BF42EB020228BFA0EBC13070
:10129000B0EB813F00BF42EB020228BFA0EB8130E0
:1012A000B0EB413F00BF42EB020228BFA0EB413050
:1012B000B0EB013F00BF42EB020228BFA0EB0130C0
:1012C000B0EBC12F00BF42EB020228BFA0EBC12050
:1012D000B0EB812F00BF42EB020228BFA0EB8120C0
:1012E000B0EB412F00BF42EB020228BFA0EB412030
:1012F000B0EB012F00BF42EB020228BFA0EB0120A0
:10130000B0EBC11F00BF42EB020228BFA0EBC1102F
:10131000B0EB811F00BF42EB020228BFA0EB81109F
:10132000B0EB411F00BF42EB020228BFA0EB41100F
:10133000B0EB011F00BF42EB020228BFA0EB01107F
:10134000B0EBC10F00BF42EB020228BFA0EBC1000F
:10135000B0EB810F00BF42EB020228BFA0EB81007F
:10136000B0EB410F00BF42EB020228BFA0EB4100EF
:10137000B0EB010F00BF42EB020228BFA0EB01005F
:10138000104670470CBF012000207047B1FA81F26F
:10139000C2F11F0220FA02F0704708B14FF0FF308F
:1013A00000F00EB80029F8D02DE90340FFF7CCFE7D
:1013B000BDE8064002FB00F3A1EB0301704700BF4C
:1013C000704700BF1A481B49026800608A4219D062
:1013D000002103E0184B5B58435004311748184B69
:1013E00042189A42F6D3174A02E0002342F8043B1F
:1013F000154B9A42F9D306F065FD0AF0D5F900F0D5
:1014000073F8FEE7114E124830601248016821F06F
:1014100070610160410201600F4C182020600F498B
:101420000F4808600F48D0F800D04068004700001F
:10143000F04F0020EFBEADDE3CD4000800000020DD
:10144000C0010020C0010020300E00201810024012
:101450000900000004000140140C0140000C014090
:101460004434434400F0FF1FFEE700000F4B93F8A5
:1014700014312BB90E4BDA6882F01002DA6009E001
:101480000C4B1B791BB10A4B10225A6102E0084B2E
:1014900010221A61074B5B781BB1054B08225A6179
:1014A0007047034B08221A61704700BFEC08002008
:1014B000000C0140B408002010B504F025FA084BD8
:1014C000084A19681860411A116001F0C1F800F06B
:1014D000F1F800F0CBFFBDE8104000F0FDBF00BF09
:1014E000C4010020D40700201FB504F0CDFA03F09A
:1014F0003BFB3B4803F0A0FB4FF4E13004F012FC4F
:1015000005F078FD00F088F8364B93F836300E2B56
:1015100001D0082B02D101238DF80830012002F000
:101520005FF901238DF804302F4B2E4C1B788DF87A
:101530000500003B18BF01238DF8063094F8783081
:1015400001A8DB0803F001038DF80730E38AADF84A
:101550000A30238BADF80C3004F048F900F0FCFFA2
:101560004FF47A7004F05BFA20484FF4FA7104F0FB
:10157000E5F91F484FF4FA7104F0E0F91D4840F610
:10158000B83104F0DBF91C484FF47A6104F0D6F965
:101590001A4844F6206104F0D1F994F8603123B17F
:1015A000174844F6206104F0C9F9164849F640414D
:1015B00004F0C4F9144844F6206104F0BFF913485C
:1015C000134904F0BBF9022002F00AF920B11148D6
:1015D00049F6404104F0B2F904F0D4F9FCE700BF49
:1015E00000580040EC080020C8010020F1700008FD
:1015F00051710008CD650008B9140008593300087E
:10160000B17100088D5E0008154000086D140008D7
:10161000A08601001172000808B5224B93F83630FD
:10162000042B07D0012B05D0082B03D00E2B01D0A3
:10163000052B02D11C4B01221A70082002F0D0F8B1
:1016400010B1194B01221A70164B93F83630013B3A
:10165000112B26D8DFE803F00F11110D0913130B1E
:1016600011131515150B2525111900220AE0012269
:1016700008E0022206E0032204E0042202E006223F
:1016800000E00822094B1A7008BD00231A460849D9
:10169000C95C09B10132D2B21433F02BF7D1034B3C
:1016A0001A7008BDEC080020C801002010000020BE
:1016B000CC0100202DE9F74F9B4B1B78032B3CD925
:1016C0009A4B00219D689A4B4FF000069C6820467B
:1016D000FFF7EAFC08B14FF00106F6B216B19548E3
:1016E000214601E094492046FFF718FA01462846B2
:1016F000FFF7BCFC28B10EB18E4818E020468E4999
:1017000016E026B120468C49FFF70AFA03E08A4822
:101710002146FFF703FA01462846FFF7C5FC50B102
:1017200026B120468449FFF7FBF903E082482146B1
:10173000FFF7F4F905467D4B9D60804C94F83630F8
:10174000013B102B00F29885DFE813F07A000E01C0
:10175000540111001D05D301420274059701B9021D
:101760003303A4033A04960596059605D404704BFA
:101770006E4DD868E968FFF7D3F96E68824600219C
:101780003046FFF7D5FA074694F97000FFF77CFA68
:10179000A968FFF7CDFA00218146FFF7C9FAD5F80D
:1017A0000080054641465046FFF7BAF93946FFF733
:1017B000B7F92946FFF7B4F9FFF780FC604C4146C2
:1017C00020805046FFF7AAF93946FFF7A9F92946C4
:1017D000FFF7A6F9FFF772FC5A4960804846FFF709
:1017E0009FF931460546FFF79BF957490446FFF735
:1017F0003DFC10B14FF47F700BE020465349FFF7DA
:1018000053FC10B14FF4FA6003E02046FFF756FC9A
:1018100080B24F4B314618812846FFF77FF94A497D
:101820000446FFF723FC10B14FF47F7098E0204688
:101830004649FFF739FC002874D04FF4FA608FE076
:101840003B4B3A4DD868E968FFF76AF9804694F94E
:101850007000FFF719FAA968FFF76AFA00218146BC
:10186000FFF766FA2F68064600213846FFF760FA50
:1018700001464046FFF754F9D5F804A083464FF0DF
:1018800081415046FFF754FA3249FFF705FB014604
:101890005846FFF745F93146FFF742F9FFF70EFCCE
:1018A000274D4FF0404128805046FFF741FA294923
:1018B000FFF7F2FA394682464046FFF72FF95146C4
:1018C000FFF72EF93146FFF72BF9FFF7F7FB394603
:1018D00068804046FFF724F95146FFF721F9314669
:1018E000FFF71EF9FFF7EAFBA880B4F87400FFF7D2
:1018F000CBF94946FFF714F90546B4F87200FFF733
:10190000C3F9044621462846FFF7B0FB50B90B4BFC
:10191000B3F87600FFF7B8F9044621462846FFF7EA
:10192000C3FBC8B1204618E0100000209808002032
:10193000800000200000C8C20000C842EC0800205F
:10194000D80700200080BB4400007F440000FA4418
:1019500000000020000040402846FFF7AFFB80B2A7
:10196000964B588100F088BC954B964DD868E96835
:10197000FFF7D6F82F68804600213846FFF7D8F9E0
:1019800001464046FFF7CCF8824694F97000FFF715
:101990007BF9A968FFF7CCF96E68054631465046D9
:1019A000FFF7BEF82946FFF7B9F8FFF787FB864C2B
:1019B000002120803046FFF7BBF93946814640467A
:1019C000FFF7ACF84946FFF7ABF82946FFF7A8F850
:1019D000FFF774FB394660804046FFF7A1F849469F
:1019E000FFF79EF82946FFF79BF8FFF767FBA080FB
:1019F000504638E0724B734DD868E968FFF790F8AD
:101A00002F6882463946FFF789F8804694F97000BE
:101A1000FFF73AF9A968FFF78BF96E68054631467A
:101A20004046FFF77DF82946FFF778F8FFF746FBB9
:101A3000654C314620804046FFF770F82946FFF795
:101A40006FF8FFF73BFB394660805046FFF768F8B8
:101A500031460746FFF764F82946FFF761F8FFF7BC
:101A60002DFBA08038463146FFF758F82946FFF78E
:101A700055F8FFF723FBE080FEE3514B514DD8684A
:101A8000E968FFF74DF82F68804600213846FFF7D8
:101A90004FF96E6801464046FFF742F83146FFF7BE
:101AA0003FF8824694F97000FFF7EEF8A968FFF757
:101AB0003FF9054629465046FFF730F8FFF7FEFA92
:101AC000414C002120802846FFF732F939468146F3
:101AD0004046FFF723F83146FFF720F84946FFF765
:101AE0001FF8FFF7EBFA294660805046FFF718F819
:101AF0003BE3334B334DD868E968FFF711F82E68A4
:101B0000074600213046FFF713F901463846FFF734
:101B100007F8D5F804A080464FF081415046FFF702
:101B200007F92A49FFF7B8F901464046FEF7F8FFE2
:101B3000804694F97000FFF7A7F8A968FFF7F8F856
:101B4000054629464046FEF7EBFFFFF7B7FA1E4C65
:101B50004FF0404120805046FFF7EAF81B49FFF75D
:101B60009BF9314682463846FEF7D8FF5146FEF7CC
:101B7000D7FF29468146FEF7D1FFFFF79FFA31468E
:101B800060803846FEF7CCFF5146FEF7C9FF294674
:101B90000646FEF7C3FFFFF791FA2946A0804046AC
:101BA000FEF7BCFFFFF78AFA2946E0804846FEF7B9
:101BB000B7FFFFF783FA20813046F6E000000020EF
:101BC0008000002098080020D80700200000404036
:101BD000A84BA94DD868E968FEF7A2FFD5F80080A8
:101BE00007464FF03F414046FFF7A2F8014638460E
:101BF000FEF796FF6E6881464FF07C513046FFF746
:101C000097F8824694F97000FFF73EF8A968FFF74D
:101C10008FF8514605464846FEF782FF2946FEF7F3
:101C20007FFFFFF74BFA954C4FF03F412080304645
:101C3000FFF77EF8834659464846FEF771FF29466E
:101C4000FEF76CFFFFF73AFA4FF07C516080404698
:101C5000FFF76EF801463846FEF762FF51468146AF
:101C6000FEF75EFF2946FEF75BFFFFF727FA5946AE
:101C7000A0804846FEF754FF2946FEF74FFFFFF7C6
:101C80001DFA0021E0804046FFF752F80146384631
:101C9000FEF746FF31460746FEF740FF2946FEF7AE
:101CA0003FFFFFF70BFA314620813846FEF738FF39
:101CB0002946FEF733FFFFF701FA6081DCE26D4B46
:101CC0006D4DD868E968FEF72BFFD5F80090824685
:101CD0006B494846FFF72CF86A49FFF7DDF80146E3
:101CE0005046FEF71DFF6F68064667493846FFF706
:101CF0001FF86649FFF7D0F8804694F97000FEF7A8
:101D0000C3FFA968FFF714F8414605463046FEF7C1
:101D100007FF2946FEF704FFFFF7D0F9574C5C494F
:101D200020803846FFF704F85849FFF7B5F8834696
:101D300059463046FEF7F4FE2946FEF7F1FEFFF75E
:101D4000BDF94FF0814160804846FEF7F1FF4D49F3
:101D5000FFF7A2F801465046FEF7E2FE41468246F2
:101D6000FEF7DEFE2946FEF7D9FEFFF7A7F9594632
:101D7000A0805046FEF7D4FE2946FEF7CFFEFFF7BF
:101D80009DF90021E0803846FEF7D2FF074639462C
:101D90003046FEF7C5FE2946FEF7C0FEFFF78EF976
:101DA000394620815046FEF7BBFE2946FEF7B8FEB5
:101DB00081E7304B304DD868E968FEF7B1FED5F8C1
:101DC000008082464146FEF7A9FE6E688146314694
:101DD000FEF7A6FE074694F97000FEF755FFA968C6
:101DE000FEF7A6FF054629463846FEF797FEFFF7A1
:101DF00065F9224C314620804846FEF78FFE294681
:101E00008146FEF78DFEFFF759F941466080504646
:101E1000FEF786FE31468246FEF782FE2946804660
:101E2000FEF77EFEFFF74AF93146A0805046FEF7E6
:101E300075FE29460646FEF771FEFFF73FF9294673
:101E4000E0803846FEF76CFEFFF738F9294620811E
:101E50004846FEF763FEFFF731F9294660814046A8
:101E6000FEF75CFEFFF72AF92946A0813046FEF70F
:101E700057FE2EE18000002098080020D80700209F
:101E8000000080C00000A040000010410000204180
:101E9000000010C1914B924DD868E968FEF740FEF2
:101EA0002E6807468F493046FEF742FF8E49FEF7FF
:101EB000F3FF01463846FEF733FED5F8048082462C
:101EC0008A494046FEF734FF8749FEF7E5FF814621
:101ED00094F97000FEF7D8FEA968FEF729FF49467D
:101EE00005465046FEF71CFE2946FEF719FEFFF791
:101EF000E5F87F4C7D4920803046FEF719FF7A498E
:101F0000FEF7CAFF01463846FEF70AFE49468346F9
:101F1000FEF706FE2946FEF703FEFFF7CFF87149EC
:101F200060804046FEF704FF6F49FEF7B5FF81462B
:101F300049465846FEF7F4FD2946FEF7F1FDFFF746
:101F4000BDF84946A0805046FEF7EAFD2946FEF757
:101F5000E7FDFFF7B3F80021E0803046FEF7E8FE2A
:101F600001463846FEF7DCFD41468146FEF7D6FDC8
:101F70002946FEF7D3FDFFF7A1F800212081404656
:101F8000FEF7D6FE314682463846FEF7C7FD51467B
:101F9000FEF7C6FD2946FEF7C1FDFFF78FF8414663
:101FA00060814846FEF7BCFD2946FEF7B7FDFFF706
:101FB00085F83146A0813846FEF7B2FD514683E0F0
:101FC000464B474DD868E968FEF7AAFD2F68804662
:101FD0003946FEF7A5FD6E6882464FF03F41304618
:101FE000FEF7A6FE814694F97000FEF74DFEA96843
:101FF000FEF79EFE494605465046FEF791FD2946EE
:10200000FEF78EFDFFF75AF8394C4FF03F41208024
:102010003846FEF78DFE01464046FEF781FD31460B
:102020000090FEF77BFD2946FEF77AFDFFF746F8A4
:10203000394660804046FEF771FD4FF07C51834683
:102040003046FEF775FE0346194658460193FEF7E3
:1020500067FD2946FEF764FDFFF730F84FF07C512D
:10206000A0803846FEF764FE01464046FEF758FD64
:1020700031460746FEF754FD2946FEF751FDFFF7AE
:102080001DF83146E0803846FEF748FD2946FEF748
:1020900045FDFFF713F8494620815846FEF740FDFD
:1020A0002946FEF73BFDFFF709F86081009A3146AB
:1020B0001046FEF735FD2946FEF730FDFEF7FEFF20
:1020C000019BA08119465046FEF72AFD2946FEF7DE
:1020D00025FDFEF7F3FFE081CEE000BF8000002089
:1020E000980800200000E040000020410000E0C00F
:1020F000D80700206B4B6C4DD868E968FEF710FDDF
:102100002F68804600213846FEF712FE6E680146B1
:102110004046FEF705FD3146FEF702FD824694F982
:102120007000FEF7B1FDA968FEF702FE05462946DC
:102130005046FEF7F5FCFEF7C1FF5C4C0021208005
:102140002846FEF7F5FD394681464046FEF7E6FC97
:102150003146FEF7E3FC4946FEF7E2FCFEF7AEFF30
:10216000294660805046FEF7D9FCFEF7A7FF3946A6
:10217000A0804046FEF7D4FC3146FEF7CFFC49462E
:10218000FEF7CEFC75E4B4F88600FEF77DFDD4F8CA
:102190008C10FEF7C5FC434B5968FEF7C1FC0546A1
:1021A000B4F88400FEF770FD044621462846FEF789
:1021B0005DFF50B93E4BB3F88800FEF765FD04465D
:1021C00021462846FEF770FF08B1204600E0284669
:1021D000FEF774FF364C374B80B21880B4F87C00A1
:1021E000FEF752FDD4F88010FEF79AFC2D4B1968CB
:1021F000FEF796FC0546B4F87A00FEF745FD064664
:1022000031462846FEF732FF08B130460CE0B4F8FC
:102210007E00FEF739FD044621462846FEF744FFBE
:1022200008B1204600E02846FEF748FF214B80B267
:10223000588021E01B4B1F4CD868FEF73FFF1B4B1B
:1022400018801D4B9B7A23B14FF0000323806380DD
:1022500012E0154D00216868FEF76AFD0021064670
:102260002868FEF765FD01463046FEF759FCFEF78B
:1022700025FF80B220806080082001F0B1FA00289C
:102280007BD00B4A92F8783013F0030004D00B494E
:10229000528F8889801A80B213F0040F10D0002763
:1022A00014E000BF8000002098080020D80700201C
:1022B000EC08002000000020B4080020D80800200E
:1022C000624BDF89624B5B8FFF1ABFB2604D614C7E
:1022D000B5F88630C018B5F87C3080B2FF185E4B78
:1022E000BFB2DB782080678043B300B2FEF7CCFC3E
:1022F0005A4E80467169D5F88C00FEF719FD4FF0F3
:102300008441FEF715FD01464046FEF709FCFEF745
:10231000D5FE208038B2FEF7B7FC31690746D5F804
:102320008000FEF705FD4FF08441FEF701FD0146F8
:102330003846FEF7F5FBFEF7C1FE6080454B444989
:10234000B3F90020B1F884309A4205DBB1F8883047
:102350009342A8BF13469BB23E4A3D491380B2F94F
:102360000220B1F87A309A4205DBB1F87E30934210
:10237000A8BF13469BB2374A5380354B93F8783049
:1023800013F0080F12D0082001F02AFA2F4C002871
:1023900014BF0225002504F10806284621890234CD
:1023A000013502F0FBFFB442EDB2F6D12C4B1D8893
:1023B0002C4B1A78012308E029492DB231F913106A
:1023C00001338D42B8BF0D46ADB29342F4D3002421
:1023D000264635E01E4B2AB2B3F844309A4204DD5B
:1023E0001F4AA15A5918491BA1521D4A1849A25EF9
:1023F000B1F842108A4201DA0B4603E09342A8BFCB
:1024000013469BB2164A124FA352104B04EB02081C
:10241000B3F90620FB8F9A4209DA042001F0E0F9B3
:1024200008B13F8F01E0B7F84270A8F800700E4B7A
:102430005B781BB9064A0A4B128FE252013602340E
:10244000084B1B789E42C5D3BDE8FE8FD8080020FC
:10245000EC08002000000020C4080020BC0D002073
:10246000D807002010000020B408002010B5174B3A
:102470001B78002B28D0164B93F83630042B08D04D
:1024800002D8012B11D10CE0082B1DD00E2B0CD142
:1024900010BD104C0020218902F080FF01206189CD
:1024A0000EE00C4B002059890AE0082001F098F951
:1024B00050B1084C0020218802F070FF6188012093
:1024C000BDE8104002F06ABF10BD00BFC801002087
:1024D000EC0800200000002010B5002407E0064BA7
:1024E000204633F8141002F04BFF0134E4B2034BE2
:1024F0001B78A342F3D810BDD8070020100000209D
:10250000064A074B11789A1C02EB410201E023F8BE
:10251000020C02339342FAD1FFF7DEBF1000002015
:10252000D807002038B50546002410E0094B0134D7
:10253000B3F94200FFF7E4FFFA2003F070FA4FF41A
:102540007A70FFF7DDFFFA2003F069FAE4B2AC42DB
:10255000ECD338BDEC0800200A4B0B4A03F17001A4
:10256000D3F89C001060D3F8A0005060D3F8A4000A
:102570009060D3F8A8001033D06018328B42EFD1AE
:10258000704700BFEC080020F0070020044B03F167
:10259000A80100221A615A6118338B42F9D17047A1
:1025A000F007002000230361436170472DE9F047E5
:1025B00004460D46D0F8149010466161616890465B
:1025C000FEF7B6FB2049FEF7B3FB01462846FEF7AF
:1025D000AFFB2169FEF7A4FAD4F80CA007462061EE
:1025E0001A495046FEF7A4FB064631463846FEF728
:1025F0003DFD50B914495046FEF79AFB0646314658
:102600003846FEF751FD00B93E462661216828464E
:10261000FEF78EFB0C4907463046FEF73DFC0146AF
:102620003846FEF77DFA494606462846FEF776FA12
:10263000A168FEF77DFB4146FEF72EFC01463046C1
:10264000FEF76EFABDE8F08700007A4400007AC415
:102650002DE9F84503F058F9834E844B0546186080
:102660003068281AFEF70CFB8149FEF761FB814BAD
:1026700004461A793560002A31D07F4D6868FDF72D
:10268000C3FE75A3D3E90023FDF712FFFEF7F2F9AD
:1026900007462868FDF7B8FE6FA3D3E90023774DFE
:1026A000FDF706FFFEF7E6F92969FEF737FA02F0B3
:1026B000F1F8224601467248FFF778FF02F0EAF887
:1026C000696906463846FEF729FA02F0E3F8224621
:1026D00001466C48FFF76AFF02F0DCF845E05B7AE0
:1026E000654D002B2CD0654B9869674B1968FEF738
:1026F00015FA064606F004FD8246304606F03AFD1D
:10270000D5F80080074651464046FEF711FB6D683C
:10271000064639462846FEF70BFB01463046FEF7D3
:10272000FDF9514606462846FEF702FB39460546A6
:102730004046FEF7FDFA01462846FEF7F1F914E09F
:102740002868FDF761FE46A3D3E90023FDF7B0FE3C
:10275000FEF790F906466868FDF756FE40A3D3E9F8
:102760000023FDF7A5FEFEF785F9424B05465B7990
:10277000CBB1464B9B78B3B1454B9B7813B94548D9
:10278000FFF710FF444B18683C4B9969FEF7C6F9F8
:1027900002F080F8224601463E48FFF707FF02F0AC
:1027A00079F880460FE0344B9868FDF72DFE2CA396
:1027B000D3E90023FDF77CFEFEF75CF92F4B804642
:1027C0009A69354B1A602B4B9B7903B32B4BD86D11
:1027D000FEF75AFA314B01461868FEF79FF9304967
:1027E000FEF75AFB224601462E48FFF7DFFE2E4930
:1027F0000746FEF73BFC08B12B4F05E038462B4956
:10280000FEF752FC00B1294F294BDF6002E0284B54
:102810000022DA60194F3046F969FEF77FF9224647
:1028200001462448FFF7C2FE214E396A306028462F
:10283000FEF774F9224601461F48FFF7B7FE796A92
:1028400070604046FEF76AF9224601461B48FFF7D2
:10285000ADFEB060BDE8F885FCA9F1D24D62603FE5
:102860007B14AE47E17A743FC0020020BC02002016
:10287000BD378635B408002080000020BC0D002044
:102880003808002050080020E80800207C000020C4
:102890009000002068080020AC080020D408002028
:1028A0000000204180080020000048C30000484389
:1028B00098080020F00700200808002020080020C9
:1028C000014B01221A707047E4020020014803F016
:1028D0000FBA00BF9CBA0008014803F009BA00BF54
:1028E000D3BA000838B50D4803F002FA00240C4DA5
:1028F000285903F0FDF92D19092003F0E3F9686860
:1029000003F0F6F9074803F0F3F903F087F900281C
:10291000FBD00C343C2CEAD138BD00BFD8BA00083B
:10292000E8C40008D0BB000838B50D4803F0E0F952
:1029300000240C4D285903F0DBF92D19092003F070
:10294000C1F9686803F0D4F9074803F0D1F903F03E
:1029500065F90028FBD00C34902CEAD138BD00BFBB
:10296000FBBA00080CBA0008D0BB000810B503F091
:1029700045F84FF47A71B0FBF1F1134C134801F0B4
:102980008AFA134803F0B4F9206EFDF73DFD0246C4
:102990000B46104801F07FFA94F868100E4801F0D9
:1029A0007AFA0E4803F0A4F90D4B0E48196801F0AD
:1029B00072FA02F03BF901460B4801F06CFA0B4841
:1029C000BDE8104003F094B9BC0D002011BB000815
:1029D00023BB000837BB00083CBB000841BB000814
:1029E000D40700204EBB00085DBB0008D0BB000828
:1029F0002DE9F041074608F01FFFC5B255B91F4841
:102A000003F076F91E4B93F836201E4B013A53F82B
:102A100022002AE038461C492A4608F015FF0446E1
:102A200070B91A4803F064F9164B53F82400F0B15A
:102A300003F05EF90134202003F044F9E4B2F3E737
:102A40000024104E56F8241009B9114810E03846F9
:102A50002A4608F0F9FE631C70B9094A0D4882F84D
:102A6000363003F045F956F8240003F041F90A48DE
:102A7000BDE8F04103F03CB9DCB2E2E76EBB000810
:102A8000EC0800201400002092BF00087EBB000864
:102A900091BB0008A9BB0008D0BB00082DE9F04598
:102AA00085B0804608F0C8FE074628B1012879D1D4
:102AB00098F800302A2B75D14B4C4C4803F018F98C
:102AC000D4F81801FDF7A0FC0646D4F81C010F4607
:102AD000FDF79AFCCDE90001D4F82001FDF794FC44
:102AE00032463B46CDE90201414801F0D4F9D4F821
:102AF0002801FDF789FC0646D4F82C010F46FDF7A6
:102B000083FCCDE90001D4F83001FDF77DFC3246AD
:102B10003B46CDE90201374801F0BDF9D4F8340154
:102B2000FDF772FC0646D4F838010F46FDF76CFC41
:102B3000CDE90001D4F83C01FDF766FC2E4D32468C
:102B40003B46CDE902012D4801F0A5F9E86AFDF701
:102B50005BFC0646286B0F46FDF756FCCDE90001ED
:102B6000686BFDF751FC32463B46CDE90201244833
:102B700001F091F9D4F84401FDF746FC0646D4F87B
:102B800048010F46FDF740FCCDE90001D4F84C01A7
:102B9000FDF73AFC3246CDE902013B46194801F007
:102BA0007AF91DE000252C46174E404671593A46E9
:102BB0005FFA84FA08F048FE40B90C2303FB046472
:102BC000A3689847BAF1040F0AD903E001340C3521
:102BD000052CE9D10D4805B0BDE8F04503F088B8F3
:102BE00005B0BDE8F08500BFEC080020B7BB0008C9
:102BF000D3BB0008EDBB0008BC0D002009BC0008D9
:102C00002FBC00084BBC0008E8C4000863BC0008E7
:102C100070B50D680446284608F00EFE024620688E
:102C20002946BDE8704008F00FBE00007FB503796B
:102C300004460D46052B2BD8DFE803F003081015DA
:102C40001B208368204968461A7804E083681F497E
:102C500093F90020684601F00FF919E083681A49DA
:102C600068461A88F7E7836818496846B3F9002070
:102C7000F1E78368144968461A68ECE783681868C6
:102C8000FDF7C2FB02460B466846114901F0F4F815
:102C900068466E4603F02CF8ADB10E4803F028F8F4
:102CA00069460A22E06801F039FD684603F020F821
:102CB000084803F01DF8206969460A2201F02EFD3C
:102CC000684603F015F87FBD3EBB000881BC0008D4
:102CD00084BC0008D6BA00082DE9F041064608F089
:102CE000ABFD074620B101281FD133782A2B1CD118
:102CF000424802F0FDFF424C04F5CA6504352068E5
:102D000002F0F6FF3F4802F0F3FF20463946FFF796
:102D10008DFF3D4802F0ECFF02F080FF0028FBD061
:102D20001434AC42EBD1BDE8F08130463D2108F0CF
:102D300077FD074600285ED0314C04F5CA6504359E
:102D4000D4F80080404608F077FD41460246304600
:102D500008F07AFD8046002845D12379781C052BA0
:102D600004D101F0B5FD0546404602E008F0EFFC55
:102D700000252379052B06D0E268904213DB2269F7
:102D8000904212DD0FE0E068FDF77EFF0146284625
:102D9000FEF76CF938B92069FDF776FF0146284641
:102DA000FEF782F988B1194821E0052B0FD8DFE83A
:102DB00003F003030606090CA368187007E0A36874
:102DC000188004E0A368186001E0A3681D60206813
:102DD00002F08EFF0E4802F08BFF20460021BDE876
:102DE000F041FFF723BF1434AC42A9D10948BDE834
:102DF000F04102F07DBFBDE8F08100BF87BC000854
:102E000024C500089CBC0008D0BB0008A0BC00087A
:102E1000AEBB0008C5BC000810B5084802F068FF4A
:102E200000F00EFD064802F063FF0A2002F0F7FDF5
:102E30000020BDE8104002F0FDBD00BFE2BC00086C
:102E4000ECBC0008F0B585B0044608F0F5FC082895
:102E500024D100231F49E25C09685118497811F018
:102E6000020F18BF203AE2540133082BF2D1651C3F
:102E700004F1090715F8016C1748314608F0D0FC39
:102E800020B12846314608F0CBFC08B113481CE0BD
:102E90000135BD42EED1204600F0F6FC104802F0AC
:102EA00027FF00230F4A04A9D218927B8A180A49E7
:102EB000595C0133082B02F80C1CF3D1083B01A824
:102EC0008DF80C3002F014FF074802F011FF05B036
:102ED000F0BD00BFC800002078CB0008FBBC000894
:102EE0001BBD0008EC080020D0BB00082DE9F04114
:102EF000064608F0A1FC054600F092FC044695B990
:102F00002A4802F0F5FE2A4B53F82500002845D048
:102F10000123AB40234201D002F0EAFE202002F060
:102F2000D1FE0135EFE7304622492A4608F08CFCF5
:102F3000044660B9204802F0DBFE1D4B18590434EA
:102F400060B302F0D5FE202002F0BCFEF5E7337836
:102F50002D2B01D0002702E00136013D012700247E
:102F6000134B53F8241009B9144818E030462A4688
:102F700008F06AFCB8B92FB10130A04000F042FC63
:102F80000F4804E00120A04000F034FC0D4802F09E
:102F9000AFFE074B53F8240002F0AAFE0A48BDE832
:102FA000F04102F0A5BE0134DAE700BF30BD0008F1
:102FB0006000002092BF000843BD000858BD000813
:102FC00072BD00087CBD0008D0BB000810B50446E7
:102FD000084802F08DFE20220021074808F017FC67
:102FE000064A00231360064A20461370BDE81040CD
:102FF000FFF712BF85BD0008C4020020E8020020D0
:10300000A808002010B5084802F072FE012000F068
:1030100051FC064802F06CFE0A2002F000FD002080
:10302000BDE8104002F006BD9DBD0008EEBC0008E2
:103030002DE9F041844B8AB01A7832B901321A7006
:10304000824802F055FEFFF747FC814B1B78002BAE
:1030500000F0698102F058FE18B102F0EDFD7D4BE1
:1030600018707C4B1B786D2B42D00CD8622B23D070
:1030700005D8232B0FD0612B40F055810FE0672B33
:1030800040F051811EE0742B5AD0772B5BD0712B0E
:1030900040F0498139E06E4B00221A70D1E06E4C4D
:1030A0002068FDF7B1F9064660680F46FDF7ACF9F8
:1030B000CDE90001A06811E0674B6848996D00F008
:1030C000EAFE30E1644CE069FDF79EF90646206AAD
:1030D0000F46FDF799F9CDE90001606AFDF794F913
:1030E0003246CDE902013B465D4800F0D4FE1AE1CC
:1030F000594CA06CFDF788F90646E06C0F46FDF7C9
:1031000083F9CDE90001206DE8E7564C2068FDF712
:103110007BF9064660680F46FDF776F9CDE90001B8
:10312000A068FDF771F9CDE90201E068FDF76CF9DF
:103130003246CDE904013B464B4800F0ACFEF2E0DC
:1031400002F088FCEFE0444C48492069FDF7F0FDAF
:10315000FDF75AF906460F4660694449FDF7E8FD58
:10316000FDF752F9CDE900014049A069FDF7E0FD06
:10317000B4E702F061FD092801D03F2853D13C4B50
:10318000DFF8FC8000261F683546A8F190040CE0AB
:103190002FB1384821683A4608F056FB20B915B9D6
:1031A0002646254600E026460C344445F0D1BDB104
:1031B000304A3B46D2192968C85C3168C95C8142F3
:1031C0000CD1581C013229B92A4A2031D154284B3C
:1031D000186005E002F8011C0346ECE7244A13607E
:1031E000234B1B680BB1B5420FD0234802F080FD82
:1031F00006E055F80C0B02F07BFD092002F062FDA1
:10320000B542F6D9FFF768FB00271A4CE41904E031
:1032100014F8010C02F056FD0137154B01341B6800
:103220009F42F5D37FE0124B1B682BB9042803D1D2
:103230001048FFF7CBFE7BE00C2823D10F4802F0AB
:1032400057FDFFF749FB6EE0A8080020B8BD000855
:10325000E4020020EC020020BC0D002065CE000836
:10326000F3BD0008640C0020F0BD0008E02E6542AC
:10327000E8020020C4020020FDBD000802BE0008D4
:103280009CBA0008002B2FD00A2801D00D282BD182
:10329000294802F02DFD294B294C1A680023A3541C
:1032A0000893284B0C22009307A82749134607943C
:1032B00008F051FA054638B1006808F0BDFA01304F
:1032C000AB682018984702E0204802F011FD202248
:1032D0001B48002108F09BFA184B00221A601C4B77
:1032E0001B78002BADD123E07F2801D008280AD11C
:1032F000CBB1124A013B1360114A0021D154154849
:1033000002F0F6FC0FE01F2B0DD81F280BD97E28EA
:1033100009D80BB9202806D0094AD054074A0133EE
:10332000136002F0CFFC02F0EFFC00287FF421AF25
:103330000AB0BDE8F08100BFD0BB0008E802002061
:10334000C4020020112C00080CBA00080DBE0008B1
:10335000A80800202EBE00082DE9F14F7D4B002467
:103360001A787D4D01321A7026467A4B7B4F93F8BE
:103370000080BB19987B02F01FF8A0F53A73063B5A
:103380009BB240F2DC52934288BF788F724B08F0B8
:10339000030808EB860823F818002B886A88D218DF
:1033A000AB88D218EB88D21812B2931C48BF531DB9
:1033B0009B106B4A9BB213536A4A19B2A05E033842
:1033C000814201DA981CA052664AA05E0330814215
:1033D00001DD023BA352013602340835082EC4D168
:1033E000604C5E4DB4F90620EB8F9A4246DAFFF747
:1033F000CDF8AB8C73B15C4B5B7923B15B4B1A7826
:103400000AB1012216E0594B5A78002A64D00022F2
:103410005A7061E0B4F90420B5F840309A420FDDEB
:10342000524B597861B952490A78501C142A0870D5
:1034300052D1133A5A704F4B9A694F4B1A604BE076
:10344000464BDB8F9A4244DA484A517841B14849A9
:103450000B78581C142B08703ED1143B53703BE082
:10346000404AB2F902209A4233DD414A1378591C8E
:10347000142B117030D103F0C7FB2DE0B5F84010CC
:103480008A4229DD394A527832BBB4F904208A4293
:103490000CDDB4F90210994208DA354A1378591C48
:1034A000142B117018D104F045F915E09A4210DA86
:1034B0002C4AB2F902209A420BDA2D4A1378591C91
:1034C000142B117008D103F01BFA0320FFF72AF820
:1034D00002E0274B00221A70102000F081F900282A
:1034E00029D0264B1D4AB3F800C014890FFA8CFE70
:1034F000A6451DDD1D4B5978D1B1508F1949088063
:103500004880888090895289C88014190121A64575
:10351000D97302DD00225A701A70144B5A780AB916
:103520005A701A70154B0CF1010CA3F800C002E0A0
:103530000E4B0022DA73094B114AD88FB3F8404082
:1035400000231946B2F900C084451BDC4FF0000E81
:1035500020E000BF4003002000030020EC08002012
:10356000F0020020D8080020C4080020B408002081
:10357000ED020020BC0D0020E8080020600A0020B9
:10358000E008002032F908EC8645ACBF4FF0000E91
:103590004FF0010E8445ACBF002501259D40A44598
:1035A000D4BF4FF0000C4FF0010C45EA01019D1C07
:1035B0000CFA05FC41EA0C0103F1010C0EFA0CFEB9
:1035C000033341EA0E0102320C2B89B2BAD1744F97
:1035D0000C3B3A46B2F81AC0724811EA0C0F0CBF05
:1035E0004FF0000C4FF0010C03F800C00133023221
:1035F0000E2BEFD1437913B96B4B01221A70694B33
:103600001A7A694B02B101229A72664B1B7813B980
:10361000654BDA7B5AB1644C23794BB96348FEF7AA
:10362000C1FF6348FEF7BEFF0123237100E01A715A
:103630005C4B9A785C4B42B15A793AB901325A7173
:103640005C4B9A695C4B1A6000E05A71554B5A7A90
:10365000554B42B15A7A3AB901325A72554B9A696E
:10366000564B1A6000E05A724E4B5B7B1BB1514BBC
:103670009A69524B1A600025514B524CE85EFDF797
:1036800003FB44F815000235082DF5D1444B5E8F3D
:103690003046FDF7F9FA054629462068FDF73EFA5F
:1036A000294620606068FDF739FA29466060A06805
:1036B000FDF734FAA060A6F5BA600C38FDF7E4FA1D
:1036C0000146E068FDF72AFA0025E0602C46DFF8A5
:1036D000FCA03D4B1AF80420B7F846B01A555846DE
:1036E000FDF7D2FADFF8DC90804659F805604146D4
:1036F0003046FDF7C5FC78B1CBF10000FDF7C4FA08
:1037000001463046FDF7C6FC30B1002349F80530CC
:1037100001230AF8043014E02C4B00221A553046DD
:103720000021FDF7C1FCDFF89CA020B130464146E6
:10373000FDF7F4F903E030464146FDF7F1F94AF8A8
:103740000500013404350237032CC0D11D4BDC6861
:103750001F4B20461968FDF7E1F91E4920F0004093
:10376000FDF7A2FC10B1104B00229A710D4B5A7854
:103770000D4B8AB19A7982B901329A71144B1C604F
:103780000C4BD86DFDF780FA134B1860134801B04D
:10379000BDE8F04FFEF706BF9A7101B0BDE8F08FAB
:1037A000EC080020C4080020B408002038080020DD
:1037B00050080020BC0D0020AC080020E8080020C4
:1037C000D808002080000020900000207C0000200D
:1037D000B00800200000A041D4080020800800208C
:1037E000034B5B6818420CBF00200120704700BFEC
:1037F000EC080020024B5A6840EA02025A60704707
:10380000EC080020024B5A6822EA00025A60704716
:10381000EC080020014B00225A607047EC080020A1
:10382000014B5868704700BFEC080020024803496C
:103830004FF4BA7207F0DEBFEC08002000FC01086C
:1038400010B504F0A9FD342004F0BAFD0B4804F0D3
:103850000FFE04280CD1094C094B2046E15804F016
:10386000DDFD042800D0FEE7064B04349C42F3D172
:1038700004F09EFDBDE81040FFF7D8BF00FC010832
:10388000EC0CFE1774FD010870B50646002409E033
:10389000064D284607F0C4FF18B1054A83185D1B82
:1038A000AC730134315D0029F2D170BD78CB0008D2
:1038B000EC08002070B5984B1B7810B9052B00F070
:1038C0002A81964C05232370023B84F83630FFF79B
:1038D000A1FF0220FFF78EFF0120FFF78BFF90482A
:1038E000FFF7D2FF4FF4C8704FF0320244F6206366
:1038F000E0824FF49660638122832281A08104F1EB
:103900001C030025658302349C422E46F9D1834B6B
:103910004FF47A721A8740F2DC504FF4FA625887FB
:103920009A8740F24C4040F26C72D887A3F840204E
:1039300040F27E4040F23A72A3F84200A3F84420DD
:103940004FF00C004FF47A72A3F84600A3F8480039
:10395000A3F84A00A3F8642040F2DC504FF4FA6266
:10396000A3F86600A3F868204FF47A7040F2DC52A6
:10397000A3F86A00A3F86C204FF4FA604FF47A724F
:10398000A3F86E00A3F8722040F2DC504FF4FA6204
:10399000A3F87400A3F876204FF47A7040F2DC525A
:1039A000A3F87A00A3F87C204FF4FA604FF47A72FF
:1039B000A3F87E00A3F8842040F2DC504FF4FA62B2
:1039C00001214FF07E5CA3F88600A3F888204FF415
:1039D0007A704FF0FF3283F8902083F8922083F8BA
:1039E000701083F87810C3F880C0C3F88CC083F8D7
:1039F000911083F89310A3F89400A3F89800494815
:103A0000494CC3F89C00C3F8A800C3F8AC00C3F845
:103A1000B800C3F8C8004FF07C50C3F8D800C3F812
:103A2000E800C3F8F80041484FF4FA62C3F8FC001C
:103A30003F48C3F8BC40C3F800013E484FF0804403
:103A4000C3F804013C48A3F89620C3F808013B489A
:103A5000A3F89A20C3F8CC400022C3F8DC404FF012
:103A60007F54C3F8A020C3F8A420C3F8B020C3F843
:103A7000B420C3F8C020C3F8C420C3F8D020C3F8D2
:103A8000D420C3F8E020C3F8E420C3F8F020C3F842
:103A9000F420C3F81001C3F8EC4083F80C1183F84C
:103AA0001451C3F81821C3F81C21C3F82021C3F80E
:103AB0002821C3F82C21C3F83021C3F83421C3F8DE
:103AC0003821C3F83C21C3F84421C3F84821C3F886
:103AD0004C211B4A4FF02A00C3F85821194AA3F879
:103AE0002401C3F85C21184A83F84051C3F86421CB
:103AF000164A83F85051C3F86821154AC3F854C1D7
:103B0000C3F86C21134A83F86011C3F87021BDE833
:103B10007040FFF795BE70BD00FC0108EC08002066
:103B200080CB00080000C842000048430000A041CC
:103B3000000088410000E0400060EA466666663F9B
:103B4000CDCC4C3D0AE89C41A47029410000304195
:103B50003333534066668640F8B504460E46104639
:103B60004FF07E511546FDF777FA20BB3046FCF743
:103B70004BFC064628460F46FCF746FC02460B4621
:103B800000200E49FCF7E0FA02460B463046394663
:103B9000FCF78EFC06460F4620462946FDF7C8F87E
:103BA000FCF732FC02460B4630463946FCF7CEFAAB
:103BB000FCF760FF04462046F8BD00BF0000F03F60
:103BC00028B1026811700268013202607047C8B201
:103BD00002F078B82DE9F845161E04460D460FDDB3
:103BE000002200E00132A95C0029FBD1B242ACBF47
:103BF0000E46B61A13F0020F02D04FF0300A01E061
:103C00004FF0200A13F0010809D04FF0000808E037
:103C100020465146FFF7D4FF08F10108013E002E6F
:103C2000F6DC474603E02046FFF7CAFF0137C8EB42
:103C30000503D95D0029F6D105E020465146FFF77E
:103C4000BFFF0137013E002EF7DC3846BDE8F8859E
:103C50002DE9FF410A9F05460B9EDDF830E08C46BA
:103C600051B930238DF804308DF805103A4601A97A
:103C70003346FFF7AFFF39E03BB10A2A05D10029EF
:103C800003DAC1F1000C012400E0002404AB0021A0
:103C900003F8011D0DE0BCFBF2F102FB11C1092983
:103CA000C4BFAEF13A000918303103F8011DBCFB66
:103CB000F2FC9846BCF1000FEDD184B14FB116F083
:103CC000020F06D028462D21FFF77AFF013F01247D
:103CD00005E02D2203F1FF3803F8012C00242846CB
:103CE00041463A463346FFF775FF001904B0BDE878
:103CF000F08100002DE9F04F81468FB00E4614464A
:103D00004FF0060B0025A5E0252B40F09D8016F80E
:103D1000013F002B00F0A280252B00F095802D2B79
:103D200002D04FF0000A06E001364FF0010A02E02F
:103D300001364AF0020A3378302BF9D04FF00008F0
:103D400042460AE02AB10A2303FB0B1B0BF0FF0BD0
:103D500008E00A2303FB0808013633782E2B03D131
:103D60004FF0000B0122F7E7A3F13000C1B209299F
:103D7000E8D9732B07D154F8041B3E4B4846002961
:103D800008BF19465AE0642B0BD1033B0293CDF8D0
:103D90000080CDF804A0271D484621680A22603B18
:103DA0000CE0782B0FD1173BCDF80080CDF804A0A4
:103DB00002932168271D48461022613BFFF748FF08
:103DC0002D183C4645E0582B0BD1173B0293CDF8FC
:103DD0000080CDF804A0271D484621681022413BF1
:103DE000ECE7752B0AD1143BCDF80080CDF804A088
:103DF0000293271D484621680A22DEE7632B0DD176
:103E0000236848468DF8343000238DF835300DA9ED
:103E100042465346271DFFF7DDFED1E7662B18D13A
:103E2000073424F0070305AFD3E9000103F10804C8
:103E30003A465B4600F084FC4846394642465346C3
:103E4000FFF7C8FE2D1804E048463178FFF7B8FEAA
:103E5000013501363378002B7FF456AFB9F1000FEE
:103E600003D0D9F8003000221A7028460FB0BDE800
:103E7000F08F00BF89CB00080EB40FB505AA52F829
:103E8000041B019001A80392FFF734FF04B05DF812
:103E900004EB03B070470FB407B504AA52F8041B33
:103EA00000200192FFF726FFBDE80E4004B07047E6
:103EB000034B04491A78885C01321A70704700BFBE
:103EC000430300204C03002010B5FFF7F1FF044628
:103ED000FFF7EEFF04EB002080B210BD10B5FFF736
:103EE000F3FF0446FFF7F0FF04EB004010BD0000B5
:103EF00010B5044601F0E6FE024B1A7854401C70DF
:103F000010BD00BF4203002038B50546002401E083
:103F1000FFF7EEFF285D01340028F9D138BD00001D
:103F2000014B1878FFF7E4BF4203002070B5044648
:103F300024200D46FFF7DCFF4D20FFF7D9FF002CB2
:103F400014BF21203E20FFF7D3FF064B00221A703A
:103F50002846FFF7CDFF044B1878BDE87040FFF707
:103F6000C7BF00BF420300204803002001460120D4
:103F7000FFF7DCBF01460020FFF7D8BF70B50B4D3F
:103F80000B4C0646C0B2287001F09CFE2A782378BC
:103F9000B6B282EA0303300A2370287001F092FE61
:103FA00023782A7882EA0303237070BD410300203E
:103FB0004203002070B5154D154C0646C0B228705E
:103FC00001F080FE2A782378300A82EA0303C0B227
:103FD0002370287001F076FE2A782378300C82EA6C
:103FE0000303C0B22370287001F06CFE2A78237896
:103FF000300E82EA03032370287001F063FE2378F9
:104000002A7882EA0303237070BD00BF49030020B1
:104010004203002070B5A64B1B78002B00F05483A0
:10402000BDE87040FFF704B801F006FEA14B1A7816
:10403000A2B9242814BF002201221A70002A40F0DD
:104040004383232803D0522840F03E8302E0FEF74A
:10405000EFFF39E3012001F0EDFC35E3012A04D143
:104060004D280CBF0220002005E0022A05D13C2883
:104070000CBF03200020187026E3032A11D140282A
:1040800001D9033A1FE38C4A8C49107000220A7050
:104090008B490A708B4A107004221A70033A8A4BBB
:1040A00011E3042A07D1894A1070864A11784840E2
:1040B0001070052207E3052A40F006837F497E4BF6
:1040C0000A781B7893427F4B0AD993F800C080EAA4
:1040D0000C0C83F800C07E4B985401320A70F3E256
:1040E0001B78834240F0ED82784B1B78722B00F0F6
:1040F000B98223D86A2B5DD010D8662B00F0578187
:1041000006D8642B00F00381652B40F0D5820FE1C7
:10411000682B00F0A08100F2AA8190E16E2B00F0E4
:10412000E38105D86C2B00F0AE8100F2D78141E02D
:10413000702B00F0018200F27B823BE0CB2B00F081
:10414000CF8010D8762B00F09F8205D8742B00F01A
:104150007D8200F280828CE2C92B1FD02ED8C82B22
:1041600040F0AA8211E0CF2B24D005D8CD2B00F04F
:10417000988200F29B82BDE0FA2B00F09A82FE2B1F
:1041800018D0D02B40F0988281E20024FFF79CFEEB
:10419000504BE0520234102CF8D10BE0FFF788FEB0
:1041A000FFF786FEFFF79AFEFFF798FEFFF78CFEFB
:1041B000FFF78AFE0020FFF7DDFE80E2464C04F1A7
:1041C0003005FFF775FEFCF75BFDC4F89C00FFF7B8
:1041D0006FFEFCF759FD4149FCF75EFEC4F8A000F4
:1041E000FFF766FEFCF74CFDC4F8A4001034AC42A7
:1041F000E7D1FFF75DFEFCF743FD374CC4F8FC0048
:10420000FFF756FEFCF740FD3449FCF745FEC4F8C5
:104210000001FFF74DFEFCF733FDC4F80401002454
:104220000134FFF745FEFFF743FEFFF741FE032C85
:10423000F6D1FFF73DFEFCF723FD274CC4F8CC0078
:10424000FFF736FEFCF720FD2449FCF725FEC4F8F5
:10425000D000FFF72DFEFCF713FDD4F8CC30C4F8E6
:10426000D400C4F8DC30D4F8D030C4F8E400C4F88A
:10427000E030FFF71DFEFCF703FDC4F8EC00FFF78C
:1042800017FEFCF701FD1549FCF706FEC4F8F00027
:10429000FFF70EFEFCF7F4FCC4F8F4000024013430
:1042A000FFF706FE032CFAD1FEF756F982E700BFAE
:1042B000A8080020450300204703002046030020F3
:1042C0004303002042030020440300204803002051
:1042D0004C030020D8080020EC08002000007A449D
:1042E000884C04F11C05FFF7EFFD60830234AC42FB
:1042F000F9D15FE7FFF7DCFDFFF7DAFDFFF7D8FD47
:10430000FFF7D6FDFFF7D4FDFFF7D2FDBCE1072094
:10431000FFF730FED220FFF7EBFD7A4B93F8360023
:10432000FFF7E6FD0020FFF7E3FD4FF000403BE024
:104330000A20FFF71FFE744BB3F90000FFF71EFEC3
:1043400000F074FC00B2FFF719FE704BB3F90000E7
:10435000FFF714FE6E4B59799A79890041EA4201C0
:104360001A7911435A7841EA42116A4AD07841EAEF
:10437000C001107941EA0011D87941EA8011187A18
:1043800041EAC011587A9B7A41EA402141EA03236D
:10439000917A507B43EA8123D17A43EAC123117B8E
:1043A00043EA013343EA4030FFF704FE87E15A4C09
:1043B0001220FFF7DFFD59492068FCF7B9FCFCF734
:1043C0007DFE00B2FFF7DAFD54496068FCF7B0FCEF
:1043D000FCF774FE00B2FFF7D1FD5049A068FCF76E
:1043E000A7FCFCF76BFE00B2FFF7C8FD4C49E06983
:1043F000FCF79EFCFCF762FE00B2FFF7BFFD4849E8
:10440000206AFCF795FCFCF759FE00B2FFF7B6FDF9
:104410004349606AFCF78CFCFCF750FE00B2FFF7E2
:10442000ADFDA06CFCF74AFE00B2FFF7A7FDE06C03
:10443000FCF744FE00B2FFF7A1FD206D4AE010201A
:10444000FFF798FD0024374BE05E0234FFF796FD3E
:10445000102CF8D133E11020FFF78CFD0024324BF3
:10446000E05E0234FFF78AFD102CF8D127E110201E
:10447000FFF780FD00242D4BE05E0234FFF77EFD48
:10448000102CF8D11BE1244C0820FFF773FD2069A4
:104490002749FCF74DFC2149FCF74AFCFCF70EFECE
:1044A00000B2FFF76BFD60692149FCF741FC1B4935
:1044B000FCF73EFCFCF702FE00B2FFF75FFD1C4973
:1044C000A069FCF735FCFCF7F9FD00B2FFF756FDDB
:1044D000184B1868FCF7F2FD00B2C7E00420FFF7A4
:1044E00049FD0D4BD86D5FE70320FFF743FD0A4BF5
:1044F0000A49186EFCF71CFCFCF706FEC0B2FFF779
:10450000F7FCB2E0EC080020D4070020860700206A
:10451000B4080020C4080020BC0D00200000204189
:104520000000C84200000020D8070020D808002062
:10453000E02E6542E80800201E20FFF71BFD654CB9
:1045400004F1480554F8080CFCF7DEFDC0B2FFF793
:10455000CFFC614954F8040CFCF7EAFBFCF7D4FDEE
:10456000C0B2FFF7C5FC54F8180BFCF7CDFDC0B284
:10457000FFF7BEFCAC42E5D1584CD4F89000FCF7F4
:10458000C3FDC0B2FFF7B4FC5349D4F89400FCF764
:10459000CFFBFCF7B9FDC0B2FFF7AAFCD4F8980036
:1045A000FCF7B2FDC0B2FFF7A3FC00240020FFF728
:1045B0009FFC0020FFF79CFC01340020FFF798FCD3
:1045C000032CF3D1454CA06CFCF79EFDC0B2FFF765
:1045D0008FFC4149E06CFCF7ABFBFCF795FDC0B2EA
:1045E000FFF786FC206DFCF78FFDC0B2FFF780FC63
:1045F000A06FFCF789FDC0B2FFF77AFC3649E06F87
:10460000FCF796FBFCF780FDC0B2FFF771FCD4F815
:104610008000FCF779FDC0B2FFF76AFC0020FFF7CD
:1046200067FC0020FFF764FC0020FFF761FC46E018
:104630001C20FFF79FFC2A4C04F11C05B4F91A005A
:104640000234FFF79BFCAC42F8D138E06D20FFF755
:1046500091FC244803E02F20FFF78CFC2248FFF751
:1046600053FC2CE00220FFF785FC0020FFF786FCBE
:1046700025E00820FFF77EFC0124E0B20134FFF7BB
:1046800037FC092CF9D11AE0FFF712FC92E5002063
:10469000FFF770FC0120FFF70DF9002001F0CAF9C7
:1046A0000DE002F02DF902F0AFFA83E503F042F8D5
:1046B00080E5FFF7C5F87DE50020FFF757FCFFF721
:1046C0002FFC0A4B00221A7001F01EFB00287FF419
:1046D000ABAC70BDF807002000007A44F007002062
:1046E000EC08002090CB000800CC00084503002017
:1046F00038B50546B5FBF2F30846144613B1184623
:10470000FFF7F6FFB5FBF4F304FB1354024B1B5DFC
:1047100000F8013B38BD00BF30CC0008931E222BAF
:1047200088BF0A22031E10B50C4603DA2D2001F8BB
:10473000010B5842FFF7DCFF00230370204610BD39
:104740002DE9FF4D514C1F46002A18BF1446002387
:10475000002206460D46FCF71DF920B12D2304F872
:10476000013B05F10045072F19D8002200233046F0
:104770002946FCF72DF9464BFA0038B1D3183046DC
:104780002946D3E90023FBF7E1FC06E0D3183046C5
:104790002946D3E90023FBF7D7FC06460D46002344
:1047A0004FF0010803E00A2202FB08F80133BB4284
:1047B000F9D330462946FCF73DF9002302460CE0C8
:1047C0004FF00A0CB2FBFCF10CFB11220DF1040AB4
:1047D00030320AF8032001330A46002AF0D11BB90F
:1047E000303304F8013B0BE00DF1040C0CEB03013A
:1047F00011F801AD04F802A001326145F8D1E418C6
:10480000002F3ED0FBF7DEFD02460B463046294620
:10481000FBF79AFC824640468B46FBF7D3FD0246E7
:104820000B4650465946FBF743FEFCF703F92E238F
:10483000224602F8013B2E3B08E00A25B0FBF5FCBE
:1048400005FB1C003030C8540133604601A9002824
:10485000F3D1C91803E0302001F8010C0133013114
:10486000BB42F8D323B91446303304F8013B08E0C7
:1048700001A8C11811F801CD814204F801CFF9D186
:10488000D4180020207004B0BDE8F08D8C03002007
:1048900058CC000810B50B490446FCF7FBFB20B1CF
:1048A00020460949FCF73AF908E020460749FCF799
:1048B000DDFB20B120460449FCF732F904462046CE
:1048C00010BD00BFDB0F4940DB0FC940DB0F49C003
:1048D0002DE9F84F044600E001342378202BFBD06B
:1048E000092BF9D02D2B05D101344FF0000ADFF848
:1048F00070B106E02B2BDFF864B108BF01344FF034
:10490000000A0026002713E00022534B30463946A8
:10491000FBF7CEFD064628460F46FBF763FD024631
:104920000B4630463946FBF711FC013406460F466C
:104930002378A3F13005EAB2092AE5D92E2B21D13B
:1049400001344FF00008DFF8109116E0FBF74AFD44
:1049500042464B46FBF7D6FE02460B4630463946EA
:10496000FBF7F4FB002206460F46404649463A4B09
:10497000FBF79EFD01348046894620783038C3B26B
:10498000092BE3D92378652B01D0452B4CD16278D4
:10499000631C2D2A02D10133012503E02B2A08BF15
:1049A000013300250022144602E00A2000FB041413
:1049B000995C01323039C8B20928F6D9B4F59A7F2A
:1049C00028BF4FF49A740022244B09E01046194680
:1049D0001DA3D3E90023FBF76BFD323C02460B46D7
:1049E000312CF3D8A04609E01046194618A3D3E9A4
:1049F0000023FBF75DFD083C02460B46072CF3D86D
:104A000008F0070408E0104619460022124BFBF795
:104A10004FFD013C02460B46002CF4D135B1304627
:104A20003946FBF76FFE05E00C4B00223046394655
:104A3000FBF73EFD02460B4650465946FBF738FD54
:104A4000FCF718F8BDE8F88F9A647EC50E1B514A32
:104A50000000000084D79741000024400000F03F90
:104A60000000F0BFAFF300802DE9F74F0568064660
:104A7000884628462946FCF75BF974688346214638
:104A80002046FCF755F9B768814639463846FCF7A9
:104A90004FF9F668824631463046FCF749F931460F
:104AA00001902046FCF744F9394603462846009316
:104AB000FCF73EF9009B01461846FCF72FF801462B
:104AC000FCF72EF804F048FD3946C8F804002046EB
:104AD000FCF72EF93146034628460093FCF728F9E7
:104AE000009B01461846FCF71BF80146FCF718F836
:104AF0004946034658460093FCF712F85146FCF726
:104B00000DF80199FCF70AF8009B0146184604F0DD
:104B10006FFD3146C8F808003846FCF709F9214610
:104B200006462846FCF704F901463046FBF7F8FF35
:104B30000146FBF7F5FF494604465846FBF7EEFFF2
:104B40005146FBF7EBFF0199FBF7EAFF01462046D0
:104B500004F04EFDC8F80000BDE8FE8F014B188838
:104B600080B27047AC03002030B52A4891B003F002
:104B700007FB294B00250093284B012401934FF498
:104B8000807306934FF48063079320230893214892
:104B90004FF40053694609930295039404950595D3
:104BA0000A9503F05FFB1B48214603F07BFB4FF4A3
:104BB00060231B480BA90D930B958DF830508DF891
:104BC00031400E958DF83C4003F036FA224603231F
:104BD0001348042103F088FA1148214603F05CFAD7
:104BE0000F48214603F04EFA0D4803F05FFA0C48D7
:104BF00003F061FA0028FAD1094803F061FA084885
:104C000003F063FA0028FAD10548012103F062FAA3
:104C100011B030BD080002404C240140AC0300201C
:104C200000240140BFF35F8F70470000014B1888DC
:104C300080B27047AE030020F0B54FF4406389B0F6
:104C4000ADF8143002238DF8163012330DEB03014A
:104C500005464A488DF8173003F02AFC47484FF4C0
:104C6000406103F07DFC002402E0032000F0CCFE54
:104C700042484FF4806103F06DFC0028F5D04FF4FA
:104C800080613E4803F06EFC032000F0BDFE01345D
:104C90003A484FF4806103F063FCE4B2032000F073
:104CA000B3FE082CE4D14FF40061344803F05AFC01
:104CB000032000F0A9FE4FF48061304803F052FC5D
:104CC000032000F0A1FE4FF480612C4803F048FC63
:104CD000032000F099FE4FF40061284803F040FCE7
:104CE000032000F091FE4FF44063254CADF81830DE
:104CF000022306A98DF81A3020481A338DF81B308C
:104D000003F0D6FB2560284601AD03F04BFD284695
:104D100003F07AFC002220684FF4407103F0B6FCE7
:104D20004BF6FF73ADF80A304FF48043ADF8103006
:104D3000144B0026206829460193ADF8086003F063
:104D4000BDFC2068012103F06DFC07AC22238DF827
:104D50001C30204601238DF81F308DF81D608DF822
:104D60001E6003F037F92123204637468DF81C30AA
:104D70008DF81D6003F02EF909B0F0BD000C014064
:104D8000C4030020801A060010B54000224CC0B2B7
:104D900020702248224C017022480021017001201D
:104DA0002070214C2360214C2360214B1A70214B31
:104DB0001870214B1970214B1868838813F4007FF9
:104DC00011D1038813F4807F06D1038813F4007F88
:104DD000FBD1012103F033FC184B4FF440711868EC
:104DE000012203F053FC47F23053124A127812B1F9
:104DF000013BFAD100E053B9114B1A88013292B24B
:104E00001A800E4B1868FFF717FF002010BD0A4BE1
:104E1000187880F0010010BDCA030020B103002003
:104E2000C0030020B0030020B4030020BC03002016
:104E3000B2030020C9030020B9030020C4030020EE
:104E4000AE03002030B540002A4CC0B220702A4882
:104E50002A4C01702A480121017000202070294C41
:104E6000294D2270294C85B02170C5F800D0284901
:104E7000284D102AC5F800D0087005D937E013F87E
:104E800000C00DF800C00130C1B29142F7D3224BEF
:104E90001868838813F4007F11D1038813F4807F8E
:104EA00006D1038813F4007FFBD1012103F0C7FB77
:104EB000194B4FF440711868012203F0E7FB47F2E9
:104EC0003053124A127812B1013BFAD100E053B9C3
:104ED000124B1A88013292B21A800F4B1868FFF7F2
:104EE000ABFE002003E00A4B187880F0010005B00B
:104EF00030BD00BFCA030020B1030020C003002062
:104F0000B0030020B2030020BC030020C90300202E
:104F1000B9030020B4030020C4030020AE03002026
:104F200007B502AB03F8012D0122FFF78BFF0EBD81
:104F3000254B37B51868838A9BB20193019B13F404
:104F4000706F02D0214B01221A70019B13F4E06FA5
:104F50002ED0038B00229BB24FF48061009303F0AC
:104F600095FB019B13F4007F22D1174C2068038826
:104F700013F4007F1CD1058815F480750FD00388C9
:104F800013F4807FFBD1012103F066FB0E4B186800
:104F9000038813F4007FFBD1FFF74EFE08E00121E8
:104FA00003F05AFB20684FF440712A4603F06EFB71
:104FB000054B1A68938A23F470631B041B0C9382BD
:104FC000034B00221A703EBDC4030020B903002029
:104FD000C9030020FFF7ACBFFFF7AABF2DE9F04FD0
:104FE000954C85B02068828AD2B212F001063BD07F
:104FF0000388012123F400631B041B0C038003F0CE
:1050000038FB8E4B00221A708D4B1B78E3B18D4B11
:105010001B781BB98C4B1B78FF2B15D1894B0122B8
:105020001A708A4B1B78022B06D1834B1B681A8897
:1050300092B242F400621A80854B012219787E4BAD
:10504000186803F033FB38E1814B002219787A4B62
:10505000186803F02BFB7C4B1B78FF2B00F02D8195
:105060004FF0FF32754BE5E012F0020347D001909C
:10507000FFF7D8FD754B01981D78012D19D1704BA4
:105080001B78B3B16F4B1B789BB1314603F0F1FA3B
:10509000FFF7C8FD20682946038BDBB28DF80F307F
:1050A00003F0DAFA6B4B20681D704FF480612A46DA
:1050B00001E1038B0190DBB28DF80F30FFF7B2FDF9
:1050C000624B01981B78022B09D15D4B1B7833B1E1
:1050D0005C4B1B781BB1002103F0CBFAE6E05B4B85
:1050E0001B78032B07D1564B1B7823B1554B1B78EC
:1050F000002B40F0DD804FF480610122DBE012F0F4
:10510000040572D04E4ADFF84C811278012688F8E7
:105110000060002A4FD04B4A1278002A4BD04B4AED
:10512000464D12784C4F022A2AD9194603F0A1FAAB
:10513000206895F800A0D7F8009003F0B4FA4FFA71
:105140008AFB0BF80900B244314685F800A02068BC
:1051500003F082FA88F80060206895F800803F68C4
:1051600003F0A1FA4FFA88FA0AF80700B04485F86C
:10517000008020684FF48061324603F087FA2DE00A
:10518000314603F069FA2068D7F800802E7803F0E2
:105190008AFA4FFA86FA01360AF80800F6B22E703B
:1051A00020683F6803F07FFA4FFA86F8023608F865
:1051B00007002E7012E0234C237813B9274B1B787D
:1051C0003BB1012103F048FA1C4B1A7801321A70E6
:1051D00004E0012103F033FA01232370164B1B680E
:1051E0001A8812F4807FFBD167E012F0400637D0B6
:1051F000194B124ED3F80080377803F054FA4FFA67
:1052000087FA124B01370AF80800FFB237701B7893
:105210007FB20337BB4205D120684FF480612A4634
:1052200003F034FA094B1878044B1A7851B28842CB
:1052300043D101321A7040E0C4030020C8030020AB
:10524000C0030020B3030020B1030020B2030020FC
:10525000CA030020B8030020B4030020B0030020DC
:1052600012F0800F29D0224D2B785AB2B2F1FF3FB5
:1052700011D0204901330968515C2B7003F011FAF9
:105280001D4B1A7895F900309A4216D120684FF4D8
:10529000806132460FE0194B2E70197803F001FA45
:1052A000174B1B7813B9144B1B7833B9154B18687F
:1052B0004FF48061002203F0E9F90F4B0C4A1B7890
:1052C00092F9002001339A420ED10F4B00221A703E
:1052D0000E4B1B782BB10B4B4FF44071186803F049
:1052E000D5F90B4B00221A7005B0BDE8F08F00BF56
:1052F000C8030020BC030020B2030020B10300203B
:10530000C0030020C4030020B3030020B803002022
:10531000C9030020FFF762BEFFF760BE134A1448BE
:1053200013881180C91A038089B240F68C239942F0
:1053300003D9104B00221A707047A1F53A73073B4E
:105340009BB240F2DA52934206D80A4B1B78072BE5
:105350009CBF094A22F81310064B1A7801321A70C2
:10536000064B4FF000021A80704700BFF80400207F
:105370001C050020CB030020CC030020600A002085
:10538000044B1B78834204D9034B53F820305B68ED
:1053900019807047F504002020050020044B1B787D
:1053A000834204D9034B53F820305B68198070475F
:1053B000F6040020FC040020014B33F81000704775
:1053C000CC0300207FB501AD044628460E4603F00D
:1053D00017FC4FF04703013EADF804302046002390
:1053E0002946ADF80860ADF80A30ADF8063003F094
:1053F00083FA7FBD73B50D460446164601A803F037
:10540000A1F8ADF804500EB1282300E018238DF860
:1054100007302046022301A98DF8063003F048F832
:105420007CBDF0B585B001AE044630460D4617464A
:1054300003F0F9FB4FF00103ADF8083020460023DC
:105440003146ADF80450ADF80670ADF80A30ADF84D
:105450000C3003F015FD05B0F0BD0000194B14220F
:1054600070B502FB003303F10802D4784FEA001C48
:10547000154D400064B90123D37005EBC003918042
:105480005CF80500197B0222BDE87040FFF7C9BF38
:10549000B2F804E0D180CEEB010189B2198292F812
:1054A00002E00A4B002423F81E1005EBC003D47061
:1054B000197B5CF805002246FFF7B3FF044B1C8004
:1054C00070BD00BFDC030020B4CC0008CC0300207A
:1054D000600A00202DE9F04F2D4D1346020154596A
:1054E00006464FF01408760085B002EB050908FB6C
:1054F00000F801368B4620464FF6FF710193FFF707
:1055000061FF55F83610D9F80400012205EBC605F5
:10551000FFF770FF2E79002220463146FFF781FF0A
:105520002046012103F088FB6A79DFF868A08DF836
:105530000C2000228DF80D2003A801328DF80E20DA
:105540008DF80F2002F046FD019B0AEB08074AF890
:1055500008B0BB720C2E16D8DFE806F0071515153B
:105560000A1515150D15151510002046022107E026
:105570002046042104E02046082101E020461021B5
:10558000012203F076FB384605B0BDE8F08F00BF7E
:10559000B4CC0008DC03002070B50D46022104469F
:1055A00003F0D7FB012820460BD1022103F0DCFBDE
:1055B0006BB214225A43254B2046D65803F0BCFB4D
:1055C00027E0042103F0C5FB01280ED10135204658
:1055D000EDB2042103F0C8FB6BB214225A431B4BFB
:1055E0002046D65803F0ABFB13E00821204603F019
:1055F000B0FB012811D102352046EDB2082103F09D
:10560000B3FB6BB214225A43104B2046D65803F01A
:1056100099FB01462846B04770BD1021204603F093
:1056200098FB012810D103351021EDB2204603F07C
:105630009BFB6BB214225A43044B2046D65803F00E
:1056400084FB01462846B04770BD00BFDC03002044
:1056500001480A21FFF7A0BF0008004001480421CB
:10566000FFF79ABF000400404FF080400021FFF791
:1056700093BF0000022110B5124803F06AFB012815
:1056800010480CD1022103F06FFB0F4B0D48D3F8EB
:10569000A04003F051FB01460820A04710BD102197
:1056A00003F057FB01280CD11021064803F05CFBE6
:1056B000054B0448D3F8B44003F047FB01460920EA
:1056C000A04710BD002C0140DC0300202DE9F0456F
:1056D000444B454F142505FB00350301DC590646B4
:1056E0004FEA460885B003EB070A204608F1010897
:1056F000FFF768FE57F83810DAF804000022FFF7C9
:1057000079FE07EBC80768463F7903F082FA4FF04D
:105710007003ADF800304FF00103ADF802304FF0E8
:105720000003ADF804304FF47A73ADF806304FF053
:105730000203ADF808304FF48073ADF80C300C2F35
:105740002BD8DFE807F0072A2A2A102A2A2A192A42
:105750002A2A22002046694603F024F9204608211F
:1057600003F092FA19E02046694603F073F92046E7
:10577000082103F092FA10E02046694603F0B6F9DA
:105780002046082103F093FA07E02046694603F01B
:10579000F7F92046082103F093FA134B03EB0616A2
:1057A000B37B1BB12046012103F053FA20460121AF
:1057B00003F042FA0C2F10D8DFE807F0070F0F0FA5
:1057C000090F0F0F0B0F0F0F0D00343404E03834A6
:1057D00002E03C3400E040346C60284605B0BDE88F
:1057E000F08500BFDC030020B4CC000803794278C8
:1057F0002DE9F041002B14BF02230023044602B11F
:105800000133304A002552F82370785DFF2856D0C6
:1058100010F0300F00F0F00303D02278002A08BF08
:105820000023A27800F00F002AB1A0F10802D2B242
:10583000012A98BF8023E27822B1021FD2B2032A44
:1058400098BF802313F0100F07D000221E49FFF7E6
:1058500041FE1E4B08221A702EE013F0200F08D0D4
:105860001A4E1B493278FFF735FE33780133337017
:1058700022E013F0400F0BD0E3881649164E91FB3F
:10588000F3F189B296F80080FFF720FF134B0DE08B
:1058900013F0800F10D023890E49114E91FBF3F1C4
:1058A00089B296F80080FFF711FF0E4B43F82800ED
:1058B00008F1010886F8008001350E2DA5D10020E1
:1058C000BDE8F08194CD00081D530008F4040020C9
:1058D0005D54000840420F00F50400202005002020
:1058E000F6040020FC040020044B1A6801321A6000
:1058F000034B1A68034B1A60704700BF5005002025
:10590000041000E01807002072B6084B084A186817
:10591000084B1B68126862B60749C31A09684FF43E
:105920007A70B3FBF1F300FB02307047041000E023
:1059300050050020180700201407002070B5002330
:1059400004460E46054D5D19EA681033002AF9D168
:10595000FFF7DAFF28606E60EC6070BD140600206F
:1059600070B5002304460E46054D5D19AA680C3338
:10597000002AF9D1FFF7C8FF28606E60AC6070BDE7
:10598000540500202DE9F04100250C276F43194EE6
:10599000BC19A36853B1FFF7B7FFBA596368821AFD
:1059A0009A4203D9A36898470023A360124C6F0062
:1059B000013704EBC708D8F80430ABB1FFF7A4FFF8
:1059C0002E01331932595B68821A9A420CD9D8F8E1
:1059D0000430984756F80480FFF796FF305133594A
:1059E000C8EB030344F837300135102DCDD1BDE8A5
:1059F000F08100BF5405002014060020014B1868F8
:105A0000704700BF5005002038B50546FFF77CFF02
:105A10000446FFF779FF001BA842FAD338BD10B542
:105A2000044604E04FF47A70FFF7EEFF013C002CCF
:105A3000F8D110BD10B1034A034B1A60034A044B5E
:105A4000DA607047EFBEADDEF04F00200400FA05CB
:105A500000ED00E070B500246300084D013355F8F7
:105A6000331007480134FEF716FA0F2CF4D1D5F89D
:105A7000F8100448BDE87040FEF70DBA1406002087
:105A8000D0CD0008D5CD000870B5564B8AB00DF1C9
:105A9000140C0FCB8CE80F001D20012102F0FAFE40
:105AA0004FF40060012102F0F5FE0120014602F0F2
:105AB000FFFE0220012102F0FBFE0420012102F082
:105AC000F7FE4FF40070012102F0E4FE4FF4804035
:105AD000012102F0DFFE4FF48000012102F0E8FE18
