:020000040800F2
:1000000000500020C5130008691400086914000896
:100010006914000869140008691400080000000051
:10002000000000000000000000000000691400084B
:10003000691400080000000069140008B95900089C
:10004000691400086914000869140008691400089C
:10005000691400086914000869140008691400088C
:10006000691400086914000869140008691400087C
:100070006914000869140008295F00086914000861
:10008000691400086914000869140008691400085C
:10009000691400086914000869140008691400084C
:1000A000691400086914000869140008455700081D
:1000B000395700082D57000821570008E953000858
:1000C000A9500008E5530008A5500008691400086D
:1000D00069140008691400082D5D000869140008FF
:1000E0005577000869140008691400080000000032
:1000F0000000000000000000000000000000000000
:0C01000000000000000000005FF808F1A3
:1001100040F2C013C2F200031A780AB90120187025
:10012000704700BF40F2C010C2F2000008B503687B
:100130002BB140F20003C0F2000303B1984708BDA1
:1001400081F0004102E000BF83F0004330B54FEA88
:1001500041044FEA430594EA050F08BF90EA020FF5
:100160001FBF54EA000C55EA020C7FEA645C7FEA88
:10017000655C00F0E2804FEA5454D4EB5555B8BFAB
:100180006D420CDD2C4480EA020281EA030382EA1C
:10019000000083EA010180EA020281EA0303362DAE
:1001A00088BF30BD11F0004F4FEA01314FF4801C81
:1001B0004CEA113102D0404261EB410113F0004F93
:1001C0004FEA03334CEA133302D0524263EB43034A
:1001D00094EA050F00F0A780A4F10104D5F1200EE8
:1001E0000DDB02FA0EFC22FA05F2801841F1000143
:1001F00003FA0EF2801843FA05F359410EE0A5F117
:1002000020050EF1200E012A03FA0EFC28BF4CF047
:10021000020C43FA05F3C01851EBE37101F00045FD
:1002200007D54FF0000EDCF1000C7EEB00006EEB0A
:100230000101B1F5801F1BD3B1F5001F0CD3490894
:100240005FEA30004FEA3C0C04F101044FEA4452EB
:1002500012F5800F80F09A80BCF1004F08BF5FEA72
:10026000500C50F1000041EB045141EA050130BD52
:100270005FEA4C0C404141EB010111F4801FA4F1F5
:100280000104E9D191F0000F04BF01460020B1FA4A
:1002900081F308BF2033A3F10B03B3F120020CDA82
:1002A0000C3208DD02F1140CC2F10C0201FA0CF060
:1002B00021FA02F10CE002F11402D8BFC2F1200CC5
:1002C00001FA02F120FA0CFCDCBF41EA0C0190407B
:1002D000E41AA2BF01EB0451294330BD6FEA0404C4
:1002E0001F3C1CDA0C340EDC04F11404C4F12002AF
:1002F00020FA04F001FA02F340EA030021FA04F3C1
:1003000045EA030130BDC4F10C04C4F1200220FA17
:1003100002F001FA04F340EA0300294630BD21FA55
:1003200004F0294630BD94F0000F83F4801306BF1B
:1003300081F480110134013D4EE77FEA645C18BF0F
:100340007FEA655C29D094EA050F08BF90EA020FA6
:1003500005D054EA000C04BF1946104630BD91EA9E
:10036000030F1EBF0021002030BD5FEA545C05D1A1
:100370004000494128BF41F0004130BD14F58004E0
:100380003CBF01F5801130BD01F0004545F0FE4154
:1003900041F470014FF0000030BD7FEA645C1ABF89
:1003A000194610467FEA655C1CBF0B46024650EAC0
:1003B000013406BF52EA033591EA030F41F40021EC
:1003C00030BD00BF90F0000F04BF0021704730B572
:1003D0004FF4806404F132044FF000054FF0000147
:1003E00050E700BF90F0000F04BF0021704730B508
:1003F0004FF4806404F1320410F0004548BF4042DD
:100400004FF000013EE700BF42004FEAE2014FEA31
:1004100031014FEA02701FBF12F07F4393F07F4F0C
:1004200081F06051704792F0000F14BF93F07F4F3E
:10043000704730B54FF4607401F0004521F0004181
:1004400020E700BF50EA010208BF704730B54FF007
:1004500000050AE050EA010208BF704730B511F00C
:10046000004502D5404261EB41014FF4806404F144
:1004700032045FEA915C3FF4DCAE4FF003025FEAC6
:10048000DC0C18BF03325FEADC0C18BF033202EB4E
:10049000DC02C2F1200300FA03FC20FA02F001FAA8
:1004A00003FE40EA0E0021FA02F11444C1E600BF47
:1004B00070B54FF0FF0C4CF4E06C1CEA11541DBFFA
:1004C0001CEA135594EA0C0F95EA0C0F00F0DEF8C5
:1004D0002C4481EA030621EA4C5123EA4C5350EAAA
:1004E000013518BF52EA033541F4801143F48013FB
:1004F00038D0A0FB02CE4FF00005E1FB02E506F08C
:100500000042E0FB03E54FF00006E1FB03569CF0E0
:10051000000F18BF4EF0010EA4F1FF04B6F5007FE6
:1005200064F5407404D25FEA4E0E6D4146EB060658
:1005300042EAC62141EA55514FEAC52040EA5E50E1
:100540004FEACE2EB4F1FD0C88BFBCF5E06F1ED88B
:10055000BEF1004F08BF5FEA500E50F1000041EBC2
:10056000045170BD06F0004646EA010140EA02006F
:1005700081EA0301B4EB5C04C2BFD4EB0C0541EA91
:10058000045170BD41F480114FF0000E013C00F3A6
:10059000AB8014F1360FDEBF002001F0004170BDCA
:1005A000C4F10004203C35DA0C341BDC04F11404E3
:1005B000C4F1200500FA05F320FA04F001FA05F26F
:1005C00040EA020001F0004221F0004110EBD3703C
:1005D00021FA04F642EB06015EEA430E08BF20EA68
:1005E000D37070BDC4F10C04C4F1200500FA04F30B
:1005F00020FA05F001FA04F240EA020001F000419D
:1006000010EBD37041F100015EEA430E08BF20EA0F
:10061000D37070BDC4F1200500FA05F24EEA020E57
:1006200020FA04F301FA05F243EA020321FA04F086
:1006300001F0004121FA04F220EA020000EBD3703D
:100640005EEA430E08BF20EAD37070BD94F0000F3D
:100650000FD101F00046400041EB010111F4801F71
:1006600008BF013CF7D041EA060195F0000F18BF22
:10067000704703F00046520043EB030313F4801F5E
:1006800008BF013DF7D043EA0603704794EA0C0F18
:100690000CEA135518BF95EA0C0F0CD050EA41062E
:1006A00018BF52EA4306D1D181EA030101F00041AB
:1006B0004FF0000070BD50EA410606BF10461946D3
:1006C00052EA430619D094EA0C0F02D150EA0136DF
:1006D00013D195EA0C0F05D152EA03361CBF104620
:1006E00019460AD181EA030101F0004141F0FE41BF
:1006F00041F470014FF0000070BD41F0FE4141F443
:10070000780170BD70B54FF0FF0C4CF4E06C1CEA42
:1007100011541DBF1CEA135594EA0C0F95EA0C0FF7
:1007200000F0A7F8A4EB050481EA030E52EA0335B2
:100730004FEA013100F088804FEA03334FF08055D3
:1007400045EA131343EA12634FEA022245EA111500
:1007500045EA10654FEA00260EF000419D4208BFB1
:10076000964244F1FD0404F5407402D25B084FEA5E
:100770003202B61A65EB03055B084FEA32024FF40A
:1007800080104FF4002CB6EB020E75EB030E22BF67
:10079000B61A754640EA0C005B084FEA3202B6EB27
:1007A000020E75EB030E22BFB61A754640EA5C00D6
:1007B0005B084FEA3202B6EB020E75EB030E22BF66
:1007C000B61A754640EA9C005B084FEA3202B6EB67
:1007D000020E75EB030E22BFB61A754640EADC0026
:1007E00055EA060E18D04FEA051545EA16754FEA88
:1007F00006164FEAC30343EA52734FEAC2025FEAA6
:100800001C1CC0D111F4801F0BD141EA00014FF034
:1008100000004FF0004CB6E711F4801F04BF014305
:100820000020B4F1FD0C88BFBCF5E06F3FF6AFAE21
:10083000B5EB030C04BFB6EB020C5FEA500C50F1B1
:10084000000041EB045170BD0EF0004E4EEA113134
:1008500014EB5C04C2BFD4EB0C0541EA045170BD3B
:1008600041F480114FF0000E013C90E645EA060E7F
:100870008DE60CEA135594EA0C0F08BF95EA0C0FAD
:100880003FF43BAF94EA0C0F0AD150EA01347FF4F5
:1008900034AF95EA0C0F7FF425AF104619462CE7CC
:1008A00095EA0C0F06D152EA03353FF4FDAE10462F
:1008B000194622E750EA410618BF52EA43067FF480
:1008C000C5AE50EA41047FF40DAF52EA43057FF410
:1008D000EBAE12E74FF0FF3C06E000BF4FF0010C1B
:1008E00002E000BF4FF0010C4DF804CD4FEA410C7F
:1008F0007FEA6C5C4FEA430C18BF7FEA6C5C1BD04C
:1009000001B050EA410C0CBF52EA430C91EA030FCC
:1009100002BF90EA020F0020704710F1000F91EA29
:10092000030F58BF994208BF90422CBFD8176FEAF7
:10093000E37040F0010070474FEA410C7FEA6C5CC5
:1009400002D150EA013C07D14FEA430C7FEA6C5CCC
:10095000D6D152EA033CD3D05DF8040B704700BFF8
:100960008446104662468C461946634600E000BF46
:1009700001B5FFF7B7FF002848BF10F1000F01BD18
:100980004DF808EDFFF7F4FF0CBF012000205DF8E3
:1009900008FB00BF4DF808EDFFF7EAFF34BF012068
:1009A00000205DF808FB00BF4DF808EDFFF7E0FF01
:1009B00094BF012000205DF808FB00BF4DF808ED52
:1009C000FFF7CEFF94BF012000205DF808FB00BFB9
:1009D0004DF808EDFFF7C4FF34BF012000205DF89B
:1009E00008FB00BF4FEA410212F5001215D211D5E3
:1009F0006FF47873B3EB625212D94FEAC12343F01C
:100A0000004343EA505311F0004F23FA02F018BF9D
:100A1000404270474FF00000704750EA013005D166
:100A200011F0004008BF6FF0004070474FF0000029
:100A3000704700BF4A0011D212F5001211D20DD535
:100A40006FF47873B3EB62520ED44FEAC12343F0D4
:100A5000004343EA505323FA02F070474FF000007E
:100A6000704750EA013002D14FF0FF3070474FF02D
:100A7000000070474FEA4102B2F1E04324BFB3F5F2
:100A8000001CDCF1FE5C0DD901F0004C4FEAC00205
:100A90004CEA5070B2F1004F40EB830008BF20F0E9
:100AA0000100704711F0804F21D113F13872BCBFA3
:100AB00001F00040704741F480114FEA5252C2F1F8
:100AC0001802C2F1200C10FA0CF320FA02F018BF41
:100AD00040F001004FEAC1234FEAD32303FA0CFC94
:100AE00040EA0C0023FA02F34FEA4303CCE77FEA23
:100AF000625307D150EA01331EBF4FF0FE4040F46D
:100B00004000704701F0004040F0FE4040F400001B
:100B1000704700BF80F0004002E000BF81F000415C
:100B200042001FBF5FEA410392EA030F7FEA226C93
:100B30007FEA236C6AD04FEA1262D2EB1363C1BF23
:100B4000D218414048404140B8BF5B42192B88BF92
:100B5000704710F0004F40F4000020F07F4018BFB5
:100B6000404211F0004F41F4000121F07F4118BFD5
:100B7000494292EA030F3FD0A2F1010241FA03FC7D
:100B800010EB0C00C3F1200301FA03F100F0004365
:100B900002D5494260EB4000B0F5000F13D3B0F12D
:100BA000807F06D340084FEA310102F10102FE2A9C
:100BB00051D2B1F1004F40EBC25008BF20F001000C
:100BC00040EA03007047490040EB000010F4000FBA
:100BD000A2F10102EDD1B0FA80FCACF1080CB2EB4D
:100BE0000C0200FA0CF0AABF00EBC25052421843AC
:100BF000BCBFD0401843704792F0000F81F4000151
:100C000006BF80F400000132013BB5E74FEA410323
:100C10007FEA226C18BF7FEA236C21D092EA030F8F
:100C200004D092F0000F08BF0846704790EA010F09
:100C30001CBF0020704712F07F4F04D1400028BF36
:100C400040F00040704712F100723CBF00F5000018
:100C5000704700F0004343F0FE4040F4000070474E
:100C60007FEA226216BF08467FEA236301464202FA
:100C700006BF5FEA412390EA010F40F4800070470D
:100C80004FF0000304E000BF10F0004348BF4042B3
:100C90005FEA000C08BF704743F0964301464FF0EF
:100CA00000001CE050EA010208BF70474FF000034B
:100CB0000AE000BF50EA010208BF704711F000438C
:100CC00002D5404261EB41015FEA010C02BF84465C
:100CD0000146002043F0B64308BFA3F18053A3F5BB
:100CE0000003BCFA8CF2083AA3EBC25310DB01FA02
:100CF00002FC634400FA02FCC2F12002BCF1004F86
:100D000020FA02F243EB020008BF20F00100704716
:100D100002F1200201FA02FCC2F1200250EA4C006A
:100D200021FA02F243EB020008BF20EADC707047B0
:100D30004FF0FF0C1CEAD0521EBF1CEAD15392EABE
:100D40000C0F93EA0C0F6FD01A4480EA010C40029A
:100D500018BF5FEA41211ED04FF0006343EA5010F4
:100D600043EA5111A0FB01310CF00040B1F5000F36
:100D70003EBF490041EAD3715B0040EA010062F1E5
:100D80007F02FD2A1DD8B3F1004F40EBC25008BFCF
:100D900020F00100704790F0000F0CF0004C08BFED
:100DA00049024CEA502040EA51207F3AC2BFD2F1BA
:100DB000FF0340EAC250704740F400004FF00003C8
:100DC000013A5DDC12F1190FDCBF00F00040704702
:100DD000C2F10002410021FA02F1C2F1200200FA40
:100DE00002FC5FEA310040F1000053EA4C0308BF07
:100DF00020EADC70704792F0000F00F0004C02BF58
:100E0000400010F4000F013AF9D040EA0C0093F0D2
:100E1000000F01F0004C02BF490011F4000F013B2C
:100E2000F9D041EA0C018FE70CEAD15392EA0C0F9A
:100E300018BF93EA0C0F0AD030F0004C18BF31F005
:100E4000004CD8D180EA010000F00040704790F0DB
:100E5000000F17BF90F0004F084691F0000F91F07F
:100E6000004F14D092EA0C0F01D142020FD193EA45
:100E70000C0F03D14B0218BF084608D180EA0100CD
:100E800000F0004040F0FE4040F40000704740F0A9
:100E9000FE4040F4400070474FF0FF0C1CEAD05277
:100EA0001EBF1CEAD15392EA0C0F93EA0C0F69D0D3
:100EB000A2EB030280EA010C49024FEA402037D03E
:100EC0004FF0805343EA111143EA10130CF0004035
:100ED0008B4238BF5B0042F17D024FF4000C8B4225
:100EE00024BF5B1A40EA0C00B3EB510F24BFA3EB05
:100EF000510340EA5C00B3EB910F24BFA3EB9103D5
:100F000040EA9C00B3EBD10F24BFA3EBD10340EA2E
:100F1000DC001B0118BF5FEA1C1CE0D1FD2A3FF674
:100F200050AF8B4240EBC25008BF20F00100704729
:100F30000CF0004C4CEA50207F32C2BFD2F1FF03CC
:100F400040EAC250704740F400004FF00003013AFD
:100F500037E792F0000F00F0004C02BF400010F4A1
:100F6000000F013AF9D040EA0C0093F0000F01F0B5
:100F7000004C02BF490011F4000F013BF9D041EAD7
:100F80000C0195E70CEAD15392EA0C0F08D142020A
:100F90007FF47DAF93EA0C0F7FF470AF084676E7DD
:100FA00093EA0C0F04D14B023FF44CAF08466EE7B6
:100FB00030F0004C18BF31F0004CCAD130F0004284
:100FC0007FF45CAF31F000437FF43CAF5FE700BFDC
:100FD0004FF0FF3C06E000BF4FF0010C02E000BF05
:100FE0004FF0010C4DF804CD4FEA40024FEA4103A7
:100FF0007FEA226C18BF7FEA236C11D001B052EA5D
:10100000530C18BF90EA010F58BFB2EB030088BF22
:10101000C81738BF6FEAE17018BF40F00100704791
:101020007FEA226C02D15FEA402C05D17FEA236C73
:10103000E4D15FEA412CE1D05DF8040B704700BFBA
:10104000844608466146FFE70FB5FFF7C9FF002851
:1010500048BF10F1000F0FBD4DF808EDFFF7F4FF8A
:101060000CBF012000205DF808FB00BF4DF808ED23
:10107000FFF7EAFF34BF012000205DF808FB00BF46
:101080004DF808EDFFF7E0FF94BF012000205DF868
:1010900008FB00BF4DF808EDFFF7D2FF94BF012019
:1010A00000205DF808FB00BF4DF808EDFFF7C8FF12
:1010B00034BF012000205DF808FB00BF4FEA40026A
:1010C000B2F1FE4F0FD34FF09E03B3EB12620DD976
:1010D0004FEA002343F0004310F0004F23FA02F0E0
:1010E00018BF404270474FF00000704712F1610F87
:1010F00001D1420205D110F0004008BF6FF000405E
:1011000070474FF00000704742000ED2B2F1FE4F20
:101110000BD34FF09E03B3EB126209D44FEA0023C6
:1011200043F0004323FA02F070474FF0000070478D
:1011300012F1610F01D1420202D14FF0FF3070472E
:101140004FF00000704700BF4A1E08BF7047C0F054
:101150002481884240F21681114200F01781B0FAD2
:1011600080F3B1FA81F2A2EB0303C3F11F0304A2DF
:1011700002EB03134FF000029F4600BFAFF3008065
:10118000B0EBC17F00BF42EB020228BFA0EBC170F1
:10119000B0EB817F00BF42EB020228BFA0EB817061
:1011A000B0EB417F00BF42EB020228BFA0EB4170D1
:1011B000B0EB017F00BF42EB020228BFA0EB017041
:1011C000B0EBC16F00BF42EB020228BFA0EBC160D1
:1011D000B0EB816F00BF42EB020228BFA0EB816041
:1011E000B0EB416F00BF42EB020228BFA0EB4160B1
:1011F000B0EB016F00BF42EB020228BFA0EB016021
:10120000B0EBC15F00BF42EB020228BFA0EBC150B0
:10121000B0EB815F00BF42EB020228BFA0EB815020
:10122000B0EB415F00BF42EB020228BFA0EB415090
:10123000B0EB015F00BF42EB020228BFA0EB015000
:10124000B0EBC14F00BF42EB020228BFA0EBC14090
:10125000B0EB814F00BF42EB020228BFA0EB814000
:10126000B0EB414F00BF42EB020228BFA0EB414070
:10127000B0EB014F00BF42EB020228BFA0EB0140E0
:10128000B0EBC13F00BF42EB020228BFA0EBC13070
:10129000B0EB813F00BF42EB020228BFA0EB8130E0
:1012A000B0EB413F00BF42EB020228BFA0EB413050
:1012B000B0EB013F00BF42EB020228BFA0EB0130C0
:1012C000B0EBC12F00BF42EB020228BFA0EBC12050
:1012D000B0EB812F00BF42EB020228BFA0EB8120C0
:1012E000B0EB412F00BF42EB020228BFA0EB412030
:1012F000B0EB012F00BF42EB020228BFA0EB0120A0
:10130000B0EBC11F00BF42EB020228BFA0EBC1102F
:10131000B0EB811F00BF42EB020228BFA0EB81109F
:10132000B0EB411F00BF42EB020228BFA0EB41100F
:10133000B0EB011F00BF42EB020228BFA0EB01107F
:10134000B0EBC10F00BF42EB020228BFA0EBC1000F
:10135000B0EB810F00BF42EB020228BFA0EB81007F
:10136000B0EB410F00BF42EB020228BFA0EB4100EF
:10137000B0EB010F00BF42EB020228BFA0EB01005F
:10138000104670470CBF012000207047B1FA81F26F
:10139000C2F11F0220FA02F0704708B14FF0FF308F
:1013A00000F00EB80029F8D02DE90340FFF7CCFE7D
:1013B000BDE8064002FB00F3A1EB0301704700BF4C
:1013C000704700BF1A481B49026800608A4219D062
:1013D000002103E0184B5B58435004311748184B69
:1013E00042189A42F6D3174A02E0002342F8043B1F
:1013F000154B9A42F9D306F0CDFD0AF03DFA00F004
:1014000073F8FEE7114E124830601248016821F06F
:1014100070610160410201600F4C182020600F498B
:101420000F4808600F48D0F800D04068004700001F
:10143000F04F0020EFBEADDE0CD50008000000200C
:10144000C0010020C00100203C0E00201810024006
:101450000900000004000140140C0140000C014090
:101460004434434400F0FF1FFEE700000F4B93F8A5
:101470001C312BB90E4BDA6882F01002DA6009E0F9
:101480000C4B1B791BB10A4B10225A6102E0084B2E
:1014900010221A61074B5B781BB1054B08225A6179
:1014A0007047034B08221A61704700BFF008002004
:1014B000000C0140B808002010B504F08DFA084B6C
:1014C000084A19681860411A116001F0C1F800F06B
:1014D000F1F800F0CBFFBDE8104000F0FDBF00BF09
:1014E000C4010020D80700201FB504F035FB03F02D
:1014F000A3FB3B4803F008FC4FF4E13004F07AFC16
:1015000005F0E0FD00F088F8364B93F836300E2BEE
:1015100001D0082B02D101238DF80830012002F000
:10152000C3F901238DF804302F4B2E4C1B788DF816
:101530000500003B18BF01238DF8063094F8783081
:1015400001A8DB0803F001038DF80730E38AADF84A
:101550000A30238BADF80C3004F0B0F900F0FCFF3A
:101560004FF47A7004F0C3FA20484FF4FA7104F093
:101570004DFA1F484FF4FA7104F048FA1D4840F63E
:10158000B83104F043FA1C484FF47A6104F03EFA93
:101590001A4844F6206104F039FA94F8683123B10E
:1015A000174844F6206104F031FA164849F64041E4
:1015B00004F02CFA144844F6206104F027FA13488A
:1015C000134904F023FA022002F06EF920B1114809
:1015D00049F6404104F01AFA04F03CFAFCE700BF77
:1015E00000580040F0080020C8010020C171000828
:1015F000217200089D660008B914000879330008BC
:10160000817200085D5F0008E14000086D14000869
:10161000A0860100E172000808B5224B93F836302D
:10162000042B07D0012B05D0082B03D00E2B01D0A3
:10163000052B02D11C4B01221A70082002F034F94C
:1016400010B1194B01221A70164B93F83630013B3A
:10165000112B26D8DFE803F00F11110D0913130B1E
:1016600011131515150B2525111900220AE0012269
:1016700008E0022206E0032204E0042202E006223F
:1016800000E00822094B1A7008BD00231A460849D9
:10169000C95C09B10132D2B21433F02BF7D1034B3C
:1016A0001A7008BDF0080020C801002010000020BA
:1016B000CC0100202DE9F74F9B4B1B78032B3CD925
:1016C0009A4B00219D689A4B4FF000069C6820467B
:1016D000FFF7EAFC08B14FF00106F6B216B19548E3
:1016E000214601E094492046FFF718FA01462846B2
:1016F000FFF7BCFC28B10EB18E4818E020468E4999
:1017000016E026B120468C49FFF70AFA03E08A4822
:101710002146FFF703FA01462846FFF7C5FC50B102
:1017200026B120468449FFF7FBF903E082482146B1
:10173000FFF7F4F905467D4B9D60804C94F83630F8
:10174000013B102B00F29885DFE813F07A000E01C0
:10175000540111001D05D301420274059701B9021D
:101760003303A4033A04960596059605D404704BFA
:101770006E4DD868E968FFF7D3F96E68824600219C
:101780003046FFF7D5FA074694F97000FFF77CFA68
:10179000A968FFF7CDFA00218146FFF7C9FAD5F80D
:1017A0000080054641465046FFF7BAF93946FFF733
:1017B000B7F92946FFF7B4F9FFF780FC604C4146C2
:1017C00020805046FFF7AAF93946FFF7A9F92946C4
:1017D000FFF7A6F9FFF772FC5A4960804846FFF709
:1017E0009FF931460546FFF79BF957490446FFF735
:1017F0003DFC10B14FF47F700BE020465349FFF7DA
:1018000053FC10B14FF4FA6003E02046FFF756FC9A
:1018100080B24F4B314618812846FFF77FF94A497D
:101820000446FFF723FC10B14FF47F7098E0204688
:101830004649FFF739FC002874D04FF4FA608FE076
:101840003B4B3A4DD868E968FFF76AF9804694F94E
:101850007000FFF719FAA968FFF76AFA00218146BC
:10186000FFF766FA2F68064600213846FFF760FA50
:1018700001464046FFF754F9D5F804A083464FF0DF
:1018800081415046FFF754FA3249FFF705FB014604
:101890005846FFF745F93146FFF742F9FFF70EFCCE
:1018A000274D4FF0404128805046FFF741FA294923
:1018B000FFF7F2FA394682464046FFF72FF95146C4
:1018C000FFF72EF93146FFF72BF9FFF7F7FB394603
:1018D00068804046FFF724F95146FFF721F9314669
:1018E000FFF71EF9FFF7EAFBA880B4F87400FFF7D2
:1018F000CBF94946FFF714F90546B4F87200FFF733
:10190000C3F9044621462846FFF7B0FB50B90B4BFC
:10191000B3F87600FFF7B8F9044621462846FFF7EA
:10192000C3FBC8B1204618E0100000209C0800202E
:10193000800000200000C8C20000C842F00800205B
:10194000DC0700200080BB4400007F440000FA4414
:1019500000000020000040402846FFF7AFFB80B2A7
:10196000964B588100F088BC954B964DD868E96835
:10197000FFF7D6F82F68804600213846FFF7D8F9E0
:1019800001464046FFF7CCF8824694F97000FFF715
:101990007BF9A968FFF7CCF96E68054631465046D9
:1019A000FFF7BEF82946FFF7B9F8FFF787FB864C2B
:1019B000002120803046FFF7BBF93946814640467A
:1019C000FFF7ACF84946FFF7ABF82946FFF7A8F850
:1019D000FFF774FB394660804046FFF7A1F849469F
:1019E000FFF79EF82946FFF79BF8FFF767FBA080FB
:1019F000504638E0724B734DD868E968FFF790F8AD
:101A00002F6882463946FFF789F8804694F97000BE
:101A1000FFF73AF9A968FFF78BF96E68054631467A
:101A20004046FFF77DF82946FFF778F8FFF746FBB9
:101A3000654C314620804046FFF770F82946FFF795
:101A40006FF8FFF73BFB394660805046FFF768F8B8
:101A500031460746FFF764F82946FFF761F8FFF7BC
:101A60002DFBA08038463146FFF758F82946FFF78E
:101A700055F8FFF723FBE080FEE3514B514DD8684A
:101A8000E968FFF74DF82F68804600213846FFF7D8
:101A90004FF96E6801464046FFF742F83146FFF7BE
:101AA0003FF8824694F97000FFF7EEF8A968FFF757
:101AB0003FF9054629465046FFF730F8FFF7FEFA92
:101AC000414C002120802846FFF732F939468146F3
:101AD0004046FFF723F83146FFF720F84946FFF765
:101AE0001FF8FFF7EBFA294660805046FFF718F819
:101AF0003BE3334B334DD868E968FFF711F82E68A4
:101B0000074600213046FFF713F901463846FFF734
:101B100007F8D5F804A080464FF081415046FFF702
:101B200007F92A49FFF7B8F901464046FEF7F8FFE2
:101B3000804694F97000FFF7A7F8A968FFF7F8F856
:101B4000054629464046FEF7EBFFFFF7B7FA1E4C65
:101B50004FF0404120805046FFF7EAF81B49FFF75D
:101B60009BF9314682463846FEF7D8FF5146FEF7CC
:101B7000D7FF29468146FEF7D1FFFFF79FFA31468E
:101B800060803846FEF7CCFF5146FEF7C9FF294674
:101B90000646FEF7C3FFFFF791FA2946A0804046AC
:101BA000FEF7BCFFFFF78AFA2946E0804846FEF7B9
:101BB000B7FFFFF783FA20813046F6E000000020EF
:101BC000800000209C080020DC070020000040402E
:101BD000A84BA94DD868E968FEF7A2FFD5F80080A8
:101BE00007464FF03F414046FFF7A2F8014638460E
:101BF000FEF796FF6E6881464FF07C513046FFF746
:101C000097F8824694F97000FFF73EF8A968FFF74D
:101C10008FF8514605464846FEF782FF2946FEF7F3
:101C20007FFFFFF74BFA954C4FF03F412080304645
:101C3000FFF77EF8834659464846FEF771FF29466E
:101C4000FEF76CFFFFF73AFA4FF07C516080404698
:101C5000FFF76EF801463846FEF762FF51468146AF
:101C6000FEF75EFF2946FEF75BFFFFF727FA5946AE
:101C7000A0804846FEF754FF2946FEF74FFFFFF7C6
:101C80001DFA0021E0804046FFF752F80146384631
:101C9000FEF746FF31460746FEF740FF2946FEF7AE
:101CA0003FFFFFF70BFA314620813846FEF738FF39
:101CB0002946FEF733FFFFF701FA6081DCE26D4B46
:101CC0006D4DD868E968FEF72BFFD5F80090824685
:101CD0006B494846FFF72CF86A49FFF7DDF80146E3
:101CE0005046FEF71DFF6F68064667493846FFF706
:101CF0001FF86649FFF7D0F8804694F97000FEF7A8
:101D0000C3FFA968FFF714F8414605463046FEF7C1
:101D100007FF2946FEF704FFFFF7D0F9574C5C494F
:101D200020803846FFF704F85849FFF7B5F8834696
:101D300059463046FEF7F4FE2946FEF7F1FEFFF75E
:101D4000BDF94FF0814160804846FEF7F1FF4D49F3
:101D5000FFF7A2F801465046FEF7E2FE41468246F2
:101D6000FEF7DEFE2946FEF7D9FEFFF7A7F9594632
:101D7000A0805046FEF7D4FE2946FEF7CFFEFFF7BF
:101D80009DF90021E0803846FEF7D2FF074639462C
:101D90003046FEF7C5FE2946FEF7C0FEFFF78EF976
:101DA000394620815046FEF7BBFE2946FEF7B8FEB5
:101DB00081E7304B304DD868E968FEF7B1FED5F8C1
:101DC000008082464146FEF7A9FE6E688146314694
:101DD000FEF7A6FE074694F97000FEF755FFA968C6
:101DE000FEF7A6FF054629463846FEF797FEFFF7A1
:101DF00065F9224C314620804846FEF78FFE294681
:101E00008146FEF78DFEFFF759F941466080504646
:101E1000FEF786FE31468246FEF782FE2946804660
:101E2000FEF77EFEFFF74AF93146A0805046FEF7E6
:101E300075FE29460646FEF771FEFFF73FF9294673
:101E4000E0803846FEF76CFEFFF738F9294620811E
:101E50004846FEF763FEFFF731F9294660814046A8
:101E6000FEF75CFEFFF72AF92946A0813046FEF70F
:101E700057FE2EE1800000209C080020DC07002097
:101E8000000080C00000A040000010410000204180
:101E9000000010C1914B924DD868E968FEF740FEF2
:101EA0002E6807468F493046FEF742FF8E49FEF7FF
:101EB000F3FF01463846FEF733FED5F8048082462C
:101EC0008A494046FEF734FF8749FEF7E5FF814621
:101ED00094F97000FEF7D8FEA968FEF729FF49467D
:101EE00005465046FEF71CFE2946FEF719FEFFF791
:101EF000E5F87F4C7D4920803046FEF719FF7A498E
:101F0000FEF7CAFF01463846FEF70AFE49468346F9
:101F1000FEF706FE2946FEF703FEFFF7CFF87149EC
:101F200060804046FEF704FF6F49FEF7B5FF81462B
:101F300049465846FEF7F4FD2946FEF7F1FDFFF746
:101F4000BDF84946A0805046FEF7EAFD2946FEF757
:101F5000E7FDFFF7B3F80021E0803046FEF7E8FE2A
:101F600001463846FEF7DCFD41468146FEF7D6FDC8
:101F70002946FEF7D3FDFFF7A1F800212081404656
:101F8000FEF7D6FE314682463846FEF7C7FD51467B
:101F9000FEF7C6FD2946FEF7C1FDFFF78FF8414663
:101FA00060814846FEF7BCFD2946FEF7B7FDFFF706
:101FB00085F83146A0813846FEF7B2FD514683E0F0
:101FC000464B474DD868E968FEF7AAFD2F68804662
:101FD0003946FEF7A5FD6E6882464FF03F41304618
:101FE000FEF7A6FE814694F97000FEF74DFEA96843
:101FF000FEF79EFE494605465046FEF791FD2946EE
:10200000FEF78EFDFFF75AF8394C4FF03F41208024
:102010003846FEF78DFE01464046FEF781FD31460B
:102020000090FEF77BFD2946FEF77AFDFFF746F8A4
:10203000394660804046FEF771FD4FF07C51834683
:102040003046FEF775FE0346194658460193FEF7E3
:1020500067FD2946FEF764FDFFF730F84FF07C512D
:10206000A0803846FEF764FE01464046FEF758FD64
:1020700031460746FEF754FD2946FEF751FDFFF7AE
:102080001DF83146E0803846FEF748FD2946FEF748
:1020900045FDFFF713F8494620815846FEF740FDFD
:1020A0002946FEF73BFDFFF709F86081009A3146AB
:1020B0001046FEF735FD2946FEF730FDFEF7FEFF20
:1020C000019BA08119465046FEF72AFD2946FEF7DE
:1020D00025FDFEF7F3FFE081CEE000BF8000002089
:1020E0009C0800200000E040000020410000E0C00B
:1020F000DC0700206B4B6C4DD868E968FEF710FDDB
:102100002F68804600213846FEF712FE6E680146B1
:102110004046FEF705FD3146FEF702FD824694F982
:102120007000FEF7B1FDA968FEF702FE05462946DC
:102130005046FEF7F5FCFEF7C1FF5C4C0021208005
:102140002846FEF7F5FD394681464046FEF7E6FC97
:102150003146FEF7E3FC4946FEF7E2FCFEF7AEFF30
:10216000294660805046FEF7D9FCFEF7A7FF3946A6
:10217000A0804046FEF7D4FC3146FEF7CFFC49462E
:10218000FEF7CEFC75E4B4F88600FEF77DFDD4F8CA
:102190008C10FEF7C5FC434B5968FEF7C1FC0546A1
:1021A000B4F88400FEF770FD044621462846FEF789
:1021B0005DFF50B93E4BB3F88800FEF765FD04465D
:1021C00021462846FEF770FF08B1204600E0284669
:1021D000FEF774FF364C374B80B21880B4F87C00A1
:1021E000FEF752FDD4F88010FEF79AFC2D4B1968CB
:1021F000FEF796FC0546B4F87A00FEF745FD064664
:1022000031462846FEF732FF08B130460CE0B4F8FC
:102210007E00FEF739FD044621462846FEF744FFBE
:1022200008B1204600E02846FEF748FF214B80B267
:10223000588021E01B4B1F4CD868FEF73FFF1B4B1B
:1022400018801D4B9B7A23B14FF0000323806380DD
:1022500012E0154D00216868FEF76AFD0021064670
:102260002868FEF765FD01463046FEF759FCFEF78B
:1022700025FF80B220806080082001F015FB002837
:102280007BD00B4A92F8783013F0030004D00B494E
:10229000528F8889801A80B213F0040F10D0002763
:1022A00014E000BF800000209C080020DC07002014
:1022B000F008002000000020B8080020DC08002002
:1022C000624BDF89624B5B8FFF1ABFB2604D614C7E
:1022D000B5F88630C018B5F87C3080B2FF185E4B78
:1022E000BFB2DB782080678043B300B2FEF7CCFC3E
:1022F0005A4E80467169D5F88C00FEF719FD4FF0F3
:102300008441FEF715FD01464046FEF709FCFEF745
:10231000D5FE208038B2FEF7B7FC31690746D5F804
:102320008000FEF705FD4FF08441FEF701FD0146F8
:102330003846FEF7F5FBFEF7C1FE6080454B444989
:10234000B3F90020B1F884309A4205DBB1F8883047
:102350009342A8BF13469BB23E4A3D491380B2F94F
:102360000220B1F87A309A4205DBB1F87E30934210
:10237000A8BF13469BB2374A5380354B93F8783049
:1023800013F0080F12D0082001F08EFA2F4C00280D
:1023900014BF0225002504F10806284621890234CD
:1023A000013503F063F8B442EDB2F6D12C4B1D8831
:1023B0002C4B1A78012308E029492DB231F913106A
:1023C00001338D42B8BF0D46ADB29342F4D3002421
:1023D000264635E01E4B2AB2B3F844309A4204DD5B
:1023E0001F4AA15A5918491BA1521D4A1849A25EF9
:1023F000B1F842108A4201DA0B4603E09342A8BFCB
:1024000013469BB2164A124FA352104B04EB02081C
:10241000B3F90620FB8F9A4209DA042001F044FA4E
:1024200008B13F8F01E0B7F84270A8F800700E4B7A
:102430005B781BB9064A0A4B128FE252013602340E
:10244000084B1B789E42C5D3BDE8FE8FDC080020F8
:10245000F008002000000020C8080020C80D00205F
:10246000DC07002010000020B808002010B5174B32
:102470001B78002B28D0164B93F83630042B08D04D
:1024800002D8012B11D10CE0082B1DD00E2B0CD142
:1024900010BD104C0020218902F0E8FF0120618965
:1024A0000EE00C4B002059890AE0082001F0FCF9ED
:1024B00050B1084C0020218802F0D8FF618801202B
:1024C000BDE8104002F0D2BF10BD00BFC80100201F
:1024D000F00800200000002010B5002407E0064BA3
:1024E000204633F8141002F0B3FF0134E4B2034B7A
:1024F0001B78A342F3D810BDDC0700201000002099
:10250000064A074B11789A1C02EB410201E023F8BE
:10251000020C02339342FAD1FFF7DEBF1000002015
:10252000DC07002038B50546002410E0094B0134D3
:10253000B3F94200FFF7E4FFFA2003F0D8FA4FF4B2
:102540007A70FFF7DDFFFA2003F0D1FAE4B2AC4273
:10255000ECD338BDF00800200A4B0B4A03F17001A0
:10256000D3F89C001060D3F8A0005060D3F8A4000A
:102570009060D3F8A8001033D06018328B42EFD1AE
:10258000704700BFF0080020F4070020044B03F15F
:10259000A80100221A615A6118338B42F9D17047A1
:1025A000F407002000230361436170472DE9F047E1
:1025B00004460D46D0F8149010466161616890465B
:1025C000FEF7B6FB2049FEF7B3FB01462846FEF7AF
:1025D000AFFB2169FEF7A4FAD4F80CA007462061EE
:1025E0001A495046FEF7A4FB064631463846FEF728
:1025F0003DFD50B914495046FEF79AFB0646314658
:102600003846FEF751FD00B93E462661216828464E
:10261000FEF78EFB0C4907463046FEF73DFC0146AF
:102620003846FEF77DFA494606462846FEF776FA12
:10263000A168FEF77DFB4146FEF72EFC01463046C1
:10264000FEF76EFABDE8F08700007A4400007AC415
:102650002DE9F84503F0C0F9894E8A4B054618600C
:102660003068281AFEF70CFB8749FEF761FB874BA1
:1026700004461A793560002A3DD0854DDFF8208266
:102680006868FDF7C1FE7AA3D3E90023FDF710FFC8
:10269000FEF7F0F907462868FDF7B6FE74A3D3E904
:1026A0000023FDF705FF7B4DFEF7E4F9D8F8101085
:1026B000FEF734FAD5F80C11FEF730FA02F050F9B3
:1026C000224601467448FFF771FF02F049F9D8F835
:1026D000141006463846FEF721FAD5F81011FEF719
:1026E0001DFA02F03DF9224601466C48FFF75EFFF5
:1026F00002F036F945E05B7A654D002B2CD0684B33
:102700009869684B1968FEF709FA064606F060FDFD
:102710008246304606F096FDD5F8008007465146C1
:102720004046FEF705FB6D68064639462846FEF72B
:10273000FFFA01463046FEF7F1F9514606462846B3
:10274000FEF7F6FA394605464046FEF7F1FA01462D
:102750002846FEF7E5F914E02868FDF755FE46A384
:10276000D3E90023FDF7A4FEFEF784F90646686866
:10277000FDF74AFE40A3D3E90023FDF799FEFEF7DB
:1027800079F9424B05465B79CBB1474B9B78B3B1A6
:10279000464B9B7813B94648FFF704FF454B186832
:1027A0003F4B9969FEF7BAF902F0DAF82246014682
:1027B0003F48FFF7FBFE02F0D3F880460FE0344BB2
:1027C0009868FDF721FE2CA3D3E90023FDF770FEE6
:1027D000FEF750F9324B80469A69364B1A602B4B04
:1027E0009B7903B32E4BD86DFEF74EFA324B014660
:1027F0001868FEF793F93149FEF74EFB2246014671
:102800002F48FFF7D3FE2F490746FEF72FFC08B1EC
:102810002C4F05E038462C49FEF746FC00B12A4F04
:102820002A4BDF6002E0294B0022DA601C4F304661
:10283000F969FEF773F9224601462548FFF7B6FE0F
:10284000224E396A30602846FEF768F92246014672
:102850002048FFF7ABFE796A70604046FEF75EF9EC
:10286000224601461C48FFF7A1FEB060BDE8F8858E
:10287000FCA9F1D24D62603F7B14AE47E17A743F10
:10288000C0020020BC020020BD378635B8080020F9
:1028900080000020F00800203C08002054080020A0
:1028A000C80D0020EC0800207C00002090000020D3
:1028B0006C080020B0080020D8080020000020414B
:1028C00084080020000048C3000048439C08002002
:1028D000F40700200C08002024080020AFF300803B
:1028E000014B01221A707047E4020020014803F0F6
:1028F00067BA00BF6CBB0008014803F061BA00BFB3
:10290000A3BB000838B50D4803F05AFA00240C4D5B
:10291000285903F055FA2D19092003F03BFA68688D
:1029200003F04EFA074803F04BFA03F0DFF90028F2
:10293000FBD00C343C2CEAD138BD00BFA8BB00084A
:10294000B8C50008A0BC000838B50D4803F038FA37
:1029500000240C4D285903F033FA2D19092003F0F7
:1029600019FA686803F02CFA074803F029FA03F013
:10297000BDF90028FBD00C34902CEAD138BD00BF43
:10298000CBBB0008DCBA0008A0BC000810B503F0FF
:102990009DF84FF47A71B0FBF1F1134C134801F03C
:1029A000E0FA134803F00CFA206EFDF72DFD024605
:1029B0000B46104801F0D5FA94F868100E4801F063
:1029C000D0FA0E4803F0FCF90D4B0E48196801F0DF
:1029D000C8FA02F093F901460B4801F0C2FA0B481D
:1029E000BDE8104003F0ECB9C80D0020E1BB0008C1
:1029F000F3BB000807BC00080CBC000811BC0008B1
:102A0000D80700201EBC00082DBC0008A0BC000890
:102A10002DE9F041074608F077FFC5B255B91F48C8
:102A200003F0CEF91E4B93F836201E4B013A53F8B3
:102A300022002AE038461C492A4608F06DFF044669
:102A400070B91A4803F0BCF9164B53F82400F0B1E2
:102A500003F0B6F90134202003F09CF9E4B2F3E767
:102A60000024104E56F8241009B9114810E03846D9
:102A70002A4608F051FF631C70B9094A0D4882F8D4
:102A8000363003F09DF956F8240003F099F90A480E
:102A9000BDE8F04103F094B9DCB2E2E73EBC0008C7
:102AA000F00800201400002062C000084EBC00089E
:102AB00061BC000879BC0008A0BC00082DE9F04505
:102AC00085B0804608F020FF074628B1012879D15B
:102AD00098F800302A2B75D14B4C4C4803F070F914
:102AE000D4F82001FDF790FC0646D4F824010F46E7
:102AF000FDF78AFCCDE90001D4F82801FDF784FC3C
:102B000032463B46CDE90201414801F02AFAD4F8A9
:102B10003001FDF779FC0646D4F834010F46FDF785
:102B200073FCCDE90001D4F83801FDF76DFC3246A5
:102B30003B46CDE90201374801F013FAD4F83C01D5
:102B4000FDF762FC0646D4F840010F46FDF75CFC39
:102B5000CDE90001D4F84401FDF756FC2E4D324674
:102B60003B46CDE902012D4801F0FBF9E86AFDF78B
:102B70004BFC0646286B0F46FDF746FCCDE90001ED
:102B8000686BFDF741FC32463B46CDE90201244823
:102B900001F0E7F9D4F84C01FDF736FC0646D4F80D
:102BA00050010F46FDF730FCCDE90001D4F8540187
:102BB000FDF72AFC3246CDE902013B46194801F0F7
:102BC000D0F91DE000252C46174E404671593A4673
:102BD0005FFA84FA08F0A0FE40B90C2303FB0464FA
:102BE000A3689847BAF1040F0AD903E001340C3501
:102BF000052CE9D10D4805B0BDE8F04503F0E0B87B
:102C000005B0BDE8F08500BFF008002087BC0008D3
:102C1000A3BC0008BDBC0008C80D0020D9BC00083A
:102C2000FFBC00081BBD0008B8C5000833BD000884
:102C300070B50D680446284608F066FE0246206816
:102C40002946BDE8704008F067BE00007FB50379F3
:102C500004460D46052B2BD8DFE803F003081015BA
:102C60001B208368204968461A7804E083681F495E
:102C700093F90020684601F065F919E083681A4964
:102C800068461A88F7E7836818496846B3F9002050
:102C9000F1E78368144968461A68ECE783681868A6
:102CA000FDF7B2FB02460B466846114901F04AF9AE
:102CB00068466E4603F084F8ADB10E4803F080F824
:102CC00069460A22E06801F08FFD684603F078F853
:102CD000084803F075F8206969460A2201F084FD6E
:102CE000684603F06DF87FBD0EBC000851BD0008BA
:102CF00054BD0008A6BB00082DE9F041064608F0C7
:102D000003FE074620B101281FD133782A2B1CD19E
:102D1000424803F055F8424C04F5CA650435206872
:102D200003F04EF83F4803F04BF820463946FFF7D2
:102D30008DFF3D4803F044F802F0D8FF0028FBD097
:102D40001434AC42EBD1BDE8F08130463D2108F0AF
:102D5000CFFD074600285ED0314C04F5CA65043526
:102D6000D4F80080404608F0CFFD41460246304688
:102D700008F0D2FD8046002845D12379781C052B28
:102D800004D101F00DFE0546404602E008F047FD83
:102D900000252379052B06D0E268904213DB2269D7
:102DA000904212DD0FE0E068FDF76EFF0146284615
:102DB000FEF75CF938B92069FDF766FF0146284641
:102DC000FEF772F988B1194821E0052B0FD8DFE82A
:102DD00003F003030606090CA368187007E0A36854
:102DE000188004E0A368186001E0A3681D602068F3
:102DF00002F0E6FF0E4802F0E3FF20460021BDE8A6
:102E0000F041FFF723BF1434AC42A9D10948BDE813
:102E1000F04102F0D5BFBDE8F08100BF57BD00080A
:102E2000F4C500086CBD0008A0BC000870BD000817
:102E30007EBC000895BD000810B5084802F0C0FF30
:102E400000F062FD064802F0BBFF0A2002F04FFED0
:102E50000020BDE8104002F055BE00BFB2BD000822
:102E6000BCBD0008F0B585B0044608F04DFD08284B
:102E700024D100231F49E25C09685118497811F0F8
:102E8000020F18BF203AE2540133082BF2D1651C1F
:102E900004F1090715F8016C1748314608F028FDC0
:102EA00020B12846314608F023FD08B113481CE044
:102EB0000135BD42EED1204600F04AFD104802F037
:102EC0007FFF00230F4A04A9D218927B8A180A496F
:102ED000595C0133082B02F80C1CF3D1083B01A804
:102EE0008DF80C3002F06CFF074802F069FF05B066
:102EF000F0BD00BFC800002048CC0008CBBD0008D2
:102F0000EBBD0008F0080020A0BC00082DE9F0414E
:102F1000064608F0F9FC054600F0E6FC044695B9C3
:102F20002A4802F04DFF2A4B53F82500002845D0CF
:102F30000123AB40234201D002F042FF202002F0E7
:102F400029FF0135EFE7304622492A4608F0E4FC24
:102F5000044660B9204802F033FF1D4B1859043471
:102F600060B302F02DFF202002F014FFF5E7337864
:102F70002D2B01D0002702E00136013D012700245E
:102F8000134B53F8241009B9144818E030462A4668
:102F900008F0C2FCB8B92FB10130A04000F096FC97
:102FA0000F4804E00120A04000F088FC0D4802F02A
:102FB00007FF074B53F8240002F002FF0A48BDE860
:102FC000F04102F0FDBE0134DAE700BF00BE0008A8
:102FD0006000002062C0000813BE000828BE000880
:102FE00042BE00084CBE0008A0BC000810B5044654
:102FF000084802F0E5FE20220021074808F06FFC97
:10300000064A00231360064A20461370BDE81040AC
:10301000FFF712BF55BE0008C4020020E8020020DE
:10302000AC08002010B5084802F0CAFE012000F0EC
:10303000A5FC064802F0C4FE0A2002F058FD00205C
:10304000BDE8104002F05EBD6DBE0008BEBD0008C8
:103050002DE9F041844B8AB01A7832B901321A70E6
:10306000824802F0ADFEFFF747FC814B1B78002B36
:1030700000F0698102F0B0FE18B102F045FE7D4B10
:1030800018707C4B1B786D2B42D00CD8622B23D050
:1030900005D8232B0FD0612B40F055810FE0672B13
:1030A00040F051811EE0742B5AD0772B5BD0712BEE
:1030B00040F0498139E06E4B00221A70D1E06E4C2D
:1030C0002068FDF7A1F9064660680F46FDF79CF9F8
:1030D000CDE90001A06811E0674B6848996D00F0E8
:1030E00040FF30E1644CE069FDF78EF90646206A46
:1030F0000F46FDF789F9CDE90001606AFDF784F913
:103100003246CDE902013B465D4800F02AFF1AE154
:10311000594CA06CFDF778F90646E06C0F46FDF7B8
:1031200073F9CDE90001206DE8E7564C2068FDF702
:103130006BF9064660680F46FDF766F9CDE90001B8
:10314000A068FDF761F9CDE90201E068FDF75CF9DF
:103150003246CDE904013B464B4800F002FFF2E065
:1031600002F0E0FCEFE0444C48492069FDF7E0FD47
:10317000FDF74AF906460F4660694449FDF7D8FD58
:10318000FDF742F9CDE900014049A069FDF7D0FD06
:10319000B4E702F0B9FD092801D03F2853D13C4BD8
:1031A000DFF8FC8000261F683546A8F190040CE08B
:1031B0002FB1384821683A4608F0AEFB20B915B95E
:1031C0002646254600E026460C344445F0D1BDB1E4
:1031D000304A3B46D2192968C85C3168C95C8142D3
:1031E0000CD1581C013229B92A4A2031D154284B1C
:1031F000186005E002F8011C0346ECE7244A13605E
:10320000234B1B680BB1B5420FD0234802F0D8FD09
:1032100006E055F80C0B02F0D3FD092002F0BAFDD0
:10322000B542F6D9FFF768FB00271A4CE41904E011
:1032300014F8010C02F0AEFD0137154B01341B6888
:103240009F42F5D37FE0124B1B682BB9042803D1B2
:103250001048FFF7CBFE7BE00C2823D10F4802F08B
:10326000AFFDFFF749FB6EE0AC08002088BE000808
:10327000E4020020EC020020C80D002035CF000839
:10328000C3BE0008700C0020C0BE0008E02E6542DE
:10329000E8020020C4020020CDBE0008D2BE000813
:1032A0006CBB0008002B2FD00A2801D00D282BD191
:1032B000294802F085FD294B294C1A680023A354A4
:1032C0000893284B0C22009307A82749134607941C
:1032D00008F0A9FA054638B1006808F015FB01307E
:1032E000AB682018984702E0204802F069FD2022D0
:1032F0001B48002108F0F3FA184B00221A601C4BFF
:103300001B78002BADD123E07F2801D008280AD1FB
:10331000CBB1124A013B1360114A0021D154154828
:1033200002F04EFD0FE01F2B0DD81F280BD97E2871
:1033300009D80BB9202806D0094AD054074A0133CE
:10334000136002F027FD02F047FD00287FF421AF53
:103350000AB0BDE8F08100BFA0BC0008E802002070
:10336000C4020020312C0008DCBA0008DDBE0008D1
:10337000AC080020FEBE00082DE9F14F9C4B002454
:103380001A789C4D01321A702646994B9A4F93F841
:103390000080BB19987B02F077F8A0F53A73063BE2
:1033A0009BB240F2DC52934288BF788F914B08F079
:1033B000030808EB860823F818002B886A88D218BF
:1033C000AB88D218EB88D21812B2931C48BF531D99
:1033D0009B108A4A9BB21353894A19B2A05E0338E4
:1033E000814201DA981CA052854AA05E03308142D6
:1033F00001DD023BA352013602340835082EC4D148
:103400007F4C7D4DB4F90610EB8F99424ADAFFF7F5
:10341000BDF8AB8C7BB17B4B5B7923B17A4B1A78CF
:103420000AB1012218E0784B5A78002A00F0AC80EB
:1034300000225A70A8E0B4F90420B5F840309A424E
:1034400010DD714B597869B970490A78501C142AFB
:10345000087040F09980133A5A706D4B9A696D4B21
:103460001A6091E0644BDB8F9A4280F28A80664A50
:10347000517849B165490B78581C142B087040F0FD
:103480008380143B53707FE05D4AB2F902209A4278
:1034900077DD5E4A1378591C142B117074D103F038
:1034A0001BFC27E0B5F8402091426DDD5649497874
:1034B000002969D1B4F9041091420CDDB4F902007D
:1034C000984208DA514A1378591C142B11705BD1B9
:1034D00004F098F958E0994210DA4949B1F902101C
:1034E00099420BDA494A1378591C142B11704BD1AD
:1034F00003F06EFA0320FFF715F845E04049B1F9F3
:10350000020090420ADD3C4CD4F81001FCF77CFF2D
:1035100035A3D3E90023FCF719FE0BE098420EDA3D
:10352000354CD4F81001FCF76FFF2FA3D3E900232B
:10353000FCF70AFEFDF79EFAC4F810011EE0B1F98F
:10354000001091420ADD2C4CD4F80C01FCF75CFF12
:1035500025A3D3E90023FCF7F9FD0BE0994210DA2B
:10356000254CD4F80C01FCF74FFF1FA3D3E900232F
:10357000FCF7EAFDFDF77EFAC4F80C0100F0C4F98F
:1035800002E0224B00221A70102000F08DF9002872
:1035900047D0214B184AB3F800C014890FFA8CFEAB
:1035A000A6453BDD184B5978002937D0508F144978
:1035B00008804880888090895289C8801419012128
:1035C000A645D97302DD00225A701A700E4B5A7844
:1035D0000AB95A701A70104B0CF1010CA3F800C014
:1035E0001FE000BFAFF300807B14AE47E17A843F59
:1035F000EE020020F0020020F0080020300300203E
:10360000DC080020C8080020B8080020ED020020D7
:10361000C80D0020EC0800206C0A00208E4B002210
:10362000DA738E4B8E4AD88FB3F840400023194688
:10363000B2F900C0844502DC4FF0000E07E032F919
:1036400008EC8645ACBF4FF0000E4FF0010E8445EC
:10365000ACBF002501259D40A445D4BF4FF0000C10
:103660004FF0010C45EA01019D1C0CFA05FC41EAF2
:103670000C0103F1010C0EFA0CFE033341EA0E01BA
:1036800002320C2B89B2D3D1744F0C3B3A46B2F8BC
:103690001AC0744811EA0C0F0CBF4FF0000C4FF029
:1036A000010C03F800C0013302320E2BEFD1437935
:1036B00013B9694B01221A706A4B1A7A664B02B130
:1036C00001229A72674B1B7813B9634BDA7B5AB1AC
:1036D000614C23794BB96448FEF764FF6348FEF7F9
:1036E00061FF0123237100E01A715E4B9A785A4BF7
:1036F00042B15A793AB901325A715D4B9A695D4BC0
:103700001A6000E05A71574B5A7A534B42B15A7AB9
:103710003AB901325A72564B9A69574B1A6000E017
:103720005A72504B5B7B1BB1514B9A69524B1A60DA
:103730000025524B524CE85EFDF7A6FA44F81500FE
:103740000235082DF5D1454B5E8F3046FDF79CFACA
:10375000054629462068FDF7E1F9294620606068A2
:10376000FDF7DCF929466060A068FDF7D7F9A06095
:10377000A6F5BA600C38FDF787FA0146E068FDF758
:10378000CDF90025E0602C46DFF8FCA03D4B1AF88F
:103790000420B7F846B01A555846FDF775FADFF819
:1037A000E090804659F8056041463046FDF768FCD8
:1037B00078B1CBF10000FDF767FA01463046FDF71E
:1037C00069FC30B1002349F8053001230AF80430C0
:1037D00014E02D4B00221A5530460021FDF764FC01
:1037E000DFF89CA020B130464146FDF797F903E091
:1037F00030464146FDF794F94AF805000134043596
:103800000237032CC0D11E4BDC68204B20461968C0
:10381000FDF784F91E4920F00040FDF745FC10B18A
:103820000D4B00229A710F4B5A780B4B002A35D062
:103830009A79002A33D101329A71144B1C600C4BD7
:10384000D86DFDF721FA134B1860134801B0BDE89D
:10385000F04FFEF7A7BE00BFB8080020F008002018
:10386000E4080020C80800203C080020540800207C
:10387000C80D0020B0080020EC080020DC08002063
:1038800080000020900000207C000020B408002070
:103890000000A041D8080020840800209A7101B0DF
:1038A000BDE8F08FAFF30080034B5B6818420CBF9C
:1038B00000200120704700BFF0080020024B5A682A
:1038C00040EA02025A607047F0080020024B5A6832
:1038D00022EA00025A607047F0080020014B0022E3
:1038E0005A607047F0080020014B5868704700BFCD
:1038F000F0080020024803494FF4BE7207F0E2BF0F
:10390000F008002000FC010810B504F0ADFD3420E3
:1039100004F0BEFD0B4804F013FE04280CD1094C42
:10392000094B2046E15804F0E1FD042800D0FEE7F1
:10393000064B04349C42F3D104F0A2FDBDE81040D4
:10394000FFF7D8BF00FC0108F00CFE177CFD010852
:1039500070B50646002409E0064D284607F0C8FF6A
:1039600018B1054A83185D1BAC730134315D002921
:10397000F2D170BD48CC0008F008002070B59A4B19
:103980001B7810B9052B00F02E81984C052323706D
:10399000023B84F83630FFF7A1FF0220FFF78EFFCD
:1039A0000120FFF78BFF9248FFF7D2FF4FF4C8705A
:1039B0004FF0320244F62063E0824FF49660638158
:1039C00022832281A08104F11C0300256583023437
:1039D0009C422E46F9D1854B4FF47A721A8740F2F9
:1039E000DC504FF4FA6258879A8740F24C4040F21C
:1039F0006C72D887A3F8402040F27E4040F23A72C1
:103A0000A3F84200A3F844204FF00C004FF47A7260
:103A1000A3F84600A3F84800A3F84A00A3F86420DE
:103A200040F2DC504FF4FA62A3F86600A3F8682075
:103A30004FF47A7040F2DC52A3F86A00A3F86C20CD
:103A40004FF4FA604FF47A72A3F86E00A3F8722074
:103A500040F2DC504FF4FA62A3F87400A3F8762029
:103A60004FF47A7040F2DC52A3F87A00A3F87C207D
:103A70004FF4FA604FF47A72A3F87E00A3F8842022
:103A800040F2DC504FF4FA6201214FF07E5CA3F863
:103A90008600A3F888204FF47A704FF0FF3283F845
:103AA000902083F8922083F8701083F87810C3F880
:103AB00080C0C3F88CC083F8911083F89310A3F8EA
:103AC0009400A3F898004B484B4CC3F89C00C3F8F3
:103AD000A800C3F8AC00C3F8B800C3F8C8004FF0A2
:103AE0007C50C3F8D800C3F8E800C3F8F800434896
:103AF0004FF4FA62C3F8FC004148C3F8BC40C3F875
:103B0000000140484FF08044C3F804013E48A3F848
:103B10009620A3F89A20C3F8CC400022C3F8DC40DA
:103B20004FF07F54C3F8A020C3F8A420C3F8B020FE
:103B3000C3F8B420C3F8C020C3F8C420C3F8D02011
:103B4000C3F8D420C3F8E020C3F8E420C3F8F02081
:103B5000C3F8F420C3F80801C3F80C21C3F81021FE
:103B6000C3F8EC4083F81411C3F82021C3F82421D2
:103B7000C3F82821C3F83021C3F83421C3F8382111
:103B8000C3F83C21C3F84021C3F84421C3F84C21B9
:103B9000C3F85021C3F854211C4A1D48C3F86021C2
:103BA0001C4AC3F81801C3F864211B4A4FF02A00CD
:103BB000C3F86C21194A83F81C51C3F87021184AC4
:103BC000A3F82C01C3F87421164A83F8485183F8EE
:103BD0005851C3F85CC183F86811C3F87821BDE877
:103BE0007040FFF791BE70BD00FC0108F008002096
:103BF00050CC00080000C842000048430000A0412B
:103C0000000088410000E0400060EA46CDCC4C3D19
:103C10006666663F0AE89C41A47029410000304175
:103C20003333534066668640F8B504460E46104668
:103C30004FF07E511546FDF70FFA20BB3046FCF7DA
:103C4000E3FB064628460F46FCF7DEFB02460B4622
:103C500000200E49FCF778FA02460B4630463946FA
:103C6000FCF726FC06460F4620462946FDF760F87D
:103C7000FCF7CAFB02460B4630463946FCF766FAAB
:103C8000FCF7F8FE04462046F8BD00BF0000F03FF8
:103C900028B1026811700268013202607047C8B230
:103CA00002F078B82DE9F845161E04460D460FDDE2
:103CB000002200E00132A95C0029FBD1B242ACBF76
:103CC0000E46B61A13F0020F02D04FF0300A01E090
:103CD0004FF0200A13F0010809D04FF0000808E067
:103CE00020465146FFF7D4FF08F10108013E002E9F
:103CF000F6DC474603E02046FFF7CAFF0137C8EB72
:103D00000503D95D0029F6D105E020465146FFF7AD
:103D1000BFFF0137013E002EF7DC3846BDE8F885CD
:103D20002DE9FF410A9F05460B9EDDF830E08C46E9
:103D300051B930238DF804308DF805103A4601A9A9
:103D40003346FFF7AFFF39E03BB10A2A05D100291E
:103D500003DAC1F1000C012400E0002404AB0021CF
:103D600003F8011D0DE0BCFBF2F102FB11C10929B2
:103D7000C4BFAEF13A000918303103F8011DBCFB95
:103D8000F2FC9846BCF1000FEDD184B14FB116F0B2
:103D9000020F06D028462D21FFF77AFF013F0124AC
:103DA00005E02D2203F1FF3803F8012C00242846FA
:103DB00041463A463346FFF775FF001904B0BDE8A7
:103DC000F08100002DE9F04F82468FB00E46144678
:103DD0004FF0060B0025A4E0252B40F09C8016F840
:103DE000013F002B00F0A180252B00F094802D2BAB
:103DF00002D04FF0000806E001364FF0010802E063
:103E0000013648F002083378302BF9D00022914671
:103E10000AE02AB10A2303FB0B1B0BF0FF0B08E09F
:103E20000A2303FB0909013633782E2B03D14FF007
:103E3000000B0122F7E7A3F13000C1B20929E8D94C
:103E4000732B07D154F8041B3D4B5046002908BF83
:103E500019465AE0642B0BD1033B0293CDF8009036
:103E6000CDF80480271D504621680A22603B0CE0F3
:103E7000782B0FD1173BCDF80090CDF8048002933A
:103E80002168271D50461022613BFFF749FF2D187E
:103E90003C4645E0582B0BD1173B0293CDF80090E0
:103EA000CDF80480271D504621681022413BECE7E5
:103EB000752B0AD1143BCDF80090CDF80480029305
:103EC000271D504621680A22DEE7632B0DD12368A7
:103ED00050468DF8343000238DF835300DA94A4610
:103EE0004346271DFFF7DEFED1E7662B18D10734C6
:103EF00024F0070305AFD3E9000103F108043A46B3
:103F00005B4600F083FC504639464A464346FFF77D
:103F1000C9FE2D1804E050463178FFF7B9FE01358F
:103F200001363378002B7FF457AFBAF1000F03D07E
:103F3000DAF8003000221A7028460FB0BDE8F08F82
:103F400059CC00080EB40FB505AA52F8041B019015
:103F500001A80392FFF736FF04B05DF804EB03B04D
:103F600070470FB407B504AA52F8041B0020019251
:103F7000FFF728FFBDE80E4004B07047034B04492B
:103F80001A78885C01321A70704700BF4203002023
:103F90004C03002010B5FFF7F1FF0446FFF7EEFFDA
:103FA00004EB002080B210BD10B5FFF7F3FF04460C
:103FB000FFF7F0FF04EB004010BD000010B5044611
:103FC00001F0E8FE024B1A7854401C7010BD00BF8F
:103FD0004103002038B50546002401E0FFF7EEFF5D
:103FE000285D01340028F9D138BD0000014B187854
:103FF000FFF7E4BF4103002070B5044624200D46BE
:10400000FFF7DCFF4D20FFF7D9FF002C14BF212064
:104010003E20FFF7D3FF064B00221A702846FFF719
:10402000CDFF044B1878BDE87040FFF7C7BF00BF55
:10403000410300204503002001460120FFF7DCBFBB
:1040400001460020FFF7D8BF70B50B4D0B4C06465C
:10405000C0B2287001F09EFE2A782378B6B282EAB8
:104060000303300A2370287001F094FE23782A7825
:1040700082EA0303237070BD400300204103002047
:1040800070B5154D154C0646C0B2287001F082FE81
:104090002A782378300A82EA0303C0B2237028709A
:1040A00001F078FE2A782378300C82EA0303C0B24C
:1040B0002370287001F06EFE2A782378300E82EA91
:1040C00003032370287001F065FE23782A7882EAC2
:1040D0000303237070BD00BF48030020410300208C
:1040E00070B5A64B1B78002B00F05483BDE87040E0
:1040F000FEF7AEBF01F008FEA14B1A78A2B9242842
:1041000014BF002201221A70002A40F043832328A2
:1041100003D0522840F03E8302E0FEF799FF39E3D6
:10412000012001F0EFFC35E3012A04D14D280CBF3A
:104130000220002005E0022A05D13C280CBF032004
:104140000020187026E3032A11D1402801D9033A30
:104150001FE38C4A8C49107000220A708B490A7048
:104160008B4A107004221A70033A8A4B11E3042A16
:1041700007D1894A1070864A11784840107005228C
:1041800007E3052A40F006837F497E4B0A781B78B7
:1041900093427F4B0AD993F800C080EA0C0C83F855
:1041A00000C07E4B985401320A70F3E21B788342C0
:1041B00040F0ED82784B1B78722B00F0B98223D847
:1041C0006A2B5DD010D8662B00F0578106D8642B7F
:1041D00000F00381652B40F0D5820FE1682B00F0E1
:1041E000A08100F2AA8190E16E2B00F0E38105D856
:1041F0006C2B00F0AE8100F2D78141E0702B00F013
:10420000018200F27B823BE0CB2B00F0CF8010D804
:10421000762B00F09F8205D8742B00F07D8200F28F
:1042200080828CE2C92B1FD02ED8C82B40F0AA82E6
:1042300011E0CF2B24D005D8CD2B00F0988200F2CE
:104240009B82BDE0FA2B00F09A82FE2B18D0D02B77
:1042500040F0988281E20024FFF79CFE504BE05230
:104260000234102CF8D10BE0FFF788FEFFF786FE32
:10427000FFF79AFEFFF798FEFFF78CFEFFF78AFE26
:104280000020FFF7DDFE80E2464C04F13005FFF729
:1042900075FEFCF7F5FCC4F89C00FFF76FFEFCF719
:1042A000F3FC4149FCF7F8FDC4F8A000FFF766FEF7
:1042B000FCF7E6FCC4F8A4001034AC42E7D1FFF7E9
:1042C0005DFEFCF7DDFC374CC4F8FC00FFF756FE42
:1042D000FCF7DAFC3449FCF7DFFDC4F80001FFF716
:1042E0004DFEFCF7CDFCC4F8040100240134FFF7B7
:1042F00045FEFFF743FEFFF741FE032CF6D1FFF723
:104300003DFEFCF7BDFC274CC4F8CC00FFF736FEA1
:10431000FCF7BAFC2449FCF7BFFDC4F8D000FFF756
:104320002DFEFCF7ADFCD4F8CC30C4F8D400C4F8B2
:10433000DC30D4F8D030C4F8E400C4F8E030FFF743
:104340001DFEFCF79DFCC4F8EC00FFF717FEFCF720
:104350009BFC1549FCF7A0FDC4F8F000FFF70EFE2A
:10436000FCF78EFCC4F8F40000240134FFF706FECD
:10437000032CFAD1FEF7F0F882E700BFAC0800206A
:10438000440300204603002047030020420300208E
:104390004103002043030020450300204C0300207C
:1043A000DC080020F008002000007A44884C04F16A
:1043B0001C05FFF7EFFD60830234AC42F9D15FE7E3
:1043C000FFF7DCFDFFF7DAFDFFF7D8FDFFF7D6FDBD
:1043D000FFF7D4FDFFF7D2FDBCE10720FFF730FE69
:1043E000D220FFF7EBFD7A4B93F83600FFF7E6FD9E
:1043F0000020FFF7E3FD4FF000403BE00A20FFF70D
:104400001FFE744BB3F90000FFF71EFE00F076FCB0
:1044100000B2FFF719FE704BB3F90000FFF714FE6E
:104420006E4B59799A79890041EA42011A79114310
:104430005A7841EA42116A4AD07841EAC0011079BB
:1044400041EA0011D87941EA8011187A41EAC01195
:10445000587A9B7A41EA402141EA0323917A507BC2
:1044600043EA8123D17A43EAC123117B43EA013332
:1044700043EA4030FFF704FE87E15A4C1220FFF771
:10448000DFFD59492068FCF753FCFCF717FE00B22A
:10449000FFF7DAFD54496068FCF74AFCFCF70EFEB2
:1044A00000B2FFF7D1FD5049A068FCF741FCFCF7D2
:1044B00005FE00B2FFF7C8FD4C49E069FCF738FC87
:1044C000FCF7FCFD00B2FFF7BFFD4849206AFCF78E
:1044D0002FFCFCF7F3FD00B2FFF7B6FD4349606A1D
:1044E000FCF726FCFCF7EAFD00B2FFF7ADFDA06C7F
:1044F000FCF7E4FD00B2FFF7A7FDE06CFCF7DEFD82
:1045000000B2FFF7A1FD206D4AE01020FFF798FDF3
:104510000024374BE05E0234FFF796FD102CF8D1F3
:1045200033E11020FFF78CFD0024324BE05E0234B3
:10453000FFF78AFD102CF8D127E11020FFF780FD4E
:1045400000242D4BE05E0234FFF77EFD102CF8D1E5
:104550001BE1244C0820FFF773FD20692749FCF775
:10456000E7FB2149FCF7E4FBFCF7A8FD00B2FFF7ED
:104570006BFD60692149FCF7DBFB1B49FCF7D8FBAD
:10458000FCF79CFD00B2FFF75FFD1C49A069FCF73A
:10459000CFFBFCF793FD00B2FFF756FD184B1868F0
:1045A000FCF78CFD00B2C7E00420FFF749FD0D4B7E
:1045B000D86D5FE70320FFF743FD0A4B0A49186EE9
:1045C000FCF7B6FBFCF7A0FDC0B2FFF7F7FCB2E0CA
:1045D000F0080020D80700208A070020B808002033
:1045E000C8080020C80D0020000020410000C8427B
:1045F00000000020DC070020DC080020E02E6542DF
:10460000EC0800201E20FFF71BFD654C04F1480557
:1046100054F8080CFCF778FDC0B2FFF7CFFC6149F5
:1046200054F8040CFCF784FBFCF76EFDC0B2FFF7F6
:10463000C5FC54F8180BFCF767FDC0B2FFF7BEFCD1
:10464000AC42E5D1584CD4F89000FCF75DFDC0B207
:10465000FFF7B4FC5349D4F89400FCF769FBFCF76E
:1046600053FDC0B2FFF7AAFCD4F89800FCF74CFD4C
:10467000C0B2FFF7A3FC00240020FFF79FFC00203E
:10468000FFF79CFC01340020FFF798FC032CF3D1CA
:10469000454CA06CFCF738FDC0B2FFF78FFC4149D8
:1046A000E06CFCF745FBFCF72FFDC0B2FFF786FC82
:1046B000206DFCF729FDC0B2FFF780FCA06FFCF76E
:1046C00023FDC0B2FFF77AFC3649E06FFCF730FB00
:1046D000FCF71AFDC0B2FFF771FCD4F88000FCF7BC
:1046E00013FDC0B2FFF76AFC0020FFF767FC002053
:1046F000FFF764FC0020FFF761FC46E01C20FFF799
:104700009FFC2A4C04F11C05B4F91A000234FFF78F
:104710009BFCAC42F8D138E06D20FFF791FC2448B7
:1047200003E02F20FFF78CFC2248FFF753FC2CE01E
:104730000220FFF785FC0020FFF786FC25E008201B
:10474000FFF77EFC0124E0B20134FFF737FC092CAF
:10475000F9D11AE0FFF712FC92E50020FFF770FC98
:104760000120FFF70BF9002001F0CCF90DE002F079
:104770002FF902F0B1FA83E503F044F880E5FFF782
:10478000C3F87DE50020FFF757FCFFF72FFC0A4B2D
:1047900000221A7001F020FB00287FF4ABAC70BD42
:1047A000FC07002000007A44F4070020F0080020F5
:1047B00090CC000860CC00084403002038B50546C2
:1047C000B5FBF2F30846144613B11846FFF7F6FF9F
:1047D000B5FBF4F304FB1354024B1B5D00F8013BE3
:1047E00038BD00BF00CD0008931E222B88BF0A22CF
:1047F000031E10B50C4603DA2D2001F8010B5842B8
:10480000FFF7DCFF00230370204610BD2DE9FF4DAC
:10481000514C1F46002A18BF1446002300220646AA
:104820000D46FCF7B7F820B12D2304F8013B05F144
:104830000045072F19D80022002330462946FCF7EF
:10484000C7F8464BFA0038B1D31830462946D3E9A9
:104850000023FBF77BFC06E0D31830462946D3E95A
:104860000023FBF771FC06460D4600234FF00108BC
:1048700003E00A2202FB08F80133BB42F9D33046B9
:104880002946FCF7D7F8002302460CE04FF00A0C4B
:10489000B2FBFCF10CFB11220DF1040A30320AF8D4
:1048A000032001330A46002AF0D11BB9303304F843
:1048B000013B0BE00DF1040C0CEB030111F801AD11
:1048C00004F802A001326145F8D1E418002F3ED06F
:1048D000FBF778FD02460B4630462946FBF734FCD1
:1048E000824640468B46FBF76DFD02460B4650461E
:1048F0005946FBF7DDFDFCF79DF82E23224602F812
:10490000013B2E3B08E00A25B0FBF5FC05FB1C0033
:104910003030C8540133604601A90028F3D1C918CA
:1049200003E0302001F8010C01330131BB42F8D320
:1049300023B91446303304F8013B08E001A8C1183C
:1049400011F801CD814204F801CFF9D1D41800202B
:10495000207004B0BDE8F08D8C03002028CD000845
:1049600010B50B490446FCF795FB20B120460949D8
:10497000FCF7D4F808E020460749FCF777FB20B1A4
:1049800020460449FCF7CCF80446204610BD00BF81
:10499000DB0F4940DB0FC940DB0F49C000000000BE
:1049A0002DE9F84F044600E001342378202BFBD09A
:1049B000092BF9D02D2B05D101344FF0000ADFF877
:1049C00070B106E02B2BDFF864B108BF01344FF063
:1049D000000A0026002713E00022534B30463946D8
:1049E000FBF766FD064628460F46FBF7FBFC024632
:1049F0000B4630463946FBF7A9FB013406460F4605
:104A00002378A3F13005EAB2092AE5D92E2B21D16A
:104A100001344FF00008DFF8109116E0FBF7E2FCDC
:104A200042464B46FBF76EFE02460B463046394681
:104A3000FBF78CFB002206460F46404649463A4BA0
:104A4000FBF736FD01348046894620783038C3B202
:104A5000092BE3D92378652B01D0452B4CD1627803
:104A6000631C2D2A02D10133012503E02B2A08BF44
:104A7000013300250022144602E00A2000FB041442
:104A8000995C01323039C8B20928F6D9B4F59A7F59
:104A900028BF4FF49A740022244B09E010461946AF
:104AA0001DA3D3E90023FBF703FD323C02460B466E
:104AB000312CF3D8A04609E01046194618A3D3E9D3
:104AC0000023FBF7F5FC083C02460B46072CF3D805
:104AD00008F0070408E0104619460022124BFBF7C5
:104AE000E7FC013C02460B46002CF4D135B13046C0
:104AF0003946FBF707FE05E00C4B002230463946ED
:104B0000FBF7D6FC02460B4650465946FBF7D0FC55
:104B1000FBF7B0FFBDE8F88F9A647EC50E1B514AC3
:104B20000000000084D79741000024400000F03FBF
:104B30000000F0BFAFF300802DE9F74F056806468F
:104B4000884628462946FCF7F3F8746883462146D0
:104B50002046FCF7EDF8B768814639463846FCF741
:104B6000E7F8F668824631463046FCF7E1F8314610
:104B700001902046FCF7DCF83946034628460093AE
:104B8000FCF7D6F8009B01461846FBF7C7FF014625
:104B9000FBF7C6FF04F048FD3946C8F8040020467C
:104BA000FCF7C6F83146034628460093FCF7C0F8E8
:104BB000009B01461846FBF7B3FF0146FBF7B0FF29
:104BC0004946034658460093FBF7AAFF5146FBF7B8
:104BD000A5FF0199FBF7A2FF009B0146184604F0D0
:104BE0006FFD3146C8F808003846FCF7A1F82146A9
:104BF00006462846FCF79CF801463046FBF790FF36
:104C00000146FBF78DFF494604465846FBF786FFF1
:104C10005146FBF783FF0199FBF782FF01462046CF
:104C200004F04EFDC8F80000BDE8FE8F014B188867
:104C300080B27047AC03002030B52A4891B003F031
:104C400007FB294B00250093284B012401934FF4C7
:104C5000807306934FF480630793202308932148C1
:104C60004FF4005369460993029503940495059502
:104C70000A9503F05FFB1B48214603F07BFB4FF4D2
:104C800060231B480BA90D930B958DF830508DF8C0
:104C900031400E958DF83C4003F036FA224603234E
:104CA0001348042103F088FA1148214603F05CFA06
:104CB0000F48214603F04EFA0D4803F05FFA0C4806
:104CC00003F061FA0028FAD1094803F061FA0848B4
:104CD00003F063FA0028FAD10548012103F062FAD3
:104CE00011B030BD080002404C240140AC0300204C
:104CF00000240140BFF35F8F70470000014B18880C
:104D000080B27047AE030020F0B54FF4406389B025
:104D1000ADF8143002238DF8163012330DEB030179
:104D200005464A488DF8173003F02AFC47484FF4EF
:104D3000406103F07DFC002402E0032000F0CCFE83
:104D400042484FF4806103F06DFC0028F5D04FF429
:104D500080613E4803F06EFC032000F0BDFE01348C
:104D60003A484FF4806103F063FCE4B2032000F0A2
:104D7000B3FE082CE4D14FF40061344803F05AFC30
:104D8000032000F0A9FE4FF48061304803F052FC8C
:104D9000032000F0A1FE4FF480612C4803F048FC92
:104DA000032000F099FE4FF40061284803F040FC16
:104DB000032000F091FE4FF44063254CADF818300D
:104DC000022306A98DF81A3020481A338DF81B30BB
:104DD00003F0D6FB2560284601AD03F04BFD2846C5
:104DE00003F07AFC002220684FF4407103F0B6FC17
:104DF0004BF6FF73ADF80A304FF48043ADF8103036
:104E0000144B0026206829460193ADF8086003F092
:104E1000BDFC2068012103F06DFC07AC22238DF856
:104E20001C30204601238DF81F308DF81D608DF851
:104E30001E6003F037F92123204637468DF81C30D9
:104E40008DF81D6003F02EF909B0F0BD000C014093
:104E5000C4030020801A060010B54000224CC0B2E6
:104E600020702248224C017022480021017001204C
:104E70002070214C2360214C2360214B1A70214B60
:104E80001870214B1970214B1868838813F4007F28
:104E900011D1038813F4807F06D1038813F4007FB7
:104EA000FBD1012103F033FC184B4FF4407118681B
:104EB000012203F053FC47F23053124A127812B128
:104EC000013BFAD100E053B9114B1A88013292B27A
:104ED0001A800E4B1868FFF717FF002010BD0A4B11
:104EE000187880F0010010BDCA030020B103002033
:104EF000C0030020B0030020B4030020BC03002046
:104F0000B2030020C9030020B9030020C40300201D
:104F1000AE03002030B540002A4CC0B220702A48B1
:104F20002A4C01702A480121017000202070294C70
:104F3000294D2270294C85B02170C5F800D0284930
:104F4000284D102AC5F800D0087005D937E013F8AD
:104F500000C00DF800C00130C1B29142F7D3224B1E
:104F60001868838813F4007F11D1038813F4807FBD
:104F700006D1038813F4007FFBD1012103F0C7FBA6
:104F8000194B4FF440711868012203F0E7FB47F218
:104F90003053124A127812B1013BFAD100E053B9F2
:104FA000124B1A88013292B21A800F4B1868FFF721
:104FB000ABFE002003E00A4B187880F0010005B03A
:104FC00030BD00BFCA030020B1030020C003002091
:104FD000B0030020B2030020BC030020C90300205E
:104FE000B9030020B4030020C4030020AE03002056
:104FF00007B502AB03F8012D0122FFF78BFF0EBDB1
:10500000254B37B51868838A9BB20193019B13F433
:10501000706F02D0214B01221A70019B13F4E06FD4
:105020002ED0038B00229BB24FF48061009303F0DB
:1050300095FB019B13F4007F22D1174C2068038855
:1050400013F4007F1CD1058815F480750FD00388F8
:1050500013F4807FFBD1012103F066FB0E4B18682F
:10506000038813F4007FFBD1FFF74EFE08E0012117
:1050700003F05AFB20684FF440712A4603F06EFBA0
:10508000054B1A68938A23F470631B041B0C9382EC
:10509000034B00221A703EBDC4030020B903002058
:1050A000C9030020FFF7ACBFFFF7AABF2DE9F04FFF
:1050B000954C85B02068828AD2B212F001063BD0AE
:1050C0000388012123F400631B041B0C038003F0FD
:1050D00038FB8E4B00221A708D4B1B78E3B18D4B41
:1050E0001B781BB98C4B1B78FF2B15D1894B0122E8
:1050F0001A708A4B1B78022B06D1834B1B681A88C7
:1051000092B242F400621A80854B012219787E4BDC
:10511000186803F033FB38E1814B002219787A4B91
:10512000186803F02BFB7C4B1B78FF2B00F02D81C4
:105130004FF0FF32754BE5E012F0020347D00190CB
:10514000FFF7D8FD754B01981D78012D19D1704BD3
:105150001B78B3B16F4B1B789BB1314603F0F1FA6A
:10516000FFF7C8FD20682946038BDBB28DF80F30AE
:1051700003F0DAFA6B4B20681D704FF480612A4609
:1051800001E1038B0190DBB28DF80F30FFF7B2FD28
:10519000624B01981B78022B09D15D4B1B7833B110
:1051A0005C4B1B781BB1002103F0CBFAE6E05B4BB4
:1051B0001B78032B07D1564B1B7823B1554B1B781B
:1051C000002B40F0DD804FF480610122DBE012F023
:1051D000040572D04E4ADFF84C811278012688F817
:1051E0000060002A4FD04B4A1278002A4BD04B4A1D
:1051F000464D12784C4F022A2AD9194603F0A1FADB
:10520000206895F800A0D7F8009003F0B4FA4FFAA0
:105210008AFB0BF80900B244314685F800A02068EB
:1052200003F082FA88F80060206895F800803F68F3
:1052300003F0A1FA4FFA88FA0AF80700B04485F89B
:10524000008020684FF48061324603F087FA2DE039
:10525000314603F069FA2068D7F800802E7803F011
:105260008AFA4FFA86FA01360AF80800F6B22E706A
:1052700020683F6803F07FFA4FFA86F8023608F894
:1052800007002E7012E0234C237813B9274B1B78AC
:105290003BB1012103F048FA1C4B1A7801321A7015
:1052A00004E0012103F033FA01232370164B1B683D
:1052B0001A8812F4807FFBD167E012F0400637D0E5
:1052C000194B124ED3F80080377803F054FA4FFA96
:1052D00087FA124B01370AF80800FFB237701B78C3
:1052E0007FB20337BB4205D120684FF480612A4664
:1052F00003F034FA094B1878044B1A7851B28842FB
:1053000043D101321A7040E0C4030020C8030020DA
:10531000C0030020CB030020B1030020B203002013
:10532000CA030020B8030020B4030020B00300200B
:1053300012F0800F29D0224D2B785AB2B2F1FF3FE4
:1053400011D0204901330968515C2B7003F011FA28
:105350001D4B1A7895F900309A4216D120684FF407
:10536000806132460FE0194B2E70197803F001FA74
:10537000174B1B7813B9144B1B7833B9154B1868AE
:105380004FF48061002203F0E9F90F4B0C4A1B78BF
:1053900092F9002001339A420ED10F4B00221A706D
:1053A0000E4B1B782BB10B4B4FF44071186803F078
:1053B000D5F90B4B00221A7005B0BDE8F08F00BF85
:1053C000C8030020BC030020B2030020B10300206A
:1053D000C0030020C4030020CB030020B80300203A
:1053E000C9030020FFF762BEFFF760BE134A1448EE
:1053F00013881180C91A038089B240F68C23994220
:1054000003D9104B00221A707047A1F53A73073B7D
:105410009BB240F2DA52934206D80A4B1B78072B14
:105420009CBF094A22F81310064B1A7801321A70F1
:10543000064B4FF000021A80704700BF2C05002079
:1054400050050020CC030020D00300206C0A00206F
:10545000044B1B78834204D9034B53F820305B681C
:1054600019807047F9040020FC040020044B1B78CD
:10547000834204D9034B53F820305B68198070478E
:10548000FA04002030050020014B33F8100070476B
:10549000D00300207FB501AD044628460E4603F038
:1054A00017FC4FF04703013EADF8043020460023BF
:1054B0002946ADF80860ADF80A30ADF8063003F0C3
:1054C00083FA7FBD73B50D460446164601A803F066
:1054D000A1F8ADF804500EB1282300E018238DF890
:1054E00007302046022301A98DF8063003F048F862
:1054F0007CBDF0B585B001AE044630460D4617467A
:1055000003F0F9FB4FF00103ADF80830204600230B
:105510003146ADF80450ADF80670ADF80A30ADF87C
:105520000C3003F015FD05B0F0BD0000194B14223E
:1055300070B502FB003303F10802D4784FEA001C77
:10554000154D400064B90123D37005EBC003918071
:105550005CF80500197B0222BDE87040FFF7C9BF67
:10556000B2F804E0D180CEEB010189B2198292F841
:1055700002E00A4B002423F81E1005EBC003D47090
:10558000197B5CF805002246FFF7B3FF044B1C8033
:1055900070BD00BFE003002090CD0008D0030020C4
:1055A0006C0A00202DE9F04F2D4D1346020154598D
:1055B00006464FF01408760085B002EB050908FB9B
:1055C00000F801368B4620464FF6FF710193FFF736
:1055D00061FF55F83610D9F80400012205EBC60525
:1055E000FFF770FF2E79002220463146FFF781FF3A
:1055F0002046012103F088FB6A79DFF868A08DF866
:105600000C2000228DF80D2003A801328DF80E2009
:105610008DF80F2002F046FD019B0AEB08074AF8BF
:1056200008B0BB720C2E16D8DFE806F0071515156A
:105630000A1515150D15151510002046022107E055
:105640002046042104E02046082101E020461021E4
:10565000012203F076FB384605B0BDE8F08F00BFAD
:1056600090CD0008E003002070B50D4602210446ED
:1056700003F0D7FB012820460BD1022103F0DCFB0D
:105680006BB214225A43254B2046D65803F0BCFB7C
:1056900027E0042103F0C5FB01280ED10135204687
:1056A000EDB2042103F0C8FB6BB214225A431B4B2A
:1056B0002046D65803F0ABFB13E00821204603F048
:1056C000B0FB012811D102352046EDB2082103F0CC
:1056D000B3FB6BB214225A43104B2046D65803F04A
:1056E00099FB01462846B04770BD1021204603F0C3
:1056F00098FB012810D103351021EDB2204603F0AC
:105700009BFB6BB214225A43044B2046D65803F03D
:1057100084FB01462846B04770BD00BFE00300206F
:1057200001480A21FFF7A0BF0008004001480421FA
:10573000FFF79ABF000400404FF080400021FFF7C0
:1057400093BF0000022110B5124803F06AFB012844
:1057500010480CD1022103F06FFB0F4B0D48D3F81A
:10576000A04003F051FB01460820A04710BD1021C6
:1057700003F057FB01280CD11021064803F05CFB15
:10578000054B0448D3F8B44003F047FB0146092019
:10579000A04710BD002C0140E00300202DE9F0459A
:1057A000444B454F142505FB00350301DC590646E3
:1057B0004FEA460885B003EB070A204608F10108C6
:1057C000FFF768FE57F83810DAF804000022FFF7F8
:1057D00079FE07EBC80768463F7903F082FA4FF07D
:1057E0007003ADF800304FF00103ADF802304FF018
:1057F0000003ADF804304FF47A73ADF806304FF083
:105800000203ADF808304FF48073ADF80C300C2F64
:105810002BD8DFE807F0072A2A2A102A2A2A192A71
:105820002A2A22002046694603F024F9204608214E
:1058300003F092FA19E02046694603F073F9204616
:10584000082103F092FA10E02046694603F0B6F909
:105850002046082103F093FA07E02046694603F04A
:10586000F7F92046082103F093FA134B03EB0616D1
:10587000B37B1BB12046012103F053FA20460121DE
:1058800003F042FA0C2F10D8DFE807F0070F0F0FD4
:10589000090F0F0F0B0F0F0F0D00343404E03834D5
:1058A00002E03C3400E040346C60284605B0BDE8BE
:1058B000F08500BFE003002090CD00080379427816
:1058C0002DE9F041002B14BF02230023044602B14E
:1058D0000133304A002552F82370785DFF2856D0F6
:1058E00010F0300F00F0F00303D02278002A08BF38
:1058F0000023A27800F00F002AB1A0F10802D2B272
:10590000012A98BF8023E27822B1021FD2B2032A73
:1059100098BF802313F0100F07D000221E49FFF715
:1059200041FE1E4B08221A702EE013F0200F08D003
:105930001A4E1B493278FFF735FE33780133337046
:1059400022E013F0400F0BD0E3881649164E91FB6E
:10595000F3F189B296F80080FFF720FF134B0DE0BA
:1059600013F0800F10D023890E49114E91FBF3F1F3
:1059700089B296F80080FFF711FF0E4B43F828001C
:1059800008F1010886F8008001350E2DA5D1002010
:10599000BDE8F08170CE0008ED530008F804002047
:1059A0002D55000840420F00F9040020FC0400209F
:1059B000FA04002030050020044B1A6801321A60F6
:1059C000034B1A68034B1A60704700BF5405002050
:1059D000041000E01C07002072B6084B084A186843
:1059E000084B1B68126862B60749C31A09684FF46E
:1059F0007A70B3FBF1F300FB02307047041000E053
:105A0000540500201C0700201807002070B5002353
:105A100004460E46054D5D19EA681033002AF9D197
:105A2000FFF7DAFF28606E60EC6070BD180600209A
:105A300070B5002304460E46054D5D19AA680C3367
:105A4000002AF9D1FFF7C8FF28606E60AC6070BD16
:105A5000580500202DE9F04100250C276F43194E11
:105A6000BC19A36853B1FFF7B7FFBA596368821A2C
:105A70009A4203D9A36898470023A360124C6F0091
:105A8000013704EBC708D8F80430ABB1FFF7A4FF27
:105A90002E01331932595B68821A9A420CD9D8F810
:105AA0000430984756F80480FFF796FF3051335979
:105AB000C8EB030344F837300135102DCDD1BDE8D4
:105AC000F08100BF5805002018060020014B18681F
:105AD000704700BF5405002038B50546FFF77CFF2E
