:020000040800F2
:100000000050002075130008191400081914000886
:100010001914000819140008191400080000000041
:10002000000000000000000000000000191400089B
:1000300019140008000000001914000809520008F3
:1000400019140008191400081914000819140008DC
:1000500019140008191400081914000819140008CC
:1000600019140008191400081914000819140008BC
:100070001914000819140008015700081914000881
:10008000191400081914000819140008191400089C
:10009000191400081914000819140008191400088C
:1000A000191400081914000819140008191400087C
:1000B000615100085551000819140008214C00082E
:1000C000E14800081D4C0008DD480008191400082C
:1000D000191400081914000819140008191400084C
:1000E0001914000819140008191400080000000071
:1000F0000000000000000000000000000000000000
:0C01000000000000000000005FF808F1A3
:1001100040F2A813C2F200031A780AB9012018703D
:10012000704700BF40F2A810C2F2000008B5036893
:100130002BB140F20003C0F2000303B1984708BDA1
:1001400081F0004102E000BF83F0004330B54FEA88
:1001500041044FEA430594EA050F08BF90EA020FF5
:100160001FBF54EA000C55EA020C7FEA645C7FEA88
:10017000655C00F0E2804FEA5454D4EB5555B8BFAB
:100180006D420CDD2C4480EA020281EA030382EA1C
:10019000000083EA010180EA020281EA0303362DAE
:1001A00088BF30BD11F0004F4FEA01314FF4801C81
:1001B0004CEA113102D0404261EB410113F0004F93
:1001C0004FEA03334CEA133302D0524263EB43034A
:1001D00094EA050F00F0A780A4F10104D5F1200EE8
:1001E0000DDB02FA0EFC22FA05F2801841F1000143
:1001F00003FA0EF2801843FA05F359410EE0A5F117
:1002000020050EF1200E012A03FA0EFC28BF4CF047
:10021000020C43FA05F3C01851EBE37101F00045FD
:1002200007D54FF0000EDCF1000C7EEB00006EEB0A
:100230000101B1F5801F1BD3B1F5001F0CD3490894
:100240005FEA30004FEA3C0C04F101044FEA4452EB
:1002500012F5800F80F09A80BCF1004F08BF5FEA72
:10026000500C50F1000041EB045141EA050130BD52
:100270005FEA4C0C404141EB010111F4801FA4F1F5
:100280000104E9D191F0000F04BF01460020B1FA4A
:1002900081F308BF2033A3F10B03B3F120020CDA82
:1002A0000C3208DD02F1140CC2F10C0201FA0CF060
:1002B00021FA02F10CE002F11402D8BFC2F1200CC5
:1002C00001FA02F120FA0CFCDCBF41EA0C0190407B
:1002D000E41AA2BF01EB0451294330BD6FEA0404C4
:1002E0001F3C1CDA0C340EDC04F11404C4F12002AF
:1002F00020FA04F001FA02F340EA030021FA04F3C1
:1003000045EA030130BDC4F10C04C4F1200220FA17
:1003100002F001FA04F340EA0300294630BD21FA55
:1003200004F0294630BD94F0000F83F4801306BF1B
:1003300081F480110134013D4EE77FEA645C18BF0F
:100340007FEA655C29D094EA050F08BF90EA020FA6
:1003500005D054EA000C04BF1946104630BD91EA9E
:10036000030F1EBF0021002030BD5FEA545C05D1A1
:100370004000494128BF41F0004130BD14F58004E0
:100380003CBF01F5801130BD01F0004545F0FE4154
:1003900041F470014FF0000030BD7FEA645C1ABF89
:1003A000194610467FEA655C1CBF0B46024650EAC0
:1003B000013406BF52EA033591EA030F41F40021EC
:1003C00030BD00BF90F0000F04BF0021704730B572
:1003D0004FF4806404F132044FF000054FF0000147
:1003E00050E700BF90F0000F04BF0021704730B508
:1003F0004FF4806404F1320410F0004548BF4042DD
:100400004FF000013EE700BF42004FEAE2014FEA31
:1004100031014FEA02701FBF12F07F4393F07F4F0C
:1004200081F06051704792F0000F14BF93F07F4F3E
:10043000704730B54FF4607401F0004521F0004181
:1004400020E700BF50EA010208BF704730B54FF007
:1004500000050AE050EA010208BF704730B511F00C
:10046000004502D5404261EB41014FF4806404F144
:1004700032045FEA915C3FF4DCAE4FF003025FEAC6
:10048000DC0C18BF03325FEADC0C18BF033202EB4E
:10049000DC02C2F1200300FA03FC20FA02F001FAA8
:1004A00003FE40EA0E0021FA02F11444C1E600BF47
:1004B00070B54FF0FF0C4CF4E06C1CEA11541DBFFA
:1004C0001CEA135594EA0C0F95EA0C0F00F0DEF8C5
:1004D0002C4481EA030621EA4C5123EA4C5350EAAA
:1004E000013518BF52EA033541F4801143F48013FB
:1004F00038D0A0FB02CE4FF00005E1FB02E506F08C
:100500000042E0FB03E54FF00006E1FB03569CF0E0
:10051000000F18BF4EF0010EA4F1FF04B6F5007FE6
:1005200064F5407404D25FEA4E0E6D4146EB060658
:1005300042EAC62141EA55514FEAC52040EA5E50E1
:100540004FEACE2EB4F1FD0C88BFBCF5E06F1ED88B
:10055000BEF1004F08BF5FEA500E50F1000041EBC2
:10056000045170BD06F0004646EA010140EA02006F
:1005700081EA0301B4EB5C04C2BFD4EB0C0541EA91
:10058000045170BD41F480114FF0000E013C00F3A6
:10059000AB8014F1360FDEBF002001F0004170BDCA
:1005A000C4F10004203C35DA0C341BDC04F11404E3
:1005B000C4F1200500FA05F320FA04F001FA05F26F
:1005C00040EA020001F0004221F0004110EBD3703C
:1005D00021FA04F642EB06015EEA430E08BF20EA68
:1005E000D37070BDC4F10C04C4F1200500FA04F30B
:1005F00020FA05F001FA04F240EA020001F000419D
:1006000010EBD37041F100015EEA430E08BF20EA0F
:10061000D37070BDC4F1200500FA05F24EEA020E57
:1006200020FA04F301FA05F243EA020321FA04F086
:1006300001F0004121FA04F220EA020000EBD3703D
:100640005EEA430E08BF20EAD37070BD94F0000F3D
:100650000FD101F00046400041EB010111F4801F71
:1006600008BF013CF7D041EA060195F0000F18BF22
:10067000704703F00046520043EB030313F4801F5E
:1006800008BF013DF7D043EA0603704794EA0C0F18
:100690000CEA135518BF95EA0C0F0CD050EA41062E
:1006A00018BF52EA4306D1D181EA030101F00041AB
:1006B0004FF0000070BD50EA410606BF10461946D3
:1006C00052EA430619D094EA0C0F02D150EA0136DF
:1006D00013D195EA0C0F05D152EA03361CBF104620
:1006E00019460AD181EA030101F0004141F0FE41BF
:1006F00041F470014FF0000070BD41F0FE4141F443
:10070000780170BD70B54FF0FF0C4CF4E06C1CEA42
:1007100011541DBF1CEA135594EA0C0F95EA0C0FF7
:1007200000F0A7F8A4EB050481EA030E52EA0335B2
:100730004FEA013100F088804FEA03334FF08055D3
:1007400045EA131343EA12634FEA022245EA111500
:1007500045EA10654FEA00260EF000419D4208BFB1
:10076000964244F1FD0404F5407402D25B084FEA5E
:100770003202B61A65EB03055B084FEA32024FF40A
:1007800080104FF4002CB6EB020E75EB030E22BF67
:10079000B61A754640EA0C005B084FEA3202B6EB27
:1007A000020E75EB030E22BFB61A754640EA5C00D6
:1007B0005B084FEA3202B6EB020E75EB030E22BF66
:1007C000B61A754640EA9C005B084FEA3202B6EB67
:1007D000020E75EB030E22BFB61A754640EADC0026
:1007E00055EA060E18D04FEA051545EA16754FEA88
:1007F00006164FEAC30343EA52734FEAC2025FEAA6
:100800001C1CC0D111F4801F0BD141EA00014FF034
:1008100000004FF0004CB6E711F4801F04BF014305
:100820000020B4F1FD0C88BFBCF5E06F3FF6AFAE21
:10083000B5EB030C04BFB6EB020C5FEA500C50F1B1
:10084000000041EB045170BD0EF0004E4EEA113134
:1008500014EB5C04C2BFD4EB0C0541EA045170BD3B
:1008600041F480114FF0000E013C90E645EA060E7F
:100870008DE60CEA135594EA0C0F08BF95EA0C0FAD
:100880003FF43BAF94EA0C0F0AD150EA01347FF4F5
:1008900034AF95EA0C0F7FF425AF104619462CE7CC
:1008A00095EA0C0F06D152EA03353FF4FDAE10462F
:1008B000194622E750EA410618BF52EA43067FF480
:1008C000C5AE50EA41047FF40DAF52EA43057FF410
:1008D000EBAE12E74FF0FF3C06E000BF4FF0010C1B
:1008E00002E000BF4FF0010C4DF804CD4FEA410C7F
:1008F0007FEA6C5C4FEA430C18BF7FEA6C5C1BD04C
:1009000001B050EA410C0CBF52EA430C91EA030FCC
:1009100002BF90EA020F0020704710F1000F91EA29
:10092000030F58BF994208BF90422CBFD8176FEAF7
:10093000E37040F0010070474FEA410C7FEA6C5CC5
:1009400002D150EA013C07D14FEA430C7FEA6C5CCC
:10095000D6D152EA033CD3D05DF8040B704700BFF8
:100960008446104662468C461946634600E000BF46
:1009700001B5FFF7B7FF002848BF10F1000F01BD18
:100980004DF808EDFFF7F4FF0CBF012000205DF8E3
:1009900008FB00BF4DF808EDFFF7EAFF34BF012068
:1009A00000205DF808FB00BF4DF808EDFFF7E0FF01
:1009B00094BF012000205DF808FB00BF4DF808ED52
:1009C000FFF7CEFF94BF012000205DF808FB00BFB9
:1009D0004DF808EDFFF7C4FF34BF012000205DF89B
:1009E00008FB00BF4A0011D212F5001211D20DD53A
:1009F0006FF47873B3EB62520ED44FEAC12343F025
:100A0000004343EA505323FA02F070474FF00000CE
:100A1000704750EA013002D14FF0FF3070474FF07D
:100A2000000070474FEA4102B2F1E04324BFB3F542
:100A3000001CDCF1FE5C0DD901F0004C4FEAC00255
:100A40004CEA5070B2F1004F40EB830008BF20F039
:100A50000100704711F0804F21D113F13872BCBFF3
:100A600001F00040704741F480114FEA5252C2F148
:100A70001802C2F1200C10FA0CF320FA02F018BF91
:100A800040F001004FEAC1234FEAD32303FA0CFCE4
:100A900040EA0C0023FA02F34FEA4303CCE77FEA73
:100AA000625307D150EA01331EBF4FF0FE4040F4BD
:100AB0004000704701F0004040F0FE4040F400006C
:100AC000704700BF80F0004002E000BF81F00041AD
:100AD00042001FBF5FEA410392EA030F7FEA226CE4
:100AE0007FEA236C6AD04FEA1262D2EB1363C1BF74
:100AF000D218414048404140B8BF5B42192B88BFE3
:100B0000704710F0004F40F4000020F07F4018BF05
:100B1000404211F0004F41F4000121F07F4118BF25
:100B2000494292EA030F3FD0A2F1010241FA03FCCD
:100B300010EB0C00C3F1200301FA03F100F00043B5
:100B400002D5494260EB4000B0F5000F13D3B0F17D
:100B5000807F06D340084FEA310102F10102FE2AEC
:100B600051D2B1F1004F40EBC25008BF20F001005C
:100B700040EA03007047490040EB000010F4000F0A
:100B8000A2F10102EDD1B0FA80FCACF1080CB2EB9D
:100B90000C0200FA0CF0AABF00EBC25052421843FC
:100BA000BCBFD0401843704792F0000F81F40001A1
:100BB00006BF80F400000132013BB5E74FEA410374
:100BC0007FEA226C18BF7FEA236C21D092EA030FE0
:100BD00004D092F0000F08BF0846704790EA010F5A
:100BE0001CBF0020704712F07F4F04D1400028BF87
:100BF00040F00040704712F100723CBF00F5000069
:100C0000704700F0004343F0FE4040F4000070479E
:100C10007FEA226216BF08467FEA2363014642024A
:100C200006BF5FEA412390EA010F40F4800070475D
:100C30004FF0000304E000BF10F0004348BF404203
:100C40005FEA000C08BF704743F0964301464FF03F
:100C500000001CE050EA010208BF70474FF000039B
:100C60000AE000BF50EA010208BF704711F00043DC
:100C700002D5404261EB41015FEA010C02BF8446AC
:100C80000146002043F0B64308BFA3F18053A3F50B
:100C90000003BCFA8CF2083AA3EBC25310DB01FA52
:100CA00002FC634400FA02FCC2F12002BCF1004FD6
:100CB00020FA02F243EB020008BF20F00100704767
:100CC00002F1200201FA02FCC2F1200250EA4C00BB
:100CD00021FA02F243EB020008BF20EADC70704701
:100CE0004FF0FF0C1CEAD0521EBF1CEAD15392EA0F
:100CF0000C0F93EA0C0F6FD01A4480EA010C4002EB
:100D000018BF5FEA41211ED04FF0006343EA501044
:100D100043EA5111A0FB01310CF00040B1F5000F86
:100D20003EBF490041EAD3715B0040EA010062F135
:100D30007F02FD2A1DD8B3F1004F40EBC25008BF1F
:100D400020F00100704790F0000F0CF0004C08BF3D
:100D500049024CEA502040EA51207F3AC2BFD2F10A
:100D6000FF0340EAC250704740F400004FF0000318
:100D7000013A5DDC12F1190FDCBF00F00040704752
:100D8000C2F10002410021FA02F1C2F1200200FA90
:100D900002FC5FEA310040F1000053EA4C0308BF57
:100DA00020EADC70704792F0000F00F0004C02BFA8
:100DB000400010F4000F013AF9D040EA0C0093F023
:100DC000000F01F0004C02BF490011F4000F013B7D
:100DD000F9D041EA0C018FE70CEAD15392EA0C0FEB
:100DE00018BF93EA0C0F0AD030F0004C18BF31F056
:100DF000004CD8D180EA010000F00040704790F02C
:100E0000000F17BF90F0004F084691F0000F91F0CF
:100E1000004F14D092EA0C0F01D142020FD193EA95
:100E20000C0F03D14B0218BF084608D180EA01001D
:100E300000F0004040F0FE4040F40000704740F0F9
:100E4000FE4040F4400070474FF0FF0C1CEAD052C7
:100E50001EBF1CEAD15392EA0C0F93EA0C0F69D023
:100E6000A2EB030280EA010C49024FEA402037D08E
:100E70004FF0805343EA111143EA10130CF0004085
:100E80008B4238BF5B0042F17D024FF4000C8B4275
:100E900024BF5B1A40EA0C00B3EB510F24BFA3EB55
:100EA000510340EA5C00B3EB910F24BFA3EB910325
:100EB00040EA9C00B3EBD10F24BFA3EBD10340EA7F
:100EC000DC001B0118BF5FEA1C1CE0D1FD2A3FF6C5
:100ED00050AF8B4240EBC25008BF20F0010070477A
:100EE0000CF0004C4CEA50207F32C2BFD2F1FF031D
:100EF00040EAC250704740F400004FF00003013A4E
:100F000037E792F0000F00F0004C02BF400010F4F1
:100F1000000F013AF9D040EA0C0093F0000F01F005
:100F2000004C02BF490011F4000F013BF9D041EA27
:100F30000C0195E70CEAD15392EA0C0F08D142025A
:100F40007FF47DAF93EA0C0F7FF470AF084676E72D
:100F500093EA0C0F04D14B023FF44CAF08466EE706
:100F600030F0004C18BF31F0004CCAD130F00042D4
:100F70007FF45CAF31F000437FF43CAF5FE700BF2C
:100F80004FF0FF3C06E000BF4FF0010C02E000BF55
:100F90004FF0010C4DF804CD4FEA40024FEA4103F7
:100FA0007FEA226C18BF7FEA236C11D001B052EAAD
:100FB000530C18BF90EA010F58BFB2EB030088BF73
:100FC000C81738BF6FEAE17018BF40F001007047E2
:100FD0007FEA226C02D15FEA402C05D17FEA236CC4
:100FE000E4D15FEA412CE1D05DF8040B704700BF0B
:100FF000844608466146FFE70FB5FFF7C9FF0028A2
:1010000048BF10F1000F0FBD4DF808EDFFF7F4FFDA
:101010000CBF012000205DF808FB00BF4DF808ED73
:10102000FFF7EAFF34BF012000205DF808FB00BF96
:101030004DF808EDFFF7E0FF94BF012000205DF8B8
:1010400008FB00BF4DF808EDFFF7D2FF94BF012069
:1010500000205DF808FB00BF4DF808EDFFF7C8FF62
:1010600034BF012000205DF808FB00BF4FEA4002BA
:10107000B2F1FE4F0FD34FF09E03B3EB12620DD9C6
:101080004FEA002343F0004310F0004F23FA02F030
:1010900018BF404270474FF00000704712F1610FD7
:1010A00001D1420205D110F0004008BF6FF00040AE
:1010B00070474FF00000704742000ED2B2F1FE4F71
:1010C0000BD34FF09E03B3EB126209D44FEA002317
:1010D00043F0004323FA02F070474FF000007047DE
:1010E00012F1610F01D1420202D14FF0FF3070477F
:1010F0004FF00000704700BF4A1E08BF7047C0F0A5
:101100002481884240F21681114200F01781B0FA22
:1011100080F3B1FA81F2A2EB0303C3F11F0304A22F
:1011200002EB03134FF000029F4600BFAFF30080B5
:10113000B0EBC17F00BF42EB020228BFA0EBC17041
:10114000B0EB817F00BF42EB020228BFA0EB8170B1
:10115000B0EB417F00BF42EB020228BFA0EB417021
:10116000B0EB017F00BF42EB020228BFA0EB017091
:10117000B0EBC16F00BF42EB020228BFA0EBC16021
:10118000B0EB816F00BF42EB020228BFA0EB816091
:10119000B0EB416F00BF42EB020228BFA0EB416001
:1011A000B0EB016F00BF42EB020228BFA0EB016071
:1011B000B0EBC15F00BF42EB020228BFA0EBC15001
:1011C000B0EB815F00BF42EB020228BFA0EB815071
:1011D000B0EB415F00BF42EB020228BFA0EB4150E1
:1011E000B0EB015F00BF42EB020228BFA0EB015051
:1011F000B0EBC14F00BF42EB020228BFA0EBC140E1
:10120000B0EB814F00BF42EB020228BFA0EB814050
:10121000B0EB414F00BF42EB020228BFA0EB4140C0
:10122000B0EB014F00BF42EB020228BFA0EB014030
:10123000B0EBC13F00BF42EB020228BFA0EBC130C0
:10124000B0EB813F00BF42EB020228BFA0EB813030
:10125000B0EB413F00BF42EB020228BFA0EB4130A0
:10126000B0EB013F00BF42EB020228BFA0EB013010
:10127000B0EBC12F00BF42EB020228BFA0EBC120A0
:10128000B0EB812F00BF42EB020228BFA0EB812010
:10129000B0EB412F00BF42EB020228BFA0EB412080
:1012A000B0EB012F00BF42EB020228BFA0EB0120F0
:1012B000B0EBC11F00BF42EB020228BFA0EBC11080
:1012C000B0EB811F00BF42EB020228BFA0EB8110F0
:1012D000B0EB411F00BF42EB020228BFA0EB411060
:1012E000B0EB011F00BF42EB020228BFA0EB0110D0
:1012F000B0EBC10F00BF42EB020228BFA0EBC10060
:10130000B0EB810F00BF42EB020228BFA0EB8100CF
:10131000B0EB410F00BF42EB020228BFA0EB41003F
:10132000B0EB010F00BF42EB020228BFA0EB0100AF
:10133000104670470CBF012000207047B1FA81F2BF
:10134000C2F11F0220FA02F0704708B14FF0FF30DF
:1013500000F00EB80029F8D02DE90340FFF7CCFECD
:10136000BDE8064002FB00F3A1EB0301704700BF9C
:10137000704700BF1A481B49026800608A4219D0B2
:10138000002103E0184B5B58435004311748184BB9
:1013900042189A42F6D3174A02E0002342F8043B6F
:1013A000154B9A42F9D306F0A1FB09F005FF00F0B6
:1013B00071F8FEE7114E124830601248016821F0C2
:1013C00070610160410201600F4C182020600F49DC
:1013D0000F4808600F48D0F800D040680047000070
:1013E000F04F0020EFBEADDEE4CD0008000000208D
:1013F000A8010020A8010020981100201810024028
:101400000900000004000140140C0140000C0140E0
:101410004434434400F0FF1FFEE700000E4B5B78AE
:101420002BB90E4BDA6882F01002DA6009E00C4B3F
:101430001B791BB1094B10225A6102E0074B1022A5
:101440001A61074B5B781BB1044B08225A61704745
:10145000024B08221A617047F4060020000C01407C
:101460009005002010B503F0DFFE084B084A19680C
:101470001860411A116000F07FFE00F0ADF800F036
:10148000EFFDBDE8104000F0A1BD00BFAC010020A1
:10149000E404002008B503F04DFF05F0A5FE00F0C0
:1014A000F3FD1D4840F6055103F0D8FE1B4841F2FC
:1014B000883103F0D3FE1A4844F6206103F0CEFED3
:1014C000184B93F8443023B1174843F2154103F009
:1014D000C5FE164844F6206103F0C0FE14481549C5
:1014E00003F0BCFE144844F6206103F0B7FE134835
:1014F000104903F0B3FE0B4B93F8503023B1104862
:1015000049F6404103F0AAFE03F0BAFE05F0B0FE32
:1015100005F0DEFEF8E700BF9957000865140008E3
:10152000352E0008F406002031730008917300087E
:1015300035570008A0860100953900081D140008E1
:10154000FD730008214A92F83230191FC9B20129EF
:1015500012D9012B10D0022B0ED0032B0CD0092B4B
:101560000AD0112B08D0122B04D192F8D820042ACB
:1015700002D903E0152B01D1012100E00021144A1A
:10158000013B1170142B1FD8DFE803F00F11110D70
:101590000B13131E11131E1E1E1E1E1E11151E1EC2
:1015A0001B0000220AE0022208E0032206E00422D7
:1015B00004E0062202E0054B93F8D820054B1A7090
:1015C0007047044B01221A70704700BFC405002009
:1015D000B0010020E80400202DE9F74F974B984C0C
:1015E00093F83230013B142B00F28D84DFE813F0C6
:1015F000AC00340178012B00BC03FC0168028B04B1
:10160000B701D0028B048B048B048B048B048B04F6
:101610003B0315008B048B0423048A4B874AD3F8C1
:101620000C90894B92F8B870D3F800A0D3F80480DE
:101630009E68864B02F1DC041B78E8320C21804D59
:1016400001FB032381E3804F7E4B7E6800213046FF
:10165000D3F80C90FFF744FB784D804695F9B8001D
:10166000FFF7EAFAB968FFF73BFB0021D7F800A0C3
:101670000746FFF735FB514683464846FFF728FAF1
:101680004146FFF725FA5946FFF722FAFFF714FD06
:10169000514620804846FFF719FA4146FFF718FAED
:1016A0005946FFF715FAFFF707FD6080B5F8AE0061
:1016B000FFF7C2FA3946FFF70BFA3146FFF708FA8F
:1016C0000446B5F8AC00FFF7B7FA8046414620461D
:1016D000FFF7A4FC08B140460CE0B5F8B000FFF7F6
:1016E000ABFA054629462046FFF7B6FC08B1284666
:1016F00000E02046FFF7E0FC504D554B80B21880CB
:10170000B5F8B400FFF798FA3946FFF7E1F931462A
:10171000FFF7DCF90446B5F8B200FFF78DFA06468C
:1017200031462046FFF77AFC002840F06F83B5F879
:10173000B600FFF781FA054629462046FFF78CFCE4
:10174000002800F06F836FE33F4E3E4BD6F804A0B5
:101750004FF040415046DF68FFF7C2FA3D49FFF7BE
:1017600073FB364D814695F9B800FFF765FAB1680D
:10177000FFF7B6FA00218346FFF7B2FAD6F80080E9
:10178000064641463846FFF7A3F94946FFF7A0F958
:101790003146FFF79DF9FFF78FFC41462080384620
:1017A000FFF794F94946FFF793F93146FFF790F9AF
:1017B000FFF782FC002160804046FFF791FA014666
:1017C0003846FFF785F94FF0814107465046FFF74D
:1017D00087FA2049FFF738FB01463846FFF778F9CA
:1017E0003146FFF775F9FFF767FCA080B5F8BC003C
:1017F000FFF722FA5946FFF76BF90446B5F8BA002D
:10180000FFF71AFA064631462046FFF707FC08B1F3
:1018100030460CE0B5F8BE00FFF70EFA0546294643
:101820002046FFF719FC08B1284600E02046FFF7E4
:1018300043FC074B80B2188065E300BFC40500205D
:10184000000000206C0000207C050020E80400203F
:101850001000002000004040954D964B2E6800215E
:101860003046DF68FFF73CFA01463846FFF730F9AB
:10187000914B814693F9B800FFF7DEF9A968FFF7AD
:101880002FFAD5F80480054641464846FFF71EF971
:101890002946FFF71BF9FFF70FFC00212080404687
:1018A000FFF71EFA314682463846FFF70FF95146D8
:1018B000FFF70EF92946FFF70BF9FFF7FDFB41464D
:1018C00060804846FFF704F92946FFF7FFF8FFF765
:1018D000F3FB3146A0803846FFF7FAF8514638E06E
:1018E000734D744BD5F80080D3F80CA04146504698
:1018F000FFF7EEF8704B074693F9B800FFF79CF935
:10190000A968FFF7EDF96E68054631463846FFF7DE
:10191000DDF82946FFF7DAF8FFF7CEFB41462080D5
:101920005046FFF7D3F831468046FFF7CFF82946F7
:10193000FFF7CEF8FFF7C0FB314660804046FFF767
:10194000C7F82946FFF7C2F8FFF7B6FB3146A0807B
:101950003846FFF7BDF82946FFF7BAF8C9E1554BFD
:10196000DFF84C81DE68544BD8F8045093F9B80086
:10197000FFF762F9D8F80810FFF7B2F90021D8F89C
:1019800000708046FFF7ACF9394682463046FFF7D3
:101990009FF82946FFF79AF85146FFF799F8FFF7A5
:1019A0008BFB394620803046FFF790F82946FFF739
:1019B0008DF85146FFF78CF8FFF77EFB0021608021
:1019C0003846FFF78DF901463046FFF781F8294682
:1019D000FFF77EF841460546FFF778F8FFF76CFB06
:1019E0004146A0802846B7E7314D324BD5F804A0D8
:1019F0004FF040415046DE68FFF772F92F49FFF77C
:101A000023FA2F68814639463046FFF761F8494688
:101A1000FFF75EF8284B804693F9B800FFF70CF902
:101A2000A968FFF75DF9054629464046FFF74EF8DD
:101A3000FFF742FB394620803046FFF747F849461A
:101A4000FFF746F829468146FFF740F8FFF734FBD9
:101A5000002160803846FFF743F901463046FFF722
:101A600037F84FF0814106465046FFF739F91349E0
:101A7000FFF7EAF901463046FFF72AF829460646FD
:101A8000FFF726F8FFF718FB2946A0804046FFF72E
:101A90001FF8FFF711FB2946E0804846FFF718F8CA
:101AA000FFF70AFB294620813046FFF70FF8D6E002
:101AB0007C0500206C000020C40500200000404090
:101AC000A44DA54BD5F8008000214046D3F80CA0CA
:101AD000FFF706F901465046FEF7FAFF6F688146A8
:101AE0009E493846FFF7FCF84FF07851FFF7F8F8B9
:101AF0009B4B064693F9B800FFF79EF8A968FFF7DD
:101B0000EFF8314605464846FEF7E2FF2946FEF764
:101B1000DDFFFFF7D1FA414620805046FEF7D6FFA1
:101B200031468346FEF7D4FF2946FEF7D1FFFFF783
:101B3000C3FA8C4960803846FFF7D2F84FF07851ED
:101B4000FFF7CEF8074639465846FEF7C1FF29464B
:101B5000FEF7BCFFFFF7B0FA3946A0804846FEF713
:101B6000B7FF2946FEF7B4FFFFF7A6FA4146E0802B
:101B70005046FEF7ADFF39468046FEF7A9FF2946DD
:101B8000FEF7A4FFFFF798FA31462081404661E056
:101B9000704D714BD5F800A072495046D3F80C80B7
:101BA000FFF79EF84FF07851FFF79AF8014640464C
:101BB000FEF78EFF6A4B074693F9B800FFF73CF833
:101BC000A968FFF78DF86E68054631463846FEF77E
:101BD0007DFF2946FEF77AFFFFF76EFA5F49208006
:101BE0005046FFF77DF84FF07851FFF779F801463E
:101BF0004046FEF76DFF31468246FEF767FF2946F5
:101C0000FEF766FFFFF758FA002160803046FFF7C5
:101C100067F8804641465046FEF75AFF2946FEF7D0
:101C200055FFFFF749FA3146A0805046FEF750FFB6
:101C30002946FEF74DFFFFF73FFA3146E080384670
:101C4000FEF746FF2946FEF741FFFFF735FA41460A
:101C500020813846FEF73CFF2946FEF739FFFFF7A3
:101C60002BFA60814FE13C4BDFF8E880DE683C4BAB
:101C7000D8F8045093F9B800FEF7DEFFD8F8081042
:101C8000FFF72EF80021D8F800708046FFF728F8FB
:101C9000394682463046FEF71BFF2946FEF716FFFF
:101CA0005146FEF715FFFFF707FA39462080304608
:101CB000FEF70CFF2946FEF709FF5146FEF708FF25
:101CC000FFF7FAF9002160803846FFF709F801466E
:101CD0003046FEF7FDFE2946FEF7FAFE4146054670
:101CE000FEF7F6FEFFF7E8F94146A0802846FEF72A
:101CF000EDFEFFF7E1F9E08005E154F80C1C5046D9
:101D00000193FEF7EDFF01464846FEF7E1FE54F869
:101D1000081C83464046FEF7E3FF01465846FEF79F
:101D2000D7FE834678B2FEF787FF3146FEF7D8FF2D
:101D300054F8041CFEF7D4FF01465846FEF7C8FECF
:101D4000FFF7BAF9019B25F8020C0C3402359C42CE
:101D5000D3D1D8E07C0500206C0000200000E0C05A
:101D6000C40500200000E0408F4CB4F8C200FEF72C
:101D700063FF8E4B05469969D4F8C800FEF7B0FFA3
:101D800001462846FEF7A4FE894B1968FEF7A0FE1F
:101D90000546B4F8C000FEF74FFF06463146284618
:101DA000FFF73CF908B130460CE0B4F8C400FEF788
:101DB00043FF044621462846FFF74EF908B1204666
:101DC00000E02846FFF778F9774C7A4B80B218800C
:101DD000B4F8CE00FEF730FF744B0546D969D4F84D
:101DE000D400FEF77DFF01462846FEF771FE704BDA
:101DF0005968FEF76DFE0546B4F8CC00FEF71CFFEF
:101E0000064631462846FFF709F908B130460CE08E
:101E1000B4F8D000FEF710FF044621462846FFF72D
:101E20001BF908B1204600E02846FFF745F9614B51
:101E300080B2588067E05E4E5E4DF068FFF73CF977
:101E40005D4B20801B79584C73B9E08EFEF7F4FE91
:101E5000804641467068FEF739FE414607463068C5
:101E6000FEF734FE064602E0544B5F681E6894F9A4
:101E70002601FEF7E1FE3946FEF732FF804694F96F
:101E80002401FEF7D9FE3146FEF72AFF01464046FF
:101E9000FEF71EFEFFF710F9288094F92701FEF7E0
:101EA000CBFE3946FEF71CFF074694F92501FEF7E5
:101EB000C3FE3146FEF714FF01463846FEF708FE22
:101EC000FFF7FAF838493B4A6880CB8E1088B1F8A2
:101ED00028211818904205DBB1F82A219042B8BF9A
:101EE000024692B233490A804A882F49D218B1F883
:101EF0002C319A4205DBB1F82E319A42B8BF134615
:101F00009BB22C4A53802E4B2E4993F800B00A887E
:101F1000012308E031F8020F0FFA82FC013360451B
:101F2000C8BF0246DBB25B45F4D31F4B264CB3F867
:101F30004000D98FB3F83A8093F842709E8E1E4BC2
:101F4000C2EB00095D781FFA89F9B4F906A04FEADF
:101F50004B0B002323E00FFA82FC844505DD194C6E
:101F600034F803C0CC4424F803C0164C34F803C042
:101F70008C4501D28C4602E0844528BF8446114C32
:101F8000C24524F803C003DA0FB1E65200E0E15283
:101F900025B90C4C4FF47A7C24F803C002335B451E
:101FA000D9D1BDE8FE8F00BFC4050020C4100020B9
:101FB0006C00002010000020900500207C0500200F
:101FC000E804002000000020B005002038B50B4BCD
:101FD00000241D78002D14BF0225002508E0084BC1
:101FE000601933F81410C0B202F01CFE0134E4B2E0
:101FF000044B1B78A342F2D838BD00BFB0010020CB
:1020000000000020E80400200649074B09789A1CCC
:1020100002EB410201E023F8020C02339342FAD1B1
:10202000FFF7D4BFE80400200000002038B50546C3
:1020300000240FE0094B0134D88FFFF7E5FFFA20A9
:1020400003F05DF94FF47A70FFF7DEFFFA2003F03A
:1020500056F9E4B2AC42EDD338BD00BFC405002050
:10206000074B10B51B7853B1064C0020218802F0B5
:10207000D9FD61880120BDE8104002F0D3BD10BD3C
:10208000B001002010000020084B094A03F1600154
:10209000D86C1060186D5060586D9060986D10335A
:1020A000D06018328B42F3D1704700BFC4050020C6
:1020B000EC040020044B03F1900100221A615A61E4
:1020C00018338B42F9D17047EC04002000230361E0
:1020D000436170472DE9F04704460D46D0F814904F
:1020E0001046616161689046FEF7FAFD2049FEF7EF
:1020F000F7FD01462846FEF7F3FD2169FEF7E8FCEF
:10210000D4F80CA0074620611A495046FEF7E8FDB6
:10211000064631463846FEF781FF50B9144950460D
:10212000FEF7DEFD064631463846FEF795FF00B95C
:102130003E46266121682846FEF7D2FD0C49074637
:102140003046FEF781FE01463846FEF7C1FC49469F
:1021500006462846FEF7BAFCA168FEF7C1FD4146D7
:10216000FEF772FE01463046FEF7B2FCBDE8F0878E
:1021700000007A4400007AC42DE9F84503F054F8D1
:10218000714E724B054618603068281AFEF750FDF4
:102190006F49FEF7A5FD6F4B04461A793560002A9A
:1021A00031D06D4D6868FEF72FF963A3D3E90023A2
:1021B000FEF77EF9FEF736FC07462868FEF724F99D
:1021C0005DA3D3E90023654DFEF772F9FEF72AFC03
:1021D000A969FEF77BFC01F0F5FF22460146604845
:1021E000FFF778FF01F0EEFFE96906463846FEF793
:1021F0006DFC01F0E7FF224601465A48FFF76AFFEF
:1022000001F0E0FF45E05B7A534D002B2CD0534B9F
:10221000186A554B1968FEF759FC064606F0D2FCC1
:102220008246304606F000FDD5F80080074651464C
:102230004046FEF755FD6D68064639462846FEF7CE
:102240004FFD01463046FEF741FC51460646284602
:10225000FEF746FD394605464046FEF741FD01467C
:102260002846FEF735FC14E02868FEF7CDF834A3C5
:10227000D3E90023FEF71CF9FEF7D4FB0646686895
:10228000FEF7C2F82EA3D3E90023FEF711F9FEF7FB
:10229000C9FB304B05465B79CBB1344B9B78B3B16E
:1022A000334B9B7813B93348FFF710FF324B186854
:1022B0002A4B196AFEF70AFC01F084FF2246014608
:1022C0002C48FFF707FF01F07DFF80460FE0224B0F
:1022D0009868FEF799F81AA3D3E90023FEF7E8F807
:1022E000FEF7A0FB1D4B80461A6A234B1A601B4F5A
:1022F0003046796AFEF7EAFB224601461F48FFF79F
:10230000E9FE1F4EB96A30602846FEF7DFFB224621
:1023100001461C48FFF7DEFEF96A70604046FEF792
:10232000D5FB224601461848FFF7D4FEB060BDE851
:10233000F88500BFAFF30080FCA9F1D24D62503F99
:102340007B14AE47E17A743FB8010020B40100204D
:10235000BD378635900500206C000020C410002099
:10236000340500204C050020C00500206800002036
:102370007C000020640500208C050020EC04002077
:102380007C050020040500201C050020AFF3008020
:10239000014B01221A707047DC010020014803F054
:1023A000FBB800BFA0B40008014803F0F5B800BFB7
:1023B000CEB4000838B50D4803F0EEF800240C4DFB
:1023C000285903F0E9F82D19092003F0CFF86868BF
:1023D00003F0E2F8074803F0DFF803F087F800287D
:1023E000FBD00C34482CEAD138BD00BFD3B4000870
:1023F0002CBE000828B6000838B50D4803F0CCF80C
:1024000000240C4D285903F0C7F82D19092003F0BA
:10241000ADF8686803F0C0F8074803F0BDF803F0B2
:1024200065F80028FBD00C34842CEAD138BD00BFFD
:10243000F4B400081CB4000828B600081FB51848FA
:1024400003F0AAF802F04AFF4FF47A73B0FBF3F0FE
:1024500069460A2201F0FAFD684603F09DF811482A
:1024600003F09AF8104803F097F8104803F094F836
:102470000F4803F091F80F4803F08EF80E4803F070
:102480008BF802F06BF869460A2201F0DFFD68461E
:1024900003F082F809486C4603F07EF81FBD00BFC8
:1024A0000AB500081AB500082EB5000833B50008B3
:1024B0003DB500083FB500084CB5000828B6000837
:1024C0002DE9F041074608F0BFFEC5B255B91F48D7
:1024D00003F062F81E4B93F832201E4B013A53F87A
:1024E00022002AE038461C492A4608F0B5FE044678
:1024F00070B91A4803F050F8164B53F82400F0B1A5
:1025000003F04AF80134202003F030F8E4B2F3E796
:102510000024104E56F8241009B9114810E038462E
:102520002A4608F099FE631C70B9094A0D4882F8E2
:10253000323003F031F856F8240003F02DF80A4841
:10254000BDE8F04103F028B8DCB2E2E75BB5000873
:10255000C40500202000002015B900086BB5000854
:102560007EB5000896B5000828B6000870B50D685D
:102570000446284608F068FE024620682946BDE861
:10258000704008F069BE00007FB5037904460D462F
:10259000052B2BD8DFE803F0030810151B208368F8
:1025A000204968461A7804E083681F4993F900209F
:1025B000684601F021F919E083681A4968461A88CB
:1025C000F7E7836818496846B3F90020F1E78368A4
:1025D000144968461A68ECE783681868FDF714FF29
:1025E00002460B466846114901F006F968466E46F8
:1025F00002F0D2FFADB10E4802F0CEFF69460A22CA
:10260000E06801F023FD684602F0C6FF084802F0CA
:10261000C3FF206969460A2201F018FD684602F0EE
:10262000BBFF7FBDA4B50008A7B500081AC8000805
:10263000D1B400082DE9F341074608F005FE06462F
:1026400020B101281ED13B782A2B1BD1474802F02C
:10265000A3FF474C04F5BA650C35206802F09CFFD7
:10266000444802F099FF20463146FFF78DFF42486B
:1026700002F092FF02F03AFF0028FBD01434AC4283
:10268000EBD170E038463D2108F0D2FD80460028AD
:1026900069D0374C04F5BA660C362568284608F030
:1026A000D3FD29460246384608F0D6FD05460028E7
:1026B00050D1237908F10100052B03D101F0A0FDD1
:1026C000064603E008F04BFD002605463046FDF7C0
:1026D0009BFE02460B462948009501F09CF82379A1
:1026E000052B06D0E268954215DA2269954212DD83
:1026F0000FE0E068FEF7A0FA01463046FEF78EFCD8
:10270000C8B12069FEF798FA01463046FEF7A4FCEE
:1027100088B11B4822E0052B0FD8DFE803F0030344
:102720000606090CA3681D7007E0A3681D8004E07D
:10273000A3681D6001E0A3681E60206802F02CFF02
:10274000104802F029FF2046002102B0BDE8F04108
:10275000FFF71ABF1434B4429FD10B4802B0BDE852
:10276000F04102F019BF02B0BDE8F081AAB500083F
:1027700074BE0008BFB5000828B60008C3B500083D
:10278000CDB500089BB50008F2B500082DE9F0456D
:1027900085B0804608F058FD074630B1012840F06A
:1027A000828098F800302A2B7DD14F4C4F4802F0A0
:1027B000F3FE6068FDF728FE0646A0680F46FDF7A9
:1027C00023FECDE90001E068FDF71EFE484D3246CC
:1027D0003B46CDE90201474801F01DF8E868FDF7E6
:1027E00013FE064628690F46FDF70EFECDE90001EF
:1027F0006869FDF709FE32463B46CDE902013E48D5
:1028000001F009F8E069FDF7FFFD0646206A0F4672
:10281000FDF7FAFDCDE90001606AFDF7F5FD3246EE
:102820003B46CDE90201354800F0F5FFA06AFDF70F
:10283000EBFD0646E06A0F46FDF7E6FDCDE9000137
:10284000206BFDF7E1FD32463B46CDE902012C4805
:1028500000F0E1FFE86BFDF7D7FD0646286C0F4658
:10286000FDF7D2FDCDE90001686CFDF7CDFD3246E4
:102870003B46CDE90201234800F0CDFFA06BFDF7F8
:10288000C3FD0646E06B0F46FDF7BEFDCDE9000136
:10289000206CFDF7B9FD3246CDE902013B461A48EE
:1028A00000F0B9FF1DE000252C46184E4046715936
:1028B0003A465FFA84FA08F0CFFC40B90C2303FBD8
:1028C0000464A3689847BAF1050F0AD903E00134FC
:1028D0000C35062CE9D10E4805B0BDE8F04502F0F4
:1028E0005BBE05B0BDE8F085F40600200FB6000819
:1028F000C41000202BB6000845B6000862B60008D8
:102900007EB60008A4B60008C0B600082CBE0008B9
:10291000D8B6000810B5094802F03EFE00F074FC7D
:1029200000F096FC064802F037FE0A2002F0E7FCB1
:102930000020BDE8104002F0EDBC00BFF6B6000874
:1029400000B70008F0B585B0044608F07DFC082803
:1029500024D100231F49E25C09685118497811F01D
:10296000020F18BF203AE2540133082BF2D1651C44
:1029700004F1090715F8016C1748314608F058FCB6
:1029800020B12846314608F053FC08B113481CE03A
:102990000135BD42EED1204600F07EFC104802F029
:1029A000FBFD00230F4A04A9D218927A8A180A491B
:1029B000595C0133082B02F80C1CF3D1083B01A829
:1029C0008DF80C3002F0E8FD074802F0E5FD05B097
:1029D000F0BD00BFB000002050C400080FB70008D1
:1029E0002FB70008C405002028B6000810B504461B
:1029F000084802F0D1FD20220021074808F00FFC12
:102A0000064A00231360064A20461370BDE81040B2
:102A1000FFF780BF44B70008BC010020E0010020A0
:102A20008805002010B5094802F0B6FD01200146D6
:102A300000F048FC064802F0AFFD0A2002F05FFCFF
:102A40000020BDE8104002F065BC00BF5CB7000884
:102A500002B700082DE9F041864B8AB01A7832B9E6
:102A600001321A70844802F097FDFFF79DFC834BFA
:102A70001B78002B00F0738102F09AFD18B102F070
:102A800043FD7F4B18707E4B1B78672B2BD007D8EC
:102A9000612B11D0622B1CD0232B40F0608107E00A
:102AA000712B43D0772B63D06D2B40F0588130E0F1
:102AB000724B00221A70D9E0724C2068FDF7A4FC1A
:102AC000064660680F46FDF79FFCCDE90001A0684F
:102AD00015E06C4B186FFDF797FC02460B466A48F1
:102AE00000F099FE3BE1674C606AFDF78DFC0646FD
:102AF000A06A0F46FDF788FCCDE90001E06AFDF70A
:102B000083FC3246CDE902013B46604800F083FE7B
:102B100025E15C4CA06DFDF777FC0646E06D0F46A5
:102B2000FDF772FCCDE90001206EE8E7584B18680C
:102B3000584BD3F80080584B1F68584B1E68FDF760
:102B400063FC044640460D46FDF75EFCCDE90001FE
:102B50003846FDF759FCCDE902013046FDF754FC3B
:102B60002246CDE904012B464D4800F054FEF6E024
:102B7000444C4C49A069FEF7B3F8FDF745FC064606
:102B80000F46E0694749FEF7ABF8FDF73DFCCDE99C
:102B900000014449206AFEF7A3F8B0E702F0B4FC54
:102BA000092801D03F2853D13F4BDFF80C81002684
:102BB0001F683546A8F184040CE02FB13B4821681A
:102BC0003A4608F049FB20B915B92646254600E0EB
:102BD00026460C344445F0D1BDB1344A3B46D219A7
:102BE0002968C85C3168C95C81420CD1581C01322B
:102BF00029B92E4A2031D1542B4B186005E002F838
:102C0000011C0346ECE7284A1360274B1B680BB1F5
:102C1000B5420FD0264802F0BFFC06E055F80C0B79
:102C200002F0BAFC092002F0A1FCB542F6D9FFF788
:102C3000BBFB00271D4CE41904E014F8010C02F062
:102C400095FC0137184B01341B689F42F5D386E091
:102C5000154B1B682BB9042803D11448FFF7C6FE97
:102C600082E00C282AD1134802F096FCFFF79CFB67
:102C700075E000BF8805002077B70008DC01002060
:102C8000E4010020C4100020E5C60008B2B7000827
:102C900080000020BC040020C0040020C4040020E8
:102CA000AFB70008E02E6542E0010020BC01002023
:102CB000BCB70008C1B70008A0B40008002B2FD093
:102CC0000A2801D00D282BD1294802F065FC294B98
:102CD000294C1A680023A3540893284B07A8009393
:102CE00027490B220C23079408F03DFA054638B11A
:102CF000006808F0A9FA0130AB682018984702E094
:102D0000204802F049FC20221B48002108F087FAE5
:102D1000184B00221A601C4B1B78002BA6D123E015
:102D20007F2801D008280AD1CBB1124A013B136099
:102D3000114A0021D154154802F02EFC0FE01F2B40
:102D40000DD81F280BD97E2809D80BB9202806D00A
:102D5000094AD054074A0133136002F007FC02F01D
:102D600027FC00287FF41AAF0AB0BDE8F08100BF4D
:102D700028B60008E0010020BC0100206D250008F5
:102D80001CB40008CCB7000888050020EDB7000887
:102D900010B5074C0019807A01F052FFA0F53A7384
:102DA000063B9BB240F2DC52934288BFE08E10BDDE
:102DB000C4050020F8B51B4B00241A781A4D0132C7
:102DC0001A702646174BF0B21F78FFF7E1FF07F0A5
:102DD0000307154B07EB860223F812002B886A883D
:102DE000D218AB88D218EB88D21812B2931C48BF05
:102DF000531D9B100D4A9BB213530D4A19B2A05E8E
:102E00000338814201DA981CA052094AA05E0330BF
:102E1000814201DD023BA352013608350234082EFF
:102E2000D0D1F8BD38020020F8010020E8010020D0
:102E3000B00500202DE9F84F864C874DFFF7BAFF0B
:102E4000B4F906206B8F9A4245DAFFF733F92B8CE1
:102E500073B1824B5B7923B1814B1A780AB101229D
:102E600015E07F4B5A78002A62D000225A705FE04A
:102E7000B4F90420AB8F9A420FDD794B597861B9D0
:102E800078490A78501C142A087051D1133A5A70A4
:102E9000754B1A6A754B1A604AE06F4B5B8F9A420A
:102EA00043DA6F4A517841B16E490B78581C142BA4
:102EB00008703DD1143B53703AE0664AB2F90220E3
:102EC0009A4232DD674A1378591C142B11702FD1A6
:102ED00003F0CAFF2CE0A98F8A4229DD604A5278AC
:102EE00032BBB4F904208A420CDDB4F902109942D5
:102EF00008DA5C4A1378591C142B117018D104F0AD
:102F0000B9FC15E09A4210DA524AB2F902209A420C
:102F10000BDA544A1378591C142B117008D103F0A2
:102F20008FFE0320FFF782F802E04E4B00221A705A
:102F3000494B9A78002A2AD04D4AB3F804E0108809
:102F4000704521D9464A5178F1B1B3F836C04149AC
:102F5000A1F800C0A1F802C0A1F804C0B3F808C0ED
:102F6000DB88A1F806C09E4401217045D17302DDC3
:102F70000023537013703A4B5A780AB95A701A707A
:102F80003B4B0130188002E0354B0022DA73324BA4
:102F9000384A588F9C8F00231946B2F900C08445E7
:102FA00002DC4FF0000E07E032F908EC8645ACBFBA
:102FB0004FF0000E4FF0010E8445ACBF00250125F7
:102FC0009D40A445D4BF4FF0000C4FF0010C45EAE2
:102FD00001019D1C0CFA05FC41EA0C0103F1010CF6
:102FE0000EFA0CFE033341EA0E0102320C2B89B2B9
:102FF000D3D1194F0C3B3A46B2F816C0174811EA24
:103000000C0F0CBF4FF0000C4FF0010C03F800C088
:10301000013302320E2BEFD1437913B9104B012249
:103020001A700E4B1A7A0E4B02B101229A720B4B98
:103030001B7813B90A4BDA7B12B3094C237903BB13
:103040000D48FFF743F80D48FFF740F801232371BF
:1030500017E000BFB0050020C4050020A005002037
:103060009005002039020020C4100020C005002077
:1030700054070020B8050020340500204C0500202E
:103080001A714C4B5A784C4B12B19A790AB90132E9
:103090009A71484B9A78484B42B15A793AB9013201
:1030A0005A71464B1A6A464B1A6000E05A71414BFE
:1030B0005A7A414B42B15A7A3AB901325A723F4B6D
:1030C0001A6A404B1A6000E05A723A4B5D7B25B198
:1030D0003A4B00251A6A3B4B1A603B4B3B4CE85E6F
:1030E000FDF7AAFD44F815000235082DF5D1384B3F
:1030F000DE8E3046FDF7A0FD054629462068FDF727
:10310000E5FC294620606068FDF7E0FC2946606028
:10311000A068FDF7DBFCA060A6F5BA600C38FDF7EF
:103120008BFD0146E068FDF7D1FC0025E0602C46F0
:10313000DFF8A4A0274B1AF80420B7F844B01A55BA
:103140005846FDF779FDDFF88490804659F8056010
:1031500041463046FDF76CFF78B1CBF10000FDF73A
:103160006BFD01463046FDF76DFF30B1002349F895
:10317000053001230AF8043014E0174B00221A55D9
:1031800030460021FDF768FFDFF840A020B130464F
:103190004146FDF79BFC03E030464146FDF798FCB5
:1031A0004AF80500013404350237032CC0D1BDE8CC
:1031B000F88F00BFA005002090050020C41000205B
:1031C0008C050020C0050020B00500206C00002008
:1031D000C40500207C00002068000020602210B59B
:1031E0000549064808F00EF8054806494FF498725C
:1031F000BDE8104008F006B800FC0108F406002005
:10320000C405002000F8010810B504F083FE342046
:1032100004F094FE0B4804F0E9FE04280CD1094C9C
:10322000094B2046E15804F0B7FE042800D0FEE721
:10323000064B04349C42F3D104F078FEBDE8104004
:10324000FFF7CCBF00F80108C40DFE1730F90108E4
:1032500010B504F05FFE342004F070FE0B4804F05B
:10326000C5FE04280CD1094C094B2046E15804F056
:1032700093FE042800D0FEE7064B04349C42F3D1B1
:1032800004F054FEBDE81040FFF7A8BF00FC0108A1
:10329000F40AFE1760FC010870B50646002409E038
:1032A000064D284607F0C4FF18B1054A83185D1B78
:1032B000AC720134315D0029F2D170BD50C40008F8
:1032C000C405002070B5944B0D461C7808B9012C3C
:1032D00024D0924B00225A609A60DA60DA611A6256
:1032E0005A629A62DA621A639A63DA631A644FF076
:1032F00080429A648A4A0021DA648A4A01205A6527
:10330000894A18709A65894A597083F8341083F88D
:10331000440083F85010DA65FFF79AFF15B9012CC5
:1033200000F0F980824C012525708248FFF7B4FF38
:103330004FF4C87100234FF032026182A3704FF442
:10334000966144F62063E3806570A282A2802181A9
:1033500004F11C034FF00002E28202349C42F9D1D6
:10336000734B4FF47A7199864FF4FA61198740F2E2
:103370006C71998740F23A710322A3F840104FF420
:103380007A7183F83220A3F8AC1040F2DC524FF48B
:10339000FA61DA86A3F8B01040F24C4240F2DC51F8
:1033A0005A87A3F8B41040F27E424FF47A71DA875C
:1033B000A3F8BA104FF00C024FF4FA61A3F84420BE
:1033C000A3F84620A3F84820A3F8BE1040F2DC5230
:1033D00040F2DC51A3F8AE20A3F8C2104FF47A7289
:1033E0004FF47A71A3F8B220A3F8CC104FF4FA622C
:1033F00040F2DC51A3F8B620A3F8CE1040F2DC5224
:103400004FF4FA61A3F8BC20A3F8D0104FF47A72FD
:103410000421A3F8C02083F8D8104FF4FA6246497B
:103420000120A3F8C4204FF07E5283F8420083F8B5
:10343000B800C3F8C820C3F8D420C3F8DC20C3F810
:10344000E010C3F8E410C3F8E810C3F8EC10C3F8B8
:10345000F410C3F8FC104FF0FF3183F8241183F807
:1034600026114FF47A71A3F828114FF4FA61A3F8EA
:103470002A114FF47A7183F8250183F82701A3F804
:103480002C112E484FF4FA61A3F82E112C49C3F8E1
:10349000F020C3F8F820C3F80021C3F80421C3F8D2
:1034A0000821D86600224FF08040D9649965D9651B
:1034B0009966C3F80C21C3F81021C3F81421C3F88E
:1034C0001821C3F81C21C3F820211A655A651A6611
:1034D0005A661A675A679967D8674FF07C51C3F8E4
:1034E0008C004FF07F50C3F88020C3F88420C3F8CD
:1034F0008810C3F89020C3F89420C3F89810C3F83C
:103500009C00C3F8A020C3F8A420C3F8A810BDE80D
:103510007040FFF779BE70BD00FC0108F406002082
:10352000CDCCCC3D000030413333534066668640FD
:10353000C405002058C40008000080BF00004843B4
:103540000000C84228B102681170026801320260AE
:103550007047C8B202F00AB82DE9F845161E0446B5
:103560000D460FDD002200E00132A95C0029FBD1ED
:10357000B242ACBF0E46B61A13F0020F02D04FF0A3
:10358000300A01E04FF0200A13F0010809D04FF093
:10359000000808E020465146FFF7D4FF08F1010873
:1035A000013E002EF6DC474603E02046FFF7CAFF47
:1035B0000137C8EB0503D95D0029F6D105E02046A7
:1035C0005146FFF7BFFF0137013E002EF7DC3846BA
:1035D000BDE8F8852DE9FF410A9F05460B9EDDF801
:1035E00030E08C4651B930238DF804308DF8051049
:1035F0003A4601A93346FFF7AFFF39E03BB10A2A4B
:1036000005D1002903DAC1F1000C012400E00024F7
:1036100004AB002103F8011D0DE0BCFBF2F102FB3D
:1036200011C10929C4BFAEF13A000918303103F8BD
:10363000011DBCFBF2FC9846BCF1000FEDD184B13A
:103640004FB116F0020F06D028462D21FFF77AFF62
:10365000013F012405E02D2203F1FF3803F8012C7E
:103660000024284641463A463346FFF775FF0019C5
:1036700004B0BDE8F08100002DE9F04F82468FB024
:103680000E4614464FF0060B0025A4E0252B40F013
:103690009C8016F8013F002B00F0A180252B00F044
:1036A00094802D2B02D04FF0000806E001364FF039
:1036B000010802E0013648F002083378302BF9D0D7
:1036C000002291460AE02AB10A2303FB0B1B0BF0F0
:1036D000FF0B08E00A2303FB0909013633782E2B80
:1036E00003D14FF0000B0122F7E7A3F13000C1B284
:1036F0000929E8D9732B07D154F8041B3D4B5046D8
:10370000002908BF19465AE0642B0BD1033B0293F2
:10371000CDF80090CDF80480271D504621680A227C
:10372000603B0CE0782B0FD1173BCDF80090CDF823
:10373000048002932168271D50461022613BFFF749
:1037400049FF2D183C4645E0582B0BD1173B0293FF
:10375000CDF80090CDF80480271D50462168102236
:10376000413BECE7752B0AD1143BCDF80090CDF826
:1037700004800293271D504621680A22DEE7632B4E
:103780000DD1236850468DF8343000238DF8353044
:103790000DA94A464346271DFFF7DEFED1E7662BFB
:1037A00018D1073424F0070305AFD3E9000103F172
:1037B00008043A465B4600F05BFC504639464A46F0
:1037C0004346FFF7C9FE2D1804E050463178FFF755
:1037D000B9FE013501363378002B7FF457AFBAF1CB
:1037E000000F03D0DAF8003000221A7028460FB01C
:1037F000BDE8F08F61C400080EB40FB505AA52F8F9
:10380000041B019001A80392FFF736FF04B05DF896
:1038100004EB03B070470FB407B504AA52F8041BB9
:1038200000200192FFF728FFBDE80E4004B070476A
:10383000034B04491A78885C01321A70704700BF44
:103840003B0200204402002010B5FFF7F1FF0446C0
:10385000FFF7EEFF04EB002080B210BD10B5FFF7BC
:10386000F3FF0446FFF7F0FF04EB004010BD00003B
:1038700010B5044601F07AFE024B1A7854401C70D1
:1038800010BD00BF3A02002038B50546002401E013
:10389000FFF7EEFF285D01340028F9D138BD0000A4
:1038A000014B1878FFF7E4BF3A02002070B50446D8
:1038B00024200D46FFF7DCFF4D20FFF7D9FF002C39
:1038C00014BF21203E20FFF7D3FF064B00221A70C1
:1038D0002846FFF7CDFF044B1878BDE87040FFF78E
:1038E000C7BF00BF3A02002041020020014601206C
:1038F000FFF7DCBF01460020FFF7D8BF70B50B4DC6
:103900000B4C0646C0B2287001F030FE2A782378AE
:10391000B6B282EA0303300A2370287001F026FE53
:1039200023782A7882EA0303237070BD40020020C6
:103930003A02002070B5154D154C0646C0B22870ED
:1039400001F014FE2A782378300A82EA0303C0B219
:103950002370287001F00AFE2A782378300C82EA5E
:103960000303C0B22370287001F000FE2A78237888
:10397000300E82EA03032370287001F0F7FD2378EC
:103980002A7882EA0303237070BD00BF3C02002046
:103990003A02002070B5A24B1B78002B00F0368352
:1039A000BDE87040FFF756B801F0AEFD9D4B1A78A8
:1039B000A2B9242814BF002201221A70002A40F064
:1039C0002583232803D0522840F0208302E0FFF70C
:1039D00041F81BE3012001F09DFC17E3012A04D10B
:1039E0004D280CBF0220002005E0022A05D13C280A
:1039F0000CBF03200020187008E3032A11D14028CF
:103A000001D9033A01E3884A8849107000220A70FC
:103A100087490A70874A107004221A70033A864B4D
:103A2000F3E2042A07D1854A1070824A117848408F
:103A300010700522E9E2052A40F0E8827B497A4BC2
:103A40000A781B7893427B4B0AD993F800C080EA2E
:103A50000C0C83F800C07A4B985401320A70D5E2FE
:103A60001B78834240F0CF82744B1B78722B00F09E
:103A70009A8223D86A2B5DD010D8662B00F038814B
:103A800006D8642B00F0E680652B40F0B782F2E0A8
:103A9000682B00F08B8100F295817BE16E2B00F0AA
:103AA000D08105D86C2B00F0998100F2C28141E0F1
:103AB000702B00F0D48100F23B823BE0CB2B00F076
:103AC000988010D8762B00F0808205D8742B00F0F7
:103AD0003D8200F261826DE2C92B1FD02ED8C82B27
:103AE00040F08C8211E0CF2B24D005D8CD2B00F0F4
:103AF0007A8200F27B8286E0FA2B00F07A82FE2B3B
:103B000018D0D02B40F07A8262E20024FFF79CFEAE
:103B10004C4BE0520234102CF8D10BE0FFF788FE3A
:103B2000FFF786FEFFF79AFEFFF798FEFFF78CFE81
:103B3000FFF78AFE0020FFF7DDFE62E2424C04F14F
:103B40003005FFF775FEFDF773F8E064FFF770FED0
:103B5000FDF772F83D49FDF7C3F82065FFF768FEF1
:103B6000FDF766F860651034AC42EAD100240134F8
:103B7000FFF75EFEFFF75CFEFFF75AFE042CF6D15E
:103B8000FFF756FEFDF758F83149FDF7A9F82E4C1E
:103B9000E067FFF74DFEFDF74FF82C49FDF7A0F861
:103BA000C4F88000FFF744FEFDF742F8C4F8840033
:103BB000FFF73EFEFDF740F82549FDF791F8C4F800
:103BC0009C00FFF735FEFDF737F82049FDF788F830
:103BD000C4F8A000FFF72CFEFDF72AF8C4F8A400F3
:103BE00000240134FFF724FE032CFAD1FEF74CFA2F
:103BF000A0E7154C04F11C05FFF726FEE082023415
:103C0000AC42F9D196E7FFF713FEFFF711FEFFF77D
:103C10000FFEFFF70DFEFFF70BFEFFF709FED4E1E5
:103C200088050020840200203F0200203D02002081
:103C30003B0200203A0200203E0200204102002008
:103C400044020020B0050020C405002000007A4492
:103C5000000020410720FFF74DFED220FFF708FEAD
:103C6000BD4B93F83200FFF703FE0020FFF700FE84
:103C70004FF0004039E00A20FFF73CFEB74BB3F9A4
:103C80000000FFF73BFE00F069FC00B2FFF736FED4
:103C90000720FFF733FEB24B59799A79890041EA40
:103CA00042011A7911435A7841EA4211AD4AD0785B
:103CB00041EAC001107941EA0011D87941EA801146
:103CC000187A41EAC011587A9B7A41EA402141EAC8
:103CD0000323917A507B43EA8123D17A43EAC123BB
:103CE000117B43EA013343EA4030FFF723FE88E1CA
:103CF0009D4C9E4D1220FFF7FDFD29692068FDF7C0
:103D0000A3F8FDF7B3F900B2FFF7F8FD6969606841
:103D1000FDF79AF8FDF7AAF900B2FFF7EFFDA969E0
:103D2000A068FDF791F8FDF7A1F900B2FFF7E6FDF5
:103D3000216B606AFDF788F8FDF798F900B2FFF78C
:103D4000DDFD616BA06AFDF77FF8FDF78FF900B22A
:103D5000FFF7D4FDA16BE06AFDF776F8FDF786F971
:103D600000B2FFF7CBFD616EA06DFDF76DF8FDF7BA
:103D70007DF900B2FFF7C2FDA16EE06DFDF764F8BA
:103D8000FDF774F900B2FFF7B9FD206EE16EFDF7A3
:103D90005BF84AE01020FFF7ADFD0024744BE05EB5
:103DA0000234FFF7ABFD102CF8D12AE11020FFF709
:103DB000A1FD00246F4BE05E0234FFF79FFD102C45
:103DC000F8D11EE11020FFF795FD00246A4BE05E5C
:103DD0000234FFF793FD102CF8D112E1624C082059
:103DE000FFF788FDA0696549FCF77AFF6449FCF795
:103DF00077FFFDF73BF900B2FFF780FDE0695F490F
:103E0000FCF76EFF5E49FCF76BFFFDF72FF900B280
:103E1000FFF774FD5949206AFCF762FFFDF726F9A8
:103E200000B2FFF76BFD574B1868FDF71FF900B2A2
:103E3000BDE00420FFF75EFD4B4B186FFDF73CF92A
:103E400053E70320FFF756FD474B4D49586FFCF7EA
:103E500047FFFDF731F9C0B2FFF70AFDA6E01E20CB
:103E6000FFF748FD484C04F1480554F8080CFDF7ED
:103E700023F9C0B2FFF7FCFC444954F8040CFCF7EA
:103E80002FFFFDF719F9C0B2FFF7F2FC54F8180B39
:103E9000FDF712F9C0B2FFF7EBFCAC42E5D100240C
:103EA0000020FFF7E5FC0020FFF7E2FC01340020D2
:103EB000FFF7DEFC042CF3D1354C3149A06CFCF744
:103EC0000FFFFDF7F9F8C0B2FFF7D2FC2F49E06C05
:103ED000FCF706FFFDF7F0F8C0B2FFF7C9FC206D54
:103EE000FDF7EAF8C0B2FFF7C3FC2549A06FFCF765
:103EF000F7FEFDF7E1F8C0B2FFF7BAFC2349E06F27
:103F0000FCF7EEFEFDF7D8F8C0B2FFF7B1FCD4F82D
:103F10008000FDF7D1F8C0B2FFF7AAFC0020FFF740
:103F2000A7FC0020FFF7A4FC0020FFF7A1FC68E03D
:103F30001C20FFF7DFFC084C04F11C05B4F9160047
:103F40000234FFF7DBFCAC42F8D15AE06320FFF704
:103F5000D1FC104824E000BFC4050020E404002088
:103F600090050020A0050020C4100020F4060020C9
:103F70001000002000000020B0050020E02E654267
:103F800000002041C0050020F404002000007A4415
:103F9000EC04002098C400082F20FFF7ABFC1E485B
:103FA000FFF772FC2DE00220FFF7A4FC0020FFF7D2
:103FB000A5FC26E00820FFF79DFC0124E0B20134B7
:103FC000FFF756FC092CF9D11BE0FFF731FCB1E5F6
:103FD0000020FFF78FFC01200146FFF773F9002056
:103FE00001F098F90DE002F02BFEA3E503F042FC8E
:103FF000A0E5FFF709F9FFF72BF99BE50020FFF794
:1040000075FCFFF74DFC054B00221A7001F0D0FA49
:1040100000287FF4C9AC70BD68C400088402002089
:1040200038B50546B5FBF2F30846144613B11846F9
:10403000FFF7F6FFB5FBF4F304FB1354024B1B5DD3
:1040400000F8013B38BD00BFFCC40008931E222BC2
:1040500088BF0A22031E10B50C4603DA2D2001F892
:10406000010B5842FFF7DCFF00230370204610BD10
:104070002DE9FF4D514C1F46002A18BF144600235E
:10408000002206460D46FCF785FC20B12D2304F8DE
:10409000013B05F10045072F19D8002200233046C7
:1040A0002946FCF795FC464BFA0038B1D318304648
:1040B0002946D3E90023FCF749F806E0D318304637
:1040C0002946D3E90023FCF73FF806460D460023B6
:1040D0004FF0010803E00A2202FB08F80133BB425B
:1040E000F9D330462946FCF77DFC002302460CE05C
:1040F0004FF00A0CB2FBFCF10CFB11220DF1040A8B
:1041000030320AF8032001330A46002AF0D11BB9E5
:10411000303304F8013B0BE00DF1040C0CEB030110
:1041200011F801AD04F802A001326145F8D1E4189C
:10413000002F3ED0FCF746F902460B463046294692
:10414000FCF702F8824640468B46FCF73BF90246F4
:104150000B4650465946FCF7ABF9FCF743FC2E23BF
:10416000224602F8013B2E3B08E00A25B0FBF5FC95
:1041700005FB1C003030C8540133604601A90028FB
:10418000F3D1C91803E0302001F8010C01330131EB
:10419000BB42F8D323B91446303304F8013B08E09E
:1041A00001A8C11811F801CD814204F801CFF9D15D
:1041B000D4180020207004B0BDE8F08D88020020E3
:1041C00028C5000810B50B490446FCF73BFF20B199
:1041D00020460949FCF77AFC08E020460749FCF72D
:1041E0001DFF20B120460449FCF772FC044620461E
:1041F00010BD00BFDB0F4940DB0FC940DB0F49C0DA
:104200002DE9F84F044600E001342378202BFBD041
:10421000092BF9D02D2B05D101344FF0000ADFF81E
:1042200070B106E02B2BDFF864B108BF01344FF00A
:10423000000A0026002713E00022534B304639467F
:10424000FCF736F9064628460F46FCF7CBF802463F
:104250000B4630463946FBF779FF013406460F46D8
:104260002378A3F13005EAB2092AE5D92E2B21D112
:1042700001344FF00008DFF8109116E0FCF7B2F8B7
:1042800042464B46FCF73EFA02460B46304639465C
:10429000FBF75CFF002206460F46404649463A4B74
:1042A000FCF706F901348046894620783038C3B2DD
:1042B000092BE3D92378652B01D0452B4CD16278AB
:1042C000631C2D2A02D10133012503E02B2A08BFEC
:1042D000013300250022144602E00A2000FB0414EA
:1042E000995C01323039C8B20928F6D9B4F59A7F01
:1042F00028BF4FF49A740022244B09E01046194657
:104300001DA3D3E90023FCF7D3F8323C02460B4649
:10431000312CF3D8A04609E01046194618A3D3E97A
:104320000023FCF7C5F8083C02460B46072CF3D8DF
:1043300008F0070408E0104619460022124BFCF76B
:10434000B7F8013C02460B46002CF4D135B130469B
:104350003946FCF7D7F905E00C4B002230463946C8
:10436000FCF7A6F802460B4650465946FCF7A0F863
:10437000FCF758FBBDE8F88F9A647EC50E1B514AC6
:104380000000000084D79741000024400000F03F67
:104390000000F0BFAFF300802DE9F74F0568064637
:1043A000884628462946FCF79BFC746883462146CC
:1043B0002046FCF795FCB768814639463846FCF73D
:1043C0008FFCF668824631463046FCF789FC314660
:1043D00001902046FCF784FC3946034628460093AA
:1043E000FCF77EFC009B01461846FCF76FFB01467C
:1043F000FCF76EFB04F00AFE3946C8F804002046BC
:10440000FCF76EFC3146034628460093FCF768FC37
:10441000009B01461846FCF75BFB0146FCF758FB86
:104420004946034658460093FCF752FB5146FCF7B9
:104430004DFB0199FCF74AFB009B0146184604F02E
:1044400031FE3146C8F808003846FCF749FC2146E1
:1044500006462846FCF744FC01463046FCF738FB8C
:104460000146FCF735FB494604465846FCF72EFB4F
:104470005146FCF72BFB0199FCF72AFB014620462D
:1044800004F010FEC8F80000BDE8FE8F014B18884C
:1044900080B27047A802002030B52A4891B003F0DE
:1044A00083FC294B00250093284B012401934FF4F2
:1044B000807306934FF48063079320230893214869
:1044C0004FF40053694609930295039404950595AA
:1044D0000A9503F0DBFC1B48214603F0F7FC4FF480
:1044E00060231B480BA90D930B958DF830508DF868
:1044F00031400E958DF83C4003F0B2FB2246032379
:104500001348042103F004FC1148214603F0D8FBB2
:104510000F48214603F0CAFB0D4803F0DBFB0C48B3
:1045200003F0DDFB0028FAD1094803F0DDFB084861
:1045300003F0DFFB0028FAD10548012103F0DEFB80
:1045400011B030BD080002404C240140A8020020F8
:1045500000240140BFF35F8F70470000014B1888B3
:1045600080B27047AA020020F0B54FF4406389B0D2
:10457000ADF8143002238DF8163012330DEB030121
:1045800005464A488DF8173003F050FD47484FF470
:10459000406103F09BFD002402E0032000F0A4FE34
:1045A00042484FF4806103F08BFD0028F5D04FF4B2
:1045B00080613E4803F08CFD032000F095FE01343D
:1045C0003A484FF4806103F081FDE4B2032000F02B
:1045D0008BFE082CE4D14FF40061344803F078FDE1
:1045E000032000F081FE4FF48061304803F070FD3D
:1045F000032000F079FE4FF480612C4803F066FD43
:10460000032000F071FE4FF40061284803F05EFDC6
:10461000032000F069FE4FF44063254CADF81830DC
:10462000022306A98DF81A3020481A338DF81B3062
:1046300003F0FCFC2560284601AD03F04FFE284640
:1046400003F07EFD002220684FF4407103F0BAFDB4
:104650004BF6FF73ADF80A304FF48043ADF81030DD
:10466000144B0026206829460193ADF8086003F03A
:10467000C1FD2068012103F071FD07AC22238DF8F4
:104680001C30204601238DF81F308DF81D608DF8F9
:104690001E6003F0B3FA2123204637468DF81C3004
:1046A0008DF81D6003F0AAFA09B0F0BD000C0140BE
:1046B000BC020020801A060040005FFA80FC2148FE
:1046C00008B580F800C0204801702049002008701B
:1046D0001F48012101701F4803601F4803601F4BE2
:1046E0001A701F4B19701F4B1868838813F4007FD2
:1046F00011D1038813F4807F06D1038813F4007F5F
:10470000FBD1012103F037FD164B4FF440711868BF
:10471000012203F057FD47F23053114A127812B1CB
:10472000013BFAD102E00BB1012008BD0E4B1A8803
:10473000013292B21A800B4B1868FFF715FF002068
:1047400008BD00BFC3020020AD020020AC02002063
:10475000B8020020B0020020B4020020AE02002007
:10476000C2020020BC020020AA02002030B5400096
:10477000274CC0B220702748274C017027480121E0
:10478000017000202070264D264C85B02270C5F89F
:1047900000D0254C254D102AC5F800D0217005D930
:1047A00034E013F800C00DF800C00130C1B29142EE
:1047B000F7D31F4B1868838813F4007F11D1038847
:1047C00013F4807F06D1038813F4007FFBD101210D
:1047D00003F0D1FC164B4FF440711868012203F02E
:1047E000F1FC47F23053104A127812B1013BFAD172
:1047F00002E00BB1012009E00E4B1A88013292B29F
:104800001A800B4B1868FFF7AFFE002005B030BDD3
:10481000C3020020AD020020B8020020AC0200203C
:10482000B4020020AE020020C2020020B00200202C
:10483000BC020020AA02002007B502AB03F8012D3C
:104840000122FFF793FF0EBD37B5224C2068838A03
:104850009BB20193019B019B13F4E06F2DD0038B5E
:1048600000229BB24FF48061009303F0ABFC019BEC
:1048700013F4007F21D12068038813F4007F1CD13A
:10488000058815F480750FD0038813F4807FFBD161
:10489000012103F07DFC0F4B1868038813F4007F9F
:1048A000FBD1FFF761FE08E0012103F071FC2068F5
:1048B0004FF440712A4603F085FC064B1A68938A30
:1048C00023F470631B041B0C9382034B00221A70A9
:1048D0003EBD00BFBC020020C2020020FFF7B4BFF3
:1048E000FFF7B2BF2DE9F04F954C85B02068828A62
:1048F000D2B212F001063BD00388012123F40063F9
:104900001B041B0C038003F050FC8E4B00221A701A
:104910008D4B1B78E3B18D4B1B781BB98C4B1B78EF
:10492000FF2B15D1894B01221A708A4B1B78022B61
:1049300006D1834B1B681A8892B242F400621A8037
:10494000854B012219787E4B186803F04BFC38E147
:10495000814B002219787A4B186803F043FC7C4B9A
:104960001B78FF2B00F02D814FF0FF32754BE5E0F7
:1049700012F0020347D00190FFF7ECFD754B019850
:104980001D78012D19D1704B1B78B3B16F4B1B787B
:104990009BB1314603F009FCFFF7DCFD2068294696
:1049A000038BDBB28DF80F3003F0F2FB6B4B20680A
:1049B0001D704FF480612A4601E1038B0190DBB248
:1049C0008DF80F30FFF7C6FD624B01981B78022B64
:1049D00009D15D4B1B7833B15C4B1B781BB10021B7
:1049E00003F0E3FBE6E05B4B1B78032B07D1564B50
:1049F0001B7823B1554B1B78002B40F0DD804FF422
:104A000080610122DBE012F0040572D04E4ADFF82B
:104A10004C811278012688F80060002A4FD04B4A5A
:104A20001278002A4BD04B4A464D12784C4F022A3E
:104A30002AD9194603F0B9FB206895F800A0D7F8E9
:104A4000009003F0CCFB4FFA8AFB0BF80900B2444C
:104A5000314685F800A0206803F09AFB88F80060D2
:104A6000206895F800803F6803F0B9FB4FFA88FA98
:104A70000AF80700B04485F8008020684FF4806190
:104A8000324603F09FFB2DE0314603F081FB2068A6
:104A9000D7F800802E7803F0A2FB4FFA86FA013691
:104AA0000AF80800F6B22E7020683F6803F097FB02
:104AB0004FFA86F8023608F807002E7012E0234CF1
:104AC000237813B9274B1B783BB1012103F060FB1E
:104AD0001C4B1A7801321A7004E0012103F04BFBE1
:104AE00001232370164B1B681A8812F4807FFBD1B8
:104AF00067E012F0400637D0194B124ED3F8008011
:104B0000377803F06CFB4FFA87FA124B01370AF83B
:104B10000800FFB237701B787FB20337BB4205D164
:104B200020684FF480612A4603F04CFB094B18784B
:104B3000044B1A7851B2884243D101321A7040E0D6
:104B4000BC020020C0020020B8020020C1020020E8
:104B5000AD020020AE020020C3020020AF02002000
:104B6000B0020020AC02002012F0800F29D0224DAC
:104B70002B785AB2B2F1FF3F11D0204901330968B6
:104B8000515C2B7003F029FB1D4B1A7895F900300E
:104B90009A4216D120684FF4806132460FE0194BDB
:104BA0002E70197803F019FB174B1B7813B9144BAF
:104BB0001B7833B9154B18684FF48061002203F05D
:104BC00001FB0F4B0C4A1B7892F9002001339A42EB
:104BD0000ED10F4B00221A700E4B1B782BB10B4BD2
:104BE0004FF44071186803F0EDFA0B4B00221A7075
:104BF00005B0BDE8F08F00BFC0020020B402002065
:104C0000AE020020AD020020B8020020BC0200204D
:104C1000C1020020AF020020C2020020FFF762BEE6
:104C2000FFF760BE044B1B78834203D9034B53F854
:104C300020301980704700BFD4020020A8C50008AA
:104C4000024B03EBC003D888704700BFD802002096
:104C50002DE9F04F002491B021460A220AA806F05F
:104C6000DEFA2146102203A806F0D9FA48234FF0B5
:104C700001028DF83F308748463B0FA9ADF83C2034
:104C80008DF83E3003F0D2F9834B40F2DC521B1911
:104C90000834402CDA80F7D1403C07AD0A2728467B
:104CA00021463A4606F0BBFA7C4B0D945E780DF136
:104CB00038090DF1340ADFF8F881002E4BD00126B7
:104CC0004946334628224FF0020B72488DF83B20AC
:104CD0000193ADF838608DF83AB003F0A7F9019B65
:104CE0001C2250468DF834208DF836308DF8354032
:104CF0008DF8376002F082FF284603F01DFD4FF06B
:104D000047034FF0FF324FF080402946ADF81C308A
:104D1000ADF82020ADF81E4003F08AFB4FF0804034
:104D20004146A8F80240A8F80460A8F80640A8F890
:104D30000840A8F8004003F02DFE4FF0804059468F
:104D4000324603F01FFD4FF08040314603F0FDFC7A
:104D5000534B1F7068E04FF0CF03ADF83830282375
:104D60008DF83B304B48263B49468DF83A3003F0EE
:104D70005DF94FF0030249464A48ADF83820012456
:104D800003F054F91C2350468DF834308DF835600B
:104D90008DF836408DF8374002F030FF1D23504625
:104DA0008DF8343002F02AFF284603F0C5FC4FF09E
:104DB00047034FF0FF324FF080402946ADF81C30DA
:104DC000ADF82020ADF81E6003F032FB36482946CE
:104DD00003F02EFBA8F80260A8F80440A8F80660CB
:104DE000A8F80860314B32499A19928898590A807C
:104DF000083603F0CFFD402EF4D14FF080401E2145
:104E0000012203F0BFFC012227481E2103F0BAFC57
:104E10004FF08040012103F098FC2348012103F06A
:104E200094FC1F4B06221A704FF410630FACADF8C0
:104E30003C30182321468DF83F301648163B8DF83C
:104E40003E3003F0F3F84FF47072214615480AAC77
:104E5000ADF83C2003F0EAF8204603F06DFC4FF07B
:104E60004703ADF82830134B0C4D1B7843B3AB8A86
:104E7000114E124896FBF3F3013B2146ADF82C305E
:104E800003F0D6FA6B8A96FBF3F6013EADF82C6080
:104E900021E000BF00080140D8020020C405002026
:104EA000D4020020000C01400004004068C5000846
:104EB000C4020020B001002040420F00002C01403D
:104EC0006B8A684A684892FBF3F3013B2146ADF8D0
:104ED0002C3003F0ADFA2146644803F0A9FA4FF0F4
:104EE000700203ACADF80C204FF001034FF000024C
:104EF000ADF80E30ADF810204FF47A734FF4807295
:104F0000594821464FF00205ADF81230ADF818208F
:104F1000ADF8145003F0E2FA5348214603F0CCFBFD
:104F20005148082103F039FC4F48082103F051FC97
:104F30004E48214603F0D2FA4C48214603F026FBA6
:104F40004A48214603F06EFB4848214603F0B4FB73
:104F50004648082103F021FC4448082103F026FCC0
:104F60004248082103F02CFC4048082103F031FCA2
:104F70003D48012103F0E9FB3C48012103F0E5FB3A
:104F80003B4E3948012103F0EDFB3848012103F085
:104F9000E9FB7378002B61D04FF0C0030FAFADF881
:104FA0003C303448182339468DF83F308DF83E5058
:104FB00003F03CF84FF003022F483946ADF83C208F
:104FC00003F034F8274A738A2C4892FBF3F3013B31
:104FD0000AA9ADF82C3003F02BFA4FF07003ADF8AE
:104FE0000C304FF001024FF00003ADF80E20ADF889
:104FF00010304FF47A724FF4807320482146ADF898
:105000001220ADF81830ADF8145003F067FA1B48C1
:10501000214603F0BBFA1948214603F003FB174869
:10502000214603F049FB1548082103F0B6FB13485D
:10503000082103F0BBFB1148082103F0C1FB0F4816
:10504000082103F0C6FB0D48012103F07EFB0B484D
:10505000012103F087FB0A4B0A221A7011B0BDE848
:10506000F08F00BF40420F00002C014000080040BC
:10507000C405002000080140000C0140000400406D
:10508000D40200202DE9F8450024064625462D4B84
:105090001F591A19B742B2F80480B2F806A04BD1D2
:1050A0003046514603F0DEFB012845D130465146DB
:1050B00003F0E3FBB8F10C0F18D8DFE808F007178E
:1050C00017170B1717170F1717171300304603F092
:1050D000BCFB0AE0304603F0BBFB06E0384603F0B9
:1050E000BAFB02E0384603F0B9FB0546164B1A5DE1
:1050F0001B190AB95D8000E09D80134B1A5D2AB927
:1051000001321A5511494FF002030FE01B199A881A
:1051100059888A4201D9521A01E0C9435218DA80EB
:10512000094A002313550A4A084913804B80A1F805
:105130000080384603F02EFC0834402CA7D1BDE88F
:10514000F88500BF68C50008D8020020C40200200E
:10515000540700200148FFF795BF00BF000400403E
:1051600010B5234B5B78002B3BD002214FF08040E1
:1051700003F078FB012808D11E4C1F4B22884FF00A
:1051800080401A8003F061FB208002214FF08040B4
:1051900003F073FB174B1A88174B1B88D31A9BB26B
:1051A00040F68C22934203D9144B00221A7010BD92
:1051B000A3F53A72073A92B240F2DA518A4207D81E
:1051C0000E4A1278072A03D80D4901EBC202D38098
:1051D0000A4B1A7801321A700A4B4FF000021A80FB
:1051E00010BD4FF08040BDE81040FFF74BBF00BF3F
:1051F000C4050020D2020020D0020020D5020020E9
:10520000D802002054070020044B1A6801321A60AB
:10521000034B1A68034B1A60704700BF1803002045
:10522000041000E0A004002072B6084B084A186879
:10523000084B1B68126862B60749C31A09684FF425
:105240007A70B3FBF1F300FB02307047041000E00A
:1052500018030020A00400209C04002070B5002347
:1052600004460E46054D5D19AA680C33002AF9D193
:10527000FFF7DAFF28606E60AC6070BDDC030020D1
:10528000F8B500240C276743124EBD19AB6853B123
:10529000FFF7CAFFBA596B68821A9A4203D9AB6802
:1052A00098470023AB600C2666430B4D7719BB680B
:1052B0005BB1FFF7B9FF72597B68821A9A4204D931
:1052C000BB689847FFF7B0FF70510134102CD9D15B
:1052D000F8BD00BF1C030020DC030020014B186850
:1052E000704700BF1803002038B50546FFF79CFF44
:1052F0000446FFF799FF001BA842FAD338BD10B54A
:10530000044604E04FF47A70FFF7EEFF013C002CF6
:10531000F8D110BD10B1034A034B1A60034A044B85
:10532000DA607047EFBEADDEF04F00200400FA05F2
:1053300000ED00E070B55E4B8AB00DF1140C0FCBA0
:105340008CE80F001D20012103F040F84FF40060AD
:10535000012103F03BF80120014603F045F802204B
:10536000012103F041F80420012103F03DF84FF43E
:105370000070012103F02AF84FF48040012103F06E
:1053800025F84FF48000012103F02EF8012001469A
:1053900009AC03F00DF80220012103F009F8002503
:1053A00003F03EF84FF0FF3342482146ADF8243079
:1053B0008DF8275002F03AFE3F48214602F036FEB3
:1053C0003E48214602F032FE3D48012102F082FEB5
:1053D000BDF818300326ADF824309DF81A30059832
:1053E00021468DF827308DF8266002F01FFEBDF8AB
:1053F00020300798ADF824309DF8223021468DF8F2
:1054000026608DF8273002F011FE0C236B432D4AE5
:1054100000269A1896602C4A01359B18102D9E6024
:10542000F3D1684602F074FF009A284B4FF47A7467
:10543000B2FBF3F2264B6FF00F011A60254B4FF4CD
:10544000A060DA6842F08072DA60234B1A6842F09A
:1054500001021A60214B1A68214BB2FBF4F222F0D0
:105460007F42013A5A601F4A82F8231007229E6049
:105470001A60114B01321A611D6102F0B5FB314611
:105480003046FDF71FFFFDF7A9FEFCF75BF8FFF7BD
:1054900003F81548FFF768F8FFF7DAFB4FF4E1303F
:1054A00000F094F82046FFF72AFF0AB070BD00BF55
:1054B000D0C5000800080140000C01400010014068
:1054C000000230001C030020DC03002040420F00DB
:1054D0009C040020F0ED00E0001000E094000020AB
:1054E00010E000E000ED00E000580040044B1868B8
:1054F000044B1B68984214BF00200120704700BF76
:10550000A8040020AC040020064B07481A68C2F526
:105510008061013A405C1A6012B94FF480621A60EF
:10552000704700BFA4040020580700200B4A0C4815
:1055300013680C49C018C8600B480068984203D92A
:10554000C31A4B60106004E0C3F580634B60002316
:1055500013600448012102F0B9BC00BFA804002078
:10556000580B002044000240AC040020074A0849C0
:105570001368C85401339B059B0D1360054B1B68D2
:1055800013F0010F01D1FFF7D1BF7047AC04002029
:10559000580B00204400024038B50546002401E0C5
:1055A000FFF7E4FF285D01340028F9D138BD000081
:1055B00008B5044802F09FFC034B1B68C01A18BFD3
:1055C000012008BD58000240A40400202DE9F04548
:1055D00093B011AC4FF400730646ADF84430022787
:1055E000182321463F488DF847304FF480688DF8E6
:1055F000467002F01BFD482321463A480125ADF8CC
:1056000044808DF8473002F011FD0E2310A80024CD
:105610008DF840308DF841508DF842508DF8435050
:1056200002F0ECFA4FF00C030CA92F48ADF83A3019
:105630000C96ADF83440ADF83640ADF83840ADF8D2
:105640003C4003F063FA294802F0AEFB4FF480536C
:105650000A93274BDFF8A4A0CDF810800DF10408C1
:105660008026029341462023204809930B94CDF8CD
:1056700004A00394059407940696089402F006FC8F
:1056800029461A4802F022FC2A464021164803F017
:1056900032FA164802F02FFC164B1860164802F03A
:1056A00083FB1023414614480393CDF804A00594CE
:1056B000079406960894099402F0E8FB39462A46B6
:1056C0000D4802F00FFC0C4B31465C6006482A4640
:1056D00003F011FA0448294603F000FA13B0BDE8BC
:1056E000F08500BF0008014000380140580002402A
:1056F00058070020A4040020440002400438014060
:1057000010B54FF4005002F0F9FB0021064802F0FA
:10571000DDFB064B1A68064B1B689A4203D0BDE8B6
:105720001040FFF703BF10BD44000240AC0400204E
:10573000A804002038B5144B00211B689878024655
:1057400011E093F801E05C6893F800C054F82E4033
:105750000EF1010E9EFBFCF50CFB15EC013A83F8F3
:1057600001C00919D2B2002AEBD19A70074B91FB04
:10577000F0F1196001F0B0FE01F022FF044B1A684D
:10578000044B1A6738BD00BF900000207411002040
:105790006C110020C41000202DE9F04F93B0FFF7EA
:1057A00043FD4A4D4A4B044618602868201AFBF70F
:1057B0003FFA4849FBF794FA474B2C601B680B9063
:1057C0009F7800253A46AA46A8461DE058784FF033
:1057D000060C0CFB00FC596801300CEB01043CF892
:1057E00001C01978B4F804E090FBF1F601FB160152
:1057F000648859700FFA8CF16D1821B28A44013A0D
:105800000FFA8EF18844D2B2002ADFD19A7067B3C2
:105810003846FBF711FA06462846304D304CFBF768
:105820000BFA3146FBF710FBA96BFBF74FF9616EE2
:10583000FBF756FAA0655046FBF7FEF93146FBF739
:1058400003FBE96BFBF742F9A16EFBF749FAE06550
:105850004046FBF7F1F93146FBF7F6FA296CFBF706
:1058600035F9E16EFBF73CFA20661E4B00251B68FC
:10587000AB469878A94606461BE0597806244C4367
:105880005A68013104EB020EA45A1A78BEF804C01B
:1058900091FBF2F802FB1812BEF802E00FFA8CFC42
:1058A0005A700FFA8EFE22B2013EAD18F344E14465
:1058B000F6B2002EE1D19E700B4B32461968B2460B
:1058C00091F802800790444636E000BFB4040020FF
:1058D000B0040020BD37863588000020F406002083
:1058E000C4100020840000208C00002091F801C02A
:1058F0004FF0060E0EFB0CFE48680CF1010C0EEB8F
:10590000000398885B880D900C934B68013C3EF82F
:1059100003E0E4B2CDF828E00B789CFBF3FE03FB38
:105920001ECC81F801C00A9803B20C98F61803B295
:105930000D989A4403B2D218002CD7D10798534639
:105940008C70002839D00892CDF824A0FBF774F9A8
:10595000574C82462846FBF76FF9564D5146FBF7E8
:1059600073FAE168FBF7B2F86968FBF7AFF82969E9
:10597000FBF7B6F920605846FBF75EF95146FBF796
:1059800063FA2169FBF7A2F8A968FBF79FF8696938
:10599000FBF7A6F960604846FBF74EF95146FBF766
:1059A00053FA6169FBF792F8E968FBF78FF8A96988
:1059B000FBF796F9099B089AA060B8F1000F3AD05E
:1059C0000892099301F0FAF94046FBF735F9384C93
:1059D00005463046FBF730F92946FBF735FAE16B0F
:1059E000FBF774F8A16CFBF771F8216BFBF778F902
:1059F000099B60621846FBF71FF92946FBF724FA5A
:105A0000216CFBF763F8E16CFBF760F8616BFBF767
:105A100067F9089AA0621046FBF70EF92946FBF7D2
:105A200013FA616CFBF752F8216DFBF74FF8A16B8D
:105A3000FBF756F9E062CFB11E4B93F84430ABB19F
:105A40001B4B5A68996A00929A6801F100410192D1
:105A50009A6D0292DA6D03921A6E04920B9A059275
:105A6000586ADA6A1B6800F0E9FA0EE0104B0B98EE
:105A70005A68996A00929A6802900192586ADA6AA2
:105A800001F100411B6800F03BF80B4B18680B4B11
:105A90000E9019680A4B0F911A680A4B0EA81B68E2
:105AA000094910921193FEF777FC13B0BDE8F08F0F
:105AB000C4100020F406002080000020BC04002058
:105AC000C0040020C4040020DC10002010B50B4CE2
:105AD0004FF07C51A4EB6004FBF702F92146FBF781
