:020000040800F2
:1000000000500020C5130008691400086914000896
:100010006914000869140008691400080000000051
:10002000000000000000000000000000691400084B
:10003000691400080000000069140008B1540008A9
:10004000691400086914000869140008691400089C
:10005000691400086914000869140008691400088C
:10006000691400086914000869140008691400087C
:100070006914000869140008C959000869140008C7
:10008000691400086914000869140008691400085C
:10009000691400086914000869140008691400084C
:1000A000691400086914000869140008691400083C
:1000B00009540008FD53000869140008C94E0008DF
:1000C000894B0008C54E0008854B000869140008DC
:1000D000691400086914000869140008691400080C
:1000E00091770008691400086914000800000000F6
:1000F0000000000000000000000000000000000000
:0C01000000000000000000005FF808F1A3
:1001100040F2AC13C2F200031A780AB90120187039
:10012000704700BF40F2AC10C2F2000008B503688F
:100130002BB140F20003C0F2000303B1984708BDA1
:1001400081F0004102E000BF83F0004330B54FEA88
:1001500041044FEA430594EA050F08BF90EA020FF5
:100160001FBF54EA000C55EA020C7FEA645C7FEA88
:10017000655C00F0E2804FEA5454D4EB5555B8BFAB
:100180006D420CDD2C4480EA020281EA030382EA1C
:10019000000083EA010180EA020281EA0303362DAE
:1001A00088BF30BD11F0004F4FEA01314FF4801C81
:1001B0004CEA113102D0404261EB410113F0004F93
:1001C0004FEA03334CEA133302D0524263EB43034A
:1001D00094EA050F00F0A780A4F10104D5F1200EE8
:1001E0000DDB02FA0EFC22FA05F2801841F1000143
:1001F00003FA0EF2801843FA05F359410EE0A5F117
:1002000020050EF1200E012A03FA0EFC28BF4CF047
:10021000020C43FA05F3C01851EBE37101F00045FD
:1002200007D54FF0000EDCF1000C7EEB00006EEB0A
:100230000101B1F5801F1BD3B1F5001F0CD3490894
:100240005FEA30004FEA3C0C04F101044FEA4452EB
:1002500012F5800F80F09A80BCF1004F08BF5FEA72
:10026000500C50F1000041EB045141EA050130BD52
:100270005FEA4C0C404141EB010111F4801FA4F1F5
:100280000104E9D191F0000F04BF01460020B1FA4A
:1002900081F308BF2033A3F10B03B3F120020CDA82
:1002A0000C3208DD02F1140CC2F10C0201FA0CF060
:1002B00021FA02F10CE002F11402D8BFC2F1200CC5
:1002C00001FA02F120FA0CFCDCBF41EA0C0190407B
:1002D000E41AA2BF01EB0451294330BD6FEA0404C4
:1002E0001F3C1CDA0C340EDC04F11404C4F12002AF
:1002F00020FA04F001FA02F340EA030021FA04F3C1
:1003000045EA030130BDC4F10C04C4F1200220FA17
:1003100002F001FA04F340EA0300294630BD21FA55
:1003200004F0294630BD94F0000F83F4801306BF1B
:1003300081F480110134013D4EE77FEA645C18BF0F
:100340007FEA655C29D094EA050F08BF90EA020FA6
:1003500005D054EA000C04BF1946104630BD91EA9E
:10036000030F1EBF0021002030BD5FEA545C05D1A1
:100370004000494128BF41F0004130BD14F58004E0
:100380003CBF01F5801130BD01F0004545F0FE4154
:1003900041F470014FF0000030BD7FEA645C1ABF89
:1003A000194610467FEA655C1CBF0B46024650EAC0
:1003B000013406BF52EA033591EA030F41F40021EC
:1003C00030BD00BF90F0000F04BF0021704730B572
:1003D0004FF4806404F132044FF000054FF0000147
:1003E00050E700BF90F0000F04BF0021704730B508
:1003F0004FF4806404F1320410F0004548BF4042DD
:100400004FF000013EE700BF42004FEAE2014FEA31
:1004100031014FEA02701FBF12F07F4393F07F4F0C
:1004200081F06051704792F0000F14BF93F07F4F3E
:10043000704730B54FF4607401F0004521F0004181
:1004400020E700BF50EA010208BF704730B54FF007
:1004500000050AE050EA010208BF704730B511F00C
:10046000004502D5404261EB41014FF4806404F144
:1004700032045FEA915C3FF4DCAE4FF003025FEAC6
:10048000DC0C18BF03325FEADC0C18BF033202EB4E
:10049000DC02C2F1200300FA03FC20FA02F001FAA8
:1004A00003FE40EA0E0021FA02F11444C1E600BF47
:1004B00070B54FF0FF0C4CF4E06C1CEA11541DBFFA
:1004C0001CEA135594EA0C0F95EA0C0F00F0DEF8C5
:1004D0002C4481EA030621EA4C5123EA4C5350EAAA
:1004E000013518BF52EA033541F4801143F48013FB
:1004F00038D0A0FB02CE4FF00005E1FB02E506F08C
:100500000042E0FB03E54FF00006E1FB03569CF0E0
:10051000000F18BF4EF0010EA4F1FF04B6F5007FE6
:1005200064F5407404D25FEA4E0E6D4146EB060658
:1005300042EAC62141EA55514FEAC52040EA5E50E1
:100540004FEACE2EB4F1FD0C88BFBCF5E06F1ED88B
:10055000BEF1004F08BF5FEA500E50F1000041EBC2
:10056000045170BD06F0004646EA010140EA02006F
:1005700081EA0301B4EB5C04C2BFD4EB0C0541EA91
:10058000045170BD41F480114FF0000E013C00F3A6
:10059000AB8014F1360FDEBF002001F0004170BDCA
:1005A000C4F10004203C35DA0C341BDC04F11404E3
:1005B000C4F1200500FA05F320FA04F001FA05F26F
:1005C00040EA020001F0004221F0004110EBD3703C
:1005D00021FA04F642EB06015EEA430E08BF20EA68
:1005E000D37070BDC4F10C04C4F1200500FA04F30B
:1005F00020FA05F001FA04F240EA020001F000419D
:1006000010EBD37041F100015EEA430E08BF20EA0F
:10061000D37070BDC4F1200500FA05F24EEA020E57
:1006200020FA04F301FA05F243EA020321FA04F086
:1006300001F0004121FA04F220EA020000EBD3703D
:100640005EEA430E08BF20EAD37070BD94F0000F3D
:100650000FD101F00046400041EB010111F4801F71
:1006600008BF013CF7D041EA060195F0000F18BF22
:10067000704703F00046520043EB030313F4801F5E
:1006800008BF013DF7D043EA0603704794EA0C0F18
:100690000CEA135518BF95EA0C0F0CD050EA41062E
:1006A00018BF52EA4306D1D181EA030101F00041AB
:1006B0004FF0000070BD50EA410606BF10461946D3
:1006C00052EA430619D094EA0C0F02D150EA0136DF
:1006D00013D195EA0C0F05D152EA03361CBF104620
:1006E00019460AD181EA030101F0004141F0FE41BF
:1006F00041F470014FF0000070BD41F0FE4141F443
:10070000780170BD70B54FF0FF0C4CF4E06C1CEA42
:1007100011541DBF1CEA135594EA0C0F95EA0C0FF7
:1007200000F0A7F8A4EB050481EA030E52EA0335B2
:100730004FEA013100F088804FEA03334FF08055D3
:1007400045EA131343EA12634FEA022245EA111500
:1007500045EA10654FEA00260EF000419D4208BFB1
:10076000964244F1FD0404F5407402D25B084FEA5E
:100770003202B61A65EB03055B084FEA32024FF40A
:1007800080104FF4002CB6EB020E75EB030E22BF67
:10079000B61A754640EA0C005B084FEA3202B6EB27
:1007A000020E75EB030E22BFB61A754640EA5C00D6
:1007B0005B084FEA3202B6EB020E75EB030E22BF66
:1007C000B61A754640EA9C005B084FEA3202B6EB67
:1007D000020E75EB030E22BFB61A754640EADC0026
:1007E00055EA060E18D04FEA051545EA16754FEA88
:1007F00006164FEAC30343EA52734FEAC2025FEAA6
:100800001C1CC0D111F4801F0BD141EA00014FF034
:1008100000004FF0004CB6E711F4801F04BF014305
:100820000020B4F1FD0C88BFBCF5E06F3FF6AFAE21
:10083000B5EB030C04BFB6EB020C5FEA500C50F1B1
:10084000000041EB045170BD0EF0004E4EEA113134
:1008500014EB5C04C2BFD4EB0C0541EA045170BD3B
:1008600041F480114FF0000E013C90E645EA060E7F
:100870008DE60CEA135594EA0C0F08BF95EA0C0FAD
:100880003FF43BAF94EA0C0F0AD150EA01347FF4F5
:1008900034AF95EA0C0F7FF425AF104619462CE7CC
:1008A00095EA0C0F06D152EA03353FF4FDAE10462F
:1008B000194622E750EA410618BF52EA43067FF480
:1008C000C5AE50EA41047FF40DAF52EA43057FF410
:1008D000EBAE12E74FF0FF3C06E000BF4FF0010C1B
:1008E00002E000BF4FF0010C4DF804CD4FEA410C7F
:1008F0007FEA6C5C4FEA430C18BF7FEA6C5C1BD04C
:1009000001B050EA410C0CBF52EA430C91EA030FCC
:1009100002BF90EA020F0020704710F1000F91EA29
:10092000030F58BF994208BF90422CBFD8176FEAF7
:10093000E37040F0010070474FEA410C7FEA6C5CC5
:1009400002D150EA013C07D14FEA430C7FEA6C5CCC
:10095000D6D152EA033CD3D05DF8040B704700BFF8
:100960008446104662468C461946634600E000BF46
:1009700001B5FFF7B7FF002848BF10F1000F01BD18
:100980004DF808EDFFF7F4FF0CBF012000205DF8E3
:1009900008FB00BF4DF808EDFFF7EAFF34BF012068
:1009A00000205DF808FB00BF4DF808EDFFF7E0FF01
:1009B00094BF012000205DF808FB00BF4DF808ED52
:1009C000FFF7CEFF94BF012000205DF808FB00BFB9
:1009D0004DF808EDFFF7C4FF34BF012000205DF89B
:1009E00008FB00BF4FEA410212F5001215D211D5E3
:1009F0006FF47873B3EB625212D94FEAC12343F01C
:100A0000004343EA505311F0004F23FA02F018BF9D
:100A1000404270474FF00000704750EA013005D166
:100A200011F0004008BF6FF0004070474FF0000029
:100A3000704700BF4A0011D212F5001211D20DD535
:100A40006FF47873B3EB62520ED44FEAC12343F0D4
:100A5000004343EA505323FA02F070474FF000007E
:100A6000704750EA013002D14FF0FF3070474FF02D
:100A7000000070474FEA4102B2F1E04324BFB3F5F2
:100A8000001CDCF1FE5C0DD901F0004C4FEAC00205
:100A90004CEA5070B2F1004F40EB830008BF20F0E9
:100AA0000100704711F0804F21D113F13872BCBFA3
:100AB00001F00040704741F480114FEA5252C2F1F8
:100AC0001802C2F1200C10FA0CF320FA02F018BF41
:100AD00040F001004FEAC1234FEAD32303FA0CFC94
:100AE00040EA0C0023FA02F34FEA4303CCE77FEA23
:100AF000625307D150EA01331EBF4FF0FE4040F46D
:100B00004000704701F0004040F0FE4040F400001B
:100B1000704700BF80F0004002E000BF81F000415C
:100B200042001FBF5FEA410392EA030F7FEA226C93
:100B30007FEA236C6AD04FEA1262D2EB1363C1BF23
:100B4000D218414048404140B8BF5B42192B88BF92
:100B5000704710F0004F40F4000020F07F4018BFB5
:100B6000404211F0004F41F4000121F07F4118BFD5
:100B7000494292EA030F3FD0A2F1010241FA03FC7D
:100B800010EB0C00C3F1200301FA03F100F0004365
:100B900002D5494260EB4000B0F5000F13D3B0F12D
:100BA000807F06D340084FEA310102F10102FE2A9C
:100BB00051D2B1F1004F40EBC25008BF20F001000C
:100BC00040EA03007047490040EB000010F4000FBA
:100BD000A2F10102EDD1B0FA80FCACF1080CB2EB4D
:100BE0000C0200FA0CF0AABF00EBC25052421843AC
:100BF000BCBFD0401843704792F0000F81F4000151
:100C000006BF80F400000132013BB5E74FEA410323
:100C10007FEA226C18BF7FEA236C21D092EA030F8F
:100C200004D092F0000F08BF0846704790EA010F09
:100C30001CBF0020704712F07F4F04D1400028BF36
:100C400040F00040704712F100723CBF00F5000018
:100C5000704700F0004343F0FE4040F4000070474E
:100C60007FEA226216BF08467FEA236301464202FA
:100C700006BF5FEA412390EA010F40F4800070470D
:100C80004FF0000304E000BF10F0004348BF4042B3
:100C90005FEA000C08BF704743F0964301464FF0EF
:100CA00000001CE050EA010208BF70474FF000034B
:100CB0000AE000BF50EA010208BF704711F000438C
:100CC00002D5404261EB41015FEA010C02BF84465C
:100CD0000146002043F0B64308BFA3F18053A3F5BB
:100CE0000003BCFA8CF2083AA3EBC25310DB01FA02
:100CF00002FC634400FA02FCC2F12002BCF1004F86
:100D000020FA02F243EB020008BF20F00100704716
:100D100002F1200201FA02FCC2F1200250EA4C006A
:100D200021FA02F243EB020008BF20EADC707047B0
:100D30004FF0FF0C1CEAD0521EBF1CEAD15392EABE
:100D40000C0F93EA0C0F6FD01A4480EA010C40029A
:100D500018BF5FEA41211ED04FF0006343EA5010F4
:100D600043EA5111A0FB01310CF00040B1F5000F36
:100D70003EBF490041EAD3715B0040EA010062F1E5
:100D80007F02FD2A1DD8B3F1004F40EBC25008BFCF
:100D900020F00100704790F0000F0CF0004C08BFED
:100DA00049024CEA502040EA51207F3AC2BFD2F1BA
:100DB000FF0340EAC250704740F400004FF00003C8
:100DC000013A5DDC12F1190FDCBF00F00040704702
:100DD000C2F10002410021FA02F1C2F1200200FA40
:100DE00002FC5FEA310040F1000053EA4C0308BF07
:100DF00020EADC70704792F0000F00F0004C02BF58
:100E0000400010F4000F013AF9D040EA0C0093F0D2
:100E1000000F01F0004C02BF490011F4000F013B2C
:100E2000F9D041EA0C018FE70CEAD15392EA0C0F9A
:100E300018BF93EA0C0F0AD030F0004C18BF31F005
:100E4000004CD8D180EA010000F00040704790F0DB
:100E5000000F17BF90F0004F084691F0000F91F07F
:100E6000004F14D092EA0C0F01D142020FD193EA45
:100E70000C0F03D14B0218BF084608D180EA0100CD
:100E800000F0004040F0FE4040F40000704740F0A9
:100E9000FE4040F4400070474FF0FF0C1CEAD05277
:100EA0001EBF1CEAD15392EA0C0F93EA0C0F69D0D3
:100EB000A2EB030280EA010C49024FEA402037D03E
:100EC0004FF0805343EA111143EA10130CF0004035
:100ED0008B4238BF5B0042F17D024FF4000C8B4225
:100EE00024BF5B1A40EA0C00B3EB510F24BFA3EB05
:100EF000510340EA5C00B3EB910F24BFA3EB9103D5
:100F000040EA9C00B3EBD10F24BFA3EBD10340EA2E
:100F1000DC001B0118BF5FEA1C1CE0D1FD2A3FF674
:100F200050AF8B4240EBC25008BF20F00100704729
:100F30000CF0004C4CEA50207F32C2BFD2F1FF03CC
:100F400040EAC250704740F400004FF00003013AFD
:100F500037E792F0000F00F0004C02BF400010F4A1
:100F6000000F013AF9D040EA0C0093F0000F01F0B5
:100F7000004C02BF490011F4000F013BF9D041EAD7
:100F80000C0195E70CEAD15392EA0C0F08D142020A
:100F90007FF47DAF93EA0C0F7FF470AF084676E7DD
:100FA00093EA0C0F04D14B023FF44CAF08466EE7B6
:100FB00030F0004C18BF31F0004CCAD130F0004284
:100FC0007FF45CAF31F000437FF43CAF5FE700BFDC
:100FD0004FF0FF3C06E000BF4FF0010C02E000BF05
:100FE0004FF0010C4DF804CD4FEA40024FEA4103A7
:100FF0007FEA226C18BF7FEA236C11D001B052EA5D
:10100000530C18BF90EA010F58BFB2EB030088BF22
:10101000C81738BF6FEAE17018BF40F00100704791
:101020007FEA226C02D15FEA402C05D17FEA236C73
:10103000E4D15FEA412CE1D05DF8040B704700BFBA
:10104000844608466146FFE70FB5FFF7C9FF002851
:1010500048BF10F1000F0FBD4DF808EDFFF7F4FF8A
:101060000CBF012000205DF808FB00BF4DF808ED23
:10107000FFF7EAFF34BF012000205DF808FB00BF46
:101080004DF808EDFFF7E0FF94BF012000205DF868
:1010900008FB00BF4DF808EDFFF7D2FF94BF012019
:1010A00000205DF808FB00BF4DF808EDFFF7C8FF12
:1010B00034BF012000205DF808FB00BF4FEA40026A
:1010C000B2F1FE4F0FD34FF09E03B3EB12620DD976
:1010D0004FEA002343F0004310F0004F23FA02F0E0
:1010E00018BF404270474FF00000704712F1610F87
:1010F00001D1420205D110F0004008BF6FF000405E
:1011000070474FF00000704742000ED2B2F1FE4F20
:101110000BD34FF09E03B3EB126209D44FEA0023C6
:1011200043F0004323FA02F070474FF0000070478D
:1011300012F1610F01D1420202D14FF0FF3070472E
:101140004FF00000704700BF4A1E08BF7047C0F054
:101150002481884240F21681114200F01781B0FAD2
:1011600080F3B1FA81F2A2EB0303C3F11F0304A2DF
:1011700002EB03134FF000029F4600BFAFF3008065
:10118000B0EBC17F00BF42EB020228BFA0EBC170F1
:10119000B0EB817F00BF42EB020228BFA0EB817061
:1011A000B0EB417F00BF42EB020228BFA0EB4170D1
:1011B000B0EB017F00BF42EB020228BFA0EB017041
:1011C000B0EBC16F00BF42EB020228BFA0EBC160D1
:1011D000B0EB816F00BF42EB020228BFA0EB816041
:1011E000B0EB416F00BF42EB020228BFA0EB4160B1
:1011F000B0EB016F00BF42EB020228BFA0EB016021
:10120000B0EBC15F00BF42EB020228BFA0EBC150B0
:10121000B0EB815F00BF42EB020228BFA0EB815020
:10122000B0EB415F00BF42EB020228BFA0EB415090
:10123000B0EB015F00BF42EB020228BFA0EB015000
:10124000B0EBC14F00BF42EB020228BFA0EBC14090
:10125000B0EB814F00BF42EB020228BFA0EB814000
:10126000B0EB414F00BF42EB020228BFA0EB414070
:10127000B0EB014F00BF42EB020228BFA0EB0140E0
:10128000B0EBC13F00BF42EB020228BFA0EBC13070
:10129000B0EB813F00BF42EB020228BFA0EB8130E0
:1012A000B0EB413F00BF42EB020228BFA0EB413050
:1012B000B0EB013F00BF42EB020228BFA0EB0130C0
:1012C000B0EBC12F00BF42EB020228BFA0EBC12050
:1012D000B0EB812F00BF42EB020228BFA0EB8120C0
:1012E000B0EB412F00BF42EB020228BFA0EB412030
:1012F000B0EB012F00BF42EB020228BFA0EB0120A0
:10130000B0EBC11F00BF42EB020228BFA0EBC1102F
:10131000B0EB811F00BF42EB020228BFA0EB81109F
:10132000B0EB411F00BF42EB020228BFA0EB41100F
:10133000B0EB011F00BF42EB020228BFA0EB01107F
:10134000B0EBC10F00BF42EB020228BFA0EBC1000F
:10135000B0EB810F00BF42EB020228BFA0EB81007F
:10136000B0EB410F00BF42EB020228BFA0EB4100EF
:10137000B0EB010F00BF42EB020228BFA0EB01005F
:10138000104670470CBF012000207047B1FA81F26F
:10139000C2F11F0220FA02F0704708B14FF0FF308F
:1013A00000F00EB80029F8D02DE90340FFF7CCFE7D
:1013B000BDE8064002FB00F3A1EB0301704700BF4C
:1013C000704700BF1A481B49026800608A4219D062
:1013D000002103E0184B5B58435004311748184B69
:1013E00042189A42F6D3174A02E0002342F8043B1F
:1013F000154B9A42F9D306F0DDFB09F0B1FF00F07E
:1014000073F8FEE7114E124830601248016821F06F
:1014100070610160410201600F4C182020600F498B
:101420000F4808600F48D0F800D04068004700001F
:10143000F04F0020EFBEADDE3CCF000800000020E2
:10144000AC010020AC010020441200201810024022
:101450000900000004000140140C0140000C014090
:101460004434434400F0FF1FFEE700000F4B93F8A5
:1014700068312BB90E4BDA6882F01002DA6009E0AD
:101480000C4B1B791BB10A4B10225A6102E0084B2E
:1014900010221A61074B5B781BB1054B08225A6179
:1014A0007047034B08221A61704700BF30060020C6
:1014B000000C0140F805002010B504F009F8084BB5
:1014C000084A19681860411A116000F0A1FE00F086
:1014D000AFF800F00FFEBDE8104000F0C1BD00BF46
:1014E000B00100202C05002008B504F089F805F0B3
:1014F000A9FD00F013FE1D48002104F003F81C486C
:10150000002103F0FFFF1B4840F6055103F0FAFFEE
:10151000194840F6055103F0F5FF184844F62061DC
:1015200003F0F0FF164B93F8A43123B1154843F2B2
:10153000154103F0E7FF144849F6404103F0E2FF8C
:10154000124844F6206103F0DDFF1148114903F011
:10155000D9FF0B4B93F8B43123B10F4849F6404102
:1015600003F0D0FF03F0F2FFFCE700BF09710008B1
:1015700069710008455A0008B9140008512E000886
:1015800030060020C9710008FD590008F13B000831
:101590006D140008A086010029720008214A92F803
:1015A0003230191FC9B2012912D9012B10D0022BD8
:1015B0000ED0032B0CD0092B0AD0112B08D0122BE4
:1015C00004D192F8E820042A02D903E0152B01D1B6
:1015D000012100E00021144A013B1170142B1FD897
:1015E000DFE803F00F11110D0B13131E11131E1E54
:1015F0001E1E1E1E11151E1E1B0000220AE00222C6
:1016000008E0032206E0042204E0062202E0054B83
:1016100093F8E820054B1A707047044B01221A70AA
:10162000704700BF30060020B401002030050020C4
:101630002DE9F74F9B4B9C4C93F83230013B142B18
:1016400000F2AB84DFE813F0B1003C0184012D000F
:10165000DA030A027A02A904C501E502A904A90471
:10166000A904A904A904A90453031500A904A90401
:1016700041048E4B8E4AD3F80C908E4B8949D2F898
:101680000CA0D2F80080576892681B7891F8C86067
:10169000019201F1EC040C22F831834D02FB03139B
:1016A0009DE3824B824ED868F168FFF739FA77687C
:1016B000814600213846FFF73BFB7A4D804695F97D
:1016C000C800FFF7E1FAB168FFF732FB0021D6F856
:1016D00000A00646FFF72CFB514683464846FFF71D
:1016E0001FFA4146FFF71CFA5946FFF719FAFFF7B0
:1016F0000BFD514620804846FFF710FA4146FFF7A0
:101700000FFA5946FFF70CFAFFF7FEFC6080B5F8B8
:10171000BE00FFF7B9FA3146FFF702FA3946FFF784
:10172000FFF90446B5F8BC00FFF7AEFA8046414623
:101730002046FFF79BFC08B140460CE0B5F8C0001E
:10174000FFF7A2FA054629462046FFF7ADFC08B18F
:10175000284600E02046FFF7D7FC524D564B80B29A
:101760001880B5F8C400FFF78FFA3146FFF7D8F9B3
:101770003946FFF7D3F90446B5F8C200FFF784FAFB
:10178000064631462046FFF771FC002840F088836A
:10179000B5F8C600FFF778FA054629462046FFF758
:1017A00083FC002800F0888388E3404B404ED868D3
:1017B000F168FFF7B5F9D6F804A007464FF04041AD
:1017C0005046FFF7B5FA3D49FFF766FB354D8146B8
:1017D00095F9C800FFF758FAB168FFF7A9FA002198
:1017E0008346FFF7A5FAD6F80080064641463846FC
:1017F000FFF796F94946FFF793F93146FFF790F95D
:10180000FFF782FC414620803846FFF787F94946BA
:10181000FFF786F93146FFF783F9FFF775FC0021E2
:1018200060804046FFF784FA01463846FFF778F9B2
:101830004FF0814107465046FFF77AFA1F49FFF7FC
:101840002BFB01463846FFF76BF93146FFF768F985
:10185000FFF75AFCA080B5F8CC00FFF715FA5946FF
:10186000FFF75EF90446B5F8CA00FFF70DFA064621
:1018700031462046FFF7FAFB08B130460CE0B5F8D8
:10188000CE00FFF701FA054629462046FFF70CFC7B
:1018900008B1284600E02046FFF736FC064B80B230
:1018A00018807AE330060020000000206C00002041
:1018B000DC05002030050020100000200000404022
:1018C0009A4D9B4BE968D868FFF72AF92E680746BE
:1018D00000213046FFF72CFA01463846FFF720F981
:1018E000944B814693F9C800FFF7CEF9A968FFF73A
:1018F0001FFAD5F80480054641464846FFF70EF921
:101900002946FFF70BF9FFF7FFFB00212080404637
:10191000FFF70EFA314682463846FFF7FFF8514688
:10192000FFF7FEF82946FFF7FBF8FFF7EDFB41460E
:1019300060804846FFF7F4F82946FFF7EFF8FFF715
:10194000E3FB3146A0803846FFF7EAF851463AE01B
:10195000764D774BE968D868FFF7E2F8D5F8008054
:1019600082464146FFF7DCF8724B074693F9C80000
:10197000FFF78AF9A968FFF7DBF96E68054631467B
:101980003846FFF7CBF82946FFF7C8F8FFF7BCFB4E
:10199000414620805046FFF7C1F831468046FFF7A8
:1019A000BDF82946FFF7BCF8FFF7AEFB3146608073
:1019B0004046FFF7B5F82946FFF7B0F8FFF7A4FB5C
:1019C0003146A0803846FFF7ABF82946FFF7A8F864
:1019D000D4E1564D564BE968D868FFF7A1F8554B4E
:1019E000074693F9C800FFF74FF9A968FFF7A0F978
:1019F00000216E68D5F800800546FFF799F9414649
:101A000082463846FFF78CF83146FFF787F8514693
:101A1000FFF786F8FFF778FB414620803846FFF74E
:101A20007DF83146FFF77AF85146FFF779F8FFF76E
:101A30006BFB002160804046FFF77AF9014638468B
:101A4000FFF76EF83146FFF76BF829460646FFF7B9
:101A500065F8FFF759FBA0803046B6E7344B334DAD
:101A6000D868E968FFF75CF8D5F804A006464FF09F
:101A700040415046FFF75CF92F49FFF70DFA2F68F8
:101A8000814639463046FFF74BF84946FFF748F89C
:101A9000284B804693F9C800FFF7F6F8A968FFF7CE
:101AA00047F9054629464046FFF738F8FFF72CFB73
:101AB000394620803046FFF731F84946FFF730F8C5
:101AC00029468146FFF72AF8FFF71EFB00216080B8
:101AD0003846FFF72DF901463046FFF721F84FF061
:101AE000814106465046FFF723F91349FFF7D4F921
:101AF00001463046FFF714F829460646FFF710F86E
:101B0000FFF702FB2946A0804046FFF709F8FFF7E0
:101B1000FBFA2946E0804846FFF702F8FFF7F4FA9F
:101B2000294620813046FEF7F9FFDCE0DC05002085
:101B30006C0000203006002000004040AA4BAB4D56
:101B4000D868E968FEF7ECFF2F6880460021384628
:101B5000FFF7EEF801464046FEF7E2FFD5F80490A5
:101B60008246A3494846FFF7E3F84FF07851FFF764
:101B7000DFF8A04B064693F9C800FFF785F8A9687F
:101B8000FFF7D6F8314605465046FEF7C9FF29460D
:101B9000FEF7C4FFFFF7B8FA394620804046FEF74B
:101BA000BDFF31468346FEF7BBFF2946FEF7B8FF6F
:101BB000FFF7AAFA904960804846FFF7B9F84FF05E
:101BC0007851FFF7B5F8814649465846FEF7A8FF19
:101BD0002946FEF7A3FFFFF797FA4946A080504633
:101BE000FEF79EFF2946FEF79BFFFFF78DFA394669
:101BF000E0804046FEF794FF49460746FEF790FF17
:101C00002946FEF78BFFFFF77FFA314620813846E1
:101C100064E0754B754DD868E968FEF781FFD5F82B
:101C200000A0804674495046FFF782F84FF0785183
:101C3000FFF77EF801464046FEF772FF6D4B074600
:101C400093F9C800FFF720F8A968FFF771F86E68EC
:101C5000054631463846FEF761FF2946FEF75EFF2E
:101C6000FFF752FA624920805046FFF761F84FF0C3
:101C70007851FFF75DF801464046FEF751FF3146C7
:101C80008246FEF74BFF2946FEF74AFFFFF73CFA74
:101C9000002160803046FFF74BF8804641465046B1
:101CA000FEF73EFF2946FEF739FFFFF72DFA3146D2
:101CB000A0805046FEF734FF2946FEF731FFFFF7BC
:101CC00023FA3146E0803846FEF72AFF2946FEF720
:101CD00025FFFFF719FA414620813846FEF720FF1D
:101CE0002946FEF71DFFFFF70FFA608155E13F4DD2
:101CF0003D4BE968D868FEF713FF3E4B074693F962
:101D0000C800FEF7C1FFA968FFF712F800216E684E
:101D1000D5F800800546FFF70BF841468246384665
:101D2000FEF7FEFE3146FEF7F9FE5146FEF7F8FEDD
:101D3000FFF7EAF9414620803846FEF7EFFE3146CC
:101D4000FEF7ECFE5146FEF7EBFEFFF7DDF9002152
:101D500060804046FEF7ECFF01463846FEF7E0FEA5
:101D60003146FEF7DDFE29460646FEF7D9FEFFF7AF
:101D7000CBF92946A0803046FEF7D0FEFFF7C4F924
:101D8000E0800AE1514648460093FEF7C9FE54F848
:101D90000C1C83464046FEF7CBFF01465846FEF733
:101DA000BFFE54F8081C83463846FEF7C1FF0146C3
:101DB0005846FEF7B5FE834670B2FEF765FF0199FF
:101DC000FEF7B6FF54F8041CFEF7B2FF0146584672
:101DD000FEF7A6FEFFF798F9009B25F8020C0C34DD
:101DE00002359C42CED1D8E06C000020DC050020FA
:101DF0000000E0C0300600200000E0408F4CB4F846
:101E0000D200FEF741FF8E4B05469969D4F8D80001
:101E1000FEF78EFF01462846FEF782FE894B1968C1
:101E2000FEF77EFE0546B4F8D000FEF72DFF06460D
:101E300031462846FFF71AF908B130460CE0B4F8ED
:101E4000D400FEF721FF044621462846FFF72CF96F
:101E500008B1204600E02846FFF756F9774C7A4B48
:101E600080B21880B4F8DE00FEF70EFF744B054612
:101E7000D969D4F8E400FEF75BFF01462846FEF777
:101E80004FFE704B5968FEF74BFE0546B4F8DC0078
:101E9000FEF7FAFE064631462846FFF7E7F808B196
:101EA00030460CE0B4F8E000FEF7EEFE04462146B2
:101EB0002846FFF7F9F808B1204600E02846FFF76A
:101EC00023F9614B80B2588067E05E4E5E4DF0684A
:101ED000FFF71AF95D4B20801B79584C73B9E08EDF
:101EE000FEF7D2FE804641467068FEF717FE414677
:101EF00007463068FEF712FE064602E0544B5F6864
:101F00001E6894F93601FEF7BFFE3946FEF710FF52
:101F1000804694F93401FEF7B7FE3146FEF708FF1C
:101F200001464046FEF7FCFDFFF7EEF8288094F9E5
:101F30003701FEF7A9FE3946FEF7FAFE074694F987
:101F40003501FEF7A1FE3146FEF7F2FE01463846A6
:101F5000FEF7E6FDFFF7D8F838493B4A6880CB8E9C
:101F60001088B1F838211818904205DBB1F83A21F1
:101F70009042B8BF024692B233490A804A882F493C
:101F8000D218B1F83C319A4205DBB1F83E319A42A1
:101F9000B8BF13469BB22C4A53802E4B2E4993F860
:101FA00000B00A88012308E031F8020F0FFA82FC22
:101FB00001336045C8BF0246DBB25B45F4D31F4B1B
:101FC000264CB3F84000D98FB3F83A8093F84270AA
:101FD0009E8E1E4BC2EB00095D781FFA89F9B4F999
:101FE00006A04FEA4B0B002323E00FFA82FC844546
:101FF00005DD194C34F803C0CC4424F803C0164C5A
:1020000034F803C08C4501D28C4602E0844528BFD9
:102010008446114CC24524F803C003DA0FB1E652DE
:1020200000E0E15225B90C4C4FF47A7C24F803C04F
:1020300002335B45D9D1BDE8FE8F00BF30060020DA
:10204000B01100206C00002010000020F8050020D6
:10205000DC05002030050020000000201C060020C8
:1020600038B50B4B00241D78002D14BF0225002528
:1020700008E0084B601933F81410C0B202F026FFD4
:102080000134E4B2044B1B78A342F2D838BD00BF40
:10209000B401002000000020300500200649074B55
:1020A00009789A1C02EB410201E023F8020C02338A
:1020B0009342FAD1FFF7D4BF300500200000002082
:1020C00038B5054600240FE0094B0134D88FFFF7DF
:1020D000E5FFFA2003F079FA4FF47A70FFF7DEFF9C
:1020E000FA2003F072FAE4B2AC42EDD338BD00BF7F
:1020F00030060020074B10B51B7853B1064C00206A
:10210000218802F0E3FE61880120BDE8104002F062
:10211000DDBE10BDB401002010000020084B094AAC
:1021200003F17001D86C1060186D5060586D9060AC
:10213000986D1033D06018328B42F3D1704700BFD6
:102140003006002034050020044B03F1A8010022D2
:102150001A615A6118338B42F9D170473405002057
:1021600000230361436170472DE9F04704460D46A3
:10217000D0F814901046616161689046FEF7D8FD72
:102180002049FEF7D5FD01462846FEF7D1FD21691D
:10219000FEF7C6FCD4F80CA0074620611A49504649
:1021A000FEF7C6FD064631463846FEF75FFF50B9DA
:1021B00014495046FEF7BCFD064631463846FEF748
:1021C00073FF00B93E46266121682846FEF7B0FD40
:1021D0000C4907463046FEF75FFE01463846FEF7DB
:1021E0009FFC494606462846FEF798FCA168FEF784
:1021F0009FFD4146FEF750FE01463046FEF790FC3B
:10220000BDE8F08700007A4400007AC400000000B6
:102210002DE9F84503F05CF9834E844B05461860C0
:102220003068281AFEF72CFD8149FEF781FD814BAD
:1022300004461A793560002A31D07F4D6868FEF770
:10224000E3F875A3D3E90023FEF732F9FEF712FC99
:1022500007462868FEF7D8F86FA3D3E90023774D27
:10226000FEF726F9FEF706FCA969FEF757FC02F017
:10227000FDF8224601467248FFF776FF02F0F6F8B5
:10228000E96906463846FEF749FC02F0EFF82246B7
:1022900001466C48FFF768FF02F0E8F845E05B7A1A
:1022A000654D002B2CD0654B186A674B1968FEF7FB
:1022B00035FC064606F05AFD8246304606F088FD9B
:1022C000D5F80080074651464046FEF731FD6D685F
:1022D000064639462846FEF72BFD01463046FEF7F6
:1022E0001DFC514606462846FEF722FD39460546A6
:1022F0004046FEF71DFD01462846FEF711FC14E09E
:102300002868FEF781F846A3D3E90023FEF7D0F84A
:10231000FEF7B0FB06466868FEF776F840A3D3E9FF
:102320000023FEF7C5F8FEF7A5FB424B05465B7997
:10233000CBB1464B9B78B3B1454B9B7813B945481D
:10234000FFF70EFF444B18683C4B196AFEF7E6FB9B
:1023500002F08CF8224601463E48FFF705FF02F0E6
:1023600085F880460FE0344B9868FEF74DF82CA3B3
:10237000D3E90023FEF79CF8FEF77CFB2F4B804649
:102380001A6A354B1A602B4B9B79EBB1334B1868AB
:102390002A4BD96FFEF7C2FB3149FEF77DFD22467D
:1023A00001463048FFF7E0FE2F490746FEF75EFE84
:1023B00008B12D4F05E038462C49FEF775FE00B1F7
:1023C0002A4F2B4BDF6002E0294B0022DA601B4FC3
:1023D0003046796AFEF7A2FB224601462548FFF700
:1023E000C3FE234EB96A30602846FEF797FB2246AB
:1023F00001462148FFF7B8FEF96A70604046FEF7D3
:102400008DFB224601461D48FFF7AEFEB060BDE8D9
:10241000F88500BFAFF30080FCA9F1D24D62503FB8
:102420007B14AE47E17A743FBC010020B801002064
:10243000BD378635F80500206C000020B011002063
:102440007C050020940500202C0600206800002058
:102450007C000020AC050020F005002018060020BC
:1024600000002041C4050020000048C3000048438C
:10247000DC050020340500204C0500206405002008
:10248000014B01221A707047E1010020014803F05E
:10249000E7B900BF48B60008014803F0E1B900BF42
:1024A00076B6000838B50D4803F0DAF900240C4D73
:1024B000285903F0D5F92D19092003F0BBF96868F4
:1024C00003F0CEF9074803F0CBF903F073F90028C5
:1024D000FBD00C343C2CEAD138BD00BF7BB60008E1
:1024E00058C0000873B7000838B50D4803F0B8F9B4
:1024F00000240C4D285903F0B3F92D19092003F0DD
:1025000099F9686803F0ACF9074803F0A9F903F0FA
:1025100051F90028FBD00C34842CEAD138BD00BF1F
:102520009EB60008C4B5000873B7000810B503F0E4
:102530003BF84FF47A71B0FBF1F1144C144801F000
:1025400098FA144803F08CF9D4F88000FDF75CFF8A
:1025500002460B46104801F08CFA94F888100F4898
:1025600001F087FA0E4803F07BF90E4B0E4819680C
:1025700001F07FFA02F046F901460C4801F079FAC1
:102580000B48BDE8104003F06BB900BFB01100204C
:10259000B4B60008C6B60008DAB60008DFB6000810
:1025A000E4B600082C050020F1B6000800B70008CA
:1025B00073B700082DE9F041074608F019FFC5B2CE
:1025C00055B91F4803F04CF91E4B93F832201E4BAF
:1025D000013A53F822002AE038461C492A4608F0FE
:1025E0000FFF044670B91A4803F03AF9164B53F836
:1025F0002400F0B103F034F90134202003F01AF97B
:10260000E4B2F3E70024104E56F8241009B911483B
:1026100010E038462A4608F0F3FE631C70B9094AF8
:102620000D4882F8323003F01BF956F8240003F00D
:1026300017F90A48BDE8F04103F012B9DCB2E2E74D
:1026400011B700083006002020000020A4BA0008BE
:1026500021B7000834B700084CB7000873B700086A
:102660002DE9F04585B0804608F0C2FE074628B146
:10267000012879D198F800302A2B75D14B4C4C4861
:1026800003F0EEF8D4F86C01FDF7BEFE0646D4F870
:1026900070010F46FDF7B8FECDE90001D4F87401D2
:1026A000FDF7B2FE32463B46CDE90201414801F05A
:1026B000E0F9D4F87C01FDF7A7FE0646D4F88001C6
:1026C0000F46FDF7A1FECDE90001D4F88401FDF726
:1026D0009BFE32463B46CDE90201374801F0C9F97D
:1026E000D4F88801FDF790FE0646D4F88C010F4619
:1026F000FDF78AFECDE90001D4F89001FDF784FED4
:102700002E4D32463B46CDE902012D4801F0B1F98C
:10271000E86BFDF779FE0646286C0F46FDF774FE60
:10272000CDE90001686CFDF76FFE32463B46CDE90E
:102730000201244801F09DF9D4F89801FDF764FEE8
:102740000646D4F89C010F46FDF75EFECDE9000178
:10275000D4F8A001FDF758FE3246CDE902013B4610
:10276000194801F086F91DE000252C46174E404619
:1027700071593A465FFA84FA08F042FE40B90C23D8
:1027800003FB0464A3689847BAF1040F0AD903E075
:1027900001340C35052CE9D10D4805B0BDE8F045F4
:1027A00003F05EB805B0BDE8F08500BF300600203C
:1027B0005AB7000876B7000890B70008B01100209B
:1027C000ACB70008D2B70008EEB7000858C0000840
:1027D00006B8000870B50D680446284608F008FEE3
:1027E000024620682946BDE8704008F009BE000096
:1027F0007FB5037904460D46052B2BD8DFE803F09F
:10280000030810151B208368204968461A7804E0E5
:1028100083681F4993F90020684601F01BF919E00D
:1028200083681A4968461A88F7E783681849684632
:10283000B3F90020F1E78368144968461A68ECE7A9
:1028400083681868FDF7E0FD02460B4668461149AB
:1028500001F000F968466E4603F002F8ADB10E488B
:1028600002F0FEFF69460A22E06801F043FD684677
:1028700002F0F6FF084802F0F3FF206969460A22D9
:1028800001F038FD684602F0EBFF7FBDE1B60008BD
:1028900024B8000827B8000879B600082DE9F041EF
:1028A000064608F0A5FD074620B101281FD1337860
:1028B0002A2B1CD1424802F0D3FF424C04F5E265BA
:1028C0000C35206802F0CCFF3F4802F0C9FF2046DB
:1028D0003946FFF78DFF3D4802F0C2FF02F06AFF64
:1028E0000028FBD01434AC42EBD1BDE8F081304677
:1028F0003D2108F071FD074600285ED0314C04F5FB
:10290000E2650C35D4F80080404608F071FD414680
:102910000246304608F074FD8046002845D12379F0
:10292000781C052B04D101F0BFFD0546404602E0AE
:1029300008F0E9FC00252379052B06D0E2689042D7
:1029400013DB2269904212DD0FE0E068FEF79CF98C
:1029500001462846FEF78AFB38B92069FEF794F94C
:1029600001462846FEF7A0FB88B1194821E0052B57
:102970000FD8DFE803F003030606090CA3681870FC
:1029800007E0A368188004E0A368186001E0A3686A
:102990001D60206802F064FF0E4802F061FF2046CF
:1029A0000021BDE8F041FFF723BF1434AC42A9D1A8
:1029B0000948BDE8F04102F053BFBDE8F08100BF17
:1029C0002AB8000894C000083FB8000873B7000890
:1029D00043B8000851B7000868B8000810B50848A7
:1029E00002F03EFF00F07CFC064802F039FF0A20AE
:1029F00002F0EBFD0020BDE8104002F0F1BD00BF89
:102A000085B800088FB80008F0B585B0044608F016
:102A1000EFFC082824D100231F49E25C0968511803
:102A2000497811F0020F18BF203AE2540133082B05
:102A3000F2D1651C04F1090715F8016C17483146FD
:102A400008F0CAFC20B12846314608F0C5FC08B1A0
:102A500013481CE00135BD42EED1204600F064FC75
:102A6000104802F0FDFE00230F4A04A9D218927A02
:102A70008A180A49595C0133082B02F80C1CF3D15F
:102A8000083B01A88DF80C3002F0EAFE074802F07E
:102A9000E7FE05B0F0BD00BFB4000020B0C70008DD
:102AA0009EB80008BEB800083006002073B70008C2
:102AB00010B50446084802F0D3FE20220021074842
:102AC00008F081FC064A00231360064A2046137072
:102AD000BDE81040FFF782BFD3B80008C001002056
:102AE000E4010020EC05002010B5084802F0B8FE13
:102AF000012000F02FFC064802F0B2FE0A2002F08E
:102B000064FD0020BDE8104002F06ABDEBB800088B
:102B100091B800082DE9F041864B8AB01A7832B995
:102B200001321A70844802F09BFEFFF7B5FC834B1C
:102B30001B78002B00F0738102F09EFE18B102F0AA
:102B400047FE7F4B18707E4B1B78672B2BD007D826
:102B5000612B11D0622B1CD0232B40F0608107E049
:102B6000712B43D0772B63D06D2B40F0588130E030
:102B7000724B00221A70D9E0724C2068FDF744FCB9
:102B8000064660680F46FDF73FFCCDE90001A068EE
:102B900015E06C4B986FFDF737FC02460B466A4810
:102BA00000F067FF3BE1674C606AFDF72DFC0646CD
:102BB000A06A0F46FDF728FCCDE90001E06AFDF7A9
:102BC00023FC3246CDE902013B46604800F051FF4C
:102BD00025E15C4CA06DFDF717FC0646E06D0F4645
:102BE000FDF712FCCDE90001206EE8E7584B1868AC
:102BF000584BD3F80080584B1F68584B1E68FDF7A0
:102C000003FC044640460D46FDF7FEFBCDE90001FE
:102C10003846FDF7F9FBCDE902013046FDF7F4FB3C
:102C20002246CDE904012B464D4800F022FFF6E094
:102C3000444C4C49A069FEF77BF8FDF7E5FB0646DE
:102C40000F46E0694749FEF773F8FDF7DDFBCDE974
:102C500000014449206AFEF76BF8B0E702F0B8FDC6
:102C6000092801D03F2853D13F4BDFF80C810026C3
:102C70001F683546A8F184040CE02FB13B48216859
:102C80003A4608F0BDFB20B915B92646254600E0B6
:102C900026460C344445F0D1BDB1344A3B46D219E6
:102CA0002968C85C3168C95C81420CD1581C01326A
:102CB00029B92E4A2031D1542B4B186005E002F877
:102CC000011C0346ECE7284A1360274B1B680BB135
:102CD000B5420FD0264802F0C3FD06E055F80C0BB4
:102CE00002F0BEFD092002F0A5FDB542F6D9FFF7BE
:102CF000D3FB00271D4CE41904E014F8010C02F08A
:102D000099FD0137184B01341B689F42F5D386E0CB
:102D1000154B1B682BB9042803D11448FFF7C8FED4
:102D200082E00C282AD1134802F09AFDFFF7B4FB89
:102D300075E000BFEC05002006B90008E1010020A5
:102D4000E0010020B0110020D4C9000841B90008FA
:102D500080000020BC040020C0040020C404002027
:102D60003EB90008E02E6542E4010020C0010020C9
:102D70004BB9000850B9000848B60008002B2FD006
:102D80000A2801D00D282BD1294802F069FD294BD2
:102D9000294C1A680023A3540893284B07A80093D2
:102DA00027490B220C23079408F0B1FA054638B1E5
:102DB000006808F01DFB0130AB682018984702E05E
:102DC000204802F04DFD20221B48002108F0FBFAAC
:102DD000184B00221A601C4B1B78002BA6D123E055
:102DE0007F2801D008280AD1CBB1124A013B1360D9
:102DF000114A0021D154154802F032FD0FE01F2B7B
:102E00000DD81F280BD97E2809D80BB9202806D049
:102E1000094AD054074A0133136002F00BFD02F057
:102E20002BFD00287FF41AAF0AB0BDE8F08100BF87
:102E300073B70008E4010020C0010020D527000876
:102E4000C4B500085BB90008EC0500207CB9000897
:102E50002DE9F14F7B4B00241A787B4D01321A701B
:102E60002646784B794F93F80080BB19987A02F088
:102E70003BF8A0F53A73063B9BB240F2DC5293421A
:102E800088BFF88E704B08F0030808EB860823F81B
:102E900018002B886A88D218AB88D218EB88D21811
:102EA00012B2931C48BF531D9B10694A9BB2135327
:102EB000684A19B2A05E0338814201DA981CA05218
:102EC000644AA05E0330814201DD023BA352013619
:102ED00002340835082EC4D15E4C5C4DB4F906208E
:102EE0006B8F9A4245DAFFF72FF92B8C73B15A4B4F
:102EF0005B7923B1594B1A780AB1012215E0574B7F
:102F00005A78002A62D000225A705FE0B4F9042097
:102F1000AB8F9A420FDD514B597861B950490A780D
:102F2000501C142A087051D1133A5A704D4B1A6A2A
:102F30004D4B1A604AE0454B5B8F9A4243DA474A51
:102F4000517841B146490B78581C142B08703DD17B
:102F5000143B53703AE03F4AB2F902209A4232DD04
:102F60003F4A1378591C142B11702FD103F056FFD0
:102F70002CE0A98F8A4229DD384A527832BBB4F955
:102F800004208A420CDDB4F90210994208DA344A6E
:102F90001378591C142B117018D104F053FC15E050
:102FA0009A4210DA2B4AB2F902209A420BDA2C4AE2
:102FB0001378591C142B117008D103F005FE03205F
:102FC000FFF77EF802E0264B00221A701F4B9A781A
:102FD000002A2AD0254AB3F804E01088704521D988
:102FE0001E4A5178F1B1B3F836C01A49A1F800C0B1
:102FF000A1F802C0A1F804C0B3F808C0DB88A1F8AA
:1030000006C09E4401217045D17302DD0023537038
:103010001370124B5A780AB95A701A70134B013058
:10302000188002E00D4B0022DA73084B104A588FCB
:103030009C8F00231946B2F900C084451ADC4FF07A
:10304000000E1FE03C020020FC01002030060020A2
:10305000E80100201C06002008060020F8050020DA
:10306000F8010020B01100202C060020F4070020F9
:103070002406002032F908EC8645ACBF4FF0000E64
:103080004FF0010E8445ACBF002501259D40A445AD
:10309000D4BF4FF0000C4FF0010C45EA01019D1C1C
:1030A0000CFA05FC41EA0C0103F1010C0EFA0CFECE
:1030B000033341EA0E0102320C2B89B2BBD1734FAC
:1030C0000C3B3A46B2F816C0714811EA0C0F0CBF1F
:1030D0004FF0000C4FF0010C03F800C00133023236
:1030E0000E2BEFD1437913B96A4B01221A70684B4A
:1030F0001A7A684B02B101229A72654B1B7813B998
:10310000644BDA7B5AB1634C23794BB96248FFF7C1
:1031100027F86248FFF724F80123237100E01A71B1
:103120005B4B9A785B4B42B15A793AB901325A718A
:103130005B4B1A6A5B4B1A6000E05A71544B5A7A27
:10314000544B42B15A7A3AB901325A72544B1A6A04
:10315000554B1A6000E05A724D4B5B7B1BB1504BD4
:103160001A6A514B1A600025504B514CE85EFDF72E
:103170008BFD44F815000235082DF5D1434BDE8E4A
:103180003046FDF781FD054629462068FDF7C6FC5F
:10319000294620606068FDF7C1FC29466060A06890
:1031A000FDF7BCFCA060A6F5BA600C38FDF76CFD1D
:1031B0000146E068FDF7B2FC0025E0602C46DFF830
:1031C000F8A03C4B1AF80420B7F844B01A555846FA
:1031D000FDF75AFDDFF8D890804659F80560414662
:1031E0003046FDF74DFF78B1CBF10000FDF74CFD07
:1031F00001463046FDF74EFF30B1002349F8053057
:1032000001230AF8043014E02B4B00221A553046F3
:103210000021FDF749FFDFF898A020B13046414674
:10322000FDF77CFC03E030464146FDF779FC4AF8A7
:103230000500013404350237032CC0D11C4BDC6877
:103240001E4B20461968FDF769FC1D4920F000401F
:10325000FDF72AFF10B10F4B00229A710C4B5A78E0
:103260000C4B7AB19A7972B901329A71134B1548A5
:103270001C600B4BDA6F144B1A6001B0BDE8F04FC5
:10328000FEF76EBF9A7101B0BDE8F08F30060020E6
:1032900008060020F80500207C0500209405002089
:1032A000B0110020F00500202C0600201C06002094
:1032B0006C0000207C00002068000020F405002045
:1032C0000000A041C4050020180600200248034960
:1032D0004FF4E27208F06AB83006002000FC0108E2
:1032E00010B504F0D1FE342004F0E2FE0B4804F0E7
:1032F00037FF04280CD1094C094B2046E15804F053
:1033000005FF042800D0FEE7064B04349C42F3D1AD
:1033100004F0C6FEBDE81040FFF7D8BF00FC01086E
:10332000300AFE17C4FD010870B50646002409E006
:10333000064D284608F050F818B1054A83185D1B61
:10334000AC720134315D0029F2D170BDB0C7000804
:103350003006002070B5B04B1B7810B9022B00F07E
:103360005981AE4C02232370AD48FFF7DDFF0123E6
:103370004FF4C8706370013B4FF032026082A3705B
:103380004FF4966044F62063E380A282A2802081FD
:1033900004F11C034FF0000CA4F816C002349C4248
:1033A0006546F7D19D4B40F2DC50D88640F24C4048
:1033B000588740F27E40D8874FF00C000322A3F8D4
:1033C0004400A3F84600A3F8480040F2DC5083F81C
:1033D0003220A3F8BE004FF47A724FF47A709A86C6
:1033E000A3F8C2004FF4FA624FF4FA601A87A3F808
:1033F000C60040F26C7240F2DC509A87A3F8CC0011
:1034000040F23A724FF47A70A3F84020A3F8D0004B
:103410004FF47A724FF4FA60A3F8BC20A3F8D400FA
:103420004FF4FA624FF47A70A3F8C020A3F8DC00DE
:1034300040F2DC5240F2DC50A3F8C420A3F8DE00D6
:103440004FF47A724FF4FA60A3F8CA20A3F8E000B0
:103450004FF4FA620420A3F8CE2083F8E80040F28B
:10346000DC5270480121A3F8D2204FF07E52C3F8FD
:10347000D820C3F8E420C3F8EC20C3F8F00083F8A8
:10348000421083F8C810C3F8F400C3F8F800C3F87A
:10349000FC00C3F80401C3F80C014FF0FF3083F8BF
:1034A000340183F836014FF47A70A3F838014FF4F1
:1034B000FA60A3F83A014FF47A70A3F83C014FF494
:1034C000FA60A3F83E01584C5848C3F80021C3F8ED
:1034D0000821C3F81021C3F81421C3F818210022D1
:1034E000C3F81C21C3F82021C3F82421C3F82821E4
:1034F000C3F82C21C3F83021D8641A655A65986541
:10350000D8651A665A669866DC661A6783F83511BC
:1035100083F837115A6798674FF07C50C3F88800DA
:10352000C3F89800C3F8A80041484FF08044C3F89E
:10353000AC004048DC67C3F8B0003F48C3F88C409B
:10354000C3F8B4003D484FF07F54C3F8B8003C487E
:10355000C3F89C40C3F844013A483B4CC3F84801C7
:103560003A483B4EC3F84C013A48C3F88020C3F8B0
:1035700050013948C3F88420C3F85401C3F86401EA
:103580004FF02A00C3F89020C3F89420C3F8A0207D
:10359000C3F8A420C3F86C21C3F87021C3F87421C8
:1035A000C3F87C2183F84011C3F85841C3F85C612B
:1035B000C3F8604183F868C1A3F87801C3F880219B
:1035C000C3F88421C3F88821C3F88C21C3F8902163
:1035D000C3F89821C3F89C21C3F8A0211F4A83F89F
:1035E00094C1C3F8A8211E4A83F8A411C3F8AC21E2
:1035F0001C4A83F8B4C1C3F8B0211B4AC3F8B821F0
:103600001A4AC3F8BC211A4AC3F8C021BDE8704069
:10361000FFF766BE70BD00BF00FC01083006002049
:10362000B8C70008000080BF000048430000C8423F
:103630000000A041000088410000E0400060EA4630
:10364000E19575C040CCB0402F6B71BB4E6562C038
:103650002E14B03BAD8B593F979F833AA4702941FC
:10366000000040400AD7233C000030413333534030
:1036700066668640F8B504460E4610464FF07E5109
:103680001546FDF7E9FC20BB3046FCF7BDFE0646BB
:1036900028460F46FCF7B8FE02460B4600200E49AE
:1036A000FCF752FD02460B4630463946FCF700FF58
:1036B00006460F4620462946FDF73AFBFCF7A4FED6
:1036C00002460B4630463946FCF740FDFDF7D2F97D
:1036D00004462046F8BD00BF0000F03F2DE9F84544
:1036E0000C46D1F8088019681F4616460546FDF7B6
:1036F0001FFB216882467868FDF71AFB0146504699
:10370000FDF70EFA61688246B868FDF711FB0146C5
:103710005046FDF705FAF96882464046FDF708FB7A
:1037200001465046FDF7FCF9E16882463869FDF72D
:10373000FFFA01465046FDF7F3F921690746306864
:10374000FDF7F6FA01463846FDF7E8F961690746E4
:103750007068FDF7EDFA01463846FDF7DFF9A1691B
:103760000746B068FDF7E4FA01463846FDF7D6F99A
:10377000E1690746F068FDF7DBFA01463846FDF7D8
:10378000CDF9C4F80C806368A3602368256063608A
:10379000A369E3616369A361236920616361BDE893
:1037A000F88528B102681170026801320260704722
:1037B000C8B202F03FB82DE9F845161E04460D4682
:1037C0000FDD002200E00132A95C0029FBD1B242EA
:1037D000ACBF0E46B61A13F0020F02D04FF0300AFB
:1037E00001E04FF0200A13F0010809D04FF0000863
:1037F00008E020465146FFF7D4FF08F10108013EDA
:10380000002EF6DC474603E02046FFF7CAFF0137EB
:10381000C8EB0503D95D0029F6D105E020465146E5
:10382000FFF7BFFF0137013E002EF7DC3846BDE849
:10383000F8852DE9FF410A9F05460B9EDDF830E033
:103840008C4651B930238DF804308DF805103A4676
:1038500001A93346FFF7AFFF39E03BB10A2A05D192
:10386000002903DAC1F1000C012400E0002404ABBC
:10387000002103F8011D0DE0BCFBF2F102FB11C1B8
:103880000929C4BFAEF13A000918303103F8011D0F
:10389000BCFBF2FC9846BCF1000FEDD184B14FB1F6
:1038A00016F0020F06D028462D21FFF77AFF013FC0
:1038B000012405E02D2203F1FF3803F8012C002438
:1038C000284641463A463346FFF775FF001904B0D3
:1038D000BDE8F0812DE9F04F82468FB00E461446C8
:1038E0004FF0060B0025A4E0252B40F09C8016F835
:1038F000013F002B00F0A180252B00F094802D2BA0
:1039000002D04FF0000806E001364FF0010802E057
:10391000013648F002083378302BF9D00022914666
:103920000AE02AB10A2303FB0B1B0BF0FF0B08E094
:103930000A2303FB0909013633782E2B03D14FF0FC
:10394000000B0122F7E7A3F13000C1B20929E8D941
:10395000732B07D154F8041B3D4B5046002908BF78
:1039600019465AE0642B0BD1033B0293CDF800902B
:10397000CDF80480271D504621680A22603B0CE0E8
:10398000782B0FD1173BCDF80090CDF8048002932F
:103990002168271D50461022613BFFF74AFF2D1872
:1039A0003C4645E0582B0BD1173B0293CDF80090D5
:1039B000CDF80480271D504621681022413BECE7DA
:1039C000752B0AD1143BCDF80090CDF804800293FA
:1039D000271D504621680A22DEE7632B0DD123689C
:1039E00050468DF8343000238DF835300DA94A4605
:1039F0004346271DFFF7DFFED1E7662B18D10734BA
:103A000024F0070305AFD3E9000103F108043A46A7
:103A10005B4600F081FC504639464A464346FFF774
:103A2000CAFE2D1804E050463178FFF7BAFE013582
:103A300001363378002B7FF457AFBAF1000F03D073
:103A4000DAF8003000221A7028460FB0BDE8F08F77
:103A5000C1C700080EB40FB505AA52F8041B0190A7
:103A600001A80392FFF736FF04B05DF804EB03B042
:103A700070470FB407B504AA52F8041B0020019246
:103A8000FFF728FFBDE80E4004B07047034B044920
:103A90001A78885C01321A70704700BF3F0200201C
:103AA0004802002010B5FFF7F1FF0446FFF7EEFFD4
:103AB00004EB002080B210BD10B5FFF7F3FF044601
:103AC000FFF7F0FF04EB004010BD000010B5044606
:103AD00001F0B0FE024B1A7854401C7010BD00BFBC
:103AE0003E02002038B50546002401E0FFF7EEFF56
:103AF000285D01340028F9D138BD0000014B187849
:103B0000FFF7E4BF3E02002070B5044624200D46B6
:103B1000FFF7DCFF4D20FFF7D9FF002C14BF212059
:103B20003E20FFF7D3FF064B00221A702846FFF70E
:103B3000CDFF044B1878BDE87040FFF7C7BF00BF4A
:103B40003E0200204502002001460120FFF7DCBFB5
:103B500001460020FFF7D8BF70B50B4D0B4C064651
:103B6000C0B2287001F066FE2A782378B6B282EAE5
:103B70000303300A2370287001F05CFE23782A7852
:103B800082EA0303237070BD440200203E0200203D
:103B900070B5154D154C0646C0B2287001F04AFEAE
:103BA0002A782378300A82EA0303C0B2237028708F
:103BB00001F040FE2A782378300C82EA0303C0B279
:103BC0002370287001F036FE2A782378300E82EABE
:103BD00003032370287001F02DFE23782A7882EAEF
:103BE0000303237070BD00BF410200203E0200208D
:103BF00070B5A34B1B78002B00F05283BDE87040DA
:103C0000FEF788BF01F0E4FD9E4B1A78A2B9242884
:103C100014BF002201221A70002A40F04183232899
:103C200003D0522840F03C8302E0FEF773FF37E3F5
:103C3000012001F0D5FC33E3012A04D14D280CBF4B
:103C40000220002005E0022A05D13C280CBF0320F9
:103C50000020187024E3032A11D1402801D9033A27
:103C60001DE3894A8949107000220A7088490A7048
:103C7000884A107004221A70033A874B0FE3042A13
:103C800007D1864A1070834A117848401070052287
:103C900005E3052A40F004837C497B4B0A781B78B6
:103CA00093427C4B0AD993F800C080EA0C0C83F84D
:103CB00000C07B4B985401320A70F1E21B788342BA
:103CC00040F0EB82754B1B78722B00F0B78223D843
:103CD0006A2B5DD010D8662B00F0518106D8642B7A
:103CE00000F0FD80652B40F0D38209E1682B00F0E5
:103CF0009A8100F2A4818AE16E2B00F0DF8105D861
:103D00006C2B00F0A88100F2D18141E0702B00F013
:103D1000FF8100F279823BE0CB2B00F0C98010D804
:103D2000762B00F09D8205D8742B00F07B8200F288
:103D30007E828AE2C92B1FD02ED8C82B40F0A882E1
:103D400011E0CF2B24D005D8CD2B00F0968200F2C5
:103D50009982B7E0FA2B00F09882FE2B18D0D02B76
:103D600040F096827FE20024FFF79CFE4D4BE0522C
:103D70000234102CF8D10BE0FFF788FEFFF786FE27
:103D8000FFF79AFEFFF798FEFFF78CFEFFF78AFE1B
:103D90000020FFF7DDFE7EE2434C04F13005FFF723
:103DA00075FEFCF76DFFE064FFF770FEFCF76CFF3B
:103DB0003E49FDF771F82065FFF768FEFCF760FFEC
:103DC00060651034AC42EAD1FFF760FEFCF758FFA3
:103DD000354CC4F8AC00FFF759FEFCF755FF3349EA
:103DE000FDF75AF8C4F8B000FFF750FEFCF748FFA3
:103DF000C4F8B40000240134FFF748FEFFF746FE84
:103E0000FFF744FE032CF6D1FFF740FEFCF738FF26
:103E1000254CE067FFF73AFEFCF736FF2349FDF734
:103E20003BF8C4F88000FFF731FEFCF729FFE36F91
:103E3000C4F88400C4F88C30D4F88030C4F89400FE
:103E4000C4F89030FFF722FEFCF71AFFC4F89C007C
:103E5000FFF71CFEFCF718FF1449FDF71DF8C4F826
:103E6000A000FFF713FEFCF70BFFC4F8A40000242A
:103E70000134FFF70BFE032CFAD1FEF74FF987E769
:103E8000EC0500203D0200204002002042020020FC
:103E90003F0200203E020020430200204502002095
:103EA000480200201C0600203006002000007A4452
:103EB0008A4C04F11C05FFF7F5FDE0820234AC42A8
:103EC000F9D165E7FFF7E2FDFFF7E0FDFFF7DEFD63
:103ED000FFF7DCFDFFF7DAFDFFF7D8FDC0E10720B3
:103EE000FFF736FED220FFF7F1FD7C4B93F832004E
:103EF000FFF7ECFD0020FFF7E9FD4FF000403BE04D
:103F00000A20FFF725FE764BB3F90000FFF724FEE9
:103F100000F078FC00B2FFF71FFE724BB3F900000F
:103F2000FFF71AFE704B59799A79890041EA4201EC
:103F30001A7911435A7841EA42116C4AD07841EA21
:103F4000C001107941EA0011D87941EA8011187A4C
:103F500041EAC011587A9B7A41EA402141EA0323A1
:103F6000917A507B43EA8123D17A43EAC123117BC2
:103F700043EA013343EA4030FFF70AFE8BE15C4C31
:103F80001220FFF7E5FD5B492068FCF7D1FEFDF745
:103F900095F800B2FFF7E0FD56496068FCF7C8FEEF
:103FA000FDF78CF800B2FFF7D7FD5249A068FCF787
:103FB000BFFEFDF783F800B2FFF7CEFD4E49606A01
:103FC000FCF7B6FEFDF77AF800B2FFF7C5FD4A49E7
:103FD000A06AFCF7ADFEFDF771F800B2FFF7BCFD7B
:103FE0004549E06AFCF7A4FEFDF768F800B2FFF768
:103FF000B3FDA06DFDF762F800B2FFF7ADFDE06D17
:10400000FDF75CF800B2FFF7A7FD206E4AE0102034
:10401000FFF79EFD0024394BE05E0234FFF79CFD64
:10402000102CF8D137E11020FFF792FD0024344B1B
:10403000E05E0234FFF790FD102CF8D12BE1102048
:10404000FFF786FD00242F4BE05E0234FFF784FD6E
:10405000102CF8D11FE1264C0820FFF779FDA0694C
:104060002949FCF765FE2349FCF762FEFDF726F8B7
:1040700000B2FFF771FDE0692349FCF759FE1D49C5
:10408000FCF756FEFDF71AF800B2FFF765FD1E4972
:10409000206AFCF74DFEFDF711F800B2FFF75CFD5A
:1040A0001A4B1868FDF70AF800B2CBE00420FFF7BE
:1040B0004FFD0F4B986FFDF727F85DE70320FFF7E3
:1040C00047FD0B4B0B49D3F88000FCF731FEFDF7A1
:1040D0001BF8C0B2FFF7FAFCB3E000BF30060020C7
:1040E0002C050020D6040020F8050020080600203A
:1040F000B0110020000020410000C8421000002044
:10410000000000201C060020E02E65422C06002046
:104110001E20FFF71DFD654C04F1480554F8080CFE
:10412000FCF7F2FFC0B2FFF7D1FC614954F8040C70
:10413000FCF7FEFDFCF7E8FFC0B2FFF7C7FC54F840
:10414000180BFCF7E1FFC0B2FFF7C0FCAC42E5D1B1
:10415000584CD4F89000FCF7D7FFC0B2FFF7B6FC7C
:104160005349D4F89400FCF7E3FDFCF7CDFFC0B24F
:10417000FFF7ACFCD4F89800FCF7C6FFC0B2FFF71D
:10418000A5FC00240020FFF7A1FC0020FFF79EFC07
:1041900001340020FFF79AFC032CF3D1454CA06CAE
:1041A000FCF7B2FFC0B2FFF791FC4149E06CFCF7AD
:1041B000BFFDFCF7A9FFC0B2FFF788FC206DFCF73C
:1041C000A3FFC0B2FFF782FCA06FFCF79DFFC0B257
:1041D000FFF77CFC3649E06FFCF7AAFDFCF794FF83
:1041E000C0B2FFF773FCD4F88000FCF78DFFC0B2BB
:1041F000FFF76CFC0020FFF769FC0020FFF766FC6E
:104200000020FFF763FC46E01C20FFF7A1FC2A4CCE
:1042100004F11C05B4F916000234FFF79DFCAC4212
:10422000F8D138E06D20FFF793FC244803E02F20FD
:10423000FFF78EFC2248FFF755FC2CE00220FFF729
:1042400087FC0020FFF788FC25E00820FFF780FCB2
:104250000124E0B20134FFF739FC092CF9D11AE04E
:10426000FFF714FC94E50020FFF772FC0120FFF734
:1042700071F8002001F0B4F90DE002F0A5FC02F0A5
:10428000CDFD85E503F0DEFA82E5FFF729F87FE54D
:104290000020FFF759FCFFF731FC0A4B00221A708F
:1042A00001F0EAFA00287FF4ADAC70BD3C050020B7
:1042B00000007A443405002030060020C8C70008FA
:1042C00038C800083D02002038B50546B5FBF2F3BA
:1042D0000846144613B11846FFF7F6FFB5FBF4F392
:1042E00004FB1354024B1B5D00F8013B38BD00BFBB
:1042F00068C80008931E222B88BF0A22031E10B52F
:104300000C4603DA2D2001F8010B5842FFF7DCFFC1
:1043100000230370204610BD2DE9FF4D514C1F4670
:10432000002A18BF14460023002206460D46FCF75B
:1043300031FB20B12D2304F8013B05F10045072F87
:1043400019D80022002330462946FCF741FB464B92
:10435000FA0038B1D31830462946D3E90023FBF7D9
:10436000F5FE06E0D31830462946D3E90023FBF7D3
:10437000EBFE06460D4600234FF0010803E00A223B
:1043800002FB08F80133BB42F9D330462946FCF75B
:1043900051FB002302460CE04FF00A0CB2FBFCF18B
:1043A0000CFB11220DF1040A30320AF8032001330C
:1043B0000A46002AF0D11BB9303304F8013B0BE068
:1043C0000DF1040C0CEB030111F801AD04F802A08F
:1043D00001326145F8D1E418002F3ED0FBF7F2FF1F
:1043E00002460B4630462946FBF7AEFE8246404663
:1043F0008B46FBF7E7FF02460B4650465946FCF753
:1044000057F8FCF717FB2E23224602F8013B2E3B00
:1044100008E00A25B0FBF5FC05FB1C003030C85451
:104420000133604601A90028F3D1C91803E0302008
:1044300001F8010C01330131BB42F8D323B9144612
:10444000303304F8013B08E001A8C11811F801CD90
:10445000814204F801CFF9D1D4180020207004B0B3
:10446000BDE8F08D8802002090C8000810B50B4907
:104470000446FCF70FFE20B120460949FCF74EFB2D
:1044800008E020460749FCF7F1FD20B12046044929
:10449000FCF746FB0446204610BD00BFDB0F494039
:1044A000DB0FC940DB0F49C02DE9F84F044600E09F
:1044B00001342378202BFBD0092BF9D02D2B05D1EB
:1044C00001344FF0000ADFF870B106E02B2BDFF863
:1044D00064B108BF01344FF0000A0026002713E042
:1044E0000022534B30463946FBF7E2FF064628468A
:1044F0000F46FBF777FF02460B4630463946FBF77F
:1045000025FE013406460F462378A3F13005EAB2B2
:10451000092AE5D92E2B21D101344FF00008DFF80C
:10452000109116E0FBF75EFF42464B46FCF7EAF8B7
:1045300002460B4630463946FBF708FE0022064687
:104540000F46404649463A4BFBF7B2FF01348046DE
:10455000894620783038C3B2092BE3D92378652BFC
:1045600001D0452B4CD16278631C2D2A02D1013336
:10457000012503E02B2A08BF013300250022144641
:1045800002E00A2000FB0414995C01323039C8B201
:104590000928F6D9B4F59A7F28BF4FF49A740022FF
:1045A000244B09E0104619461DA3D3E90023FBF76D
:1045B0007FFF323C02460B46312CF3D8A04609E07F
:1045C0001046194618A3D3E90023FBF771FF083CF6
:1045D00002460B46072CF3D808F0070408E0104603
:1045E00019460022124BFBF763FF013C02460B46C3
:1045F000002CF4D135B130463946FCF783F805E09C
:104600000C4B002230463946FBF752FF02460B4660
:1046100050465946FBF74CFFFCF72CFABDE8F88FE3
:104620009A647EC50E1B514A0000000084D7974152
:10463000000024400000F03F0000F0BFAFF3008016
:104640002DE9F74F05680646884628462946FCF7B7
:104650006FFB7468834621462046FCF769FBB76808
:10466000814639463846FCF763FBF6688246314698
:104670003046FCF75DFB314601902046FCF758FBC5
:104680003946034628460093FCF752FB009B01463F
:104690001846FCF743FA0146FCF742FA04F08AFD9B
:1046A0003946C8F804002046FCF742FB3146034671
:1046B00028460093FCF73CFB009B01461846FCF79C
:1046C0002FFA0146FCF72CFA494603465846009358
:1046D000FCF726FA5146FCF721FA0199FCF71EFA7D
:1046E000009B0146184604F0B1FD3146C8F80800A9
:1046F0003846FCF71DFB214606462846FCF718FB0A
:1047000001463046FCF70CFA0146FCF709FA494627
:1047100004465846FCF702FA5146FCF7FFF90199A6
:10472000FCF7FEF90146204604F090FDC8F80000B1
:10473000BDE8FE8F014B188880B27047A8020020A8
:1047400030B52A4891B003F093FB294B0025009324
:10475000284B012401934FF4807306934FF4806338
:1047600007932023089321484FF400536946099387
:1047700002950394049505950A9503F0EBFB1B48FD
:10478000214603F007FC4FF460231B480BA90D934F
:104790000B958DF830508DF831400E958DF83C40DA
:1047A00003F0C2FA224603231348042103F014FB4A
:1047B0001148214603F0E8FA0F48214603F0DAFADF
:1047C0000D4803F0EBFA0C4803F0EDFA0028FAD19B
:1047D000094803F0EDFA084803F0EFFA0028FAD18F
:1047E0000548012103F0EEFA11B030BD0800024087
:1047F0004C240140A802002000240140BFF35F8F39
:1048000070470000014B188880B27047AA02002050
:10481000F0B54FF4406389B0ADF8143002238DF841
:10482000163012330DEB030105464A488DF8173058
:1048300003F0B6FC47484FF4406103F001FD00244B
:1048400002E0032000F0B6FE42484FF4806103F01E
:10485000F1FC0028F5D04FF480613E4803F0F2FCF3
:10486000032000F0A7FE01343A484FF4806103F0C2
:10487000E7FCE4B2032000F09DFE082CE4D14FF4E5
:104880000061344803F0DEFC032000F093FE4FF497
:104890008061304803F0D6FC032000F08BFE4FF41B
:1048A00080612C4803F0CCFC032000F083FE4FF421
:1048B0000061284803F0C4FC032000F07BFE4FF4A5
:1048C0004063254CADF81830022306A98DF81A3044
:1048D00020481A338DF81B3003F062FC256028460F
:1048E00001AD03F0CFFD284603F0FEFC0022206856
:1048F0004FF4407103F03AFD4BF6FF73ADF80A3008
:104900004FF48043ADF81030144B00262068294640
:104910000193ADF8086003F041FD2068012103F028
:10492000F1FC07AC22238DF81C30204601238DF8C2
:104930001F308DF81D608DF81E6003F0C3F9212330
:10494000204637468DF81C308DF81D6003F0BAF90B
:1049500009B0F0BD000C0140C0020020801A060022
:1049600040005FFA80FC214808B580F800C020486C
:1049700001702049002008701F48012101701F4864
:1049800003601F4803601F4B1A701F4B19701F4BA9
:104990001868838813F4007F11D1038813F4807F93
:1049A00006D1038813F4007FFBD1012103F0B7FC8B
:1049B000164B4FF440711868012203F0D7FC47F200
:1049C0003053114A127812B1013BFAD102E00BB117
:1049D000012008BD0E4B1A88013292B21A800B4B8F
:1049E0001868FFF715FF002008BD00BFC6020020B1
:1049F000AD020020AC020020BC020020B00200206A
:104A0000B8020020AE020020C5020020C002002033
:104A1000AA02002030B54000274CC0B220702748C1
:104A2000274C017027480121017000202070264D7D
:104A3000264C85B02270C5F800D0254C254D102A93
:104A4000C5F800D0217005D934E013F800C00DF886
:104A500000C00130C1B29142F7D31F4B1868838860
:104A600013F4007F11D1038813F4807F06D10388EB
:104A700013F4007FFBD1012103F051FC164B4FF4DE
:104A800040711868012203F071FC47F23053104A5C
:104A9000127812B1013BFAD102E00BB1012009E01A
:104AA0000E4B1A88013292B21A800B4B1868FFF72E
:104AB000AFFE002005B030BDC6020020AD020020D0
:104AC000BC020020AC020020B8020020AE02002090
:104AD000C5020020B0020020C0020020AA0200206F
:104AE00007B502AB03F8012D0122FFF793FF0EBDBE
:104AF00037B5224C2068838A9BB20193019B019BAE
:104B000013F4E06F2DD0038B00229BB24FF4806131
:104B1000009303F02BFC019B13F4007F21D120684C
:104B2000038813F4007F1CD1058815F480750FD01D
:104B3000038813F4807FFBD1012103F0FDFB0F4BB1
:104B40001868038813F4007FFBD1FFF761FE08E0CB
:104B5000012103F0F1FB20684FF440712A4603F075
:104B600005FC064B1A68938A23F470631B041B0C24
:104B70009382034B00221A703EBD00BFC00200208A
:104B8000C5020020FFF7B4BFFFF7B2BF2DE9F04F19
:104B9000954C85B02068828AD2B212F001063BD0D3
:104BA0000388012123F400631B041B0C038003F022
:104BB000D0FB8E4B00221A708D4B1B78E3B18D4BCE
:104BC0001B781BB98C4B1B78FF2B15D1894B01220D
:104BD0001A708A4B1B78022B06D1834B1B681A88EC
:104BE00092B242F400621A80854B012219787E4B02
:104BF000186803F0CBFB38E1814B002219787A4B1F
:104C0000186803F0C3FB7C4B1B78FF2B00F02D8151
:104C10004FF0FF32754BE5E012F0020347D00190F0
:104C2000FFF7ECFD754B01981D78012D19D1704BE4
:104C30001B78B3B16F4B1B789BB1314603F089FBF6
:104C4000FFF7DCFD20682946038BDBB28DF80F30BF
:104C500003F072FB6B4B20681D704FF480612A4695
:104C600001E1038B0190DBB28DF80F30FFF7C6FD39
:104C7000624B01981B78022B09D15D4B1B7833B135
:104C80005C4B1B781BB1002103F063FBE6E05B4B40
:104C90001B78032B07D1564B1B7823B1554B1B7840
:104CA000002B40F0DD804FF480610122DBE012F048
:104CB000040572D04E4ADFF84C811278012688F83C
:104CC0000060002A4FD04B4A1278002A4BD04B4A42
:104CD000464D12784C4F022A2AD9194603F039FB67
:104CE000206895F800A0D7F8009003F04CFB4FFA2D
:104CF0008AFB0BF80900B244314685F800A0206811
:104D000003F01AFB88F80060206895F800803F687F
:104D100003F039FB4FFA88FA0AF80700B04485F827
:104D2000008020684FF48061324603F01FFB2DE0C5
:104D3000314603F001FB2068D7F800802E7803F09D
:104D400022FB4FFA86FA01360AF80800F6B22E70F6
:104D500020683F6803F017FB4FFA86F8023608F820
:104D600007002E7012E0234C237813B9274B1B78D1
:104D70003BB1012103F0E0FA1C4B1A7801321A70A2
:104D800004E0012103F0CBFA01232370164B1B68CA
:104D90001A8812F4807FFBD167E012F0400637D00A
:104DA000194B124ED3F80080377803F0ECFA4FFA23
:104DB00087FA124B01370AF80800FFB237701B78E8
:104DC0007FB20337BB4205D120684FF480612A4689
:104DD00003F0CCFA094B1878044B1A7851B2884288
:104DE00043D101321A7040E0C0020020C40200200A
:104DF000BC020020AF020020AD020020AE02002065
:104E0000C6020020B4020020B0020020AC02002044
:104E100012F0800F29D0224D2B785AB2B2F1FF3F09
:104E200011D0204901330968515C2B7003F0A9FAB5
:104E30001D4B1A7895F900309A4216D120684FF42C
:104E4000806132460FE0194B2E70197803F099FA01
:104E5000174B1B7813B9144B1B7833B9154B1868D3
:104E60004FF48061002203F081FA0F4B0C4A1B784B
:104E700092F9002001339A420ED10F4B00221A7092
:104E80000E4B1B782BB10B4B4FF44071186803F09D
:104E90006DFA0B4B00221A7005B0BDE8F08F00BF11
:104EA000C4020020B8020020AE020020AD020020A3
:104EB000BC020020C0020020AF020020B40200208B
:104EC000C5020020FFF762BEFFF760BE044B1B78EF
:104ED000834203D9034B53F820301980704700BF39
:104EE000DA02002010C90008024B03EBC003D88887
:104EF000704700BFDC0200202DE9F04F002491B084
:104F000021460A220AA806F05EFA2146102203A8CA
:104F100006F059FA48234FF001028DF83F308748D8
:104F2000463B0FA9ADF83C208DF83E3003F038F930
:104F3000834B40F2DC521B190834402CDA80F7D145
:104F4000403C07AD0A27284621463A4606F03BFA80
:104F50007C4B0D945E780DF138090DF1340ADFF8C1
:104F6000F881002E4BD001264946334628224FF0C7
:104F7000020B72488DF83B200193ADF838608DF834
:104F80003AB003F00DF9019B1C2250468DF83420F5
:104F90008DF836308DF835408DF8376002F092FE8E
:104FA000284603F09DFC4FF047034FF0FF324FF0CF
:104FB00080402946ADF81C30ADF82020ADF81E40E9
:104FC00003F00AFB4FF080404146A8F80240A8F8E1
:104FD0000460A8F80640A8F80840A8F8004003F0CC
:104FE000ADFD4FF080405946324603F09FFC4FF034
:104FF0008040314603F07DFC534B1F7068E04FF05A
:10500000CF03ADF8383028238DF83B304B48263B92
:1050100049468DF83A3003F0C3F84FF00302494691
:105020004A48ADF83820012403F0BAF81C23504652
:105030008DF834308DF835608DF836408DF8374076
:1050400002F040FE1D2350468DF8343002F03AFE47
:10505000284603F045FC4FF047034FF0FF324FF076
:1050600080402946ADF81C30ADF82020ADF81E6018
:1050700003F0B2FA3648294603F0AEFAA8F8026007
:10508000A8F80440A8F80660A8F80860314B324937
:105090009A19928898590A80083603F04FFD402EDD
:1050A000F4D14FF080401E21012203F03FFC012289
:1050B00027481E2103F03AFC4FF08040012103F005
:1050C00018FC2348012103F014FC1F4B06221A7020
:1050D0004FF410630FACADF83C30182321468DF827
:1050E0003F301648163B8DF83E3003F059F84FF428
:1050F0007072214615480AACADF83C2003F050F818
:10510000204603F0EDFB4FF04703ADF82830134B7A
:105110000C4D1B7843B3AB8A114E124896FBF3F348
:10512000013B2146ADF82C3003F056FA6B8A96FB12
:10513000F3F6013EADF82C6021E000BF000801400D
:10514000DC02002030060020DA020020000C0140C2
:1051500000040040D0C80008C8020020B4010020AC
:1051600040420F00002C01406B8A684A684892FB5D
:10517000F3F3013B2146ADF82C3003F02DFA214624
:10518000644803F029FA4FF0700203ACADF80C202C
:105190004FF001034FF00002ADF80E30ADF81020D3
:1051A0004FF47A734FF48072594821464FF002054C
:1051B000ADF81230ADF81820ADF8145003F062FAD3
:1051C0005348214603F04CFB5148082103F0B9FB3A
:1051D0004F48082103F0D1FB4E48214603F052FA14
:1051E0004C48214603F0A6FA4A48214603F0EEFA5D
:1051F0004848214603F034FB4648082103F0A1FB50
:105200004448082103F0A6FB4248082103F0ACFB08
:105210004048082103F0B1FB3D48012103F069FB40
:105220003C48012103F065FB3B4E3948012103F066
:105230006DFB3848012103F069FB7378002B61D0C6
:105240004FF0C0030FAFADF83C3034481823394657
:105250008DF83F308DF83E5002F0A2FF4FF0030270
:105260002F483946ADF83C2002F09AFF274A738A4E
:105270002C4892FBF3F3013B0AA9ADF82C3003F064
:10528000ABF94FF07003ADF80C304FF001024FF066
:105290000003ADF80E20ADF810304FF47A724FF4E1
:1052A000807320482146ADF81220ADF81830ADF8D3
:1052B000145003F0E7F91B48214603F03BFA194864
:1052C000214603F083FA1748214603F0C9FA15482E
:1052D000082103F036FB1348082103F03BFB11487B
:1052E000082103F041FB0F48082103F046FB0D485D
:1052F000012103F0FEFA0B48012103F007FB0A4BE2
:105300000A221A7011B0BDE8F08F00BF40420F00B2
:10531000002C014000080040300600200008014039
:10532000000C014000040040DA0200202DE9F8459D
:105330000024064625462D4B1F591A19B742B2F8CC
:105340000480B2F806A04BD13046514603F05EFB14
:10535000012845D13046514603F063FBB8F10C0FEC
:1053600018D8DFE808F0071717170B1717170F17CC
:1053700017171300304603F03CFB0AE0304603F0F9
:105380003BFB06E0384603F03AFB02E0384603F008
:1053900039FB0546164B1A5D1B190AB95D8000E002
:1053A0009D80134B1A5D2AB901321A5511494FF0ED
:1053B00002030FE01B199A8859888A4201D9521AB0
:1053C00001E0C9435218DA80094A002313550A4AFA
:1053D000084913804B80A1F80080384603F0AEFBEB
:1053E0000834402CA7D1BDE8F88500BFD0C800081C
:1053F000DC020020C8020020F40700200148FFF76B
:1054000095BF00BF0004004010B5234B5B78002B14
:105410003BD002214FF0804003F0F8FA012808D178
:105420001E4C1F4B22884FF080401A8003F0E1FA97
:10543000208002214FF0804003F0F3FA174B1A88C6
:10544000174B1B88D31A9BB240F68C22934203D988
:10545000144B00221A7010BDA3F53A72073A92B2AB
:1054600040F2DA518A4207D80E4A1278072A03D846
:105470000D4901EBC202D3800A4B1A7801321A702F
:105480000A4B4FF000021A8010BD4FF08040BDE87B
:105490001040FFF74BBF00BF30060020D4020020B1
:1054A000D8020020D6020020DC020020F4070020F1
:1054B000044B1A6801321A60034B1A68034B1A60D6
:1054C000704700BF1C030020041000E0A40400206B
:1054D00072B6084B084A1868084B1B68126862B617
:1054E0000749C31A09684FF47A70B3FBF1F300FB64
:1054F00002307047041000E01C030020A4040020C8
:10550000A004002070B5002304460E46054D5D1929
:10551000AA680C33002AF9D1FFF7DAFF28606E6021
:10552000AC6070BDE003002070B5002304460E4659
:10553000054D5D19AA680C33002AF9D1FFF7C8FFA1
:1055400028606E60AC6070BD20030020F8B50024B8
:105550000C276743124EBD19AB6853B1FFF7B8FF74
:10556000BA596B68821A9A4203D9AB6898470023EC
:10557000AB600C2666430B4D7719BB685BB1FFF738
:10558000A7FF72597B68821A9A4204D9BB68984770
:10559000FFF79EFF70510134102CD9D1F8BD00BF28
:1055A00020030020E0030020014B1868704700BF73
:1055B0001C03002038B50546FFF78AFF0446FFF7B5
:1055C00087FF001BA842FAD338BD10B5044604E09B
:1055D0004FF47A70FFF7EEFF013C002CF8D110BDBC
:1055E00010B1034A034B1A60034A044BDA60704758
:1055F000EFBEADDEF04F00200400FA0500ED00E044
:1056000070B55D4B8AB00DF1140C0FCB8CE80F0018
:105610001D20012102F0AEFF4FF40060012102F0D5
:10562000A9FF0120014602F0B3FF0220012102F090
:10563000AFFF0420012102F0ABFF4FF40070012105
:1056400002F098FF4FF48040012102F093FF4FF4E5
:105650008000012102F09CFF0120014609AC02F00C
:105660007BFF0220012102F077FF002502F0ACFF52
:105670004FF0FF3341482146ADF824308DF82750D4
:1056800002F08EFD3E48214602F08AFD3D4821464B
:1056900002F086FD3C48012102F0D6FDBDF818302D
:1056A0000326ADF824309DF81A30059821468DF870
:1056B00027308DF8266002F073FDBDF82030079882
:1056C000ADF824309DF8223021468DF826608DF803
:1056D000273002F065FD0C236B432C4A00249A18F6
:1056E00094602B4A01359B18102D9C60F3D16846BD
:1056F00002F0E2FE009A274B4FF47A76B2FBF3F207
:10570000254B6FF00F011A60244B4FF4A060DA684C
:1057100042F08072DA60224B1A6842F001021A608D
:10572000204B1A68204BB2FBF6F222F07F42013A7E
:105730005A601E4A82F8231007229C601A60104BA0
:1057400001321A611D6102F0B3FA2046FDF702FE34
:10575000FDF7BCFDFBF722FFFEF7F2FF1448FFF751
:1057600057F8FFF7C9FB4FF4E13000F093F83046EB
:10577000FFF72BFF0AB070BD38C9000800080140D0
:10578000000C014000100140000230002003002006
:10579000E003002040420F00A0040020F0ED00E0F4
:1057A000001000E09800002010E000E000ED00E0B4
:1057B00000580040044B1868044B1B68984214BF03
:1057C00000200120704700BFAC040020B00400207E
:1057D000064B07481A68C2F58061013A405C1A60BE
:1057E00012B94FF480621A60704700BFA80400200D
:1057F000F80700200B4A0C4813680C49C018C86011
:105800000B480068984203D9C31A4B60106004E04B
:10581000C3F580634B60002313600448012102F04C
:10582000B9BB00BFAC040020F80B002044000240CC
:10583000B0040020074A08491368C85401339B0587
:105840009B0D1360054B1B6813F0010F01D1FFF78F
:10585000D1BF7047B0040020F80B00204400024084
:1058600038B50546002401E0FFF7E4FF285D013468
:105870000028F9D138BD000008B5044802F09FFBAC
:10588000034B1B68C01A18BF012008BD5800024016
:10589000A80400202DE9F04593B011AC4FF400733B
:1058A0000646ADF844300227182321463F488DF8BC
:1058B00047304FF480688DF8467002F071FC482341
:1058C00021463A480125ADF844808DF8473002F072
:1058D00067FC0E2310A800248DF840308DF841504D
:1058E0008DF842508DF8435002F0ECF94FF00C0364
:1058F0000CA92F48ADF83A300C96ADF83440ADF80D
:105900003640ADF83840ADF83C4003F0D3F92948B3
:1059100002F0AEFA4FF480530A93274BDFF8A4A0AD
:10592000CDF810800DF10408802602934146202313
:10593000204809930B94CDF804A003940594079490
:105940000696089402F006FB29461A4802F022FB4C
:105950002A464021164803F0A2F9164802F02FFB10
:10596000164B1860164802F083FA1023414614487B
:105970000393CDF804A0059407940696089409941F
:1059800002F0E8FA39462A460D4802F00FFB0C4BAC
:1059900031465C6006482A4603F081F904482946EE
:1059A00003F070F913B0BDE8F08500BF00080140B6
:1059B0000038014058000240F8070020A8040020E9
:1059C000440002400438014010B54FF4005002F08A
:1059D000F9FA0021064802F0DDFA064B1A68064B78
:1059E0001B689A4203D0BDE81040FFF703BF10BD0B
:1059F00044000240B0040020AC0400201FB501AAFE
:105A000002A90DF10E0001F007FDBDF90E00FBF734
:105A10003BF90949FBF740FA084C20670298FBF76D
:105A200033F960670198FBF72FF9A16F044AFDF77E
:105A300021FEA067E0671FBD00002041B0110020DB
:105A4000CDCC4C3D2DE9F04F8BB0FFF741FD754DAE
:105A5000754B044618602868201AFBF711F9734942
:105A6000FBF766F9724B2C601B6800259E78074691
:105A70003246A946AA461DE058784FF0060C0CFBAA
:105A800000FC596801300CEB01043CF801C01978A6
:105A9000B4F804E090FBF1F801FB18016488597038
:105AA0000FFA8CF16D1821B28944013A0FFA8EF188
:105AB0008A44D2B2002ADFD19A707EB33046FBF717
:105AC000E3F8804628465B4D5B4CFBF7DDF841462A
:105AD000FBF7E2F9D5F89811FBF720F8616EFBF7B8
