:020000040800F2
:1000000000500020C5130008691400086914000896
:100010006914000869140008691400080000000051
:10002000000000000000000000000000691400084B
:10003000691400080000000069140008395600081F
:10004000691400086914000869140008691400089C
:10005000691400086914000869140008691400088C
:10006000691400086914000869140008691400087C
:100070006914000869140008A95B000869140008E5
:10008000691400086914000869140008691400085C
:10009000691400086914000869140008691400084C
:1000A000691400086914000869140008C5530008A1
:1000B000B9530008AD530008A15300086950000867
:1000C000294D000865500008254D000869140008F6
:1000D0006914000869140008AD5900086914000883
:1000E000CD730008691400086914000800000000BE
:1000F0000000000000000000000000000000000000
:0C01000000000000000000005FF808F1A3
:1001100040F2A413C2F200031A780AB90120187041
:10012000704700BF40F2A410C2F2000008B5036897
:100130002BB140F20003C0F2000303B1984708BDA1
:1001400081F0004102E000BF83F0004330B54FEA88
:1001500041044FEA430594EA050F08BF90EA020FF5
:100160001FBF54EA000C55EA020C7FEA645C7FEA88
:10017000655C00F0E2804FEA5454D4EB5555B8BFAB
:100180006D420CDD2C4480EA020281EA030382EA1C
:10019000000083EA010180EA020281EA0303362DAE
:1001A00088BF30BD11F0004F4FEA01314FF4801C81
:1001B0004CEA113102D0404261EB410113F0004F93
:1001C0004FEA03334CEA133302D0524263EB43034A
:1001D00094EA050F00F0A780A4F10104D5F1200EE8
:1001E0000DDB02FA0EFC22FA05F2801841F1000143
:1001F00003FA0EF2801843FA05F359410EE0A5F117
:1002000020050EF1200E012A03FA0EFC28BF4CF047
:10021000020C43FA05F3C01851EBE37101F00045FD
:1002200007D54FF0000EDCF1000C7EEB00006EEB0A
:100230000101B1F5801F1BD3B1F5001F0CD3490894
:100240005FEA30004FEA3C0C04F101044FEA4452EB
:1002500012F5800F80F09A80BCF1004F08BF5FEA72
:10026000500C50F1000041EB045141EA050130BD52
:100270005FEA4C0C404141EB010111F4801FA4F1F5
:100280000104E9D191F0000F04BF01460020B1FA4A
:1002900081F308BF2033A3F10B03B3F120020CDA82
:1002A0000C3208DD02F1140CC2F10C0201FA0CF060
:1002B00021FA02F10CE002F11402D8BFC2F1200CC5
:1002C00001FA02F120FA0CFCDCBF41EA0C0190407B
:1002D000E41AA2BF01EB0451294330BD6FEA0404C4
:1002E0001F3C1CDA0C340EDC04F11404C4F12002AF
:1002F00020FA04F001FA02F340EA030021FA04F3C1
:1003000045EA030130BDC4F10C04C4F1200220FA17
:1003100002F001FA04F340EA0300294630BD21FA55
:1003200004F0294630BD94F0000F83F4801306BF1B
:1003300081F480110134013D4EE77FEA645C18BF0F
:100340007FEA655C29D094EA050F08BF90EA020FA6
:1003500005D054EA000C04BF1946104630BD91EA9E
:10036000030F1EBF0021002030BD5FEA545C05D1A1
:100370004000494128BF41F0004130BD14F58004E0
:100380003CBF01F5801130BD01F0004545F0FE4154
:1003900041F470014FF0000030BD7FEA645C1ABF89
:1003A000194610467FEA655C1CBF0B46024650EAC0
:1003B000013406BF52EA033591EA030F41F40021EC
:1003C00030BD00BF90F0000F04BF0021704730B572
:1003D0004FF4806404F132044FF000054FF0000147
:1003E00050E700BF90F0000F04BF0021704730B508
:1003F0004FF4806404F1320410F0004548BF4042DD
:100400004FF000013EE700BF42004FEAE2014FEA31
:1004100031014FEA02701FBF12F07F4393F07F4F0C
:1004200081F06051704792F0000F14BF93F07F4F3E
:10043000704730B54FF4607401F0004521F0004181
:1004400020E700BF50EA010208BF704730B54FF007
:1004500000050AE050EA010208BF704730B511F00C
:10046000004502D5404261EB41014FF4806404F144
:1004700032045FEA915C3FF4DCAE4FF003025FEAC6
:10048000DC0C18BF03325FEADC0C18BF033202EB4E
:10049000DC02C2F1200300FA03FC20FA02F001FAA8
:1004A00003FE40EA0E0021FA02F11444C1E600BF47
:1004B00070B54FF0FF0C4CF4E06C1CEA11541DBFFA
:1004C0001CEA135594EA0C0F95EA0C0F00F0DEF8C5
:1004D0002C4481EA030621EA4C5123EA4C5350EAAA
:1004E000013518BF52EA033541F4801143F48013FB
:1004F00038D0A0FB02CE4FF00005E1FB02E506F08C
:100500000042E0FB03E54FF00006E1FB03569CF0E0
:10051000000F18BF4EF0010EA4F1FF04B6F5007FE6
:1005200064F5407404D25FEA4E0E6D4146EB060658
:1005300042EAC62141EA55514FEAC52040EA5E50E1
:100540004FEACE2EB4F1FD0C88BFBCF5E06F1ED88B
:10055000BEF1004F08BF5FEA500E50F1000041EBC2
:10056000045170BD06F0004646EA010140EA02006F
:1005700081EA0301B4EB5C04C2BFD4EB0C0541EA91
:10058000045170BD41F480114FF0000E013C00F3A6
:10059000AB8014F1360FDEBF002001F0004170BDCA
:1005A000C4F10004203C35DA0C341BDC04F11404E3
:1005B000C4F1200500FA05F320FA04F001FA05F26F
:1005C00040EA020001F0004221F0004110EBD3703C
:1005D00021FA04F642EB06015EEA430E08BF20EA68
:1005E000D37070BDC4F10C04C4F1200500FA04F30B
:1005F00020FA05F001FA04F240EA020001F000419D
:1006000010EBD37041F100015EEA430E08BF20EA0F
:10061000D37070BDC4F1200500FA05F24EEA020E57
:1006200020FA04F301FA05F243EA020321FA04F086
:1006300001F0004121FA04F220EA020000EBD3703D
:100640005EEA430E08BF20EAD37070BD94F0000F3D
:100650000FD101F00046400041EB010111F4801F71
:1006600008BF013CF7D041EA060195F0000F18BF22
:10067000704703F00046520043EB030313F4801F5E
:1006800008BF013DF7D043EA0603704794EA0C0F18
:100690000CEA135518BF95EA0C0F0CD050EA41062E
:1006A00018BF52EA4306D1D181EA030101F00041AB
:1006B0004FF0000070BD50EA410606BF10461946D3
:1006C00052EA430619D094EA0C0F02D150EA0136DF
:1006D00013D195EA0C0F05D152EA03361CBF104620
:1006E00019460AD181EA030101F0004141F0FE41BF
:1006F00041F470014FF0000070BD41F0FE4141F443
:10070000780170BD70B54FF0FF0C4CF4E06C1CEA42
:1007100011541DBF1CEA135594EA0C0F95EA0C0FF7
:1007200000F0A7F8A4EB050481EA030E52EA0335B2
:100730004FEA013100F088804FEA03334FF08055D3
:1007400045EA131343EA12634FEA022245EA111500
:1007500045EA10654FEA00260EF000419D4208BFB1
:10076000964244F1FD0404F5407402D25B084FEA5E
:100770003202B61A65EB03055B084FEA32024FF40A
:1007800080104FF4002CB6EB020E75EB030E22BF67
:10079000B61A754640EA0C005B084FEA3202B6EB27
:1007A000020E75EB030E22BFB61A754640EA5C00D6
:1007B0005B084FEA3202B6EB020E75EB030E22BF66
:1007C000B61A754640EA9C005B084FEA3202B6EB67
:1007D000020E75EB030E22BFB61A754640EADC0026
:1007E00055EA060E18D04FEA051545EA16754FEA88
:1007F00006164FEAC30343EA52734FEAC2025FEAA6
:100800001C1CC0D111F4801F0BD141EA00014FF034
:1008100000004FF0004CB6E711F4801F04BF014305
:100820000020B4F1FD0C88BFBCF5E06F3FF6AFAE21
:10083000B5EB030C04BFB6EB020C5FEA500C50F1B1
:10084000000041EB045170BD0EF0004E4EEA113134
:1008500014EB5C04C2BFD4EB0C0541EA045170BD3B
:1008600041F480114FF0000E013C90E645EA060E7F
:100870008DE60CEA135594EA0C0F08BF95EA0C0FAD
:100880003FF43BAF94EA0C0F0AD150EA01347FF4F5
:1008900034AF95EA0C0F7FF425AF104619462CE7CC
:1008A00095EA0C0F06D152EA03353FF4FDAE10462F
:1008B000194622E750EA410618BF52EA43067FF480
:1008C000C5AE50EA41047FF40DAF52EA43057FF410
:1008D000EBAE12E74FF0FF3C06E000BF4FF0010C1B
:1008E00002E000BF4FF0010C4DF804CD4FEA410C7F
:1008F0007FEA6C5C4FEA430C18BF7FEA6C5C1BD04C
:1009000001B050EA410C0CBF52EA430C91EA030FCC
:1009100002BF90EA020F0020704710F1000F91EA29
:10092000030F58BF994208BF90422CBFD8176FEAF7
:10093000E37040F0010070474FEA410C7FEA6C5CC5
:1009400002D150EA013C07D14FEA430C7FEA6C5CCC
:10095000D6D152EA033CD3D05DF8040B704700BFF8
:100960008446104662468C461946634600E000BF46
:1009700001B5FFF7B7FF002848BF10F1000F01BD18
:100980004DF808EDFFF7F4FF0CBF012000205DF8E3
:1009900008FB00BF4DF808EDFFF7EAFF34BF012068
:1009A00000205DF808FB00BF4DF808EDFFF7E0FF01
:1009B00094BF012000205DF808FB00BF4DF808ED52
:1009C000FFF7CEFF94BF012000205DF808FB00BFB9
:1009D0004DF808EDFFF7C4FF34BF012000205DF89B
:1009E00008FB00BF4FEA410212F5001215D211D5E3
:1009F0006FF47873B3EB625212D94FEAC12343F01C
:100A0000004343EA505311F0004F23FA02F018BF9D
:100A1000404270474FF00000704750EA013005D166
:100A200011F0004008BF6FF0004070474FF0000029
:100A3000704700BF4A0011D212F5001211D20DD535
:100A40006FF47873B3EB62520ED44FEAC12343F0D4
:100A5000004343EA505323FA02F070474FF000007E
:100A6000704750EA013002D14FF0FF3070474FF02D
:100A7000000070474FEA4102B2F1E04324BFB3F5F2
:100A8000001CDCF1FE5C0DD901F0004C4FEAC00205
:100A90004CEA5070B2F1004F40EB830008BF20F0E9
:100AA0000100704711F0804F21D113F13872BCBFA3
:100AB00001F00040704741F480114FEA5252C2F1F8
:100AC0001802C2F1200C10FA0CF320FA02F018BF41
:100AD00040F001004FEAC1234FEAD32303FA0CFC94
:100AE00040EA0C0023FA02F34FEA4303CCE77FEA23
:100AF000625307D150EA01331EBF4FF0FE4040F46D
:100B00004000704701F0004040F0FE4040F400001B
:100B1000704700BF80F0004002E000BF81F000415C
:100B200042001FBF5FEA410392EA030F7FEA226C93
:100B30007FEA236C6AD04FEA1262D2EB1363C1BF23
:100B4000D218414048404140B8BF5B42192B88BF92
:100B5000704710F0004F40F4000020F07F4018BFB5
:100B6000404211F0004F41F4000121F07F4118BFD5
:100B7000494292EA030F3FD0A2F1010241FA03FC7D
:100B800010EB0C00C3F1200301FA03F100F0004365
:100B900002D5494260EB4000B0F5000F13D3B0F12D
:100BA000807F06D340084FEA310102F10102FE2A9C
:100BB00051D2B1F1004F40EBC25008BF20F001000C
:100BC00040EA03007047490040EB000010F4000FBA
:100BD000A2F10102EDD1B0FA80FCACF1080CB2EB4D
:100BE0000C0200FA0CF0AABF00EBC25052421843AC
:100BF000BCBFD0401843704792F0000F81F4000151
:100C000006BF80F400000132013BB5E74FEA410323
:100C10007FEA226C18BF7FEA236C21D092EA030F8F
:100C200004D092F0000F08BF0846704790EA010F09
:100C30001CBF0020704712F07F4F04D1400028BF36
:100C400040F00040704712F100723CBF00F5000018
:100C5000704700F0004343F0FE4040F4000070474E
:100C60007FEA226216BF08467FEA236301464202FA
:100C700006BF5FEA412390EA010F40F4800070470D
:100C80004FF0000304E000BF10F0004348BF4042B3
:100C90005FEA000C08BF704743F0964301464FF0EF
:100CA00000001CE050EA010208BF70474FF000034B
:100CB0000AE000BF50EA010208BF704711F000438C
:100CC00002D5404261EB41015FEA010C02BF84465C
:100CD0000146002043F0B64308BFA3F18053A3F5BB
:100CE0000003BCFA8CF2083AA3EBC25310DB01FA02
:100CF00002FC634400FA02FCC2F12002BCF1004F86
:100D000020FA02F243EB020008BF20F00100704716
:100D100002F1200201FA02FCC2F1200250EA4C006A
:100D200021FA02F243EB020008BF20EADC707047B0
:100D30004FF0FF0C1CEAD0521EBF1CEAD15392EABE
:100D40000C0F93EA0C0F6FD01A4480EA010C40029A
:100D500018BF5FEA41211ED04FF0006343EA5010F4
:100D600043EA5111A0FB01310CF00040B1F5000F36
:100D70003EBF490041EAD3715B0040EA010062F1E5
:100D80007F02FD2A1DD8B3F1004F40EBC25008BFCF
:100D900020F00100704790F0000F0CF0004C08BFED
:100DA00049024CEA502040EA51207F3AC2BFD2F1BA
:100DB000FF0340EAC250704740F400004FF00003C8
:100DC000013A5DDC12F1190FDCBF00F00040704702
:100DD000C2F10002410021FA02F1C2F1200200FA40
:100DE00002FC5FEA310040F1000053EA4C0308BF07
:100DF00020EADC70704792F0000F00F0004C02BF58
:100E0000400010F4000F013AF9D040EA0C0093F0D2
:100E1000000F01F0004C02BF490011F4000F013B2C
:100E2000F9D041EA0C018FE70CEAD15392EA0C0F9A
:100E300018BF93EA0C0F0AD030F0004C18BF31F005
:100E4000004CD8D180EA010000F00040704790F0DB
:100E5000000F17BF90F0004F084691F0000F91F07F
:100E6000004F14D092EA0C0F01D142020FD193EA45
:100E70000C0F03D14B0218BF084608D180EA0100CD
:100E800000F0004040F0FE4040F40000704740F0A9
:100E9000FE4040F4400070474FF0FF0C1CEAD05277
:100EA0001EBF1CEAD15392EA0C0F93EA0C0F69D0D3
:100EB000A2EB030280EA010C49024FEA402037D03E
:100EC0004FF0805343EA111143EA10130CF0004035
:100ED0008B4238BF5B0042F17D024FF4000C8B4225
:100EE00024BF5B1A40EA0C00B3EB510F24BFA3EB05
:100EF000510340EA5C00B3EB910F24BFA3EB9103D5
:100F000040EA9C00B3EBD10F24BFA3EBD10340EA2E
:100F1000DC001B0118BF5FEA1C1CE0D1FD2A3FF674
:100F200050AF8B4240EBC25008BF20F00100704729
:100F30000CF0004C4CEA50207F32C2BFD2F1FF03CC
:100F400040EAC250704740F400004FF00003013AFD
:100F500037E792F0000F00F0004C02BF400010F4A1
:100F6000000F013AF9D040EA0C0093F0000F01F0B5
:100F7000004C02BF490011F4000F013BF9D041EAD7
:100F80000C0195E70CEAD15392EA0C0F08D142020A
:100F90007FF47DAF93EA0C0F7FF470AF084676E7DD
:100FA00093EA0C0F04D14B023FF44CAF08466EE7B6
:100FB00030F0004C18BF31F0004CCAD130F0004284
:100FC0007FF45CAF31F000437FF43CAF5FE700BFDC
:100FD0004FF0FF3C06E000BF4FF0010C02E000BF05
:100FE0004FF0010C4DF804CD4FEA40024FEA4103A7
:100FF0007FEA226C18BF7FEA236C11D001B052EA5D
:10100000530C18BF90EA010F58BFB2EB030088BF22
:10101000C81738BF6FEAE17018BF40F00100704791
:101020007FEA226C02D15FEA402C05D17FEA236C73
:10103000E4D15FEA412CE1D05DF8040B704700BFBA
:10104000844608466146FFE70FB5FFF7C9FF002851
:1010500048BF10F1000F0FBD4DF808EDFFF7F4FF8A
:101060000CBF012000205DF808FB00BF4DF808ED23
:10107000FFF7EAFF34BF012000205DF808FB00BF46
:101080004DF808EDFFF7E0FF94BF012000205DF868
:1010900008FB00BF4DF808EDFFF7D2FF94BF012019
:1010A00000205DF808FB00BF4DF808EDFFF7C8FF12
:1010B00034BF012000205DF808FB00BF4FEA40026A
:1010C000B2F1FE4F0FD34FF09E03B3EB12620DD976
:1010D0004FEA002343F0004310F0004F23FA02F0E0
:1010E00018BF404270474FF00000704712F1610F87
:1010F00001D1420205D110F0004008BF6FF000405E
:1011000070474FF00000704742000ED2B2F1FE4F20
:101110000BD34FF09E03B3EB126209D44FEA0023C6
:1011200043F0004323FA02F070474FF0000070478D
:1011300012F1610F01D1420202D14FF0FF3070472E
:101140004FF00000704700BF4A1E08BF7047C0F054
:101150002481884240F21681114200F01781B0FAD2
:1011600080F3B1FA81F2A2EB0303C3F11F0304A2DF
:1011700002EB03134FF000029F4600BFAFF3008065
:10118000B0EBC17F00BF42EB020228BFA0EBC170F1
:10119000B0EB817F00BF42EB020228BFA0EB817061
:1011A000B0EB417F00BF42EB020228BFA0EB4170D1
:1011B000B0EB017F00BF42EB020228BFA0EB017041
:1011C000B0EBC16F00BF42EB020228BFA0EBC160D1
:1011D000B0EB816F00BF42EB020228BFA0EB816041
:1011E000B0EB416F00BF42EB020228BFA0EB4160B1
:1011F000B0EB016F00BF42EB020228BFA0EB016021
:10120000B0EBC15F00BF42EB020228BFA0EBC150B0
:10121000B0EB815F00BF42EB020228BFA0EB815020
:10122000B0EB415F00BF42EB020228BFA0EB415090
:10123000B0EB015F00BF42EB020228BFA0EB015000
:10124000B0EBC14F00BF42EB020228BFA0EBC14090
:10125000B0EB814F00BF42EB020228BFA0EB814000
:10126000B0EB414F00BF42EB020228BFA0EB414070
:10127000B0EB014F00BF42EB020228BFA0EB0140E0
:10128000B0EBC13F00BF42EB020228BFA0EBC13070
:10129000B0EB813F00BF42EB020228BFA0EB8130E0
:1012A000B0EB413F00BF42EB020228BFA0EB413050
:1012B000B0EB013F00BF42EB020228BFA0EB0130C0
:1012C000B0EBC12F00BF42EB020228BFA0EBC12050
:1012D000B0EB812F00BF42EB020228BFA0EB8120C0
:1012E000B0EB412F00BF42EB020228BFA0EB412030
:1012F000B0EB012F00BF42EB020228BFA0EB0120A0
:10130000B0EBC11F00BF42EB020228BFA0EBC1102F
:10131000B0EB811F00BF42EB020228BFA0EB81109F
:10132000B0EB411F00BF42EB020228BFA0EB41100F
:10133000B0EB011F00BF42EB020228BFA0EB01107F
:10134000B0EBC10F00BF42EB020228BFA0EBC1000F
:10135000B0EB810F00BF42EB020228BFA0EB81007F
:10136000B0EB410F00BF42EB020228BFA0EB4100EF
:10137000B0EB010F00BF42EB020228BFA0EB01005F
:10138000104670470CBF012000207047B1FA81F26F
:10139000C2F11F0220FA02F0704708B14FF0FF308F
:1013A00000F00EB80029F8D02DE90340FFF7CCFE7D
:1013B000BDE8064002FB00F3A1EB0301704700BF4C
:1013C000704700BF1A481B49026800608A4219D062
:1013D000002103E0184B5B58435004311748184B69
:1013E00042189A42F6D3174A02E0002342F8043B1F
:1013F000154B9A42F9D306F037FA09F0A5FE00F032
:1014000073F8FEE7114E124830601248016821F06F
:1014100070610160410201600F4C182020600F498B
:101420000F4808600F48D0F800D04068004700001F
:10143000F04F0020EFBEADDE8CCD00080000002094
:10144000A4010020A4010020380E00201810024042
:101450000900000004000140140C0140000C014090
:101460004434434400F0FF1FFEE700000F4B93F8A5
:1014700010312BB90E4BDA6882F01002DA6009E005
:101480000C4B1B791BB10A4B10225A6102E0084B2E
:1014900010221A61074B5B781BB1054B08225A6179
:1014A0007047034B08221A61704700BFE008002014
:1014B000000C0140A808002010B504F0CDF8084B3E
:1014C000084A19681860411A116001F00DF800F01F
:1014D000E3F800F069FFBDE8104000F025BF00BF51
:1014E000A8010020C80700201FB504F075F903F01B
:1014F000E3F9394803F048FA4FF4E13004F0BAFA5E
:1015000005F024FC00F084F8344B93F832300E2BB5
:1015100001D0082B02D101238DF808302F4C01A8EF
:101520006378003B18BF01238DF8053001238DF847
:1015300004302B4B1B78003B18BF01238DF806307D
:1015400000238DF80730638AADF80A30A38AADF81E
:101550000C3003F0F3FF00F049FF4FF47A7004F011
:1015600006F920484FF4FA7104F090F81E484FF441
:10157000FA7104F08BF81D4840F6B83104F086F893
:101580001B484FF47A6104F081F81A4844F6206150
:1015900004F07CF894F8503123B1174844F62061E8
:1015A00004F074F8154849F6404104F06FF8144807
:1015B00044F6206104F06AF81248134904F066F812
:1015C000064B93F8603123B1104849F6404104F0CE
:1015D0005DF804F07FF8FCE700580040E0080020C8
:1015E000AC010020356E0008956E000825630008E8
:1015F000B91400080D310008F56E0008DD5B000825
:10160000613D00086D140008A0860100556F0008B8
:101610001D4B93F83230042B07D0012B05D0082B3B
:1016200003D00E2B01D0052B02D1184A01211170D5
:10163000013B112B26D8DFE803F00F11110D091320
:10164000130B11131515150B2525111900220AE08E
:10165000012208E0022206E0032204E0042202E064
:10166000062200E008220A4B1A70704700231A462F
:101670000849C95C09B10132D2B21433F02BF7D159
:10168000034B1A70704700BFE0080020AC01002037
:1016900010000020B00100202DE9F04F984B85B0DC
:1016A0001B78032B03933CD9964B00219D68964BE6
:1016B0004FF000069C682046FFF7F6FC08B14FF09B
:1016C0000106F6B216B19148214601E09049204644
:1016D000FFF724FA01462846FFF7C8FC28B10EB1EF
:1016E0008A4818E020468A4916E026B120468849F3
:1016F000FFF716FA03E086482146FFF70FFA014686
:101700002846FFF7D1FC50B126B120468049FFF7AB
:1017100007FA03E07E482146FFF700FA0546794BB9
:101720009D607C4B7C4C93F83230013B102B00F2D7
:101730009B85DFE813F07B001101570111002005A4
:10174000D601450278059A01BC023603A7033D0481
:10175000990599059905D7046A4D6B4BE968D868D6
:10176000FFF7DEF96E68824600213046FFF7E0FAA7
:10177000684B074693F96E00FFF786FAA968FFF7F2
:10178000D7FA00218146FFF7D3FAD5F80080054645
:1017900041465046FFF7C4F93946FFF7C1F92946DB
:1017A000FFF7BEF9FFF78AFC414620805046FFF75D
:1017B000B5F93946FFF7B4F92946FFF7B1F9FFF754
:1017C0007DFC564960804846FFF7AAF93146054638
:1017D000FFF7A6F952490446FFF748FC10B14FF451
:1017E0007F700BE020464F49FFF75EFC10B14FF4CD
:1017F000FA6003E02046FFF761FC80B24A4B3146B5
:1018000018812846FFF78AF945490446FFF72EFC60
:1018100010B14FF47F709BE020464249FFF744FC33
:10182000002800F091804FF4FA6091E0364B354E7D
:10183000D868F168FFF774F9364D804695F96E0067
:10184000FFF722FAB168FFF773FA00218146FFF72C
:101850006FFA3768D6F804A0002106463846FFF72D
:1018600067FA01464046FFF75BF94FF08141834636
:101870005046FFF75DFA2D49FFF70EFB014658462B
:10188000FFF74EF93146FFF74BF9FFF717FC4FF022
:10189000404120805046FFF74BFA2449FFF7FCFAFD
:1018A000394682464046FFF739F95146FFF738F985
:1018B0003146FFF735F9FFF701FC394660804046B5
:1018C000FFF72EF95146FFF72BF93146FFF728F9BC
:1018D000FFF7F4FBA080B5F87200FFF7D5F9494691
:1018E000FFF71EF90446B5F87000FFF7CDF906467C
:1018F00031462046FFF7BAFBD0B1304625E000BFA5
:10190000100000208C080020640000200000C8C2E5
:101910000000C842E0080020CC0700200080BB4443
:1019200000007F440000FA44000000200000404016
:10193000B5F87400FFF7A8F9054629462046FFF7D9
:10194000B3FB08B1284600E02046FFF7B7FB80B2A2
:10195000964B588100F088BC954D964BE968D86845
:10196000FFF7DEF82F68804600213846FFF7E0F9E0
:1019700001464046FFF7D4F88F4B824693F96E003C
:10198000FFF782F9A968FFF7D3F96E68054631467B
:101990005046FFF7C5F82946FFF7C0F8FFF78EFB62
:1019A000002120803046FFF7C3F939468146404682
:1019B000FFF7B4F84946FFF7B3F82946FFF7B0F848
:1019C000FFF77CFB394660804046FFF7A9F849469F
:1019D000FFF7A6F82946FFF7A3F8FFF76FFBA080F3
:1019E000504638E0724D734BE968D868FFF798F8B5
:1019F0002F6882463946FFF791F86F4B804693F97E
:101A00006E00FFF741F9A968FFF792F96E68054685
:101A100031464046FFF784F82946FFF77FF8FFF785
:101A20004DFB314620804046FFF778F82946FFF706
:101A300077F8FFF743FB394660805046FFF770F8B0
:101A400031460746FFF76CF82946FFF769F8FFF7BC
:101A500035FBA08038463146FFF760F82946FFF78E
:101A60005DF8FFF72BFBE080FEE3524B504DD8684A
:101A7000E968FFF755F82F68804600213846FFF7E0
:101A800057F96E6801464046FFF74AF83146FFF7BE
:101A900047F8494B824693F96E00FFF7F5F8A968BD
:101AA000FFF746F9054629465046FFF737F8FFF796
:101AB00005FB002120802846FFF73AF93946814688
:101AC0004046FFF72BF83146FFF728F84946FFF765
:101AD00027F8FFF7F3FA294660805046FFF720F811
:101AE0003BE3344B324DD868E968FFF719F82E68AC
:101AF000074600213046FFF71BF901463846FFF73D
:101B00000FF8D5F804A080464FF081415046FFF70A
:101B10000FF92A49FFF7C0F901464046FFF700F8E0
:101B2000254B804693F96E00FFF7AEF8A968FFF7E2
:101B3000FFF8054629464046FEF7F2FFFFF7BEFADA
:101B40004FF0404120805046FFF7F2F81B49FFF765
:101B5000A3F9314682463846FEF7E0FF5146FEF7CC
:101B6000DFFF29468146FEF7D9FFFFF7A7FA314686
:101B700060803846FEF7D4FF5146FEF7D1FF294674
:101B80000646FEF7CBFFFFF799FA2946A0804046AC
:101B9000FEF7C4FFFFF792FA2946E0804846FEF7B9
:101BA000BFFFFFF78BFA20813046F6E000000020EF
:101BB0008C08002064000020E00800200000404065
:101BC000A84BA94DD868E968FEF7AAFFD5F80080B0
:101BD00007464FF03F414046FFF7AAF80146384616
:101BE000FEF79EFF6E6883464FF07C513046FFF74C
:101BF0009FF89E4B814693F96E00FFF745F8A96860
:101C0000FFF796F8494605465846FEF789FF2946EC
:101C1000FEF786FFFFF752FA4FF03F412080304633
:101C2000FFF786F8824651465846FEF779FF294667
:101C3000FEF774FFFFF742FA4FF07C516080404698
:101C4000FFF776F801463846FEF76AFF49468346B5
:101C5000FEF766FF2946FEF763FFFFF72FFA5146AE
:101C6000A0805846FEF75CFF2946FEF757FFFFF7B6
:101C700025FA0021E0804046FFF75AF80146384631
:101C8000FEF74EFF31460746FEF748FF2946FEF7AE
:101C900047FFFFF713FA314620813846FEF740FF31
:101CA0002946FEF73BFFFFF709FA6081DCE26D4B46
:101CB0006D4DD868E968FEF733FFD5F800B081466E
:101CC0006B495846FFF734F86A49FFF7E5F80146D3
:101CD0004846FEF725FF6F68064667493846FFF716
:101CE00027F86649FFF7D8F8604B824693F96E00F3
:101CF000FEF7CAFFA968FFF71BF8514605463046B4
:101D0000FEF70EFF2946FEF70BFFFFF7D7F95C49F8
:101D100020803846FFF70CF85849FFF7BDF8804699
:101D200041463046FEF7FCFE2946FEF7F9FEFFF776
:101D3000C5F94FF0814160805846FEF7F9FF4D49E3
:101D4000FFF7AAF801464846FEF7EAFE51468146EB
:101D5000FEF7E6FE2946FEF7E1FEFFF7AFF9414642
:101D6000A0804846FEF7DCFE2946FEF7D7FEFFF7C7
:101D7000A5F90021E0803846FEF7DAFF074639462C
:101D80003046FEF7CDFE2946FEF7C8FEFFF796F96E
:101D9000394620814846FEF7C3FE2946FEF7C0FEBD
:101DA00081E7314D2F4BE968D868FEF7B9FED5F8C9
:101DB000008082464146FEF7B1FE6E68814631469C
:101DC000FEF7AEFE294B074693F96E00FEF75CFF67
:101DD000A968FEF7ADFF054629463846FEF79EFE88
:101DE000FFF76CF9314620804846FEF797FE2946FA
:101DF0008146FEF795FEFFF761F941466080504647
:101E0000FEF78EFE31468246FEF78AFE2946804660
:101E1000FEF786FEFFF752F93146A0805046FEF7E6
:101E20007DFE29460646FEF779FEFFF747F929466B
:101E3000E0803846FEF774FEFFF740F9294620811E
:101E40004846FEF76BFEFFF739F9294660814046A8
:101E5000FEF764FEFFF732F92946A0813046FEF70F
:101E60005FFE2EE1640000208C080020E0080020C6
:101E7000000080C00000A040000010410000204190
:101E8000000010C1914B924DD868E968FEF748FEFA
:101E90002E6807468F493046FEF74AFF8E49FEF707
:101EA000FBFF01463846FEF73BFED5F8048081462D
:101EB0008A494046FEF73CFF8749FEF7EDFF884B15
:101EC000824693F96E00FEF7DFFEA968FEF730FF49
:101ED000514605464846FEF723FE2946FEF720FEFA
:101EE000FFF7ECF87D4920803046FEF721FF7A4964
:101EF000FEF7D2FF01463846FEF712FE51468346F2
:101F0000FEF70EFE2946FEF70BFEFFF7D7F87149E4
:101F100060804046FEF70CFF6F49FEF7BDFF82462A
:101F200051465846FEF7FCFD2946FEF7F9FDFFF73E
:101F3000C5F85146A0804846FEF7F2FD2946FEF757
:101F4000EFFDFFF7BBF80021E0803046FEF7F0FE22
:101F500001463846FEF7E4FD41468146FEF7DEFDC8
:101F60002946FEF7DBFDFFF7A9F800212081404656
:101F7000FEF7DEFE314682463846FEF7CFFD51467B
:101F8000FEF7CEFD2946FEF7C9FDFFF797F841465B
:101F900060814846FEF7C4FD2946FEF7BFFDFFF706
:101FA0008DF83146A0813846FEF7BAFD514683E0F0
:101FB000474D464BE968D868FEF7B2FD2F6880466A
:101FC0003946FEF7ADFD6E6882464FF03F41304620
:101FD000FEF7AEFE424B814693F96E00FEF754FECB
:101FE000A968FEF7A5FE494605465046FEF798FD4E
:101FF0002946FEF795FDFFF761F84FF03F4120803D
:102000003846FEF795FE01464046FEF789FD31460B
:102010000190FEF783FD2946FEF782FDFFF74EF89B
:10202000394660804046FEF779FD4FF07C5183468B
:102030003046FEF77DFE0346194658460293FEF7EA
:102040006FFD2946FEF76CFDFFF738F84FF07C5125
:10205000A0803846FEF76CFE01464046FEF760FD64
:1020600031460746FEF75CFD2946FEF759FDFFF7AE
:1020700025F83146E0803846FEF750FD2946FEF748
:102080004DFDFFF71BF8494620815846FEF748FDF5
:102090002946FEF743FDFFF711F86081019A3146AA
:1020A0001046FEF73DFD2946FEF738FDFFF706F81E
:1020B000029BA08119465046FEF732FD2946FEF7E5
:1020C0002DFDFEF7FBFFE081CEE000BF64000020A5
:1020D0008C0800200000E040000020410000E0C02B
:1020E000E0080020894B8A4DD868E968FEF718FDA2
:1020F0002F68804600213846FEF71AFE6E680146BA
:102100004046FEF70DFD3146FEF70AFD814B824643
:1021100093F96E00FEF7B8FDA968FEF709FE0546C3
:1021200029465046FEF7FCFCFEF7C8FF0021208040
:102130002846FEF7FDFD394681464046FEF7EEFC97
:102140003146FEF7EBFC4946FEF7EAFCFEF7B6FF28
:10215000294660805046FEF7E1FCFEF7AFFF3946A6
:10216000A0804046FEF7DCFC3146FEF7D7FC49462E
:10217000FEF7D6FC75E4674CB4F88200FEF784FDE8
:10218000D4F88810FEF7CCFC604B5968FEF7C8FC09
:102190000546B4F88000FEF777FD0646314628462E
:1021A000FEF764FF08B130460CE0B4F88400FEF797
:1021B0006BFD044621462846FEF776FF08B120460F
:1021C00000E02846FEF77AFF524C534B80B218804D
:1021D000B4F87800FEF758FDE16FFEF7A1FC4B4B19
:1021E0001968FEF79DFC0546B4F87600FEF74CFD35
:1021F000064631462846FEF739FF08B130460CE066
:10220000B4F87A00FEF740FD044621462846FEF762
:102210004BFF08B1204600E02846FEF74FFF3E4B3B
:1022200080B2588020E0394BD868FEF747FF3B4B1F
:1022300020809B7A384C23B14FF0000222806280CC
:1022400012E0334D00216868FEF772FD002106465A
:102250002868FEF76DFD01463046FEF761FCFEF78B
:102260002DFF80B2208060802D4B1A88012308E06A
:102270002B4912B231F9131001338A42B8BF0A4612
:1022800092B2039CA342F3D3224B264CB3F84000F6
:10229000D98FB3F83A8093F84270B3F834C01F4B2B
:1022A000C2EB000993F801B0039B1FFA89F95B00A8
:1022B0000393B4F906A0002321E014B2844203DDA5
:1022C000174C1D5B4D441D53154C1D5F8D4201DAAB
:1022D0008DB203E08542A8BF0546ADB2104E9C19F1
:1022E000C2459D5304DA17B1A4F800C000E0218074
:1022F000BBF1000F02D10A4C23F804C00233039C47
:10230000A342DAD105B0BDE8F08F00BF6400002021
:102310008C080020E008002000000020A808002011
:10232000CC070020CC08002010B5002407E0064BA5
:10233000204633F8141002F0CBFE0134E4B2034B14
:102340001B78A342F3D810BDCC070020100000205A
:10235000064A074B11789A1C02EB410201E023F870
:10236000020C02339342FAD1FFF7DEBF10000020C7
:10237000CC07002038B50546002410E0094B013495
:10238000B3F93E00FFF7E4FFFA2003F0F0F94FF451
:102390007A70FFF7DDFFFA2003F0E9F9E4B2AC420E
:1023A000ECD338BDE008002010B50D4B1B78ABB165
:1023B0000C4B93F83230012B09D0042B0ED10A4C70
:1023C0000020218902F092FE0120618902E0064B83
:1023D00000205989BDE8104002F088BE10BD00BF42
:1023E000AC010020E0080020000000200A4B0B4A4E
:1023F00003F17001D3F898001060D3F89C0050608E
:10240000D3F8A0009060D3F8A4001033D060183245
:102410008B42EFD1704700BFE0080020E4070020A6
:10242000044B03F1A80100221A615A6118338B4250
:10243000F9D17047E407002000230361436170472E
:102440002DE9F04704460D46D0F81490104661611E
:1024500061689046FEF76CFC2049FEF769FC014676
:102460002846FEF765FC2169FEF75AFBD4F80CA05C
:10247000074620611A495046FEF75AFC0646314687
:102480003846FEF7F3FD50B914495046FEF750FCAC
:10249000064631463846FEF707FE00B93E4626613D
:1024A00021682846FEF744FC0C4907463046FEF7F3
:1024B000F3FC01463846FEF733FB494606462846FC
:1024C000FEF72CFBA168FEF733FC4146FEF7E4FC67
:1024D00001463046FEF724FBBDE8F08700007A4451
:1024E00000007AC4000000002DE9F84503F0B4F8BC
:1024F000834E844B054618603068281AFEF7C0FBEF
:102500008149FEF715FC814B04461A793560002A93
:1025100031D07F4D6868FDF777FF75A3D3E90023BD
:10252000FDF7C6FFFEF7A6FA07462868FDF76CFF21
:102530006FA3D3E90023774DFDF7BAFFFEF79AFAB0
:10254000A969FEF7EBFA02F04BF822460146724801
:10255000FFF776FF02F044F8E96906463846FEF7D1
:10256000DDFA02F03DF8224601466C48FFF768FFAD
:1025700002F036F845E05B7A654D002B2CD0654BB8
:10258000186A674B1968FEF7C9FA064606F08AFA18
:102590008246304606F0C0FAD5F80080074651461C
:1025A0004046FEF7C5FB6D68064639462846FEF7ED
:1025B000BFFB01463046FEF7B1FA514606462846B3
:1025C000FEF7B6FB394605464046FEF7B1FB01462D
:1025D0002846FEF7A5FA14E02868FDF715FF46A384
:1025E000D3E90023FDF764FFFEF744FA0646686866
:1025F000FDF70AFF40A3D3E90023FDF759FFFEF7DB
:1026000039FA424B05465B79CBB1464B9B78B3B167
:10261000454B9B7813B94548FFF70EFF444B1868AC
:102620003C4B196AFEF77AFA01F0DAFF22460146BE
:102630003E48FFF705FF01F0D3FF80460FE0344B23
:102640009868FDF7E1FE2CA3D3E90023FDF730FFE6
:10265000FEF710FA2F4B80461A6A354B1A602B4B47
:102660009B7903B32B4B186FFEF70EFB314B0146E2
:102670001868FEF753FA3049FEF70EFC2246014671
:102680002E48FFF7DDFE2E490746FEF7EFFC08B1A6
:102690002B4F05E038462B49FEF706FD00B1294FC8
:1026A000294BDF6002E0284B0022DA60194F3046E8
:1026B000796AFEF733FA224601462448FFF7C0FE46
:1026C000214EB96A30602846FEF728FA22460146B4
:1026D0001F48FFF7B5FEF96A70604046FEF71EFA24
:1026E000224601461B48FFF7ABFEB060BDE8F88507
:1026F000FCA9F1D24D62603F7B14AE47E17A743F92
:10270000A4020020A0020020BD378635A8080020C2
:1027100064000020AC0D00202C080020440800209C
:10272000DC08002060000020740000205C0800200D
:10273000A0080020C80800200000204174080020E4
:10274000000048C3000048438C080020E407002034
:10275000FC07002014080020014B01221A7070476A
:10276000C9020020014803F06BB900BF30B4000873
:10277000014803F065B900BF5EB4000838B50D48E4
:1027800003F05EF900240C4D285903F059F92D1976
:10279000092003F03FF9686803F052F9074803F095
:1027A0004FF903F0E3F80028FBD00C343C2CEAD1BD
:1027B00038BD00BF63B40008F8BD00085BB5000871
:1027C00038B50D4803F03CF900240C4D285903F0AE
:1027D00037F92D19092003F01DF9686803F030F965
:1027E000074803F02DF903F0C1F80028FBD00C34A2
:1027F000842CEAD138BD00BF86B40008ACB3000811
:102800005BB5000810B502F0A1FF4FF47A71B0FB80
:10281000F1F1134C134801F0E4F9134803F010F9F7
:10282000A06FFDF7F1FD02460B46104801F0D9F903
:1028300094F880100E4801F0D4F90E4803F000F926
:102840000D4B0E48196801F0CCF902F097F80146DB
:102850000B4801F0C6F90B48BDE8104003F0F0B892
:10286000AC0D00209CB40008AEB40008C2B400084F
:10287000C7B40008CCB40008C8070020D9B40008C9
:10288000E8B400085BB500082DE9F041074608F000
:10289000A3FCC5B255B91F4803F0D2F81E4B93F8FC
:1028A00032201E4B013A53F822002AE038461C49D8
:1028B0002A4608F099FC044670B91A4803F0C0F89B
:1028C000164B53F82400F0B103F0BAF8013420207D
:1028D00003F0A0F8E4B2F3E70024104E56F82410F9
:1028E00009B9114810E038462A4608F07DFC631CFF
:1028F00070B9094A0D4882F8323003F0A1F856F851
:10290000240003F09DF80A48BDE8F04103F098B8B0
:10291000DCB2E2E7F9B40008E0080020140000206F
:1029200094B8000809B500081CB5000834B50008C3
:102930005BB500082DE9F04585B0804608F04CFCF9
:10294000074628B1012879D198F800302A2B75D193
:102950004B4C4C4803F074F8D4F81401FDF754FDC7
:102960000646D4F818010F46FDF74EFDCDE90001EB
:10297000D4F81C01FDF748FD32463B46CDE9020183
:10298000414801F02EF9D4F82401FDF73DFD06463B
:10299000D4F828010F46FDF737FDCDE90001D4F842
:1029A0002C01FDF731FD32463B46CDE902013748A7
:1029B00001F017F9D4F83001FDF726FD0646D4F8EA
:1029C00034010F46FDF720FDCDE90001D4F83801B0
:1029D000FDF71AFD2E4D32463B46CDE902012D484A
:1029E00001F0FFF8E86BFDF70FFD0646286C0F4677
:1029F000FDF70AFDCDE90001686CFDF705FD3246E3
:102A00003B46CDE90201244801F0EBF8D4F840013F
:102A1000FDF7FAFC0646D4F844010F46FDF7F4FC36
:102A2000CDE90001D4F84801FDF7EEFC3246CDE9CE
:102A300002013B46194801F0D4F81DE000252C4660
:102A4000174E404671593A465FFA84FA08F0CCFBBB
:102A500040B90C2303FB0464A3689847BAF1040F40
:102A60000AD903E001340C35052CE9D10D4805B035
:102A7000BDE8F04502F0E4BF05B0BDE8F08500BF59
:102A8000E008002042B500085EB5000878B50008EF
:102A9000AC0D002094B50008BAB50008D6B5000802
:102AA000F8BD0008EEB5000870B50D68044628466C
:102AB00008F092FB024620682946BDE8704008F005
:102AC00093BB00007FB5037904460D46052B2BD838
:102AD000DFE803F0030810151B20836820496846CF
:102AE0001A7804E083681F4993F90020684601F0D2
:102AF00069F819E083681A4968461A88F7E7836815
:102B000018496846B3F90020F1E78368144968461C
:102B10001A68ECE783681868FDF776FC02460B46F6
:102B20006846114901F04EF868466E4602F088FF8B
:102B3000ADB10E4802F084FF69460A22E06801F058
:102B400093FC684602F07CFF084802F079FF206998
:102B500069460A2201F088FC684602F071FF7FBDD9
:102B6000C9B400080CB600080FB6000861B400082C
:102B70002DE9F041054608F02FFB064620B101285B
:102B80001ED12B782A2B1BD1414802F059FF414C12
:102B900004F5D265206802F053FF3F4802F050FF71
:102BA00020463146FFF78EFF3C4802F049FF02F015
:102BB000DDFE0028FBD01434AC42EBD1BDE8F0813F
:102BC00028463D2108F0FCFA064600285DD0314C2D
:102BD00004F5D267D4F80080404608F0FDFA41467B
:102BE0000246284608F000FB8046002845D123799C
:102BF000701C052B04D101F013FD0546404602E090
:102C000008F075FA00252379052B06D0E26890427A
:102C100013DB2269904212DD0FE0E068FEF734F822
:102C200001462846FEF722FA38B92069FEF72CF84B
:102C300001462846FEF738FA88B1194821E0052BED
:102C40000FD8DFE803F003030606090CA368187029
:102C500007E0A368188004E0A368186001E0A36897
:102C60001D60206802F0ECFE0E4802F0E9FE2046EE
:102C70000021BDE8F041FFF725BF1434BC42A9D1C3
:102C80000948BDE8F04102F0DBBEBDE8F08100BFBD
:102C900012B6000834BE000827B600085BB500086D
:102CA0002BB6000839B5000850B6000810B5084822
:102CB00002F0C6FE00F072FC064802F0C1FE0A20D7
:102CC00002F055FD0020BDE8104002F05BBD00BFE2
:102CD0006DB6000877B60008F0B585B0044608F078
:102CE0007BFA082824D100231F49E25C09685118A7
:102CF000497811F0020F18BF203AE2540133082B33
:102D0000F2D1651C04F1090715F8016C174831462A
:102D100008F056FA20B12846314608F051FA08B1B9
:102D200013481CE00135BD42EED1204600F05AFCAC
:102D3000104802F085FE00230F4A04A9D218927AA7
:102D40008A180A49595C0133082B02F80C1CF3D18C
:102D5000083B01A88DF80C3002F072FE074802F023
:102D60006FFE05B0F0BD00BFAC000020C4C4000879
:102D700086B60008A6B60008E00800205BB500088B
:102D800010B50446084802F05BFE202200210748E7
:102D900008F00DFA064A00231360064A2046137015
:102DA000BDE81040FFF782BFBBB60008A8020020B4
:102DB000CC0200209C08002010B5084802F040FE1C
:102DC000012000F025FC064802F03AFE0A2002F03D
:102DD000CEFC0020BDE8104002F0D4BCD3B6000801
:102DE00079B600082DE9F041844B8AB01A7832B9DF
:102DF00001321A70824802F023FEFFF7B9FC814BC2
:102E00001B78002B00F0698102F026FE18B102F059
:102E1000BBFD7D4B18707C4B1B786D2B42D00CD8C2
:102E2000622B23D005D8232B0FD0612B40F0558186
:102E30000FE0672B40F051811EE0742B5AD0772BA6
:102E40005BD0712B40F0498139E06E4B00221A7043
:102E5000D1E06E4C2068FDF7D7FA064660680F4651
:102E6000FDF7D2FACDE90001A06811E0674B684890
:102E7000196F00F0B6FE30E1644C606AFDF7C4FAE9
:102E80000646A06A0F46FDF7BFFACDE90001E06AE9
:102E9000FDF7BAFA3246CDE902013B465D4800F043
:102EA000A0FE1AE1594CA06DFDF7AEFA0646E06DA2
:102EB0000F46FDF7A9FACDE90001206EE8E7564C70
:102EC0002068FDF7A1FA064660680F46FDF79CFAF8
:102ED000CDE90001A068FDF797FACDE90201E068AD
:102EE000FDF792FA3246CDE904013B464B4800F02B
:102EF00078FEF2E002F056FCEFE0444C4849A0694D
:102F0000FDF716FFFDF780FA06460F46E0694449D3
:102F1000FDF70EFFFDF778FACDE900014049206A80
:102F2000FDF706FFB4E702F02FFD092801D03F2886
:102F300053D13C4BDFF8FC8000261F683546A8F1D2
:102F400084040CE02FB1384821683A4608F04CF967
:102F500020B915B92646254600E026460C344445DE
:102F6000F0D1BDB1304A3B46D2192968C85C3168FE
:102F7000C95C81420CD1581C013229B92A4A20313E
:102F8000D154284B186005E002F8011C0346ECE719
:102F9000244A1360234B1B680BB1B5420FD0234862
:102FA00002F04EFD06E055F80C0B02F049FD092039
:102FB00002F030FDB542F6D9FFF7DAFB00271A4CD4
:102FC000E41904E014F8010C02F024FD0137154B5C
:102FD00001341B689F42F5D37FE0124B1B682BB96D
:102FE000042803D11048FFF7CBFE7BE00C2823D147
:102FF0000F4802F025FDFFF7BBFB6EE09C080020A8
:10300000EEB60008C9020020C8020020AC0D002066
:10301000B5C7000829B70008540C002026B70008DF
:10302000E02E6542CC020020A802002033B7000841
:1030300038B7000830B40008002B2FD00A2801D080
:103040000D282BD1294802F0FBFC294B294C1A688A
:103050000023A3540893284B07A8009327490B2269
:103060000C23079408F047F8054638B1006808F0CB
:10307000B3F80130AB682018984702E0204802F00E
:10308000DFFC20221B48002108F091F8184B002299
:103090001A601C4B1B78002BADD123E07F2801D098
:1030A00008280AD1CBB1124A013B1360114A002112
:1030B000D154154802F0C4FC0FE01F2B0DD81F2877
:1030C0000BD97E2809D80BB9202806D0094AD0543C
:1030D000074A0133136002F09DFC02F0BDFC00289A
:1030E0007FF421AF0AB0BDE8F08100BF5BB50008F6
:1030F000CC020020A8020020A92A0008ACB30008D6
:1031000043B700089C08002064B700082DE9F14F80
:103110007A4B00241A787A4D01321A702646774B82
:10312000784F93F80080BB19987A01F0EDFFA0F575
:103130003A73063B9BB240F2DC52934288BFF88E52
:103140006F4B08F0030808EB860823F818002B885B
:103150006A88D218AB88D218EB88D21812B2931CA6
:1031600048BF531D9B10684A9BB21353674A19B25C
:10317000A05E0338814201DA981CA052634AA05E27
:103180000330814201DD023BA3520136023408358F
:10319000082EC4D15D4C5B4DB4F906206B8F9A426A
:1031A00045DAFFF73DF92B8C73B1594B5B7923B1AD
:1031B000584B1A780AB1012215E0564B5A78002A6A
:1031C00062D000225A705FE0B4F90420AB8F9A42BB
:1031D0000FDD504B597861B94F490A78501C142AB9
:1031E000087051D1133A5A704C4B1A6A4C4B1A6002
:1031F0004AE0444B5B8F9A4243DA464A517841B1E8
:1032000045490B78581C142B08703DD1143B537062
:103210003AE03E4AB2F902209A4232DD3E4A137841
:10322000591C142B11702FD103F09AFB2CE0A98F9D
:103230008A4229DD374A527832BBB4F904208A42E7
:103240000CDDB4F90210994208DA334A1378591C9C
:10325000142B117018D104F013F915E09A4210DA0A
:103260002A4AB2F902209A420BDA2B4A1378591CE7
:10327000142B117008D103F0EFF90320FFF77AF84F
:1032800002E0254B00221A701E4B9A78002A28D0A3
:10329000244A9C88B2F800C00FFA8CFEA6451DDDBA
:1032A0001C4A5178D1B1D88E18490880488088804E
:1032B0001889DB88C8801C190121A645D17302DD5D
:1032C000002353701370134B5A780AB95A701A704E
:1032D000144B0CF1010CA3F800C002E00D4B0022CE
:1032E000DA73084B104A588F9C8F00231946B2F9A5
:1032F00000C084451ADC4FF0000E1FE020030020C0
:10330000E0020020E0080020D0020020CC080020CD
:10331000B8080020A808002021030020AC0D0020E0
:10332000DC080020500A0020D408002032F908EC04
:103330008645ACBF4FF0000E4FF0010E8445ACBF88
:10334000002501259D40A445D4BF4FF0000C4FF04F
:10335000010C45EA01019D1C0CFA05FC41EA0C0137
:1033600003F1010C0EFA0CFE033341EA0E010232A6
:103370000C2B89B2BBD1744F0C3B3A46B2F816C045
:10338000724811EA0C0F0CBF4FF0000C4FF0010C0B
:1033900003F800C0013302320E2BEFD1437913B989
:1033A0006B4B01221A70694B1A7A694B02B10122E8
:1033B0009A72664B1B7813B9654BDA7B5AB1644C31
:1033C00023794BB96348FFF737F86348FFF734F8C0
:1033D0000123237100E01A715C4B9A785C4B42B177
:1033E0005A793AB901325A715C4B1A6A5C4B1A60CD
:1033F00000E05A71554B5A7A554B42B15A7A3AB954
:1034000001325A72554B1A6A564B1A6000E05A72D2
:103410004E4B5B7B1BB1514B1A6A524B1A60002515
:10342000514B524CE85EFDF72FFC44F81500023575
:10343000082DF5D1444BDE8E3046FDF725FC0546C0
:1034400029462068FDF76AFB294620606068FDF781
:1034500065FB29466060A068FDF760FBA060A6F5EB
:10346000BA600C38FDF710FC0146E068FDF756FB2A
:103470000025E0602C46DFF8FCA03D4B1AF8042044
:10348000B7F844B01A555846FDF7FEFBDFF8DC905C
:10349000804659F8056041463046FDF7F1FD78B1A8
:1034A000CBF10000FDF7F0FB01463046FDF7F2FDE1
:1034B00030B1002349F8053001230AF8043014E044
:1034C0002C4B00221A5530460021FDF7EDFDDFF8A8
:1034D0009CA020B130464146FDF720FB03E030467A
:1034E0004146FDF71DFB4AF805000134043502375B
:1034F000032CC0D11D4BDC681F4B20461968FDF71B
:103500000DFB1E4920F00040FDF7CEFD10B1104B21
:1035100000229A710D4B5A780D4B8AB19A7982B973
:1035200001329A71144B1C600C4B186FFDF7ACFB09
:10353000134B1860134801B0BDE8F04FFEF77CBF95
:103540009A7101B0BDE8F08FE0080020B8080020B3
:10355000A80800202C08002044080020AC0D002002
:10356000A0080020DC080020CC0800206400002017
:103570007400002060000020A40800200000A0418A
:10358000C808002074080020024803494FF4B872AC
:1035900007F000BEE008002000FC010810B504F0B0
:1035A000CDFB342004F0DEFB0B4804F033FC042890
:1035B0000CD1094C094B2046E15804F001FC0428C9
:1035C00000D0FEE7064B04349C42F3D104F0C2FB6A
:1035D000BDE81040FFF7D8BF00FC0108E00CFE1763
:1035E00070FD010870B50646002409E0064D284626
:1035F00007F0E6FD18B1054A83185D1BAC72013473
:10360000315D0029F2D170BDC4C40008E00800207B
:1036100070B5954B1B7810B9052B00F02481934CA5
:10362000052323709248FFF7DDFF01234FF4C87094
:103630006370013B4FF032026082A3704FF49660DA
:1036400044F62063E380A282A280208104F11C035F
:103650000025E58202349C422E46F9D1834B032299
:1036600083F832204FF47A729A8640F2DC504FF49D
:10367000FA62D8861A8740F24C4040F26C72588742
:103680009A8740F27E4040F23A72D887A3F84020F1
:103690004FF00C004FF47A72A3F84400A3F84600F0
:1036A000A3F84800A3F8622040F2DC504FF4FA621D
:1036B000A3F86400A3F866204FF47A7040F2DC525D
:1036C000A3F86800A3F86A204FF4FA604FF47A7206
:1036D000A3F86C00A3F8702040F2DC504FF4FA62BB
:1036E000A3F87200A3F874204FF47A7040F2DC5211
:1036F000A3F87600A3F878204FF4FA604FF47A72BA
:10370000A3F87A00A3F8802040F2DC504FF4FA626C
:1037100001214FF07E5CA3F88200A3F884204FF4CF
:103720007A704FF0FF3283F88C2083F88E2083F874
:10373000421083F86E10C3F87CC0C3F888C083F8C9
:103740008D1083F88F10A3F89000A3F894004948D7
:10375000494CC3F89800C3F8A400C3F8A800C3F804
:10376000B400C3F8C4004FF07C50C3F8D400C3F8D1
:10377000E400C3F8F40041484FF4FA62C3F8F800DB
:103780003F48C3F8B840C3F8FC003E484FF08044BF
:10379000C3F800013C48A3F89220C3F804013B4859
:1037A000A3F89620C3F8C8400022C3F8D8404FF0D1
:1037B0007F54C3F89C20C3F8A020C3F8AC20C3F802
:1037C000B020C3F8BC20C3F8C020C3F8CC20C3F895
:1037D000D020C3F8DC20C3F8E020C3F8EC20C3F805
:1037E000F020C3F8E84083F80811C3F80C01C3F8CF
:1037F0001421C3F81821C3F81C21C3F82421C3F8ED
:103800002821C3F82C21C3F83021C3F83421C3F890
:103810003821C3F84021C3F84421C3F848211C4A89
:103820004FF02A00C3F84C211A4A83F81051C3F80C
:103830005421194AA3F82001C3F85C21174A83F8E0
:103840003C51C3F86421164A83F85011C3F868212B
:10385000144AC3F858C183F86011C3F86C21BDE85D
:103860007040FFF79BBE70BD00FC0108E00800201F
:10387000CCC400080000C842000048430000A0413A
:10388000000088410000E0400060EA466666663F4E
:103890000AE89C41A4702941CDCCCC3D00003041C8
:1038A0003333534066668640F8B504460E461046EC
:1038B0004FF07E511546FDF7CFFB20BB3046FCF79D
:1038C000A3FD064628460F46FCF79EFD02460B4622
:1038D00000200E49FCF738FC02460B4630463946BC
:1038E000FCF7E6FD06460F4620462946FDF720FA7E
:1038F000FCF78AFD02460B4630463946FCF726FCAB
:10390000FDF7B8F804462046F8BD00BF0000F03FC0
:1039100028B1026811700268013202607047C8B2B3
:1039200002F078B82DE9F845161E04460D460FDD65
:10393000002200E00132A95C0029FBD1B242ACBFF9
:103940000E46B61A13F0020F02D04FF0300A01E013
:103950004FF0200A13F0010809D04FF0000808E0EA
:1039600020465146FFF7D4FF08F10108013E002E22
:10397000F6DC474603E02046FFF7CAFF0137C8EBF5
:103980000503D95D0029F6D105E020465146FFF731
:10399000BFFF0137013E002EF7DC3846BDE8F88551
:1039A0002DE9FF410A9F05460B9EDDF830E08C466D
:1039B00051B930238DF804308DF805103A4601A92D
:1039C0003346FFF7AFFF39E03BB10A2A05D10029A2
:1039D00003DAC1F1000C012400E0002404AB002153
:1039E00003F8011D0DE0BCFBF2F102FB11C1092936
:1039F000C4BFAEF13A000918303103F8011DBCFB19
:103A0000F2FC9846BCF1000FEDD184B14FB116F035
:103A1000020F06D028462D21FFF77AFF013F01242F
:103A200005E02D2203F1FF3803F8012C002428467D
:103A300041463A463346FFF775FF001904B0BDE82A
:103A4000F08100002DE9F04F82468FB00E461446FB
:103A50004FF0060B0025A4E0252B40F09C8016F8C3
:103A6000013F002B00F0A180252B00F094802D2B2E
:103A700002D04FF0000806E001364FF0010802E0E6
:103A8000013648F002083378302BF9D000229146F5
:103A90000AE02AB10A2303FB0B1B0BF0FF0B08E023
:103AA0000A2303FB0909013633782E2B03D14FF08B
:103AB000000B0122F7E7A3F13000C1B20929E8D9D0
:103AC000732B07D154F8041B3D4B5046002908BF07
:103AD00019465AE0642B0BD1033B0293CDF80090BA
:103AE000CDF80480271D504621680A22603B0CE077
:103AF000782B0FD1173BCDF80090CDF804800293BE
:103B00002168271D50461022613BFFF749FF2D1801
:103B10003C4645E0582B0BD1173B0293CDF8009063
:103B2000CDF80480271D504621681022413BECE768
:103B3000752B0AD1143BCDF80090CDF80480029388
:103B4000271D504621680A22DEE7632B0DD123682A
:103B500050468DF8343000238DF835300DA94A4693
:103B60004346271DFFF7DEFED1E7662B18D1073449
:103B700024F0070305AFD3E9000103F108043A4636
:103B80005B4600F083FC504639464A464346FFF701
:103B9000C9FE2D1804E050463178FFF7B9FE013513
:103BA00001363378002B7FF457AFBAF1000F03D002
:103BB000DAF8003000221A7028460FB0BDE8F08F06
:103BC000D5C400080EB40FB505AA52F8041B019025
:103BD00001A80392FFF736FF04B05DF804EB03B0D1
:103BE00070470FB407B504AA52F8041B00200192D5
:103BF000FFF728FFBDE80E4004B07047034B0449AF
:103C00001A78885C01321A70704700BF23030020C5
:103C10002C03002010B5FFF7F1FF0446FFF7EEFF7D
:103C200004EB002080B210BD10B5FFF7F3FF04468F
:103C3000FFF7F0FF04EB004010BD000010B5044694
:103C400001F0E8FE024B1A7854401C7010BD00BF12
:103C50002203002038B50546002401E0FFF7EEFFFF
:103C6000285D01340028F9D138BD0000014B1878D7
:103C7000FFF7E4BF2203002070B5044624200D4660
:103C8000FFF7DCFF4D20FFF7D9FF002C14BF2120E8
:103C90003E20FFF7D3FF064B00221A702846FFF79D
:103CA000CDFF044B1878BDE87040FFF7C7BF00BFD9
:103CB000220300202803002001460120FFF7DCBF7B
:103CC00001460020FFF7D8BF70B50B4D0B4C0646E0
:103CD000C0B2287001F09EFE2A782378B6B282EA3C
:103CE0000303300A2370287001F094FE23782A78A9
:103CF00082EA0303237070BD270300202203002003
:103D000070B5154D154C0646C0B2287001F082FE04
:103D10002A782378300A82EA0303C0B2237028701D
:103D200001F078FE2A782378300C82EA0303C0B2CF
:103D30002370287001F06EFE2A782378300E82EA14
:103D400003032370287001F065FE23782A7882EA45
:103D50000303237070BD00BF240300202203002052
:103D600070B5A64B1B78002B00F05483BDE8704063
:103D7000FFF738B801F008FEA14B1A78A2B9242841
:103D800014BF002201221A70002A40F04383232826
:103D900003D0522840F03E8302E0FFF723F839E3D6
:103DA000012001F0EFFC35E3012A04D14D280CBFBE
:103DB0000220002005E0022A05D13C280CBF032088
:103DC0000020187026E3032A11D1402801D9033AB4
:103DD0001FE38C4A8C49107000220A708B490A70CC
:103DE0008B4A107004221A70033A8A4B11E3042A9A
:103DF00007D1894A1070864A117848401070052210
:103E000007E3052A40F006837F497E4B0A781B783A
:103E100093427F4B0AD993F800C080EA0C0C83F8D8
:103E200000C07E4B985401320A70F3E21B78834243
:103E300040F0ED82784B1B78722B00F0B98223D8CA
:103E40006A2B5DD010D8662B00F0578106D8642B02
:103E500000F00381652B40F0D5820FE1682B00F064
:103E6000A08100F2AA8190E16E2B00F0E38105D8D9
:103E70006C2B00F0AE8100F2D78141E0702B00F096
:103E8000018200F27B823BE0CB2B00F0CF8010D888
:103E9000762B00F09F8205D8742B00F07D8200F213
:103EA00080828CE2C92B1FD02ED8C82B40F0AA826A
:103EB00011E0CF2B24D005D8CD2B00F0988200F252
:103EC0009B82BDE0FA2B00F09A82FE2B18D0D02BFB
:103ED00040F0988281E20024FFF79CFE504BE052B4
:103EE0000234102CF8D10BE0FFF788FEFFF786FEB6
:103EF000FFF79AFEFFF798FEFFF78CFEFFF78AFEAA
:103F00000020FFF7DDFE80E2464C04F13005FFF7AC
:103F100075FEFCF7B5FEC4F89800FFF76FFEFCF7DE
:103F2000B3FE4149FCF7B8FFC4F89C00FFF766FEFA
:103F3000FCF7A6FEC4F8A0001034AC42E7D1FFF7AE
:103F40005DFEFCF79DFE374CC4F8F800FFF756FE07
:103F5000FCF79AFE3449FCF79FFFC4F8FC00FFF71A
:103F60004DFEFCF78DFEC4F8000100240134FFF77C
:103F700045FEFFF743FEFFF741FE032CF6D1FFF7A6
:103F80003DFEFCF77DFE274CC4F8C800FFF736FE67
:103F9000FCF77AFE2449FCF77FFFC4F8CC00FFF75A
:103FA0002DFEFCF76DFED4F8C830C4F8D000C4F87C
:103FB000D830D4F8CC30C4F8E000C4F8DC30FFF7D7
:103FC0001DFEFCF75DFEC4F8E800FFF717FEFCF7E6
:103FD0005BFE1549FCF760FFC4F8EC00FFF70EFE2E
:103FE000FCF74EFEC4F8F00000240134FFF706FE93
:103FF000032CFAD1FEF7FAF982E700BF9C080020F3
:104000006C0300202603002025030020230300204A
:104010002203002029030020280300202C03002075
:10402000CC080020E008002000007A44884C04F10D
:104030001C05FFF7EFFDE0820234AC42F9D15FE7E7
:10404000FFF7DCFDFFF7DAFDFFF7D8FDFFF7D6FD40
:10405000FFF7D4FDFFF7D2FDBCE10720FFF730FEEC
:10406000D220FFF7EBFD7A4B93F83200FFF7E6FD25
:104070000020FFF7E3FD4FF000403BE00A20FFF790
:104080001FFE744BB3F90000FFF71EFE00F076FC34
:1040900000B2FFF719FE704BB3F90000FFF714FEF2
:1040A0006E4B59799A79890041EA42011A79114394
:1040B0005A7841EA42116A4AD07841EAC00110793F
:1040C00041EA0011D87941EA8011187A41EAC01119
:1040D000587A9B7A41EA402141EA0323917A507B46
:1040E00043EA8123D17A43EAC123117B43EA0133B6
:1040F00043EA4030FFF704FE87E15A4C1220FFF7F5
:10410000DFFD59492068FCF713FEFCF7D7FF00B22A
:10411000FFF7DAFD54496068FCF70AFEFCF7CEFFB2
:1041200000B2FFF7D1FD5049A068FCF701FEFCF793
:10413000C5FF00B2FFF7C8FD4C49606AFCF7F8FD07
:10414000FCF7BCFF00B2FFF7BFFD4849A06AFCF7CF
:10415000EFFDFCF7B3FF00B2FFF7B6FD4349E06A9D
:10416000FCF7E6FDFCF7AAFF00B2FFF7ADFDA06D7E
:10417000FCF7A4FF00B2FFF7A7FDE06DFCF79EFF80
:1041800000B2FFF7A1FD206E4AE01020FFF798FD76
:104190000024374BE05E0234FFF796FD102CF8D177
:1041A00033E11020FFF78CFD0024324BE05E023437
:1041B000FFF78AFD102CF8D127E11020FFF780FDD2
:1041C00000242D4BE05E0234FFF77EFD102CF8D169
:1041D0001BE1244C0820FFF773FDA0692749FCF779
:1041E000A7FD2149FCF7A4FDFCF768FF00B2FFF72B
:1041F0006BFDE0692149FCF79BFD1B49FCF798FD2D
:10420000FCF75CFF00B2FFF75FFD1C49206AFCF77A
:104210008FFDFCF753FF00B2FFF756FD184B1868EF
:10422000FCF74CFF00B2C7E00420FFF749FD0D4B3F
:10423000586F5FE70320FFF743FD0A4B0A49986F69
:10424000FCF776FDFCF760FFC0B2FFF7F7FCB2E0C9
:10425000E0080020C807002090070020A8080020E0
:10426000B8080020AC0D0020000020410000C8422A
:1042700000000020CC070020CC080020E02E654282
:10428000DC0800201E20FFF71BFD654C04F14805EB
:1042900054F8080CFCF738FFC0B2FFF7CFFC6149B7
:1042A00054F8040CFCF744FDFCF72EFFC0B2FFF7F6
:1042B000C5FC54F8180BFCF727FFC0B2FFF7BEFC93
:1042C000AC42E5D1584CD4F89000FCF71DFFC0B2C9
:1042D000FFF7B4FC5349D4F89400FCF729FDFCF730
:1042E00013FFC0B2FFF7AAFCD4F89800FCF70CFF4C
:1042F000C0B2FFF7A3FC00240020FFF79FFC0020C2
:10430000FFF79CFC01340020FFF798FC032CF3D14D
:10431000454CA06CFCF7F8FEC0B2FFF78FFC41499A
:10432000E06CFCF705FDFCF7EFFEC0B2FFF786FC82
:10433000206DFCF7E9FEC0B2FFF780FCA06FFCF730
:10434000E3FEC0B2FFF77AFC3649E06FFCF7F0FC01
:10435000FCF7DAFEC0B2FFF771FCD4F88000FCF77E
:10436000D3FEC0B2FFF76AFC0020FFF767FC002015
:10437000FFF764FC0020FFF761FC46E01C20FFF71C
:104380009FFC2A4C04F11C05B4F916000234FFF717
:104390009BFCAC42F8D138E06D20FFF791FC24483B
:1043A00003E02F20FFF78CFC2248FFF753FC2CE0A2
:1043B0000220FFF785FC0020FFF786FC25E008209F
:1043C000FFF77EFC0124E0B20134FFF737FC092C33
:1043D000F9D11AE0FFF712FC92E50020FFF770FC1C
:1043E0000120FFF715F9002001F0CCF90DE002F0F3
:1043F00033F902F0B5FA83E503F042F880E5FFF700
:10440000CDF87DE50020FFF757FCFFF72FFC0A4BA6
:1044100000221A7001F020FB00287FF4ABAC70BDC5
:10442000EC07002000007A44E4070020E0080020A8
:104430000CC50008DCC400086C03002038B5054634
:10444000B5FBF2F30846144613B11846FFF7F6FF22
:10445000B5FBF4F304FB1354024B1B5D00F8013B66
:1044600038BD00BF7CC50008931E222B88BF0A22DE
:10447000031E10B50C4603DA2D2001F8010B58423B
:10448000FFF7DCFF00230370204610BD2DE9FF4D30
:10449000514C1F46002A18BF14460023002206462E
:1044A0000D46FCF777FA20B12D2304F8013B05F106
:1044B0000045072F19D80022002330462946FCF773
:1044C00087FA464BFA0038B1D31830462946D3E96B
:1044D0000023FBF73BFE06E0D31830462946D3E91C
:1044E0000023FBF731FE06460D4600234FF001087E
:1044F00003E00A2202FB08F80133BB42F9D330463D
:104500002946FCF797FA002302460CE04FF00A0C0C
:10451000B2FBFCF10CFB11220DF1040A30320AF857
:10452000032001330A46002AF0D11BB9303304F8C6
:10453000013B0BE00DF1040C0CEB030111F801AD94
:1045400004F802A001326145F8D1E418002F3ED0F2
:10455000FBF738FF02460B4630462946FBF7F4FDD1
:10456000824640468B46FBF72DFF02460B465046DF
:104570005946FBF79DFFFCF75DFA2E23224602F811
:10458000013B2E3B08E00A25B0FBF5FC05FB1C00B7
:104590003030C8540133604601A90028F3D1C9184E
:1045A00003E0302001F8010C01330131BB42F8D3A4
:1045B00023B91446303304F8013B08E001A8C118C0
:1045C00011F801CD814204F801CFF9D1D4180020AF
:1045D000207004B0BDE8F08D70030020A8C500086D
:1045E00010B50B490446FCF755FD20B1204609499A
:1045F000FCF794FA08E020460749FCF737FD20B1A4
:1046000020460449FCF78CFA0446204610BD00BF42
:10461000DB0F4940DB0FC940DB0F49C00000000041
:104620002DE9F84F044600E001342378202BFBD01D
:10463000092BF9D02D2B05D101344FF0000ADFF8FA
:1046400070B106E02B2BDFF864B108BF01344FF0E6
:10465000000A0026002713E00022534B304639465B
:10466000FBF726FF064628460F46FBF7BBFE024631
:104670000B4630463946FBF769FD013406460F46C6
:104680002378A3F13005EAB2092AE5D92E2B21D1EE
:1046900001344FF00008DFF8109116E0FBF7A2FE9E
:1046A00042464B46FCF72EF802460B46304639464A
:1046B000FBF74CFD002206460F46404649463A4B62
:1046C000FBF7F6FE01348046894620783038C3B2C5
:1046D000092BE3D92378652B01D0452B4CD1627887
:1046E000631C2D2A02D10133012503E02B2A08BFC8
:1046F000013300250022144602E00A2000FB0414C6
:10470000995C01323039C8B20928F6D9B4F59A7FDC
:1047100028BF4FF49A740022244B09E01046194632
:104720001DA3D3E90023FBF7C3FE323C02460B4630
:10473000312CF3D8A04609E01046194618A3D3E956
:104740000023FBF7B5FE083C02460B46072CF3D8C6
:1047500008F0070408E0104619460022124BFBF748
:10476000A7FE013C02460B46002CF4D135B1304681
:104770003946FBF7C7FF05E00C4B002230463946AF
:10478000FBF796FE02460B4650465946FBF790FE55
:10479000FCF770F9BDE8F88F9A647EC50E1B514A8C
:1047A0000000000084D79741000024400000F03F43
:1047B0000000F0BFAFF300802DE9F74F0568064613
:1047C000884628462946FCF7B3FA74688346214692
:1047D0002046FCF7ADFAB768814639463846FCF703
:1047E000A7FAF668824631463046FCF7A1FA314610
:1047F00001902046FCF79CFA394603462846009370
:10480000FCF796FA009B01461846FCF787F901462B
:10481000FCF786F904F072FB3946C8F8040020461C
:10482000FCF786FA3146034628460093FCF780FAE7
:10483000009B01461846FCF773F90146FCF770F936
:104840004946034658460093FCF76AF95146FCF77F
:1048500065F90199FCF762F9009B0146184604F0DE
:1048600099FB3146C8F808003846FCF761FA214642
:1048700006462846FCF75CFA01463046FCF750F93C
:104880000146FCF74DF9494604465846FCF746F9FF
:104890005146FCF743F90199FCF742F901462046DD
:1048A00004F078FBC8F80000BDE8FE8F014B1888C3
:1048B00080B270479003002030B52A4891B003F0D1
:1048C00031F9294B00250093284B012401934FF423
:1048D000807306934FF48063079320230893214845
:1048E0004FF4005369460993029503940495059586
:1048F0000A9503F089F91B48214603F0A5F94FF406
:1049000060231B480BA90D930B958DF830508DF843
:1049100031400E958DF83C4003F060F822460323A9
:104920001348042103F0B2F81148214603F086F839
:104930000F48214603F078F80D4803F089F80C4839
:1049400003F08BF80028FAD1094803F08BF80848E7
:1049500003F08DF80028FAD10548012103F08CF806
:1049600011B030BD080002404C24014090030020EB
:1049700000240140BFF35F8F70470000014B18888F
:1049800080B2704792030020F0B54FF4406389B0C5
:10499000ADF8143002238DF8163012330DEB0301FD
:1049A00005464A488DF8173003F054FA47484FF44B
:1049B000406103F0A7FA002402E0032000F0CCFEDF
:1049C00042484FF4806103F097FA0028F5D04FF485
:1049D00080613E4803F098FA032000F0BDFE0134E8
:1049E0003A484FF4806103F08DFAE4B2032000F0FE
:1049F000B3FE082CE4D14FF40061344803F084FA8C
:104A0000032000F0A9FE4FF48061304803F07CFAE7
:104A1000032000F0A1FE4FF480612C4803F072FAED
:104A2000032000F099FE4FF40061284803F06AFA71
:104A3000032000F091FE4FF44063254CADF8183090
:104A4000022306A98DF81A3020481A338DF81B303E
:104A500003F000FA2560284601AD03F075FB2846F7
:104A600003F0A4FA002220684FF4407103F0E0FA4A
:104A70004BF6FF73ADF80A304FF48043ADF81030B9
:104A8000144B0026206829460193ADF8086003F016
:104A9000E7FA2068012103F097FA07AC22238DF88A
:104AA0001C30204601238DF81F308DF81D608DF8D5
:104AB0001E6002F061FF2123204637468DF81C302E
:104AC0008DF81D6002F058FF09B0F0BD000C0140E8
:104AD000A8030020801A060010B54000224CC0B286
:104AE00020702248224C01702248002101700120D0
:104AF0002070214C2360214C2360214B1A70214BE4
:104B00001870214B1970214B1868838813F4007FAB
:104B100011D1038813F4807F06D1038813F4007F3A
:104B2000FBD1012103F05DFA184B4FF44071186876
:104B3000012203F07DFA47F23053124A127812B183
:104B4000013BFAD100E053B9114B1A88013292B2FD
:104B50001A800E4B1868FFF717FF002010BD0A4B94
:104B6000187880F0010010BDAD03002096030020EE
:104B7000A50300209403002098030020A003002038
:104B800097030020AC0300209C030020A803002012
:104B90009203002030B540002A4CC0B220702A4851
:104BA0002A4C01702A480121017000202070294CF4
:104BB000294D2270294C85B02170C5F800D02849B4
:104BC000284D102AC5F800D0087005D937E013F831
:104BD00000C00DF800C00130C1B29142F7D3224BA2
:104BE0001868838813F4007F11D1038813F4807F41
:104BF00006D1038813F4007FFBD1012103F0F1F902
:104C0000194B4FF440711868012203F011FA47F272
:104C10003053124A127812B1013BFAD100E053B975
:104C2000124B1A88013292B21A800F4B1868FFF7A4
:104C3000ABFE002003E00A4B187880F0010005B0BD
:104C400030BD00BFAD03002096030020A503002067
:104C50009403002097030020A0030020AC03002051
:104C60009C03002098030020A8030020920300204A
:104C700007B502AB03F8012D0122FFF78BFF0EBD34
:104C8000254B37B51868838A9BB20193019B13F4B7
:104C9000706F02D0214B01221A70019B13F4E06F58
:104CA0002ED0038B00229BB24FF48061009303F05F
:104CB000BFF9019B13F4007F22D1174C20680388B1
:104CC00013F4007F1CD1058815F480750FD003887C
:104CD00013F4807FFBD1012103F090F90E4B18688B
:104CE000038813F4007FFBD1FFF74EFE08E001219B
:104CF00003F084F920684FF440712A4603F098F9D4
:104D0000054B1A68938A23F470631B041B0C93826F
:104D1000034B00221A703EBDA80300209C03002014
:104D2000AC030020FFF7ACBFFFF7AABF2DE9F04F9F
:104D3000954C85B02068828AD2B212F001063BD031
:104D40000388012123F400631B041B0C038003F080
:104D500062F98E4B00221A708D4B1B78E3B18D4B9C
:104D60001B781BB98C4B1B78FF2B15D1894B01226B
:104D70001A708A4B1B78022B06D1834B1B681A884A
:104D800092B242F400621A80854B012219787E4B60
:104D9000186803F05DF938E1814B002219787A4BED
:104DA000186803F055F97C4B1B78FF2B00F02D8120
:104DB0004FF0FF32754BE5E012F0020347D001904F
:104DC000FFF7D8FD754B01981D78012D19D1704B57
:104DD0001B78B3B16F4B1B789BB1314603F01BF9C5
:104DE000FFF7C8FD20682946038BDBB28DF80F3032
:104DF00003F004F96B4B20681D704FF480612A4664
:104E000001E1038B0190DBB28DF80F30FFF7B2FDAB
:104E1000624B01981B78022B09D15D4B1B7833B193
:104E20005C4B1B781BB1002103F0F5F8E6E05B4B0F
:104E30001B78032B07D1564B1B7823B1554B1B789E
:104E4000002B40F0DD804FF480610122DBE012F0A6
:104E5000040572D04E4ADFF84C811278012688F89A
:104E60000060002A4FD04B4A1278002A4BD04B4AA0
:104E7000464D12784C4F022A2AD9194603F0CBF836
:104E8000206895F800A0D7F8009003F0DEF84FFAFC
:104E90008AFB0BF80900B244314685F800A020686F
:104EA00003F0ACF888F80060206895F800803F684F
:104EB00003F0CBF84FFA88FA0AF80700B04485F8F7
:104EC000008020684FF48061324603F0B1F82DE095
:104ED000314603F093F82068D7F800802E7803F06D
:104EE000B4F84FFA86FA01360AF80800F6B22E70C6
:104EF00020683F6803F0A9F84FFA86F8023608F8F0
:104F000007002E7012E0234C237813B9274B1B782F
:104F10003BB1012103F072F81C4B1A7801321A7070
:104F200004E0012103F05DF801232370164B1B6898
:104F30001A8812F4807FFBD167E012F0400637D068
:104F4000194B124ED3F80080377803F07EF84FFAF1
:104F500087FA124B01370AF80800FFB237701B7846
:104F60007FB20337BB4205D120684FF480612A46E7
:104F700003F05EF8094B1878044B1A7851B2884256
:104F800043D101321A7040E0A803002095030020AD
:104F9000A5030020A403002096030020970300200F
:104FA000AD030020AE0300209803002094030020EE
:104FB00012F0800F29D0224D2B785AB2B2F1FF3F68
:104FC00011D0204901330968515C2B7003F03BF884
:104FD0001D4B1A7895F900309A4216D120684FF48B
:104FE000806132460FE0194B2E70197803F02BF8D0
:104FF000174B1B7813B9144B1B7833B9154B186832
:105000004FF48061002203F013F80F4B0C4A1B7819
:1050100092F9002001339A420ED10F4B00221A70F0
:105020000E4B1B782BB10B4B4FF44071186802F0FC
:10503000FFFF0B4B00221A7005B0BDE8F08F00BFD8
:1050400095030020A0030020970300209603002072
:10505000A5030020A8030020A4030020AE03002025
:10506000AC030020FFF762BEFFF760BE134A14488E
:1050700013881180C91A038089B240F68C239942A3
:1050800003D9104B00221A707047A1F53A73073B01
:105090009BB240F2DA52934206D80A4B1B78072B98
:1050A0009CBF094A22F81310064B1A7801321A7075
:1050B000064B4FF000021A80704700BFB00300207B
:1050C00010050020DE040020B4030020500A002058
:1050D000044B1B78834204D9034B53F820305B68A0
:1050E00019807047DD040020E0040020044B1B7889
:1050F000834204D9034B53F820305B681980704712
:10510000DF04002014050020014B33F81000704725
:10511000B40300207FB501AD044628460E4603F0D7
:1051200041FA4FF04703013EADF80430204600231A
:105130002946ADF80860ADF80A30ADF8063003F046
:10514000ADF87FBD73B50D460446164601A802F0C2
:10515000CBFEADF804500EB1282300E018238DF8E3
:1051600007302046022301A98DF8063002F072FEB6
:105170007CBDF0B585B001AE044630460D461746FD
:1051800003F023FA4FF00103ADF808302046002366
:105190003146ADF80450ADF80670ADF80A30ADF800
:1051A0000C3003F03FFB05B0F0BD0000194B14229A
:1051B00070B502FB003303F10802D4784FEA001CFB
:1051C000154D400064B90123D37005EBC0039180F5
:1051D0005CF80500197B0222BDE87040FFF7C9BFEB
:1051E000B2F804E0D180CEEB010189B2198292F8C5
:1051F00002E00A4B002423F81E1005EBC003D47014
:10520000197B5CF805002246FFF7B3FF044B1C80B6
:1052100070BD00BFC403002010C60008B403002006
:10522000500A00202DE9F04F2D4D1346020154592C
:1052300006464FF01408760085B002EB050908FB1E
:1052400000F801368B4620464FF6FF710193FFF7B9
:1052500061FF55F83610D9F80400012205EBC605A8
:10526000FFF770FF2E79002220463146FFF781FFBD
:105270002046012103F0B2F96A79DFF868A08DF8C1
:105280000C2000228DF80D2003A801328DF80E208D
:105290008DF80F2002F070FB019B0AEB08074AF81B
:1052A00008B0BB720C2E16D8DFE806F007151515EE
:1052B0000A1515150D15151510002046022107E0D9
:1052C0002046042104E02046082101E02046102168
:1052D000012203F0A0F9384605B0BDE8F08F00BF09
:1052E00010C60008C403002070B50D460221044614
:1052F00003F001FA012820460BD1022103F006FA3F
:105300006BB214225A43254B2046D65803F0E6F9D7
:1053100027E0042103F0EFF901280ED101352046E2
:10532000EDB2042103F0F2F96BB214225A431B4B85
:105330002046D65803F0D5F913E00821204603F0A3
:10534000DAF9012811D102352046EDB2082103F027
:10535000DDF96BB214225A43104B2046D65803F0A5
:10536000C3F901462846B04770BD1021204603F01E
:10537000C2F9012810D103351021EDB2204603F007
:10538000C5F96BB214225A43044B2046D65803F099
:10539000AEF901462846B04770BD00BFC4030020E7
:1053A00001480A21FFF7A0BF00080040014804217E
:1053B000FFF79ABF000400404FF080400021FFF744
:1053C00093BF0000022110B5124803F094F90128A0
:1053D00010480CD1022103F099F90F4B0D48D3F876
:1053E000A04003F07BF901460820A04710BD102122
:1053F00003F081F901280CD11021064803F086F949
:10540000054B0448D3F8B44003F071F90146092074
:10541000A04710BD002C0140C40300202DE9F04539
:10542000444B454F142505FB00350301DC59064666
:105430004FEA460885B003EB070A204608F1010849
:10544000FFF768FE57F83810DAF804000022FFF77B
:1054500079FE07EBC80768463F7903F0ACF84FF0D8
:105460007003ADF800304FF00103ADF802304FF09B
:105470000003ADF804304FF47A73ADF806304FF006
:105480000203ADF808304FF48073ADF80C300C2FE8
:105490002BD8DFE807F0072A2A2A102A2A2A192AF5
:1054A0002A2A22002046694602F04EFF20460821A3
:1054B00003F0BCF819E02046694602F09DFF204643
:1054C000082103F0BCF810E02046694602F0E0FF36
:1054D0002046082103F0BDF807E02046694603F0A6
:1054E00021F82046082103F0BDF8134B03EB061604
:1054F000B37B1BB12046012103F07DF8204601213A
:1055000003F06CF80C2F10D8DFE807F0070F0F0F2F
:10551000090F0F0F0B0F0F0F0D00343404E0383458
:1055200002E03C3400E040346C60284605B0BDE841
:10553000F08500BFC403002010C60008037942783C
:105540002DE9F041002B14BF02230023044602B1D1
:105550000133304A002552F82370785DFF2856D079
:1055600010F0300F00F0F00303D02278002A08BFBB
:105570000023A27800F00F002AB1A0F10802D2B2F5
:10558000012A98BF8023E27822B1021FD2B2032AF7
:1055900098BF802313F0100F07D000221E49FFF799
:1055A00041FE1E4B08221A702EE013F0200F08D087
:1055B0001A4E1B493278FFF735FE337801333370CA
:1055C00022E013F0400F0BD0E3881649164E91FBF2
:1055D000F3F189B296F80080FFF720FF134B0DE03E
:1055E00013F0800F10D023890E49114E91FBF3F177
:1055F00089B296F80080FFF711FF0E4B43F82800A0
:1056000008F1010886F8008001350E2DA5D1002093
:10561000BDE8F081F0C600086D500008DC040020F1
:10562000AD51000840420F00DD040020E0040020DE
:10563000DF04002014050020044B1A6801321A60B0
:10564000034B1A68034B1A60704700BF34050020F3
:10565000041000E0FC06002072B6084B084A1868E7
:10566000084B1B68126862B60749C31A09684FF4F1
:105670007A70B3FBF1F300FB02307047041000E0D6
:1056800034050020FC060020F806002070B5002339
:1056900004460E46054D5D19EA681033002AF9D11B
:1056A000FFF7DAFF28606E60EC6070BDF80500203F
:1056B00070B5002304460E46054D5D19AA680C33EB
:1056C000002AF9D1FFF7C8FF28606E60AC6070BD9A
:1056D000380500202DE9F04100250C276F43194EB5
:1056E000BC19A36853B1FFF7B7FFBA596368821AB0
:1056F0009A4203D9A36898470023A360124C6F0015
:10570000013704EBC708D8F80430ABB1FFF7A4FFAA
:105710002E01331932595B68821A9A420CD9D8F893
:105720000430984756F80480FFF796FF30513359FC
:10573000C8EB030344F837300135102DCDD1BDE857
:10574000F08100BF38050020F8050020014B1868E3
:10575000704700BF3405002038B50546FFF77CFFD1
:105760000446FFF779FF001BA842FAD338BD10B5F5
:10577000044604E04FF47A70FFF7EEFF013C002C82
:10578000F8D110BD10B1034A034B1A60034A044B11
:10579000DA607047EFBEADDEF04F00200400FA057E
:1057A00000ED00E070B500246300084D013355F8AA
:1057B000331007480134FEF714FA0F2CF4D1D5F852
:1057C000F8100448BDE87040FEF70BBAF805002059
:1057D00020C7000825C7000870B5564B8AB00DF1E8
:1057E000140C0FCB8CE80F001D20012102F024FDCA
:1057F0004FF40060012102F01FFD0120014602F07C
:1058000029FD0220012102F025FD0420012102F0E2
:1058100021FD4FF40070012102F00EFD4FF4804095
:10582000012102F009FD4FF48000012102F012FD78
:105830000120014609AC02F0F1FC0220012102F036
:10584000EDFC002502F022FD4FF0FF333A482146DF
:10585000ADF824308DF8275002F0FCFA3748214685
:1058600002F0F8FA3648214602F0F4FA35480121F0
:1058700002F04CFBBDF818300326ADF824309DF83B
:105880001A30059821468DF827308DF8266002F0F1
:10589000E1FABDF820300798ADF824309DF82230A9
:1058A00021468DF826608DF8273002F0D3FA264B7A
:1058B0000C2202FB053300249C60244B03EB0513F0
:1058C00001350833102D5C60F1D1684602F056FCBA
:1058D000009A1F4B6FF00F01B2FBF3F21D4B4FF418
:1058E000A0601A601C4BDA6842F08072DA601B4BD1
:1058F0001A6842F001021A60194B1A684FF47A7361
:10590000B2FBF3F222F07F42164B013A5A60164A7C
:1059100082F8231007229C601A60084B01321A613A
:105920001D6102F01FF82046FDF772FEFDF72CFE08
:105930000AB070BD10C7000800080140000C01400B
:10594000001001400002300038050020F80500205A
:1059500040420F00F8060020F0ED00E0001000E0EB
:105960009000002010E000E000ED00E0044B18681B
:10597000044B1B68984214BF00200120704700BFF1
:10598000080700200C070020064B07481A68C2F5DC
:105990008071013A405C1A6012B94FF480721A604B
:1059A000704700BF00070020540A002010B50748C8
:1059B00040F2255102F0F6FF012806D1044B1C6885
:1059C0001CB1024802F0EAFFA04710BD00440040AD
:1059D000040700200B4A0C4813680C49C018C86023
:1059E0000B480068984203D9C31A4B60106004E06A
:1059F000C3F580734B60002313600448012102F05B
:105A000023B900BF08070020540B002044000240C7
:105A10000C070020074B08491A688854013202F02D
:105A2000FF021A60054B1B6813F0010F01D1FFF74D
:105A3000D1BF70470C070020540B002044000240E7
:105A400038B50546002401E0FFF7E4FF285D013486
:105A50000028F9D138BD000008B5044802F009F962
:105A6000034B1B68C01A18BF012008BD5800024034
:105A7000000700202DE9F04593B011AC4FF40073FE
:105A80000646ADF844300227182321463F488DF8DA
:105A900047308DF8467002F0DDF94FF480632146FF
:105AA000ADF844303948482301258DF8473002F0DD
:105AB000D1F90E2310A800248DF840308DF8415004
:105AC0008DF842508DF8435001F056FF4FF00C0313
:105AD0000CA92F48ADF83A300C96ADF83440ADF82B
