:1000000019C033C032C031C030C02FC02EC02DC087
:100010002CC02BC02AC029C028C027C026C025C09C
:1000200024C023C0C7C121C020C01FC01EC01DC026
:100030001CC01BC011241FBECFEFD2E0DEBFCDBF5E
:1000400011E0A0E0B1E0ECE7F5E002C005900D9210
:10005000A034B107D9F712E0A0E4B1E001C01D92CD
:10006000A734B107E1F75DD087C2CACFE0910301A1
:10007000F0910401808190910001892B808382E0BE
:1000800086BB109285001092840081EE92E09093DE
:10009000890080938800B19BFECFE0910101F0912F
:1000A0000201909100014091400120E030E0808108
:1000B000892309F441E02F5F3F4F83EC2035380757
:1000C000B1F740934001E0910301F0910401808178
:1000D000909598239083442351F0E0912801F0916A
:1000E0002901808190912301892B80830895A0E0CC
:1000F000B1E01596ED91FC91169780819C91892B2A
:100100008083179681E0AA32B80799F708958FEF98
:100110009FEF909389008093880081E08093810015
:100120000895A4E2B0E0E6E9F0E00AC28FEF9FEFA5
:10013000909389008093880081E08093810096DF0E
:100140001DD1FE01739682E1DF011D928A95E9F7C8
:10015000789400E010E03E010894611C711C43E1BA
:10016000842E912C8C0E9D1E32E0E32E25E8422E2B
:100170002BE0522E96EF292E98E7392E05C001E08C
:1001800010E002C000E010E0E0914502F09146026C
:10019000228133818081918128173907C9F3CF01EA
:1001A00068D10130110569F00130110538F00230D5
:1001B000110569F00330110529F714C08F3F21F7AD
:1001C000DECF8F3FF9F602E010E0FF24DDCFF30130
:1001D000EF0DF11D8083F394B1E1BF15A8F603E0A4
:1001E00010E0D2CF8E3E71F680914001882309F451
:1001F00089C0F3019401D401D080CC24818190E0A6
:100200008C299D2985589B408D939D933296E815A6
:10021000F90591F7A0E0B1E0FF24E0912601F0910B
:100220002701808190912301892B8083E4E0EF15E1
:1002300040F01396ED91FC91149780819C91892B4D
:100240008083E6BA10928500109284005092890053
:1002500040928800B19BFECFE0912601F0912701EA
:10026000908180912301809589238083E6BA109242
:10027000850010928400F90180819181909389001A
:1002800080938800B19BFECFF4E0FF1548F01396F1
:10029000ED91FC91149790818C91809589238083B6
:1002A000F39417962E5F3F4F88E0F81609F0B5CF0C
:1002B000E0912601F0912701808190912301892B03
:1002C0008083E6BA109285001092840050928900D3
:1002D00040928800B19BFECFE0912601F09127016A
:1002E000908180912301809589238083E6BA1092C2
:1002F0008500109284003092890020928800B19B82
:10030000FECF40CFF3019401D401B080AA248181B3
:1003100090E08A299B298D939D933296E815F905E3
:10032000A1F7A0E0B1E01396ED91FC9114978081C4
:100330009C91892B8083E6BA1092850010928400EC
:10034000F901808191819093890080938800B19B0D
:10035000FECF1396ED91FC91149790818C9180952E
:100360008923808317962E5F3F4FF1E0AF33BF079D
:10037000D1F600E010E089E0F82E06CF81E491E0AC
:10038000909346028093450280E890E0909342016A
:1003900080934101909344018093430186E08093D0
:1003A000C2001092C50083E08093C40080E980936E
:1003B000C10008951F920F920FB60F9211242F9330
:1003C0003F938F939F93AF93BF93EF93FF9380914E
:1003D000C600A0914502B091460212962D913C9123
:1003E0001397FD01E20FF31F84832F5F3F4F139696
:1003F0003C932E9312970AC012968D919C9113975D
:100400008050914013969C938E93129712968D91E3
:100410009C9113978F3F910509F070F7FF91EF9131
:10042000BF91AF919F918F913F912F910F900FBEF0
:100430000F901F901895DC0112968D919C91139747
:10044000FD01E80FF91F6483019606C012968D9195
:100450009C9113978050914013969C938E93129782
:1004600012968D919C9113978F3F910509F070F72B
:100470000895DC018D919C911197FD01E80FF91F02
:100480002481019605C08D919C91119780509140D7
:1004900011969C938E938D919C9111978F3F91050E
:1004A00009F088F7822F0895FC0180819181860FE1
:1004B000971FE80FF11D84810895FC0180819181CF
:1004C000860F971F04C08081918180509140918355
:1004D0008083808191818F3F910509F0A0F7089575
:1004E000DC012D913C9111970CC03070FD01E20FA1
:1004F000F31F8481861719F421E030E00FC02F5FCD
:100500003F4F12968D919C9113972817390721F030
:1005100081E02130380748F320E030E0C901089538
:10052000FC0122813381808191812817390710F4E1
:1005300020503F4F80819181281B390BC9010895BC
:100540002F923F924F925F926F927F928F929F92E3
:10055000AF92BF92CF92DF92EF92FF920F931F93D1
:10056000CF93DF93CDB7DEB7CA1BDB0B0FB6F89482
:0C057000DEBF0FBECDBF0994F894FFCF92
:10057C000226002800270001260028002700102949
:10058C00002B002A000829002B002A000429002B2C
:10059C00002A00042600280027000826002800272F
:1005AC000010260028002700202600280027000025
:00000001FF
