:020000040800F2
:1000000000500020C5130008691400086914000896
:100010006914000869140008691400080000000051
:10002000000000000000000000000000691400084B
:10003000691400080000000069140008B1530008AA
:10004000691400086914000869140008691400089C
:10005000691400086914000869140008691400088C
:10006000691400086914000869140008691400087C
:1000700069140008691400081D5900086914000873
:10008000691400086914000869140008691400085C
:10009000691400086914000869140008691400084C
:1000A000691400086914000869140008691400083C
:1000B00009530008FD52000869140008C94D0008E2
:1000C000894A0008C54D0008854A000869140008DF
:1000D000691400086914000869140008691400080C
:1000E000F178000869140008691400080000000095
:1000F0000000000000000000000000000000000000
:0C01000000000000000000005FF808F1A3
:1001100040F2AC13C2F200031A780AB90120187039
:10012000704700BF40F2AC10C2F2000008B503688F
:100130002BB140F20003C0F2000303B1984708BDA1
:1001400081F0004102E000BF83F0004330B54FEA88
:1001500041044FEA430594EA050F08BF90EA020FF5
:100160001FBF54EA000C55EA020C7FEA645C7FEA88
:10017000655C00F0E2804FEA5454D4EB5555B8BFAB
:100180006D420CDD2C4480EA020281EA030382EA1C
:10019000000083EA010180EA020281EA0303362DAE
:1001A00088BF30BD11F0004F4FEA01314FF4801C81
:1001B0004CEA113102D0404261EB410113F0004F93
:1001C0004FEA03334CEA133302D0524263EB43034A
:1001D00094EA050F00F0A780A4F10104D5F1200EE8
:1001E0000DDB02FA0EFC22FA05F2801841F1000143
:1001F00003FA0EF2801843FA05F359410EE0A5F117
:1002000020050EF1200E012A03FA0EFC28BF4CF047
:10021000020C43FA05F3C01851EBE37101F00045FD
:1002200007D54FF0000EDCF1000C7EEB00006EEB0A
:100230000101B1F5801F1BD3B1F5001F0CD3490894
:100240005FEA30004FEA3C0C04F101044FEA4452EB
:1002500012F5800F80F09A80BCF1004F08BF5FEA72
:10026000500C50F1000041EB045141EA050130BD52
:100270005FEA4C0C404141EB010111F4801FA4F1F5
:100280000104E9D191F0000F04BF01460020B1FA4A
:1002900081F308BF2033A3F10B03B3F120020CDA82
:1002A0000C3208DD02F1140CC2F10C0201FA0CF060
:1002B00021FA02F10CE002F11402D8BFC2F1200CC5
:1002C00001FA02F120FA0CFCDCBF41EA0C0190407B
:1002D000E41AA2BF01EB0451294330BD6FEA0404C4
:1002E0001F3C1CDA0C340EDC04F11404C4F12002AF
:1002F00020FA04F001FA02F340EA030021FA04F3C1
:1003000045EA030130BDC4F10C04C4F1200220FA17
:1003100002F001FA04F340EA0300294630BD21FA55
:1003200004F0294630BD94F0000F83F4801306BF1B
:1003300081F480110134013D4EE77FEA645C18BF0F
:100340007FEA655C29D094EA050F08BF90EA020FA6
:1003500005D054EA000C04BF1946104630BD91EA9E
:10036000030F1EBF0021002030BD5FEA545C05D1A1
:100370004000494128BF41F0004130BD14F58004E0
:100380003CBF01F5801130BD01F0004545F0FE4154
:1003900041F470014FF0000030BD7FEA645C1ABF89
:1003A000194610467FEA655C1CBF0B46024650EAC0
:1003B000013406BF52EA033591EA030F41F40021EC
:1003C00030BD00BF90F0000F04BF0021704730B572
:1003D0004FF4806404F132044FF000054FF0000147
:1003E00050E700BF90F0000F04BF0021704730B508
:1003F0004FF4806404F1320410F0004548BF4042DD
:100400004FF000013EE700BF42004FEAE2014FEA31
:1004100031014FEA02701FBF12F07F4393F07F4F0C
:1004200081F06051704792F0000F14BF93F07F4F3E
:10043000704730B54FF4607401F0004521F0004181
:1004400020E700BF50EA010208BF704730B54FF007
:1004500000050AE050EA010208BF704730B511F00C
:10046000004502D5404261EB41014FF4806404F144
:1004700032045FEA915C3FF4DCAE4FF003025FEAC6
:10048000DC0C18BF03325FEADC0C18BF033202EB4E
:10049000DC02C2F1200300FA03FC20FA02F001FAA8
:1004A00003FE40EA0E0021FA02F11444C1E600BF47
:1004B00070B54FF0FF0C4CF4E06C1CEA11541DBFFA
:1004C0001CEA135594EA0C0F95EA0C0F00F0DEF8C5
:1004D0002C4481EA030621EA4C5123EA4C5350EAAA
:1004E000013518BF52EA033541F4801143F48013FB
:1004F00038D0A0FB02CE4FF00005E1FB02E506F08C
:100500000042E0FB03E54FF00006E1FB03569CF0E0
:10051000000F18BF4EF0010EA4F1FF04B6F5007FE6
:1005200064F5407404D25FEA4E0E6D4146EB060658
:1005300042EAC62141EA55514FEAC52040EA5E50E1
:100540004FEACE2EB4F1FD0C88BFBCF5E06F1ED88B
:10055000BEF1004F08BF5FEA500E50F1000041EBC2
:10056000045170BD06F0004646EA010140EA02006F
:1005700081EA0301B4EB5C04C2BFD4EB0C0541EA91
:10058000045170BD41F480114FF0000E013C00F3A6
:10059000AB8014F1360FDEBF002001F0004170BDCA
:1005A000C4F10004203C35DA0C341BDC04F11404E3
:1005B000C4F1200500FA05F320FA04F001FA05F26F
:1005C00040EA020001F0004221F0004110EBD3703C
:1005D00021FA04F642EB06015EEA430E08BF20EA68
:1005E000D37070BDC4F10C04C4F1200500FA04F30B
:1005F00020FA05F001FA04F240EA020001F000419D
:1006000010EBD37041F100015EEA430E08BF20EA0F
:10061000D37070BDC4F1200500FA05F24EEA020E57
:1006200020FA04F301FA05F243EA020321FA04F086
:1006300001F0004121FA04F220EA020000EBD3703D
:100640005EEA430E08BF20EAD37070BD94F0000F3D
:100650000FD101F00046400041EB010111F4801F71
:1006600008BF013CF7D041EA060195F0000F18BF22
:10067000704703F00046520043EB030313F4801F5E
:1006800008BF013DF7D043EA0603704794EA0C0F18
:100690000CEA135518BF95EA0C0F0CD050EA41062E
:1006A00018BF52EA4306D1D181EA030101F00041AB
:1006B0004FF0000070BD50EA410606BF10461946D3
:1006C00052EA430619D094EA0C0F02D150EA0136DF
:1006D00013D195EA0C0F05D152EA03361CBF104620
:1006E00019460AD181EA030101F0004141F0FE41BF
:1006F00041F470014FF0000070BD41F0FE4141F443
:10070000780170BD70B54FF0FF0C4CF4E06C1CEA42
:1007100011541DBF1CEA135594EA0C0F95EA0C0FF7
:1007200000F0A7F8A4EB050481EA030E52EA0335B2
:100730004FEA013100F088804FEA03334FF08055D3
:1007400045EA131343EA12634FEA022245EA111500
:1007500045EA10654FEA00260EF000419D4208BFB1
:10076000964244F1FD0404F5407402D25B084FEA5E
:100770003202B61A65EB03055B084FEA32024FF40A
:1007800080104FF4002CB6EB020E75EB030E22BF67
:10079000B61A754640EA0C005B084FEA3202B6EB27
:1007A000020E75EB030E22BFB61A754640EA5C00D6
:1007B0005B084FEA3202B6EB020E75EB030E22BF66
:1007C000B61A754640EA9C005B084FEA3202B6EB67
:1007D000020E75EB030E22BFB61A754640EADC0026
:1007E00055EA060E18D04FEA051545EA16754FEA88
:1007F00006164FEAC30343EA52734FEAC2025FEAA6
:100800001C1CC0D111F4801F0BD141EA00014FF034
:1008100000004FF0004CB6E711F4801F04BF014305
:100820000020B4F1FD0C88BFBCF5E06F3FF6AFAE21
:10083000B5EB030C04BFB6EB020C5FEA500C50F1B1
:10084000000041EB045170BD0EF0004E4EEA113134
:1008500014EB5C04C2BFD4EB0C0541EA045170BD3B
:1008600041F480114FF0000E013C90E645EA060E7F
:100870008DE60CEA135594EA0C0F08BF95EA0C0FAD
:100880003FF43BAF94EA0C0F0AD150EA01347FF4F5
:1008900034AF95EA0C0F7FF425AF104619462CE7CC
:1008A00095EA0C0F06D152EA03353FF4FDAE10462F
:1008B000194622E750EA410618BF52EA43067FF480
:1008C000C5AE50EA41047FF40DAF52EA43057FF410
:1008D000EBAE12E74FF0FF3C06E000BF4FF0010C1B
:1008E00002E000BF4FF0010C4DF804CD4FEA410C7F
:1008F0007FEA6C5C4FEA430C18BF7FEA6C5C1BD04C
:1009000001B050EA410C0CBF52EA430C91EA030FCC
:1009100002BF90EA020F0020704710F1000F91EA29
:10092000030F58BF994208BF90422CBFD8176FEAF7
:10093000E37040F0010070474FEA410C7FEA6C5CC5
:1009400002D150EA013C07D14FEA430C7FEA6C5CCC
:10095000D6D152EA033CD3D05DF8040B704700BFF8
:100960008446104662468C461946634600E000BF46
:1009700001B5FFF7B7FF002848BF10F1000F01BD18
:100980004DF808EDFFF7F4FF0CBF012000205DF8E3
:1009900008FB00BF4DF808EDFFF7EAFF34BF012068
:1009A00000205DF808FB00BF4DF808EDFFF7E0FF01
:1009B00094BF012000205DF808FB00BF4DF808ED52
:1009C000FFF7CEFF94BF012000205DF808FB00BFB9
:1009D0004DF808EDFFF7C4FF34BF012000205DF89B
:1009E00008FB00BF4FEA410212F5001215D211D5E3
:1009F0006FF47873B3EB625212D94FEAC12343F01C
:100A0000004343EA505311F0004F23FA02F018BF9D
:100A1000404270474FF00000704750EA013005D166
:100A200011F0004008BF6FF0004070474FF0000029
:100A3000704700BF4A0011D212F5001211D20DD535
:100A40006FF47873B3EB62520ED44FEAC12343F0D4
:100A5000004343EA505323FA02F070474FF000007E
:100A6000704750EA013002D14FF0FF3070474FF02D
:100A7000000070474FEA4102B2F1E04324BFB3F5F2
:100A8000001CDCF1FE5C0DD901F0004C4FEAC00205
:100A90004CEA5070B2F1004F40EB830008BF20F0E9
:100AA0000100704711F0804F21D113F13872BCBFA3
:100AB00001F00040704741F480114FEA5252C2F1F8
:100AC0001802C2F1200C10FA0CF320FA02F018BF41
:100AD00040F001004FEAC1234FEAD32303FA0CFC94
:100AE00040EA0C0023FA02F34FEA4303CCE77FEA23
:100AF000625307D150EA01331EBF4FF0FE4040F46D
:100B00004000704701F0004040F0FE4040F400001B
:100B1000704700BF80F0004002E000BF81F000415C
:100B200042001FBF5FEA410392EA030F7FEA226C93
:100B30007FEA236C6AD04FEA1262D2EB1363C1BF23
:100B4000D218414048404140B8BF5B42192B88BF92
:100B5000704710F0004F40F4000020F07F4018BFB5
:100B6000404211F0004F41F4000121F07F4118BFD5
:100B7000494292EA030F3FD0A2F1010241FA03FC7D
:100B800010EB0C00C3F1200301FA03F100F0004365
:100B900002D5494260EB4000B0F5000F13D3B0F12D
:100BA000807F06D340084FEA310102F10102FE2A9C
:100BB00051D2B1F1004F40EBC25008BF20F001000C
:100BC00040EA03007047490040EB000010F4000FBA
:100BD000A2F10102EDD1B0FA80FCACF1080CB2EB4D
:100BE0000C0200FA0CF0AABF00EBC25052421843AC
:100BF000BCBFD0401843704792F0000F81F4000151
:100C000006BF80F400000132013BB5E74FEA410323
:100C10007FEA226C18BF7FEA236C21D092EA030F8F
:100C200004D092F0000F08BF0846704790EA010F09
:100C30001CBF0020704712F07F4F04D1400028BF36
:100C400040F00040704712F100723CBF00F5000018
:100C5000704700F0004343F0FE4040F4000070474E
:100C60007FEA226216BF08467FEA236301464202FA
:100C700006BF5FEA412390EA010F40F4800070470D
:100C80004FF0000304E000BF10F0004348BF4042B3
:100C90005FEA000C08BF704743F0964301464FF0EF
:100CA00000001CE050EA010208BF70474FF000034B
:100CB0000AE000BF50EA010208BF704711F000438C
:100CC00002D5404261EB41015FEA010C02BF84465C
:100CD0000146002043F0B64308BFA3F18053A3F5BB
:100CE0000003BCFA8CF2083AA3EBC25310DB01FA02
:100CF00002FC634400FA02FCC2F12002BCF1004F86
:100D000020FA02F243EB020008BF20F00100704716
:100D100002F1200201FA02FCC2F1200250EA4C006A
:100D200021FA02F243EB020008BF20EADC707047B0
:100D30004FF0FF0C1CEAD0521EBF1CEAD15392EABE
:100D40000C0F93EA0C0F6FD01A4480EA010C40029A
:100D500018BF5FEA41211ED04FF0006343EA5010F4
:100D600043EA5111A0FB01310CF00040B1F5000F36
:100D70003EBF490041EAD3715B0040EA010062F1E5
:100D80007F02FD2A1DD8B3F1004F40EBC25008BFCF
:100D900020F00100704790F0000F0CF0004C08BFED
:100DA00049024CEA502040EA51207F3AC2BFD2F1BA
:100DB000FF0340EAC250704740F400004FF00003C8
:100DC000013A5DDC12F1190FDCBF00F00040704702
:100DD000C2F10002410021FA02F1C2F1200200FA40
:100DE00002FC5FEA310040F1000053EA4C0308BF07
:100DF00020EADC70704792F0000F00F0004C02BF58
:100E0000400010F4000F013AF9D040EA0C0093F0D2
:100E1000000F01F0004C02BF490011F4000F013B2C
:100E2000F9D041EA0C018FE70CEAD15392EA0C0F9A
:100E300018BF93EA0C0F0AD030F0004C18BF31F005
:100E4000004CD8D180EA010000F00040704790F0DB
:100E5000000F17BF90F0004F084691F0000F91F07F
:100E6000004F14D092EA0C0F01D142020FD193EA45
:100E70000C0F03D14B0218BF084608D180EA0100CD
:100E800000F0004040F0FE4040F40000704740F0A9
:100E9000FE4040F4400070474FF0FF0C1CEAD05277
:100EA0001EBF1CEAD15392EA0C0F93EA0C0F69D0D3
:100EB000A2EB030280EA010C49024FEA402037D03E
:100EC0004FF0805343EA111143EA10130CF0004035
:100ED0008B4238BF5B0042F17D024FF4000C8B4225
:100EE00024BF5B1A40EA0C00B3EB510F24BFA3EB05
:100EF000510340EA5C00B3EB910F24BFA3EB9103D5
:100F000040EA9C00B3EBD10F24BFA3EBD10340EA2E
:100F1000DC001B0118BF5FEA1C1CE0D1FD2A3FF674
:100F200050AF8B4240EBC25008BF20F00100704729
:100F30000CF0004C4CEA50207F32C2BFD2F1FF03CC
:100F400040EAC250704740F400004FF00003013AFD
:100F500037E792F0000F00F0004C02BF400010F4A1
:100F6000000F013AF9D040EA0C0093F0000F01F0B5
:100F7000004C02BF490011F4000F013BF9D041EAD7
:100F80000C0195E70CEAD15392EA0C0F08D142020A
:100F90007FF47DAF93EA0C0F7FF470AF084676E7DD
:100FA00093EA0C0F04D14B023FF44CAF08466EE7B6
:100FB00030F0004C18BF31F0004CCAD130F0004284
:100FC0007FF45CAF31F000437FF43CAF5FE700BFDC
:100FD0004FF0FF3C06E000BF4FF0010C02E000BF05
:100FE0004FF0010C4DF804CD4FEA40024FEA4103A7
:100FF0007FEA226C18BF7FEA236C11D001B052EA5D
:10100000530C18BF90EA010F58BFB2EB030088BF22
:10101000C81738BF6FEAE17018BF40F00100704791
:101020007FEA226C02D15FEA402C05D17FEA236C73
:10103000E4D15FEA412CE1D05DF8040B704700BFBA
:10104000844608466146FFE70FB5FFF7C9FF002851
:1010500048BF10F1000F0FBD4DF808EDFFF7F4FF8A
:101060000CBF012000205DF808FB00BF4DF808ED23
:10107000FFF7EAFF34BF012000205DF808FB00BF46
:101080004DF808EDFFF7E0FF94BF012000205DF868
:1010900008FB00BF4DF808EDFFF7D2FF94BF012019
:1010A00000205DF808FB00BF4DF808EDFFF7C8FF12
:1010B00034BF012000205DF808FB00BF4FEA40026A
:1010C000B2F1FE4F0FD34FF09E03B3EB12620DD976
:1010D0004FEA002343F0004310F0004F23FA02F0E0
:1010E00018BF404270474FF00000704712F1610F87
:1010F00001D1420205D110F0004008BF6FF000405E
:1011000070474FF00000704742000ED2B2F1FE4F20
:101110000BD34FF09E03B3EB126209D44FEA0023C6
:1011200043F0004323FA02F070474FF0000070478D
:1011300012F1610F01D1420202D14FF0FF3070472E
:101140004FF00000704700BF4A1E08BF7047C0F054
:101150002481884240F21681114200F01781B0FAD2
:1011600080F3B1FA81F2A2EB0303C3F11F0304A2DF
:1011700002EB03134FF000029F4600BFAFF3008065
:10118000B0EBC17F00BF42EB020228BFA0EBC170F1
:10119000B0EB817F00BF42EB020228BFA0EB817061
:1011A000B0EB417F00BF42EB020228BFA0EB4170D1
:1011B000B0EB017F00BF42EB020228BFA0EB017041
:1011C000B0EBC16F00BF42EB020228BFA0EBC160D1
:1011D000B0EB816F00BF42EB020228BFA0EB816041
:1011E000B0EB416F00BF42EB020228BFA0EB4160B1
:1011F000B0EB016F00BF42EB020228BFA0EB016021
:10120000B0EBC15F00BF42EB020228BFA0EBC150B0
:10121000B0EB815F00BF42EB020228BFA0EB815020
:10122000B0EB415F00BF42EB020228BFA0EB415090
:10123000B0EB015F00BF42EB020228BFA0EB015000
:10124000B0EBC14F00BF42EB020228BFA0EBC14090
:10125000B0EB814F00BF42EB020228BFA0EB814000
:10126000B0EB414F00BF42EB020228BFA0EB414070
:10127000B0EB014F00BF42EB020228BFA0EB0140E0
:10128000B0EBC13F00BF42EB020228BFA0EBC13070
:10129000B0EB813F00BF42EB020228BFA0EB8130E0
:1012A000B0EB413F00BF42EB020228BFA0EB413050
:1012B000B0EB013F00BF42EB020228BFA0EB0130C0
:1012C000B0EBC12F00BF42EB020228BFA0EBC12050
:1012D000B0EB812F00BF42EB020228BFA0EB8120C0
:1012E000B0EB412F00BF42EB020228BFA0EB412030
:1012F000B0EB012F00BF42EB020228BFA0EB0120A0
:10130000B0EBC11F00BF42EB020228BFA0EBC1102F
:10131000B0EB811F00BF42EB020228BFA0EB81109F
:10132000B0EB411F00BF42EB020228BFA0EB41100F
:10133000B0EB011F00BF42EB020228BFA0EB01107F
:10134000B0EBC10F00BF42EB020228BFA0EBC1000F
:10135000B0EB810F00BF42EB020228BFA0EB81007F
:10136000B0EB410F00BF42EB020228BFA0EB4100EF
:10137000B0EB010F00BF42EB020228BFA0EB01005F
:10138000104670470CBF012000207047B1FA81F26F
:10139000C2F11F0220FA02F0704708B14FF0FF308F
:1013A00000F00EB80029F8D02DE90340FFF7CCFE7D
:1013B000BDE8064002FB00F3A1EB0301704700BF4C
:1013C000704700BF1A481B49026800608A4219D062
:1013D000002103E0184B5B58435004311748184B69
:1013E00042189A42F6D3174A02E0002342F8043B1F
:1013F000154B9A42F9D306F08DFC0AF061F800F023
:1014000073F8FEE7114E124830601248016821F06F
:1014100070610160410201600F4C182020600F498B
:101420000F4808600F48D0F800D04068004700001F
:10143000F04F0020EFBEADDE14D000080000002009
:10144000AC010020AC01002008120020181002405E
:101450000900000004000140140C0140000C014090
:101460004434434400F0FF1FFEE700000F4B93F8A5
:1014700048312BB90E4BDA6882F01002DA6009E0CD
:101480000C4B1B791BB10A4B10225A6102E0084B2E
:1014900010221A61074B5B781BB1054B08225A6179
:1014A0007047034B08221A61704700BF7406002082
:1014B000000C01403C06002010B503F089FF084BEA
:1014C000084A19681860411A116000F0A1FE00F086
:1014D000AFF800F00FFEBDE8104000F0C1BD00BF46
:1014E000B00100207005002008B504F031F805F0C7
:1014F00057FE00F013FE1D48002103F083FF1C4837
:10150000002103F07FFF1B4840F6055103F07AFFEE
:1015100019484FF47A6103F075FF184844F62061CA
:1015200003F070FF164B93F8843123B1154843F252
:10153000154103F067FF144849F6404103F062FF8C
:10154000124844F6206103F05DFF1148114903F091
:1015500059FF0B4B93F8943123B10F4849F64041A2
:1015600003F050FF03F072FFFCE700BF6572000854
:10157000C572000899590008B9140008612E0008C6
:10158000740600202573000851590008F13A00083C
:101590006D140008A086010085730008214A92F8A6
:1015A0003230191FC9B2012912D9012B10D0022BD8
:1015B0000ED0032B0CD0092B0AD0112B08D0122BE4
:1015C00004D192F8E820042A02D903E0152B01D1B6
:1015D000012100E00021144A013B1170142B1FD897
:1015E000DFE803F00F11110D0B13131E11131E1E54
:1015F0001E1E1E1E11151E1E1B0000220AE00222C6
:1016000008E0032206E0042204E0062202E0054B83
:1016100093F8E820054B1A707047044B01221A70AA
:10162000704700BF74060020B4010020740500203C
:101630002DE9F74F9B4B9C4C93F83230013B142B18
:1016400000F2AB84DFE813F0B1003C0184012D000F
:10165000DA030A027A02A904C501E502A904A90471
:10166000A904A904A904A90453031500A904A90401
:1016700041048E4B8E4AD3F80C908E4B8949D2F898
:101680000CA0D2F80080576892681B7891F8C86067
:10169000019201F1EC040C22F831834D02FB03139B
:1016A0009DE3824B824ED868F168FFF739FA77687C
:1016B000814600213846FFF73BFB7A4D804695F97D
:1016C000C800FFF7E1FAB168FFF732FB0021D6F856
:1016D00000A00646FFF72CFB514683464846FFF71D
:1016E0001FFA4146FFF71CFA5946FFF719FAFFF7B0
:1016F0000BFD514620804846FFF710FA4146FFF7A0
:101700000FFA5946FFF70CFAFFF7FEFC6080B5F8B8
:10171000BE00FFF7B9FA3146FFF702FA3946FFF784
:10172000FFF90446B5F8BC00FFF7AEFA8046414623
:101730002046FFF79BFC08B140460CE0B5F8C0001E
:10174000FFF7A2FA054629462046FFF7ADFC08B18F
:10175000284600E02046FFF7D7FC524D564B80B29A
:101760001880B5F8C400FFF78FFA3146FFF7D8F9B3
:101770003946FFF7D3F90446B5F8C200FFF784FAFB
:10178000064631462046FFF771FC002840F088836A
:10179000B5F8C600FFF778FA054629462046FFF758
:1017A00083FC002800F0888388E3404B404ED868D3
:1017B000F168FFF7B5F9D6F804A007464FF04041AD
:1017C0005046FFF7B5FA3D49FFF766FB354D8146B8
:1017D00095F9C800FFF758FAB168FFF7A9FA002198
:1017E0008346FFF7A5FAD6F80080064641463846FC
:1017F000FFF796F94946FFF793F93146FFF790F95D
:10180000FFF782FC414620803846FFF787F94946BA
:10181000FFF786F93146FFF783F9FFF775FC0021E2
:1018200060804046FFF784FA01463846FFF778F9B2
:101830004FF0814107465046FFF77AFA1F49FFF7FC
:101840002BFB01463846FFF76BF93146FFF768F985
:10185000FFF75AFCA080B5F8CC00FFF715FA5946FF
:10186000FFF75EF90446B5F8CA00FFF70DFA064621
:1018700031462046FFF7FAFB08B130460CE0B5F8D8
:10188000CE00FFF701FA054629462046FFF70CFC7B
:1018900008B1284600E02046FFF736FC064B80B230
:1018A00018807AE374060020000000206C000020FD
:1018B0002006002074050020100000200000404099
:1018C0009A4D9B4BE968D868FFF72AF92E680746BE
:1018D00000213046FFF72CFA01463846FFF720F981
:1018E000944B814693F9C800FFF7CEF9A968FFF73A
:1018F0001FFAD5F80480054641464846FFF70EF921
:101900002946FFF70BF9FFF7FFFB00212080404637
:10191000FFF70EFA314682463846FFF7FFF8514688
:10192000FFF7FEF82946FFF7FBF8FFF7EDFB41460E
:1019300060804846FFF7F4F82946FFF7EFF8FFF715
:10194000E3FB3146A0803846FFF7EAF851463AE01B
:10195000764D774BE968D868FFF7E2F8D5F8008054
:1019600082464146FFF7DCF8724B074693F9C80000
:10197000FFF78AF9A968FFF7DBF96E68054631467B
:101980003846FFF7CBF82946FFF7C8F8FFF7BCFB4E
:10199000414620805046FFF7C1F831468046FFF7A8
:1019A000BDF82946FFF7BCF8FFF7AEFB3146608073
:1019B0004046FFF7B5F82946FFF7B0F8FFF7A4FB5C
:1019C0003146A0803846FFF7ABF82946FFF7A8F864
:1019D000D4E1564D564BE968D868FFF7A1F8554B4E
:1019E000074693F9C800FFF74FF9A968FFF7A0F978
:1019F00000216E68D5F800800546FFF799F9414649
:101A000082463846FFF78CF83146FFF787F8514693
:101A1000FFF786F8FFF778FB414620803846FFF74E
:101A20007DF83146FFF77AF85146FFF779F8FFF76E
:101A30006BFB002160804046FFF77AF9014638468B
:101A4000FFF76EF83146FFF76BF829460646FFF7B9
:101A500065F8FFF759FBA0803046B6E7344B334DAD
:101A6000D868E968FFF75CF8D5F804A006464FF09F
:101A700040415046FFF75CF92F49FFF70DFA2F68F8
:101A8000814639463046FFF74BF84946FFF748F89C
:101A9000284B804693F9C800FFF7F6F8A968FFF7CE
:101AA00047F9054629464046FFF738F8FFF72CFB73
:101AB000394620803046FFF731F84946FFF730F8C5
:101AC00029468146FFF72AF8FFF71EFB00216080B8
:101AD0003846FFF72DF901463046FFF721F84FF061
:101AE000814106465046FFF723F91349FFF7D4F921
:101AF00001463046FFF714F829460646FFF710F86E
:101B0000FFF702FB2946A0804046FFF709F8FFF7E0
:101B1000FBFA2946E0804846FFF702F8FFF7F4FA9F
:101B2000294620813046FEF7F9FFDCE02006002040
:101B30006C0000207406002000004040AA4BAB4D12
:101B4000D868E968FEF7ECFF2F6880460021384628
:101B5000FFF7EEF801464046FEF7E2FFD5F80490A5
:101B60008246A3494846FFF7E3F84FF07851FFF764
:101B7000DFF8A04B064693F9C800FFF785F8A9687F
:101B8000FFF7D6F8314605465046FEF7C9FF29460D
:101B9000FEF7C4FFFFF7B8FA394620804046FEF74B
:101BA000BDFF31468346FEF7BBFF2946FEF7B8FF6F
:101BB000FFF7AAFA904960804846FFF7B9F84FF05E
:101BC0007851FFF7B5F8814649465846FEF7A8FF19
:101BD0002946FEF7A3FFFFF797FA4946A080504633
:101BE000FEF79EFF2946FEF79BFFFFF78DFA394669
:101BF000E0804046FEF794FF49460746FEF790FF17
:101C00002946FEF78BFFFFF77FFA314620813846E1
:101C100064E0754B754DD868E968FEF781FFD5F82B
:101C200000A0804674495046FFF782F84FF0785183
:101C3000FFF77EF801464046FEF772FF6D4B074600
:101C400093F9C800FFF720F8A968FFF771F86E68EC
:101C5000054631463846FEF761FF2946FEF75EFF2E
:101C6000FFF752FA624920805046FFF761F84FF0C3
:101C70007851FFF75DF801464046FEF751FF3146C7
:101C80008246FEF74BFF2946FEF74AFFFFF73CFA74
:101C9000002160803046FFF74BF8804641465046B1
:101CA000FEF73EFF2946FEF739FFFFF72DFA3146D2
:101CB000A0805046FEF734FF2946FEF731FFFFF7BC
:101CC00023FA3146E0803846FEF72AFF2946FEF720
:101CD00025FFFFF719FA414620813846FEF720FF1D
:101CE0002946FEF71DFFFFF70FFA608155E13F4DD2
:101CF0003D4BE968D868FEF713FF3E4B074693F962
:101D0000C800FEF7C1FFA968FFF712F800216E684E
:101D1000D5F800800546FFF70BF841468246384665
:101D2000FEF7FEFE3146FEF7F9FE5146FEF7F8FEDD
:101D3000FFF7EAF9414620803846FEF7EFFE3146CC
:101D4000FEF7ECFE5146FEF7EBFEFFF7DDF9002152
:101D500060804046FEF7ECFF01463846FEF7E0FEA5
:101D60003146FEF7DDFE29460646FEF7D9FEFFF7AF
:101D7000CBF92946A0803046FEF7D0FEFFF7C4F924
:101D8000E0800AE1514648460093FEF7C9FE54F848
:101D90000C1C83464046FEF7CBFF01465846FEF733
:101DA000BFFE54F8081C83463846FEF7C1FF0146C3
:101DB0005846FEF7B5FE834670B2FEF765FF0199FF
:101DC000FEF7B6FF54F8041CFEF7B2FF0146584672
:101DD000FEF7A6FEFFF798F9009B25F8020C0C34DD
:101DE00002359C42CED1D8E06C00002020060020B5
:101DF0000000E0C0740600200000E0408F4CB4F802
:101E0000D200FEF741FF8E4B05469969D4F8D80001
:101E1000FEF78EFF01462846FEF782FE894B1968C1
:101E2000FEF77EFE0546B4F8D000FEF72DFF06460D
:101E300031462846FFF71AF908B130460CE0B4F8ED
:101E4000D400FEF721FF044621462846FFF72CF96F
:101E500008B1204600E02846FFF756F9774C7A4B48
:101E600080B21880B4F8DE00FEF70EFF744B054612
:101E7000D969D4F8E400FEF75BFF01462846FEF777
:101E80004FFE704B5968FEF74BFE0546B4F8DC0078
:101E9000FEF7FAFE064631462846FFF7E7F808B196
:101EA00030460CE0B4F8E000FEF7EEFE04462146B2
:101EB0002846FFF7F9F808B1204600E02846FFF76A
:101EC00023F9614B80B2588067E05E4E5E4DF0684A
:101ED000FFF71AF95D4B20801B79584C73B9E08EDF
:101EE000FEF7D2FE804641467068FEF717FE414677
:101EF00007463068FEF712FE064602E0544B5F6864
:101F00001E6894F93601FEF7BFFE3946FEF710FF52
:101F1000804694F93401FEF7B7FE3146FEF708FF1C
:101F200001464046FEF7FCFDFFF7EEF8288094F9E5
:101F30003701FEF7A9FE3946FEF7FAFE074694F987
:101F40003501FEF7A1FE3146FEF7F2FE01463846A6
:101F5000FEF7E6FDFFF7D8F838493B4A6880CB8E9C
:101F60001088B1F838211818904205DBB1F83A21F1
:101F70009042B8BF024692B233490A804A882F493C
:101F8000D218B1F83C319A4205DBB1F83E319A42A1
:101F9000B8BF13469BB22C4A53802E4B2E4993F860
:101FA00000B00A88012308E031F8020F0FFA82FC22
:101FB00001336045C8BF0246DBB25B45F4D31F4B1B
:101FC000264CB3F84000D98FB3F83A8093F84270AA
:101FD0009E8E1E4BC2EB00095D781FFA89F9B4F999
:101FE00006A04FEA4B0B002323E00FFA82FC844546
:101FF00005DD194C34F803C0CC4424F803C0164C5A
:1020000034F803C08C4501D28C4602E0844528BFD9
:102010008446114CC24524F803C003DA0FB1E652DE
:1020200000E0E15225B90C4C4FF47A7C24F803C04F
:1020300002335B45D9D1BDE8FE8F00BF7406002096
:10204000741100206C000020100000203C060020CD
:1020500020060020740500200000002060060020FB
:1020600038B50B4B00241D78002D14BF0225002528
:1020700008E0084B601933F81410C0B202F0A6FE55
:102080000134E4B2044B1B78A342F2D838BD00BF40
:10209000B401002000000020740500200649074B11
:1020A00009789A1C02EB410201E023F8020C02338A
:1020B0009342FAD1FFF7D4BF74050020000000203E
:1020C00038B5054600240FE0094B0134D88FFFF7DF
:1020D000E5FFFA2003F007FA4FF47A70FFF7DEFF0E
:1020E000FA2003F000FAE4B2AC42EDD338BD00BFF1
:1020F00074060020074B10B51B7853B1064C002026
:10210000218802F063FE61880120BDE8104002F0E2
:102110005DBE10BDB401002010000020084B094A2C
:1021200003F17001D86C1060186D5060586D9060AC
:10213000986D1033D06018328B42F3D1704700BFD6
:102140007406002078050020044B03F1A80100224A
:102150001A615A6118338B42F9D170477805002013
:1021600000230361436170472DE9F04704460D46A3
:10217000D0F814901046616161689046FEF7D8FD72
:102180002049FEF7D5FD01462846FEF7D1FD21691D
:10219000FEF7C6FCD4F80CA0074620611A49504649
:1021A000FEF7C6FD064631463846FEF75FFF50B9DA
:1021B00014495046FEF7BCFD064631463846FEF748
:1021C00073FF00B93E46266121682846FEF7B0FD40
:1021D0000C4907463046FEF75FFE01463846FEF7DB
:1021E0009FFC494606462846FEF798FCA168FEF784
:1021F0009FFD4146FEF750FE01463046FEF790FC3B
:10220000BDE8F08700007A4400007AC400000000B6
:102210002DE9F84503F0DCF8834E844B0546186041
:102220003068281AFEF72CFD8149FEF781FD814BAD
:1022300004461A793560002A31D07F4D6868FEF770
:10224000E3F875A3D3E90023FEF732F9FEF712FC99
:1022500007462868FEF7D8F86FA3D3E90023774D27
:10226000FEF726F9FEF706FCA969FEF757FC02F017
:102270007DF8224601467248FFF776FF02F076F8B5
:10228000E96906463846FEF749FC02F06FF8224637
:1022900001466C48FFF768FF02F068F845E05B7A9A
:1022A000654D002B2CD0654B186A674B1968FEF7FB
:1022B00035FC064606F00AFE8246304606F038FE39
:1022C000D5F80080074651464046FEF731FD6D685F
:1022D000064639462846FEF72BFD01463046FEF7F6
:1022E0001DFC514606462846FEF722FD39460546A6
:1022F0004046FEF71DFD01462846FEF711FC14E09E
:102300002868FEF781F846A3D3E90023FEF7D0F84A
:10231000FEF7B0FB06466868FEF776F840A3D3E9FF
:102320000023FEF7C5F8FEF7A5FB424B05465B7997
:10233000CBB1464B9B78B3B1454B9B7813B945481D
:10234000FFF70EFF444B18683C4B196AFEF7E6FB9B
:1023500002F00CF8224601463E48FFF705FF02F066
:1023600005F880460FE0344B9868FEF74DF82CA333
:10237000D3E90023FEF79CF8FEF77CFB2F4B804649
:102380001A6A354B1A602B4B9B79EBB1334B1868AB
:102390002A4BD96FFEF7C2FB3149FEF77DFD22467D
:1023A00001463048FFF7E0FE2F490746FEF75EFE84
:1023B00008B12D4F05E038462C49FEF775FE00B1F7
:1023C0002A4F2B4BDF6002E0294B0022DA601B4FC3
:1023D0003046796AFEF7A2FB224601462548FFF700
:1023E000C3FE234EB96A30602846FEF797FB2246AB
:1023F00001462148FFF7B8FEF96A70604046FEF7D3
:102400008DFB224601461D48FFF7AEFEB060BDE8D9
:10241000F88500BFAFF30080FCA9F1D24D62603FA8
:102420007B14AE47E17A743FBC010020B801002064
:10243000BD3786353C0600206C000020741100205A
:10244000C0050020D805002070060020680000208C
:102450007C000020F0050020340600205C060020EF
:102460000000204108060020000048C30000484347
:10247000200600207805002090050020A8050020F7
:10248000014B01221A707047E1010020014803F05E
:1024900091B900BFA8B70008014803F08BB900BF8D
:1024A000D6B7000838B50D4803F084F900240C4D68
:1024B000285903F07FF92D19092003F065F96868A0
:1024C00003F078F9074803F075F903F01DF90028C7
:1024D000FBD00C343C2CEAD138BD00BFDBB7000880
:1024E0005CC10008D3B8000838B50D4803F062F9A4
:1024F00000240C4D285903F05DF92D19092003F033
:1025000043F9686803F056F9074803F053F903F0FC
:10251000FBF80028FBD00C34842CEAD138BD00BF76
:10252000FEB7000824B70008D3B8000810B502F0C1
:10253000C9FF4FF47A71B0FBF1F1144C144801F06B
:1025400018FA144803F036F9D4F88000FDF75CFF60
:1025500002460B46104801F00CFA94F888100F4818
:1025600001F007FA0E4803F025F90E4B0E481968E2
:1025700001F0FFF902F0C6F801460C4801F0F9F944
:102580000B48BDE8104003F015B900BF74110020DE
:1025900014B8000826B800083AB800083FB8000888
:1025A00044B800087005002051B8000860B8000861
:1025B000D3B800082DE9F041074608F0C9FFC5B2BD
:1025C00055B91F4803F0F6F81E4B93F832201E4B06
:1025D000013A53F822002AE038461C492A4608F0FE
:1025E000BFFF044670B91A4803F0E4F8164B53F8DD
:1025F0002400F0B103F0DEF80134202003F0C4F829
:10260000E4B2F3E70024104E56F8241009B911483B
:1026100010E038462A4608F0A3FF631C70B9094A47
:102620000D4882F8323003F0C5F856F8240003F064
:10263000C1F80A48BDE8F04103F0BCB8DCB2E2E7FB
:1026400071B80008740600202000002004BC0008B7
:1026500081B8000894B80008ACB80008D3B80008E6
:102660002DE9F04585B0804608F072FF074628B195
:10267000012879D198F800302A2B75D14B4C4C4861
:1026800003F098F8D4F84C01FDF7BEFE0646D4F8E6
:1026900050010F46FDF7B8FECDE90001D4F8540112
:1026A000FDF7B2FE32463B46CDE90201414801F05A
:1026B00060F9D4F85C01FDF7A7FE0646D4F8600186
:1026C0000F46FDF7A1FECDE90001D4F86401FDF746
:1026D0009BFE32463B46CDE90201374801F049F9FD
:1026E000D4F86801FDF790FE0646D4F86C010F4659
:1026F000FDF78AFECDE90001D4F87001FDF784FEF4
:102700002E4D32463B46CDE902012D4801F031F90C
:10271000E86BFDF779FE0646286C0F46FDF774FE60
:10272000CDE90001686CFDF76FFE32463B46CDE90E
:102730000201244801F01DF9D4F87801FDF764FE88
:102740000646D4F87C010F46FDF75EFECDE9000198
:10275000D4F88001FDF758FE3246CDE902013B4630
:10276000194801F006F91DE000252C46174E404699
:1027700071593A465FFA84FA08F0F2FE40B90C2328
:1027800003FB0464A3689847BAF1040F0AD903E075
:1027900001340C35052CE9D10D4805B0BDE8F045F4
:1027A00003F008B805B0BDE8F08500BF740600204E
:1027B000BAB80008D6B80008F0B8000874110020B4
:1027C0000CB9000832B900084EB900085CC1000815
:1027D00066B9000870B50D680446284608F0B8FED2
:1027E000024620682946BDE8704008F0B9BE0000E6
:1027F0007FB5037904460D46052B2BD8DFE803F09F
:10280000030810151B208368204968461A7804E0E5
:1028100083681F4993F90020684601F09BF819E08E
:1028200083681A4968461A88F7E783681849684632
:10283000B3F90020F1E78368144968461A68ECE7A9
:1028400083681868FDF7E0FD02460B4668461149AB
:1028500001F080F868466E4602F0ACFFADB10E485C
:1028600002F0A8FF69460A22E06801F0C3FC68464E
:1028700002F0A0FF084802F09DFF206969460A2285
:1028800001F0B8FC684602F095FF7FBD41B8000832
:1028900084B9000887B90008D9B700082DE9F041CC
:1028A000064608F055FE074620B101281FD13378AF
:1028B0002A2B1CD1424802F07DFF424C04F5CE6524
:1028C0000C35206802F076FF3F4802F073FF204687
:1028D0003946FFF78DFF3D4802F06CFF02F014FF10
:1028E0000028FBD01434AC42EBD1BDE8F081304677
:1028F0003D2108F021FE074600285ED0314C04F54A
:10290000CE650C35D4F80080404608F021FE4146E3
:102910000246304608F024FE8046002845D123793F
:10292000781C052B04D101F03FFD0546404602E02E
:1029300008F099FD00252379052B06D0E268904226
:1029400013DB2269904212DD0FE0E068FEF79CF98C
:1029500001462846FEF78AFB38B92069FEF794F94C
:1029600001462846FEF7A0FB88B1194821E0052B57
:102970000FD8DFE803F003030606090CA3681870FC
:1029800007E0A368188004E0A368186001E0A3686A
:102990001D60206802F00EFF0E4802F00BFF20467B
:1029A0000021BDE8F041FFF723BF1434AC42A9D1A8
:1029B0000948BDE8F04102F0FDBEBDE8F08100BF6E
:1029C0008AB9000898C100089FB90008D3B8000868
:1029D000A3B90008B1B80008C8B9000810B5084884
:1029E00002F0E8FE00F084FC064802F0E3FE0A2054
:1029F00002F079FD0020BDE8104002F07FBD00BF6D
:102A0000E5B90008EFB90008F0B585B0044608F054
:102A10009FFD082824D100231F49E25C0968511852
:102A2000497811F0020F18BF203AE2540133082B05
:102A3000F2D1651C04F1090715F8016C17483146FD
:102A400008F07AFD20B12846314608F075FD08B13E
:102A500013481CE00135BD42EED1204600F06CFC6D
:102A6000104802F0A7FE00230F4A04A9D218927A58
:102A70008A180A49595C0133082B02F80C1CF3D15F
:102A8000083B01A88DF80C3002F094FE074802F0D4
:102A900091FE05B0F0BD00BFB400002014C80008CE
:102AA000FEB900081EBA000874060020D3B800085A
:102AB00010B50446084802F07DFE20220021074898
:102AC00008F031FD064A00231360064A20461370C1
:102AD000BDE81040FFF782BF33BA0008C0010020F4
:102AE000E40100203006002010B5084802F062FE24
:102AF000012000F037FC064802F05CFE0A2002F0DC
:102B0000F2FC0020BDE8104002F0F8BC4BBA00080F
:102B1000F1B900082DE9F0418A4B8AB01A7832B930
:102B200001321A70884802F045FEFFF7B5FC874B6A
:102B30001B78002B00F07B8102F048FE18B102F0F8
:102B4000F1FD834B1870824B1B786D2B46D00CD84F
:102B5000622B23D005D8232B0FD0612B40F0678147
:102B60000FE0672B40F0638122E0742B65D0772B58
:102B700066D0712B40F05B813DE0744B00221A70EF
:102B8000DCE0744C2068FDF73FFC064660680F46A9
:102B9000FDF73AFCCDE90001A06815E06D4B986F98
:102BA000FDF732FC02460B466B4800F0E2FE3EE1C8
:102BB000684C606AFDF728FC0646A06A0F46FDF7E0
:102BC00023FCCDE90001E06AFDF71EFC3246CDE9A9
:102BD00002013B46614800F0CCFE28E15D4CA06D4F
:102BE000FDF712FC0646E06D0F46FDF70DFCCDE942
:102BF0000001206EE8E75A4B18685A4BD3F8008062
:102C0000594B1F68594B1E68FDF7FEFB04464046B2
:102C10000D46FDF7F9FBCDE900013846FDF7F4FB61
:102C2000CDE902013046FDF7EFFB2246CDE9040174
:102C30002B464F4800F09DFEF9E002F06FFCF6E0F5
:102C4000444C4C49A069FEF773F8FDF7DDFB0646DE
:102C50000F46E0694749FEF76BF8FDF7D5FBCDE974
:102C600000014449206AFEF763F8ADE702F05AFD1F
:102C7000092801D03F2853D13F4BDFF80C810026B3
:102C80001F683546A8F184040CE02FB13B48216849
:102C90003A4608F065FC20B915B92646254600E0FD
:102CA00026460C344445F0D1BDB1344A3B46D219D6
:102CB0002968C85C3168C95C81420CD1581C01325A
:102CC00029B92E4A2031D1542B4B186005E002F867
:102CD000011C0346ECE7284A1360274B1B680BB125
:102CE000B5420FD0264802F065FD06E055F80C0B02
:102CF00002F060FD092002F047FDB542F6D9FFF76A
:102D0000CBFB00271D4CE41904E014F8010C02F081
:102D10003BFD0137184B01341B689F42F5D386E019
:102D2000154B1B682BB9042803D11448FFF7C0FECC
:102D300082E00C282AD1134802F03CFDFFF7ACFBDF
:102D400075E000BF3006002066BA0008E1010020EF
:102D5000E00100207411002045CA0008A1BA000853
:102D600080000020FC040020000500200405002055
:102D70009EBA0008E02E6542E4010020C001002058
:102D8000ABBA0008B0BA0008A8B70008002B2FD0D3
:102D90000A2801D00D282BD1294802F00BFD294B20
:102DA000294C1A680023A3540893284B07A80093C2
:102DB00027490B220C23079408F059FB054638B12C
:102DC000006808F0C5FB0130AB682018984702E0A6
:102DD000204802F0EFFC20221B48002108F0A3FB52
:102DE000184B00221A601C4B1B78002BA6D123E045
:102DF0007F2801D008280AD1CBB1124A013B1360C9
:102E0000114A0021D154154802F0D4FC0FE01F2BC9
:102E10000DD81F280BD97E2809D80BB9202806D039
:102E2000094AD054074A0133136002F0ADFC02F0A6
:102E3000CDFC00287FF41AAF0AB0BDE8F08100BFD6
:102E4000D3B80008E4010020C0010020D527000805
:102E500024B70008BBBA000830060020DCBA00081E
:102E60002DE9F14F7B4B00241A787B4D01321A700B
:102E70002646784B794F93F80080BB19987A01F079
:102E8000B3FFA0F53A73063B9BB240F2DC5293428B
:102E900088BFF88E704B08F0030808EB860823F80B
:102EA00018002B886A88D218AB88D218EB88D21801
:102EB00012B2931C48BF531D9B10694A9BB2135317
:102EC000684A19B2A05E0338814201DA981CA05208
:102ED000644AA05E0330814201DD023BA352013609
:102EE00002340835082EC4D15E4C5C4DB4F906207E
:102EF0006B8F9A4245DAFFF727F92B8C73B15A4B47
:102F00005B7923B1594B1A780AB1012215E0574B6E
:102F10005A78002A62D000225A705FE0B4F9042087
:102F2000AB8F9A420FDD514B597861B950490A78FD
:102F3000501C142A087051D1133A5A704D4B1A6A1A
:102F40004D4B1A604AE0454B5B8F9A4243DA474A41
:102F5000517841B146490B78581C142B08703DD16B
:102F6000143B53703AE03F4AB2F902209A4232DDF4
:102F70003F4A1378591C142B11702FD103F0E6FE31
:102F80002CE0A98F8A4229DD384A527832BBB4F945
:102F900004208A420CDDB4F90210994208DA344A5E
:102FA0001378591C142B117018D104F0FBFC15E098
:102FB0009A4210DA2B4AB2F902209A420BDA2C4AD2
:102FC0001378591C142B117008D103F095FD0320C0
:102FD000FFF776F802E0264B00221A701F4B9A7812
:102FE000002A2AD0254AB3F804E01088704521D978
:102FF0001E4A5178F1B1B3F836C01A49A1F800C0A1
:10300000A1F802C0A1F804C0B3F808C0DB88A1F899
:1030100006C09E4401217045D17302DD0023537028
:103020001370124B5A780AB95A701A70134B013048
:10303000188002E00D4B0022DA73084B104A588FBB
:103040009C8F00231946B2F900C084451ADC4FF06A
:10305000000E1FE0E8010020EC01002074060020B3
:103060002C020020600600204C0600203C060020B8
:10307000E9010020741100207006002018080020CB
:103080006806002032F908EC8645ACBF4FF0000E10
:103090004FF0010E8445ACBF002501259D40A4459D
:1030A000D4BF4FF0000C4FF0010C45EA01019D1C0C
:1030B0000CFA05FC41EA0C0103F1010C0EFA0CFEBE
:1030C000033341EA0E0102320C2B89B2BBD1734F9C
:1030D0000C3B3A46B2F816C0714811EA0C0F0CBF0F
:1030E0004FF0000C4FF0010C03F800C00133023226
:1030F0000E2BEFD1437913B96A4B01221A70684B3A
:103100001A7A684B02B101229A72654B1B7813B987
:10311000644BDA7B5AB1634C23794BB96248FFF7B1
:103120001FF86248FFF71CF80123237100E01A71B1
:103130005B4B9A785B4B42B15A793AB901325A717A
:103140005B4B1A6A5B4B1A6000E05A71544B5A7A17
:10315000544B42B15A7A3AB901325A72544B1A6AF4
:10316000554B1A6000E05A724D4B5B7B1BB1504BC4
:103170001A6A514B1A600025504B514CE85EFDF71E
:1031800083FD44F815000235082DF5D1434BDE8E42
:103190003046FDF779FD054629462068FDF7BEFC5F
:1031A000294620606068FDF7B9FC29466060A06888
:1031B000FDF7B4FCA060A6F5BA600C38FDF764FD1D
:1031C0000146E068FDF7AAFC0025E0602C46DFF828
:1031D000F8A03C4B1AF80420B7F844B01A555846EA
:1031E000FDF752FDDFF8D890804659F8056041465A
:1031F0003046FDF745FF78B1CBF10000FDF744FD07
:1032000001463046FDF746FF30B1002349F805304E
:1032100001230AF8043014E02B4B00221A553046E3
:103220000021FDF741FFDFF898A020B1304641466C
:10323000FDF774FC03E030464146FDF771FC4AF8A7
:103240000500013404350237032CC0D11C4BDC6867
:103250001E4B20461968FDF761FC1D4920F0004017
:10326000FDF722FF10B10F4B00229A710C4B5A78D8
:103270000C4B7AB19A7972B901329A71134B154895
:103280001C600B4BDA6F144B1A6001B0BDE8F04FB5
:10329000FEF766BF9A7101B0BDE8F08F740600209A
:1032A0004C0600203C060020C0050020D805002068
:1032B00074110020340600207006002060060020F3
:1032C0006C0000207C0000206800002038060020F0
:1032D0000000A041080600205C06002002480349C7
:1032E0004FF4D27208F012B97406002000FC0108F5
:1032F00010B504F079FF342004F08AFF0B4804F085
:10330000DFFF04280CD1094C094B2046E15804F09A
:10331000ADFF042800D0FEE7064B04349C42F3D1F5
:1033200004F06EFFBDE81040FFF7D8BF00FC0108B5
:10333000740AFE17A4FD010870B50646002409E0D2
:10334000064D284608F0F8F818B1054A83185D1BA9
:10335000AC720134315D0029F2D170BD14C800088F
:103360007406002070B5A44B1B7810B9022B00F036
:103370004281A24C02232370A148FFF7DDFF012305
:103380004FF4C8706370013B4FF032026082A3704B
:103390004FF4966044F62063E380A282A2802081ED
:1033A00004F11C034FF0000CA4F816C002349C4238
:1033B0006546F7D1914B40F2DC50D88640F24C4044
:1033C000588740F27E40D8874FF00C000322A3F8C4
:1033D0004400A3F84600A3F8480040F2DC5083F80C
:1033E0003220A3F8BE004FF47A724FF47A709A86B6
:1033F000A3F8C2004FF4FA624FF4FA601A87A3F8F8
:10340000C60040F26C7240F2DC509A87A3F8CC0000
:1034100040F23A724FF47A70A3F84020A3F8D0003B
:103420004FF47A724FF4FA60A3F8BC20A3F8D400EA
:103430004FF4FA624FF47A70A3F8C020A3F8DC00CE
:1034400040F2DC5240F2DC50A3F8C420A3F8DE00C6
:103450004FF47A724FF4FA60A3F8CA20A3F8E000A0
:103460004FF4FA620420A3F8CE2083F8E80040F27B
:10347000DC5264480121A3F8D2204FF07E5283F839
:10348000421083F8C810C3F8D820C3F8E420C3F86A
:10349000EC20C3F8F000C3F8F400C3F8F800C3F858
:1034A000FC00C3F80401C3F80C014FF0FF3083F8AF
:1034B000340183F836014FF47A70A3F838014FF4E1
:1034C000FA60A3F83A014FF47A70A3F83C014FF484
:1034D000FA60A3F83E014C4C4C48C3F80021C3F8F5
:1034E0000821C3F81021C3F81421C3F818210022C1
:1034F000C3F81C21C3F82021C3F82421C3F82821D4
:10350000C3F82C21C3F8302183F8351183F8371123
:10351000D8641A655A659865D8651A665A669866B9
:10352000DC661A675A6798674FF07C50C3F88800CA
:10353000C3F89800C3F8A80035484FF08044C3F89A
:10354000AC003448DC67C3F8B0003348C3F88C40A3
:10355000C3F8B40031484FF07F54C3F8B800304886
:10356000C3F88020C3F844014FF02A00C3F8842038
:10357000C3F89020C3F89420C3F8A020C3F8A42077
:1035800083F84011C3F84C21C3F85021C3F85421EB
:10359000C3F85C21C3F86021C3F86421C3F8682133
:1035A000C3F86C21C3F87021C3F87821C3F87C21DB
:1035B000C3F89C4083F848C1A3F8580183F874C14C
:1035C000C3F88021C3F89021164A83F88411C3F808
:1035D00098211549154AC3F88811C3F89C2114494C
:1035E000144AC3F88C1183F894C1C3F8A021BDE834
:1035F0007040FFF77DBE70BD00FC0108740600201E
:103600001CC80008000080BF000048430000C842FA
:103610000000A041000088410000E0400060EA4650
:103620006666663F00003041A47029413333534041
:103630000000404066668640F8B504460E461046D7
:103640004FF07E511546FDF707FD20BB3046FCF7D5
:10365000DBFE064628460F46FCF7D6FE02460B4622
:1036600000200E49FCF770FD02460B4630463946F5
:10367000FCF71EFF06460F4620462946FDF758FB7D
:10368000FCF7C2FE02460B4630463946FCF75EFDAB
:10369000FDF7F0F904462046F8BD00BF0000F03FFA
:1036A00028B1026811700268013202607047C8B226
:1036B00002F06AB82DE9F845161E04460D460FDDE6
:1036C000002200E00132A95C0029FBD1B242ACBF6C
:1036D0000E46B61A13F0020F02D04FF0300A01E086
:1036E0004FF0200A13F0010809D04FF0000808E05D
:1036F00020465146FFF7D4FF08F10108013E002E95
:10370000F6DC474603E02046FFF7CAFF0137C8EB67
:103710000503D95D0029F6D105E020465146FFF7A3
:10372000BFFF0137013E002EF7DC3846BDE8F885C3
:103730002DE9FF410A9F05460B9EDDF830E08C46DF
:1037400051B930238DF804308DF805103A4601A99F
:103750003346FFF7AFFF39E03BB10A2A05D1002914
:1037600003DAC1F1000C012400E0002404AB0021C5
:1037700003F8011D0DE0BCFBF2F102FB11C10929A8
:10378000C4BFAEF13A000918303103F8011DBCFB8B
:10379000F2FC9846BCF1000FEDD184B14FB116F0A8
:1037A000020F06D028462D21FFF77AFF013F0124A2
:1037B00005E02D2203F1FF3803F8012C00242846F0
:1037C00041463A463346FFF775FF001904B0BDE89D
:1037D000F08100002DE9F04F82468FB00E4614466E
:1037E0004FF0060B0025A4E0252B40F09C8016F836
:1037F000013F002B00F0A180252B00F094802D2BA1
:1038000002D04FF0000806E001364FF0010802E058
:10381000013648F002083378302BF9D00022914667
:103820000AE02AB10A2303FB0B1B0BF0FF0B08E095
:103830000A2303FB0909013633782E2B03D14FF0FD
:10384000000B0122F7E7A3F13000C1B20929E8D942
:10385000732B07D154F8041B3D4B5046002908BF79
:1038600019465AE0642B0BD1033B0293CDF800902C
:10387000CDF80480271D504621680A22603B0CE0E9
:10388000782B0FD1173BCDF80090CDF80480029330
:103890002168271D50461022613BFFF749FF2D1874
:1038A0003C4645E0582B0BD1173B0293CDF80090D6
:1038B000CDF80480271D504621681022413BECE7DB
:1038C000752B0AD1143BCDF80090CDF804800293FB
:1038D000271D504621680A22DEE7632B0DD123689D
:1038E00050468DF8343000238DF835300DA94A4606
:1038F0004346271DFFF7DEFED1E7662B18D10734BC
:1039000024F0070305AFD3E9000103F108043A46A8
:103910005B4600F081FC504639464A464346FFF775
:10392000C9FE2D1804E050463178FFF7B9FE013585
:1039300001363378002B7FF457AFBAF1000F03D074
:10394000DAF8003000221A7028460FB0BDE8F08F78
:1039500025C800080EB40FB505AA52F8041B019043
:1039600001A80392FFF736FF04B05DF804EB03B043
:1039700070470FB407B504AA52F8041B0020019247
:10398000FFF728FFBDE80E4004B07047034B044921
:103990001A78885C01321A70704700BF3D0200201F
:1039A0004802002010B5FFF7F1FF0446FFF7EEFFD5
:1039B00004EB002080B210BD10B5FFF7F3FF044602
:1039C000FFF7F0FF04EB004010BD000010B5044607
:1039D00001F0DAFE024B1A7854401C7010BD00BF93
:1039E0003C02002038B50546002401E0FFF7EEFF59
:1039F000285D01340028F9D138BD0000014B18784A
:103A0000FFF7E4BF3C02002070B5044624200D46B9
:103A1000FFF7DCFF4D20FFF7D9FF002C14BF21205A
:103A20003E20FFF7D3FF064B00221A702846FFF70F
:103A3000CDFF044B1878BDE87040FFF7C7BF00BF4B
:103A40003C0200204302002001460120FFF7DCBFBA
:103A500001460020FFF7D8BF70B50B4D0B4C064652
:103A6000C0B2287001F090FE2A782378B6B282EABC
:103A70000303300A2370287001F086FE23782A7829
:103A800082EA0303237070BD420200203C02002042
:103A900070B5154D154C0646C0B2287001F074FE85
:103AA0002A782378300A82EA0303C0B22370287090
:103AB00001F06AFE2A782378300C82EA0303C0B250
:103AC0002370287001F060FE2A782378300E82EA95
:103AD00003032370287001F057FE23782A7882EAC6
:103AE0000303237070BD00BF400200203C02002091
:103AF00070B5A34B1B78002B00F05283BDE87040DB
:103B0000FFF708B801F00EFE9E4B1A78A2B92428E0
:103B100014BF002201221A70002A40F0418323289A
:103B200003D0522840F03C8302E0FEF7F3FF37E376
:103B3000012001F0E3FC33E3012A04D14D280CBF3E
:103B40000220002005E0022A05D13C280CBF0320FA
:103B50000020187024E3032A11D1402801D9033A28
:103B60001DE3894A8949107000220A7088490A7049
:103B7000884A107004221A70033A874B0FE3042A14
:103B800007D1864A1070834A117848401070052288
:103B900005E3052A40F004837C497B4B0A781B78B7
:103BA00093427C4B0AD993F800C080EA0C0C83F84E
:103BB00000C07B4B985401320A70F1E21B788342BB
:103BC00040F0EB82754B1B78722B00F0B78223D844
:103BD0006A2B5DD010D8662B00F0518106D8642B7B
:103BE00000F0FD80652B40F0D38209E1682B00F0E6
:103BF0009A8100F2A4818AE16E2B00F0DF8105D862
:103C00006C2B00F0A88100F2D18141E0702B00F014
:103C1000FF8100F279823BE0CB2B00F0C98010D805
:103C2000762B00F09D8205D8742B00F07B8200F289
:103C30007E828AE2C92B1FD02ED8C82B40F0A882E2
:103C400011E0CF2B24D005D8CD2B00F0968200F2C6
:103C50009982B7E0FA2B00F09882FE2B18D0D02B77
:103C600040F096827FE20024FFF79CFE4D4BE0522D
:103C70000234102CF8D10BE0FFF788FEFFF786FE28
:103C8000FFF79AFEFFF798FEFFF78CFEFFF78AFE1C
:103C90000020FFF7DDFE7EE2434C04F13005FFF724
:103CA00075FEFCF7EDFFE064FFF770FEFCF7ECFF3C
:103CB0003E49FDF7F1F82065FFF768FEFCF7E0FFED
:103CC00060651034AC42EAD1FFF760FEFCF7D8FF24
:103CD000354CC4F8AC00FFF759FEFCF7D5FF33496B
:103CE000FDF7DAF8C4F8B000FFF750FEFCF7C8FFA4
:103CF000C4F8B40000240134FFF748FEFFF746FE85
:103D0000FFF744FE032CF6D1FFF740FEFCF7B8FFA7
:103D1000254CE067FFF73AFEFCF7B6FF2349FDF7B5
:103D2000BBF8C4F88000FFF731FEFCF7A9FFE36F92
:103D3000C4F88400C4F88C30D4F88030C4F89400FF
:103D4000C4F89030FFF722FEFCF79AFFC4F89C00FD
:103D5000FFF71CFEFCF798FF1449FDF79DF8C4F827
:103D6000A000FFF713FEFCF78BFFC4F8A4000024AB
:103D70000134FFF70BFE032CFAD1FEF7CFF987E7EA
:103D8000300600203E0200203F02002041020020B9
:103D90003D0200203C02002044020020430200209B
:103DA00048020020600600207406002000007A44CB
:103DB0008A4C04F11C05FFF7F5FDE0820234AC42A9
:103DC000F9D165E7FFF7E2FDFFF7E0FDFFF7DEFD64
:103DD000FFF7DCFDFFF7DAFDFFF7D8FDC0E10720B4
:103DE000FFF736FED220FFF7F1FD7C4B93F832004F
:103DF000FFF7ECFD0020FFF7E9FD4FF000403BE04E
:103E00000A20FFF725FE764BB3F90000FFF724FEEA
:103E100000F078FC00B2FFF71FFE724BB3F9000010
:103E2000FFF71AFE704B59799A79890041EA4201ED
:103E30001A7911435A7841EA42116C4AD07841EA22
:103E4000C001107941EA0011D87941EA8011187A4D
:103E500041EAC011587A9B7A41EA402141EA0323A2
:103E6000917A507B43EA8123D17A43EAC123117BC3
:103E700043EA013343EA4030FFF70AFE8BE15C4C32
:103E80001220FFF7E5FD5B492068FCF751FFFDF7C5
:103E900015F900B2FFF7E0FD56496068FCF748FFEE
:103EA000FDF70CF900B2FFF7D7FD5249A068FCF707
:103EB0003FFFFDF703F900B2FFF7CEFD4E49606A00
:103EC000FCF736FFFDF7FAF800B2FFF7C5FD4A49E7
:103ED000A06AFCF72DFFFDF7F1F800B2FFF7BCFD7B
:103EE0004549E06AFCF724FFFDF7E8F800B2FFF768
:103EF000B3FDA06DFDF7E2F800B2FFF7ADFDE06D98
:103F0000FDF7DCF800B2FFF7A7FD206E4AE01020B5
:103F1000FFF79EFD0024394BE05E0234FFF79CFD65
:103F2000102CF8D137E11020FFF792FD0024344B1C
:103F3000E05E0234FFF790FD102CF8D12BE1102049
:103F4000FFF786FD00242F4BE05E0234FFF784FD6F
:103F5000102CF8D11FE1264C0820FFF779FDA0694D
:103F60002949FCF7E5FE2349FCF7E2FEFDF7A6F838
:103F700000B2FFF771FDE0692349FCF7D9FE1D4946
:103F8000FCF7D6FEFDF79AF800B2FFF765FD1E4973
:103F9000206AFCF7CDFEFDF791F800B2FFF75CFD5B
:103FA0001A4B1868FDF78AF800B2CBE00420FFF73F
:103FB0004FFD0F4B986FFDF7A7F85DE70320FFF764
:103FC00047FD0B4B0B49D3F88000FCF7B1FEFDF722
:103FD0009BF8C0B2FFF7FAFCB3E000BF7406002004
:103FE00070050020160500203C0600204C0600202D
:103FF00074110020000020410000C8421000002081
:104000000000002060060020E02E654270060020BF
:104010001E20FFF71DFD654C04F1480554F8080CFF
:10402000FDF772F8C0B2FFF7D1FC614954F8040CF7
:10403000FCF77EFEFDF768F8C0B2FFF7C7FC54F846
:10404000180BFDF761F8C0B2FFF7C0FCAC42E5D138
:10405000584CD4F89000FDF757F8C0B2FFF7B6FC03
:104060005349D4F89400FCF763FEFDF74DF8C0B255
:10407000FFF7ACFCD4F89800FDF746F8C0B2FFF7A4
:10408000A5FC00240020FFF7A1FC0020FFF79EFC08
:1040900001340020FFF79AFC032CF3D1454CA06CAF
:1040A000FDF732F8C0B2FFF791FC4149E06CFCF734
:1040B0003FFEFDF729F8C0B2FFF788FC206DFDF741
:1040C00023F8C0B2FFF782FCA06FFDF71DF8C0B265
:1040D000FFF77CFC3649E06FFCF72AFEFDF714F889
:1040E000C0B2FFF773FCD4F88000FDF70DF8C0B242
:1040F000FFF76CFC0020FFF769FC0020FFF766FC6F
:104100000020FFF763FC46E01C20FFF7A1FC2A4CCF
:1041100004F11C05B4F916000234FFF79DFCAC4213
:10412000F8D138E06D20FFF793FC244803E02F20FE
:10413000FFF78EFC2248FFF755FC2CE00220FFF72A
:1041400087FC0020FFF788FC25E00820FFF780FCB3
:104150000124E0B20134FFF739FC092CF9D11AE04F
:10416000FFF714FC94E50020FFF772FC0120FFF735
:10417000F9F8002001F0C2F90DE002F0BDFC02F0F8
:10418000E5FD85E503F00EFC82E5FFF7B1F87FE57C
:104190000020FFF759FCFFF731FC0A4B00221A7090
:1041A00001F014FB00287FF4ADAC70BD8005002049
:1041B00000007A4478050020740600202CC800080E
:1041C0009CC800083E02002038B50546B5FBF2F356
:1041D0000846144613B11846FFF7F6FFB5FBF4F393
:1041E00004FB1354024B1B5D00F8013B38BD00BFBC
:1041F000CCC80008931E222B88BF0A22031E10B5CC
:104200000C4603DA2D2001F8010B5842FFF7DCFFC2
:1042100000230370204610BD2DE9FF4D514C1F4671
:10422000002A18BF14460023002206460D46FCF75C
:10423000B1FB20B12D2304F8013B05F10045072F08
:1042400019D80022002330462946FCF7C1FB464B13
:10425000FA0038B1D31830462946D3E90023FBF7DA
:1042600075FF06E0D31830462946D3E90023FBF753
:104270006BFF06460D4600234FF0010803E00A22BB
:1042800002FB08F80133BB42F9D330462946FCF75C
:10429000D1FB002302460CE04FF00A0CB2FBFCF10C
:1042A0000CFB11220DF1040A30320AF8032001330D
:1042B0000A46002AF0D11BB9303304F8013B0BE069
:1042C0000DF1040C0CEB030111F801AD04F802A090
:1042D00001326145F8D1E418002F3ED0FCF772F8A6
:1042E00002460B4630462946FBF72EFF82464046E3
:1042F0008B46FCF767F802460B4650465946FCF7DA
:10430000D7F8FCF797FB2E23224602F8013B2E3B01
:1043100008E00A25B0FBF5FC05FB1C003030C85452
:104320000133604601A90028F3D1C91803E0302009
:1043300001F8010C01330131BB42F8D323B9144613
:10434000303304F8013B08E001A8C11811F801CD91
:10435000814204F801CFF9D1D4180020207004B0B4
:10436000BDE8F08D88020020F8C8000810B50B49A0
:104370000446FCF78FFE20B120460949FCF7CEFB2E
:1043800008E020460749FCF771FE20B120460449A9
:10439000FCF7C6FB0446204610BD00BFDB0F4940BA
:1043A000DB0FC940DB0F49C02DE9F84F044600E0A0
:1043B00001342378202BFBD0092BF9D02D2B05D1EC
:1043C00001344FF0000ADFF870B106E02B2BDFF864
:1043D00064B108BF01344FF0000A0026002713E043
:1043E0000022534B30463946FCF762F80646284611
:1043F0000F46FBF7F7FF02460B4630463946FBF700
:10440000A5FE013406460F462378A3F13005EAB233
:10441000092AE5D92E2B21D101344FF00008DFF80D
:10442000109116E0FBF7DEFF42464B46FCF76AF9B7
:1044300002460B4630463946FBF788FE0022064608
:104440000F46404649463A4BFCF732F80134804665
:10445000894620783038C3B2092BE3D92378652BFD
:1044600001D0452B4CD16278631C2D2A02D1013337
:10447000012503E02B2A08BF013300250022144642
:1044800002E00A2000FB0414995C01323039C8B202
:104490000928F6D9B4F59A7F28BF4FF49A74002200
:1044A000244B09E0104619461DA3D3E90023FBF76E
:1044B000FFFF323C02460B46312CF3D8A04609E000
:1044C0001046194618A3D3E90023FBF7F1FF083C77
:1044D00002460B46072CF3D808F0070408E0104604
:1044E00019460022124BFBF7E3FF013C02460B4644
:1044F000002CF4D135B130463946FCF703F905E01C
:104500000C4B002230463946FBF7D2FF02460B46E1
:1045100050465946FBF7CCFFFCF7ACFABDE8F88FE4
:104520009A647EC50E1B514A0000000084D7974153
:10453000000024400000F03F0000F0BFAFF3008017
:104540002DE9F74F05680646884628462946FCF7B8
:10455000EFFB7468834621462046FCF7E9FBB76809
:10456000814639463846FCF7E3FBF6688246314619
:104570003046FCF7DDFB314601902046FCF7D8FBC6
:104580003946034628460093FCF7D2FB009B0146C0
:104590001846FCF7C3FA0146FCF7C2FA04F0BAFE6B
:1045A0003946C8F804002046FCF7C2FB31460346F2
:1045B00028460093FCF7BCFB009B01461846FCF71D
:1045C000AFFA0146FCF7ACFA494603465846009359
:1045D000FCF7A6FA5146FCF7A1FA0199FCF79EFAFE
:1045E000009B0146184604F0E1FE3146C8F8080079
:1045F0003846FCF79DFB214606462846FCF798FB0B
:1046000001463046FCF78CFA0146FCF789FA494628
:1046100004465846FCF782FA5146FCF77FFA0199A6
:10462000FCF77EFA0146204604F0C0FEC8F8000000
:10463000BDE8FE8F014B188880B27047A8020020A9
:1046400030B52A4891B003F0C3FC294B00250093F4
:10465000284B012401934FF4807306934FF4806339
:1046600007932023089321484FF400536946099388
:1046700002950394049505950A9503F01BFD1B48CC
:10468000214603F037FD4FF460231B480BA90D931F
:104690000B958DF830508DF831400E958DF83C40DB
:1046A00003F0F2FB224603231348042103F044FCE9
:1046B0001148214603F018FC0F48214603F00AFC7C
:1046C0000D4803F01BFC0C4803F01DFC0028FAD138
:1046D000094803F01DFC084803F01FFC0028FAD12C
:1046E0000548012103F01EFC11B030BD0800024056
:1046F0004C240140A802002000240140BFF35F8F3A
:1047000070470000014B188880B27047AA02002051
:10471000F0B54FF4406389B0ADF8143002238DF842
:10472000163012330DEB030105464A488DF8173059
:1047300003F0E6FD47484FF4406103F031FE0024EA
:1047400002E0032000F0C4FE42484FF4806103F011
:1047500021FE0028F5D04FF480613E4803F022FE90
:10476000032000F0B5FE01343A484FF4806103F0B5
:1047700017FEE4B2032000F0ABFE082CE4D14FF4A6
:104780000061344803F00EFE032000F0A1FE4FF458
:104790008061304803F006FE032000F099FE4FF4DC
:1047A00080612C4803F0FCFD032000F091FE4FF4E3
:1047B0000061284803F0F4FD032000F089FE4FF467
:1047C0004063254CADF81830022306A98DF81A3045
:1047D00020481A338DF81B3003F092FD25602846DF
:1047E00001AD03F0FFFE284603F02EFE00222068F4
:1047F0004FF4407103F06AFE4BF6FF73ADF80A30D8
:104800004FF48043ADF81030144B00262068294641
:104810000193ADF8086003F071FE2068012103F0F8
:1048200021FE07AC22238DF81C30204601238DF891
:104830001F308DF81D608DF81E6003F0F3FA212300
:10484000204637468DF81C308DF81D6003F0EAFADB
:1048500009B0F0BD000C0140C0020020801A060023
:1048600040005FFA80FC214808B580F800C020486D
:1048700001702049002008701F48012101701F4865
:1048800003601F4803601F4B1A701F4B19701F4BAA
:104890001868838813F4007F11D1038813F4807F94
:1048A00006D1038813F4007FFBD1012103F0E7FD5B
:1048B000164B4FF440711868012203F007FE47F2CF
:1048C0003053114A127812B1013BFAD102E00BB118
:1048D000012008BD0E4B1A88013292B21A800B4B90
:1048E0001868FFF715FF002008BD00BFC6020020B2
:1048F000AD020020AC020020BC020020B00200206B
:10490000B8020020AE020020C5020020C002002034
:10491000AA02002030B54000274CC0B220702748C2
:10492000274C017027480121017000202070264D7E
:10493000264C85B02270C5F800D0254C254D102A94
:10494000C5F800D0217005D934E013F800C00DF887
:1049500000C00130C1B29142F7D31F4B1868838861
:1049600013F4007F11D1038813F4807F06D10388EC
:1049700013F4007FFBD1012103F081FD164B4FF4AE
:1049800040711868012203F0A1FD47F23053104A2C
:10499000127812B1013BFAD102E00BB1012009E01B
:1049A0000E4B1A88013292B21A800B4B1868FFF72F
:1049B000AFFE002005B030BDC6020020AD020020D1
:1049C000BC020020AC020020B8020020AE02002091
:1049D000C5020020B0020020C0020020AA02002070
:1049E00007B502AB03F8012D0122FFF793FF0EBDBF
:1049F00037B5224C2068838A9BB20193019B019BAF
:104A000013F4E06F2DD0038B00229BB24FF4806132
:104A1000009303F05BFD019B13F4007F21D120681C
:104A2000038813F4007F1CD1058815F480750FD01E
:104A3000038813F4807FFBD1012103F02DFD0F4B80
:104A40001868038813F4007FFBD1FFF761FE08E0CC
:104A5000012103F021FD20684FF440712A4603F044
:104A600035FD064B1A68938A23F470631B041B0CF4
:104A70009382034B00221A703EBD00BFC00200208B
:104A8000C5020020FFF7B4BFFFF7B2BF2DE9F04F1A
:104A9000954C85B02068828AD2B212F001063BD0D4
:104AA0000388012123F400631B041B0C038003F023
:104AB00000FD8E4B00221A708D4B1B78E3B18D4B9D
:104AC0001B781BB98C4B1B78FF2B15D1894B01220E
:104AD0001A708A4B1B78022B06D1834B1B681A88ED
:104AE00092B242F400621A80854B012219787E4B03
:104AF000186803F0FBFC38E1814B002219787A4BEF
:104B0000186803F0F3FC7C4B1B78FF2B00F02D8121
:104B10004FF0FF32754BE5E012F0020347D00190F1
:104B2000FFF7ECFD754B01981D78012D19D1704BE5
:104B30001B78B3B16F4B1B789BB1314603F0B9FCC6
:104B4000FFF7DCFD20682946038BDBB28DF80F30C0
:104B500003F0A2FC6B4B20681D704FF480612A4665
:104B600001E1038B0190DBB28DF80F30FFF7C6FD3A
:104B7000624B01981B78022B09D15D4B1B7833B136
:104B80005C4B1B781BB1002103F093FCE6E05B4B10
:104B90001B78032B07D1564B1B7823B1554B1B7841
:104BA000002B40F0DD804FF480610122DBE012F049
:104BB000040572D04E4ADFF84C811278012688F83D
:104BC0000060002A4FD04B4A1278002A4BD04B4A43
:104BD000464D12784C4F022A2AD9194603F069FC37
:104BE000206895F800A0D7F8009003F07CFC4FFAFD
:104BF0008AFB0BF80900B244314685F800A0206812
:104C000003F04AFC88F80060206895F800803F684F
:104C100003F069FC4FFA88FA0AF80700B04485F8F7
:104C2000008020684FF48061324603F04FFC2DE095
:104C3000314603F031FC2068D7F800802E7803F06D
:104C400052FC4FFA86FA01360AF80800F6B22E70C6
:104C500020683F6803F047FC4FFA86F8023608F8F0
:104C600007002E7012E0234C237813B9274B1B78D2
:104C70003BB1012103F010FC1C4B1A7801321A7071
:104C800004E0012103F0FBFB01232370164B1B689A
:104C90001A8812F4807FFBD167E012F0400637D00B
:104CA000194B124ED3F80080377803F01CFC4FFAF2
:104CB00087FA124B01370AF80800FFB237701B78E9
:104CC0007FB20337BB4205D120684FF480612A468A
:104CD00003F0FCFB094B1878044B1A7851B2884258
:104CE00043D101321A7040E0C0020020C40200200B
:104CF000BC020020C7020020AD020020AE0200204E
:104D0000C6020020B4020020B0020020AC02002045
:104D100012F0800F29D0224D2B785AB2B2F1FF3F0A
:104D200011D0204901330968515C2B7003F0D9FB85
:104D30001D4B1A7895F900309A4216D120684FF42D
:104D4000806132460FE0194B2E70197803F0C9FBD1
:104D5000174B1B7813B9144B1B7833B9154B1868D4
:104D60004FF48061002203F0B1FB0F4B0C4A1B781B
:104D700092F9002001339A420ED10F4B00221A7093
:104D80000E4B1B782BB10B4B4FF44071186803F09E
:104D90009DFB0B4B00221A7005B0BDE8F08F00BFE1
:104DA000C4020020B8020020AE020020AD020020A4
:104DB000BC020020C0020020C7020020B402002074
:104DC000C5020020FFF762BEFFF760BE044B1B78F0
:104DD000834203D9034B53F820301980704700BF3A
:104DE000D802002078C90008024B03EBC003D88822
:104DF000704700BFDC0200202DE9F04F002491B085
:104E000021460A220AA806F08EFB2146102203A89A
:104E100006F089FB48234FF001028DF83F308748A8
:104E2000463B0FA9ADF83C208DF83E3003F068FA00
:104E3000834B40F2DC521B190834402CDA80F7D146
:104E4000403C07AD0A27284621463A4606F06BFB50
:104E50007C4B0D945E780DF138090DF1340ADFF8C2
:104E6000F881002E4BD001264946334628224FF0C8
:104E7000020B72488DF83B200193ADF838608DF835
:104E80003AB003F03DFA019B1C2250468DF83420C5
:104E90008DF836308DF835408DF8376002F0C2FF5E
:104EA000284603F0CDFD4FF047034FF0FF324FF09F
:104EB00080402946ADF81C30ADF82020ADF81E40EA
:104EC00003F03AFC4FF080404146A8F80240A8F8B1
:104ED0000460A8F80640A8F80840A8F8004003F0CD
:104EE000DDFE4FF080405946324603F0CFFD4FF0D3
:104EF0008040314603F0ADFD534B1F7068E04FF02A
:104F0000CF03ADF8383028238DF83B304B48263B93
:104F100049468DF83A3003F0F3F94FF00302494661
:104F20004A48ADF83820012403F0EAF91C23504622
:104F30008DF834308DF835608DF836408DF8374077
:104F400002F070FF1D2350468DF8343002F06AFFE6
:104F5000284603F075FD4FF047034FF0FF324FF046
:104F600080402946ADF81C30ADF82020ADF81E6019
:104F700003F0E2FB3648294603F0DEFBA8F80260A6
:104F8000A8F80440A8F80660A8F80860314B324938
:104F90009A19928898590A80083603F07FFE402EAD
:104FA000F4D14FF080401E21012203F06FFD012259
:104FB00027481E2103F06AFD4FF08040012103F0D5
:104FC00048FD2348012103F044FD1F4B06221A70BF
:104FD0004FF410630FACADF83C30182321468DF828
:104FE0003F301648163B8DF83E3003F089F94FF4F8
:104FF0007072214615480AACADF83C2003F080F9E8
:10500000204603F01DFD4FF04703ADF82830134B49
:105010000C4D1B7843B3AB8A114E124896FBF3F349
:10502000013B2146ADF82C3003F086FB6B8A96FBE2
:10503000F3F6013EADF82C6021E000BF000801400E
:10504000DC02002074060020D8020020000C014081
:105050000004004038C90008C8020020B401002044
:1050600040420F00002C01406B8A684A684892FB5E
:10507000F3F3013B2146ADF82C3003F05DFB2146F4
:10508000644803F059FB4FF0700203ACADF80C20FC
:105090004FF001034FF00002ADF80E30ADF81020D4
:1050A0004FF47A734FF48072594821464FF002054D
:1050B000ADF81230ADF81820ADF8145003F092FBA3
:1050C0005348214603F07CFC5148082103F0E9FCD9
:1050D0004F48082103F001FD4E48214603F082FBB2
:1050E0004C48214603F0D6FB4A48214603F01EFCFB
:1050F0004848214603F064FC4648082103F0D1FCEF
:105100004448082103F0D6FC4248082103F0DCFCA7
:105110004048082103F0E1FC3D48012103F099FCDF
:105120003C48012103F095FC3B4E3948012103F036
:105130009DFC3848012103F099FC7378002B61D065
:105140004FF0C0030FAFADF83C3034481823394658
:105150008DF83F308DF83E5003F0D2F84FF0030247
:105160002F483946ADF83C2003F0CAF8274A738A25
:105170002C4892FBF3F3013B0AA9ADF82C3003F065
:10518000DBFA4FF07003ADF80C304FF001024FF036
:105190000003ADF80E20ADF810304FF47A724FF4E2
:1051A000807320482146ADF81220ADF81830ADF8D4
:1051B000145003F017FB1B48214603F06BFB194802
:1051C000214603F0B3FB1748214603F0F9FB1548CD
:1051D000082103F066FC1348082103F06BFC11481A
:1051E000082103F071FC0F48082103F076FC0D48FC
:1051F000012103F02EFC0B48012103F037FC0A4B80
:105200000A221A7011B0BDE8F08F00BF40420F00B3
:10521000002C0140000800407406002000080140F6
:10522000000C014000040040D80200202DE9F845A0
:105230000024064625462D4B1F591A19B742B2F8CD
:105240000480B2F806A04BD13046514603F08EFCE4
:10525000012845D13046514603F093FCB8F10C0FBC
:1052600018D8DFE808F0071717170B1717170F17CD
:1052700017171300304603F06CFC0AE0304603F0C9
:105280006BFC06E0384603F06AFC02E0384603F0A7
:1052900069FC0546164B1A5D1B190AB95D8000E0D2
:1052A0009D80134B1A5D2AB901321A5511494FF0EE
:1052B00002030FE01B199A8859888A4201D9521AB1
:1052C00001E0C9435218DA80094A002313550A4AFB
:1052D000084913804B80A1F80080384603F0DEFCBB
:1052E0000834402CA7D1BDE8F88500BF38C90008B4
:1052F000DC020020C8020020180800200148FFF747
:1053000095BF00BF0004004010B5234B5B78002B15
:105310003BD002214FF0804003F028FC012808D147
:105320001E4C1F4B22884FF080401A8003F011FC66
:10533000208002214FF0804003F023FC174B1A8895
:10534000174B1B88D31A9BB240F68C22934203D989
:10535000144B00221A7010BDA3F53A72073A92B2AC
:1053600040F2DA518A4207D80E4A1278072A03D847
:105370000D4901EBC202D3800A4B1A7801321A7030
:105380000A4B4FF000021A8010BD4FF08040BDE87C
:105390001040FFF74BBF00BF74060020D60200206C
:1053A000DA020020D4020020DC02002018080020CD
:1053B000044B1A6801321A60034B1A68034B1A60D7
:1053C000704700BF1C030020041000E0E40400202C
:1053D00072B6084B084A1868084B1B68126862B618
:1053E0000749C31A09684FF47A70B3FBF1F300FB65
:1053F00002307047041000E01C030020E404002089
:10540000E004002070B5002304460E46054D5D19EA
:10541000EA681033002AF9D1FFF7DAFF28606E60DE
:10542000EC6070BDE003002070B5002304460E461A
:10543000054D5D19AA680C33002AF9D1FFF7C8FFA2
:1054400028606E60AC6070BD200300202DE9F04143
:1054500000250C276F43194EBC19A36853B1FFF701
:10546000B7FFBA596368821A9A4203D9A36898476A
:105470000023A360124C6F00013704EBC708D8F873
:105480000430ABB1FFF7A4FF2E01331932595B682A
:10549000821A9A420CD9D8F80430984756F80480FA
:1054A000FFF796FF30513359C8EB030344F8373008
:1054B0000135102DCDD1BDE8F08100BF20030020C3
:1054C000E0030020014B1868704700BF1C03002058
:1054D00038B50546FFF77CFF0446FFF779FF001B50
:1054E000A842FAD338BD10B5044604E04FF47A70F0
:1054F000FFF7EEFF013C002CF8D110BD10B1034ABC
:10550000034B1A60034A044BDA607047EFBEADDE0E
:10551000F04F00200400FA0500ED00E070B5002413
:105520006300084D013355F8331007480134FEF786
:1055300020FA0F2CF4D1D5F8F8100448BDE87040DB
:10554000FEF717BAE0030020B0C90008B5C900088B
:1055500070B55E4B8AB00DF1140C0FCB8CE80F00C8
:105560001D20012103F0B6F84FF40060012103F083
:10557000B1F80120014603F0BBF80220012103F03D
:10558000B7F80420012103F0B3F84FF400700121B3
:1055900003F0A0F84FF48040012103F09BF84FF492
:1055A0008000012103F0A4F80120014609AC03F0BA
:1055B00083F80220012103F07FF8002503F0B4F8FE
:1055C0004FF0FF3342482146ADF824308DF8275084
:1055D00002F096FE3F48214602F092FE3E482146E8
:1055E00002F08EFE3D48012102F0DEFEBDF81830CB
:1055F0000326ADF824309DF81A30059821468DF821
:1056000027308DF8266002F07BFEBDF82030079829
:10561000ADF824309DF8223021468DF826608DF8B3
:10562000273002F06DFE2E4B0C2202FB05330024C6
:105630009C602C4B03EB051301350833102D5C6087
:10564000F1D1684602F0E8FF009A274B4FF47A76D2
:10565000B2FBF3F2254B6FF00F011A60244B4FF4AD
:10566000A060DA6842F08072DA60224B1A6842F079
:1056700001021A60204B1A68204BB2FBF6F222F0AE
:105680007F42013A5A601E4A82F8231007229C602A
:105690001A60104B01321A611D6102F0B9FB2046FD
:1056A000FDF760FEFDF71AFEFBF778FFFEF7C8FF77
:1056B0001448FFF72DF8FFF79FFB4FF4E13000F09F
:1056C00093F83046FFF70FFF0AB070BDA0C900087D
:1056D00000080140000C01400010014000023000B1
:1056E00020030020E003002040420F00E0040020DF
:1056F000F0ED00E0001000E09800002010E000E075
:1057000000ED00E000580040044B1868044B1B6893
:10571000984214BF00200120704700BFEC04002015
:10572000F0040020064B07481A68C2F58061013A70
:10573000405C1A6012B94FF480621A60704700BF73
:10574000E80400201C0800200B4A0C4813680C4990
:10575000C018C8600B480068984203D9C31A4B6050
:10576000106004E0C3F580634B60002313600448BD
:10577000012102F0BFBC00BFEC0400201C0C002083
:1057800044000240F0040020074A08491368C85446
:1057900001339B059B0D1360054B1B6813F0010F34
:1057A00001D1FFF7D1BF7047F00400201C0C00208E
:1057B0004400024038B50546002401E0FFF7E4FF4D
:1057C000285D01340028F9D138BD000008B504482F
:1057D00002F0A5FC034B1B68C01A18BF012008BDCE
:1057E00058000240E80400202DE9F04593B011ACC8
:1057F0004FF400730646ADF84430022718232146C3
:105800003F488DF847304FF480688DF8467002F0BD
:1058100077FD482321463A480125ADF844808DF8AC
:10582000473002F06DFD0E2310A800248DF84030A3
:105830008DF841508DF842508DF8435002F0F2FA45
:105840004FF00C030CA92F48ADF83A300C96ADF888
:105850003440ADF83640ADF83840ADF83C4003F088
:10586000D9FA294802F0B4FB4FF480530A93274B2E
:10587000DFF8A4A0CDF810800DF104088026029373
:1058800041462023204809930B94CDF804A00394AB
:10589000059407940696089402F00CFC29461A48D1
:1058A00002F028FC2A464021164803F0A8FA1648C0
:1058B00002F035FC164B1860164802F089FB1023E5
:1058C000414614480393CDF804A005940794069626
:1058D0000894099402F0EEFB39462A460D4802F07E
:1058E00015FC0C4B31465C6006482A4603F087FAEB
:1058F0000448294603F076FA13B0BDE8F08500BFEE
:105900000008014000380140580002401C080020F7
:10591000E8040020440002400438014010B54FF470
:10592000005002F0FFFB0021064802F0E3FB064BAB
:105930001A68064B1B689A4203D0BDE81040FFF777
:1059400003BF10BD44000240F0040020EC0400201E
:105950001FB501AA02A90DF10E0001F00BFEBDF961
:105960000E00FBF791F90949FBF796FA084C2067FE
:105970000298FBF789F960670198FBF785F9A16F39
:10598000044AFDF759FEA067E0671FBD00002041F3
:1059900074110020CDCC4C3D2DE9F04F8FB0FFF7B6
:1059A00017FD704D704B0446186028680027201AB8
:1059B000FBF766F96D49FBF7BBF96D4B2C601B6873
:1059C00006469D78B9462A46BA461DE058784FF0FB
:1059D000060C0CFB00FC596801300CEB01043CF890
:1059E00001C01978B4F804E090FBF1F801FB18014C
:1059F000648859700FFA8CF17F1821B28944013AFA
:105A00000FFA8EF18A44D2B2002ADFD19A707DB3A8
:105A10002846FBF739F980463846564F564CFBF777
:105A200033F94146FBF738FAD7F87811FBF776F8E7
:105A3000616EFBF77DF9A0654846FBF725F9414605
:105A4000FBF72AFAD7F87C11FBF768F8A16EFBF791
:105A50006FF9E0655046FBF717F94146FBF71CFA72
:105A6000D7F88011FBF75AF8E16EFBF761F9206671
:105A7000424B4FF000081B68C3469878C146044665
:105A80001BE0597806274F435A68013107EB020E95
:105A9000BF5A1A78BEF804C091FBF2FA02FB1A1240
:105AA000BEF802E00FFA8CFC5A700FFA8EFE3AB282
:105AB000013C9044F344E144E4B2002CE1D19C70F9
:105AC000002838D02C4F3B680B937B680C93BB6845
:105AD0000D93FBF7D9F882464046DFF89880FBF734
