:020000040800F2
:1000000000500020C5130008691400086914000896
:100010006914000869140008691400080000000051
:10002000000000000000000000000000691400084B
:10003000691400080000000069140008C15B000892
:10004000691400086914000869140008691400089C
:10005000691400086914000869140008691400088C
:10006000691400086914000869140008691400087C
:100070006914000869140008456200086914000842
:10008000691400086914000869140008691400085C
:10009000691400086914000869140008691400084C
:1000A0006914000869140008691400080958000858
:1000B000FD570008F1570008E55700089154000863
:1000C000515100088D5400084D5100086914000872
:1000D00069140008691400083D5F000869140008ED
:1000E000217B000869140008691400080000000062
:1000F0000000000000000000000000000000000000
:0C01000000000000000000005FF808F1A3
:1001100040F2DC13C2F200031A780AB90120187009
:10012000704700BF40F2DC10C2F2000008B503685F
:100130002BB140F20003C0F2000303B1984708BDA1
:1001400081F0004102E000BF83F0004330B54FEA88
:1001500041044FEA430594EA050F08BF90EA020FF5
:100160001FBF54EA000C55EA020C7FEA645C7FEA88
:10017000655C00F0E2804FEA5454D4EB5555B8BFAB
:100180006D420CDD2C4480EA020281EA030382EA1C
:10019000000083EA010180EA020281EA0303362DAE
:1001A00088BF30BD11F0004F4FEA01314FF4801C81
:1001B0004CEA113102D0404261EB410113F0004F93
:1001C0004FEA03334CEA133302D0524263EB43034A
:1001D00094EA050F00F0A780A4F10104D5F1200EE8
:1001E0000DDB02FA0EFC22FA05F2801841F1000143
:1001F00003FA0EF2801843FA05F359410EE0A5F117
:1002000020050EF1200E012A03FA0EFC28BF4CF047
:10021000020C43FA05F3C01851EBE37101F00045FD
:1002200007D54FF0000EDCF1000C7EEB00006EEB0A
:100230000101B1F5801F1BD3B1F5001F0CD3490894
:100240005FEA30004FEA3C0C04F101044FEA4452EB
:1002500012F5800F80F09A80BCF1004F08BF5FEA72
:10026000500C50F1000041EB045141EA050130BD52
:100270005FEA4C0C404141EB010111F4801FA4F1F5
:100280000104E9D191F0000F04BF01460020B1FA4A
:1002900081F308BF2033A3F10B03B3F120020CDA82
:1002A0000C3208DD02F1140CC2F10C0201FA0CF060
:1002B00021FA02F10CE002F11402D8BFC2F1200CC5
:1002C00001FA02F120FA0CFCDCBF41EA0C0190407B
:1002D000E41AA2BF01EB0451294330BD6FEA0404C4
:1002E0001F3C1CDA0C340EDC04F11404C4F12002AF
:1002F00020FA04F001FA02F340EA030021FA04F3C1
:1003000045EA030130BDC4F10C04C4F1200220FA17
:1003100002F001FA04F340EA0300294630BD21FA55
:1003200004F0294630BD94F0000F83F4801306BF1B
:1003300081F480110134013D4EE77FEA645C18BF0F
:100340007FEA655C29D094EA050F08BF90EA020FA6
:1003500005D054EA000C04BF1946104630BD91EA9E
:10036000030F1EBF0021002030BD5FEA545C05D1A1
:100370004000494128BF41F0004130BD14F58004E0
:100380003CBF01F5801130BD01F0004545F0FE4154
:1003900041F470014FF0000030BD7FEA645C1ABF89
:1003A000194610467FEA655C1CBF0B46024650EAC0
:1003B000013406BF52EA033591EA030F41F40021EC
:1003C00030BD00BF90F0000F04BF0021704730B572
:1003D0004FF4806404F132044FF000054FF0000147
:1003E00050E700BF90F0000F04BF0021704730B508
:1003F0004FF4806404F1320410F0004548BF4042DD
:100400004FF000013EE700BF42004FEAE2014FEA31
:1004100031014FEA02701FBF12F07F4393F07F4F0C
:1004200081F06051704792F0000F14BF93F07F4F3E
:10043000704730B54FF4607401F0004521F0004181
:1004400020E700BF50EA010208BF704730B54FF007
:1004500000050AE050EA010208BF704730B511F00C
:10046000004502D5404261EB41014FF4806404F144
:1004700032045FEA915C3FF4DCAE4FF003025FEAC6
:10048000DC0C18BF03325FEADC0C18BF033202EB4E
:10049000DC02C2F1200300FA03FC20FA02F001FAA8
:1004A00003FE40EA0E0021FA02F11444C1E600BF47
:1004B00070B54FF0FF0C4CF4E06C1CEA11541DBFFA
:1004C0001CEA135594EA0C0F95EA0C0F00F0DEF8C5
:1004D0002C4481EA030621EA4C5123EA4C5350EAAA
:1004E000013518BF52EA033541F4801143F48013FB
:1004F00038D0A0FB02CE4FF00005E1FB02E506F08C
:100500000042E0FB03E54FF00006E1FB03569CF0E0
:10051000000F18BF4EF0010EA4F1FF04B6F5007FE6
:1005200064F5407404D25FEA4E0E6D4146EB060658
:1005300042EAC62141EA55514FEAC52040EA5E50E1
:100540004FEACE2EB4F1FD0C88BFBCF5E06F1ED88B
:10055000BEF1004F08BF5FEA500E50F1000041EBC2
:10056000045170BD06F0004646EA010140EA02006F
:1005700081EA0301B4EB5C04C2BFD4EB0C0541EA91
:10058000045170BD41F480114FF0000E013C00F3A6
:10059000AB8014F1360FDEBF002001F0004170BDCA
:1005A000C4F10004203C35DA0C341BDC04F11404E3
:1005B000C4F1200500FA05F320FA04F001FA05F26F
:1005C00040EA020001F0004221F0004110EBD3703C
:1005D00021FA04F642EB06015EEA430E08BF20EA68
:1005E000D37070BDC4F10C04C4F1200500FA04F30B
:1005F00020FA05F001FA04F240EA020001F000419D
:1006000010EBD37041F100015EEA430E08BF20EA0F
:10061000D37070BDC4F1200500FA05F24EEA020E57
:1006200020FA04F301FA05F243EA020321FA04F086
:1006300001F0004121FA04F220EA020000EBD3703D
:100640005EEA430E08BF20EAD37070BD94F0000F3D
:100650000FD101F00046400041EB010111F4801F71
:1006600008BF013CF7D041EA060195F0000F18BF22
:10067000704703F00046520043EB030313F4801F5E
:1006800008BF013DF7D043EA0603704794EA0C0F18
:100690000CEA135518BF95EA0C0F0CD050EA41062E
:1006A00018BF52EA4306D1D181EA030101F00041AB
:1006B0004FF0000070BD50EA410606BF10461946D3
:1006C00052EA430619D094EA0C0F02D150EA0136DF
:1006D00013D195EA0C0F05D152EA03361CBF104620
:1006E00019460AD181EA030101F0004141F0FE41BF
:1006F00041F470014FF0000070BD41F0FE4141F443
:10070000780170BD70B54FF0FF0C4CF4E06C1CEA42
:1007100011541DBF1CEA135594EA0C0F95EA0C0FF7
:1007200000F0A7F8A4EB050481EA030E52EA0335B2
:100730004FEA013100F088804FEA03334FF08055D3
:1007400045EA131343EA12634FEA022245EA111500
:1007500045EA10654FEA00260EF000419D4208BFB1
:10076000964244F1FD0404F5407402D25B084FEA5E
:100770003202B61A65EB03055B084FEA32024FF40A
:1007800080104FF4002CB6EB020E75EB030E22BF67
:10079000B61A754640EA0C005B084FEA3202B6EB27
:1007A000020E75EB030E22BFB61A754640EA5C00D6
:1007B0005B084FEA3202B6EB020E75EB030E22BF66
:1007C000B61A754640EA9C005B084FEA3202B6EB67
:1007D000020E75EB030E22BFB61A754640EADC0026
:1007E00055EA060E18D04FEA051545EA16754FEA88
:1007F00006164FEAC30343EA52734FEAC2025FEAA6
:100800001C1CC0D111F4801F0BD141EA00014FF034
:1008100000004FF0004CB6E711F4801F04BF014305
:100820000020B4F1FD0C88BFBCF5E06F3FF6AFAE21
:10083000B5EB030C04BFB6EB020C5FEA500C50F1B1
:10084000000041EB045170BD0EF0004E4EEA113134
:1008500014EB5C04C2BFD4EB0C0541EA045170BD3B
:1008600041F480114FF0000E013C90E645EA060E7F
:100870008DE60CEA135594EA0C0F08BF95EA0C0FAD
:100880003FF43BAF94EA0C0F0AD150EA01347FF4F5
:1008900034AF95EA0C0F7FF425AF104619462CE7CC
:1008A00095EA0C0F06D152EA03353FF4FDAE10462F
:1008B000194622E750EA410618BF52EA43067FF480
:1008C000C5AE50EA41047FF40DAF52EA43057FF410
:1008D000EBAE12E74FF0FF3C06E000BF4FF0010C1B
:1008E00002E000BF4FF0010C4DF804CD4FEA410C7F
:1008F0007FEA6C5C4FEA430C18BF7FEA6C5C1BD04C
:1009000001B050EA410C0CBF52EA430C91EA030FCC
:1009100002BF90EA020F0020704710F1000F91EA29
:10092000030F58BF994208BF90422CBFD8176FEAF7
:10093000E37040F0010070474FEA410C7FEA6C5CC5
:1009400002D150EA013C07D14FEA430C7FEA6C5CCC
:10095000D6D152EA033CD3D05DF8040B704700BFF8
:100960008446104662468C461946634600E000BF46
:1009700001B5FFF7B7FF002848BF10F1000F01BD18
:100980004DF808EDFFF7F4FF0CBF012000205DF8E3
:1009900008FB00BF4DF808EDFFF7EAFF34BF012068
:1009A00000205DF808FB00BF4DF808EDFFF7E0FF01
:1009B00094BF012000205DF808FB00BF4DF808ED52
:1009C000FFF7CEFF94BF012000205DF808FB00BFB9
:1009D0004DF808EDFFF7C4FF34BF012000205DF89B
:1009E00008FB00BF4FEA410212F5001215D211D5E3
:1009F0006FF47873B3EB625212D94FEAC12343F01C
:100A0000004343EA505311F0004F23FA02F018BF9D
:100A1000404270474FF00000704750EA013005D166
:100A200011F0004008BF6FF0004070474FF0000029
:100A3000704700BF4A0011D212F5001211D20DD535
:100A40006FF47873B3EB62520ED44FEAC12343F0D4
:100A5000004343EA505323FA02F070474FF000007E
:100A6000704750EA013002D14FF0FF3070474FF02D
:100A7000000070474FEA4102B2F1E04324BFB3F5F2
:100A8000001CDCF1FE5C0DD901F0004C4FEAC00205
:100A90004CEA5070B2F1004F40EB830008BF20F0E9
:100AA0000100704711F0804F21D113F13872BCBFA3
:100AB00001F00040704741F480114FEA5252C2F1F8
:100AC0001802C2F1200C10FA0CF320FA02F018BF41
:100AD00040F001004FEAC1234FEAD32303FA0CFC94
:100AE00040EA0C0023FA02F34FEA4303CCE77FEA23
:100AF000625307D150EA01331EBF4FF0FE4040F46D
:100B00004000704701F0004040F0FE4040F400001B
:100B1000704700BF80F0004002E000BF81F000415C
:100B200042001FBF5FEA410392EA030F7FEA226C93
:100B30007FEA236C6AD04FEA1262D2EB1363C1BF23
:100B4000D218414048404140B8BF5B42192B88BF92
:100B5000704710F0004F40F4000020F07F4018BFB5
:100B6000404211F0004F41F4000121F07F4118BFD5
:100B7000494292EA030F3FD0A2F1010241FA03FC7D
:100B800010EB0C00C3F1200301FA03F100F0004365
:100B900002D5494260EB4000B0F5000F13D3B0F12D
:100BA000807F06D340084FEA310102F10102FE2A9C
:100BB00051D2B1F1004F40EBC25008BF20F001000C
:100BC00040EA03007047490040EB000010F4000FBA
:100BD000A2F10102EDD1B0FA80FCACF1080CB2EB4D
:100BE0000C0200FA0CF0AABF00EBC25052421843AC
:100BF000BCBFD0401843704792F0000F81F4000151
:100C000006BF80F400000132013BB5E74FEA410323
:100C10007FEA226C18BF7FEA236C21D092EA030F8F
:100C200004D092F0000F08BF0846704790EA010F09
:100C30001CBF0020704712F07F4F04D1400028BF36
:100C400040F00040704712F100723CBF00F5000018
:100C5000704700F0004343F0FE4040F4000070474E
:100C60007FEA226216BF08467FEA236301464202FA
:100C700006BF5FEA412390EA010F40F4800070470D
:100C80004FF0000304E000BF10F0004348BF4042B3
:100C90005FEA000C08BF704743F0964301464FF0EF
:100CA00000001CE050EA010208BF70474FF000034B
:100CB0000AE000BF50EA010208BF704711F000438C
:100CC00002D5404261EB41015FEA010C02BF84465C
:100CD0000146002043F0B64308BFA3F18053A3F5BB
:100CE0000003BCFA8CF2083AA3EBC25310DB01FA02
:100CF00002FC634400FA02FCC2F12002BCF1004F86
:100D000020FA02F243EB020008BF20F00100704716
:100D100002F1200201FA02FCC2F1200250EA4C006A
:100D200021FA02F243EB020008BF20EADC707047B0
:100D30004FF0FF0C1CEAD0521EBF1CEAD15392EABE
:100D40000C0F93EA0C0F6FD01A4480EA010C40029A
:100D500018BF5FEA41211ED04FF0006343EA5010F4
:100D600043EA5111A0FB01310CF00040B1F5000F36
:100D70003EBF490041EAD3715B0040EA010062F1E5
:100D80007F02FD2A1DD8B3F1004F40EBC25008BFCF
:100D900020F00100704790F0000F0CF0004C08BFED
:100DA00049024CEA502040EA51207F3AC2BFD2F1BA
:100DB000FF0340EAC250704740F400004FF00003C8
:100DC000013A5DDC12F1190FDCBF00F00040704702
:100DD000C2F10002410021FA02F1C2F1200200FA40
:100DE00002FC5FEA310040F1000053EA4C0308BF07
:100DF00020EADC70704792F0000F00F0004C02BF58
:100E0000400010F4000F013AF9D040EA0C0093F0D2
:100E1000000F01F0004C02BF490011F4000F013B2C
:100E2000F9D041EA0C018FE70CEAD15392EA0C0F9A
:100E300018BF93EA0C0F0AD030F0004C18BF31F005
:100E4000004CD8D180EA010000F00040704790F0DB
:100E5000000F17BF90F0004F084691F0000F91F07F
:100E6000004F14D092EA0C0F01D142020FD193EA45
:100E70000C0F03D14B0218BF084608D180EA0100CD
:100E800000F0004040F0FE4040F40000704740F0A9
:100E9000FE4040F4400070474FF0FF0C1CEAD05277
:100EA0001EBF1CEAD15392EA0C0F93EA0C0F69D0D3
:100EB000A2EB030280EA010C49024FEA402037D03E
:100EC0004FF0805343EA111143EA10130CF0004035
:100ED0008B4238BF5B0042F17D024FF4000C8B4225
:100EE00024BF5B1A40EA0C00B3EB510F24BFA3EB05
:100EF000510340EA5C00B3EB910F24BFA3EB9103D5
:100F000040EA9C00B3EBD10F24BFA3EBD10340EA2E
:100F1000DC001B0118BF5FEA1C1CE0D1FD2A3FF674
:100F200050AF8B4240EBC25008BF20F00100704729
:100F30000CF0004C4CEA50207F32C2BFD2F1FF03CC
:100F400040EAC250704740F400004FF00003013AFD
:100F500037E792F0000F00F0004C02BF400010F4A1
:100F6000000F013AF9D040EA0C0093F0000F01F0B5
:100F7000004C02BF490011F4000F013BF9D041EAD7
:100F80000C0195E70CEAD15392EA0C0F08D142020A
:100F90007FF47DAF93EA0C0F7FF470AF084676E7DD
:100FA00093EA0C0F04D14B023FF44CAF08466EE7B6
:100FB00030F0004C18BF31F0004CCAD130F0004284
:100FC0007FF45CAF31F000437FF43CAF5FE700BFDC
:100FD0004FF0FF3C06E000BF4FF0010C02E000BF05
:100FE0004FF0010C4DF804CD4FEA40024FEA4103A7
:100FF0007FEA226C18BF7FEA236C11D001B052EA5D
:10100000530C18BF90EA010F58BFB2EB030088BF22
:10101000C81738BF6FEAE17018BF40F00100704791
:101020007FEA226C02D15FEA402C05D17FEA236C73
:10103000E4D15FEA412CE1D05DF8040B704700BFBA
:10104000844608466146FFE70FB5FFF7C9FF002851
:1010500048BF10F1000F0FBD4DF808EDFFF7F4FF8A
:101060000CBF012000205DF808FB00BF4DF808ED23
:10107000FFF7EAFF34BF012000205DF808FB00BF46
:101080004DF808EDFFF7E0FF94BF012000205DF868
:1010900008FB00BF4DF808EDFFF7D2FF94BF012019
:1010A00000205DF808FB00BF4DF808EDFFF7C8FF12
:1010B00034BF012000205DF808FB00BF4FEA40026A
:1010C000B2F1FE4F0FD34FF09E03B3EB12620DD976
:1010D0004FEA002343F0004310F0004F23FA02F0E0
:1010E00018BF404270474FF00000704712F1610F87
:1010F00001D1420205D110F0004008BF6FF000405E
:1011000070474FF00000704742000ED2B2F1FE4F20
:101110000BD34FF09E03B3EB126209D44FEA0023C6
:1011200043F0004323FA02F070474FF0000070478D
:1011300012F1610F01D1420202D14FF0FF3070472E
:101140004FF00000704700BF4A1E08BF7047C0F054
:101150002481884240F21681114200F01781B0FAD2
:1011600080F3B1FA81F2A2EB0303C3F11F0304A2DF
:1011700002EB03134FF000029F4600BFAFF3008065
:10118000B0EBC17F00BF42EB020228BFA0EBC170F1
:10119000B0EB817F00BF42EB020228BFA0EB817061
:1011A000B0EB417F00BF42EB020228BFA0EB4170D1
:1011B000B0EB017F00BF42EB020228BFA0EB017041
:1011C000B0EBC16F00BF42EB020228BFA0EBC160D1
:1011D000B0EB816F00BF42EB020228BFA0EB816041
:1011E000B0EB416F00BF42EB020228BFA0EB4160B1
:1011F000B0EB016F00BF42EB020228BFA0EB016021
:10120000B0EBC15F00BF42EB020228BFA0EBC150B0
:10121000B0EB815F00BF42EB020228BFA0EB815020
:10122000B0EB415F00BF42EB020228BFA0EB415090
:10123000B0EB015F00BF42EB020228BFA0EB015000
:10124000B0EBC14F00BF42EB020228BFA0EBC14090
:10125000B0EB814F00BF42EB020228BFA0EB814000
:10126000B0EB414F00BF42EB020228BFA0EB414070
:10127000B0EB014F00BF42EB020228BFA0EB0140E0
:10128000B0EBC13F00BF42EB020228BFA0EBC13070
:10129000B0EB813F00BF42EB020228BFA0EB8130E0
:1012A000B0EB413F00BF42EB020228BFA0EB413050
:1012B000B0EB013F00BF42EB020228BFA0EB0130C0
:1012C000B0EBC12F00BF42EB020228BFA0EBC12050
:1012D000B0EB812F00BF42EB020228BFA0EB8120C0
:1012E000B0EB412F00BF42EB020228BFA0EB412030
:1012F000B0EB012F00BF42EB020228BFA0EB0120A0
:10130000B0EBC11F00BF42EB020228BFA0EBC1102F
:10131000B0EB811F00BF42EB020228BFA0EB81109F
:10132000B0EB411F00BF42EB020228BFA0EB41100F
:10133000B0EB011F00BF42EB020228BFA0EB01107F
:10134000B0EBC10F00BF42EB020228BFA0EBC1000F
:10135000B0EB810F00BF42EB020228BFA0EB81007F
:10136000B0EB410F00BF42EB020228BFA0EB4100EF
:10137000B0EB010F00BF42EB020228BFA0EB01005F
:10138000104670470CBF012000207047B1FA81F26F
:10139000C2F11F0220FA02F0704708B14FF0FF308F
:1013A00000F00EB80029F8D02DE90340FFF7CCFE7D
:1013B000BDE8064002FB00F3A1EB0301704700BF4C
:1013C000704700BF1A481B49026800608A4219D062
:1013D000002103E0184B5B58435004311748184B69
:1013E00042189A42F6D3174A02E0002342F8043B1F
:1013F000154B9A42F9D306F0CDFF0AF0D1FE00F06A
:1014000073F8FEE7114E124830601248016821F06F
:1014100070610160410201600F4C182020600F498B
:101420000F4808600F48D0F800D04068004700001F
:10143000F04F0020EFBEADDED4DE0008000000203B
:10144000DC010020DC010020380E002018100240D2
:101450000900000004000140140C0140000C014090
:101460004434434400F0FF1FFEE700000F4B93F8A5
:1014700020312BB90E4BDA6882F01002DA6009E0F5
:101480000C4B1B791BB10A4B10225A6102E0084B2E
:1014900010221A61074B5B781BB1054B08225A6179
:1014A0007047034B08221A61704700BF780900207B
:1014B000000C01404809002010B504F089FB084BDE
:1014C000084A19681860411A116001F029F900F002
:1014D00011F901F005F8BDE8104001F037B800BF80
:1014E000E0010020300800201FB504F04BFC03F0A1
:1014F000F7FB474803F05CFC4FF4E13004F008FED2
:1015000005F0E0FF00F0A8F8424B93F836300E2BC0
:1015100001D0082B02D101238DF80830012002F000
:101520002BFA01238DF804303B4B8DF805001B7816
:1015300001A8003B18BF01238DF80630354B93F806
:101540007A20D20802F001028DF80720DA8A1B8B7C
:10155000ADF80A20ADF80C3004F012FA402002F089
:101560000BFA2E4B20B12E4A1A6004F0D9FA01E092
:101570002C4A1A6001F02AF84FF4FA6004F0B1FB2B
:10158000244B93F830310BB105F09EFD26484FF403
:10159000FA7104F035FB254B1B8813F0010F04D0C2
:1015A00023484FF4FA7104F02BFB204B1B8813F0F7
:1015B000040F04D01F4844F6206104F021FB1E48AC
:1015C00040F6B83104F01CFB1C484FF47A6104F07B
:1015D00017FB1B4844F6206104F012FB194849F63A
:1015E000404104F00DFB184844F6206104F008FB6C
:1015F0001648174904F004FB022002F0BDF920B19F
:10160000144849F6404104F0FBFA04F01DFBFCE7E6
:101610000058004078090020E401002068090020FB
:10162000895A000831550008BD750008E007002000
:101630000D7600085D760008D5620008B914000830
:101640005134000879620008C54100086D14000893
:10165000A0860100AD76000808B5224B93F836301D
:10166000042B07D0012B05D0082B03D00E2B01D063
:10167000052B02D11C4B01221A70082002F07CF9C4
:1016800010B1194B01221A70164B93F83630013BFA
:10169000112B26D8DFE803F00F11110D0913130BDE
:1016A00011131515150B2525111900220AE0012229
:1016B00008E0022206E0032204E0042202E00622FF
:1016C00000E00822094B1A7008BD00231A46084999
:1016D000C95C09B10132D2B21433F02BF7D1034BFC
:1016E0001A7008BD78090020E401002010000020D5
:1016F000E80100202DE9F74F9B4B1B78032B3CD9C9
:101700009A4B00219D689A4B4FF000069C6820463A
:10171000FFF7CAFC08B14FF00106F6B216B19548C2
:10172000214601E094492046FFF7F8F90146284692
:10173000FFF79CFC28B10EB18E4818E020468E4978
:1017400016E026B120468C49FFF7EAF903E08A4803
:101750002146FFF7E3F901462846FFF7A5FC50B103
:1017600026B120468449FFF7DBF903E08248214691
:10177000FFF7D4F905467D4B9D60804C94F83630D8
:10178000013B102B00F2B085DFE813F07A000E0168
:10179000540111001F05D40144028C059801BB02BD
:1017A0003503A6033C04AE05AE05AE05D604704B6A
:1017B0006E4DD868E968FFF7B3F96E68824600217C
:1017C0003046FFF7B5FA074694F97200FFF75CFA66
:1017D000A968FFF7ADFA00218146FFF7A9FAD5F80D
:1017E0000080054641465046FFF79AF93946FFF713
:1017F00097F92946FFF794F9FFF760FC604C4146E2
:1018000020805046FFF78AF93946FFF789F92946C3
:10181000FFF786F9FFF752FC5A4960804846FFF708
:101820007FF931460546FFF77BF957490446FFF734
:101830001DFC10B14FF47F700BE020465349FFF7B9
:1018400033FC10B14FF4FA6003E02046FFF736FC9A
:1018500080B24F4B314618812846FFF75FF94A495D
:101860000446FFF703FC10B14FF47F7098E0204668
:101870004649FFF719FC002874D04FF4FA608FE056
:101880003B4B3A4DD868E968FFF74AF9804694F92E
:101890007200FFF7F9F9A968FFF74AFA00218146BB
:1018A000FFF746FA2F68064600213846FFF740FA50
:1018B00001464046FFF734F9D5F804A083464FF0BF
:1018C00081415046FFF734FA3249FFF7E5FA014605
:1018D0005846FFF725F93146FFF722F9FFF7EEFBEF
:1018E000274D4FF0404128805046FFF721FA294903
:1018F000FFF7D2FA394682464046FFF70FF95146C4
:10190000FFF70EF93146FFF70BF9FFF7D7FB394622
:1019100068804046FFF704F95146FFF701F9314668
:10192000FFF7FEF8FFF7CAFBA880B4F87600FFF7D0
:10193000ABF94946FFF7F4F80546B4F87400FFF731
:10194000A3F9044621462846FFF790FB50B90B4BFC
:10195000B3F87800FFF798F9044621462846FFF7C8
:10196000A3FBC8B1204618E0100000202C0900207D
:10197000840000200000C8C20000C842780900208E
:10198000340800200080BB4400007F440000FA447B
:1019900000000020000040402846FFF78FFB80B287
:1019A000974B588100F0A0BC964B974DD868E968DA
:1019B000FFF7B6F82F68804600213846FFF7B8F9E0
:1019C00001464046FFF7ACF8824694F97200FFF7F3
:1019D0005BF9A968FFF7ACF96E68054631465046D9
:1019E000FFF79EF82946FFF799F8FFF767FB874C4A
:1019F000002120803046FFF79BF93946814640465A
:101A0000FFF78CF84946FFF78BF82946FFF788F86F
:101A1000FFF754FB394660804046FFF781F849469E
:101A2000FFF77EF82946FFF77BF8FFF747FBA0801A
:101A3000504638E0734B744DD868E968FFF770F88A
:101A40002F6882463946FFF769F8804694F972009C
:101A5000FFF71AF9A968FFF76BF96E68054631467A
:101A60004046FFF75DF82946FFF758F8FFF726FBD9
:101A7000664C314620804046FFF750F82946FFF774
:101A80004FF8FFF71BFB394660805046FFF748F8D8
:101A900031460746FFF744F82946FFF741F8FFF7BC
:101AA0000DFBA08038463146FFF738F82946FFF78E
:101AB00035F8FFF703FBE08000F016BC514B524DA8
:101AC000D868E968FFF72CF82F688046002138466F
:101AD000FFF72EF96E6801464046FFF721F83146C0
:101AE000FFF71EF8824694F97200FFF7CDF8A96857
:101AF000FFF71EF9054629465046FFF70FF8FFF796
:101B0000DDFA424C002120802846FFF711F93946C2
:101B100081464046FFF702F83146FEF7FFFF49468F
:101B2000FEF7FEFFFFF7CAFA294660805046FEF72F
:101B3000F7FF3CE3334B344DD868E968FEF7F0FF1C
:101B40002E68074600213046FFF7F2F80146384676
:101B5000FEF7E6FFD5F804A080464FF081415046DD
:101B6000FFF7E6F82A49FFF797F901464046FEF7E6
:101B7000D7FF804694F97200FFF786F8A968FFF74F
:101B8000D7F8054629464046FEF7CAFFFFF796FA02
:101B90001E4C4FF0404120805046FFF7C9F81C49C9
:101BA000FFF77AF9314682463846FEF7B7FF5146CD
:101BB000FEF7B6FF29468146FEF7B0FFFFF77EFA33
:101BC000314660803846FEF7ABFF5146FEF7A8FF6E
:101BD00029460646FEF7A2FFFFF770FA2946A080C5
:101BE0004046FEF79BFFFFF769FA2946E08048462A
:101BF000FEF796FFFFF762FA20813046F7E000BF5C
:101C000000000020840000202C090020340800205F
:101C100000004040A84BA94DD868E968FEF780FF56
:101C2000D5F8008007464FF03F414046FFF780F867
:101C300001463846FEF774FF6E6881464FF07C51CE
:101C40003046FFF775F8824694F97200FFF71CF8EA
:101C5000A968FFF76DF8514605464846FEF760FF54
:101C60002946FEF75DFFFFF729FA954C4FF03F41FB
:101C700020803046FFF75CF8834659464846FEF719
:101C80004FFF2946FEF74AFFFFF718FA4FF07C5145
:101C900060804046FFF74CF801463846FEF740FFAB
:101CA00051468146FEF73CFF2946FEF739FFFFF714
:101CB00005FA5946A0804846FEF732FF2946FEF74E
:101CC0002DFFFFF7FBF90021E0804046FFF730F8D9
:101CD00001463846FEF724FF31460746FEF71EFF51
:101CE0002946FEF71DFFFFF7E9F931462081384606
:101CF000FEF716FF2946FEF711FFFFF7DFF96081B7
:101D0000F2E26D4B6D4DD868E968FEF709FFD5F832
:101D1000009082466B494846FFF70AF86A49FFF788
:101D2000BBF801465046FEF7FBFE6F680646674962
:101D30003846FEF7FDFF6649FFF7AEF8804694F996
:101D40007200FEF7A1FFA968FEF7F2FF41460546C3
:101D50003046FEF7E5FE2946FEF7E2FEFFF7AEF954
:101D6000574C5C4920803846FEF7E2FF5849FFF7A0
:101D700093F8834659463046FEF7D2FE2946FEF7D1
:101D8000CFFEFFF79BF94FF0814160804846FEF798
:101D9000CFFF4D49FFF780F801465046FEF7C0FEE1
:101DA00041468246FEF7BCFE2946FEF7B7FEFFF726
:101DB00085F95946A0805046FEF7B2FE2946FEF747
:101DC000ADFEFFF77BF90021E0803846FEF7B0FF5B
:101DD000074639463046FEF7A3FE2946FEF79EFE2B
:101DE000FFF76CF9394620815046FEF799FE2946E7
:101DF000FEF796FE81E7304B304DD868E968FEF774
:101E00008FFED5F8008082464146FEF787FE6E6859
:101E100081463146FEF784FE074694F97200FEF7CC
:101E200033FFA968FEF784FF054629463846FEF7CA
:101E300075FEFFF743F9224C314620804846FEF7F5
:101E40006DFE29468146FEF76BFEFFF737F94146E6
:101E500060805046FEF764FE31468246FEF760FE23
:101E600029468046FEF75CFEFFF728F93146A08040
:101E70005046FEF753FE29460646FEF74FFEFFF793
:101E80001DF92946E0803846FEF74AFEFFF716F9AD
:101E9000294620814846FEF741FEFFF70FF9294603
:101EA00060814046FEF73AFEFFF708F92946A08117
:101EB0003046FEF735FE2EE1840000202C0900207C
:101EC00034080020000080C00000A0400000104145
:101ED00000002041000010C1914B924DD868E96884
:101EE000FEF71EFE2E6807468F493046FEF720FF9C
:101EF0008E49FEF7D1FF01463846FEF711FED5F8B0
:101F0000048082468A494046FEF712FF8749FEF761
:101F1000C3FF814694F97200FEF7B6FEA968FEF78A
:101F200007FF494605465046FEF7FAFD2946FEF7EB
:101F3000F7FDFFF7C3F87F4C7D4920803046FEF760
:101F4000F7FE7A49FEF7A8FF01463846FEF7E8FD9E
:101F500049468346FEF7E4FD2946FEF7E1FDFFF71B
:101F6000ADF8714960804046FEF7E2FE6F49FEF72A
:101F700093FF814649465846FEF7D2FD2946FEF7B3
:101F8000CFFDFFF79BF84946A0805046FEF7C8FDFD
:101F90002946FEF7C5FDFFF791F80021E0803046A5
:101FA000FEF7C6FE01463846FEF7BAFD41468146B9
:101FB000FEF7B4FD2946FEF7B1FDFFF77FF80021DB
:101FC00020814046FEF7B4FE314682463846FEF791
:101FD000A5FD5146FEF7A4FD2946FEF79FFDFFF73C
:101FE0006DF8414660814846FEF79AFD2946FEF7A6
:101FF00095FDFFF763F83146A0813846FEF790FD66
:10200000514683E0464B474DD868E968FEF788FDA6
:102010002F6880463946FEF783FD6E6882464FF092
:102020003F413046FEF784FE814694F97200FEF788
:102030002BFEA968FEF77CFE494605465046FEF792
:102040006FFD2946FEF76CFDFFF738F8394C4FF06D
:102050003F4120803846FEF76BFE01464046FEF7C2
:102060005FFD31460090FEF759FD2946FEF758FD09
:10207000FFF724F8394660804046FEF74FFD4FF0E9
:102080007C5183463046FEF753FE034619465846B8
:102090000193FEF745FD2946FEF742FDFFF70EF8D6
:1020A0004FF07C51A0803846FEF742FE0146404684
:1020B000FEF736FD31460746FEF732FD2946FEF7AC
:1020C0002FFDFEF7FBFF3146E0803846FEF726FD88
:1020D0002946FEF723FDFEF7F1FF494620815846C9
:1020E000FEF71EFD2946FEF719FDFEF7E7FF6081AA
:1020F000009A31461046FEF713FD2946FEF70EFD05
:10210000FEF7DCFF019BA08119465046FEF708FD53
:102110002946FEF703FDFEF7D1FFE081E4E000BFB2
:10212000840000202C0900200000E0400000204135
:102130000000E0C034080020764B774DD868E9688D
:10214000FEF7EEFC2F68804600213846FEF7F0FDD2
:102150006E6801464046FEF7E3FC3146FEF7E0FCC0
:10216000824694F97200FEF78FFDA968FEF7E0FD44
:10217000054629465046FEF7D3FCFEF79FFF674C05
:10218000002120802846FEF7D3FD3946814640468F
:10219000FEF7C4FC3146FEF7C1FC4946FEF7C0FC21
:1021A000FEF78CFF294660805046FEF7B7FCFEF72D
:1021B00085FF3946A0804046FEF7B2FC3146FEF767
:1021C000ADFC4946FEF7ACFC73E4B4F88A00FEF7B8
:1021D0005BFD534B05465969D4F89000FEF7A8FD06
:1021E0004FF08641FEF7A4FD01462846FEF798FC15
:1021F000484B5968FEF794FC0546B4F88800FEF792
:1022000043FD044621462846FEF730FF50B9454BB2
:10221000B3F88C00FEF738FD044621462846FEF749
:1022200043FF08B1204600E02846FEF747FF3D4C3B
:102230003D4B80B21880B4F87E00FEF725FD384B88
:1022400005461969D4F88400FEF772FD4FF0864107
:10225000FEF76EFD01462846FEF762FC2D4B19681D
:10226000FEF75EFC0546B4F87C00FEF70DFD064661
:1022700031462846FEF7FAFE08B130460CE0B4F8C5
:102280008000FEF701FD044621462846FEF70CFFBC
:1022900008B1204600E02846FEF710FF224B80B22E
:1022A000588021E01B4B204CD868FEF707FF1B4BE2
:1022B00018801E4B9B7A23B14FF00003238063806C
:1022C00012E0154D00216868FEF732FD0021064638
:1022D0002868FEF72DFD01463046FEF721FCFEF78B
:1022E000EDFE80B220806080082001F045FB0028D0
:1022F0007DD00C4A92F87A3013F0030004D00C49D8
:10230000528F8889801A80B213F0040F12D00027F0
:1023100016E000BF840000202C09002034080020B3
:10232000BC0D002078090020000000204809002092
:1023300094000020624BDF89624B5B8FFF1ABFB2B3
:10234000604D614CB5F88A30C018B5F87E3080B267
:10235000FF185E4BBFB2DB782080678043B300B2CA
:10236000FEF792FC5A4E80467169D5F89000FEF750
:10237000DFFC4FF08641FEF7DBFC01464046FEF7EE
:10238000CFFBFEF79BFE208038B2FEF77DFC316963
:102390000746D5F88400FEF7CBFC4FF08641FEF7E8
:1023A000C7FC01463846FEF7BBFBFEF787FE6080A0
:1023B000454B4449B3F90020B1F888309A4205DB17
:1023C000B1F88C309342A8BF13469BB23E4A3D49B8
:1023D0001380B2F90220B1F87C309A4205DBB1F8E3
:1023E00080309342A8BF13469BB2374A5380354B87
:1023F00093F87A3013F0080F12D0082001F0BCFADD
:102400002F4C002814BF0225002504F10806284699
:1024100021890234013503F07DF8B442EDB2F6D1E2
:102420002C4B1D882C4B1A78012308E029492DB22A
:1024300031F9131001338D42B8BF0D46ADB293424E
:10244000F4D30024264635E01E4B2AB2B3F84430BC
:102450009A4204DD1F4AA15A5918491BA1521D4A2C
:102460001849A25EB1F842108A4201DA0B4603E035
:102470009342A8BF13469BB2164A124FA352104B69
:1024800004EB0208B3F90620FB8F9A4209DA042014
:1024900001F072FA08B13F8F01E0B7F84270A8F876
:1024A00000700E4B5B781BB9064A0A4B128FE25242
:1024B00001360234084B1B789E42C5D3BDE8FE8F1F
:1024C0009400002078090020000000205809002016
:1024D000BC0D002034080020100000204809002016
:1024E00010B5174B1B78002B29D0164B93F83630BC
:1024F000013B0D2B14D8DFE803F00F13130717135C
:1025000013221313131313220F4C0020218903F0FD
:1025100001F8012061890EE00B4B002059890AE087
:10252000082001F029FA50B1074C0020218802F060
:10253000F1FF61880120BDE8104002F0EBBF10BD43
:10254000E4010020780900200000002010B50024DC
:1025500007E0064B204633F8141002F0CDFF01349B
:10256000E4B2034B1B78A342F3D810BD340800201B
:1025700010000020064A074B11789A1C02EB41021A
:1025800001E023F8020C02339342FAD1FFF7DEBFD9
:10259000100000203408002038B50546002410E063
:1025A000094B0134B3F94200FFF7E4FFFA2003F0CE
:1025B00098FB4FF47A70FFF7DDFFFA2003F091FBF0
:1025C000E4B2AC42ECD338BD780900200A4B0B4A88
:1025D00003F17001D3F8A0001060D3F8A40050609C
:1025E000D3F8A8009060D3F8AC001033D06020324C
:1025F0008B42EFD1704700BF780900204C080020C3
:10260000054B03F1E00100221A615A619A61DA6117
:1026100020338B42F7D170474C080020034A002337
:10262000036143619361D361704700BF4C08002090
:102630002DE9F04704460D46D0F814906168104625
:102640001746FEF775FB3349FEF772FB0146284635
:10265000FEF76EFB2169FEF763FAD4F80CA0804602
:1026600020612D495046FEF763FB06463146404641
:10267000FEF7FCFC50B927495046FEF759FB0646C9
:1026800031464046FEF710FD00B946462661384601
:102690002249FEF745FA01463846FEF7FDFBD4F81D
:1026A0001480824649462846FEF738FA3946FEF736
:1026B000F3FB4146FEF732FA01465046FEF738FB7F
:1026C00001464046FEF72CFAA76965613946824605
:1026D000FEF726FAE169FEF723FA21688046E761F2
:1026E000C4F818A02846FEF723FB0A4905463046E1
:1026F000FEF7D2FB01462846FEF712FAA16805460E
:102700004046FEF715FB01462846FEF709FABDE8EC
:10271000F08700BF00007A4400007AC43661023CB2
:102720002DE9F84503F054FA894E8A4B05461860A6
:102730003068281AFEF7A4FA8749FEF7F9FA874BA2
:1027400004461A793560002A3DD0854DDFF8208295
:102750006868FDF759FE7AA3D3E90023FDF7A8FEC8
:10276000FEF788F907462868FDF74EFE74A3D3E903
:102770000023FDF79DFE7B4DFEF77CF9D8F8101085
:10278000FEF7CCF9D5F81011FEF7C8F902F03EF9C2
:10279000224601467448FFF74BFF02F037F9D8F89C
:1027A000141006463846FEF7B9F9D5F81411FEF7AD
:1027B000B5F902F02BF9224601466C48FFF738FFC5
:1027C00002F024F945E05B7A654D002B2CD0684B74
:1027D0009869684B1968FEF7A1F9064606F0F0FE05
:1027E0008246304606F026FFD5F80080074651465F
:1027F0004046FEF79DFA6D68064639462846FEF7C4
:1028000097FA01463046FEF789F9514606462846B2
:10281000FEF78EFA394605464046FEF789FA01462C
:102820002846FEF77DF914E02868FDF7EDFD46A384
:10283000D3E90023FDF73CFEFEF71CF90646686865
:10284000FDF7E2FD40A3D3E90023FDF731FEFEF7DB
:1028500011F9424B05465B79CBB1474B9B78B3B13D
:10286000464B9B7813B94648FFF7D8FE454B18688E
:102870003F4B9969FEF752F902F0C8F8224601462B
:102880003F48FFF7D5FE02F0C1F880460FE0344B19
:102890009868FDF7B9FD2CA3D3E90023FDF708FEE6
:1028A000FEF7E8F8324B80469A69364B1A602B4B9C
:1028B0009B7903B32E4BD86DFEF7E6F9324B0146F8
:1028C0001868FEF72BF93149FEF7E6FA2246014671
:1028D0002F48FFF7ADFE2F490746FEF7C7FB08B1AB
:1028E0002C4F05E038462C49FEF7DEFB00B12A4F9D
:1028F0002A4BDF6002E0294B0022DA601C4F304691
:10290000F969FEF70BF9224601462548FFF790FECC
:10291000224E396A30602846FEF700F92246014609
:102920002048FFF785FE796A70604046FEF7F6F8AA
:10293000224601461C48FFF77BFEB060BDE8F885E3
:10294000FCA9F1D24D62603F7B14AE47E17A743F3F
:10295000DC020020D8020020BD378635480900205F
:102960008400002078090020AC080020CC0800205A
:10297000BC0D00207009002080000020A400002071
:10298000EC080020400900206C09002000002041D4
:102990000C090020000048C3000048432C09002017
:1029A0004C0800206C0800208C080020AFF3008049
:1029B000014B01221A70704700030020014803F008
:1029C0008DBB00BF94C40008014803F087BB00BF63
:1029D000CBC4000838B50D4803F080FB00240C4D33
:1029E000285903F07BFB2D19092003F061FB68686F
:1029F00003F074FB074803F071FB03F07FFA002833
:102A0000FBD00C343C2CEAD138BD00BFD0C4000848
:102A100014CF0008C8C5000838B50D4803F05EFBA8
:102A200000240C4D285903F059FB2D19092003F0FF
:102A30003FFB686803F052FB074803F04FFB03F0CD
:102A40005DFA0028FBD00C34902CEAD138BD00BFD1
:102A5000F3C4000804C40008C8C5000810B503F09A
:102A60002FF94FF47A71B0FBF1F1134C134801F0D8
:102A7000EAFA134803F032FB206EFDF7C5FC02466C
:102A80000B46104801F0DFFA94F868100E4801F088
:102A9000DAFA0E4803F022FB0D4B0E48196801F0DC
:102AA000D2FA02F07FF901460B4801F0CCFA0B484C
:102AB000BDE8104003F012BBBC0D002009C50008A2
:102AC0001BC500082FC5000834C5000839C500081B
:102AD0003008002046C5000855C50008C8C50008D4
:102AE0002DE9F041074609F0A3FBC5B255B91F48CF
:102AF00003F0F4FA1E4B93F836201E4B013A53F8BC
:102B000022002AE038461C492A4609F099FB04466F
:102B100070B91A4803F0E2FA164B53F82400F0B1EA
:102B200003F0DCFA0134202003F0C2FAE4B2F3E748
:102B30000024104E56F8241009B9114810E0384608
:102B40002A4609F07DFB631C70B9094A0D4882F8DA
:102B5000363003F0C3FA56F8240003F0BFFA0A48EF
:102B6000BDE8F04103F0BABADCB2E2E766C500089E
:102B7000780900201400002097C9000876C50008D5
:102B800089C50008A1C50008C8C500082DE9F045A1
:102B900085B0804609F04CFB074628B1012879D161
:102BA00098F800302A2B75D14B4C4C4803F096FA1C
:102BB000D4F82401FDF728FC0646D4F828010F4676
:102BC000FDF722FCCDE90001D4F82C01FDF71CFC37
:102BD00032463B46CDE90201414801F034FAD4F8CF
:102BE0003C01FDF711FC0646D4F840010F46FDF705
:102BF0000BFCCDE90001D4F84401FDF705FC324699
:102C00003B46CDE90201374801F01DFAD4F84801EE
:102C1000FDF7FAFB0646D4F84C010F46FDF7F4FB2E
:102C2000CDE90001D4F85001FDF7EEFB2E4D324600
:102C30003B46CDE902012D4801F005FAE86AFDF7AF
:102C4000E3FB0646286B0F46FDF7DEFBCDE90001EE
:102C5000686BFDF7D9FB32463B46CDE902012448BB
:102C600001F0F1F9D4F85801FDF7CEFB0646D4F88F
:102C70005C010F46FDF7C8FBCDE90001D4F8600107
:102C8000FDF7C2FB3246CDE902013B46194801F08F
:102C9000DAF91DE000252C46174E404671593A4698
:102CA0005FFA84FA09F0CCFA40B90C2303FB046400
:102CB000A3689847BAF1040F0AD903E001340C3530
:102CC000052CE9D10D4805B0BDE8F04503F006BA82
:102CD00005B0BDE8F08500BF78090020AFC5000849
:102CE000CBC50008E5C50008BC0D002001C60008E2
:102CF00027C6000843C6000814CF00085BC60008BA
:102D000070B50D680446284609F092FA024620681C
:102D10002946BDE8704009F093BA00007FB50379F9
:102D200004460D46052B2BD8DFE803F003081015E9
:102D30001B208368204968461A7804E083681F498D
:102D400093F90020684601F06FF919E083681A4989
:102D500068461A88F7E7836818496846B3F900207F
:102D6000F1E78368144968461A68ECE783681868D5
:102D7000FDF74AFB02460B466846114901F054F93B
:102D800068466E4603F0AAF9ADB10E4803F0A6F905
:102D900069460A22E06801F07DFD684603F09EF96D
:102DA000084803F09BF9206969460A2201F072FD88
:102DB000684603F093F97FBD36C5000879C6000860
:102DC0007CC60008CEC400082DE9F041064609F093
:102DD0002FFA074620B101281FD133782A2B1CD1A6
:102DE000424803F07BF9424C04F5CE650C3520686F
:102DF00003F074F93F4803F071F920463946FFF7B4
:102E00008DFF3D4803F06AF903F078F80028FBD005
:102E10001434AC42EBD1BDE8F08130463D2109F0DD
:102E2000FBF9074600285ED0314C04F5CE650C3521
:102E3000D4F80080404609F0FBF94146024630468E
:102E400009F0FEF98046002845D12379781C052B2E
:102E500004D101F0F9FD0546404602E009F073F99E
:102E600000252379052B06D0E268904213DB226906
:102E7000904212DD0FE0E068FDF706FF01462846AC
:102E8000FEF7F4F838B92069FDF7FEFE0146284642
:102E9000FEF70AF988B1194821E0052B0FD8DFE8C1
:102EA00003F003030606090CA368187007E0A36883
:102EB000188004E0A368186001E0A3681D60206822
:102EC00003F00CF90E4803F009F920460021BDE893
:102ED000F041FFF723BF1434AC42A9D10948BDE843
:102EE000F04103F0FBB8BDE8F08100BF7FC60008E9
:102EF00050CF000894C60008C8C5000898C600084E
:102F0000A6C50008BDC6000810B5084803F0E6F8DD
:102F100000F062FD064803F0E1F80A2002F0E1FE4D
:102F20000020BDE8104002F0E7BE00BFDAC600088E
:102F3000E4C60008F0B585B0044609F079F9082820
:102F400024D100231F49E25C09685118497811F027
:102F5000020F18BF203AE2540133082BF2D1651C4E
:102F600004F1090715F8016C1748314609F054F9C6
:102F700020B12846314609F04FF908B113481CE04A
:102F80000135BD42EED1204600F04AFD104803F065
:102F9000A5F800230F4A04A9D218927B8A180A497F
:102FA000595C0133082B02F80C1CF3D1083B01A833
:102FB0008DF80C3003F092F8074803F08FF805B055
:102FC000F0BD00BFE4000020CCD50008F3C6000827
:102FD00013C7000878090020C8C500082DE9F04192
:102FE000064609F025F9054600F0E6FC044695B9C9
:102FF0002A4803F073F82A4B53F82500002845D0DF
:103000000123AB40234201D003F068F8202003F0F5
:103010004FF80135EFE7304622492A4609F010F90A
:10302000044660B9204803F059F81D4B1859043480
:1030300060B303F053F8202003F03AF8F5E7337853
:103040002D2B01D0002702E00136013D012700248D
:10305000134B53F8241009B9144818E030462A4697
:1030600009F0EEF8B8B92FB10130A04000F096FC9D
:103070000F4804E00120A04000F088FC0D4803F058
:103080002DF8074B53F8240003F028F80A48BDE850
:10309000F04103F023B80134DAE700BF28C7000885
:1030A0006000002097C900083BC7000850C700080F
:1030B0006AC7000874C70008C8C5000810B50446F0
:1030C000084803F00BF820220021074809F09BF87C
:1030D000064A00231360064A20461370BDE81040DC
:1030E000FFF712BF7DC70008E002002004030020A4
:1030F0003C09002010B5084802F0F0FF012000F064
:10310000A5FC064802F0EAFF0A2002F0EAFD0020D2
:10311000BDE8104002F0F0BD95C70008E6C6000803
:103120002DE9F041854B8AB01A7832B901321A7014
:10313000834802F0D3FFFFF747FC824B1B78002B3C
:1031400000F06B8102F0D6FF18B102F0E5FE7E4B75
:1031500018707D4A13786D2B44D00CD8622B25D083
:1031600005D8232B0FD0612B40F0578111E0672B3E
:1031700040F0538120E0742B5CD0772B5DD0712B15
:1031800040F04B813BE06F4B0021197078231370A6
:10319000D1E06E4C2068FDF737F9064660680F46AF
:1031A000FDF732F9CDE90001A06811E0674B6848EE
:1031B000996D00F048FF30E1644CE069FDF724F9B7
:1031C0000646206A0F46FDF71FF9CDE90001606A47
:1031D000FDF71AF93246CDE902013B465D4800F0A1
:1031E00032FF1AE1594CA06CFDF70EF90646E06C6F
:1031F0000F46FDF709F9CDE90001206DE8E7564CCF
:103200002068FDF701F9064660680F46FDF7FCF8F7
:10321000CDE90001A068FDF7F7F8CDE90201E0680B
:10322000FDF7F2F83246CDE904013B464B4800F089
:103230000AFFF2E002F08CFDEFE0444C48492069BF
:10324000FDF776FDFDF7E0F806460F466069444954
:10325000FDF76EFDFDF7D8F8CDE900014049A06902
:10326000FDF766FDB4E702F057FE092801D03F28BC
:1032700053D13C4BDFF8FC8000261F683546A8F18F
:1032800090040CE02FB1384821683A4608F0D8FF86
:1032900020B915B92646254600E026460C3444459B
:1032A000F0D1BDB1304A3B46D2192968C85C3168BB
:1032B000C95C81420CD1581C013229B92A4A2031FB
:1032C000D154284B186005E002F8011C0346ECE7D6
:1032D000244A1360234B1B680BB1B5420FD023481F
:1032E00002F0FCFE06E055F80C0B02F0F7FE092098
:1032F00002F0DEFEB542F6D9FFF766FB00271A4C56
:10330000E41904E014F8010C02F0D2FE0137154B69
:1033100001341B689F42F5D37FE0124B1B682BB929
:10332000042803D11048FFF7C9FE7BE00C2823D105
:103330000F4802F0D3FEFFF747FB6EE03C09002088
:10334000B0C700080003002008030020BC0D0020C7
:10335000E8C70008EFC70008A8000020ECC7000875
:10336000E02E654204030020E0020020F9C70008B7
:10337000FEC7000894C40008002B2FD00A2801D0F3
:103380000D282BD1294802F0A9FE294B294C1A6897
:103390000023A3540893284B0C22009307A8274925
:1033A0001346079408F0D3FE054638B1006808F0CC
:1033B0003FFF0130AB682018984702E0204802F038
:1033C0008DFE20221B48002108F01DFF184B002213
:1033D0001A601C4B1B78002BADD123E07F2801D055
:1033E00008280AD1CBB1124A013B1360114A0021CF
:1033F000D154154802F072FE0FE01F2B0DD81F2884
:103400000BD97E2809D80BB9202806D0094AD054F8
:10341000074A0133136002F04BFE02F06BFE0028F6
:103420007FF421AF0AB0BDE8F08100BFC8C5000835
:1034300004030020E0020020012D000804C400085D
:1034400009C800083C0900202AC800080000000044
:103450002DE9F14F402000F08FFA18B102F00EFB79
:10346000002836D0964B00241A78964D01321A70F7
:103470002646934BF0B21F78934B07F003071B6867
:103480009847904B07EB860723F817002B886A882C
:10349000D218AB88D218EB88D21812B2931C48BF4E
:1034A000531D9B10894A9BB21353894A19B2105F6E
:1034B0000338814201DA981C1053854A105F0330AB
:1034C000814201DD023B1353013608350234082ED8
:1034D000CFD17F4C7F4DB4F90610EB8F99424ADA79
:1034E000FFF78EF8AB8C7BB17B4B5B7923B17B4BC9
:1034F0001A780AB1012218E0784B5A78002A00F0B5
:10350000AC8000225A70A8E0B4F90420B5F840302D
:103510009A4210DD714B597869B971490A78501C8B
:10352000142A087040F09980133A5A706D4B9A69CA
:103530006D4B1A6091E0674BDB8F9A4280F28A8074
:10354000664A517849B166490B78581C142B0870AB
:1035500040F08380143B53707FE05D4AB2F9022053
:103560009A4277DD5E4A1378591C142B117074D17E
:1035700003F0AAFD71E0B5F8402091426DDD574996
:103580004978002969D1B4F9041091420CDDB4F9ED
:103590000200984208DA524A1378591C142B117011
:1035A0005BD104F035FB58E0994210DA4849B1F993
:1035B000021099420BDA4A4A1378591C142B1170E5
:1035C0004BD103F005FC0320FEF7E6FF45E0404940
:1035D000B1F9020090420ADD3E4CD4F81401FCF728
:1035E00013FF35A3D3E90023FCF7B0FD0BE09842AD
:1035F0000EDA384CD4F81401FCF706FF2EA3D3E9F9
:103600000023FCF7A1FDFDF735FAC4F814011EE014
:10361000B1F9001091420ADD2E4CD4F81001FCF7EC
:10362000F3FE25A3D3E90023FCF790FD0BE09942BC
:1036300010DA284CD4F81001FCF7E6FE1EA3D3E9FB
:103640000023FCF781FDFDF715FAC4F8100100F026
:10365000C3F902E0224B00221A70102000F08CF90E
:10366000002848D0214B1B4AB3F800C014890FFA38
:103670008CFEA6453CDD194B5978002938D0508F77
:10368000134908804880888090895289C88014191D
:103690000121A645D97302DD00225A701A700F4B22
:1036A0005A780AB95A701A70104B0CF1010CA3F831
:1036B00000C020E0AFF300807B14AE47E17A843F86
:1036C0005C0300201C030020680900200C0300207C
:1036D00094000020780900205809002048090020A3
:1036E00009030020BC0D002070090020740900208F
:1036F0008E4B0022DA738E4B8E4AD88FB3F840403F
:1037000000231946B2F900C0844502DC4FF0000ED8
:1037100007E032F908EC8645ACBF4FF0000E4FF0E1
:10372000010E8445ACBF002501259D40A445D4BFB2
:103730004FF0000C4FF0010C45EA01019D1C0CFA02
:1037400005FC41EA0C0103F1010C0EFA0CFE0333F7
:1037500041EA0E0102320C2B89B2D3D1744F0C3BDB
:103760003A46B2F81AC0744811EA0C0F0CBF4FF079
:10377000000C4FF0010C03F800C0013302320E2B95
:10378000EFD1437913B9694B01221A706A4B1A7A47
:10379000664B02B101229A72674B1B7813B9634BD7
:1037A000DA7B5AB1614C23794BB96448FEF736FF96
:1037B0006348FEF733FF0123237100E01A715E4B6B
:1037C0009A785A4B42B15A793AB901325A715D4BE3
:1037D0009A695D4B1A6000E05A71574B5A7A534B05
:1037E00042B15A7A3AB901325A72564B9A69574BDA
:1037F0001A6000E05A72504B5B7B1BB1514B9A69C7
:10380000524B1A600025524B524C585FFDF73CFA60
:1038100044F815000235082DF5D1454B5E8F304632
:10382000FDF732FA054629462068FDF777F9294663
:1038300020606068FDF772F929466060A068FDF7B6
:103840006DF9A060A6F5BA600C38FDF71DFA0146C7
:10385000E068FDF763F90025E0602C46DFF8FCA086
:103860003D4B1AF80420B7F848B01A555846FDF7F2
:103870000BFADFF8E090804659F805604146304683
:10388000FDF7FEFB78B1CBF10000FDF7FDF9014635
:103890003046FDF7FFFB30B1002349F80530012326
:1038A0000AF8043014E02D4B00221A55304600214E
:1038B000FDF7FAFBDFF89CA020B130464146FDF74A
:1038C0002DF903E030464146FDF72AF94AF8050094
:1038D000013404350237032CC0D11E4BDC68204B69
:1038E00020461968FDF71AF91E4920F00040FDF73F
:1038F000DBFB10B10D4B00229A710F4B5A780B4B2A
:10390000002A35D09A79002A33D101329A71144BAA
:103910001C600C4BD86DFDF7B7F9134B18601348BA
:1039200001B0BDE8F04FFEF779BE00BF48090020A6
:10393000780900209C00002058090020AC080020D5
:10394000CC080020BC0D0020400900207009002098
:103950009400002084000020A400002080000020AB
:10396000440900200000A0416C0900200C0900203F
:103970009A7101B0BDE8F08F034B5B6818420CBF31
:1039800000200120704700BF78090020024B5A68D0
:1039900040EA02025A60704778090020024B5A68D8
:1039A00022EA00025A60704778090020014B002289
:1039B0005A60704778090020014B5868704700BF73
:1039C00078090020024803494FF4C27208F00EBC87
:1039D0007809002000FC010810B504F045FF3420F0
:1039E00004F056FF0B4804F0ABFF04280CD1094C3F
:1039F000094B2046E15804F079FF042800D0FEE787
:103A0000064B04349C42F3D104F03AFFBDE8104069
:103A1000FFF7D8BF00FC0108780DFE1784FD0108F0
:103A200070B50646002409E0064D284608F0F4FB70
:103A300018B1054A83185D1BAC730134315D002950
:103A4000F2D170BDCCD500087809002070B5A04B2C
:103A50001B7810B9062B00F039819E4C0623237089
:103A6000033B84F83630FFF7A1FF0220FFF78EFFFB
:103A70000120FFF78BFF9848FFF7D2FF4FF4C87083
:103A80004FF0320244F62063E0824FF49660638187
:103A900022832281A08104F11C0300256583023466
:103AA0009C42FAD18B4B4FF47A721A874FF4FA6228
:103AB0009A8740F26C72A3F8402040F23A72A3F861
:103AC00044204FF47A72A3F866204FF4FA62A3F808
:103AD0006A2040F2DC52A3F86E204FF47A72A3F809
:103AE000742040F2DC52A3F8762040F2DC504FF410
:103AF000FA625887A3F8782040F24C404FF47A726B
:103B0000D887A3F87C2040F27E4040F2DC52A3F834
:103B10004200A3F87E204FF00C004FF4FA62A3F8A5
:103B20004800A3F84A00A3F84C00A3F8802040F214
:103B3000DC504FF47A72A3F86800A3F888204FF4A1
:103B40007A7040F2DC52DFF8B0C1A3F86C00A3F841
:103B50008A204FF4FA604FF4FA624FF07E54A3F8D3
:103B60007000A3F88C2001204FF0FF3283F8720020
:103B700083F87A0083F8942083F8950083F89620E0
:103B800083F84650C3F88440C3F8904083F8970008
:103B9000C3F8A0C0C3F8ACC0C3F8B0C0C3F8BCC081
:103BA000C3F8CCC04FF07C5CC3F8DCC0C3F8ECC0F9
:103BB000C3F8FCC0DFF844C14FF47A72C3F800C107
:103BC000DFF83CC1A3F89820C3F804C14FF4FA62AF
:103BD000424EDFF830C1A3F89A204FF47A72A3F86E
:103BE0009C20C3F8C060C3F808C14FF080464FF472
:103BF000FA62DFF814C1A3F89E20C3F8D060002257
:103C0000C3F8E0604FF07F56C3F8A420C3F8A820A3
:103C1000C3F8B420C3F8B820C3F8C420C3F8C82040
:103C2000C3F8D420C3F8D820C3F8E420C3F8E820B0
:103C3000C3F8F420C3F8F820C3F81021C3F8F060EB
:103C4000C3F80CC1C3F81421C3F82421C3F82821F8
:103C5000C3F82C21C3F83C21C3F84021C3F8442108
:103C6000C3F84821C3F84C21C3F85021C3F85821A8
:103C7000C3F85C21C3F86021C3F86C21184A83F8AB
:103C80001801C3F87421174A1748C3F87821174A56
:103C9000C3F81C011648C3F87C21164AC3F8340146
:103CA0004FF02A0083F8205183F83051A3F83801EF
:103CB00083F8545183F86451C3F8684183F8705114
:103CC000C3F88021BDE87040FFF786BE70BD00BF1D
:103CD00000FC010878090020D4D500080000484302
:103CE000A4702941000030416666663F333353407B
:103CF00048E17A3F666686400000C8420000A04165
:103D0000000088410000E0400060EA46F8B5044643
:103D10000E4610464FF07E511546FDF79DF920BB2B
:103D20003046FCF771FB064628460F46FCF76CFB55
:103D300002460B4600200E49FCF706FA02460B46E7
:103D400030463946FCF7B4FB06460F462046294666
:103D5000FCF7EEFFFCF758FB02460B4630463946AF
:103D6000FCF7F4F9FCF786FE04462046F8BD00BFD8
:103D70000000F03F28B10268117002680132026051
:103D80007047C8B202F094B92DE9F845161E0446F2
:103D90000D460FDD002200E00132A95C0029FBD1B5
:103DA000B242ACBF0E46B61A13F0020F02D04FF06B
:103DB000300A01E04FF0200A13F0010809D04FF05B
:103DC000000808E020465146FFF7D4FF08F101083B
:103DD000013E002EF6DC474603E02046FFF7CAFF0F
:103DE0000137C8EB0503D95D0029F6D105E020466F
:103DF0005146FFF7BFFF0137013E002EF7DC384682
:103E0000BDE8F8852DE9FF410A9F05460B9EDDF8C8
:103E100030E08C4651B930238DF804308DF8051010
:103E20003A4601A93346FFF7AFFF39E03BB10A2A12
:103E300005D1002903DAC1F1000C012400E00024BF
:103E400004AB002103F8011D0DE0BCFBF2F102FB05
:103E500011C10929C4BFAEF13A000918303103F885
:103E6000011DBCFBF2FC9846BCF1000FEDD184B102
:103E70004FB116F0020F06D028462D21FFF77AFF2A
:103E8000013F012405E02D2203F1FF3803F8012C46
:103E90000024284641463A463346FFF775FF00198D
:103EA00004B0BDE8F08100002DE9F04F82468FB0EC
:103EB0000E4614464FF0060B0025A4E0252B40F0DB
:103EC0009C8016F8013F002B00F0A180252B00F00C
:103ED00094802D2B02D04FF0000806E001364FF001
:103EE000010802E0013648F002083378302BF9D09F
:103EF000002291460AE02AB10A2303FB0B1B0BF0B8
:103F0000FF0B08E00A2303FB0909013633782E2B47
:103F100003D14FF0000B0122F7E7A3F13000C1B24B
:103F20000929E8D9732B07D154F8041B3D4B50469F
:103F3000002908BF19465AE0642B0BD1033B0293BA
:103F4000CDF80090CDF80480271D504621680A2244
:103F5000603B0CE0782B0FD1173BCDF80090CDF8EB
:103F6000048002932168271D50461022613BFFF711
:103F700049FF2D183C4645E0582B0BD1173B0293C7
:103F8000CDF80090CDF80480271D504621681022FE
:103F9000413BECE7752B0AD1143BCDF80090CDF8EE
:103FA00004800293271D504621680A22DEE7632B16
:103FB0000DD1236850468DF8343000238DF835300C
:103FC0000DA94A464346271DFFF7DEFED1E7662BC3
:103FD00018D1073424F0070305AFD3E9000103F13A
:103FE00008043A465B4600F067FC504639464A46AC
:103FF0004346FFF7C9FE2D1804E050463178FFF71D
:10400000B9FE013501363378002B7FF457AFBAF192
:10401000000F03D0DAF8003000221A7028460FB0E3
:10402000BDE8F08FDDD500080EB40FB505AA52F833
:10403000041B019001A80392FFF736FF04B05DF85E
:1040400004EB03B070470FB407B504AA52F8041B81
:1040500000200192FFF728FFBDE80E4004B0704732
:10406000034B04491A78885C01321A70704700BF0C
:104070005E0300206803002010B5FFF7F1FF04463F
:10408000FFF7EEFF04EB002080B210BD10B5FFF784
:10409000F3FF0446FFF7F0FF04EB004010BD000003
:1040A00010B5044602F004F8024B1A7854401C7014
:1040B00010BD00BF5D03002038B50546002401E0B7
:1040C000FFF7EEFF285D01340028F9D138BD00006C
:1040D000014B1878FFF7E4BF5D03002070B504467C
:1040E00024200D46FFF7DCFF4D20FFF7D9FF002C01
:1040F00014BF21203E20FFF7D3FF064B00221A7089
:104100002846FFF7CDFF044B1878BDE87040FFF755
:10411000C7BF00BF5D0300206303002001460120EC
:10412000FFF7DCBF01460020FFF7D8BF70B50B4D8D
:104130000B4C0646C0B2287001F0BAFF2A782378EB
:10414000B6B282EA0303300A2370287001F0B0FF90
:1041500023782A7882EA0303237070BD5F0300206E
:104160005D03002070B5154D154C0646C0B2287091
:1041700001F09EFF2A782378300A82EA0303C0B256
:104180002370287001F094FF2A782378300C82EA9B
:104190000303C0B22370287001F08AFF2A782378C5
:1041A000300E82EA03032370287001F081FF237828
:1041B0002A7882EA0303237070BD00BF64030020E5
:1041C0005D03002070B5A34B1B78002B00F03E83ED
:1041D000BDE87040FEF7A4BF01F09EFE9E4B1A782A
:1041E000A2B9242814BF002201221A70002A40F02C
:1041F0002D83232803D0522840F0288302E0FEF7C5
:104200008FFF23E3012001F077FD1FE3012A04D192
:104210004D280CBF0220002005E0022A05D13C28D1
:104220000CBF03200020187010E3032A11D140288E
:1042300001D9033A09E3894A8949107000220A70BA
:1042400088490A70884A107004221A70033A874B12
:10425000FBE2042A07D1864A1070834A117848404D
:1042600010700522F1E2052A40F0F0827C497B4B78
:104270000A781B7893427C4B0AD993F800C080EAF5
:104280000C0C83F800C07B4B985401320A70DDE2BD
:104290001B78834240F0D782754B1B78722B00F05D
:1042A000A38223D86A2B5DD010D8662B00F038810A
:1042B00006D8642B00F0E480652B40F0BF82F0E06C
:1042C000682B00F0818100F28B8171E16E2B00F090
:1042D000C48105D86C2B00F08F8100F2B88141E0D9
:1042E000702B00F0C88100F265823BE0CB2B00F020
:1042F0009A8010D8762B00F0898205D8742B00F0B4
:10430000678200F26A8276E2C92B1FD02ED8C82BB2
:1043100040F0948211E0CF2B24D005D8CD2B00F0B3
:10432000828200F2858288E0FA2B00F08482FE2BE4
:1043300018D0D02B40F082826BE20024FFF79CFE65
:104340004D4BE0520234102CF8D10BE0FFF788FE01
:10435000FFF786FEFFF79AFEFFF798FEFFF78CFE49
:10436000FFF78AFE0020FFF7DDFE6AE2434C04F10E
:104370003005FFF775FEFCF783FCC4F8A000FFF7DB
:104380006FFEFFF76DFEFCF77BFCC4F8A80010344D
:10439000AC42EED1FFF764FEFCF772FC374CC4F878
:1043A0000001FFF75DFEFFF75BFEFCF769FCC4F858
:1043B000080100240134FFF753FEFFF751FEFFF719
:1043C0004FFE032CF6D1FFF74BFEFCF759FC2B4CAC
:1043D000C4F8D000FFF744FEFFF742FEFCF750FCA4
:1043E000D4F8D030C4F8D800C4F8E030FFF738FE75
:1043F000D4F8D830C4F8E830FFF732FEFCF740FCC0
:10440000C4F8F000FFF72CFEFFF72AFEFCF738FC9B
:10441000C4F8F80000240134FFF722FE032CFAD17F
:10442000FEF7D4F89EE7154C04F11C05FFF724FEB7
:1044300060830234AC42F9D194E7FFF711FEFFF735
:104440000FFEFFF70DFEFFF70BFEFFF709FEFFF76C
:1044500007FEDBE13C09002060030020A8030020E8
:10446000620300205E0300205D0300206103002042
:1044700063030020680300209400002078090020D6
:104480000720FFF74FFED220FFF70AFEB94B93F843
:104490003600FFF705FE0020FFF702FE4FF0004058
:1044A0003BE00A20FFF73EFEB34BB3F90000FFF7F5
:1044B0003DFE00F077FC00B2FFF738FEAF4BB3F9DA
:1044C0000000FFF733FEAE4B59799A79890041EA33
:1044D00042011A7911435A7841EA4211A94AD07827
:1044E00041EAC001107941EA0011D87941EA80110E
:1044F000187A41EAC011587A9B7A41EA402141EA90
:104500000323917A507B43EA8123D17A43EAC12382
:10451000117B43EA013343EA4030FFF723FE90E189
:10452000994C1220FFF7FEFD98492068FCF700FC2B
:10453000FCF7C4FD00B2FFF7F9FD94496068FCF791
:10454000F7FBFCF7BBFD00B2FFF7F0FD8F49A06859
:10455000FCF7EEFBFCF7B2FD00B2FFF7E7FD8C497C
:10456000E069FCF7E5FBFCF7A9FD00B2FFF7DEFD13
:104570008749206AFCF7DCFBFCF7A0FD00B2FFF7DF
:10458000D5FD8349606AFCF7D3FBFCF797FD00B2C9
:10459000FFF7CCFDA06CFCF791FD00B2FFF7C6FD64
:1045A000E06CFCF78BFD00B2FFF7C0FD206D4AE028
:1045B0001020FFF7B7FD0024764BE05E0234FFF7D2
:1045C000B5FD102CF8D13CE11020FFF7ABFD002425
:1045D000714BE05E0234FFF7A9FD102CF8D130E1F9
:1045E0001020FFF79FFD00246C4BE05E0234FFF7C4
:1045F0009DFD102CF8D124E1634C0820FFF792FDBB
:1046000020696749FCF794FB6049FCF791FBFCF7D4
:1046100055FD00B2FFF78AFD60696149FCF788FB30
:104620005A49FCF785FBFCF749FD00B2FFF77EFD18
:104630005B49A069FCF77CFBFCF740FD00B2FFF78B
:1046400075FD584B1868FCF739FD00B2D0E0042026
:10465000FFF768FD4C4BD86D5FE70320FFF762FD65
:10466000494B4A49186EFCF763FBFCF74DFDC0B29D
:10467000FFF716FDBBE01E20FFF754FD4A4C04F186
:10468000600554F8080CFCF73FFDC0B2FFF708FDC9
:10469000464954F8040CFCF74BFBFCF735FDC0B25F
:1046A000FFF7FEFC54F8200BFCF72EFDC0B2FFF71D
:1046B000F7FCAC42E5D13E4CD4F8C000FCF724FD39
:1046C000C0B2FFF7EDFC3949D4F8C400FCF730FB69
:1046D000FCF71AFDC0B2FFF7E3FCD4F8C800FCF702
:1046E00013FDC0B2FFF7DCFC00240020FFF7D8FC6C
:1046F0000020FFF7D5FC01340020FFF7D1FC032C8C
:10470000F3D12B4C206EFCF7FFFCC0B2FFF7C8FCC6
:104710002649606EFCF70CFBFCF7F6FCC0B2FFF715
:10472000BFFCA06EFCF7F0FCC0B2FFF7B9FCD4F8F8
:10473000A000FCF7E9FCC0B2FFF7B2FC1B49D4F8BB
:10474000A400FCF7F5FAFCF7DFFCC0B2FFF7A8FC09
:10475000D4F8A800FCF7D8FCC0B2FFF7A1FC0020F9
:10476000FFF79EFC0020FFF79BFC0020FFF798FC62
:1047700067E000BF7809002030080020E007002033
:104780004809002058090020BC0D002000002041ED
:104790000000C842000000203408002094000020DF
:1047A000E02E6542700900205408002000007A4481
:1047B0004C0800201C20FFF7B5FC274C04F11C0519
:1047C000B4F91A000234FFF7B1FCAC42F8D138E07A
:1047D0006D20FFF7A7FC214803E02F20FFF7A2FC84
:1047E0001F48FFF769FC2CE00220FFF79BFC00202C
:1047F000FFF79CFC25E00820FFF794FC0124E0B2C1
:104800000134FFF74DFC092CF9D11AE0FFF728FC21
:10481000A8E50020FFF786FC0120FFF717F900202C
:1048200001F06AFA0DE002F0D3FA02F04DFC99E5CE
:1048300003F0EEF996E5FFF7CFF893E50020FFF7D8
:104840006DFCFFF745FC074B00221A7001F052FC8B
:1048500000287FF4C1AC70BD7809002014D6000890
:10486000E4D500086003002038B50546B5FBF2F337
:104870000846144613B11846FFF7F6FFB5FBF4F3EC
:1048800004FB1354024B1B5D00F8013B38BD00BF15
:1048900084D60008931E222B88BF0A22031E10B55F
:1048A0000C4603DA2D2001F8010B5842FFF7DCFF1C
:1048B00000230370204610BD2DE9FF4D514C1F46CB
:1048C000002A18BF14460023002206460D46FCF7B6
:1048D00061F820B12D2304F8013B05F10045072FB5
:1048E00019D80022002330462946FCF771F8464BC0
:1048F000FA0038B1D31830462946D3E90023FBF734
:1049000025FC06E0D31830462946D3E90023FBF7FF
:104910001BFC06460D4600234FF0010803E00A2267
:1049200002FB08F80133BB42F9D330462946FCF7B5
:1049300081F8002302460CE04FF00A0CB2FBFCF1B8
:104940000CFB11220DF1040A30320AF80320013366
:104950000A46002AF0D11BB9303304F8013B0BE0C2
:104960000DF1040C0CEB030111F801AD04F802A0E9
:1049700001326145F8D1E418002F3ED0FBF722FD4B
:1049800002460B4630462946FBF7DEFB8246404690
:104990008B46FBF717FD02460B4650465946FBF780
:1049A00087FDFCF747F82E23224602F8013B2E3BF9
:1049B00008E00A25B0FBF5FC05FB1C003030C854AC
:1049C0000133604601A90028F3D1C91803E0302063
:1049D00001F8010C01330131BB42F8D323B914466D
:1049E000303304F8013B08E001A8C11811F801CDEB
:1049F000814204F801CFF9D1D4180020207004B00E
:104A0000BDE8F08DAC030020B0D6000810B50B490E
:104A10000446FCF73FFB20B120460949FCF77EF82D
:104A200008E020460749FCF721FB20B12046044955
:104A3000FCF776F80446204610BD00BFDB0F494066
:104A4000DB0FC940DB0F49C02DE9F84F044600E0F9
:104A500001342378202BFBD0092BF9D02D2B05D145
:104A600001344FF0000ADFF870B106E02B2BDFF8BD
:104A700064B108BF01344FF0000A0026002713E09C
:104A80000022534B30463946FBF712FD06462846B6
:104A90000F46FBF7A7FC02460B4630463946FBF7AC
:104AA00055FB013406460F462378A3F13005EAB2E0
:104AB000092AE5D92E2B21D101344FF00008DFF867
:104AC000109116E0FBF78EFC42464B46FBF71AFEB0
:104AD00002460B4630463946FBF738FB00220646B5
:104AE0000F46404649463A4BFBF7E2FC013480460C
:104AF000894620783038C3B2092BE3D92378652B57
:104B000001D0452B4CD16278631C2D2A02D1013390
:104B1000012503E02B2A08BF01330025002214469B
:104B200002E00A2000FB0414995C01323039C8B25B
:104B30000928F6D9B4F59A7F28BF4FF49A74002259
:104B4000244B09E0104619461DA3D3E90023FBF7C7
:104B5000AFFC323C02460B46312CF3D8A04609E0AC
:104B60001046194618A3D3E90023FBF7A1FC083C23
:104B700002460B46072CF3D808F0070408E010465D
:104B800019460022124BFBF793FC013C02460B46F0
:104B9000002CF4D135B130463946FBF7B3FD05E0C2
:104BA0000C4B002230463946FBF782FC02460B468E
:104BB00050465946FBF77CFCFBF75CFFBDE8F88FDD
:104BC0009A647EC50E1B514A0000000084D79741AD
:104BD000000024400000F03F0000F0BFAFF3008071
:104BE0002DE9F74F05680646884628462946FCF712
:104BF0009FF87468834621462046FCF799F8B76809
:104C0000814639463846FCF793F8F66882463146C5
:104C10003046FCF78DF8314601902046FCF788F8C5
:104C20003946034628460093FCF782F8009B01466C
:104C30001846FBF773FF0146FBF772FF04F0EEFE28
:104C40003946C8F804002046FCF772F8314603469E
:104C500028460093FCF76CF8009B01461846FBF7CA
:104C60005FFF0146FBF75CFF494603465846009349
:104C7000FBF756FF5146FBF751FF0199FBF74EFF3B
:104C8000009B0146184604F015FF3146C8F808009D
:104C90003846FCF74DF8214606462846FCF748F80A
:104CA00001463046FBF73CFF0146FBF739FF49461A
:104CB00004465846FBF732FF5146FBF72FFF019998
:104CC000FBF72EFF0146204604F0F4FEC8F8000072
:104CD000BDE8FE8F014B188880B27047CC030020DE
:104CE00030B52A4891B003F0B3FC294B002500935E
:104CF000284B012401934FF4807306934FF4806393
:104D000007932023089321484FF4005369460993E1
:104D100002950394049505950A9503F00BFD1B4835
:104D2000214603F027FD4FF460231B480BA90D9388
:104D30000B958DF830508DF831400E958DF83C4034
:104D400003F0E2FB224603231348042103F034FC62
:104D50001148214603F008FC0F48214603F0FAFBF6
:104D60000D4803F00BFC0C4803F00DFC0028FAD1B1
:104D7000094803F00DFC084803F00FFC0028FAD1A5
:104D80000548012103F00EFC11B030BD08000240BF
:104D90004C240140CC03002000240140BFF35F8F6E
:104DA00070470000014B188880B27047CE03002086
:104DB000F0B54FF4406389B0ADF8143002238DF89C
:104DC000163012330DEB030105464A488DF81730B3
:104DD00003F0D6FD47484FF4406103F029FE00245C
:104DE00002E0032000F072FF42484FF4806103F0BC
:104DF00019FE0028F5D04FF480613E4803F01AFEFA
:104E0000032000F063FF01343A484FF4806103F05F
:104E10000FFEE4B2032000F059FF082CE4D14FF458
:104E20000061344803F006FE032000F04FFF4FF40A
:104E30008061304803F0FEFD032000F047FF4FF48F
:104E400080612C4803F0F4FD032000F03FFF4FF495
:104E50000061284803F0ECFD032000F037FF4FF419
:104E60004063254CADF81830022306A98DF81A309E
:104E700020481A338DF81B3003F082FD2560284648
:104E800001AD03F0F7FE284603F026FE002220685D
:104E90004FF4407103F062FE4BF6FF73ADF80A3039
:104EA0004FF48043ADF81030144B0026206829469B
:104EB0000193ADF8086003F069FE2068012103F05A
:104EC00019FE07AC22238DF81C30204601238DF8F3
:104ED0001F308DF81D608DF81E6003F0E3FA21236A
:104EE000204637468DF81C308DF81D6003F0DAFA45
:104EF00009B0F0BD000C0140E4030020801A060058
:104F000010B54000224CC0B220702248224C0170E3
:104F100022480021017001202070214C2360214C87
:104F20002360214B1A70214B1870214B1970214BB3
:104F30001868838813F4007F11D1038813F4807FED
:104F400006D1038813F4007FFBD1012103F0DFFDBC
:104F5000184B4FF440711868012203F0FFFD47F22F
:104F60003053124A127812B1013BFAD100E053B922
:104F7000114B1A88013292B21A800E4B1868FFF753
:104F800017FF002010BD0A4B187880F0010010BDFB
:104F9000EA030020D1030020E0030020D00300201A
:104FA000D4030020DC030020D2030020E90300200A
:104FB000D9030020E4030020CE03002030B54000D8
:104FC0002A4CC0B220702A482A4C01702A4801217C
:104FD000017000202070294C294D2270294C85B089
:104FE0002170C5F800D02849284D102AC5F800D0F6
:104FF000087005D937E013F800C00DF800C0013083
:10500000C1B29142F7D3224B1868838813F4007F12
:1050100011D1038813F4807F06D1038813F4007F35
:10502000FBD1012103F073FD194B4FF44071186857
:10503000012203F093FD47F23053124A127812B165
:10504000013BFAD100E053B9124B1A88013292B2F7
:105050001A800F4B1868FFF7ABFE002003E00A4BE5
:10506000187880F0010005B030BD00BFEA030020D1
:10507000D1030020E0030020D0030020D203002051
:10508000DC030020E9030020D9030020D403002022
:10509000E4030020CE03002007B502AB03F8012D86
:1050A0000122FFF78BFF0EBD254B37B51868838AA9
:1050B0009BB20193019B13F4706F02D0214B01222C
:1050C0001A70019B13F4E06F2ED0038B00229BB269
:1050D0004FF48061009303F041FD019B13F4007FC6
:1050E00022D1174C2068038813F4007F1CD1058857
:1050F00015F480750FD0038813F4807FFBD1012154
:1051000003F012FD0E4B1868038813F4007FFBD1E7
:10511000FFF74EFE08E0012103F006FD20684FF482
:1051200040712A4603F01AFD054B1A68938A23F44E
:1051300070631B041B0C9382034B00221A703EBD4C
:10514000E4030020D9030020E9030020FFF7ACBFEF
:10515000FFF7AABF2DE9F04F954C85B02068828AF1
:10516000D2B212F001063BD00388012123F4006380
:105170001B041B0C038003F0E4FC8E4B00221A700E
:105180008D4B1B78E3B18D4B1B781BB98C4B1B7877
:10519000FF2B15D1894B01221A708A4B1B78022BE9
:1051A00006D1834B1B681A8892B242F400621A80BF
:1051B000854B012219787E4B186803F0DFFC38E13B
:1051C000814B002219787A4B186803F0D7FC7C4B8E
:1051D0001B78FF2B00F02D814FF0FF32754BE5E07F
:1051E00012F0020347D00190FFF7D8FD754B0198EC
:1051F0001D78012D19D1704B1B78B3B16F4B1B7803
:105200009BB1314603F09DFCFFF7C8FD206829469D
:10521000038BDBB28DF80F3003F086FC6B4B2068FC
:105220001D704FF480612A4601E1038B0190DBB2CF
:105230008DF80F30FFF7B2FD624B01981B78022BFF
:1052400009D15D4B1B7833B15C4B1B781BB100213E
:1052500003F077FCE6E05B4B1B78032B07D1564B42
:105260001B7823B1554B1B78002B40F0DD804FF4A9
:1052700080610122DBE012F0040572D04E4ADFF8B3
:105280004C811278012688F80060002A4FD04B4AE2
:105290001278002A4BD04B4A464D12784C4F022AC6
:1052A0002AD9194603F04DFC206895F800A0D7F8DC
:1052B000009003F060FC4FFA8AFB0BF80900B2443F
:1052C000314685F800A0206803F02EFC88F80060C5
:1052D000206895F800803F6803F04DFC4FFA88FA8B
:1052E0000AF80700B04485F8008020684FF4806118
:1052F000324603F033FC2DE0314603F015FC206804
:10530000D7F800802E7803F036FC4FFA86FA013683
:105310000AF80800F6B22E7020683F6803F02BFCF4
:105320004FFA86F8023608F807002E7012E0234C78
:10533000237813B9274B1B783BB1012103F0F4FB11
:105340001C4B1A7801321A7004E0012103F0DFFBD4
:1053500001232370164B1B681A8812F4807FFBD13F
:1053600067E012F0400637D0194B124ED3F8008098
:10537000377803F000FC4FFA87FA124B01370AF82E
:105380000800FFB237701B787FB20337BB4205D1EC
:1053900020684FF480612A4603F0E0FB094B18783F
:1053A000044B1A7851B2884243D101321A7040E05E
:1053B000E4030020E8030020E0030020EB030020CA
:1053C000D1030020D2030020EA030020D8030020EC
:1053D000D4030020D003002012F0800F29D0224DEA
:1053E0002B785AB2B2F1FF3F11D02049013309683E
:1053F000515C2B7003F0BDFB1D4B1A7895F9003002
:105400009A4216D120684FF4806132460FE0194B62
:105410002E70197803F0ADFB174B1B7813B9144BA2
:105420001B7833B9154B18684FF48061002203F0E4
:1054300095FB0F4B0C4A1B7892F9002001339A42DE
:105440000ED10F4B00221A700E4B1B782BB10B4B59
:105450004FF44071186803F081FB0B4B00221A7067
:1054600005B0BDE8F08F00BFE8030020DC0300209A
:10547000D2030020D1030020E0030020E403002039
:10548000EB030020D8030020E9030020FFF762BEF1
:10549000FFF760BE134A144813881180C91A0380AD
:1054A00089B240F68C23994203D9104B00221A701E
:1054B0007047A1F53A73073B9BB240F2DA52934230
:1054C00006D80A4B1B78072B9CBF094A22F81310F9
:1054D000064B1A7801321A70064B4FF000021A8000
:1054E000704700BF4C05002070050020EC03002031
:1054F000F003002074090020044B1B78834204D978
:10550000034B53F820305B68198070471905002061
:105510001C050020044B1B78834204D9034B53F82D
:1055200020305B68198070471A0500205005002064
:10553000074B084AC018817B32F8110040F2DC5159
:10554000A0F53A72063A92B28A4288BF588F7047E5
:1055500078090020F00300207FB501AD04462846FD
:105560000E4603F0B5FD4FF04703013EADF80430A1
:10557000204600232946ADF80860ADF80A30ADF8A2
:10558000063003F021FC7FBD73B50D460446164678
:1055900001A803F03FFAADF804500EB1282300E053
:1055A00018238DF807302046022301A98DF8063014
:1055B00003F0E6F97CBDF0B585B001AE0446304697
:1055C0000D46174603F097FD4FF00103ADF8083084
:1055D000204600233146ADF80450ADF80670ADF812
:1055E0000A30ADF80C3003F0B3FE05B0F0BD00009A
:1055F000194B142270B502FB003303F10802D47872
:105600004FEA001C154D400064B90123D37005EB2F
:10561000C00391805CF80500197B0222BDE8704050
:10562000FFF7C9BFB2F804E0D180CEEB010189B227
:10563000198292F802E00A4B002423F81E1005EBB1
:10564000C003D470197B5CF805002246FFF7B3FF56
:10565000044B1C8070BD00BF0004002018D7000858
:10566000F0030020740900202DE9F04F2D4D134662
:105670000201545906464FF01408760085B002EB3B
:10568000050908FB00F801368B4620464FF6FF71EE
:105690000193FFF761FF55F83610D9F80400012295
:1056A00005EBC605FFF770FF2E7900222046314634
:1056B000FFF781FF2046012103F026FD6A79DFF81C
:1056C00068A08DF80C2000228DF80D2003A801326F
:1056D0008DF80E208DF80F2002F0E4FE019B0AEBFE
:1056E00008074AF808B0BB720C2E16D8DFE806F09F
:1056F000071515150A1515150D1515151000204659
:10570000022107E02046042104E02046082101E0B0
:1057100020461021012203F014FD384605B0BDE8F3
:10572000F08F00BF18D700080004002070B50D46A8
:105730000221044603F075FD012820460BD1022109
:1057400003F07AFD6BB214225A43254B2046D658FB
:1057500003F05AFD27E0042103F063FD01280ED178
:1057600001352046EDB2042103F066FD6BB2142230
:105770005A431B4B2046D65803F049FD13E008213D
:10578000204603F04EFD012811D102352046EDB22E
:10579000082103F051FD6BB214225A43104B2046EE
:1057A000D65803F037FD01462846B04770BD10219A
:1057B000204603F036FD012810D103351021EDB24B
:1057C000204603F039FD6BB214225A43044B2046A5
:1057D000D65803F022FD01462846B04770BD00BFF1
:1057E0000004002001480A21FFF7A0BF0008004084
:1057F00001480421FFF79ABF000400404FF08040A9
:105800000021FFF793BF0000022110B5124803F0FA
:1058100008FD012810480CD1022103F00DFD0F4BAB
:105820000D48D3F8A04003F0EFFC01460820A04744
:1058300010BD102103F0F5FC01280CD11021064801
:1058400003F0FAFC054B0448D3F8B44003F0E5FC40
:1058500001460920A04710BD002C01400004002093
:105860002DE9F045444B454F142505FB0035030158
:10587000DC5906464FEA460885B003EB070A204686
:1058800008F10108FFF768FE57F83810DAF804004D
:105890000022FFF779FE07EBC80768463F7903F05F
:1058A00020FC4FF07003ADF800304FF00103ADF86D
:1058B00002304FF00003ADF804304FF47A73ADF8C6
:1058C00006304FF00203ADF808304FF48073ADF8A6
:1058D0000C300C2F2BD8DFE807F0072A2A2A102AD1
:1058E0002A2A192A2A2A22002046694603F0C2FAE7
:1058F0002046082103F030FC19E02046694603F0F9
:1059000011FB2046082103F030FC10E020466946D8
:1059100003F054FB2046082103F031FC07E0204649
:10592000694603F095FB2046082103F031FC134B38
:1059300003EB0616B37B1BB12046012103F0F1FBFC
:105940002046012103F0E0FB0C2F10D8DFE807F020
:10595000070F0F0F090F0F0F0B0F0F0F0D00343430
:1059600004E0383402E03C3400E040346C60284607
:1059700005B0BDE8F08500BF0004002018D700087E
:10598000037942782DE9F041002B14BF0223002354
:10599000044602B10133304A002552F82370785D85
:1059A000FF2856D010F0300F00F0F00303D022781B
:1059B000002A08BF0023A27800F00F002AB1A0F14E
:1059C0000802D2B2012A98BF8023E27822B1021FD6
:1059D000D2B2032A98BF802313F0100F07D0002201
:1059E0001E49FFF741FE1E4B08221A702EE013F0ED
:1059F000200F08D01A4E1B493278FFF735FE337856
:105A00000133337022E013F0400F0BD0E3881649C6
:105A1000164E91FBF3F189B296F80080FFF720FF54
:105A2000134B0DE013F0800F10D023890E49114E57
:105A300091FBF3F189B296F80080FFF711FF0E4B4E
:105A400043F8280008F1010886F8008001350E2D82
:105A5000A5D10020BDE8F081F8D7000895540008D2
:105A600018050020F155000840420F0019050020DC
:105A70001C0500201A05002050050020014B187855
:105A8000704700BF730500201E4B70B51B78E3B153
:105A90001D4B1C781D4B93F800C002231C4A5E1C52
:105AA000D15C214101F00F01062908D8D55C925D37
:105AB00005EA0C0502EB0525164A42F8215002338F
:105AC000102BEBD10F4B00221A70062802D8124B74
:105AD0001B7813B9114B588F70BD104A0D4B92F8BB
