:020000040800F2
:1000000000500020C5130008691400086914000896
:100010006914000869140008691400080000000051
:10002000000000000000000000000000691400084B
:10003000691400080000000069140008C154000899
:10004000691400086914000869140008691400089C
:10005000691400086914000869140008691400088C
:10006000691400086914000869140008691400087C
:1000700069140008691400082D5A00086914000862
:10008000691400086914000869140008691400085C
:10009000691400086914000869140008691400084C
:1000A000691400086914000869140008691400083C
:1000B000195400080D54000869140008D94E0008AE
:1000C000994B0008D54E0008954B000869140008AC
:1000D000691400086914000869140008691400080C
:1000E000F177000869140008691400080000000096
:1000F0000000000000000000000000000000000000
:0C01000000000000000000005FF808F1A3
:1001100040F2AC13C2F200031A780AB90120187039
:10012000704700BF40F2AC10C2F2000008B503688F
:100130002BB140F20003C0F2000303B1984708BDA1
:1001400081F0004102E000BF83F0004330B54FEA88
:1001500041044FEA430594EA050F08BF90EA020FF5
:100160001FBF54EA000C55EA020C7FEA645C7FEA88
:10017000655C00F0E2804FEA5454D4EB5555B8BFAB
:100180006D420CDD2C4480EA020281EA030382EA1C
:10019000000083EA010180EA020281EA0303362DAE
:1001A00088BF30BD11F0004F4FEA01314FF4801C81
:1001B0004CEA113102D0404261EB410113F0004F93
:1001C0004FEA03334CEA133302D0524263EB43034A
:1001D00094EA050F00F0A780A4F10104D5F1200EE8
:1001E0000DDB02FA0EFC22FA05F2801841F1000143
:1001F00003FA0EF2801843FA05F359410EE0A5F117
:1002000020050EF1200E012A03FA0EFC28BF4CF047
:10021000020C43FA05F3C01851EBE37101F00045FD
:1002200007D54FF0000EDCF1000C7EEB00006EEB0A
:100230000101B1F5801F1BD3B1F5001F0CD3490894
:100240005FEA30004FEA3C0C04F101044FEA4452EB
:1002500012F5800F80F09A80BCF1004F08BF5FEA72
:10026000500C50F1000041EB045141EA050130BD52
:100270005FEA4C0C404141EB010111F4801FA4F1F5
:100280000104E9D191F0000F04BF01460020B1FA4A
:1002900081F308BF2033A3F10B03B3F120020CDA82
:1002A0000C3208DD02F1140CC2F10C0201FA0CF060
:1002B00021FA02F10CE002F11402D8BFC2F1200CC5
:1002C00001FA02F120FA0CFCDCBF41EA0C0190407B
:1002D000E41AA2BF01EB0451294330BD6FEA0404C4
:1002E0001F3C1CDA0C340EDC04F11404C4F12002AF
:1002F00020FA04F001FA02F340EA030021FA04F3C1
:1003000045EA030130BDC4F10C04C4F1200220FA17
:1003100002F001FA04F340EA0300294630BD21FA55
:1003200004F0294630BD94F0000F83F4801306BF1B
:1003300081F480110134013D4EE77FEA645C18BF0F
:100340007FEA655C29D094EA050F08BF90EA020FA6
:1003500005D054EA000C04BF1946104630BD91EA9E
:10036000030F1EBF0021002030BD5FEA545C05D1A1
:100370004000494128BF41F0004130BD14F58004E0
:100380003CBF01F5801130BD01F0004545F0FE4154
:1003900041F470014FF0000030BD7FEA645C1ABF89
:1003A000194610467FEA655C1CBF0B46024650EAC0
:1003B000013406BF52EA033591EA030F41F40021EC
:1003C00030BD00BF90F0000F04BF0021704730B572
:1003D0004FF4806404F132044FF000054FF0000147
:1003E00050E700BF90F0000F04BF0021704730B508
:1003F0004FF4806404F1320410F0004548BF4042DD
:100400004FF000013EE700BF42004FEAE2014FEA31
:1004100031014FEA02701FBF12F07F4393F07F4F0C
:1004200081F06051704792F0000F14BF93F07F4F3E
:10043000704730B54FF4607401F0004521F0004181
:1004400020E700BF50EA010208BF704730B54FF007
:1004500000050AE050EA010208BF704730B511F00C
:10046000004502D5404261EB41014FF4806404F144
:1004700032045FEA915C3FF4DCAE4FF003025FEAC6
:10048000DC0C18BF03325FEADC0C18BF033202EB4E
:10049000DC02C2F1200300FA03FC20FA02F001FAA8
:1004A00003FE40EA0E0021FA02F11444C1E600BF47
:1004B00070B54FF0FF0C4CF4E06C1CEA11541DBFFA
:1004C0001CEA135594EA0C0F95EA0C0F00F0DEF8C5
:1004D0002C4481EA030621EA4C5123EA4C5350EAAA
:1004E000013518BF52EA033541F4801143F48013FB
:1004F00038D0A0FB02CE4FF00005E1FB02E506F08C
:100500000042E0FB03E54FF00006E1FB03569CF0E0
:10051000000F18BF4EF0010EA4F1FF04B6F5007FE6
:1005200064F5407404D25FEA4E0E6D4146EB060658
:1005300042EAC62141EA55514FEAC52040EA5E50E1
:100540004FEACE2EB4F1FD0C88BFBCF5E06F1ED88B
:10055000BEF1004F08BF5FEA500E50F1000041EBC2
:10056000045170BD06F0004646EA010140EA02006F
:1005700081EA0301B4EB5C04C2BFD4EB0C0541EA91
:10058000045170BD41F480114FF0000E013C00F3A6
:10059000AB8014F1360FDEBF002001F0004170BDCA
:1005A000C4F10004203C35DA0C341BDC04F11404E3
:1005B000C4F1200500FA05F320FA04F001FA05F26F
:1005C00040EA020001F0004221F0004110EBD3703C
:1005D00021FA04F642EB06015EEA430E08BF20EA68
:1005E000D37070BDC4F10C04C4F1200500FA04F30B
:1005F00020FA05F001FA04F240EA020001F000419D
:1006000010EBD37041F100015EEA430E08BF20EA0F
:10061000D37070BDC4F1200500FA05F24EEA020E57
:1006200020FA04F301FA05F243EA020321FA04F086
:1006300001F0004121FA04F220EA020000EBD3703D
:100640005EEA430E08BF20EAD37070BD94F0000F3D
:100650000FD101F00046400041EB010111F4801F71
:1006600008BF013CF7D041EA060195F0000F18BF22
:10067000704703F00046520043EB030313F4801F5E
:1006800008BF013DF7D043EA0603704794EA0C0F18
:100690000CEA135518BF95EA0C0F0CD050EA41062E
:1006A00018BF52EA4306D1D181EA030101F00041AB
:1006B0004FF0000070BD50EA410606BF10461946D3
:1006C00052EA430619D094EA0C0F02D150EA0136DF
:1006D00013D195EA0C0F05D152EA03361CBF104620
:1006E00019460AD181EA030101F0004141F0FE41BF
:1006F00041F470014FF0000070BD41F0FE4141F443
:10070000780170BD70B54FF0FF0C4CF4E06C1CEA42
:1007100011541DBF1CEA135594EA0C0F95EA0C0FF7
:1007200000F0A7F8A4EB050481EA030E52EA0335B2
:100730004FEA013100F088804FEA03334FF08055D3
:1007400045EA131343EA12634FEA022245EA111500
:1007500045EA10654FEA00260EF000419D4208BFB1
:10076000964244F1FD0404F5407402D25B084FEA5E
:100770003202B61A65EB03055B084FEA32024FF40A
:1007800080104FF4002CB6EB020E75EB030E22BF67
:10079000B61A754640EA0C005B084FEA3202B6EB27
:1007A000020E75EB030E22BFB61A754640EA5C00D6
:1007B0005B084FEA3202B6EB020E75EB030E22BF66
:1007C000B61A754640EA9C005B084FEA3202B6EB67
:1007D000020E75EB030E22BFB61A754640EADC0026
:1007E00055EA060E18D04FEA051545EA16754FEA88
:1007F00006164FEAC30343EA52734FEAC2025FEAA6
:100800001C1CC0D111F4801F0BD141EA00014FF034
:1008100000004FF0004CB6E711F4801F04BF014305
:100820000020B4F1FD0C88BFBCF5E06F3FF6AFAE21
:10083000B5EB030C04BFB6EB020C5FEA500C50F1B1
:10084000000041EB045170BD0EF0004E4EEA113134
:1008500014EB5C04C2BFD4EB0C0541EA045170BD3B
:1008600041F480114FF0000E013C90E645EA060E7F
:100870008DE60CEA135594EA0C0F08BF95EA0C0FAD
:100880003FF43BAF94EA0C0F0AD150EA01347FF4F5
:1008900034AF95EA0C0F7FF425AF104619462CE7CC
:1008A00095EA0C0F06D152EA03353FF4FDAE10462F
:1008B000194622E750EA410618BF52EA43067FF480
:1008C000C5AE50EA41047FF40DAF52EA43057FF410
:1008D000EBAE12E74FF0FF3C06E000BF4FF0010C1B
:1008E00002E000BF4FF0010C4DF804CD4FEA410C7F
:1008F0007FEA6C5C4FEA430C18BF7FEA6C5C1BD04C
:1009000001B050EA410C0CBF52EA430C91EA030FCC
:1009100002BF90EA020F0020704710F1000F91EA29
:10092000030F58BF994208BF90422CBFD8176FEAF7
:10093000E37040F0010070474FEA410C7FEA6C5CC5
:1009400002D150EA013C07D14FEA430C7FEA6C5CCC
:10095000D6D152EA033CD3D05DF8040B704700BFF8
:100960008446104662468C461946634600E000BF46
:1009700001B5FFF7B7FF002848BF10F1000F01BD18
:100980004DF808EDFFF7F4FF0CBF012000205DF8E3
:1009900008FB00BF4DF808EDFFF7EAFF34BF012068
:1009A00000205DF808FB00BF4DF808EDFFF7E0FF01
:1009B00094BF012000205DF808FB00BF4DF808ED52
:1009C000FFF7CEFF94BF012000205DF808FB00BFB9
:1009D0004DF808EDFFF7C4FF34BF012000205DF89B
:1009E00008FB00BF4FEA410212F5001215D211D5E3
:1009F0006FF47873B3EB625212D94FEAC12343F01C
:100A0000004343EA505311F0004F23FA02F018BF9D
:100A1000404270474FF00000704750EA013005D166
:100A200011F0004008BF6FF0004070474FF0000029
:100A3000704700BF4A0011D212F5001211D20DD535
:100A40006FF47873B3EB62520ED44FEAC12343F0D4
:100A5000004343EA505323FA02F070474FF000007E
:100A6000704750EA013002D14FF0FF3070474FF02D
:100A7000000070474FEA4102B2F1E04324BFB3F5F2
:100A8000001CDCF1FE5C0DD901F0004C4FEAC00205
:100A90004CEA5070B2F1004F40EB830008BF20F0E9
:100AA0000100704711F0804F21D113F13872BCBFA3
:100AB00001F00040704741F480114FEA5252C2F1F8
:100AC0001802C2F1200C10FA0CF320FA02F018BF41
:100AD00040F001004FEAC1234FEAD32303FA0CFC94
:100AE00040EA0C0023FA02F34FEA4303CCE77FEA23
:100AF000625307D150EA01331EBF4FF0FE4040F46D
:100B00004000704701F0004040F0FE4040F400001B
:100B1000704700BF80F0004002E000BF81F000415C
:100B200042001FBF5FEA410392EA030F7FEA226C93
:100B30007FEA236C6AD04FEA1262D2EB1363C1BF23
:100B4000D218414048404140B8BF5B42192B88BF92
:100B5000704710F0004F40F4000020F07F4018BFB5
:100B6000404211F0004F41F4000121F07F4118BFD5
:100B7000494292EA030F3FD0A2F1010241FA03FC7D
:100B800010EB0C00C3F1200301FA03F100F0004365
:100B900002D5494260EB4000B0F5000F13D3B0F12D
:100BA000807F06D340084FEA310102F10102FE2A9C
:100BB00051D2B1F1004F40EBC25008BF20F001000C
:100BC00040EA03007047490040EB000010F4000FBA
:100BD000A2F10102EDD1B0FA80FCACF1080CB2EB4D
:100BE0000C0200FA0CF0AABF00EBC25052421843AC
:100BF000BCBFD0401843704792F0000F81F4000151
:100C000006BF80F400000132013BB5E74FEA410323
:100C10007FEA226C18BF7FEA236C21D092EA030F8F
:100C200004D092F0000F08BF0846704790EA010F09
:100C30001CBF0020704712F07F4F04D1400028BF36
:100C400040F00040704712F100723CBF00F5000018
:100C5000704700F0004343F0FE4040F4000070474E
:100C60007FEA226216BF08467FEA236301464202FA
:100C700006BF5FEA412390EA010F40F4800070470D
:100C80004FF0000304E000BF10F0004348BF4042B3
:100C90005FEA000C08BF704743F0964301464FF0EF
:100CA00000001CE050EA010208BF70474FF000034B
:100CB0000AE000BF50EA010208BF704711F000438C
:100CC00002D5404261EB41015FEA010C02BF84465C
:100CD0000146002043F0B64308BFA3F18053A3F5BB
:100CE0000003BCFA8CF2083AA3EBC25310DB01FA02
:100CF00002FC634400FA02FCC2F12002BCF1004F86
:100D000020FA02F243EB020008BF20F00100704716
:100D100002F1200201FA02FCC2F1200250EA4C006A
:100D200021FA02F243EB020008BF20EADC707047B0
:100D30004FF0FF0C1CEAD0521EBF1CEAD15392EABE
:100D40000C0F93EA0C0F6FD01A4480EA010C40029A
:100D500018BF5FEA41211ED04FF0006343EA5010F4
:100D600043EA5111A0FB01310CF00040B1F5000F36
:100D70003EBF490041EAD3715B0040EA010062F1E5
:100D80007F02FD2A1DD8B3F1004F40EBC25008BFCF
:100D900020F00100704790F0000F0CF0004C08BFED
:100DA00049024CEA502040EA51207F3AC2BFD2F1BA
:100DB000FF0340EAC250704740F400004FF00003C8
:100DC000013A5DDC12F1190FDCBF00F00040704702
:100DD000C2F10002410021FA02F1C2F1200200FA40
:100DE00002FC5FEA310040F1000053EA4C0308BF07
:100DF00020EADC70704792F0000F00F0004C02BF58
:100E0000400010F4000F013AF9D040EA0C0093F0D2
:100E1000000F01F0004C02BF490011F4000F013B2C
:100E2000F9D041EA0C018FE70CEAD15392EA0C0F9A
:100E300018BF93EA0C0F0AD030F0004C18BF31F005
:100E4000004CD8D180EA010000F00040704790F0DB
:100E5000000F17BF90F0004F084691F0000F91F07F
:100E6000004F14D092EA0C0F01D142020FD193EA45
:100E70000C0F03D14B0218BF084608D180EA0100CD
:100E800000F0004040F0FE4040F40000704740F0A9
:100E9000FE4040F4400070474FF0FF0C1CEAD05277
:100EA0001EBF1CEAD15392EA0C0F93EA0C0F69D0D3
:100EB000A2EB030280EA010C49024FEA402037D03E
:100EC0004FF0805343EA111143EA10130CF0004035
:100ED0008B4238BF5B0042F17D024FF4000C8B4225
:100EE00024BF5B1A40EA0C00B3EB510F24BFA3EB05
:100EF000510340EA5C00B3EB910F24BFA3EB9103D5
:100F000040EA9C00B3EBD10F24BFA3EBD10340EA2E
:100F1000DC001B0118BF5FEA1C1CE0D1FD2A3FF674
:100F200050AF8B4240EBC25008BF20F00100704729
:100F30000CF0004C4CEA50207F32C2BFD2F1FF03CC
:100F400040EAC250704740F400004FF00003013AFD
:100F500037E792F0000F00F0004C02BF400010F4A1
:100F6000000F013AF9D040EA0C0093F0000F01F0B5
:100F7000004C02BF490011F4000F013BF9D041EAD7
:100F80000C0195E70CEAD15392EA0C0F08D142020A
:100F90007FF47DAF93EA0C0F7FF470AF084676E7DD
:100FA00093EA0C0F04D14B023FF44CAF08466EE7B6
:100FB00030F0004C18BF31F0004CCAD130F0004284
:100FC0007FF45CAF31F000437FF43CAF5FE700BFDC
:100FD0004FF0FF3C06E000BF4FF0010C02E000BF05
:100FE0004FF0010C4DF804CD4FEA40024FEA4103A7
:100FF0007FEA226C18BF7FEA236C11D001B052EA5D
:10100000530C18BF90EA010F58BFB2EB030088BF22
:10101000C81738BF6FEAE17018BF40F00100704791
:101020007FEA226C02D15FEA402C05D17FEA236C73
:10103000E4D15FEA412CE1D05DF8040B704700BFBA
:10104000844608466146FFE70FB5FFF7C9FF002851
:1010500048BF10F1000F0FBD4DF808EDFFF7F4FF8A
:101060000CBF012000205DF808FB00BF4DF808ED23
:10107000FFF7EAFF34BF012000205DF808FB00BF46
:101080004DF808EDFFF7E0FF94BF012000205DF868
:1010900008FB00BF4DF808EDFFF7D2FF94BF012019
:1010A00000205DF808FB00BF4DF808EDFFF7C8FF12
:1010B00034BF012000205DF808FB00BF4FEA40026A
:1010C000B2F1FE4F0FD34FF09E03B3EB12620DD976
:1010D0004FEA002343F0004310F0004F23FA02F0E0
:1010E00018BF404270474FF00000704712F1610F87
:1010F00001D1420205D110F0004008BF6FF000405E
:1011000070474FF00000704742000ED2B2F1FE4F20
:101110000BD34FF09E03B3EB126209D44FEA0023C6
:1011200043F0004323FA02F070474FF0000070478D
:1011300012F1610F01D1420202D14FF0FF3070472E
:101140004FF00000704700BF4A1E08BF7047C0F054
:101150002481884240F21681114200F01781B0FAD2
:1011600080F3B1FA81F2A2EB0303C3F11F0304A2DF
:1011700002EB03134FF000029F4600BFAFF3008065
:10118000B0EBC17F00BF42EB020228BFA0EBC170F1
:10119000B0EB817F00BF42EB020228BFA0EB817061
:1011A000B0EB417F00BF42EB020228BFA0EB4170D1
:1011B000B0EB017F00BF42EB020228BFA0EB017041
:1011C000B0EBC16F00BF42EB020228BFA0EBC160D1
:1011D000B0EB816F00BF42EB020228BFA0EB816041
:1011E000B0EB416F00BF42EB020228BFA0EB4160B1
:1011F000B0EB016F00BF42EB020228BFA0EB016021
:10120000B0EBC15F00BF42EB020228BFA0EBC150B0
:10121000B0EB815F00BF42EB020228BFA0EB815020
:10122000B0EB415F00BF42EB020228BFA0EB415090
:10123000B0EB015F00BF42EB020228BFA0EB015000
:10124000B0EBC14F00BF42EB020228BFA0EBC14090
:10125000B0EB814F00BF42EB020228BFA0EB814000
:10126000B0EB414F00BF42EB020228BFA0EB414070
:10127000B0EB014F00BF42EB020228BFA0EB0140E0
:10128000B0EBC13F00BF42EB020228BFA0EBC13070
:10129000B0EB813F00BF42EB020228BFA0EB8130E0
:1012A000B0EB413F00BF42EB020228BFA0EB413050
:1012B000B0EB013F00BF42EB020228BFA0EB0130C0
:1012C000B0EBC12F00BF42EB020228BFA0EBC12050
:1012D000B0EB812F00BF42EB020228BFA0EB8120C0
:1012E000B0EB412F00BF42EB020228BFA0EB412030
:1012F000B0EB012F00BF42EB020228BFA0EB0120A0
:10130000B0EBC11F00BF42EB020228BFA0EBC1102F
:10131000B0EB811F00BF42EB020228BFA0EB81109F
:10132000B0EB411F00BF42EB020228BFA0EB41100F
:10133000B0EB011F00BF42EB020228BFA0EB01107F
:10134000B0EBC10F00BF42EB020228BFA0EBC1000F
:10135000B0EB810F00BF42EB020228BFA0EB81007F
:10136000B0EB410F00BF42EB020228BFA0EB4100EF
:10137000B0EB010F00BF42EB020228BFA0EB01005F
:10138000104670470CBF012000207047B1FA81F26F
:10139000C2F11F0220FA02F0704708B14FF0FF308F
:1013A00000F00EB80029F8D02DE90340FFF7CCFE7D
:1013B000BDE8064002FB00F3A1EB0301704700BF4C
:1013C000704700BF1A481B49026800608A4219D062
:1013D000002103E0184B5B58435004311748184B69
:1013E00042189A42F6D3174A02E0002342F8043B1F
:1013F000154B9A42F9D306F00DFC09F0E1FF00F01D
:1014000073F8FEE7114E124830601248016821F06F
:1014100070610160410201600F4C182020600F498B
:101420000F4808600F48D0F800D04068004700001F
:10143000F04F0020EFBEADDEA4CF0008000000207A
:10144000AC010020AC0100208812002018100240DE
:101450000900000004000140140C0140000C014090
:101460004434434400F0FF1FFEE700000F4B93F8A5
:1014700068312BB90E4BDA6882F01002DA6009E0AD
:101480000C4B1B791BB10A4B10225A6102E0084B2E
:1014900010221A61074B5B781BB1054B08225A6179
:1014A0007047034B08221A61704700BF7406002082
:1014B000000C01403C06002010B504F011F8084B68
:1014C000084A19681860411A116000F0A1FE00F086
:1014D000AFF800F00FFEBDE8104000F0C1BD00BF46
:1014E000B00100207005002008B504F0B9F805F03F
:1014F000D9FD00F013FE1D48002104F00BF81C4834
:10150000002104F007F81B4840F6055104F002F8EA
:10151000194840F6055103F0FDFF184844F62061D4
:1015200003F0F8FF164B93F8A43123B1154843F2AA
:10153000154103F0EFFF144849F6404103F0EAFF7C
:10154000124844F6206103F0E5FF1148114903F009
:10155000E1FF0B4B93F8B43123B10F4849F64041FA
:1015600003F0D8FF03F0FAFFFCE700BF6971000841
:10157000C9710008A95A0008B9140008612E0008B2
:101580007406002029720008615A0008013C000816
:101590006D140008A086010089720008214A92F8A3
:1015A0003230191FC9B2012912D9012B10D0022BD8
:1015B0000ED0032B0CD0092B0AD0112B08D0122BE4
:1015C00004D192F8E820042A02D903E0152B01D1B6
:1015D000012100E00021144A013B1170142B1FD897
:1015E000DFE803F00F11110D0B13131E11131E1E54
:1015F0001E1E1E1E11151E1E1B0000220AE00222C6
:1016000008E0032206E0042204E0062202E0054B83
:1016100093F8E820054B1A707047044B01221A70AA
:10162000704700BF74060020B4010020740500203C
:101630002DE9F74F9B4B9C4C93F83230013B142B18
:1016400000F2AB84DFE813F0B1003C0184012D000F
:10165000DA030A027A02A904C501E502A904A90471
:10166000A904A904A904A90453031500A904A90401
:1016700041048E4B8E4AD3F80C908E4B8949D2F898
:101680000CA0D2F80080576892681B7891F8C86067
:10169000019201F1EC040C22F831834D02FB03139B
:1016A0009DE3824B824ED868F168FFF739FA77687C
:1016B000814600213846FFF73BFB7A4D804695F97D
:1016C000C800FFF7E1FAB168FFF732FB0021D6F856
:1016D00000A00646FFF72CFB514683464846FFF71D
:1016E0001FFA4146FFF71CFA5946FFF719FAFFF7B0
:1016F0000BFD514620804846FFF710FA4146FFF7A0
:101700000FFA5946FFF70CFAFFF7FEFC6080B5F8B8
:10171000BE00FFF7B9FA3146FFF702FA3946FFF784
:10172000FFF90446B5F8BC00FFF7AEFA8046414623
:101730002046FFF79BFC08B140460CE0B5F8C0001E
:10174000FFF7A2FA054629462046FFF7ADFC08B18F
:10175000284600E02046FFF7D7FC524D564B80B29A
:101760001880B5F8C400FFF78FFA3146FFF7D8F9B3
:101770003946FFF7D3F90446B5F8C200FFF784FAFB
:10178000064631462046FFF771FC002840F088836A
:10179000B5F8C600FFF778FA054629462046FFF758
:1017A00083FC002800F0888388E3404B404ED868D3
:1017B000F168FFF7B5F9D6F804A007464FF04041AD
:1017C0005046FFF7B5FA3D49FFF766FB354D8146B8
:1017D00095F9C800FFF758FAB168FFF7A9FA002198
:1017E0008346FFF7A5FAD6F80080064641463846FC
:1017F000FFF796F94946FFF793F93146FFF790F95D
:10180000FFF782FC414620803846FFF787F94946BA
:10181000FFF786F93146FFF783F9FFF775FC0021E2
:1018200060804046FFF784FA01463846FFF778F9B2
:101830004FF0814107465046FFF77AFA1F49FFF7FC
:101840002BFB01463846FFF76BF93146FFF768F985
:10185000FFF75AFCA080B5F8CC00FFF715FA5946FF
:10186000FFF75EF90446B5F8CA00FFF70DFA064621
:1018700031462046FFF7FAFB08B130460CE0B5F8D8
:10188000CE00FFF701FA054629462046FFF70CFC7B
:1018900008B1284600E02046FFF736FC064B80B230
:1018A00018807AE374060020000000206C000020FD
:1018B0002006002074050020100000200000404099
:1018C0009A4D9B4BE968D868FFF72AF92E680746BE
:1018D00000213046FFF72CFA01463846FFF720F981
:1018E000944B814693F9C800FFF7CEF9A968FFF73A
:1018F0001FFAD5F80480054641464846FFF70EF921
:101900002946FFF70BF9FFF7FFFB00212080404637
:10191000FFF70EFA314682463846FFF7FFF8514688
:10192000FFF7FEF82946FFF7FBF8FFF7EDFB41460E
:1019300060804846FFF7F4F82946FFF7EFF8FFF715
:10194000E3FB3146A0803846FFF7EAF851463AE01B
:10195000764D774BE968D868FFF7E2F8D5F8008054
:1019600082464146FFF7DCF8724B074693F9C80000
:10197000FFF78AF9A968FFF7DBF96E68054631467B
:101980003846FFF7CBF82946FFF7C8F8FFF7BCFB4E
:10199000414620805046FFF7C1F831468046FFF7A8
:1019A000BDF82946FFF7BCF8FFF7AEFB3146608073
:1019B0004046FFF7B5F82946FFF7B0F8FFF7A4FB5C
:1019C0003146A0803846FFF7ABF82946FFF7A8F864
:1019D000D4E1564D564BE968D868FFF7A1F8554B4E
:1019E000074693F9C800FFF74FF9A968FFF7A0F978
:1019F00000216E68D5F800800546FFF799F9414649
:101A000082463846FFF78CF83146FFF787F8514693
:101A1000FFF786F8FFF778FB414620803846FFF74E
:101A20007DF83146FFF77AF85146FFF779F8FFF76E
:101A30006BFB002160804046FFF77AF9014638468B
:101A4000FFF76EF83146FFF76BF829460646FFF7B9
:101A500065F8FFF759FBA0803046B6E7344B334DAD
:101A6000D868E968FFF75CF8D5F804A006464FF09F
:101A700040415046FFF75CF92F49FFF70DFA2F68F8
:101A8000814639463046FFF74BF84946FFF748F89C
:101A9000284B804693F9C800FFF7F6F8A968FFF7CE
:101AA00047F9054629464046FFF738F8FFF72CFB73
:101AB000394620803046FFF731F84946FFF730F8C5
:101AC00029468146FFF72AF8FFF71EFB00216080B8
:101AD0003846FFF72DF901463046FFF721F84FF061
:101AE000814106465046FFF723F91349FFF7D4F921
:101AF00001463046FFF714F829460646FFF710F86E
:101B0000FFF702FB2946A0804046FFF709F8FFF7E0
:101B1000FBFA2946E0804846FFF702F8FFF7F4FA9F
:101B2000294620813046FEF7F9FFDCE02006002040
:101B30006C0000207406002000004040AA4BAB4D12
:101B4000D868E968FEF7ECFF2F6880460021384628
:101B5000FFF7EEF801464046FEF7E2FFD5F80490A5
:101B60008246A3494846FFF7E3F84FF07851FFF764
:101B7000DFF8A04B064693F9C800FFF785F8A9687F
:101B8000FFF7D6F8314605465046FEF7C9FF29460D
:101B9000FEF7C4FFFFF7B8FA394620804046FEF74B
:101BA000BDFF31468346FEF7BBFF2946FEF7B8FF6F
:101BB000FFF7AAFA904960804846FFF7B9F84FF05E
:101BC0007851FFF7B5F8814649465846FEF7A8FF19
:101BD0002946FEF7A3FFFFF797FA4946A080504633
:101BE000FEF79EFF2946FEF79BFFFFF78DFA394669
:101BF000E0804046FEF794FF49460746FEF790FF17
:101C00002946FEF78BFFFFF77FFA314620813846E1
:101C100064E0754B754DD868E968FEF781FFD5F82B
:101C200000A0804674495046FFF782F84FF0785183
:101C3000FFF77EF801464046FEF772FF6D4B074600
:101C400093F9C800FFF720F8A968FFF771F86E68EC
:101C5000054631463846FEF761FF2946FEF75EFF2E
:101C6000FFF752FA624920805046FFF761F84FF0C3
:101C70007851FFF75DF801464046FEF751FF3146C7
:101C80008246FEF74BFF2946FEF74AFFFFF73CFA74
:101C9000002160803046FFF74BF8804641465046B1
:101CA000FEF73EFF2946FEF739FFFFF72DFA3146D2
:101CB000A0805046FEF734FF2946FEF731FFFFF7BC
:101CC00023FA3146E0803846FEF72AFF2946FEF720
:101CD00025FFFFF719FA414620813846FEF720FF1D
:101CE0002946FEF71DFFFFF70FFA608155E13F4DD2
:101CF0003D4BE968D868FEF713FF3E4B074693F962
:101D0000C800FEF7C1FFA968FFF712F800216E684E
:101D1000D5F800800546FFF70BF841468246384665
:101D2000FEF7FEFE3146FEF7F9FE5146FEF7F8FEDD
:101D3000FFF7EAF9414620803846FEF7EFFE3146CC
:101D4000FEF7ECFE5146FEF7EBFEFFF7DDF9002152
:101D500060804046FEF7ECFF01463846FEF7E0FEA5
:101D60003146FEF7DDFE29460646FEF7D9FEFFF7AF
:101D7000CBF92946A0803046FEF7D0FEFFF7C4F924
:101D8000E0800AE1514648460093FEF7C9FE54F848
:101D90000C1C83464046FEF7CBFF01465846FEF733
:101DA000BFFE54F8081C83463846FEF7C1FF0146C3
:101DB0005846FEF7B5FE834670B2FEF765FF0199FF
:101DC000FEF7B6FF54F8041CFEF7B2FF0146584672
:101DD000FEF7A6FEFFF798F9009B25F8020C0C34DD
:101DE00002359C42CED1D8E06C00002020060020B5
:101DF0000000E0C0740600200000E0408F4CB4F802
:101E0000D200FEF741FF8E4B05469969D4F8D80001
:101E1000FEF78EFF01462846FEF782FE894B1968C1
:101E2000FEF77EFE0546B4F8D000FEF72DFF06460D
:101E300031462846FFF71AF908B130460CE0B4F8ED
:101E4000D400FEF721FF044621462846FFF72CF96F
:101E500008B1204600E02846FFF756F9774C7A4B48
:101E600080B21880B4F8DE00FEF70EFF744B054612
:101E7000D969D4F8E400FEF75BFF01462846FEF777
:101E80004FFE704B5968FEF74BFE0546B4F8DC0078
:101E9000FEF7FAFE064631462846FFF7E7F808B196
:101EA00030460CE0B4F8E000FEF7EEFE04462146B2
:101EB0002846FFF7F9F808B1204600E02846FFF76A
:101EC00023F9614B80B2588067E05E4E5E4DF0684A
:101ED000FFF71AF95D4B20801B79584C73B9E08EDF
:101EE000FEF7D2FE804641467068FEF717FE414677
:101EF00007463068FEF712FE064602E0544B5F6864
:101F00001E6894F93601FEF7BFFE3946FEF710FF52
:101F1000804694F93401FEF7B7FE3146FEF708FF1C
:101F200001464046FEF7FCFDFFF7EEF8288094F9E5
:101F30003701FEF7A9FE3946FEF7FAFE074694F987
:101F40003501FEF7A1FE3146FEF7F2FE01463846A6
:101F5000FEF7E6FDFFF7D8F838493B4A6880CB8E9C
:101F60001088B1F838211818904205DBB1F83A21F1
:101F70009042B8BF024692B233490A804A882F493C
:101F8000D218B1F83C319A4205DBB1F83E319A42A1
:101F9000B8BF13469BB22C4A53802E4B2E4993F860
:101FA00000B00A88012308E031F8020F0FFA82FC22
:101FB00001336045C8BF0246DBB25B45F4D31F4B1B
:101FC000264CB3F84000D98FB3F83A8093F84270AA
:101FD0009E8E1E4BC2EB00095D781FFA89F9B4F999
:101FE00006A04FEA4B0B002323E00FFA82FC844546
:101FF00005DD194C34F803C0CC4424F803C0164C5A
:1020000034F803C08C4501D28C4602E0844528BFD9
:102010008446114CC24524F803C003DA0FB1E652DE
:1020200000E0E15225B90C4C4FF47A7C24F803C04F
:1020300002335B45D9D1BDE8FE8F00BF7406002096
:10204000F41100206C000020100000203C0600204D
:1020500020060020740500200000002060060020FB
:1020600038B50B4B00241D78002D14BF0225002528
:1020700008E0084B601933F81410C0B202F02EFFCC
:102080000134E4B2044B1B78A342F2D838BD00BF40
:10209000B401002000000020740500200649074B11
:1020A00009789A1C02EB410201E023F8020C02338A
:1020B0009342FAD1FFF7D4BF74050020000000203E
:1020C00038B5054600240FE0094B0134D88FFFF7DF
:1020D000E5FFFA2003F08FFA4FF47A70FFF7DEFF86
:1020E000FA2003F088FAE4B2AC42EDD338BD00BF69
:1020F00074060020074B10B51B7853B1064C002026
:10210000218802F0EBFE61880120BDE8104002F05A
:10211000E5BE10BDB401002010000020084B094AA4
:1021200003F17001D86C1060186D5060586D9060AC
:10213000986D1033D06018328B42F3D1704700BFD6
:102140007406002078050020044B03F1A80100224A
:102150001A615A6118338B42F9D170477805002013
:1021600000230361436170472DE9F04704460D46A3
:10217000D0F814901046616161689046FEF7D8FD72
:102180002049FEF7D5FD01462846FEF7D1FD21691D
:10219000FEF7C6FCD4F80CA0074620611A49504649
:1021A000FEF7C6FD064631463846FEF75FFF50B9DA
:1021B00014495046FEF7BCFD064631463846FEF748
:1021C00073FF00B93E46266121682846FEF7B0FD40
:1021D0000C4907463046FEF75FFE01463846FEF7DB
:1021E0009FFC494606462846FEF798FCA168FEF784
:1021F0009FFD4146FEF750FE01463046FEF790FC3B
:10220000BDE8F08700007A4400007AC400000000B6
:102210002DE9F84503F064F9834E844B05461860B8
:102220003068281AFEF72CFD8149FEF781FD814BAD
:1022300004461A793560002A31D07F4D6868FEF770
:10224000E3F875A3D3E90023FEF732F9FEF712FC99
:1022500007462868FEF7D8F86FA3D3E90023774D27
:10226000FEF726F9FEF706FCA969FEF757FC02F017
:1022700005F9224601467248FFF776FF02F0FEF8A4
:10228000E96906463846FEF749FC02F0F7F82246AF
:1022900001466C48FFF768FF02F0F0F845E05B7A12
:1022A000654D002B2CD0654B186A674B1968FEF7FB
:1022B00035FC064606F08AFD8246304606F0B8FD3B
:1022C000D5F80080074651464046FEF731FD6D685F
:1022D000064639462846FEF72BFD01463046FEF7F6
:1022E0001DFC514606462846FEF722FD39460546A6
:1022F0004046FEF71DFD01462846FEF711FC14E09E
:102300002868FEF781F846A3D3E90023FEF7D0F84A
:10231000FEF7B0FB06466868FEF776F840A3D3E9FF
:102320000023FEF7C5F8FEF7A5FB424B05465B7997
:10233000CBB1464B9B78B3B1454B9B7813B945481D
:10234000FFF70EFF444B18683C4B196AFEF7E6FB9B
:1023500002F094F8224601463E48FFF705FF02F0DE
:102360008DF880460FE0344B9868FEF74DF82CA3AB
:10237000D3E90023FEF79CF8FEF77CFB2F4B804649
:102380001A6A354B1A602B4B9B79EBB1334B1868AB
:102390002A4BD96FFEF7C2FB3149FEF77DFD22467D
:1023A00001463048FFF7E0FE2F490746FEF75EFE84
:1023B00008B12D4F05E038462C49FEF775FE00B1F7
:1023C0002A4F2B4BDF6002E0294B0022DA601B4FC3
:1023D0003046796AFEF7A2FB224601462548FFF700
:1023E000C3FE234EB96A30602846FEF797FB2246AB
:1023F00001462148FFF7B8FEF96A70604046FEF7D3
:102400008DFB224601461D48FFF7AEFEB060BDE8D9
:10241000F88500BFAFF30080FCA9F1D24D62503FB8
:102420007B14AE47E17A743FB8010020BC01002064
:10243000BD3786353C0600206C000020F4110020DA
:10244000C0050020D805002070060020680000208C
:102450007C000020F0050020340600205C060020EF
:102460000000204108060020000048C30000484347
:10247000200600207805002090050020A8050020F7
:10248000014B01221A707047E1010020014803F05E
:1024900019BA00BFA8B60008014803F013BA00BF7C
:1024A000D6B6000838B50D4803F00CFA00240C4DE0
:1024B000285903F007FA2D19092003F0EDF968688F
:1024C00003F000FA074803F0FDF903F0A5F900282E
:1024D000FBD00C343C2CEAD138BD00BFDBB6000881
:1024E000B8C00008D3B7000838B50D4803F0EAF9C2
:1024F00000240C4D285903F0E5F92D19092003F0AB
:10250000CBF9686803F0DEF9074803F0DBF903F064
:1025100083F90028FBD00C34842CEAD138BD00BFED
:10252000FEB6000824B60008D3B7000810B503F0C3
:1025300051F84FF47A71B0FBF1F1144C144801F0EA
:10254000A0FA144803F0BEF9D4F88000FDF75CFF50
:1025500002460B46104801F094FA94F888100F4890
:1025600001F08FFA0E4803F0ADF90E4B0E481968D2
:1025700001F087FA02F04EF901460C4801F081FAA9
:102580000B48BDE8104003F09DB900BFF4110020D6
:1025900014B7000826B700083AB700083FB700088C
:1025A00044B700087005002051B7000860B7000864
:1025B000D3B700082DE9F041074608F049FFC5B23E
:1025C00055B91F4803F07EF91E4B93F832201E4B7D
:1025D000013A53F822002AE038461C492A4608F0FE
:1025E0003FFF044670B91A4803F06CF9164B53F8D4
:1025F0002400F0B103F066F90134202003F04CF917
:10260000E4B2F3E70024104E56F8241009B911483B
:1026100010E038462A4608F023FF631C70B9094AC7
:102620000D4882F8323003F04DF956F8240003F0DB
:1026300049F90A48BDE8F04103F044B9DCB2E2E7E9
:1026400071B70008740600202000002004BB0008B9
:1026500081B7000894B70008ACB70008D3B70008EA
:102660002DE9F04585B0804608F0F2FE074628B116
:10267000012879D198F800302A2B75D14B4C4C4861
:1026800003F020F9D4F86C01FDF7BEFE0646D4F83D
:1026900070010F46FDF7B8FECDE90001D4F87401D2
:1026A000FDF7B2FE32463B46CDE90201414801F05A
:1026B000E8F9D4F87C01FDF7A7FE0646D4F88001BE
:1026C0000F46FDF7A1FECDE90001D4F88401FDF726
:1026D0009BFE32463B46CDE90201374801F0D1F975
:1026E000D4F88801FDF790FE0646D4F88C010F4619
:1026F000FDF78AFECDE90001D4F89001FDF784FED4
:102700002E4D32463B46CDE902012D4801F0B9F984
:10271000E86BFDF779FE0646286C0F46FDF774FE60
:10272000CDE90001686CFDF76FFE32463B46CDE90E
:102730000201244801F0A5F9D4F89801FDF764FEE0
:102740000646D4F89C010F46FDF75EFECDE9000178
:10275000D4F8A001FDF758FE3246CDE902013B4610
:10276000194801F08EF91DE000252C46174E404611
:1027700071593A465FFA84FA08F072FE40B90C23A8
:1027800003FB0464A3689847BAF1040F0AD903E075
:1027900001340C35052CE9D10D4805B0BDE8F045F4
:1027A00003F090B805B0BDE8F08500BF74060020C6
:1027B000BAB70008D6B70008F0B70008F411002037
:1027C0000CB8000832B800084EB80008B8C00008BD
:1027D00066B8000870B50D680446284608F038FE53
:1027E000024620682946BDE8704008F039BE000066
:1027F0007FB5037904460D46052B2BD8DFE803F09F
:10280000030810151B208368204968461A7804E0E5
:1028100083681F4993F90020684601F023F919E005
:1028200083681A4968461A88F7E783681849684632
:10283000B3F90020F1E78368144968461A68ECE7A9
:1028400083681868FDF7E0FD02460B4668461149AB
:1028500001F008F968466E4603F034F8ADB10E4851
:1028600003F030F869460A22E06801F04BFD684643
:1028700003F028F8084803F025F8206969460A2281
:1028800001F040FD684603F01DF87FBD41B7000828
:1028900084B8000887B80008D9B600082DE9F041CF
:1028A000064608F0D5FD074620B101281FD1337830
:1028B0002A2B1CD1424803F005F8424C04F5E2658E
:1028C0000C35206802F0FEFF3F4802F0FBFF204677
:1028D0003946FFF78DFF3D4802F0F4FF02F09CFF00
:1028E0000028FBD01434AC42EBD1BDE8F081304677
:1028F0003D2108F0A1FD074600285ED0314C04F5CB
:10290000E2650C35D4F80080404608F0A1FD414650
:102910000246304608F0A4FD8046002845D12379C0
:10292000781C052B04D101F0C7FD0546404602E0A6
:1029300008F019FD00252379052B06D0E2689042A6
:1029400013DB2269904212DD0FE0E068FEF79CF98C
:1029500001462846FEF78AFB38B92069FEF794F94C
:1029600001462846FEF7A0FB88B1194821E0052B57
:102970000FD8DFE803F003030606090CA3681870FC
:1029800007E0A368188004E0A368186001E0A3686A
:102990001D60206802F096FF0E4802F093FF20466B
:1029A0000021BDE8F041FFF723BF1434AC42A9D1A8
:1029B0000948BDE8F04102F085BFBDE8F08100BFE5
:1029C0008AB80008F4C000089FB80008D3B7000810
:1029D000A3B80008B1B70008C8B8000810B5084887
:1029E00002F070FF00F084FC064802F06BFF0A2042
:1029F00002F001FE0020BDE8104002F007BE00BF5B
:102A0000E5B80008EFB80008F0B585B0044608F056
:102A10001FFD082824D100231F49E25C09685118D2
:102A2000497811F0020F18BF203AE2540133082B05
:102A3000F2D1651C04F1090715F8016C17483146FD
:102A400008F0FAFC20B12846314608F0F5FC08B140
:102A500013481CE00135BD42EED1204600F06CFC6D
:102A6000104802F02FFF00230F4A04A9D218927ACF
:102A70008A180A49595C0133082B02F80C1CF3D15F
:102A8000083B01A88DF80C3002F01CFF074802F04B
:102A900019FF05B0F0BD00BFB400002010C8000849
:102AA000FEB800081EB9000874060020D3B700085D
:102AB00010B50446084802F005FF2022002107480F
:102AC00008F0B1FC064A00231360064A2046137042
:102AD000BDE81040FFF782BF33B90008C0010020F5
:102AE000E40100203006002010B5084802F0EAFE9C
:102AF000012000F037FC064802F0E4FE0A2002F054
:102B00007AFD0020BDE8104002F080BD4BB90008FE
:102B1000F1B800082DE9F0418A4B8AB01A7832B931
:102B200001321A70884802F0CDFEFFF7B5FC874BE2
:102B30001B78002B00F07B8102F0D0FE18B102F070
:102B400079FE834B1870824B1B786D2B46D00CD8C6
:102B5000622B23D005D8232B0FD0612B40F0678147
:102B60000FE0672B40F0638122E0742B65D0772B58
:102B700066D0712B40F05B813DE0744B00221A70EF
:102B8000DCE0744C2068FDF73FFC064660680F46A9
:102B9000FDF73AFCCDE90001A06815E06D4B986F98
:102BA000FDF732FC02460B466B4800F06AFF3EE13F
:102BB000684C606AFDF728FC0646A06A0F46FDF7E0
:102BC00023FCCDE90001E06AFDF71EFC3246CDE9A9
:102BD00002013B46614800F054FF28E15D4CA06DC6
:102BE000FDF712FC0646E06D0F46FDF70DFCCDE942
:102BF0000001206EE8E75A4B18685A4BD3F8008062
:102C0000594B1F68594B1E68FDF7FEFB04464046B2
:102C10000D46FDF7F9FBCDE900013846FDF7F4FB61
:102C2000CDE902013046FDF7EFFB2246CDE9040174
:102C30002B464F4800F025FFF9E002F0F7FCF6E0E4
:102C4000444C4C49A069FEF773F8FDF7DDFB0646DE
:102C50000F46E0694749FEF76BF8FDF7D5FBCDE974
:102C600000014449206AFEF763F8ADE702F0E2FD97
:102C7000092801D03F2853D13F4BDFF80C810026B3
:102C80001F683546A8F184040CE02FB13B48216849
:102C90003A4608F0E5FB20B915B92646254600E07E
:102CA00026460C344445F0D1BDB1344A3B46D219D6
:102CB0002968C85C3168C95C81420CD1581C01325A
:102CC00029B92E4A2031D1542B4B186005E002F867
:102CD000011C0346ECE7284A1360274B1B680BB125
:102CE000B5420FD0264802F0EDFD06E055F80C0B7A
:102CF00002F0E8FD092002F0CFFDB542F6D9FFF75A
:102D0000CBFB00271D4CE41904E014F8010C02F081
:102D1000C3FD0137184B01341B689F42F5D386E091
:102D2000154B1B682BB9042803D11448FFF7C0FECC
:102D300082E00C282AD1134802F0C4FDFFF7ACFB57
:102D400075E000BF3006002066B90008E1010020F0
:102D5000E0010020F41100203DCA0008A1B90008DC
:102D60008000002008050020000500200405002048
:102D70009EB90008E02E6542E4010020C001002059
:102D8000ABB90008B0B90008A8B60008002B2FD0D6
:102D90000A2801D00D282BD1294802F093FD294B98
:102DA000294C1A680023A3540893284B07A80093C2
:102DB00027490B220C23079408F0D9FA054638B1AD
:102DC000006808F045FB0130AB682018984702E026
:102DD000204802F077FD20221B48002108F023FB49
:102DE000184B00221A601C4B1B78002BA6D123E045
:102DF0007F2801D008280AD1CBB1124A013B1360C9
:102E0000114A0021D154154802F05CFD0FE01F2B40
:102E10000DD81F280BD97E2809D80BB9202806D039
:102E2000094AD054074A0133136002F035FD02F01D
:102E300055FD00287FF41AAF0AB0BDE8F08100BF4D
:102E4000D3B70008E4010020C0010020D527000806
:102E500024B60008BBB9000830060020DCB9000821
:102E60002DE9F14F7B4B00241A787B4D01321A700B
:102E70002646784B794F93F80080BB19987A02F078
:102E80003BF8A0F53A73063B9BB240F2DC5293420A
:102E900088BFF88E704B08F0030808EB860823F80B
:102EA00018002B886A88D218AB88D218EB88D21801
:102EB00012B2931C48BF531D9B10694A9BB2135317
:102EC000684A19B2A05E0338814201DA981CA05208
:102ED000644AA05E0330814201DD023BA352013609
:102EE00002340835082EC4D15E4C5C4DB4F906207E
:102EF0006B8F9A4245DAFFF727F92B8C73B15A4B47
:102F00005B7923B1594B1A780AB1012215E0574B6E
:102F10005A78002A62D000225A705FE0B4F9042087
:102F2000AB8F9A420FDD514B597861B950490A78FD
:102F3000501C142A087051D1133A5A704D4B1A6A1A
:102F40004D4B1A604AE0454B5B8F9A4243DA474A41
:102F5000517841B146490B78581C142B08703DD16B
:102F6000143B53703AE03F4AB2F902209A4232DDF4
:102F70003F4A1378591C142B11702FD103F07EFF98
:102F80002CE0A98F8A4229DD384A527832BBB4F945
:102F900004208A420CDDB4F90210994208DA344A5E
:102FA0001378591C142B117018D104F07BFC15E018
:102FB0009A4210DA2B4AB2F902209A420BDA2C4AD2
:102FC0001378591C142B117008D103F02DFE032027
:102FD000FFF776F802E0264B00221A701F4B9A7812
:102FE000002A2AD0254AB3F804E01088704521D978
:102FF0001E4A5178F1B1B3F836C01A49A1F800C0A1
:10300000A1F802C0A1F804C0B3F808C0DB88A1F899
:1030100006C09E4401217045D17302DD0023537028
:103020001370124B5A780AB95A701A70134B013048
:10303000188002E00D4B0022DA73084B104A588FBB
:103040009C8F00231946B2F900C084451ADC4FF06A
:10305000000E1FE0F9010020FC0100207406002092
:10306000E8010020600600204C0600203C060020FD
:10307000F8010020F411002070060020380800201C
:103080006806002032F908EC8645ACBF4FF0000E10
:103090004FF0010E8445ACBF002501259D40A4459D
:1030A000D4BF4FF0000C4FF0010C45EA01019D1C0C
:1030B0000CFA05FC41EA0C0103F1010C0EFA0CFEBE
:1030C000033341EA0E0102320C2B89B2BBD1734F9C
:1030D0000C3B3A46B2F816C0714811EA0C0F0CBF0F
:1030E0004FF0000C4FF0010C03F800C00133023226
:1030F0000E2BEFD1437913B96A4B01221A70684B3A
:103100001A7A684B02B101229A72654B1B7813B987
:10311000644BDA7B5AB1634C23794BB96248FFF7B1
:103120001FF86248FFF71CF80123237100E01A71B1
:103130005B4B9A785B4B42B15A793AB901325A717A
:103140005B4B1A6A5B4B1A6000E05A71544B5A7A17
:10315000544B42B15A7A3AB901325A72544B1A6AF4
:10316000554B1A6000E05A724D4B5B7B1BB1504BC4
:103170001A6A514B1A600025504B514CE85EFDF71E
:1031800083FD44F815000235082DF5D1434BDE8E42
:103190003046FDF779FD054629462068FDF7BEFC5F
:1031A000294620606068FDF7B9FC29466060A06888
:1031B000FDF7B4FCA060A6F5BA600C38FDF764FD1D
:1031C0000146E068FDF7AAFC0025E0602C46DFF828
:1031D000F8A03C4B1AF80420B7F844B01A555846EA
:1031E000FDF752FDDFF8D890804659F8056041465A
:1031F0003046FDF745FF78B1CBF10000FDF744FD07
:1032000001463046FDF746FF30B1002349F805304E
:1032100001230AF8043014E02B4B00221A553046E3
:103220000021FDF741FFDFF898A020B1304641466C
:10323000FDF774FC03E030464146FDF771FC4AF8A7
:103240000500013404350237032CC0D11C4BDC6867
:103250001E4B20461968FDF761FC1D4920F0004017
:10326000FDF722FF10B10F4B00229A710C4B5A78D8
:103270000C4B7AB19A7972B901329A71134B154895
:103280001C600B4BDA6F144B1A6001B0BDE8F04FB5
:10329000FEF766BF9A7101B0BDE8F08F740600209A
:1032A0004C0600203C060020C0050020D805002068
:1032B000F411002034060020700600206006002073
:1032C0006C0000207C0000206800002038060020F0
:1032D0000000A041080600205C06002002480349C7
:1032E0004FF4E27208F092B87406002000FC010866
:1032F00010B504F0F9FE342004F00AFF0B4804F086
:103300005FFF04280CD1094C094B2046E15804F01A
:103310002DFF042800D0FEE7064B04349C42F3D175
:1033200004F0EEFEBDE81040FFF7D8BF00FC010836
:10333000740AFE17C4FD010870B50646002409E0B2
:10334000064D284608F078F818B1054A83185D1B29
:10335000AC720134315D0029F2D170BD10C8000893
:103360007406002070B5B04B1B7810B9022B00F02A
:103370005981AE4C02232370AD48FFF7DDFF0123D6
:103380004FF4C8706370013B4FF032026082A3704B
:103390004FF4966044F62063E380A282A2802081ED
:1033A00004F11C034FF0000CA4F816C002349C4238
:1033B0006546F7D19D4B40F2DC50D88640F24C4038
:1033C000588740F27E40D8874FF00C000322A3F8C4
:1033D0004400A3F84600A3F8480040F2DC5083F80C
:1033E0003220A3F8BE004FF47A724FF47A709A86B6
:1033F000A3F8C2004FF4FA624FF4FA601A87A3F8F8
:10340000C60040F26C7240F2DC509A87A3F8CC0000
:1034100040F23A724FF47A70A3F84020A3F8D0003B
:103420004FF47A724FF4FA60A3F8BC20A3F8D400EA
:103430004FF4FA624FF47A70A3F8C020A3F8DC00CE
:1034400040F2DC5240F2DC50A3F8C420A3F8DE00C6
:103450004FF47A724FF4FA60A3F8CA20A3F8E000A0
:103460004FF4FA620420A3F8CE2083F8E80040F27B
:10347000DC5270480121A3F8D2204FF07E52C3F8ED
:10348000D820C3F8E420C3F8EC20C3F8F00083F898
:10349000421083F8C810C3F8F400C3F8F800C3F86A
:1034A000FC00C3F80401C3F80C014FF0FF3083F8AF
:1034B000340183F836014FF47A70A3F838014FF4E1
:1034C000FA60A3F83A014FF47A70A3F83C014FF484
:1034D000FA60A3F83E01584C5848C3F80021C3F8DD
:1034E0000821C3F81021C3F81421C3F818210022C1
:1034F000C3F81C21C3F82021C3F82421C3F82821D4
:10350000C3F82C21C3F83021D8641A655A65986530
:10351000D8651A665A669866DC661A6783F83511AC
:1035200083F837115A6798674FF07C50C3F88800CA
:10353000C3F89800C3F8A80041484FF08044C3F88E
:10354000AC004048DC67C3F8B0003F48C3F88C408B
:10355000C3F8B4003D484FF07F54C3F8B8003C486E
:10356000C3F89C40C3F844013A483B4CC3F84801B7
:103570003A483B4EC3F84C013A48C3F88020C3F8A0
:1035800050013948C3F88420C3F85401C3F86401DA
:103590004FF02A00C3F89020C3F89420C3F8A0206D
:1035A000C3F8A420C3F86C21C3F87021C3F87421B8
:1035B000C3F87C2183F84011C3F85841C3F85C611B
:1035C000C3F8604183F868C1A3F87801C3F880218B
:1035D000C3F88421C3F88821C3F88C21C3F8902153
:1035E000C3F89821C3F89C21C3F8A0211F4A83F88F
:1035F00094C1C3F8A8211E4A83F8A411C3F8AC21D2
:103600001C4A83F8B4C1C3F8B0211B4AC3F8B821DF
:103610001A4AC3F8BC211A4AC3F8C021BDE8704059
:10362000FFF766BE70BD00BF00FC010874060020F5
:1036300018C80008000080BF000048430000C842CE
:103640000000A041000088410000E0400060EA4620
:10365000E19575C040CCB0402F6B71BB4E6562C028
:103660002E14B03BAD8B593F979F833AA4702941EC
:10367000000040400AD7233C000030413333534020
:1036800066668640F8B504460E4610464FF07E51F9
:103690001546FDF7E1FC20BB3046FCF7B5FE0646BB
:1036A00028460F46FCF7B0FE02460B4600200E49A6
:1036B000FCF74AFD02460B4630463946FCF7F8FE59
:1036C00006460F4620462946FDF732FBFCF79CFED6
:1036D00002460B4630463946FCF738FDFDF7CAF97D
:1036E00004462046F8BD00BF0000F03F2DE9F84534
:1036F0000C46D1F8088019681F4616460546FDF7A6
:1037000017FB216882467868FDF712FB0146504698
:10371000FDF706FA61688246B868FDF709FB0146C5
:103720005046FDF7FDF9F96882464046FDF700FB7B
:1037300001465046FDF7F4F9E16882463869FDF725
:10374000F7FA01465046FDF7EBF921690746306864
:10375000FDF7EEFA01463846FDF7E0F961690746E4
:103760007068FDF7E5FA01463846FDF7D7F9A1691B
:103770000746B068FDF7DCFA01463846FDF7CEF99A
:10378000E1690746F068FDF7D3FA01463846FDF7D0
:10379000C5F9C4F80C806368A36023682560636082
:1037A000A369E3616369A361236920616361BDE883
:1037B000F88528B102681170026801320260704712
:1037C000C8B202F069B82DE9F845161E04460D4648
:1037D0000FDD002200E00132A95C0029FBD1B242DA
:1037E000ACBF0E46B61A13F0020F02D04FF0300AEB
:1037F00001E04FF0200A13F0010809D04FF0000853
:1038000008E020465146FFF7D4FF08F10108013EC9
:10381000002EF6DC474603E02046FFF7CAFF0137DB
:10382000C8EB0503D95D0029F6D105E020465146D5
:10383000FFF7BFFF0137013E002EF7DC3846BDE839
:10384000F8852DE9FF410A9F05460B9EDDF830E023
:103850008C4651B930238DF804308DF805103A4666
:1038600001A93346FFF7AFFF39E03BB10A2A05D182
:10387000002903DAC1F1000C012400E0002404ABAC
:10388000002103F8011D0DE0BCFBF2F102FB11C1A8
:103890000929C4BFAEF13A000918303103F8011DFF
:1038A000BCFBF2FC9846BCF1000FEDD184B14FB1E6
:1038B00016F0020F06D028462D21FFF77AFF013FB0
:1038C000012405E02D2203F1FF3803F8012C002428
:1038D000284641463A463346FFF775FF001904B0C3
:1038E000BDE8F0812DE9F04F82468FB00E461446B8
:1038F0004FF0060B0025A4E0252B40F09C8016F825
:10390000013F002B00F0A180252B00F094802D2B8F
:1039100002D04FF0000806E001364FF0010802E047
:10392000013648F002083378302BF9D00022914656
:103930000AE02AB10A2303FB0B1B0BF0FF0B08E084
:103940000A2303FB0909013633782E2B03D14FF0EC
:10395000000B0122F7E7A3F13000C1B20929E8D931
:10396000732B07D154F8041B3D4B5046002908BF68
:1039700019465AE0642B0BD1033B0293CDF800901B
:10398000CDF80480271D504621680A22603B0CE0D8
:10399000782B0FD1173BCDF80090CDF8048002931F
:1039A0002168271D50461022613BFFF74AFF2D1862
:1039B0003C4645E0582B0BD1173B0293CDF80090C5
:1039C000CDF80480271D504621681022413BECE7CA
:1039D000752B0AD1143BCDF80090CDF804800293EA
:1039E000271D504621680A22DEE7632B0DD123688C
:1039F00050468DF8343000238DF835300DA94A46F5
:103A00004346271DFFF7DFFED1E7662B18D10734A9
:103A100024F0070305AFD3E9000103F108043A4697
:103A20005B4600F081FC504639464A464346FFF764
:103A3000CAFE2D1804E050463178FFF7BAFE013572
:103A400001363378002B7FF457AFBAF1000F03D063
:103A5000DAF8003000221A7028460FB0BDE8F08F67
:103A600021C800080EB40FB505AA52F8041B019036
:103A700001A80392FFF736FF04B05DF804EB03B032
:103A800070470FB407B504AA52F8041B0020019236
:103A9000FFF728FFBDE80E4004B07047034B044910
:103AA0001A78885C01321A70704700BF3E0200200D
:103AB0004402002010B5FFF7F1FF0446FFF7EEFFC8
:103AC00004EB002080B210BD10B5FFF7F3FF0446F1
:103AD000FFF7F0FF04EB004010BD000010B50446F6
:103AE00001F0DAFE024B1A7854401C7010BD00BF82
:103AF0003C02002038B50546002401E0FFF7EEFF48
:103B0000285D01340028F9D138BD0000014B187838
:103B1000FFF7E4BF3C02002070B5044624200D46A8
:103B2000FFF7DCFF4D20FFF7D9FF002C14BF212049
:103B30003E20FFF7D3FF064B00221A702846FFF7FE
:103B4000CDFF044B1878BDE87040FFF7C7BF00BF3A
:103B50003C0200204302002001460120FFF7DCBFA9
:103B600001460020FFF7D8BF70B50B4D0B4C064641
:103B7000C0B2287001F090FE2A782378B6B282EAAB
:103B80000303300A2370287001F086FE23782A7818
:103B900082EA0303237070BD420200203C02002031
:103BA00070B5154D154C0646C0B2287001F074FE74
:103BB0002A782378300A82EA0303C0B2237028707F
:103BC00001F06AFE2A782378300C82EA0303C0B23F
:103BD0002370287001F060FE2A782378300E82EA84
:103BE00003032370287001F057FE23782A7882EAB5
:103BF0000303237070BD00BF3F0200203C02002081
:103C000070B5A34B1B78002B00F05283BDE87040C9
:103C1000FEF780BF01F00EFE9E4B1A78A2B9242851
:103C200014BF002201221A70002A40F04183232889
:103C300003D0522840F03C8302E0FEF76BFF37E3ED
:103C4000012001F0E3FC33E3012A04D14D280CBF2D
:103C50000220002005E0022A05D13C280CBF0320E9
:103C60000020187024E3032A11D1402801D9033A17
:103C70001DE3894A8949107000220A7088490A7038
:103C8000884A107004221A70033A874B0FE3042A03
:103C900007D1864A1070834A117848401070052277
:103CA00005E3052A40F004837C497B4B0A781B78A6
:103CB00093427C4B0AD993F800C080EA0C0C83F83D
:103CC00000C07B4B985401320A70F1E21B788342AA
:103CD00040F0EB82754B1B78722B00F0B78223D833
:103CE0006A2B5DD010D8662B00F0518106D8642B6A
:103CF00000F0FD80652B40F0D38209E1682B00F0D5
:103D00009A8100F2A4818AE16E2B00F0DF8105D850
:103D10006C2B00F0A88100F2D18141E0702B00F003
:103D2000FF8100F279823BE0CB2B00F0C98010D8F4
:103D3000762B00F09D8205D8742B00F07B8200F278
:103D40007E828AE2C92B1FD02ED8C82B40F0A882D1
:103D500011E0CF2B24D005D8CD2B00F0968200F2B5
:103D60009982B7E0FA2B00F09882FE2B18D0D02B66
:103D700040F096827FE20024FFF79CFE4D4BE0521C
:103D80000234102CF8D10BE0FFF788FEFFF786FE17
:103D9000FFF79AFEFFF798FEFFF78CFEFFF78AFE0B
:103DA0000020FFF7DDFE7EE2434C04F13005FFF713
:103DB00075FEFCF765FFE064FFF770FEFCF764FF3B
:103DC0003E49FDF769F82065FFF768FEFCF758FFEC
:103DD00060651034AC42EAD1FFF760FEFCF750FF9B
:103DE000354CC4F8AC00FFF759FEFCF74DFF3349E2
:103DF000FDF752F8C4F8B000FFF750FEFCF740FFA3
:103E0000C4F8B40000240134FFF748FEFFF746FE73
:103E1000FFF744FE032CF6D1FFF740FEFCF730FF1E
:103E2000254CE067FFF73AFEFCF72EFF2349FDF72C
:103E300033F8C4F88000FFF731FEFCF721FFE36F91
:103E4000C4F88400C4F88C30D4F88030C4F89400EE
:103E5000C4F89030FFF722FEFCF712FFC4F89C0074
:103E6000FFF71CFEFCF710FF1449FDF715F8C4F826
:103E7000A000FFF713FEFCF703FFC4F8A400002422
:103E80000134FFF70BFE032CFAD1FEF747F987E761
:103E9000300600203D020020840200204102002064
:103EA0003E0200203C02002040020020430200208D
:103EB00044020020600600207406002000007A44BE
:103EC0008A4C04F11C05FFF7F5FDE0820234AC4298
:103ED000F9D165E7FFF7E2FDFFF7E0FDFFF7DEFD53
:103EE000FFF7DCFDFFF7DAFDFFF7D8FDC0E10720A3
:103EF000FFF736FED220FFF7F1FD7C4B93F832003E
:103F0000FFF7ECFD0020FFF7E9FD4FF000403BE03C
:103F10000A20FFF725FE764BB3F90000FFF724FED9
:103F200000F078FC00B2FFF71FFE724BB3F90000FF
:103F3000FFF71AFE704B59799A79890041EA4201DC
:103F40001A7911435A7841EA42116C4AD07841EA11
:103F5000C001107941EA0011D87941EA8011187A3C
:103F600041EAC011587A9B7A41EA402141EA032391
:103F7000917A507B43EA8123D17A43EAC123117BB2
:103F800043EA013343EA4030FFF70AFE8BE15C4C21
:103F90001220FFF7E5FD5B492068FCF7C9FEFDF73D
:103FA0008DF800B2FFF7E0FD56496068FCF7C0FEEF
:103FB000FDF784F800B2FFF7D7FD5249A068FCF77F
:103FC000B7FEFDF77BF800B2FFF7CEFD4E49606A01
:103FD000FCF7AEFEFDF772F800B2FFF7C5FD4A49E7
:103FE000A06AFCF7A5FEFDF769F800B2FFF7BCFD7B
:103FF0004549E06AFCF79CFEFDF760F800B2FFF768
:10400000B3FDA06DFDF75AF800B2FFF7ADFDE06D0E
:10401000FDF754F800B2FFF7A7FD206E4AE010202C
:10402000FFF79EFD0024394BE05E0234FFF79CFD54
:10403000102CF8D137E11020FFF792FD0024344B0B
:10404000E05E0234FFF790FD102CF8D12BE1102038
:10405000FFF786FD00242F4BE05E0234FFF784FD5E
:10406000102CF8D11FE1264C0820FFF779FDA0693C
:104070002949FCF75DFE2349FCF75AFEFDF71EF8BF
:1040800000B2FFF771FDE0692349FCF751FE1D49BD
:10409000FCF74EFEFDF712F800B2FFF765FD1E4972
:1040A000206AFCF745FEFDF709F800B2FFF75CFD5A
:1040B0001A4B1868FDF702F800B2CBE00420FFF7B6
:1040C0004FFD0F4B986FFDF71FF85DE70320FFF7DB
:1040D00047FD0B4B0B49D3F88000FCF729FEFDF799
:1040E00013F8C0B2FFF7FAFCB3E000BF740600207B
:1040F000700500201A0500203C0600204C06002018
:10410000F4110020000020410000C84210000020EF
:104110000000002060060020E02E654270060020AE
:104120001E20FFF71DFD654C04F1480554F8080CEE
:10413000FCF7EAFFC0B2FFF7D1FC614954F8040C68
:10414000FCF7F6FDFCF7E0FFC0B2FFF7C7FC54F840
:10415000180BFCF7D9FFC0B2FFF7C0FCAC42E5D1A9
:10416000584CD4F89000FCF7CFFFC0B2FFF7B6FC74
:104170005349D4F89400FCF7DBFDFCF7C5FFC0B24F
:10418000FFF7ACFCD4F89800FCF7BEFFC0B2FFF715
:10419000A5FC00240020FFF7A1FC0020FFF79EFCF7
:1041A00001340020FFF79AFC032CF3D1454CA06C9E
:1041B000FCF7AAFFC0B2FFF791FC4149E06CFCF7A5
:1041C000B7FDFCF7A1FFC0B2FFF788FC206DFCF73C
:1041D0009BFFC0B2FFF782FCA06FFCF795FFC0B257
:1041E000FFF77CFC3649E06FFCF7A2FDFCF78CFF83
:1041F000C0B2FFF773FCD4F88000FCF785FFC0B2B3
:10420000FFF76CFC0020FFF769FC0020FFF766FC5D
:104210000020FFF763FC46E01C20FFF7A1FC2A4CBE
:1042200004F11C05B4F916000234FFF79DFCAC4202
:10423000F8D138E06D20FFF793FC244803E02F20ED
:10424000FFF78EFC2248FFF755FC2CE00220FFF719
:1042500087FC0020FFF788FC25E00820FFF780FCA2
:104260000124E0B20134FFF739FC092CF9D11AE03E
:10427000FFF714FC94E50020FFF772FC0120FFF724
:1042800071F8002001F0C2F90DE002F0CDFC02F05F
:10429000F5FD85E503F006FB82E5FFF729F87FE5EC
:1042A0000020FFF759FCFFF731FC0A4B00221A707F
:1042B00001F014FB00287FF4ADAC70BD8005002038
:1042C00000007A44780500207406002028C8000801
:1042D00098C800083D02002038B50546B5FBF2F34A
:1042E0000846144613B11846FFF7F6FFB5FBF4F382
:1042F00004FB1354024B1B5D00F8013B38BD00BFAB
:10430000C8C80008931E222B88BF0A22031E10B5BE
:104310000C4603DA2D2001F8010B5842FFF7DCFFB1
:1043200000230370204610BD2DE9FF4D514C1F4660
:10433000002A18BF14460023002206460D46FCF74B
:1043400029FB20B12D2304F8013B05F10045072F7F
:1043500019D80022002330462946FCF739FB464B8A
:10436000FA0038B1D31830462946D3E90023FBF7C9
:10437000EDFE06E0D31830462946D3E90023FBF7CB
:10438000E3FE06460D4600234FF0010803E00A2233
:1043900002FB08F80133BB42F9D330462946FCF74B
:1043A00049FB002302460CE04FF00A0CB2FBFCF183
:1043B0000CFB11220DF1040A30320AF803200133FC
:1043C0000A46002AF0D11BB9303304F8013B0BE058
:1043D0000DF1040C0CEB030111F801AD04F802A07F
:1043E00001326145F8D1E418002F3ED0FBF7EAFF17
:1043F00002460B4630462946FBF7A6FE824640465B
:104400008B46FBF7DFFF02460B4650465946FCF74A
:104410004FF8FCF70FFB2E23224602F8013B2E3B00
:1044200008E00A25B0FBF5FC05FB1C003030C85441
:104430000133604601A90028F3D1C91803E03020F8
:1044400001F8010C01330131BB42F8D323B9144602
:10445000303304F8013B08E001A8C11811F801CD80
:10446000814204F801CFF9D1D4180020207004B0A3
:10447000BDE8F08D88020020F0C8000810B50B4997
:104480000446FCF707FE20B120460949FCF746FB2D
:1044900008E020460749FCF7E9FD20B12046044921
:1044A000FCF73EFB0446204610BD00BFDB0F494031
:1044B000DB0FC940DB0F49C02DE9F84F044600E08F
:1044C00001342378202BFBD0092BF9D02D2B05D1DB
:1044D00001344FF0000ADFF870B106E02B2BDFF853
:1044E00064B108BF01344FF0000A0026002713E032
:1044F0000022534B30463946FBF7DAFF0646284682
:104500000F46FBF76FFF02460B4630463946FBF776
:104510001DFE013406460F462378A3F13005EAB2AA
:10452000092AE5D92E2B21D101344FF00008DFF8FC
:10453000109116E0FBF756FF42464B46FCF7E2F8B7
:1045400002460B4630463946FBF700FE002206467F
:104550000F46404649463A4BFBF7AAFF01348046D6
:10456000894620783038C3B2092BE3D92378652BEC
:1045700001D0452B4CD16278631C2D2A02D1013326
:10458000012503E02B2A08BF013300250022144631
:1045900002E00A2000FB0414995C01323039C8B2F1
:1045A0000928F6D9B4F59A7F28BF4FF49A740022EF
:1045B000244B09E0104619461DA3D3E90023FBF75D
:1045C00077FF323C02460B46312CF3D8A04609E077
:1045D0001046194618A3D3E90023FBF769FF083CEE
:1045E00002460B46072CF3D808F0070408E01046F3
:1045F00019460022124BFBF75BFF013C02460B46BB
:10460000002CF4D135B130463946FCF77BF805E093
:104610000C4B002230463946FBF74AFF02460B4658
:1046200050465946FBF744FFFCF724FABDE8F88FE3
:104630009A647EC50E1B514A0000000084D7974142
:10464000000024400000F03F0000F0BFAFF3008006
:104650002DE9F74F05680646884628462946FCF7A7
:1046600067FB7468834621462046FCF761FBB76808
:10467000814639463846FCF75BFBF6688246314690
:104680003046FCF755FB314601902046FCF750FBC5
:104690003946034628460093FCF74AFB009B014637
:1046A0001846FCF73BFA0146FCF73AFA04F0B2FD73
:1046B0003946C8F804002046FCF73AFB3146034669
:1046C00028460093FCF734FB009B01461846FCF794
:1046D00027FA0146FCF724FA494603465846009358
:1046E000FCF71EFA5146FCF719FA0199FCF716FA85
:1046F000009B0146184604F0D9FD3146C8F8080071
:104700003846FCF715FB214606462846FCF710FB09
:1047100001463046FCF704FA0146FCF701FA494627
:1047200004465846FCF7FAF95146FCF7F7F90199A7
:10473000FCF7F6F90146204604F0B8FDC8F8000081
:10474000BDE8FE8F014B188880B27047A802002098
:1047500030B52A4891B003F0BBFB294B00250093EC
:10476000284B012401934FF4807306934FF4806328
:1047700007932023089321484FF400536946099377
:1047800002950394049505950A9503F013FC1B48C4
:10479000214603F02FFC4FF460231B480BA90D9317
:1047A0000B958DF830508DF831400E958DF83C40CA
:1047B00003F0EAFA224603231348042103F03CFBEA
:1047C0001148214603F010FB0F48214603F002FB7D
:1047D0000D4803F013FB0C4803F015FB0028FAD139
:1047E000094803F015FB084803F017FB0028FAD12D
:1047F0000548012103F016FB11B030BD080002404E
:104800004C240140A802002000240140BFF35F8F28
:1048100070470000014B188880B27047AA02002040
:10482000F0B54FF4406389B0ADF8143002238DF831
:10483000163012330DEB030105464A488DF8173048
:1048400003F0DEFC47484FF4406103F029FD0024EB
:1048500002E0032000F0C4FE42484FF4806103F000
:1048600019FD0028F5D04FF480613E4803F01AFD91
:10487000032000F0B5FE01343A484FF4806103F0A4
:104880000FFDE4B2032000F0ABFE082CE4D14FF49E
:104890000061344803F006FD032000F0A1FE4FF450
:1048A0008061304803F0FEFC032000F099FE4FF4D5
:1048B00080612C4803F0F4FC032000F091FE4FF4DB
:1048C0000061284803F0ECFC032000F089FE4FF45F
:1048D0004063254CADF81830022306A98DF81A3034
:1048E00020481A338DF81B3003F08AFC25602846D7
:1048F00001AD03F0F7FD284603F026FD00222068F5
:104900004FF4407103F062FD4BF6FF73ADF80A30CF
:104910004FF48043ADF81030144B00262068294630
:104920000193ADF8086003F069FD2068012103F0F0
:1049300019FD07AC22238DF81C30204601238DF889
:104940001F308DF81D608DF81E6003F0EBF92123F8
:10495000204637468DF81C308DF81D6003F0E2F9D3
:1049600009B0F0BD000C0140C0020020801A060012
:1049700040005FFA80FC214808B580F800C020485C
:1049800001702049002008701F48012101701F4854
:1049900003601F4803601F4B1A701F4B19701F4B99
:1049A0001868838813F4007F11D1038813F4807F83
:1049B00006D1038813F4007FFBD1012103F0DFFC53
:1049C000164B4FF440711868012203F0FFFC47F2C8
:1049D0003053114A127812B1013BFAD102E00BB107
:1049E000012008BD0E4B1A88013292B21A800B4B7F
:1049F0001868FFF715FF002008BD00BFC7020020A0
:104A0000AD020020AC020020BC020020B002002059
:104A1000B8020020AE020020C6020020C002002022
:104A2000AA02002030B54000274CC0B220702748B1
:104A3000274C017027480121017000202070264D6D
:104A4000264C85B02270C5F800D0254C254D102A83
:104A5000C5F800D0217005D934E013F800C00DF876
:104A600000C00130C1B29142F7D31F4B1868838850
:104A700013F4007F11D1038813F4807F06D10388DB
:104A800013F4007FFBD1012103F079FC164B4FF4A6
:104A900040711868012203F099FC47F23053104A24
:104AA000127812B1013BFAD102E00BB1012009E00A
:104AB0000E4B1A88013292B21A800B4B1868FFF71E
:104AC000AFFE002005B030BDC7020020AD020020BF
:104AD000BC020020AC020020B8020020AE02002080
:104AE000C6020020B0020020C0020020AA0200205E
:104AF00007B502AB03F8012D0122FFF793FF0EBDAE
:104B000037B5224C2068838A9BB20193019B019B9D
:104B100013F4E06F2DD0038B00229BB24FF4806121
:104B2000009303F053FC019B13F4007F21D1206814
:104B3000038813F4007F1CD1058815F480750FD00D
:104B4000038813F4807FFBD1012103F025FC0F4B78
:104B50001868038813F4007FFBD1FFF761FE08E0BB
:104B6000012103F019FC20684FF440712A4603F03C
:104B70002DFC064B1A68938A23F470631B041B0CEC
:104B80009382034B00221A703EBD00BFC00200207A
:104B9000C6020020FFF7B4BFFFF7B2BF2DE9F04F08
:104BA000954C85B02068828AD2B212F001063BD0C3
:104BB0000388012123F400631B041B0C038003F012
:104BC000F8FB8E4B00221A708D4B1B78E3B18D4B96
:104BD0001B781BB98C4B1B78FF2B15D1894B0122FD
:104BE0001A708A4B1B78022B06D1834B1B681A88DC
:104BF00092B242F400621A80854B012219787E4BF2
:104C0000186803F0F3FB38E1814B002219787A4BE6
:104C1000186803F0EBFB7C4B1B78FF2B00F02D8119
:104C20004FF0FF32754BE5E012F0020347D00190E0
:104C3000FFF7ECFD754B01981D78012D19D1704BD4
:104C40001B78B3B16F4B1B789BB1314603F0B1FBBE
:104C5000FFF7DCFD20682946038BDBB28DF80F30AF
:104C600003F09AFB6B4B20681D704FF480612A465D
:104C700001E1038B0190DBB28DF80F30FFF7C6FD29
:104C8000624B01981B78022B09D15D4B1B7833B125
:104C90005C4B1B781BB1002103F08BFBE6E05B4B08
:104CA0001B78032B07D1564B1B7823B1554B1B7830
:104CB000002B40F0DD804FF480610122DBE012F038
:104CC000040572D04E4ADFF84C811278012688F82C
:104CD0000060002A4FD04B4A1278002A4BD04B4A32
:104CE000464D12784C4F022A2AD9194603F061FB2F
:104CF000206895F800A0D7F8009003F074FB4FFAF5
:104D00008AFB0BF80900B244314685F800A0206800
:104D100003F042FB88F80060206895F800803F6847
:104D200003F061FB4FFA88FA0AF80700B04485F8EF
:104D3000008020684FF48061324603F047FB2DE08D
:104D4000314603F029FB2068D7F800802E7803F065
:104D50004AFB4FFA86FA01360AF80800F6B22E70BE
:104D600020683F6803F03FFB4FFA86F8023608F8E8
:104D700007002E7012E0234C237813B9274B1B78C1
:104D80003BB1012103F008FB1C4B1A7801321A7069
:104D900004E0012103F0F3FA01232370164B1B6892
:104DA0001A8812F4807FFBD167E012F0400637D0FA
:104DB000194B124ED3F80080377803F014FB4FFAEA
:104DC00087FA124B01370AF80800FFB237701B78D8
:104DD0007FB20337BB4205D120684FF480612A4679
:104DE00003F0F4FA094B1878044B1A7851B2884250
:104DF00043D101321A7040E0C0020020C5020020F9
:104E0000BC020020C4020020AD020020AE0200203F
:104E1000C7020020B4020020B0020020AC02002033
:104E200012F0800F29D0224D2B785AB2B2F1FF3FF9
:104E300011D0204901330968515C2B7003F0D1FA7D
:104E40001D4B1A7895F900309A4216D120684FF41C
:104E5000806132460FE0194B2E70197803F0C1FAC9
:104E6000174B1B7813B9144B1B7833B9154B1868C3
:104E70004FF48061002203F0A9FA0F4B0C4A1B7813
:104E800092F9002001339A420ED10F4B00221A7082
:104E90000E4B1B782BB10B4B4FF44071186803F08D
:104EA00095FA0B4B00221A7005B0BDE8F08F00BFD9
:104EB000C5020020B8020020AE020020AD02002092
:104EC000BC020020C0020020C4020020B402002066
:104ED000C6020020FFF762BEFFF760BE044B1B78DE
:104EE000834203D9034B53F820301980704700BF29
:104EF000DA02002070C90008024B03EBC003D88817
:104F0000704700BFE00200202DE9F04F002491B06F
:104F100021460A220AA806F086FA2146102203A892
:104F200006F081FA48234FF001028DF83F308748A0
:104F3000463B0FA9ADF83C208DF83E3003F060F9F8
:104F4000834B40F2DC521B190834402CDA80F7D135
:104F5000403C07AD0A27284621463A4606F063FA48
:104F60007C4B0D945E780DF138090DF1340ADFF8B1
:104F7000F881002E4BD001264946334628224FF0B7
:104F8000020B72488DF83B200193ADF838608DF824
:104F90003AB003F035F9019B1C2250468DF83420BD
:104FA0008DF836308DF835408DF8376002F0BAFE56
:104FB000284603F0C5FC4FF047034FF0FF324FF097
:104FC00080402946ADF81C30ADF82020ADF81E40D9
:104FD00003F032FB4FF080404146A8F80240A8F8A9
:104FE0000460A8F80640A8F80840A8F8004003F0BC
:104FF000D5FD4FF080405946324603F0C7FC4FF0D4
:105000008040314603F0A5FC534B1F7068E04FF021
:10501000CF03ADF8383028238DF83B304B48263B82
:1050200049468DF83A3003F0EBF84FF00302494659
:105030004A48ADF83820012403F0E2F81C2350461A
:105040008DF834308DF835608DF836408DF8374066
:1050500002F068FE1D2350468DF8343002F062FEE7
:10506000284603F06DFC4FF047034FF0FF324FF03E
:1050700080402946ADF81C30ADF82020ADF81E6008
:1050800003F0DAFA3648294603F0D6FAA8F80260A7
:10509000A8F80440A8F80660A8F80860314B324927
:1050A0009A19928898590A80083603F077FD402EA5
:1050B000F4D14FF080401E21012203F067FC012251
:1050C00027481E2103F062FC4FF08040012103F0CD
:1050D00040FC2348012103F03CFC1F4B06221A70C0
:1050E0004FF410630FACADF83C30182321468DF817
:1050F0003F301648163B8DF83E3003F081F84FF4F0
:105100007072214615480AACADF83C2003F078F8DF
:10511000204603F015FC4FF04703ADF82830134B41
:105120000C4D1B7843B3AB8A114E124896FBF3F338
:10513000013B2146ADF82C3003F07EFA6B8A96FBDA
:10514000F3F6013EADF82C6021E000BF00080140FD
:10515000E002002074060020DA020020000C01406A
:105160000004004030C90008CC020020B401002037
:1051700040420F00002C01406B8A684A684892FB4D
:10518000F3F3013B2146ADF82C3003F055FA2146EC
:10519000644803F051FA4FF0700203ACADF80C20F4
:1051A0004FF001034FF00002ADF80E30ADF81020C3
:1051B0004FF47A734FF48072594821464FF002053C
:1051C000ADF81230ADF81820ADF8145003F08AFA9B
:1051D0005348214603F074FB5148082103F0E1FBDA
:1051E0004F48082103F0F9FB4E48214603F07AFAB4
:1051F0004C48214603F0CEFA4A48214603F016FBFC
:105200004848214603F05CFB4648082103F0C9FBEF
:105210004448082103F0CEFB4248082103F0D4FBA8
:105220004048082103F0D9FB3D48012103F091FBE0
:105230003C48012103F08DFB3B4E3948012103F02E
:1052400095FB3848012103F091FB7378002B61D066
:105250004FF0C0030FAFADF83C3034481823394647
:105260008DF83F308DF83E5002F0CAFF4FF0030238
:105270002F483946ADF83C2002F0C2FF274A738A16
:105280002C4892FBF3F3013B0AA9ADF82C3003F054
:10529000D3F94FF07003ADF80C304FF001024FF02E
:1052A0000003ADF80E20ADF810304FF47A724FF4D1
:1052B000807320482146ADF81220ADF81830ADF8C3
:1052C000145003F00FFA1B48214603F063FA194803
:1052D000214603F0ABFA1748214603F0F1FA1548CE
:1052E000082103F05EFB1348082103F063FB11481B
:1052F000082103F069FB0F48082103F06EFB0D48FD
:10530000012103F026FB0B48012103F02FFB0A4B80
:105310000A221A7011B0BDE8F08F00BF40420F00A2
:10532000002C0140000800407406002000080140E5
:10533000000C014000040040DA0200202DE9F8458D
:105340000024064625462D4B1F591A19B742B2F8BC
:105350000480B2F806A04BD13046514603F086FBDC
:10536000012845D13046514603F08BFBB8F10C0FB4
:1053700018D8DFE808F0071717170B1717170F17BC
:1053800017171300304603F064FB0AE0304603F0C1
:1053900063FB06E0384603F062FB02E0384603F0A8
:1053A00061FB0546164B1A5D1B190AB95D8000E0CA
:1053B0009D80134B1A5D2AB901321A5511494FF0DD
:1053C00002030FE01B199A8859888A4201D9521AA0
:1053D00001E0C9435218DA80094A002313550A4AEA
:1053E000084913804B80A1F80080384603F0D6FBB3
:1053F0000834402CA7D1BDE8F88500BF30C90008AB
:10540000E0020020CC020020380800200148FFF70D
:1054100095BF00BF0004004010B5234B5B78002B04
:105420003BD002214FF0804003F020FB012808D13F
:105430001E4C1F4B22884FF080401A8003F009FB5E
:10544000208002214FF0804003F01BFB174B1A888D
:10545000174B1B88D31A9BB240F68C22934203D978
:10546000144B00221A7010BDA3F53A72073A92B29B
:1054700040F2DA518A4207D80E4A1278072A03D836
:105480000D4901EBC202D3800A4B1A7801321A701F
:105490000A4B4FF000021A8010BD4FF08040BDE86B
:1054A0001040FFF74BBF00BF74060020D802002059
:1054B000DC020020C8020020E002002038080020A2
:1054C000044B1A6801321A60034B1A68034B1A60C6
:1054D000704700BF20030020041000E0E804002013
:1054E00072B6084B084A1868084B1B68126862B607
:1054F0000749C31A09684FF47A70B3FBF1F300FB54
:1055000002307047041000E020030020E80400206F
:10551000E404002070B5002304460E46054D5D19D5
:10552000EA681033002AF9D1FFF7DAFF28606E60CD
:10553000EC6070BDE403002070B5002304460E4605
:10554000054D5D19AA680C33002AF9D1FFF7C8FF91
:1055500028606E60AC6070BD240300202DE9F0412E
:1055600000250C276F43194EBC19A36853B1FFF7F0
:10557000B7FFBA596368821A9A4203D9A368984759
:105580000023A360124C6F00013704EBC708D8F862
:105590000430ABB1FFF7A4FF2E01331932595B6819
:1055A000821A9A420CD9D8F80430984756F80480E9
:1055B000FFF796FF30513359C8EB030344F83730F7
:1055C0000135102DCDD1BDE8F08100BF24030020AE
:1055D000E4030020014B1868704700BF200300203F
:1055E00038B50546FFF77CFF0446FFF779FF001B3F
:1055F000A842FAD338BD10B5044604E04FF47A70DF
:10560000FFF7EEFF013C002CF8D110BD10B1034AAA
:10561000034B1A60034A044BDA607047EFBEADDEFD
:10562000F04F00200400FA0500ED00E070B5002402
:105630006300084D013355F8331007480134FEF775
:1056400020FA0F2CF4D1D5F8F8100448BDE87040CA
:10565000FEF717BAE4030020A8C90008ADC9000886
:1056600070B55E4B8AB00DF1140C0FCB8CE80F00B7
:105670001D20012102F0AEFF4FF40060012102F075
:10568000A9FF0120014602F0B3FF0220012102F030
:10569000AFFF0420012102F0ABFF4FF400700121A5
:1056A00002F098FF4FF48040012102F093FF4FF485
:1056B0008000012102F09CFF0120014609AC02F0AC
:1056C0007BFF0220012102F077FF002502F0ACFFF2
:1056D0004FF0FF3342482146ADF824308DF8275073
:1056E00002F08EFD3F48214602F08AFD3E482146E9
:1056F00002F086FD3D48012102F0D6FDBDF81830CC
:105700000326ADF824309DF81A30059821468DF80F
:1057100027308DF8266002F073FDBDF82030079821
:10572000ADF824309DF8223021468DF826608DF8A2
:10573000273002F065FD2E4B0C2202FB05330024BE
:105740009C602C4B03EB051301350833102D5C6076
:10575000F1D1684602F0E0FE009A274B4FF47A76CA
:10576000B2FBF3F2254B6FF00F011A60244B4FF49C
:10577000A060DA6842F08072DA60224B1A6842F068
:1057800001021A60204B1A68204BB2FBF6F222F09D
:105790007F42013A5A601E4A82F8231007229C6019
:1057A0001A60104B01321A611D6102F0B1FA2046F5
:1057B000FDF7D8FDFDF792FDFBF7F0FEFEF7C8FF01
:1057C0001448FFF72DF8FFF79FFB4FF4E13000F08E
:1057D00093F83046FFF70FFF0AB070BD98C9000874
:1057E00000080140000C01400010014000023000A0
:1057F00024030020E403002040420F00E4040020C2
:10580000F0ED00E0001000E09800002010E000E063
:1058100000ED00E000580040044B1868044B1B6882
:10582000984214BF00200120704700BFF004002000
:10583000F4040020064B07481A68C2F58061013A5B
:10584000405C1A6012B94FF480621A60704700BF62
:10585000EC0400203C0800200B4A0C4813680C495B
:10586000C018C8600B480068984203D9C31A4B603F
:10587000106004E0C3F580634B60002313600448AC
:10588000012102F0B7BB00BFF00400203C0C002057
:1058900044000240F4040020074A08491368C85431
:1058A00001339B059B0D1360054B1B6813F0010F23
:1058B00001D1FFF7D1BF7047F40400203C0C002059
:1058C0004400024038B50546002401E0FFF7E4FF3C
:1058D000285D01340028F9D138BD000008B504481E
:1058E00002F09DFB034B1B68C01A18BF012008BDC6
:1058F00058000240EC0400202DE9F04593B011ACB3
:105900004FF400730646ADF84430022718232146B1
:105910003F488DF847304FF480688DF8467002F0AC
:105920006FFC482321463A480125ADF844808DF8A4
:10593000473002F065FC0E2310A800248DF840309B
:105940008DF841508DF842508DF8435002F0EAF93D
:105950004FF00C030CA92F48ADF83A300C96ADF877
:105960003440ADF83640ADF83840ADF83C4003F077
:10597000D1F9294802F0ACFA4FF480530A93274B2F
:10598000DFF8A4A0CDF810800DF104088026029362
:1059900041462023204809930B94CDF804A003949A
:1059A000059407940696089402F004FB29461A48C9
:1059B00002F020FB2A464021164803F0A0F91648C1
:1059C00002F02DFB164B1860164802F081FA1023E6
:1059D000414614480393CDF804A005940794069615
:1059E0000894099402F0E6FA39462A460D4802F076
:1059F0000DFB0C4B31465C6006482A4603F07FF9EC
:105A00000448294603F06EF913B0BDE8F08500BFE5
:105A10000008014000380140580002403C080020C6
:105A2000EC040020440002400438014010B54FF45B
:105A3000005002F0F7FA0021064802F0DBFA064BAC
:105A40001A68064B1B689A4203D0BDE81040FFF766
:105A500003BF10BD44000240F4040020F004002005
:105A60001FB501AA02A90DF10E0001F005FDBDF957
:105A70000E00FBF709F90949FBF70EFA084C2067FD
:105A80000298FBF701F960670198FBF7FDF8A16F39
:105A9000044AFDF7F7FDA067E0671FBD0000204145
:105AA000F4110020CDCC4C3D2DE9F04F8BB0FFF729
:105AB00017FD754D754B044618602868201AFBF7D2
:105AC000DFF87349FBF734F9724B2C601B68002533
:105AD0009E7807463246A946AA461DE058784FF000
