:020000040800F2
:1000000000500020C5130008691400086914000896
:100010006914000869140008691400080000000051
:10002000000000000000000000000000691400084B
:10003000691400080000000069140008D157000886
:10004000691400086914000869140008691400089C
:10005000691400086914000869140008691400088C
:10006000691400086914000869140008691400087C
:100070006914000869140008CD5D000869140008BF
:10008000691400086914000869140008691400085C
:10009000691400086914000869140008691400084C
:1000A0006914000869140008691400085D55000807
:1000B00051550008455500083955000801520008FF
:1000C000C14E0008FD510008BD4E0008691400082B
:1000D0006914000869140008455B000869140008E9
:1000E000F975000869140008691400080000000090
:1000F0000000000000000000000000000000000000
:0C01000000000000000000005FF808F1A3
:1001100040F2A413C2F200031A780AB90120187041
:10012000704700BF40F2A410C2F2000008B5036897
:100130002BB140F20003C0F2000303B1984708BDA1
:1001400081F0004102E000BF83F0004330B54FEA88
:1001500041044FEA430594EA050F08BF90EA020FF5
:100160001FBF54EA000C55EA020C7FEA645C7FEA88
:10017000655C00F0E2804FEA5454D4EB5555B8BFAB
:100180006D420CDD2C4480EA020281EA030382EA1C
:10019000000083EA010180EA020281EA0303362DAE
:1001A00088BF30BD11F0004F4FEA01314FF4801C81
:1001B0004CEA113102D0404261EB410113F0004F93
:1001C0004FEA03334CEA133302D0524263EB43034A
:1001D00094EA050F00F0A780A4F10104D5F1200EE8
:1001E0000DDB02FA0EFC22FA05F2801841F1000143
:1001F00003FA0EF2801843FA05F359410EE0A5F117
:1002000020050EF1200E012A03FA0EFC28BF4CF047
:10021000020C43FA05F3C01851EBE37101F00045FD
:1002200007D54FF0000EDCF1000C7EEB00006EEB0A
:100230000101B1F5801F1BD3B1F5001F0CD3490894
:100240005FEA30004FEA3C0C04F101044FEA4452EB
:1002500012F5800F80F09A80BCF1004F08BF5FEA72
:10026000500C50F1000041EB045141EA050130BD52
:100270005FEA4C0C404141EB010111F4801FA4F1F5
:100280000104E9D191F0000F04BF01460020B1FA4A
:1002900081F308BF2033A3F10B03B3F120020CDA82
:1002A0000C3208DD02F1140CC2F10C0201FA0CF060
:1002B00021FA02F10CE002F11402D8BFC2F1200CC5
:1002C00001FA02F120FA0CFCDCBF41EA0C0190407B
:1002D000E41AA2BF01EB0451294330BD6FEA0404C4
:1002E0001F3C1CDA0C340EDC04F11404C4F12002AF
:1002F00020FA04F001FA02F340EA030021FA04F3C1
:1003000045EA030130BDC4F10C04C4F1200220FA17
:1003100002F001FA04F340EA0300294630BD21FA55
:1003200004F0294630BD94F0000F83F4801306BF1B
:1003300081F480110134013D4EE77FEA645C18BF0F
:100340007FEA655C29D094EA050F08BF90EA020FA6
:1003500005D054EA000C04BF1946104630BD91EA9E
:10036000030F1EBF0021002030BD5FEA545C05D1A1
:100370004000494128BF41F0004130BD14F58004E0
:100380003CBF01F5801130BD01F0004545F0FE4154
:1003900041F470014FF0000030BD7FEA645C1ABF89
:1003A000194610467FEA655C1CBF0B46024650EAC0
:1003B000013406BF52EA033591EA030F41F40021EC
:1003C00030BD00BF90F0000F04BF0021704730B572
:1003D0004FF4806404F132044FF000054FF0000147
:1003E00050E700BF90F0000F04BF0021704730B508
:1003F0004FF4806404F1320410F0004548BF4042DD
:100400004FF000013EE700BF42004FEAE2014FEA31
:1004100031014FEA02701FBF12F07F4393F07F4F0C
:1004200081F06051704792F0000F14BF93F07F4F3E
:10043000704730B54FF4607401F0004521F0004181
:1004400020E700BF50EA010208BF704730B54FF007
:1004500000050AE050EA010208BF704730B511F00C
:10046000004502D5404261EB41014FF4806404F144
:1004700032045FEA915C3FF4DCAE4FF003025FEAC6
:10048000DC0C18BF03325FEADC0C18BF033202EB4E
:10049000DC02C2F1200300FA03FC20FA02F001FAA8
:1004A00003FE40EA0E0021FA02F11444C1E600BF47
:1004B00070B54FF0FF0C4CF4E06C1CEA11541DBFFA
:1004C0001CEA135594EA0C0F95EA0C0F00F0DEF8C5
:1004D0002C4481EA030621EA4C5123EA4C5350EAAA
:1004E000013518BF52EA033541F4801143F48013FB
:1004F00038D0A0FB02CE4FF00005E1FB02E506F08C
:100500000042E0FB03E54FF00006E1FB03569CF0E0
:10051000000F18BF4EF0010EA4F1FF04B6F5007FE6
:1005200064F5407404D25FEA4E0E6D4146EB060658
:1005300042EAC62141EA55514FEAC52040EA5E50E1
:100540004FEACE2EB4F1FD0C88BFBCF5E06F1ED88B
:10055000BEF1004F08BF5FEA500E50F1000041EBC2
:10056000045170BD06F0004646EA010140EA02006F
:1005700081EA0301B4EB5C04C2BFD4EB0C0541EA91
:10058000045170BD41F480114FF0000E013C00F3A6
:10059000AB8014F1360FDEBF002001F0004170BDCA
:1005A000C4F10004203C35DA0C341BDC04F11404E3
:1005B000C4F1200500FA05F320FA04F001FA05F26F
:1005C00040EA020001F0004221F0004110EBD3703C
:1005D00021FA04F642EB06015EEA430E08BF20EA68
:1005E000D37070BDC4F10C04C4F1200500FA04F30B
:1005F00020FA05F001FA04F240EA020001F000419D
:1006000010EBD37041F100015EEA430E08BF20EA0F
:10061000D37070BDC4F1200500FA05F24EEA020E57
:1006200020FA04F301FA05F243EA020321FA04F086
:1006300001F0004121FA04F220EA020000EBD3703D
:100640005EEA430E08BF20EAD37070BD94F0000F3D
:100650000FD101F00046400041EB010111F4801F71
:1006600008BF013CF7D041EA060195F0000F18BF22
:10067000704703F00046520043EB030313F4801F5E
:1006800008BF013DF7D043EA0603704794EA0C0F18
:100690000CEA135518BF95EA0C0F0CD050EA41062E
:1006A00018BF52EA4306D1D181EA030101F00041AB
:1006B0004FF0000070BD50EA410606BF10461946D3
:1006C00052EA430619D094EA0C0F02D150EA0136DF
:1006D00013D195EA0C0F05D152EA03361CBF104620
:1006E00019460AD181EA030101F0004141F0FE41BF
:1006F00041F470014FF0000070BD41F0FE4141F443
:10070000780170BD70B54FF0FF0C4CF4E06C1CEA42
:1007100011541DBF1CEA135594EA0C0F95EA0C0FF7
:1007200000F0A7F8A4EB050481EA030E52EA0335B2
:100730004FEA013100F088804FEA03334FF08055D3
:1007400045EA131343EA12634FEA022245EA111500
:1007500045EA10654FEA00260EF000419D4208BFB1
:10076000964244F1FD0404F5407402D25B084FEA5E
:100770003202B61A65EB03055B084FEA32024FF40A
:1007800080104FF4002CB6EB020E75EB030E22BF67
:10079000B61A754640EA0C005B084FEA3202B6EB27
:1007A000020E75EB030E22BFB61A754640EA5C00D6
:1007B0005B084FEA3202B6EB020E75EB030E22BF66
:1007C000B61A754640EA9C005B084FEA3202B6EB67
:1007D000020E75EB030E22BFB61A754640EADC0026
:1007E00055EA060E18D04FEA051545EA16754FEA88
:1007F00006164FEAC30343EA52734FEAC2025FEAA6
:100800001C1CC0D111F4801F0BD141EA00014FF034
:1008100000004FF0004CB6E711F4801F04BF014305
:100820000020B4F1FD0C88BFBCF5E06F3FF6AFAE21
:10083000B5EB030C04BFB6EB020C5FEA500C50F1B1
:10084000000041EB045170BD0EF0004E4EEA113134
:1008500014EB5C04C2BFD4EB0C0541EA045170BD3B
:1008600041F480114FF0000E013C90E645EA060E7F
:100870008DE60CEA135594EA0C0F08BF95EA0C0FAD
:100880003FF43BAF94EA0C0F0AD150EA01347FF4F5
:1008900034AF95EA0C0F7FF425AF104619462CE7CC
:1008A00095EA0C0F06D152EA03353FF4FDAE10462F
:1008B000194622E750EA410618BF52EA43067FF480
:1008C000C5AE50EA41047FF40DAF52EA43057FF410
:1008D000EBAE12E74FF0FF3C06E000BF4FF0010C1B
:1008E00002E000BF4FF0010C4DF804CD4FEA410C7F
:1008F0007FEA6C5C4FEA430C18BF7FEA6C5C1BD04C
:1009000001B050EA410C0CBF52EA430C91EA030FCC
:1009100002BF90EA020F0020704710F1000F91EA29
:10092000030F58BF994208BF90422CBFD8176FEAF7
:10093000E37040F0010070474FEA410C7FEA6C5CC5
:1009400002D150EA013C07D14FEA430C7FEA6C5CCC
:10095000D6D152EA033CD3D05DF8040B704700BFF8
:100960008446104662468C461946634600E000BF46
:1009700001B5FFF7B7FF002848BF10F1000F01BD18
:100980004DF808EDFFF7F4FF0CBF012000205DF8E3
:1009900008FB00BF4DF808EDFFF7EAFF34BF012068
:1009A00000205DF808FB00BF4DF808EDFFF7E0FF01
:1009B00094BF012000205DF808FB00BF4DF808ED52
:1009C000FFF7CEFF94BF012000205DF808FB00BFB9
:1009D0004DF808EDFFF7C4FF34BF012000205DF89B
:1009E00008FB00BF4FEA410212F5001215D211D5E3
:1009F0006FF47873B3EB625212D94FEAC12343F01C
:100A0000004343EA505311F0004F23FA02F018BF9D
:100A1000404270474FF00000704750EA013005D166
:100A200011F0004008BF6FF0004070474FF0000029
:100A3000704700BF4A0011D212F5001211D20DD535
:100A40006FF47873B3EB62520ED44FEAC12343F0D4
:100A5000004343EA505323FA02F070474FF000007E
:100A6000704750EA013002D14FF0FF3070474FF02D
:100A7000000070474FEA4102B2F1E04324BFB3F5F2
:100A8000001CDCF1FE5C0DD901F0004C4FEAC00205
:100A90004CEA5070B2F1004F40EB830008BF20F0E9
:100AA0000100704711F0804F21D113F13872BCBFA3
:100AB00001F00040704741F480114FEA5252C2F1F8
:100AC0001802C2F1200C10FA0CF320FA02F018BF41
:100AD00040F001004FEAC1234FEAD32303FA0CFC94
:100AE00040EA0C0023FA02F34FEA4303CCE77FEA23
:100AF000625307D150EA01331EBF4FF0FE4040F46D
:100B00004000704701F0004040F0FE4040F400001B
:100B1000704700BF80F0004002E000BF81F000415C
:100B200042001FBF5FEA410392EA030F7FEA226C93
:100B30007FEA236C6AD04FEA1262D2EB1363C1BF23
:100B4000D218414048404140B8BF5B42192B88BF92
:100B5000704710F0004F40F4000020F07F4018BFB5
:100B6000404211F0004F41F4000121F07F4118BFD5
:100B7000494292EA030F3FD0A2F1010241FA03FC7D
:100B800010EB0C00C3F1200301FA03F100F0004365
:100B900002D5494260EB4000B0F5000F13D3B0F12D
:100BA000807F06D340084FEA310102F10102FE2A9C
:100BB00051D2B1F1004F40EBC25008BF20F001000C
:100BC00040EA03007047490040EB000010F4000FBA
:100BD000A2F10102EDD1B0FA80FCACF1080CB2EB4D
:100BE0000C0200FA0CF0AABF00EBC25052421843AC
:100BF000BCBFD0401843704792F0000F81F4000151
:100C000006BF80F400000132013BB5E74FEA410323
:100C10007FEA226C18BF7FEA236C21D092EA030F8F
:100C200004D092F0000F08BF0846704790EA010F09
:100C30001CBF0020704712F07F4F04D1400028BF36
:100C400040F00040704712F100723CBF00F5000018
:100C5000704700F0004343F0FE4040F4000070474E
:100C60007FEA226216BF08467FEA236301464202FA
:100C700006BF5FEA412390EA010F40F4800070470D
:100C80004FF0000304E000BF10F0004348BF4042B3
:100C90005FEA000C08BF704743F0964301464FF0EF
:100CA00000001CE050EA010208BF70474FF000034B
:100CB0000AE000BF50EA010208BF704711F000438C
:100CC00002D5404261EB41015FEA010C02BF84465C
:100CD0000146002043F0B64308BFA3F18053A3F5BB
:100CE0000003BCFA8CF2083AA3EBC25310DB01FA02
:100CF00002FC634400FA02FCC2F12002BCF1004F86
:100D000020FA02F243EB020008BF20F00100704716
:100D100002F1200201FA02FCC2F1200250EA4C006A
:100D200021FA02F243EB020008BF20EADC707047B0
:100D30004FF0FF0C1CEAD0521EBF1CEAD15392EABE
:100D40000C0F93EA0C0F6FD01A4480EA010C40029A
:100D500018BF5FEA41211ED04FF0006343EA5010F4
:100D600043EA5111A0FB01310CF00040B1F5000F36
:100D70003EBF490041EAD3715B0040EA010062F1E5
:100D80007F02FD2A1DD8B3F1004F40EBC25008BFCF
:100D900020F00100704790F0000F0CF0004C08BFED
:100DA00049024CEA502040EA51207F3AC2BFD2F1BA
:100DB000FF0340EAC250704740F400004FF00003C8
:100DC000013A5DDC12F1190FDCBF00F00040704702
:100DD000C2F10002410021FA02F1C2F1200200FA40
:100DE00002FC5FEA310040F1000053EA4C0308BF07
:100DF00020EADC70704792F0000F00F0004C02BF58
:100E0000400010F4000F013AF9D040EA0C0093F0D2
:100E1000000F01F0004C02BF490011F4000F013B2C
:100E2000F9D041EA0C018FE70CEAD15392EA0C0F9A
:100E300018BF93EA0C0F0AD030F0004C18BF31F005
:100E4000004CD8D180EA010000F00040704790F0DB
:100E5000000F17BF90F0004F084691F0000F91F07F
:100E6000004F14D092EA0C0F01D142020FD193EA45
:100E70000C0F03D14B0218BF084608D180EA0100CD
:100E800000F0004040F0FE4040F40000704740F0A9
:100E9000FE4040F4400070474FF0FF0C1CEAD05277
:100EA0001EBF1CEAD15392EA0C0F93EA0C0F69D0D3
:100EB000A2EB030280EA010C49024FEA402037D03E
:100EC0004FF0805343EA111143EA10130CF0004035
:100ED0008B4238BF5B0042F17D024FF4000C8B4225
:100EE00024BF5B1A40EA0C00B3EB510F24BFA3EB05
:100EF000510340EA5C00B3EB910F24BFA3EB9103D5
:100F000040EA9C00B3EBD10F24BFA3EBD10340EA2E
:100F1000DC001B0118BF5FEA1C1CE0D1FD2A3FF674
:100F200050AF8B4240EBC25008BF20F00100704729
:100F30000CF0004C4CEA50207F32C2BFD2F1FF03CC
:100F400040EAC250704740F400004FF00003013AFD
:100F500037E792F0000F00F0004C02BF400010F4A1
:100F6000000F013AF9D040EA0C0093F0000F01F0B5
:100F7000004C02BF490011F4000F013BF9D041EAD7
:100F80000C0195E70CEAD15392EA0C0F08D142020A
:100F90007FF47DAF93EA0C0F7FF470AF084676E7DD
:100FA00093EA0C0F04D14B023FF44CAF08466EE7B6
:100FB00030F0004C18BF31F0004CCAD130F0004284
:100FC0007FF45CAF31F000437FF43CAF5FE700BFDC
:100FD0004FF0FF3C06E000BF4FF0010C02E000BF05
:100FE0004FF0010C4DF804CD4FEA40024FEA4103A7
:100FF0007FEA226C18BF7FEA236C11D001B052EA5D
:10100000530C18BF90EA010F58BFB2EB030088BF22
:10101000C81738BF6FEAE17018BF40F00100704791
:101020007FEA226C02D15FEA402C05D17FEA236C73
:10103000E4D15FEA412CE1D05DF8040B704700BFBA
:10104000844608466146FFE70FB5FFF7C9FF002851
:1010500048BF10F1000F0FBD4DF808EDFFF7F4FF8A
:101060000CBF012000205DF808FB00BF4DF808ED23
:10107000FFF7EAFF34BF012000205DF808FB00BF46
:101080004DF808EDFFF7E0FF94BF012000205DF868
:1010900008FB00BF4DF808EDFFF7D2FF94BF012019
:1010A00000205DF808FB00BF4DF808EDFFF7C8FF12
:1010B00034BF012000205DF808FB00BF4FEA40026A
:1010C000B2F1FE4F0FD34FF09E03B3EB12620DD976
:1010D0004FEA002343F0004310F0004F23FA02F0E0
:1010E00018BF404270474FF00000704712F1610F87
:1010F00001D1420205D110F0004008BF6FF000405E
:1011000070474FF00000704742000ED2B2F1FE4F20
:101110000BD34FF09E03B3EB126209D44FEA0023C6
:1011200043F0004323FA02F070474FF0000070478D
:1011300012F1610F01D1420202D14FF0FF3070472E
:101140004FF00000704700BF4A1E08BF7047C0F054
:101150002481884240F21681114200F01781B0FAD2
:1011600080F3B1FA81F2A2EB0303C3F11F0304A2DF
:1011700002EB03134FF000029F4600BFAFF3008065
:10118000B0EBC17F00BF42EB020228BFA0EBC170F1
:10119000B0EB817F00BF42EB020228BFA0EB817061
:1011A000B0EB417F00BF42EB020228BFA0EB4170D1
:1011B000B0EB017F00BF42EB020228BFA0EB017041
:1011C000B0EBC16F00BF42EB020228BFA0EBC160D1
:1011D000B0EB816F00BF42EB020228BFA0EB816041
:1011E000B0EB416F00BF42EB020228BFA0EB4160B1
:1011F000B0EB016F00BF42EB020228BFA0EB016021
:10120000B0EBC15F00BF42EB020228BFA0EBC150B0
:10121000B0EB815F00BF42EB020228BFA0EB815020
:10122000B0EB415F00BF42EB020228BFA0EB415090
:10123000B0EB015F00BF42EB020228BFA0EB015000
:10124000B0EBC14F00BF42EB020228BFA0EBC14090
:10125000B0EB814F00BF42EB020228BFA0EB814000
:10126000B0EB414F00BF42EB020228BFA0EB414070
:10127000B0EB014F00BF42EB020228BFA0EB0140E0
:10128000B0EBC13F00BF42EB020228BFA0EBC13070
:10129000B0EB813F00BF42EB020228BFA0EB8130E0
:1012A000B0EB413F00BF42EB020228BFA0EB413050
:1012B000B0EB013F00BF42EB020228BFA0EB0130C0
:1012C000B0EBC12F00BF42EB020228BFA0EBC12050
:1012D000B0EB812F00BF42EB020228BFA0EB8120C0
:1012E000B0EB412F00BF42EB020228BFA0EB412030
:1012F000B0EB012F00BF42EB020228BFA0EB0120A0
:10130000B0EBC11F00BF42EB020228BFA0EBC1102F
:10131000B0EB811F00BF42EB020228BFA0EB81109F
:10132000B0EB411F00BF42EB020228BFA0EB41100F
:10133000B0EB011F00BF42EB020228BFA0EB01107F
:10134000B0EBC10F00BF42EB020228BFA0EBC1000F
:10135000B0EB810F00BF42EB020228BFA0EB81007F
:10136000B0EB410F00BF42EB020228BFA0EB4100EF
:10137000B0EB010F00BF42EB020228BFA0EB01005F
:10138000104670470CBF012000207047B1FA81F26F
:10139000C2F11F0220FA02F0704708B14FF0FF308F
:1013A00000F00EB80029F8D02DE90340FFF7CCFE7D
:1013B000BDE8064002FB00F3A1EB0301704700BF4C
:1013C000704700BF1A481B49026800608A4219D062
:1013D000002103E0184B5B58435004311748184B69
:1013E00042189A42F6D3174A02E0002342F8043B1F
:1013F000154B9A42F9D306F097FC0AF021F900F058
:1014000073F8FEE7114E124830601248016821F06F
:1014100070610160410201600F4C182020600F498B
:101420000F4808600F48D0F800D04068004700001F
:10143000F04F0020EFBEADDEC4D200080000002057
:10144000A4010020A4010020400E0020181002403A
:101450000900000004000140140C0140000C014090
:101460004434434400F0FF1FFEE700000F4B93F8A5
:1014700010312BB90E4BDA6882F01002DA6009E005
:101480000C4B1B791BB10A4B10225A6102E0084B2E
:1014900010221A61074B5B781BB1054B08225A6179
:1014A0007047034B08221A61704700BFE408002010
:1014B000000C0140AC08002010B504F099F9084B6D
:1014C000084A19681860411A116001F039F800F0F3
:1014D000EBF800F097FFBDE8104000F053BF00BFED
:1014E000A8010020CC0700201FB504F041FA03F04A
:1014F000AFFA3C4803F014FB4FF4E13004F0CCFBAE
:1015000005F034FD00F08CF8374B93F832300E2B99
:1015100001D0082B02D101238DF80830324C01A8EC
:101520006378003B18BF01238DF8053001238DF847
:1015300004302E4B1B78003B18BF01238DF806307A
:1015400000238DF80730638AADF80A30A38AADF81E
:101550000C3004F0BFF800F077FF25494FF4165027
:1015600004F004FB4FF47A7004F0CDF921484FF4F5
:10157000FA7104F057F920484FF4FA7104F052F967
:101580001E4840F6B83104F04DF91D484FF47A6119
:1015900004F048F91B4844F6206104F043F994F83C
:1015A0005C3123B1184844F6206104F03BF9174838
:1015B00049F6404104F036F9154844F6206104F03C
:1015C00031F91448144904F02DF9074B93F86431AC
:1015D00023B1124849F6404104F024F904F046F9D9
:1015E000FCE700BF00580040E4080020AC010020E8
:1015F000293D000861700008C170000841650008BD
:10160000B91400086931000821710008015E000862
:10161000CD3E00086D140008A0860100817100080D
:101620001D4B93F83230042B07D0012B05D0082B2B
:1016300003D00E2B01D0052B02D1184A01211170C5
:10164000013B112B26D8DFE803F00F11110D091310
:10165000130B11131515150B2525111900220AE07E
:10166000012208E0022206E0032204E0042202E054
:10167000062200E008220A4B1A70704700231A461F
:101680000849C95C09B10132D2B21433F02BF7D149
:10169000034B1A70704700BFE4080020AC01002023
:1016A00010000020B00100202DE9F04F984B85B0CC
:1016B0001B78032B03933CD9964B00219D68964BD6
:1016C0004FF000069C682046FFF7EEFC08B14FF093
:1016D0000106F6B216B19148214601E09049204634
:1016E000FFF71CFA01462846FFF7C0FC28B10EB1EF
:1016F0008A4818E020468A4916E026B120468849E3
:10170000FFF70EFA03E086482146FFF707FA014685
:101710002846FFF7C9FC50B126B120468049FFF7A3
:10172000FFF903E07E482146FFF7F8F90546794BBB
:101730009D607C4B7C4C93F83230013B102B00F2C7
:10174000C185DFE813F07B00110157011100460548
:10175000FB016B029E059B01E2025C03CD03630467
:10176000BF05BF05BF05FD046A4D6B4BE968D8682E
:10177000FFF7D6F96E68824600213046FFF7D8FAA7
:10178000684B074693F96E00FFF77EFAA968FFF7EA
:10179000CFFA00218146FFF7CBFAD5F80080054645
:1017A00041465046FFF7BCF93946FFF7B9F92946DB
:1017B000FFF7B6F9FFF782FC414620805046FFF75D
:1017C000ADF93946FFF7ACF92946FFF7A9F9FFF75C
:1017D00075FC564960804846FFF7A2F93146054638
:1017E000FFF79EF952490446FFF740FC10B14FF451
:1017F0007F700BE020464F49FFF756FC10B14FF4C5
:10180000FA6003E02046FFF759FC80B24A4B3146AC
:1018100018812846FFF782F945490446FFF726FC60
:1018200010B14FF47F709BE020464249FFF73CFC2B
:10183000002800F091804FF4FA6091E0364B354E6D
:10184000D868F168FFF76CF9364D804695F96E005F
:10185000FFF71AFAB168FFF76BFA00218146FFF72C
:1018600067FA3768D6F804A0002106463846FFF725
:101870005FFA01464046FFF753F94FF08141834636
:101880005046FFF755FA2D49FFF706FB014658462B
:10189000FFF746F93146FFF743F9FFF70FFC4FF02A
:1018A000404120805046FFF743FA2449FFF7F4FAFD
:1018B000394682464046FFF731F95146FFF730F985
:1018C0003146FFF72DF9FFF7F9FB394660804046B6
:1018D000FFF726F95146FFF723F93146FFF720F9C4
:1018E000FFF7ECFBA080B5F87200FFF7CDF9494691
:1018F000FFF716F90446B5F87000FFF7C5F906467C
:1019000031462046FFF7B2FBD0B1304625E000BF9C
:101910001000002090080020640000200000C8C2D1
:101920000000C842E4080020D00700200080BB442B
:1019300000007F440000FA44000000200000404006
:10194000B5F87400FFF7A0F9054629462046FFF7D1
:10195000ABFB08B1284600E02046FFF7AFFB80B2A2
:10196000A94B588100F0AEBCA84DA94BE968D868D6
:10197000FFF7D6F82F68804600213846FFF7D8F9E0
:1019800001464046FFF7CCF8A24B824693F96E0021
:10199000FFF77AF9A968FFF7CBF96E68054631467B
:1019A0005046FFF7BDF82946FFF7B8F8FFF786FB6A
:1019B000002120803046FFF7BBF93946814640467A
:1019C000FFF7ACF84946FFF7ABF82946FFF7A8F850
:1019D000FFF774FB394660804046FFF7A1F849469F
:1019E000FFF79EF82946FFF79BF8FFF767FBA080FB
:1019F000504638E0854D864BE968D868FFF790F887
:101A00002F6882463946FFF789F8824B804693F962
:101A10006E00FFF739F9A968FFF78AF96E68054685
:101A200031464046FFF77CF82946FFF777F8FFF785
:101A300045FB314620804046FFF770F82946FFF706
:101A40006FF8FFF73BFB394660805046FFF768F8B8
:101A500031460746FFF764F82946FFF761F8FFF7BC
:101A60002DFBA08038463146FFF758F82946FFF78E
:101A700055F8FFF723FBE08000F024BC634D644B76
:101A8000E968D868FFF74CF82F688046002138468F
:101A9000FFF74EF901464046FFF742F85D4B82469C
:101AA00093F96E00FFF7F0F8A968FFF741F96E6847
:101AB000002105463046FFF73BF901465046FFF747
:101AC0002FF8002181462846FFF732F901464846A3
:101AD000FFF726F8FFF7F2FA4FF04041208030463A
:101AE000FFF726F94C49FFF7D7F9394681464046BA
:101AF000FFF716F84946FFF713F82946FFF710F8E5
:101B0000FFF7DCFA394660804046FFF707F84946A0
:101B1000FFF706F82946FFF703F8FFF7CFFA4FF073
:101B20008141A0803046FFF703F93B49FFF7B4F944
:101B300001465046FEF7F4FF294647E3344B334D48
:101B4000D868E968FEF7ECFF2E68074600213046AA
:101B5000FFF7EEF801463846FEF7E2FFD5F804A09D
:101B600080464FF081415046FFF7E2F82A49FFF7DF
:101B700093F901464046FEF7D3FF264B804693F982
:101B80006E00FFF781F8A968FFF7D2F805462946ED
:101B90004046FEF7C5FFFFF791FA4FF04041208025
:101BA0005046FFF7C5F81C49FFF776F931468246E3
:101BB0003846FEF7B3FF5146FEF7B2FF294681468D
:101BC000FEF7ACFFFFF77AFA314660803846FEF741
:101BD000A7FF5146FEF7A4FF29460646FEF79EFFE3
:101BE000FFF76CFA2946A0804046FEF797FFFFF703
:101BF00065FA2946E0804846FEF792FFFFF75EFA55
:101C000020813046F7E000BF00000020900800204F
:101C100064000020E408002000004040A84BA94DCB
:101C2000D868E968FEF77CFFD5F8008007464FF0DA
:101C30003F414046FFF77CF801463846FEF770FF0B
:101C40006E6883464FF07C513046FFF771F89E4B2B
:101C5000814693F96E00FFF717F8A968FFF768F857
:101C6000494605465846FEF75BFF2946FEF758FFF2
:101C7000FFF724FA4FF03F4120803046FFF758F835
:101C8000824651465846FEF74BFF2946FEF746FF6F
:101C9000FFF714FA4FF07C5160804046FFF748F898
:101CA00001463846FEF73CFF49468346FEF738FFBB
:101CB0002946FEF735FFFFF701FA5146A080584646
:101CC000FEF72EFF2946FEF729FFFFF7F7F900215F
:101CD000E0804046FFF72CF801463846FEF720FF2B
:101CE00031460746FEF71AFF2946FEF719FFFFF7B0
:101CF000E5F9314620813846FEF712FF2946FEF706
:101D00000DFFFFF7DBF96081DCE26D4B6D4DD868AC
:101D1000E968FEF705FFD5F800B081466B495846E3
:101D2000FFF706F86A49FFF7B7F801464846FEF79D
:101D3000F7FE6F68064667493846FEF7F9FF6649C1
:101D4000FFF7AAF8604B824693F96E00FEF79CFFFE
:101D5000A968FEF7EDFF514605463046FEF7E0FE66
:101D60002946FEF7DDFEFFF7A9F95C4920803846D9
:101D7000FEF7DEFF5849FFF78FF8804641463046B0
:101D8000FEF7CEFE2946FEF7CBFEFFF797F94FF0A0
:101D9000814160805846FEF7CBFF4D49FFF77CF844
:101DA00001464846FEF7BCFE51468146FEF7B8FEA6
:101DB0002946FEF7B3FEFFF781F94146A080484669
:101DC000FEF7AEFE2946FEF7A9FEFFF777F90021E0
:101DD000E0803846FEF7ACFF074639463046FEF74E
:101DE0009FFE2946FEF79AFEFFF768F939462081E3
:101DF0004846FEF795FE2946FEF792FE81E7314DF3
:101E00002F4BE968D868FEF78BFED5F80080824634
:101E10004146FEF783FE6E6881463146FEF780FE3E
:101E2000294B074693F96E00FEF72EFFA968FEF7CF
:101E30007FFF054629463846FEF770FEFFF73EF95C
:101E4000314620804846FEF769FE29468146FEF766
:101E500067FEFFF733F9414660805046FEF760FEAB
:101E600031468246FEF75CFE29468046FEF758FE64
:101E7000FFF724F93146A0805046FEF74FFE294671
:101E80000646FEF74BFEFFF719F92946E080384673
:101E9000FEF746FEFFF712F9294620814846FEF775
:101EA0003DFEFFF70BF9294660814046FEF736FEFE
:101EB000FFF704F92946A0813046FEF731FE2EE1F6
:101EC0006400002090080020E4080020000080C08A
:101ED0000000A0400000104100002041000010C19F
:101EE000914B924DD868E968FEF71AFE2E680746B6
:101EF0008F493046FEF71CFF8E49FEF7CDFF0146A5
:101F00003846FEF70DFED5F8048081468A494046E2
:101F1000FEF70EFF8749FEF7BFFF884B824693F915
:101F20006E00FEF7B1FEA968FEF702FF51460546B6
:101F30004846FEF7F5FD2946FEF7F2FDFFF7BEF82D
:101F40007D4920803046FEF7F3FE7A49FEF7A4FF74
:101F500001463846FEF7E4FD51468346FEF7E0FDB4
:101F60002946FEF7DDFDFFF7A9F87149608040467C
:101F7000FEF7DEFE6F49FEF78FFF82465146584658
:101F8000FEF7CEFD2946FEF7CBFDFFF797F8514649
:101F9000A0804846FEF7C4FD2946FEF7C1FDFFF7C5
:101FA0008DF80021E0803046FEF7C2FE014638463B
:101FB000FEF7B6FD41468146FEF7B0FD2946FEF725
:101FC000ADFDFFF77BF8002120814046FEF7B0FE13
:101FD000314682463846FEF7A1FD5146FEF7A0FD88
:101FE0002946FEF79BFDFFF769F8414660814846A8
:101FF000FEF796FD2946FEF791FDFFF75FF83146A3
:10200000A0813846FEF78CFD514683E0474D464B94
:10201000E968D868FEF784FD2F6880463946FEF7E8
:102020007FFD6E6882464FF03F413046FEF780FEEE
:10203000424B814693F96E00FEF726FEA968FEF733
:1020400077FE494605465046FEF76AFD2946FEF7EB
:1020500067FDFFF733F84FF03F4120803846FEF729
:1020600067FE01464046FEF75BFD31460190FEF7F4
:1020700055FD2946FEF754FDFFF720F839466080EC
:102080004046FEF74BFD4FF07C5183463046FEF74D
:102090004FFE0346194658460293FEF741FD294676
:1020A000FEF73EFDFFF70AF84FF07C51A08038465E
:1020B000FEF73EFE01464046FEF732FD314607463A
:1020C000FEF72EFD2946FEF72BFDFEF7F7FF314602
:1020D000E0803846FEF722FD2946FEF71FFDFEF799
:1020E000EDFF494620815846FEF71AFD2946FEF7C6
:1020F00015FDFEF7E3FF6081019A31461046FEF7B9
:102100000FFD2946FEF70AFDFEF7D8FF029BA081CE
:1021100019465046FEF704FD2946FEF7FFFCFEF780
:10212000CDFFE081CEE000BF6400002090080020D9
:102130000000E040000020410000E0C0E408002072
:10214000894B8A4DD868E968FEF7EAFC2F6880461B
:1021500000213846FEF7ECFD6E6801464046FEF76A
:10216000DFFC3146FEF7DCFC814B824693F96E00C2
:10217000FEF78AFDA968FEF7DBFD054629465046B5
:10218000FEF7CEFCFEF79AFF002120802846FEF7DE
:10219000CFFD394681464046FEF7C0FC3146FEF78A
:1021A000BDFC4946FEF7BCFCFEF788FF294660806F
:1021B0005046FEF7B3FCFEF781FF3946A08040464B
:1021C000FEF7AEFC3146FEF7A9FC4946FEF7A8FC37
:1021D0004FE4674CB4F88200FEF756FDD4F888103F
:1021E000FEF79EFC604B5968FEF79AFC0546B4F872
:1021F0008000FEF749FD064631462846FEF736FFC9
:1022000008B130460CE0B4F88400FEF73DFD04460A
:1022100021462846FEF748FF08B1204600E0284640
:10222000FEF74CFF524C534B80B21880B4F8780044
:10223000FEF72AFDE16FFEF773FC4B4B1968FEF7C2
:102240006FFC0546B4F87600FEF71EFD06463146E3
:102250002846FEF70BFF08B130460CE0B4F87A00D0
:10226000FEF712FD044621462846FEF71DFF08B181
:10227000204600E02846FEF721FF3E4B80B2588002
:1022800020E0394BD868FEF719FF3B4B20809B7A42
:10229000384C23B14FF000022280628012E0334DAF
:1022A00000216868FEF744FD002106462868FEF715
:1022B0003FFD01463046FEF733FCFEF7FFFE80B2DD
:1022C000208060802D4B1A88012308E02B4912B230
:1022D00031F9131001338A42B8BF0A4692B2039C07
:1022E000A342F3D3224B264CB3F84000D98FB3F866
:1022F0003A8093F84270B3F834C01F4BC2EB000928
:1023000093F801B0039B1FFA89F95B000393B4F9BA
:1023100006A0002321E014B2844203DD174C1D5BAC
:102320004D441D53154C1D5F8D4201DA8DB203E003
:102330008542A8BF0546ADB2104E9C19C2459D53BB
:1023400004DA17B1A4F800C000E02180BBF1000F4F
:1023500002D10A4C23F804C00233039CA342DAD111
:1023600005B0BDE8F08F00BF640000209008002099
:10237000E408002000000020AC080020D007002066
:10238000D008002010B5002407E0064B204633F8A3
:10239000141002F069FF0134E4B2034B1B78A3422E
:1023A000F3D810BDD007002010000020064A074BCC
:1023B00011789A1C02EB410201E023F8020C02336F
:1023C0009342FAD1FFF7DEBF10000020D0070020B3
:1023D00038B50546002410E0094B0134B3F93E003E
:1023E000FFF7E4FFFA2003F08EFA4FF47A70FFF75C
:1023F000DDFFFA2003F087FAE4B2AC42ECD338BD3B
:10240000E408002010B50D4B1B78ABB10C4B93F8D2
:102410003230012B09D0042B0ED10A4C0020218927
:1024200002F030FF0120618902E0064B002059894B
:10243000BDE8104002F026BF10BD00BFAC01002077
:10244000E4080020000000200A4B0B4A03F1700151
:10245000D3F898001060D3F89C005060D3F8A00027
:102460009060D3F8A4001033D06018328B42EFD1C3
:10247000704700BFE4080020E8070020044B03F188
:10248000A80100221A615A6118338B42F9D17047B2
:10249000E807002000230361436170472DE9F047FE
:1024A00004460D46D0F8149010466161616890466C
:1024B000FEF73EFC2049FEF73BFC01462846FEF7AE
:1024C00037FC2169FEF72CFBD4F80CA007462061ED
:1024D0001A495046FEF72CFC064631463846FEF7B0
:1024E000C5FD50B914495046FEF722FC0646314658
:1024F0003846FEF7D9FD00B93E46266121682846D8
:10250000FEF716FC0C4907463046FEF7C5FC0146AF
:102510003846FEF705FB494606462846FEF7FEFA12
:10252000A168FEF705FC4146FEF7B6FC01463046C1
:10253000FEF7F6FABDE8F08700007A4400007AC49E
:102540002DE9F84503F054F9834E844B0546186095
:102550003068281AFEF794FB8149FEF7E9FB814BAE
:1025600004461A793560002A31D07F4D6868FDF73E
:102570004BFF75A3D3E90023FDF79AFFFEF77AFA24
:1025800007462868FDF740FF6FA3D3E90023774D86
:10259000FDF78EFFFEF76EFAA969FEF7BFFA02F0AB
:1025A000EBF8224601467248FFF778FF02F0E4F8A4
:1025B000E96906463846FEF7B1FA02F0DDF8224630
:1025C00001466C48FFF76AFF02F0D6F845E05B7AF7
:1025D000654D002B2CD0654B186A674B1968FEF7C8
:1025E0009DFA064606F0D8FC8246304606F00EFDFF
:1025F000D5F80080074651464046FEF799FB6D68C6
:10260000064639462846FEF793FB01463046FEF75C
:1026100085FA514606462846FEF78AFB39460546A6
:102620004046FEF785FB01462846FEF779FA14E09E
:102630002868FDF7E9FE46A3D3E90023FDF738FF3C
:10264000FEF718FA06466868FDF7DEFE40A3D3E9F8
:102650000023FDF72DFFFEF70DFA424B05465B798F
:10266000CBB1464B9B78B3B1454B9B7813B94548EA
:10267000FFF710FF444B18683C4B196AFEF74EFAFF
:1026800002F07AF8224601463E48FFF707FF02F0C3
:1026900073F880460FE0344B9868FDF7B5FE2CA325
:1026A000D3E90023FDF704FFFEF7E4F92F4B804642
:1026B0001A6A354B1A602B4B9B7903B32B4B586F1F
:1026C000FEF7E2FA314B01461868FEF727FA304967
:1026D000FEF7E2FB224601462E48FFF7DFFE2E49B9
:1026E0000746FEF7C3FC08B12B4F05E038462B49DF
:1026F000FEF7DAFC00B1294F294BDF6002E0284BDE
:102700000022DA60194F3046796AFEF707FA22464E
:1027100001462448FFF7C2FE214EB96A30602846C0
:10272000FEF7FCF9224601461F48FFF7B7FEF96A9B
:1027300070604046FEF7F2F9224601461B48FFF75B
:10274000ADFEB060BDE8F885FCA9F1D24D62603FF6
:102750007B14AE47E17A743FA4020020A00200205F
:10276000BD378635AC08002064000020B40D002081
:102770003008002048080020E00800206000002009
:102780007400002060080020A4080020CC0800206D
:102790000000204178080020000048C300004843A2
:1027A00090080020E80700200008002018080020FA
:1027B000014B01221A707047C9020020014803F042
:1027C00051BA00BF28B90008014803F04BBA00BF56
:1027D00056B9000838B50D4803F044FA00240C4DF2
:1027E000285903F03FFA2D19092003F025FA6868EB
:1027F00003F038FA074803F035FA03F083F90028AC
:10280000FBD00C343C2CEAD138BD00BF5BB90008CA
:10281000FCC2000853BA000838B50D4803F022FA8C
:1028200000240C4D285903F01DFA2D19092003F03E
:1028300003FA686803F016FA074803F013FA03F086
:1028400061F90028FBD00C34842CEAD138BD00BFDC
:102850007EB90008A4B8000853BA000810B503F008
:1028600041F84FF47A71B0FBF1F1134C134801F0C9
:10287000E8F9134803F0F6F9A06FFDF7C5FD02462D
:102880000B46104801F0DDF994F880100E4801F075
:10289000D8F90E4803F0E6F90D4B0E48196801F01F
:1028A000D0F902F037F901460B4801F0CAF90B489C
:1028B000BDE8104003F0D6B9B40D002094B900086B
:1028C000A6B90008BAB90008BFB90008C4B9000821
:1028D000CC070020D1B90008E0B9000853BA0008BD
:1028E0002DE9F041074608F0F3FEC5B255B91F487F
:1028F00003F0B8F91E4B93F832201E4B013A53F8FF
:1029000022002AE038461C492A4608F0E9FE04461F
:1029100070B91A4803F0A6F9164B53F82400F0B129
:1029200003F0A0F90134202003F086F9E4B2F3E7C4
:102930000024104E56F8241009B9114810E038460A
:102940002A4608F0CDFE631C70B9094A0D4882F88A
:10295000323003F087F956F8240003F083F90A486F
:10296000BDE8F04103F07EB9DCB2E2E7F1B900085E
:10297000E4080020140000208CBD000801BA000803
:1029800014BA00082CBA000853BA00082DE9F04523
:1029900085B0804608F09CFE074628B1012879D111
:1029A00098F800302A2B75D14B4C4C4803F05AF95B
:1029B000D4F81401FDF728FD0646D4F818010F4697
:1029C000FDF722FDCDE90001D4F81C01FDF71CFD47
:1029D00032463B46CDE90201414801F032F9D4F8D4
:1029E0002401FDF711FD0646D4F828010F46FDF736
:1029F0000BFDCDE90001D4F82C01FDF705FD3246B1
:102A00003B46CDE90201374801F01BF9D4F830010B
:102A1000FDF7FAFC0646D4F834010F46FDF7F4FC46
:102A2000CDE90001D4F83801FDF7EEFC2E4D324619
:102A30003B46CDE902012D4801F003F9E86BFDF7B3
:102A4000E3FC0646286C0F46FDF7DEFCCDE90001ED
:102A5000686CFDF7D9FC32463B46CDE902012448BB
:102A600001F0EFF8D4F84001FDF7CEFC0646D4F8AB
:102A700044010F46FDF7C8FCCDE90001D4F8480138
:102A8000FDF7C2FC3246CDE902013B46194801F090
:102A9000D8F81DE000252C46174E404671593A469D
:102AA0005FFA84FA08F01CFE40B90C2303FB0464AF
:102AB000A3689847BAF1040F0AD903E001340C3532
:102AC000052CE9D10D4805B0BDE8F04503F0CAB8C2
:102AD00005B0BDE8F08500BFE40800203ABA000860
:102AE00056BA000870BA0008B40D00208CBA00086D
:102AF000B2BA0008CEBA0008FCC20008E6BA000864
:102B000070B50D680446284608F0E2FD02462068CC
:102B10002946BDE8704008F0E3BD00007FB50379A9
:102B200004460D46052B2BD8DFE803F003081015EB
:102B30001B208368204968461A7804E083681F498F
:102B400093F90020684601F06DF819E083681A498E
:102B500068461A88F7E7836818496846B3F9002081
:102B6000F1E78368144968461A68ECE783681868D7
:102B7000FDF74AFC02460B466846114901F052F83F
:102B800068466E4603F06EF8ADB10E4803F06AF881
:102B900069460A22E06801F033FD684603F062F8F6
:102BA000084803F05FF8206969460A2201F028FD11
:102BB000684603F057F87FBDC1B9000804BB0008A0
:102BC00007BB000859B900082DE9F041064608F096
:102BD0007FFD074620B101281FD133782A2B1CD155
:102BE000424803F03FF8424C04F5D46504352068B0
:102BF00003F038F83F4803F035F820463946FFF730
:102C00008DFF3D4803F02EF802F07CFF0028FBD03A
:102C10001434AC42EBD1BDE8F08130463D2108F0E0
:102C20004BFD074600285ED0314C04F5D4650435D1
:102C3000D4F80080404608F04BFD4146024630463D
:102C400008F04EFD8046002845D12379781C052BDD
:102C500004D101F0B1FD0546404602E008F0C3FC96
:102C600000252379052B06D0E268904213DB226908
:102C7000904212DD0FE0E068FEF706F801462846B4
:102C8000FEF7F4F938B92069FDF7FEFF0146284642
:102C9000FEF70AFA88B1194821E0052B0FD8DFE8C2
:102CA00003F003030606090CA368187007E0A36885
:102CB000188004E0A368186001E0A3681D60206824
:102CC00002F0D0FF0E4802F0CDFF20460021BDE803
:102CD000F041FFF723BF1434AC42A9D10948BDE845
:102CE000F04102F0BFBFBDE8F08100BF0ABB0008A1
:102CF00038C300081FBB000853BA000823BB0008F4
:102D000031BA000848BB000810B5084802F0AAFF15
:102D100000F072FC064802F0A5FF0A2002F0F3FD65
:102D20000020BDE8104002F0F9BD00BF65BB0008FF
:102D30006FBB0008F0B585B0044608F0C9FC082850
:102D400024D100231F49E25C09685118497811F029
:102D5000020F18BF203AE2540133082BF2D1651C50
:102D600004F1090715F8016C1748314608F0A4FC76
:102D700020B12846314608F09FFC08B113481CE0FA
:102D80000135BD42EED1204600F05AFC104802F059
:102D900069FF00230F4A04A9D218927A8A180A49B7
:102DA000595C0133082B02F80C1CF3D1083B01A835
:102DB0008DF80C3002F056FF074802F053FF05B0C3
:102DC000F0BD00BFAC000020DCC900087EBB0008DD
:102DD0009EBB0008E408002053BA000810B5044662
:102DE000084802F03FFF20220021074808F05BFC62
:102DF000064A00231360064A20461370BDE81040BF
:102E0000FFF782BFB3BB0008A8020020CC0200205D
:102E1000A008002010B5084802F024FF012000F0AF
:102E200025FC064802F01EFF0A2002F06CFD00207F
:102E3000BDE8104002F072BDCBBB000871BB0008BA
:102E40002DE9F041844B8AB01A7832B901321A70F8
:102E5000824802F007FFFFF7B7FC814B1B78002B7D
:102E600000F0698102F00AFF18B102F059FE7D4BB3
:102E700018707C4B1B786D2B42D00CD8622B23D062
:102E800005D8232B0FD0612B40F055810FE0672B25
:102E900040F051811EE0742B5AD0772B5BD0712B00
:102EA00040F0498139E06E4B00221A70D1E06E4C3F
:102EB0002068FDF7A9FA064660680F46FDF7A4FAF8
:102EC000CDE90001A06811E0674B6848196F00F078
:102ED000B8FE30E1644C606AFDF796FA0646A06AD7
:102EE0000F46FDF791FACDE90001E06AFDF78CFA93
:102EF0003246CDE902013B465D4800F0A2FE1AE1F0
:102F0000594CA06DFDF780FA0646E06D0F46FDF7BF
:102F10007BFACDE90001206EE8E7564C2068FDF70A
:102F200073FA064660680F46FDF76EFACDE90001B8
:102F3000A068FDF769FACDE90201E068FDF764FADF
:102F40003246CDE904013B464B4800F07AFEF2E000
:102F500002F0F4FCEFE0444C4849A069FDF7E8FEBC
:102F6000FDF752FA06460F46E0694449FDF7E0FED8
:102F7000FDF74AFACDE900014049206AFDF7D8FE85
:102F8000B4E702F0CDFD092801D03F2853D13C4BD6
:102F9000DFF8FC8000261F683546A8F184040CE0A9
:102FA0002FB1384821683A4608F09AFB20B915B984
:102FB0002646254600E026460C344445F0D1BDB1F6
:102FC000304A3B46D2192968C85C3168C95C8142E5
:102FD0000CD1581C013229B92A4A2031D154284B2E
:102FE000186005E002F8011C0346ECE7244A136070
:102FF000234B1B680BB1B5420FD0234802F032FEC1
:1030000006E055F80C0B02F02DFE092002F014FE2C
:10301000B542F6D9FFF7D8FB00271A4CE41904E0B3
:1030200014F8010C02F008FE0137154B01341B683F
:103030009F42F5D37FE0124B1B682BB9042803D1C4
:103040001048FFF7CBFE7BE00C2823D10F4802F09D
:1030500009FEFFF7B9FB6EE0A0080020E6BB000800
:10306000C9020020C8020020B40D0020F0CC0008E6
:1030700021BC00085C0C00201EBC0008E02E65424C
:10308000CC020020A80200202BBC000830BC0008A5
:1030900028B90008002B2FD00A2801D00D282BD1E9
:1030A000294802F0DFFD294B294C1A680023A3545C
:1030B0000893284B07A8009327490B220C23079459
:1030C00008F095FA054638B1006808F001FB0130B8
:1030D000AB682018984702E0204802F0C3FD202288
:1030E0001B48002108F0DFFA184B00221A601C4B25
:1030F0001B78002BADD123E07F2801D008280AD10E
:10310000CBB1124A013B1360114A0021D15415483A
:1031100002F0A8FD0FE01F2B0DD81F280BD97E2829
:1031200009D80BB9202806D0094AD054074A0133E0
:10313000136002F081FD02F0A1FD00287FF421AFB1
:103140000AB0BDE8F08100BF53BA0008CC020020ED
:10315000A8020020012B0008A4B800083BBC00080E
:10316000A00800205CBC00082DE9F14F7A4B002438
:103170001A787A4D01321A702646774B784F93F8B9
:103180000080BB19987A02F08BF8A0F53A73063BE1
:103190009BB240F2DC52934288BFF88E6F4B08F02E
:1031A000030808EB860823F818002B886A88D218D1
:1031B000AB88D218EB88D21812B2931C48BF531DAB
:1031C0009B10684A9BB21353674A19B2A05E03383A
:1031D000814201DA981CA052634AA05E033081420A
:1031E00001DD023BA352013602340835082EC4D15A
:1031F0005D4C5B4DB4F906206B8F9A4245DAFFF7C0
:103200003DF92B8C73B1594B5B7923B1584B1A782C
:103210000AB1012215E0564B5A78002A62D00022EA
:103220005A705FE0B4F90420AB8F9A420FDD504B27
:10323000597861B94F490A78501C142A087051D145
:10324000133A5A704C4B1A6A4C4B1A604AE0444B82
:103250005B8F9A4243DA464A517841B145490B782F
:10326000581C142B08703DD1143B53703AE03E4A71
:10327000B2F902209A4232DD3E4A1378591C142BCF
:1032800011702FD103F07CFC2CE0A98F8A4229DD3C
:10329000374A527832BBB4F904208A420CDDB4F9C3
:1032A0000210994208DA334A1378591C142B117012
:1032B00018D104F0FBF915E09A4210DA2A4AB2F963
:1032C00002209A420BDA2B4A1378591C142B1170E6
:1032D00008D103F0D1FA0320FFF77AF802E0254B7A
:1032E00000221A701E4B9A78002A28D0244A9C8803
:1032F000B2F800C00FFA8CFEA6451DDD1C4A5178BD
:10330000D1B1D88E18490880488088801889DB8818
:10331000C8801C190121A645D17302DD002353701A
:103320001370134B5A780AB95A701A70144B0CF177
:10333000010CA3F800C002E00D4B0022DA73084B29
:10334000104A588F9C8F00231946B2F900C084455B
:103350001ADC4FF0000E1FE024030020E4020020DE
:10336000E4080020D4020020D0080020BC0800207F
:10337000AC080020D0020020B40D0020E00800209E
:10338000580A0020D808002032F908EC8645ACBF66
:103390004FF0000E4FF0010E8445ACBF0025012513
:1033A0009D40A445D4BF4FF0000C4FF0010C45EAFE
:1033B00001019D1C0CFA05FC41EA0C0103F1010C12
:1033C0000EFA0CFE033341EA0E0102320C2B89B2D5
:1033D000BBD1744F0C3B3A46B2F816C0724811EAA2
:1033E0000C0F0CBF4FF0000C4FF0010C03F800C0A5
:1033F000013302320E2BEFD1437913B96B4B01220B
:103400001A70694B1A7A694B02B101229A72664BA3
:103410001B7813B9654BDA7B5AB1644C23794BB9ED
:103420006348FFF737F86348FFF734F80123237147
:1034300000E01A715C4B9A785C4B42B15A793AB908
:1034400001325A715C4B1A6A5C4B1A6000E05A7187
:10345000554B5A7A554B42B15A7A3AB901325A729F
:10346000554B1A6A564B1A6000E05A724E4B5B7B02
:103470001BB1514B1A6A524B1A600025514B524CEA
:10348000E85EFDF701FC44F815000235082DF5D182
:10349000444BDE8E3046FDF7F7FB05462946206893
:1034A000FDF73CFB294620606068FDF737FB2946A5
:1034B0006060A068FDF732FBA060A6F5BA600C382A
:1034C000FDF7E2FB0146E068FDF728FB0025E06020
:1034D0002C46DFF8FCA03D4B1AF80420B7F844B0A6
:1034E0001A555846FDF7D0FBDFF8DC90804659F8B6
:1034F000056041463046FDF7C3FD78B1CBF10000D1
:10350000FDF7C2FB01463046FDF7C4FD30B1002394
:1035100049F8053001230AF8043014E02C4B00224E
:103520001A5530460021FDF7BFFDDFF89CA020B101
:1035300030464146FDF7F2FA03E030464146FDF7DA
:10354000EFFA4AF80500013404350237032CC0D1E4
:103550001D4BDC681F4B20461968FDF7DFFA1E493A
:1035600020F00040FDF7A0FD10B1104B00229A7131
:103570000D4B5A780D4B8AB19A7982B901329A7102
:10358000144B1C600C4B586FFDF77EFB134B1860FF
:10359000134801B0BDE8F04FFEF77CBF9A7101B04F
:1035A000BDE8F08FE4080020BC080020AC08002033
:1035B0003008002048080020B40D0020A408002096
:1035C000E0080020D00800206400002074000020E3
:1035D00060000020A80800200000A041CC080020C6
:1035E00078080020024803494FF4BA7208F04EB838
:1035F000E408002000FC010810B504F0FFFD3420B1
:1036000004F010FE0B4804F065FE04280CD1094CB0
:10361000094B2046E15804F033FE042800D0FEE7B1
:10362000064B04349C42F3D104F0F4FDBDE8104095
:10363000FFF7D8BF00FC0108E40CFE1774FD010879
:1036400070B50646002409E0064D284608F034F817
:1036500018B1054A83185D1BAC720134315D002935
:10366000F2D170BDDCC90008E408002070B5964BAB
:103670001B7810B9052B00F02681944C052323708C
:103680009348FFF7DDFF01234FF4C8706370013BDF
:103690004FF032026082A3704FF4966044F62063CC
:1036A000E380A282A280208104F11C030025E58230
:1036B00002349C422E46F9D1844B032283F83220F7
:1036C0004FF47A729A8640F2DC504FF4FA62D88650
:1036D0001A8740F24C4040F26C7258879A8740F249
:1036E0007E4040F23A72D887A3F840204FF00C0099
:1036F0004FF47A72A3F84400A3F84600A3F84800F8
:10370000A3F8622040F2DC504FF4FA62A3F86400A0
:10371000A3F866204FF47A7040F2DC52A3F86800F8
:10372000A3F86A204FF4FA604FF47A72A3F86C00A1
:10373000A3F8702040F2DC504FF4FA62A3F8720054
:10374000A3F874204FF47A7040F2DC52A3F87600AC
:10375000A3F878204FF4FA604FF47A72A3F87A0055
:10376000A3F8802040F2DC504FF4FA6201214FF0C0
:103770007E5CA3F88200A3F884204FF47A704FF0A7
:10378000FF3283F88C2083F88E2083F8421083F870
:103790006E10C3F87CC0C3F888C083F88D1083F81E
:1037A0008F10A3F89000A3F894004A484A4CC3F83D
:1037B0009800C3F8A400C3F8A800C3F8B400C3F885
:1037C000C4004FF07C50C3F8D400C3F8E400C3F841
:1037D000F40042484FF4FA62C3F8F8004048C3F8D6
:1037E000B840C3F8FC003F484FF08044C3F80001E4
:1037F0003D48A3F89220C3F804013C48A3F8962062
:10380000C3F8C8400022C3F8D8404FF07F54C3F833
:103810009C20C3F8A020C3F8AC20C3F8B020C3F8A4
:10382000BC20C3F8C020C3F8CC20C3F8D020C3F814
:10383000DC20C3F8E020C3F8EC20C3F8F020C3F884
:10384000E84083F80811C3F80C01C3F81421C3F849
:103850001821C3F81C21C3F82421C3F82821C3F878
:103860002C21C3F83021C3F83421C3F83821C3F820
:103870004021C3F84421C3F848211D4A4FF02A00D3
:10388000C3F854211B4A83F81051C3F858211A4A2F
:10389000A3F82001C3F86021184A83F83C51C3F80B
:1038A0006821174A83F84C51C3F86C21154AC3F8B4
:1038B00050C183F85C1183F86411C3F87021BDE82E
:1038C0007040FFF799BE70BD00FC0108E4080020BD
:1038D000E4C900080000C842000048430000A041BD
:1038E000000088410000E0400060EA466666663FEE
:1038F000CDCC4C3D0AE89C41A470294100003041E8
:103900003333534066668640F8B504460E4610468B
:103910004FF07E511546FDF79FFB20BB3046FCF76C
:1039200073FD064628460F46FCF76EFD02460B4621
:1039300000200E49FCF708FC02460B46304639468B
:10394000FCF7B6FD06460F4620462946FDF7F0F97E
:10395000FCF75AFD02460B4630463946FCF7F6FBAB
:10396000FDF788F804462046F8BD00BF0000F03F90
:1039700028B1026811700268013202607047C8B253
:1039800002F05AB92DE9F845161E04460D460FDD22
:10399000002200E00132A95C0029FBD1B242ACBF99
:1039A0000E46B61A13F0020F02D04FF0300A01E0B3
:1039B0004FF0200A13F0010809D04FF0000808E08A
:1039C00020465146FFF7D4FF08F10108013E002EC2
:1039D000F6DC474603E02046FFF7CAFF0137C8EB95
:1039E0000503D95D0029F6D105E020465146FFF7D1
:1039F000BFFF0137013E002EF7DC3846BDE8F885F1
:103A00002DE9FF410A9F05460B9EDDF830E08C460C
:103A100051B930238DF804308DF805103A4601A9CC
:103A20003346FFF7AFFF39E03BB10A2A05D1002941
:103A300003DAC1F1000C012400E0002404AB0021F2
:103A400003F8011D0DE0BCFBF2F102FB11C10929D5
:103A5000C4BFAEF13A000918303103F8011DBCFBB8
:103A6000F2FC9846BCF1000FEDD184B14FB116F0D5
:103A7000020F06D028462D21FFF77AFF013F0124CF
:103A800005E02D2203F1FF3803F8012C002428461D
:103A900041463A463346FFF775FF001904B0BDE8CA
:103AA000F08100002DE9F04F82468FB00E4614469B
:103AB0004FF0060B0025A4E0252B40F09C8016F863
:103AC000013F002B00F0A180252B00F094802D2BCE
:103AD00002D04FF0000806E001364FF0010802E086
:103AE000013648F002083378302BF9D00022914695
:103AF0000AE02AB10A2303FB0B1B0BF0FF0B08E0C3
:103B00000A2303FB0909013633782E2B03D14FF02A
:103B1000000B0122F7E7A3F13000C1B20929E8D96F
:103B2000732B07D154F8041B3D4B5046002908BFA6
:103B300019465AE0642B0BD1033B0293CDF8009059
:103B4000CDF80480271D504621680A22603B0CE016
:103B5000782B0FD1173BCDF80090CDF8048002935D
:103B60002168271D50461022613BFFF749FF2D18A1
:103B70003C4645E0582B0BD1173B0293CDF8009003
:103B8000CDF80480271D504621681022413BECE708
:103B9000752B0AD1143BCDF80090CDF80480029328
:103BA000271D504621680A22DEE7632B0DD12368CA
:103BB00050468DF8343000238DF835300DA94A4633
:103BC0004346271DFFF7DEFED1E7662B18D10734E9
:103BD00024F0070305AFD3E9000103F108043A46D6
:103BE0005B4600F01FFD504639464A464346FFF704
:103BF000C9FE2D1804E050463178FFF7B9FE0135B3
:103C000001363378002B7FF457AFBAF1000F03D0A1
:103C1000DAF8003000221A7028460FB0BDE8F08FA5
:103C2000EDC900080EB40FB505AA52F8041B0190A7
:103C300001A80392FFF736FF04B05DF804EB03B070
:103C400070470FB407B504AA52F8041B0020019274
:103C5000FFF728FFBDE80E4004B07047034B04494E
:103C60001A78885C01321A70704700BF2603002062
:103C70003C03002010B5FFF7F1FF0446FFF7EEFF0D
:103C800004EB002080B210BD10B5FFF7F3FF04462F
:103C9000FFF7F0FF04EB004010BD0000D0B51C4C56
:103CA0008AB0A0691B49FDF743F8FCF7ADFB064657
:103CB0000F46E0691749FDF73BF8FCF7A5FBCDE996
:103CC0000001206A1349FDF733F8FCF79DFB636F91
:103CD000CDE90201A06F0493FCF796FBCDE9060144
:103CE0000D4B1868FCF790FB3B46CDE908013246C6
:103CF0000A48FFF7A6FF0A4B1B783BB1094841F27F
:103D000088310AB0BDE8D04001F09EBD0AB0D0BDF8
:103D1000B40D0020E02E65423403002064CA000880
:103D2000310300209D3C00080A2838B51FD11A4CE9
:103D30002378E3B119480025C55407F054FCFCF77B
:103D4000A3FFFCF761FB10A3D3E90023FCF7FCF908
:103D50000022134BFCF7ACFB0DA3D3E90023FCF7C7
:103D6000D1FCFCF787FE0F4B2570186038BD0A4B5D
:103D70001A78042A03D809498854013200E0002245
:103D80001A7038BDAFF30080333333333393594067
:103D900000000060E30161407E0300202803002052
:103DA000000014403403002010B5044601F044FF25
:103DB000024B1A7854401C7010BD00BF2503002030
:103DC00038B50546002401E0FFF7EEFF285D013419
:103DD0000028F9D138BD0000014B1878FFF7E4BF87
:103DE0002503002070B5044624200D46FFF7DCFFB4
:103DF0004D20FFF7D9FF002C14BF21203E20FFF7F4
:103E0000D3FF064B00221A702846FFF7CDFF044B64
:103E10001878BDE87040FFF7C7BF00BF250300203A
:103E20007C03002001460120FFF7DCBF0146002093
:103E3000FFF7D8BF70B50B4D0B4C0646C0B22870CB
:103E400001F0FAFE2A782378B6B282EA0303300A38
:103E50002370287001F0F0FE23782A7882EA0303A9
:103E6000237070BD320300202503002070B5154D6E
:103E7000154C0646C0B2287001F0DEFE2A78237881
:103E8000300A82EA0303C0B22370287001F0D4FE26
:103E90002A782378300C82EA0303C0B2237028709A
:103EA00001F0CAFE2A782378300E82EA03032370D9
:103EB000287001F0C1FE23782A7882EA0303237078
:103EC00070BD00BF300300202503002070B5714B8A
:103ED0001B78002B00F06683BDE87040FEF7B0BF92
:103EE00001F01EFE6C4B1A781ABB242814BF002266
:103EF00001221A70002A40F05583522815D07E28DE
:103F000003D0232840F04E830CE0644B64481A78B9
:103F100041F28831D2F1010238BF00221A7001F05B
:103F200093FC3FE3FEF78CFF3CE3012001F0F6FC3D
:103F300038E3012A04D14D280CBF0220002005E0FF
:103F4000022A05D13C280CBF03200020187029E369
:103F5000032A11D1402801D9033A22E3514A524998
:103F6000107000220A7051490A70514A10700422E0
:103F70001A70033A4F4B14E3042A07D14E4A1070CB
:103F80004B4A11784840107005220AE3052A40F098
:103F900009834549434B0A781B789342444B0AD91D
:103FA00093F800C080EA0C0C83F800C0434B98548F
:103FB00001320A70F6E21B78834240F0F0823E4BF9
:103FC0001B78722B00F0BC8223D86A2B5DD010D8EE
:103FD000662B00F0578106D8642B00F00381652B17
:103FE00040F0D8820FE1682B00F0A08100F2AA8196
:103FF00090E16E2B00F0008205D86C2B00F0AE81B2
:1040000000F2D78141E0702B00F0048200F27E8242
:104010003BE0CB2B00F0CF8010D8762B00F0A282B3
:1040200005D8742B00F0808200F283828FE2C92BC6
:104030001FD047D8C82B40F0AD8211E0CF2B24D041
:1040400005D8CD2B00F09B8200F29E82BDE0FA2BBA
:1040500000F09D82FE2B18D0D02B40F09B8284E292
:104060000024FFF707FE164BE0520234102CF8D163
:104070000BE0FFF7F3FDFFF7F1FDFFF705FEFFF79C
:1040800003FEFFF7F7FDFFF7F5FD0020FFF7CEFE7B
:1040900083E200BFA00800203A0300203103002083
:1040A0009D3C00087D0300203803002026030020EB
:1040B00025030020390300207C0300203C0300205E
:1040C000D0080020BE4C04F13005FFF7C7FDFCF717
:1040D000D7FDC4F89800FFF7C1FDFCF7D5FDB9493D
:1040E000FCF7DAFEC4F89C00FFF7B8FDFCF7C8FD4A
:1040F000C4F8A0001034AC42E7D1FFF7AFFDFCF7E5
:10410000BFFDAF4CC4F8F800FFF7A8FDFCF7BCFDFD
:10411000AC49FCF7C1FEC4F8FC00FFF79FFDFCF7BB
:10412000AFFDC4F8000100240134FFF797FDFFF74D
:1041300095FDFFF793FD032CF6D1FFF78FFDFCF7FC
:104140009FFD9F4CC4F8C800FFF788FDFCF79CFD5D
:104150009C49FCF7A1FEC4F8CC00FFF77FFDFCF7FB
:104160008FFDD4F8C830C4F8D000C4F8D830D4F8E3
:10417000CC30C4F8E000C4F8DC30FFF76FFDFCF78A
:104180007FFDC4F8E800FFF769FDFCF77DFD8D4970
:10419000FCF782FEC4F8EC00FFF760FDFCF770FD51
:1041A000C4F8F00000240134FFF758FD032CFAD1C5
:1041B000FEF74AF969E7824C04F11C05FFF75AFD46
:1041C000E0820234AC42F9D15FE7FFF747FDFFF729
:1041D00045FDFFF743FDFFF741FDFFF73FFDFFF70B
:1041E0003DFDBFE10720FFF721FED220FFF7DCFDF8
:1041F000734B93F83200FFF7D7FD0020FFF7D4FD93
:104200004FF000403BE00A20FFF710FE6E4BB3F981
:104210000000FFF70FFE00F07DFC00B2FFF70AFE82
:104220006A4BB3F90000FFF705FE694B59799A799B
:10423000890041EA42011A7911435A7841EA421150
:10424000644AD07841EAC001107941EA0011D87976
:1042500041EA8011187A41EAC011587A9B7A41EA02
:10426000402141EA0323917A507B43EA8123D17AAA
:1042700043EAC123117B43EA013343EA4030FFF7AD
:10428000F5FD8AE1544C1220FFF7D0FD5349206818
:10429000FCF74EFDFCF712FF00B2FFF7CBFD4F49D4
:1042A0006068FCF745FDFCF709FF00B2FFF7C2FDAF
:1042B0004A49A068FCF73CFDFCF700FF00B2FFF79D
:1042C000B9FD4749606AFCF733FDFCF7F7FE00B221
:1042D000FFF7B0FD4249A06AFCF72AFDFCF7EEFEAD
:1042E00000B2FFF7A7FD3E49E06AFCF721FDFCF7AD
:1042F000E5FE00B2FFF79EFDA06DFCF7DFFE00B209
:10430000FFF798FDE06DFCF7D9FE00B2FFF792FDD4
:10431000206E4AE01020FFF789FD0024314BE05E5B
:104320000234FFF787FD102CF8D136E11020FFF79B
:104330007DFD00242C4BE05E0234FFF77BFD102C4A
:10434000F8D12AE11020FFF771FD0024274BE05E31
:104350000234FFF76FFD102CF8D11EE11E4C08202F
:10436000FFF764FDA0692249FCF7E2FC1B49FCF75A
:10437000DFFCFCF7A3FE00B2FFF75CFDE0691C491F
:10438000FCF7D6FC1549FCF7D3FCFCF797FE00B20E
:10439000FFF750FD1649206AFCF7CAFCFCF78EFEB9
:1043A00000B2FFF747FD134B1868FCF787FE00B219
:1043B000CAE00420FFF73AFD074B586F5FE700BFE4
:1043C000E408002000007A44CC0700207C0700208D
:1043D000AC080020BC080020B40D002000002041E3
:1043E0000000C84200000020D0070020D0080020B4
:1043F000E02E6542E00800200320FFF717FD6C4B1C
:104400006C49986FFCF794FCFCF77EFEC0B2FFF796
:10441000CBFC98E01E20FFF709FD674C04F148052E
:1044200054F8080CFCF770FEC0B2FFF7BDFC6349FE
:1044300054F8040CFCF77CFCFCF766FEC0B2FFF7F6
:10444000B3FC54F8180BFCF75FFEC0B2FFF7ACFCEE
:10445000AC42E5D15A4CD4F89000FCF755FEC0B2FE
:10446000FFF7A2FC5549D4F89400FCF761FCFCF777
:104470004BFEC0B2FFF798FCD4F89800FCF744FE5E
:10448000C0B2FFF791FC00240020FFF78DFC002054
:10449000FFF78AFC01340020FFF786FC032CF3D1E0
:1044A000474CA06CFCF730FEC0B2FFF77DFC4349DF
:1044B000E06CFCF73DFCFCF727FEC0B2FFF774FC94
:1044C000206DFCF721FEC0B2FFF76EFCA06FFCF779
:1044D0001BFEC0B2FFF768FC3849E06FFCF728FC10
:1044E000FCF712FEC0B2FFF75FFCD4F88000FCF7C7
:1044F0000BFEC0B2FFF758FC0020FFF755FC002070
:10450000FFF752FC0020FFF74FFC46E01C20FFF7AE
:104510008DFC2C4C04F11C05B4F916000234FFF795
:1045200089FCAC42F8D138E06D20FFF77FFC2648CB
:1045300003E02F20FFF77AFC2448FFF741FC2CE032
:104540000220FFF773FC0020FFF774FC25E0082031
:10455000FFF76CFC0124E0B20134FFF725FC092CC5
:10456000F9D11AE0FFF77AFB8FE50020FFF75EFC38
:104570000120FFF77BF8002001F0D0F90DE002F0F8
:104580007BF902F0FDFA80E503F090F87DE5FFF796
:1045900033F87AE50020FFF745FCFFF71DFC0C4BD4
:1045A00000221A7001F06AFB00287FF499AC70BDFC
:1045B000B40D002000002041F007002000007A44E4
:1045C000E8070020E4080020F4C9000888CA0008B1
:1045D0003A03002038B50546B5FBF2F30846144609
:1045E00013B11846FFF7F6FFB5FBF4F304FB1354C1
:1045F000024B1B5D00F8013B38BD00BFB8CA000884
:10460000931E222B88BF0A22031E10B50C4603DA24
:104610002D2001F8010B5842FFF7DCFF0023037047
:10462000204610BD2DE9FF4D514C1F46002A18BFF2
:1046300014460023002206460D46FCF7ABF920B1D4
:104640002D2304F8013B05F10045072F19D800225E
:10465000002330462946FCF7BBF9464BFA0038B137
:10466000D31830462946D3E90023FBF76FFD06E057
:10467000D31830462946D3E90023FBF765FD0646EB
:104680000D4600234FF0010803E00A2202FB08F860
:104690000133BB42F9D330462946FCF7CBF900235E
:1046A00002460CE04FF00A0CB2FBFCF10CFB1122AD
:1046B0000DF1040A30320AF8032001330A46002AB9
:1046C000F0D11BB9303304F8013B0BE00DF1040CC1
:1046D0000CEB030111F801AD04F802A001326145B1
:1046E000F8D1E418002F3ED0FBF76CFE02460B46D3
:1046F00030462946FBF728FD824640468B46FBF7AD
:1047000061FE02460B4650465946FBF7D1FEFCF7C8
:1047100091F92E23224602F8013B2E3B08E00A25A0
:10472000B0FBF5FC05FB1C003030C854013360467B
:1047300001A90028F3D1C91803E0302001F8010CC9
:1047400001330131BB42F8D323B91446303304F8A6
:10475000013B08E001A8C11811F801CD814204F81D
:1047600001CFF9D1D4180020207004B0BDE8F08D3D
:1047700080030020E0CA000810B50B490446FCF78E
:1047800089FC20B120460949FCF7C8F908E0204619
:104790000749FCF76BFC20B120460449FCF7C0F93F
:1047A0000446204610BD00BFDB0F4940DB0FC94067
:1047B000DB0F49C0000000002DE9F84F044600E07F
:1047C00001342378202BFBD0092BF9D02D2B05D1D8
:1047D00001344FF0000ADFF870B106E02B2BDFF850
:1047E00064B108BF01344FF0000A0026002713E02F
:1047F0000022534B30463946FBF75AFE0646284600
:104800000F46FBF7EFFD02460B4630463946FBF7F5
:104810009DFC013406460F462378A3F13005EAB229
:10482000092AE5D92E2B21D101344FF00008DFF8F9
:10483000109116E0FBF7D6FD42464B46FBF762FFB0
:1048400002460B4630463946FBF780FC00220646FE
:104850000F46404649463A4BFBF72AFE0134804654
:10486000894620783038C3B2092BE3D92378652BE9
:1048700001D0452B4CD16278631C2D2A02D1013323
:10488000012503E02B2A08BF01330025002214462E
:1048900002E00A2000FB0414995C01323039C8B2EE
:1048A0000928F6D9B4F59A7F28BF4FF49A740022EC
:1048B000244B09E0104619461DA3D3E90023FBF75A
:1048C000F7FD323C02460B46312CF3D8A04609E0F6
:1048D0001046194618A3D3E90023FBF7E9FD083C6D
:1048E00002460B46072CF3D808F0070408E01046F0
:1048F00019460022124BFBF7DBFD013C02460B463A
:10490000002CF4D135B130463946FBF7FBFE05E00B
:104910000C4B002230463946FBF7CAFD02460B46D7
:1049200050465946FBF7C4FDFCF7A4F8BDE8F88FE4
:104930009A647EC50E1B514A0000000084D797413F
:10494000000024400000F03F0000F0BFAFF3008003
:104950002DE9F74F05680646884628462946FCF7A4
:10496000E7F97468834621462046FCF7E1F9B76809
:10497000814639463846FCF7DBF9F668824631460F
:104980003046FCF7D5F9314601902046FCF7D0F9C6
:104990003946034628460093FCF7CAF9009B0146B6
:1049A0001846FCF7BBF80146FCF7BAF804F020FD06
:1049B0003946C8F804002046FCF7BAF931460346E8
:1049C00028460093FCF7B4F9009B01461846FCF713
:1049D000A7F80146FCF7A4F8494603465846009359
:1049E000FCF79EF85146FCF799F80199FCF796F808
:1049F000009B0146184604F047FD3146C8F8080000
:104A00003846FCF795F9214606462846FCF790F90A
:104A100001463046FCF784F80146FCF781F8494628
:104A200004465846FCF77AF85146FCF777F80199A6
:104A3000FCF776F80146204604F026FDC8F8000091
:104A4000BDE8FE8F014B188880B27047A00300209C
:104A500030B52A4891B003F0C5FA294B00250093E0
:104A6000284B012401934FF4807306934FF4806325
:104A700007932023089321484FF400536946099374
:104A800002950394049505950A9503F01DFB1B48B8
:104A9000214603F039FB4FF460231B480BA90D930B
:104AA0000B958DF830508DF831400E958DF83C40C7
:104AB00003F0F4F9224603231348042103F046FAD5
:104AC0001148214603F01AFA0F48214603F00CFA68
:104AD0000D4803F01DFA0C4803F01FFA0028FAD124
:104AE000094803F01FFA084803F021FA0028FAD118
:104AF0000548012103F020FA11B030BD0800024042
:104B00004C240140A003002000240140BFF35F8F2C
:104B100070470000014B188880B27047A203002044
:104B2000F0B54FF4406389B0ADF8143002238DF82E
:104B3000163012330DEB030105464A488DF8173045
:104B400003F0E8FB47484FF4406103F03BFC0024CE
:104B500002E0032000F0CCFE42484FF4806103F0F5
:104B60002BFC0028F5D04FF480613E4803F02CFC6C
:104B7000032000F0BDFE01343A484FF4806103F099
:104B800021FCE4B2032000F0B3FE082CE4D14FF482
:104B90000061344803F018FC032000F0A9FE4FF434
:104BA0008061304803F010FC032000F0A1FE4FF4B8
:104BB00080612C4803F006FC032000F099FE4FF4BE
:104BC0000061284803F0FEFB032000F091FE4FF443
:104BD0004063254CADF81830022306A98DF81A3031
:104BE00020481A338DF81B3003F094FB25602846CB
:104BF00001AD03F009FD284603F038FC00222068CF
:104C00004FF4407103F074FC4BF6FF73ADF80A30BB
:104C10004FF48043ADF81030144B0026206829462D
:104C20000193ADF8086003F07BFC2068012103F0DC
:104C30002BFC07AC22238DF81C30204601238DF875
:104C40001F308DF81D608DF81E6003F0F5F82123EC
:104C5000204637468DF81C308DF81D6003F0ECF8C7
:104C600009B0F0BD000C0140B8030020801A060016
:104C700010B54000224CC0B220702248224C017076
:104C800022480021017001202070214C2360214C1A
:104C90002360214B1A70214B1870214B1970214B46
:104CA0001868838813F4007F11D1038813F4807F80
:104CB00006D1038813F4007FFBD1012103F0F1FB3F
:104CC000184B4FF440711868012203F011FC47F2B1
:104CD0003053124A127812B1013BFAD100E053B9B5
:104CE000114B1A88013292B21A800E4B1868FFF7E6
:104CF00017FF002010BD0A4B187880F0010010BD8E
:104D0000BE030020A5030020B6030020A40300205A
:104D1000A8030020B0030020A6030020BD0300204C
:104D2000AC030020B8030020A203002030B54000EF
:104D30002A4CC0B220702A482A4C01702A4801210E
:104D4000017000202070294C294D2270294C85B01B
:104D50002170C5F800D02849284D102AC5F800D088
:104D6000087005D937E013F800C00DF800C0013015
:104D7000C1B29142F7D3224B1868838813F4007FA5
:104D800011D1038813F4807F06D1038813F4007FC8
:104D9000FBD1012103F085FB194B4FF440711868DA
:104DA000012203F0A5FB47F23053124A127812B1E8
:104DB000013BFAD100E053B9124B1A88013292B28A
:104DC0001A800F4B1868FFF7ABFE002003E00A4B78
:104DD000187880F0010005B030BD00BFBE03002090
:104DE000A5030020B6030020A4030020A603002092
:104DF000B0030020BD030020AC030020A803002066
:104E0000B8030020A203002007B502AB03F8012D70
:104E10000122FFF78BFF0EBD254B37B51868838A3B
:104E20009BB20193019B13F4706F02D0214B0122BE
:104E30001A70019B13F4E06F2ED0038B00229BB2FB
:104E40004FF48061009303F053FB019B13F4007F48
:104E500022D1174C2068038813F4007F1CD10588E9
:104E600015F480750FD0038813F4807FFBD10121E6
:104E700003F024FB0E4B1868038813F4007FFBD16A
:104E8000FFF74EFE08E0012103F018FB20684FF405
:104E900040712A4603F02CFB054B1A68938A23F4D1
:104EA00070631B041B0C9382034B00221A703EBDDF
:104EB000B8030020AC030020BD030020FFF7ACBF07
:104EC000FFF7AABF2DE9F04F954C85B02068828A84
:104ED000D2B212F001063BD00388012123F4006313
:104EE0001B041B0C038003F0F6FA8E4B00221A7091
:104EF0008D4B1B78E3B18D4B1B781BB98C4B1B780A
:104F0000FF2B15D1894B01221A708A4B1B78022B7B
:104F100006D1834B1B681A8892B242F400621A8051
:104F2000854B012219787E4B186803F0F1FA38E1BD
:104F3000814B002219787A4B186803F0E9FA7C4B10
:104F40001B78FF2B00F02D814FF0FF32754BE5E011
:104F500012F0020347D00190FFF7D8FD754B01987E
:104F60001D78012D19D1704B1B78B3B16F4B1B7895
:104F70009BB1314603F0AFFAFFF7C8FD2068294620
:104F8000038BDBB28DF80F3003F098FA6B4B20687F
:104F90001D704FF480612A4601E1038B0190DBB262
:104FA0008DF80F30FFF7B2FD624B01981B78022B92
:104FB00009D15D4B1B7833B15C4B1B781BB10021D1
:104FC00003F089FAE6E05B4B1B78032B07D1564BC5
:104FD0001B7823B1554B1B78002B40F0DD804FF43C
:104FE00080610122DBE012F0040572D04E4ADFF846
:104FF0004C811278012688F80060002A4FD04B4A75
:105000001278002A4BD04B4A464D12784C4F022A58
:105010002AD9194603F05FFA206895F800A0D7F85E
:10502000009003F072FA4FFA8AFB0BF80900B244C1
:10503000314685F800A0206803F040FA88F8006047
:10504000206895F800803F6803F05FFA4FFA88FA0D
:105050000AF80700B04485F8008020684FF48061AA
:10506000324603F045FA2DE0314603F027FA206876
:10507000D7F800802E7803F048FA4FFA86FA013606
:105080000AF80800F6B22E7020683F6803F03DFA77
:105090004FFA86F8023608F807002E7012E0234C0B
:1050A000237813B9274B1B783BB1012103F006FA93
:1050B0001C4B1A7801321A7004E0012103F0F1F957
:1050C00001232370164B1B681A8812F4807FFBD1D2
:1050D00067E012F0400637D0194B124ED3F800802B
:1050E000377803F012FA4FFA87FA124B01370AF8B1
:1050F0000800FFB237701B787FB20337BB4205D17F
:1051000020684FF480612A4603F0F2F9094B1878C1
:10511000044B1A7851B2884243D101321A7040E0F0
:10512000B8030020B4030020B6030020B50300201C
:10513000A5030020A6030020BE030020BC0300201E
:10514000A8030020A403002012F0800F29D0224DD4
:105150002B785AB2B2F1FF3F11D0204901330968D0
:10516000515C2B7003F0CFF91D4B1A7895F9003084
:105170009A4216D120684FF4806132460FE0194BF5
:105180002E70197803F0BFF9174B1B7813B9144B25
:105190001B7833B9154B18684FF48061002203F077
:1051A000A7F90F4B0C4A1B7892F9002001339A4261
:1051B0000ED10F4B00221A700E4B1B782BB10B4BEC
:1051C0004FF44071186803F093F90B4B00221A70EA
:1051D00005B0BDE8F08F00BFB4030020B00300208D
:1051E000A6030020A5030020B6030020B80300207A
:1051F000B5030020BC030020BD030020FFF762BE02
:10520000FFF760BE134A144813881180C91A03803F
:1052100089B240F68C23994203D9104B00221A70B0
:105220007047A1F53A73073B9BB240F2DA529342C2
:1052300006D80A4B1B78072B9CBF094A22F813108B
:10524000064B1A7801321A70064B4FF000021A8092
:10525000704700BFD0030020F0040020D2030020DC
:10526000C0030020580A0020044B1B78834204D955
:10527000034B53F820305B6819807047D40300203B
:10528000F4040020044B1B78834204D9034B53F8E9
:1052900020305B6819807047D3030020240500206C
:1052A000014B33F810007047C00300207FB501ADFB
:1052B000044628460E4603F0D5FB4FF04703013E57
:1052C000ADF80430204600232946ADF80860ADF85B
:1052D0000A30ADF8063003F041FA7FBD73B50D46D4
:1052E0000446164601A803F05FF8ADF804500EB16D
:1052F000282300E018238DF807302046022301A957
:105300008DF8063003F006F87CBDF0B585B001AE2F
:10531000044630460D46174603F0B7FB4FF0010335
:10532000ADF80830204600233146ADF80450ADF802
:105330000670ADF80A30ADF80C3003F0D3FC05B0C0
:10534000F0BD0000194B142270B502FB003303F1CD
:105350000802D4784FEA001C154D400064B90123BF
:10536000D37005EBC00391805CF80500197B022225
:10537000BDE87040FFF7C9BFB2F804E0D180CEEBC2
:10538000010189B2198292F802E00A4B002423F845
:105390001E1005EBC003D470197B5CF80500224693
:1053A000FFF7B3FF044B1C8070BD00BFD803002083
:1053B00048CB0008C0030020580A00202DE9F04F18
:1053C0002D4D13460201545906464FF0140876003D
:1053D00085B002EB050908FB00F801368B46204634
:1053E0004FF6FF710193FFF761FF55F83610D9F8BA
:1053F0000400012205EBC605FFF770FF2E7900229D
:1054000020463146FFF781FF2046012103F046FB8D
:105410006A79DFF868A08DF80C2000228DF80D2045
:1054200003A801328DF80E208DF80F2002F004FD44
:10543000019B0AEB08074AF808B0BB720C2E16D87D
:10544000DFE806F0071515150A1515150D151515C4
:1054500010002046022107E02046042104E02046F7
:10546000082101E020461021012203F034FB3846D8
:1054700005B0BDE8F08F00BF48CB0008D80300207E
:1054800070B50D460221044603F095FB0128204625
:105490000BD1022103F09AFB6BB214225A43254B25
:1054A0002046D65803F07AFB27E0042103F083FB63
:1054B00001280ED101352046EDB2042103F086FB10
:1054C0006BB214225A431B4B2046D65803F069FB9B
:1054D00013E00821204603F06EFB012811D10235AC
:1054E0002046EDB2082103F071FB6BB214225A433F
:1054F000104B2046D65803F057FB01462846B047CC
:1055000070BD1021204603F056FB012810D1033551
:105510001021EDB2204603F059FB6BB214225A431E
:10552000044B2046D65803F042FB01462846B047BC
:1055300070BD00BFD803002001480A21FFF7A0BFBB
:105540000008004001480421FFF79ABF0004004012
:105550004FF080400021FFF793BF0000022110B5FB
:10556000124803F028FB012810480CD1022103F057
:105570002DFB0F4B0D48D3F8A04003F00FFB014665
:105580000820A04710BD102103F015FB01280CD105
:105590001021064803F01AFB054B0448D3F8B44029
:1055A00003F005FB01460920A04710BD002C014077
:1055B000D80300202DE9F045444B454F142505FB49
:1055C00000350301DC5906464FEA460885B003EB77
:1055D000070A204608F10108FFF768FE57F838105F
:1055E000DAF804000022FFF779FE07EBC8076846E7
:1055F0003F7903F040FA4FF07003ADF800304FF000
:105600000103ADF802304FF00003ADF804304FF461
:105610007A73ADF806304FF00203ADF808304FF45E
:105620008073ADF80C300C2F2BD8DFE807F0072A79
:105630002A2A102A2A2A192A2A2A220020466946BA
:1056400003F0E2F82046082103F050FA19E0204662
:10565000694603F031F92046082103F050FA10E0C2
:105660002046694603F074F92046082103F051FAF8
:1056700007E02046694603F0B5F92046082103F00B
:1056800051FA134B03EB0616B37B1BB120460121E5
:1056900003F011FA2046012103F000FA0C2F10D874
:1056A000DFE807F0070F0F0F090F0F0F0B0F0F0F9A
:1056B0000D00343404E0383402E03C3400E040347F
:1056C0006C60284605B0BDE8F08500BFD803002017
:1056D00048CB0008037942782DE9F041002B14BF34
:1056E00002230023044602B10133304A002552F858
:1056F0002370785DFF2856D010F0300F00F0F003D3
:1057000003D02278002A08BF0023A27800F00F00FF
:105710002AB1A0F10802D2B2012A98BF8023E27810
:1057200022B1021FD2B2032A98BF802313F0100FB8
:1057300007D000221E49FFF741FE1E4B08221A70B7
:105740002EE013F0200F08D01A4E1B493278FFF7D5
:1057500035FE33780133337022E013F0400F0BD065
:10576000E3881649164E91FBF3F189B296F8008052
:10577000FFF720FF134B0DE013F0800F10D02389AB
:105780000E49114E91FBF3F189B296F80080FFF7B4
:1057900011FF0E4B43F8280008F1010886F800803D
:1057A00001350E2DA5D10020BDE8F08128CC0008E0
:1057B00005520008440500204553000840420F00F0
:1057C000D4030020F4040020D3030020240500208B
:1057D000044B1A6801321A60034B1A68034B1A60B3
:1057E000704700BF48050020041000E010070020AB
:1057F00072B6084B084A1868084B1B68126862B6F4
:105800000749C31A09684FF47A70B3FBF1F300FB40
:1058100002307047041000E0480500201007002007
:105820000C07002070B5002304460E46054D5D1997
:10583000EA681033002AF9D1FFF7DAFF28606E60BA
:10584000EC6070BD0C06002070B5002304460E46C7
:10585000054D5D19AA680C33002AF9D1FFF7C8FF7E
:1058600028606E60AC6070BD4C0500202DE9F041F1
:1058700000250C276F43194EBC19A36853B1FFF7DD
:10588000B7FFBA596368821A9A4203D9A368984746
:105890000023A360124C6F00013704EBC708D8F84F
:1058A0000430ABB1FFF7A4FF2E01331932595B6806
:1058B000821A9A420CD9D8F80430984756F80480D6
:1058C000FFF796FF30513359C8EB030344F83730E4
:1058D0000135102DCDD1BDE8F08100BF4C05002071
:1058E0000C060020014B1868704700BF48050020D7
:1058F00038B50546FFF77CFF0446FFF779FF001B2C
:10590000A842FAD338BD10B5044604E04FF47A70CB
:10591000FFF7EEFF013C002CF8D110BD10B1034A97
:10592000034B1A60034A044BDA607047EFBEADDEEA
:10593000F04F00200400FA0500ED00E070B50024EF
:105940006300084D013355F8331007480134FEF762
:1059500078F90F2CF4D1D5F8F8100448BDE8704060
:10596000FEF76FB90C06002048CC00084DCC0008AB
:1059700070B5564B8AB00DF1140C0FCB8CE80F00AC
:105980001D20012102F0B8FE4FF40060012102F059
:10599000B3FE0120014602F0BDFE0220012102F00B
:1059A000B9FE0420012102F0B5FE4FF40070012180
:1059B00002F0A2FE4FF48040012102F09DFE4FF460
:1059C0008000012102F0A6FE0120014609AC02F090
:1059D00085FE0220012102F081FE002502F0B6FEC4
:1059E0004FF0FF333A482146ADF824308DF8275068
:1059F00002F090FC3748214602F08CFC36482146E4
:105A000002F088FC3548012102F0E0FCBDF81830B6
:105A10000326ADF824309DF81A30059821468DF8FC
:105A200027308DF8266002F075FCBDF8203007980D
:105A3000ADF824309DF8223021468DF826608DF88F
:105A4000273002F067FC264B0C2202FB05330024B2
:105A50009C60244B03EB051301350833102D5C606B
:105A6000F1D1684602F0EAFD009A1F4B6FF00F017A
:105A7000B2FBF3F21D4B4FF4A0601A601C4BDA68C6
:105A800042F08072DA601B4B1A6842F001021A6021
:105A9000194B1A684FF47A73B2FBF3F222F07F428B
:105AA000164B013A5A60164A82F8231007229C606E
:105AB0001A60084B01321A611D6102F0B3F92046E9
:105AC000FDF7D4FDFDF78EFD0AB070BD54CC000883
:105AD00000080140000C01400010014000023000AD
