:020000040800F2
:1000000000500020C5130008691400086914000896
:100010006914000869140008691400080000000051
:10002000000000000000000000000000691400084B
:10003000691400080000000069140008395600081F
:10004000691400086914000869140008691400089C
:10005000691400086914000869140008691400088C
:10006000691400086914000869140008691400087C
:100070006914000869140008BD5C000869140008D0
:10008000691400086914000869140008691400085C
:10009000691400086914000869140008691400084C
:1000A00069140008691400086914000881520008E6
:1000B00075520008695200085D520008094F000897
:1000C000C94B0008054F0008C54B0008691400081B
:1000D0006914000869140008B5590008691400087B
:1000E000A9750008691400086914000800000000E0
:1000F0000000000000000000000000000000000000
:0C01000000000000000000005FF808F1A3
:1001100040F2FC13C2F200031A780AB901201870E9
:10012000704700BF40F2FC10C2F2000008B503683F
:100130002BB140F20003C0F2000303B1984708BDA1
:1001400081F0004102E000BF83F0004330B54FEA88
:1001500041044FEA430594EA050F08BF90EA020FF5
:100160001FBF54EA000C55EA020C7FEA645C7FEA88
:10017000655C00F0E2804FEA5454D4EB5555B8BFAB
:100180006D420CDD2C4480EA020281EA030382EA1C
:10019000000083EA010180EA020281EA0303362DAE
:1001A00088BF30BD11F0004F4FEA01314FF4801C81
:1001B0004CEA113102D0404261EB410113F0004F93
:1001C0004FEA03334CEA133302D0524263EB43034A
:1001D00094EA050F00F0A780A4F10104D5F1200EE8
:1001E0000DDB02FA0EFC22FA05F2801841F1000143
:1001F00003FA0EF2801843FA05F359410EE0A5F117
:1002000020050EF1200E012A03FA0EFC28BF4CF047
:10021000020C43FA05F3C01851EBE37101F00045FD
:1002200007D54FF0000EDCF1000C7EEB00006EEB0A
:100230000101B1F5801F1BD3B1F5001F0CD3490894
:100240005FEA30004FEA3C0C04F101044FEA4452EB
:1002500012F5800F80F09A80BCF1004F08BF5FEA72
:10026000500C50F1000041EB045141EA050130BD52
:100270005FEA4C0C404141EB010111F4801FA4F1F5
:100280000104E9D191F0000F04BF01460020B1FA4A
:1002900081F308BF2033A3F10B03B3F120020CDA82
:1002A0000C3208DD02F1140CC2F10C0201FA0CF060
:1002B00021FA02F10CE002F11402D8BFC2F1200CC5
:1002C00001FA02F120FA0CFCDCBF41EA0C0190407B
:1002D000E41AA2BF01EB0451294330BD6FEA0404C4
:1002E0001F3C1CDA0C340EDC04F11404C4F12002AF
:1002F00020FA04F001FA02F340EA030021FA04F3C1
:1003000045EA030130BDC4F10C04C4F1200220FA17
:1003100002F001FA04F340EA0300294630BD21FA55
:1003200004F0294630BD94F0000F83F4801306BF1B
:1003300081F480110134013D4EE77FEA645C18BF0F
:100340007FEA655C29D094EA050F08BF90EA020FA6
:1003500005D054EA000C04BF1946104630BD91EA9E
:10036000030F1EBF0021002030BD5FEA545C05D1A1
:100370004000494128BF41F0004130BD14F58004E0
:100380003CBF01F5801130BD01F0004545F0FE4154
:1003900041F470014FF0000030BD7FEA645C1ABF89
:1003A000194610467FEA655C1CBF0B46024650EAC0
:1003B000013406BF52EA033591EA030F41F40021EC
:1003C00030BD00BF90F0000F04BF0021704730B572
:1003D0004FF4806404F132044FF000054FF0000147
:1003E00050E700BF90F0000F04BF0021704730B508
:1003F0004FF4806404F1320410F0004548BF4042DD
:100400004FF000013EE700BF42004FEAE2014FEA31
:1004100031014FEA02701FBF12F07F4393F07F4F0C
:1004200081F06051704792F0000F14BF93F07F4F3E
:10043000704730B54FF4607401F0004521F0004181
:1004400020E700BF50EA010208BF704730B54FF007
:1004500000050AE050EA010208BF704730B511F00C
:10046000004502D5404261EB41014FF4806404F144
:1004700032045FEA915C3FF4DCAE4FF003025FEAC6
:10048000DC0C18BF03325FEADC0C18BF033202EB4E
:10049000DC02C2F1200300FA03FC20FA02F001FAA8
:1004A00003FE40EA0E0021FA02F11444C1E600BF47
:1004B00070B54FF0FF0C4CF4E06C1CEA11541DBFFA
:1004C0001CEA135594EA0C0F95EA0C0F00F0DEF8C5
:1004D0002C4481EA030621EA4C5123EA4C5350EAAA
:1004E000013518BF52EA033541F4801143F48013FB
:1004F00038D0A0FB02CE4FF00005E1FB02E506F08C
:100500000042E0FB03E54FF00006E1FB03569CF0E0
:10051000000F18BF4EF0010EA4F1FF04B6F5007FE6
:1005200064F5407404D25FEA4E0E6D4146EB060658
:1005300042EAC62141EA55514FEAC52040EA5E50E1
:100540004FEACE2EB4F1FD0C88BFBCF5E06F1ED88B
:10055000BEF1004F08BF5FEA500E50F1000041EBC2
:10056000045170BD06F0004646EA010140EA02006F
:1005700081EA0301B4EB5C04C2BFD4EB0C0541EA91
:10058000045170BD41F480114FF0000E013C00F3A6
:10059000AB8014F1360FDEBF002001F0004170BDCA
:1005A000C4F10004203C35DA0C341BDC04F11404E3
:1005B000C4F1200500FA05F320FA04F001FA05F26F
:1005C00040EA020001F0004221F0004110EBD3703C
:1005D00021FA04F642EB06015EEA430E08BF20EA68
:1005E000D37070BDC4F10C04C4F1200500FA04F30B
:1005F00020FA05F001FA04F240EA020001F000419D
:1006000010EBD37041F100015EEA430E08BF20EA0F
:10061000D37070BDC4F1200500FA05F24EEA020E57
:1006200020FA04F301FA05F243EA020321FA04F086
:1006300001F0004121FA04F220EA020000EBD3703D
:100640005EEA430E08BF20EAD37070BD94F0000F3D
:100650000FD101F00046400041EB010111F4801F71
:1006600008BF013CF7D041EA060195F0000F18BF22
:10067000704703F00046520043EB030313F4801F5E
:1006800008BF013DF7D043EA0603704794EA0C0F18
:100690000CEA135518BF95EA0C0F0CD050EA41062E
:1006A00018BF52EA4306D1D181EA030101F00041AB
:1006B0004FF0000070BD50EA410606BF10461946D3
:1006C00052EA430619D094EA0C0F02D150EA0136DF
:1006D00013D195EA0C0F05D152EA03361CBF104620
:1006E00019460AD181EA030101F0004141F0FE41BF
:1006F00041F470014FF0000070BD41F0FE4141F443
:10070000780170BD70B54FF0FF0C4CF4E06C1CEA42
:1007100011541DBF1CEA135594EA0C0F95EA0C0FF7
:1007200000F0A7F8A4EB050481EA030E52EA0335B2
:100730004FEA013100F088804FEA03334FF08055D3
:1007400045EA131343EA12634FEA022245EA111500
:1007500045EA10654FEA00260EF000419D4208BFB1
:10076000964244F1FD0404F5407402D25B084FEA5E
:100770003202B61A65EB03055B084FEA32024FF40A
:1007800080104FF4002CB6EB020E75EB030E22BF67
:10079000B61A754640EA0C005B084FEA3202B6EB27
:1007A000020E75EB030E22BFB61A754640EA5C00D6
:1007B0005B084FEA3202B6EB020E75EB030E22BF66
:1007C000B61A754640EA9C005B084FEA3202B6EB67
:1007D000020E75EB030E22BFB61A754640EADC0026
:1007E00055EA060E18D04FEA051545EA16754FEA88
:1007F00006164FEAC30343EA52734FEAC2025FEAA6
:100800001C1CC0D111F4801F0BD141EA00014FF034
:1008100000004FF0004CB6E711F4801F04BF014305
:100820000020B4F1FD0C88BFBCF5E06F3FF6AFAE21
:10083000B5EB030C04BFB6EB020C5FEA500C50F1B1
:10084000000041EB045170BD0EF0004E4EEA113134
:1008500014EB5C04C2BFD4EB0C0541EA045170BD3B
:1008600041F480114FF0000E013C90E645EA060E7F
:100870008DE60CEA135594EA0C0F08BF95EA0C0FAD
:100880003FF43BAF94EA0C0F0AD150EA01347FF4F5
:1008900034AF95EA0C0F7FF425AF104619462CE7CC
:1008A00095EA0C0F06D152EA03353FF4FDAE10462F
:1008B000194622E750EA410618BF52EA43067FF480
:1008C000C5AE50EA41047FF40DAF52EA43057FF410
:1008D000EBAE12E74FF0FF3C06E000BF4FF0010C1B
:1008E00002E000BF4FF0010C4DF804CD4FEA410C7F
:1008F0007FEA6C5C4FEA430C18BF7FEA6C5C1BD04C
:1009000001B050EA410C0CBF52EA430C91EA030FCC
:1009100002BF90EA020F0020704710F1000F91EA29
:10092000030F58BF994208BF90422CBFD8176FEAF7
:10093000E37040F0010070474FEA410C7FEA6C5CC5
:1009400002D150EA013C07D14FEA430C7FEA6C5CCC
:10095000D6D152EA033CD3D05DF8040B704700BFF8
:100960008446104662468C461946634600E000BF46
:1009700001B5FFF7B7FF002848BF10F1000F01BD18
:100980004DF808EDFFF7F4FF0CBF012000205DF8E3
:1009900008FB00BF4DF808EDFFF7EAFF34BF012068
:1009A00000205DF808FB00BF4DF808EDFFF7E0FF01
:1009B00094BF012000205DF808FB00BF4DF808ED52
:1009C000FFF7CEFF94BF012000205DF808FB00BFB9
:1009D0004DF808EDFFF7C4FF34BF012000205DF89B
:1009E00008FB00BF4FEA410212F5001215D211D5E3
:1009F0006FF47873B3EB625212D94FEAC12343F01C
:100A0000004343EA505311F0004F23FA02F018BF9D
:100A1000404270474FF00000704750EA013005D166
:100A200011F0004008BF6FF0004070474FF0000029
:100A3000704700BF4A0011D212F5001211D20DD535
:100A40006FF47873B3EB62520ED44FEAC12343F0D4
:100A5000004343EA505323FA02F070474FF000007E
:100A6000704750EA013002D14FF0FF3070474FF02D
:100A7000000070474FEA4102B2F1E04324BFB3F5F2
:100A8000001CDCF1FE5C0DD901F0004C4FEAC00205
:100A90004CEA5070B2F1004F40EB830008BF20F0E9
:100AA0000100704711F0804F21D113F13872BCBFA3
:100AB00001F00040704741F480114FEA5252C2F1F8
:100AC0001802C2F1200C10FA0CF320FA02F018BF41
:100AD00040F001004FEAC1234FEAD32303FA0CFC94
:100AE00040EA0C0023FA02F34FEA4303CCE77FEA23
:100AF000625307D150EA01331EBF4FF0FE4040F46D
:100B00004000704701F0004040F0FE4040F400001B
:100B1000704700BF80F0004002E000BF81F000415C
:100B200042001FBF5FEA410392EA030F7FEA226C93
:100B30007FEA236C6AD04FEA1262D2EB1363C1BF23
:100B4000D218414048404140B8BF5B42192B88BF92
:100B5000704710F0004F40F4000020F07F4018BFB5
:100B6000404211F0004F41F4000121F07F4118BFD5
:100B7000494292EA030F3FD0A2F1010241FA03FC7D
:100B800010EB0C00C3F1200301FA03F100F0004365
:100B900002D5494260EB4000B0F5000F13D3B0F12D
:100BA000807F06D340084FEA310102F10102FE2A9C
:100BB00051D2B1F1004F40EBC25008BF20F001000C
:100BC00040EA03007047490040EB000010F4000FBA
:100BD000A2F10102EDD1B0FA80FCACF1080CB2EB4D
:100BE0000C0200FA0CF0AABF00EBC25052421843AC
:100BF000BCBFD0401843704792F0000F81F4000151
:100C000006BF80F400000132013BB5E74FEA410323
:100C10007FEA226C18BF7FEA236C21D092EA030F8F
:100C200004D092F0000F08BF0846704790EA010F09
:100C30001CBF0020704712F07F4F04D1400028BF36
:100C400040F00040704712F100723CBF00F5000018
:100C5000704700F0004343F0FE4040F4000070474E
:100C60007FEA226216BF08467FEA236301464202FA
:100C700006BF5FEA412390EA010F40F4800070470D
:100C80004FF0000304E000BF10F0004348BF4042B3
:100C90005FEA000C08BF704743F0964301464FF0EF
:100CA00000001CE050EA010208BF70474FF000034B
:100CB0000AE000BF50EA010208BF704711F000438C
:100CC00002D5404261EB41015FEA010C02BF84465C
:100CD0000146002043F0B64308BFA3F18053A3F5BB
:100CE0000003BCFA8CF2083AA3EBC25310DB01FA02
:100CF00002FC634400FA02FCC2F12002BCF1004F86
:100D000020FA02F243EB020008BF20F00100704716
:100D100002F1200201FA02FCC2F1200250EA4C006A
:100D200021FA02F243EB020008BF20EADC707047B0
:100D30004FF0FF0C1CEAD0521EBF1CEAD15392EABE
:100D40000C0F93EA0C0F6FD01A4480EA010C40029A
:100D500018BF5FEA41211ED04FF0006343EA5010F4
:100D600043EA5111A0FB01310CF00040B1F5000F36
:100D70003EBF490041EAD3715B0040EA010062F1E5
:100D80007F02FD2A1DD8B3F1004F40EBC25008BFCF
:100D900020F00100704790F0000F0CF0004C08BFED
:100DA00049024CEA502040EA51207F3AC2BFD2F1BA
:100DB000FF0340EAC250704740F400004FF00003C8
:100DC000013A5DDC12F1190FDCBF00F00040704702
:100DD000C2F10002410021FA02F1C2F1200200FA40
:100DE00002FC5FEA310040F1000053EA4C0308BF07
:100DF00020EADC70704792F0000F00F0004C02BF58
:100E0000400010F4000F013AF9D040EA0C0093F0D2
:100E1000000F01F0004C02BF490011F4000F013B2C
:100E2000F9D041EA0C018FE70CEAD15392EA0C0F9A
:100E300018BF93EA0C0F0AD030F0004C18BF31F005
:100E4000004CD8D180EA010000F00040704790F0DB
:100E5000000F17BF90F0004F084691F0000F91F07F
:100E6000004F14D092EA0C0F01D142020FD193EA45
:100E70000C0F03D14B0218BF084608D180EA0100CD
:100E800000F0004040F0FE4040F40000704740F0A9
:100E9000FE4040F4400070474FF0FF0C1CEAD05277
:100EA0001EBF1CEAD15392EA0C0F93EA0C0F69D0D3
:100EB000A2EB030280EA010C49024FEA402037D03E
:100EC0004FF0805343EA111143EA10130CF0004035
:100ED0008B4238BF5B0042F17D024FF4000C8B4225
:100EE00024BF5B1A40EA0C00B3EB510F24BFA3EB05
:100EF000510340EA5C00B3EB910F24BFA3EB9103D5
:100F000040EA9C00B3EBD10F24BFA3EBD10340EA2E
:100F1000DC001B0118BF5FEA1C1CE0D1FD2A3FF674
:100F200050AF8B4240EBC25008BF20F00100704729
:100F30000CF0004C4CEA50207F32C2BFD2F1FF03CC
:100F400040EAC250704740F400004FF00003013AFD
:100F500037E792F0000F00F0004C02BF400010F4A1
:100F6000000F013AF9D040EA0C0093F0000F01F0B5
:100F7000004C02BF490011F4000F013BF9D041EAD7
:100F80000C0195E70CEAD15392EA0C0F08D142020A
:100F90007FF47DAF93EA0C0F7FF470AF084676E7DD
:100FA00093EA0C0F04D14B023FF44CAF08466EE7B6
:100FB00030F0004C18BF31F0004CCAD130F0004284
:100FC0007FF45CAF31F000437FF43CAF5FE700BFDC
:100FD0004FF0FF3C06E000BF4FF0010C02E000BF05
:100FE0004FF0010C4DF804CD4FEA40024FEA4103A7
:100FF0007FEA226C18BF7FEA236C11D001B052EA5D
:10100000530C18BF90EA010F58BFB2EB030088BF22
:10101000C81738BF6FEAE17018BF40F00100704791
:101020007FEA226C02D15FEA402C05D17FEA236C73
:10103000E4D15FEA412CE1D05DF8040B704700BFBA
:10104000844608466146FFE70FB5FFF7C9FF002851
:1010500048BF10F1000F0FBD4DF808EDFFF7F4FF8A
:101060000CBF012000205DF808FB00BF4DF808ED23
:10107000FFF7EAFF34BF012000205DF808FB00BF46
:101080004DF808EDFFF7E0FF94BF012000205DF868
:1010900008FB00BF4DF808EDFFF7D2FF94BF012019
:1010A00000205DF808FB00BF4DF808EDFFF7C8FF12
:1010B00034BF012000205DF808FB00BF4FEA40026A
:1010C000B2F1FE4F0FD34FF09E03B3EB12620DD976
:1010D0004FEA002343F0004310F0004F23FA02F0E0
:1010E00018BF404270474FF00000704712F1610F87
:1010F00001D1420205D110F0004008BF6FF000405E
:1011000070474FF00000704742000ED2B2F1FE4F20
:101110000BD34FF09E03B3EB126209D44FEA0023C6
:1011200043F0004323FA02F070474FF0000070478D
:1011300012F1610F01D1420202D14FF0FF3070472E
:101140004FF00000704700BF4A1E08BF7047C0F054
:101150002481884240F21681114200F01781B0FAD2
:1011600080F3B1FA81F2A2EB0303C3F11F0304A2DF
:1011700002EB03134FF000029F4600BFAFF3008065
:10118000B0EBC17F00BF42EB020228BFA0EBC170F1
:10119000B0EB817F00BF42EB020228BFA0EB817061
:1011A000B0EB417F00BF42EB020228BFA0EB4170D1
:1011B000B0EB017F00BF42EB020228BFA0EB017041
:1011C000B0EBC16F00BF42EB020228BFA0EBC160D1
:1011D000B0EB816F00BF42EB020228BFA0EB816041
:1011E000B0EB416F00BF42EB020228BFA0EB4160B1
:1011F000B0EB016F00BF42EB020228BFA0EB016021
:10120000B0EBC15F00BF42EB020228BFA0EBC150B0
:10121000B0EB815F00BF42EB020228BFA0EB815020
:10122000B0EB415F00BF42EB020228BFA0EB415090
:10123000B0EB015F00BF42EB020228BFA0EB015000
:10124000B0EBC14F00BF42EB020228BFA0EBC14090
:10125000B0EB814F00BF42EB020228BFA0EB814000
:10126000B0EB414F00BF42EB020228BFA0EB414070
:10127000B0EB014F00BF42EB020228BFA0EB0140E0
:10128000B0EBC13F00BF42EB020228BFA0EBC13070
:10129000B0EB813F00BF42EB020228BFA0EB8130E0
:1012A000B0EB413F00BF42EB020228BFA0EB413050
:1012B000B0EB013F00BF42EB020228BFA0EB0130C0
:1012C000B0EBC12F00BF42EB020228BFA0EBC12050
:1012D000B0EB812F00BF42EB020228BFA0EB8120C0
:1012E000B0EB412F00BF42EB020228BFA0EB412030
:1012F000B0EB012F00BF42EB020228BFA0EB0120A0
:10130000B0EBC11F00BF42EB020228BFA0EBC1102F
:10131000B0EB811F00BF42EB020228BFA0EB81109F
:10132000B0EB411F00BF42EB020228BFA0EB41100F
:10133000B0EB011F00BF42EB020228BFA0EB01107F
:10134000B0EBC10F00BF42EB020228BFA0EBC1000F
:10135000B0EB810F00BF42EB020228BFA0EB81007F
:10136000B0EB410F00BF42EB020228BFA0EB4100EF
:10137000B0EB010F00BF42EB020228BFA0EB01005F
:10138000104670470CBF012000207047B1FA81F26F
:10139000C2F11F0220FA02F0704708B14FF0FF308F
:1013A00000F00EB80029F8D02DE90340FFF7CCFE7D
:1013B000BDE8064002FB00F3A1EB0301704700BF4C
:1013C000704700BF1A481B49026800608A4219D062
:1013D000002103E0184B5B58435004311748184B69
:1013E00042189A42F6D3174A02E0002342F8043B1F
:1013F000154B9A42F9D306F011FD0AF015FC00F0E6
:1014000073F8FEE7114E124830601248016821F06F
:1014100070610160410201600F4C182020600F498B
:101420000F4808600F48D0F800D04068004700001F
:10143000F04F0020EFBEADDECCDE00080000002043
:10144000FC010020FC010020580F00201810024071
:101450000900000004000140140C0140000C014090
:101460004434434400F0FF1FFEE700000F4B93F8A5
:1014700020312BB90E4BDA6882F01002DA6009E0F5
:101480000C4B1B791BB10A4B10225A6102E0084B2E
:1014900010221A61074B5B781BB1054B08225A6179
:1014A0007047034B08221A61704700BFD40900201F
:1014B000000C0140A409002010B504F0C5F8084B49
:1014C000084A19681860411A116000F00DFD00F01B
:1014D00041F900F0E9FBBDE8104000F01BBC00BF83
:1014E000000200208C0800201FB504F087F903F0EB
:1014F00033F9494803F098F94FF4E13004F044FB24
:1015000005F024FD00F0D4F8444B93F836300E2B50
:1015100001D0082B02D101238DF80830012001F001
:101520000FFF8DF80500402001F00AFF3C4B80F0D2
:1015300001001B788DF80400003B18BF01238DF8D3
:101540000630364B01A893F87A20D20802F0010247
:101550008DF80720DA8A1B8BADF80A20ADF80C3025
:1015600003F04AFF402001F0EBFE2E4B20B12E4A43
:101570001A6004F011F801E02C4A1A60274C00F0C0
:1015800009FCB4F87C0104F0E8F894F830310BB1B0
:1015900005F0DEFA26484FF4FA7104F06DF8254B99
:1015A0001B8813F0010F04D023484FF4FA7104F0A4
:1015B00063F8204B1B8813F0040F04D01F4844F637
:1015C000206104F059F81E4840F6B83104F054F890
:1015D0001C484FF47A6104F04FF81B4844F6206130
:1015E00004F04AF8194849F6404104F045F8184813
:1015F00044F6206104F040F81648174904F03CF81E
:10160000022001F09DFE20B1144849F6404104F04B
:1016100033F804F055F8FCE700580040D4090020E6
:1016200005020020C409002001550008A94F000848
:10163000457000082E08002095700008E57000082D
:101640004D5D0008B9140008192E0008F15C00086F
:101650005D3C00086D140008A0860100357100088B
:1016600070B5104B013003F1C0020021C3F88011A6
:1016700010339342F9D10C4B03EBC002556885B18E
:1016800013F830604FF0000C360108E0074C05EB12
:101690000C0364440FCB84E80F000CF1100CB4452C
:1016A000F4D170BDD40900209CBF0008540B002069
:1016B00070B5234B234C93F83620234B082003EBC3
:1016C000C2035B78237001F03BFE08B10123237055
:1016D0001B4E1E4996F83630122B18D10C78002577
:1016E000D6F880010021FFF7B7FC68B9184B013428
:1016F00003EB050C103506F5C0731036C02D0FCB6B
:10170000E4B28CE80F00EBD1104B1C7070BD0E4A98
:1017100012F8336002EBC3035D680E7075B13601D9
:101720004FF0000C08E00A4C05EB0C0364440FCBAF
:1017300084E80F000CF1100CB445F4D170BD00BF6B
:10174000D4090020050200209CBF000804020020EC
:10175000080200202DE9F74F9A4B93F800B0BBF137
:10176000030F3DD9984B00219D68984B4FF0000620
:101770009C682046FFF798FC08B14FF00106F6B2CE
:1017800016B19348214601E092492046FFF7C6F979
:1017900001462846FFF76AFC28B10EB18C4818E0D4
:1017A00020468C4916E026B120468A49FFF7B8F951
:1017B00003E088482146FFF7B1F901462846FFF7C4
:1017C00073FC50B126B120468249FFF7A9F903E026
:1017D00080482146FFF7A2F905467B4B9D6002E059
:1017E000BBF1010F44D9794B7B4CD3F80C90764B6D
:1017F0007A4AD3F804A0D3F800809E6804F110035D
:1018000092F87270764D03EB0B132DE054F8101C18
:1018100048460193FFF78CFA54F8081C834650465B
:10182000FFF786FA01465846FFF77AF954F80C1C80
:1018300083464046FFF77CFA01465846FFF770F9A9
:10184000834678B2FFF720FA3146FFF771FA54F871
:10185000041CFFF76DFA01465846FFF761F9FFF7E0
:101860002DFC019B25F8020C103402359C42CDD191
:101870005A4C94F83630013B072B00F21D81DFE80B
:1018800013F042001B011B01080072001B011B0129
:10189000F90094F972004C4CFFF7F6F9A168FFF7D4
:1018A00047FA5049FFF73CF9646806462146FFF7BE
:1018B00037F94D490546FFF7D9FB10B14FF47F705A
:1018C0000BE028464949FFF7EFFB10B14FF4FA60EF
:1018D00003E02846FFF7F2FB80B2454B2146188112
:1018E0003046FFF71BF940490446FFF7BFFB10B134
:1018F0004FF47F7034E020463C49FFF7D5FB48B3F6
:101900004FF4FA602CE0B4F87600FFF7BDF9054615
:1019100094F97200FFF7B8F92B4B9968FFF708FAB2
:1019200001462846FFF7FCF80546B4F87400FFF7B7
:10193000ABF9044621462846FFF798FB50B9274BE0
:10194000B3F87800FFF7A0F9044621462846FFF7D0
:10195000ABFB08B1204600E02846FFF7AFFB80B2A2
:10196000234B5881A8E0B4F88A00FFF78DF9214B8A
:1019700005465969D4F89000FFF7DAF94FF086412F
:10198000FFF7D6F901462846FFF7CAF80F4B59680A
:10199000FFF7C6F80546B4F88800FFF775F9044666
:1019A00021462846FFF762FB50B90C4BB3F88C0078
:1019B000FFF76AF9044621462846FFF775FBD8B1C0
:1019C00020461AE004020020880900208000002040
:1019D0000000C8C20000C84208020020D40900204C
:1019E000900800200080BB4400007F440000FA44BF
:1019F00000000020DC0E00202846FFF75FFB924C21
:101A0000924B80B21880B4F87E00FFF73DF9904BFE
:101A100005461969D4F88400FFF78AF94FF086412A
:101A2000FFF786F901462846FFF77AF8894B1968CF
:101A3000FFF776F80546B4F87C00FFF725F906466F
:101A400031462846FFF712FB08B130460CE0B4F8E7
:101A50008000FFF719F9044621462846FFF724FBCA
:101A600008B1204600E02846FFF728FB774B80B2FC
:101A7000588021E0774B754CD868FFF71FFB764BF9
:101A80001880764B9B7A23B14FF00003238063804C
:101A900012E0734D00216868FFF74AF900210646FD
:101AA0002868FFF745F901463046FFF739F8FFF798
:101AB00005FB80B220806080082001F041FC0028F6
:101AC0006CD0614A92F87A3013F0030004D0654973
:101AD000528F8889801A80B213F0040F01D000273A
:101AE00005E0604BDF89584B5B8FFF1ABFB2564D44
:101AF000564CB5F88A30C018B5F87E3080B2FF1861
:101B0000594BBFB2DB782080678043B300B2FFF748
:101B1000BBF84F4E80467169D5F89000FFF708F981
:101B20004FF08641FFF704F901464046FEF7F8FF03
:101B3000FFF7C4FA208038B2FFF7A6F831690746EC
:101B4000D5F88400FFF7F4F84FF08641FFF7F0F87E
:101B500001463846FEF7E4FFFFF7B0FA60803B4BE2
:101B60003949B3F90020B1F888309A4205DBB1F861
:101B70008C309342A8BF13469BB2344A324913803B
:101B8000B2F90220B1F87C309A4205DBB1F880301E
:101B90009342A8BF13469BB22C4A53802A4B93F81A
:101BA0007A3013F0080F12D0082001F0C9FB2D4C39
:101BB000002814BF0225002504F1080628462189C3
:101BC0000234013503F0E2F9B442EDB2F6D1224B12
:101BD0001D88264B1A78012308E01F492DB231F9E0
:101BE000131001338D42B8BF0D46ADB29342F4D30A
:101BF0000024264649E0144B2AB2B3F844309A42F6
:101C000004DD154AA15A5918491BA152124A0E491E
:101C1000A25EB1F842108A4201DA0B4603E09A4212
:101C2000B8BF13469BB20C4A074FA3520D4B04EBAF
:101C30000208B3F90620FB8F9A421DDA042001F056
:101C40007FFBA8B13F8F15E0D409002000000020E1
:101C5000DC0E00208000002090080020A409002055
:101C60008809002090000020B40900200402002010
:101C7000B7F84270A8F80070074B5B781BB9074AA9
:101C8000074B128FE25201360234064B1B789E42FC
:101C9000B1D3BDE8FE8F00BFA4090020D409002005
:101CA000900800200402002010B5174B1B78002B71
:101CB00029D0164B93F83630013B0D2B14D8DFE8B2
:101CC00003F00F1313071713132213131313132205
:101CD0000F4C0020218903F059F9012061890EE0A1
:101CE0000B4B002059890AE0082001F029FB50B174
:101CF000074C0020218803F049F961880120BDE8E4
:101D0000104003F043B910BD05020020D4090020A3
:101D10000000002010B5002407E0064B204633F8F1
:101D2000141003F025F90134E4B2034B1B78A342ED
:101D3000F3D810BD9008002004020020064A074B8B
:101D400011789A1C02EB410201E023F8020C0233E5
:101D50009342FAD1FFF7DEBF040200209008002072
:101D600038B50546002410E0094B0134B3F94200B0
:101D7000FFF7E4FFFA2003F0F0FC4FF47A70FFF76E
:101D8000DDFFFA2003F0E9FCE4B2AC42ECD338BD4D
:101D9000D40900200A4B0B4A03F17001D3F8A000CC
:101DA0001060D3F8A4005060D3F8A8009060D3F876
:101DB000AC001033D06020328B42EFD1704700BFAF
:101DC000D4090020A8080020054B03F1E0010022FF
:101DD0001A615A619A61DA6120338B42F7D17047F8
:101DE000A8080020034A0023036143619361D36183
:101DF000704700BFA80800202DE9F04704460D46B3
:101E0000D0F81490616810461746FEF791FF3349E9
:101E1000FEF78EFF01462846FEF78AFF2169FEF78E
:101E20007FFED4F80CA0804620612D495046FEF775
:101E30007FFF064631464046FFF718F950B927495B
:101E40005046FEF775FF064631464046FFF72CF92F
:101E500000B94646266138462249FEF761FE014632
:101E60003846FFF719F8D4F81480824649462846C8
:101E7000FEF754FE3946FFF70FF84146FEF74EFED7
:101E800001465046FEF754FF01464046FEF748FE25
:101E9000A769656139468246FEF742FEE169FEF7B1
:101EA0003FFE21688046E761C4F818A02846FEF787
:101EB0003FFF0A4905463046FEF7EEFF0146284639
:101EC000FEF72EFEA16805464046FEF731FF0146AB
:101ED0002846FEF725FEBDE8F08700BF00007A44E3
:101EE00000007AC43661023C2DE9F84503F0ACFBF2
:101EF000894E8A4B054618603068281AFEF7C0FEE6
:101F00008749FEF715FF874B04461A793560002A8A
:101F10003DD0854DDFF820826868FEF775FA7AA318
:101F2000D3E90023FEF7C4FAFEF7A4FD07462868AC
:101F3000FEF76AFA74A3D3E90023FEF7B9FA7B4DE2
:101F4000FEF798FDD8F81010FEF7E8FDD5F810114F
:101F5000FEF7E4FD02F096FA224601467448FFF7C8
:101F60004BFF02F08FFAD8F8141006463846FEF7F9
:101F7000D5FDD5F81411FEF7D1FD02F083FA224603
:101F800001466C48FFF738FF02F07CFA45E05B7AC7
:101F9000654D002B2CD0684B9869684B1968FEF78B
:101FA000BDFD064607F050F88246304607F086F839
:101FB000D5F80080074651464046FEF7B9FE6D68E9
:101FC000064639462846FEF7B3FE01463046FEF780
:101FD000A5FD514606462846FEF7AAFE39460546A7
:101FE0004046FEF7A5FE01462846FEF799FD14E09F
:101FF0002868FEF709FA46A3D3E90023FEF758FA4A
:10200000FEF738FD06466868FEF7FEF940A3D3E9FF
:102010000023FEF74DFAFEF72DFD424B05465B7996
:10202000CBB1474B9B78B3B1464B9B7813B946482D
:10203000FFF7D8FE454B18683F4B9969FEF76EFDD8
:1020400002F020FA224601463F48FFF7D5FE02F093
:1020500019FA80460FE0344B9868FEF7D5F92CA3A7
:10206000D3E90023FEF724FAFEF704FD324B804645
:102070009A69364B1A602B4B9B7903B32E4BD86D64
:10208000FEF702FE324B01461868FEF747FD314964
:10209000FEF702FF224601462F48FFF7ADFE2F490B
:1020A0000746FEF7E3FF08B12C4F05E038462C4900
:1020B000FEF7FAFF00B12A4F2A4BDF6002E0294BFE
:1020C0000022DA601C4F3046F969FEF727FD2246F0
:1020D00001462548FFF790FE224E396A30602846B7
:1020E000FEF71CFD224601462048FFF785FE796A6F
:1020F00070604046FEF712FD224601461C48FFF77D
:102100007BFEB060BDE8F885FCA9F1D24D62603F6E
:102110007B14AE47E17A743FCC020020C802002055
:10212000BD378635A409002080000020D409002096
:102130000809002028090020DC0E0020CC0900201E
:102140007C000020A0000020480900209C090020FD
:10215000C80900200000204168090020000048C391
:102160000000484388090020A8080020C808002073
:10217000E8080020AFF30080014B01221A7070477D
:1021800000030020014803F0E5BC00BFB0C3000815
:10219000014803F0DFBC00BFE7C3000810B50948E1
:1021A00003F0D8FC0024084A0848131911595A684A
:1021B00001F095FC03F0DEFB0028FBD00C343C2C36
:1021C000F1D110BDECC3000834CF00080FC40008E3
:1021D00010B5094803F0BEFC0024084A084813194A
:1021E00011595A6801F07BFC03F0C4FB0028FBD0B6
:1021F0000C349C2CF1D110BD17C4000814C3000886
:102200000FC4000810B503F097FA4FF47A71B0FBD1
:10221000F1F1134C134801F062FC134803F09AFCEF
:10222000206EFEF7F1F802460B46104801F057FC0D
:1022300094F868100E4801F052FC0E4803F08AFC36
:102240000D4B0E48196801F04AFC02F0E7FA01460E
:102250000B4801F044FC0B48BDE8104003F07ABC89
:10226000DC0E00202DC400083FC4000853C4000841
:1022700058C400085DC400088C0800206AC4000827
:1022800079C40008F8C400082DE9F041074609F0B8
:1022900013FDC6B246B91D4B1D4893F836201D4BA1
:1022A000013A53F822102BE038461B49324609F018
:1022B0000BFD044670B9194803F04CFC154B53F85C
:1022C000241029B11648013401F009FCE4B2F5E705
:1022D000144805E000250F4B53F8254024B9124857
:1022E000BDE8F04103F036BC38462146324609F0DD
:1022F000EBFC013540B9054B0C4883F836502146BC
:10230000BDE8F04101F0EBBBEDB2E4E7D4090020F9
:102310008AC4000810000020B9C900089EC4000843
:10232000B1C40008F8C40008B5C40008CDC4000852
:102330002DE9F04585B0804609F0BEFC074628B17E
:10234000012879D198F800302A2B75D14B4C4C4894
:1023500003F000FCD4F82401FEF756F80646D4F842
:1023600028010F46FEF750F8CDE90001D4F82C0102
:10237000FEF74AF832463B46CDE90201414801F0FA
:10238000AEFBD4F83401FEF73FF80646D4F8380126
:102390000F46FEF739F8CDE90001D4F83C01FEF70D
:1023A00033F832463B46CDE90201374801F097FB4E
:1023B000D4F84001FEF728F80646D4F844010F4649
:1023C000FEF722F8CDE90001D4F84801FEF71CF829
:1023D0002E4D32463B46CDE902012D4801F07FFBF0
:1023E000E86AFEF711F80646286B0F46FEF70CF870
:1023F000CDE90001686BFEF707F832463B46CDE9B0
:102400000201244801F06BFBD4F85001FDF7FCFFFA
:102410000646D4F854010F46FDF7F6FFCDE900015A
:10242000D4F85801FDF7F0FF3246CDE902013B46F2
:10243000194801F054FB1DE000252C46174E40467C
:1024400071593A465FFA84FA09F03EFC40B90C2310
:1024500003FB0464A3689847BAF1040F0AD903E0A8
:1024600001340C35052CE9D10D4805B0BDE8F04527
:1024700003F070BB05B0BDE8F08500BFD4090020B3
:10248000DFC40008FBC4000815C50008DC0E0020EE
:1024900031C5000857C5000873C5000834CF0008CF
:1024A0008BC5000870B50D680446284609F004FC89
:1024B000024620682946BDE8704009F005BC0000CE
:1024C0007FB5037904460D466E46052B2BD8DFE811
:1024D00003F0030810151B208368184968461A7812
:1024E00004E08368164993F90020684601F0E8FA91
:1024F00019E08368114968461A88F7E7836810492C
:102500006846B3F90020F1E783680C4968461A6809
:10251000ECE783681868FDF777FF02460B466846CC
:10252000084901F0CDFA684603F014FB25B10648CE
:10253000E168226901F0D3FA7FBD00BF5AC40008E8
:10254000B0C50008A9C50008ACC500082DE9F041D8
:10255000064609F0B1FB074620B101281DD13378AA
:102560002A2B1AD1414803F0F5FA414C04F5CE6507
:102570000C3521683F4801F0B2FA20463946FFF792
:102580009FFF3D4803F0E6FA03F0F4F90028FBD082
:102590001434AC42EDD1BDE8F08130463D2109F064
:1025A0007FFB074600285ED0314C04F5CE650C3524
:1025B000D4F80080404609F07FFB41460246304691
:1025C00009F082FB8046002845D12379781C052B31
:1025D00004D101F075FF0546404602E009F0F7FA24
:1025E00000252379052B06D0E268904213DB22698F
:1025F000904212DD0FE0E068FEF746FB01462846F8
:10260000FEF734FD38B92069FEF73EFB0146284647
:10261000FEF74AFD88B1194821E0052B0FD8DFE805
:1026200003F003030606090CA368187007E0A3680B
:10263000188004E0A368186001E0A3681D602068AA
:1026400003F088FA0E4803F085FA20460021BDE821
:10265000F041FFF735BF1434AC42A9D10948BDE8B9
:10266000F04103F077BABDE8F08100BFB3C50008C0
:1026700070CF0008C8C50008F8C40008CEC500081F
:10268000F3C50008FCC5000810B5084803F062FA5D
:1026900000F086FE064803F05DFA0A2003F05DF8BC
:1026A0000020BDE8104003F063B800BF19C6000861
:1026B00023C60008F0B585B0044609F0FDFA0828E5
:1026C00026D100231F49E25C09685118497811F0AE
:1026D000020F18BF203AE2540133082BF2D1651CD7
:1026E00004F1090715F8016C1748314609F0D8FACA
:1026F00020B12846314609F0D3FA18B1134803F047
:1027000029FA1CE00135BD42ECD1204600F06CFEF8
:102710000F4803F01FFA00230E4A04A9D218927B37
:102720008A180949595C0133082B02F80C1CF3D1B3
:10273000083B094801A98DF80C3001F0D0F905B02B
:10274000F0BD00BF04010020ECD5000832C600082F
:1027500052C60008D409002012C400082DE9F04137
:10276000064609F0A9FA054600F00AFE04467DB9BE
:10277000294803F0EFF9294B53F82510D1B1012373
:10278000AB40234202D0264801F0A9F90135F2E717
:10279000304624492A4609F097FA044660B922488F
:1027A00003F0D8F91D4B1959043419B11C4801F034
:1027B00096F9F7E71D480DE033782D2B01D000275F
:1027C00002E00136013D01270024144B53F8241088
:1027D00021B91748BDE8F04103F0BCB930462A469C
:1027E00009F072FAA8B92FB10130A04000F0BAFD8B
:1027F000104804E00120A04000F0ACFD0E4803F0BA
:10280000A9F9064B0D4853F82410BDE8F04101F03A
:1028100066B90134D9E700BF67C600085C00002034
:10282000B1C40008B9C900087AC60008F8C4000895
:102830008FC60008A9C60008B3C6000812C4000865
:1028400010B50446084803F085F9302200210748F6
:1028500009F01DFA064A00231360064A2046137049
:10286000BDE81040FFF710BFBCC60008D002002032
:10287000040300209809002010B5084803F06AF905
:10288000012000F0C7FD064803F064F90A2002F0B9
:1028900064FF0020BDE8104002F06ABFD4C6000803
:1028A00025C600082DE9F04504468BB000E07D4CBC
:1028B000204609F001FAC5B2002D6ED17A4803F026
:1028C00049F97A4C0026D4F880013146FEF7C4FB62
:1028D00038B1DDF81C80089F099E754C4FF0000A46
:1028E0003CE007AB43F8256001352946714801F00B
:1028F000F6F8D4F88001FDF787FD0646D4F8840188
:102900000F46FDF781FDCDE90001D4F88801FDF700
:102910007BFDCDE90201D4F88C01FDF775FD32464F
:10292000CDE904013B46644801F0D9F810340C2D80
:10293000C8D1CEE7404654F8101CFEF7F1F854F821
:102940000C1C80463846FEF7EBF854F8081C074686
:102950003046FEF7E5F80AF1010A06461034AA45AA
:10296000E8DB5648CDF81C800897099603F0F2F88A
:10297000002407AB1859524920F00040FEF794FBA1
:10298000504B514A0434002814BF1046184603F037
:10299000E1F80C2CEDD14D4819E020464C490422B9
:1029A00009F092F90546002826D12046202109F099
:1029B00077F90646002871D0461C304609F07CF9AC
:1029C0002C46C7B2434D55F8241029B942480BB0E4
:1029D000BDE8F04503F0BEB830463A4609F074F958
:1029E00040B92046FEF73CFE55F824103B4801F064
:1029F00076F85CE70134E5E7204609F0E8F8451E83
:102A00000B2D064643DC2046202109F049F90746F4
:102A100008B9044609E0471C384601F051FD234B34
:102A2000012403EB0616C6F870013846202109F090
:102A300037F9064648B1461C304601F041FD1B4BB4
:102A4000013403EB0513C3F884013046202109F05B
:102A500027F9064648B1461C304601F031FD134BBC
:102A6000013403EB0513C3F888013046202109F037
:102A700017F950B1013001F023FD0C4B032C03EB8F
:102A80000515C5F88C013FF412AF15489FE71548AE
:102A90000C210BB0BDE8F04501F021B80BB0BDE84A
:102AA000F08500BF3CC80008EFC60008D40900202C
:102AB000580B00201AC7000820C700082EC70008BE
:102AC0000AD7233C3DC7000841C70008F8C40008E6
:102AD00045C7000810000020B5C400084AC7000818
:102AE0005DC7000897C700082DE9F041854B8AB003
:102AF0001A7832B901321A70834803F02BF8FFF7C5
:102B000047FB824B1B78002B00F06B8103F02EF803
:102B100018B102F03DFF7E4B18707D4A13786D2B83
:102B200044D00CD8622B25D005D8232B0FD0612B95
:102B300040F0578111E0672B40F0538120E0742B67
:102B40005CD0772B5DD0712B40F04B813BE06F4B1D
:102B50000021197078231370D1E06E4C2068FDF7C6
:102B600053FC064660680F46FDF74EFCCDE90001B8
:102B7000A06811E0674B6848996D00F0B0FF30E144
:102B8000644CE069FDF740FC0646206A0F46FDF7FD
:102B90003BFCCDE90001606AFDF736FC3246CDE929
:102BA00002013B465D4800F09AFF1AE1594CA06CC7
:102BB000FDF72AFC0646E06C0F46FDF725FCCDE943
:102BC0000001206DE8E7564C2068FDF71DFC064625
:102BD00060680F46FDF718FCCDE90001A068FDF71D
:102BE00013FCCDE90201E068FDF70EFC3246CDE9A9
:102BF00004013B464B4800F072FFF2E002F0E4FDB6
:102C0000EFE0444C48492069FEF792F8FDF7FCFBE1
:102C100006460F4660694449FEF78AF8FDF7F4FB63
:102C2000CDE900014049A069FEF782F8B4E702F05F
:102C3000AFFE092801D03F2853D13C4BDFF8FC8080
:102C400000261F683546A8F19C040CE02FB13848D7
:102C500021683A4609F038F820B915B926462546C4
:102C600000E026460C344445F0D1BDB1304A3B4625
:102C7000D2192968C85C3168C95C81420CD1581CE2
:102C8000013229B92A4A2031D154284B186005E075
:102C900002F8011C0346ECE7244A1360234B1B682F
:102CA0000BB1B5420FD0234802F054FF06E055F8AF
:102CB0000C0B02F04FFF092002F036FFB542F6D9A7
:102CC000FFF766FA00271A4CE41904E014F8010C27
:102CD00002F02AFF0137154B01341B689F42F5D3E0
:102CE0007FE0124B1B682BB9042803D11048FFF773
:102CF000A7FD7BE00C2823D10F4802F02BFFFFF744
:102D000047FA6EE098090020BFC7000800030020C2
:102D100008030020DC0E0020F7C70008FEC70008EB
:102D2000A4000020FBC70008E02E65420403002039
:102D3000D002002008C800080DC80008B0C3000871
:102D4000002B2FD00A2801D00D282BD1294802F0C2
:102D500001FF294B294C1A680023A3540893284BE0
:102D600007A8009327490D220C23079408F033FF8E
:102D7000054638B1006808F09FFF0130AB682018A5
:102D8000984702E0204802F0E5FE30221B4800216F
:102D900008F07DFF184B00221A601C4B1B78002B9B
:102DA000ADD123E07F2801D008280AD1CBB1124A47
:102DB000013B1360114A0021D154154802F0CAFEAC
:102DC0000FE02F2B0DD81F280BD97E2809D80BB95F
:102DD000202806D0094AD054074A0133136002F074
:102DE000A3FE02F0C3FE00287FF421AF0AB0BDE8C5
:102DF000F08100BFF8C4000804030020D0020020C6
:102E0000A524000814C3000818C800089809002069
:102E100039C80008000000002DE9F14F402000F003
:102E20008FFA18B102F066FB002836D0964B0024CA
:102E30001A78964D01321A702646934BF0B21F78DD
:102E4000934B07F003071B689847904B07EB8607E7
:102E500023F817002B886A88D218AB88D218EB8821
:102E6000D21812B2931C48BF531D9B10894A9BB2C3
:102E70001353894A19B2105F0338814201DA981C52
:102E80001053854A105F0330814201DD023B13532A
:102E9000013608350234082ECFD17F4C7F4DB4F96E
:102EA0000610EB8F99424ADAFEF78EFFAB8C7BB1AE
:102EB0007B4B5B7923B17B4B1A780AB1012218E076
:102EC000784B5A78002A00F0AC8000225A70A8E0B3
:102ED000B4F90420B5F840309A4210DD714B5978AE
:102EE00069B971490A78501C142A087040F0998019
:102EF000133A5A706D4B9A696D4B1A6091E0674BAB
:102F0000DB8F9A4280F28A80664A517849B16649DD
:102F10000B78581C142B087040F08380143B5370BE
:102F20007FE05D4AB2F902209A4277DD5E4A13786B
:102F3000591C142B117074D103F00AFE71E0B5F81E
:102F4000402091426DDD57494978002969D1B4F993
:102F5000041091420CDDB4F90200984208DA524A9A
:102F60001378591C142B11705BD104F095FB58E0B9
:102F7000994210DA4849B1F9021099420BDA4A4AEB
:102F80001378591C142B11704BD103F065FC0320EE
:102F9000FEF7E6FE45E04049B1F9020090420ADD45
:102FA0003E4CD4F81401FDF72FFA35A3D3E90023E2
:102FB000FDF7CCF80BE098420EDA384CD4F8140147
:102FC000FDF722FA2EA3D3E90023FDF7BDF8FDF7A4
:102FD00051FDC4F814011EE0B1F9001091420ADD60
:102FE0002E4CD4F81001FDF70FFA25A3D3E90023E6
:102FF000FDF7ACF80BE0994210DA284CD4F8100138
:10300000FDF702FA1EA3D3E90023FDF79DF8FDF7B3
:1030100031FDC4F8100100F0C3F902E0224B002298
:103020001A70102000F08CF9002848D0214B1B4A60
:10303000B3F800C014890FFA8CFEA6453CDD194B8D
:103040005978002938D0508F1349088048808880EB
:1030500090895289C88014190121A645D97302DDCF
:1030600000225A701A700F4B5A780AB95A701A70A7
:10307000104B0CF1010CA3F800C020E0AFF300806E
:103080007B14AE47E17A843F4C0300200C03002000
:10309000C40900205003002090000020D409002023
:1030A000B4090020A409002060030020DC0E0020E9
:1030B000CC090020D00900208E4B0022DA738E4B01
:1030C0008E4AD88FB3F8404000231946B2F900C0A9
:1030D000844502DC4FF0000E07E032F908EC86452B
:1030E000ACBF4FF0000E4FF0010E8445ACBF002581
:1030F00001259D40A445D4BF4FF0000C4FF0010CBA
:1031000045EA01019D1C0CFA05FC41EA0C0103F1A2
:10311000010C0EFA0CFE033341EA0E0102320C2BB5
:1031200089B2D3D1744F0C3B3A46B2F81AC07448F6
:1031300011EA0C0F0CBF4FF0000C4FF0010C03F81C
:1031400000C0013302320E2BEFD1437913B9694B22
:1031500001221A706A4B1A7A664B02B101229A72E6
:10316000674B1B7813B9634BDA7B5AB1614C2379F7
:103170004BB96448FEF736FE6348FEF733FE012381
:10318000237100E01A715E4B9A785A4B42B15A791A
:103190003AB901325A715D4B9A695D4B1A6000E091
:1031A0005A71574B5A7A534B42B15A7A3AB9013253
:1031B0005A72564B9A69574B1A6000E05A72504B3C
:1031C0005B7B1BB1514B9A69524B1A600025524BE5
:1031D000524C585FFDF758FD44F815000235082D94
:1031E000F5D1454B5E8F3046FDF74EFD054629462D
:1031F0002068FDF793FC294620606068FDF78EFC8F
:1032000029466060A068FDF789FCA060A6F5BA6059
:103210000C38FDF739FD0146E068FDF77FFC00251D
:10322000E0602C46DFF8FCA03D4B1AF80420B7F80C
:1032300048B01A555846FDF727FDDFF8E090804664
:1032400059F8056041463046FDF71AFF78B1CBF1D9
:103250000000FDF719FD01463046FDF71BFF30B1B8
:10326000002349F8053001230AF8043014E02D4BFF
:1032700000221A5530460021FDF716FFDFF89CA00A
:1032800020B130464146FDF749FC03E03046414657
:10329000FDF746FC4AF80500013404350237032CDB
:1032A000C0D11E4BDC68204B20461968FDF736FC68
:1032B0001E4920F00040FDF7F7FE10B10D4B002233
:1032C0009A710F4B5A780B4B002A35D09A79002A05
:1032D00033D101329A71144B1C600C4BD86DFDF741
:1032E000D3FC134B1860134801B0BDE8F04FFEF754
:1032F00079BD00BFA4090020D40900209800002057
:10330000B40900200809002028090020DC0E002054
:103310009C090020CC0900209000002080000020A3
:10332000A00000207C000020A00900200000A04197
:10333000C8090020680900209A7101B0BDE8F08F2B
:10334000034B5B6818420CBF00200120704700BF90
:10335000D4090020024B5A6840EA02025A607047C2
:10336000D4090020024B5A6822EA00025A607047D2
:10337000D4090020014B00225A607047D409002074
:10338000014B5868704700BFD40900200248034928
:103390004FF4107208F06EBCD409002000FC010844
:1033A00010B504F0A5FF342004F0B6FF0B4805F07B
:1033B0000BF804280CD1094C094B2046E15804F0C5
:1033C000D9FF042800D0FEE7064B04349C42F3D119
:1033D00004F09AFFBDE81040FFF7D8BF00FC0108D9
:1033E000D40DFE1740FE010870B50646002409E022
:1033F000064D284608F054FC18B1054A83185D1B99
:10340000AC730134315D0029F2D170BDECD50008F8
:10341000D40900202DE9F041A44B1B7810B9072BEB
:1034200000F04181A24C07232370043B84F836301E
:10343000FFF7A0FF0220FFF78DFF0120FFF78AFFB3
:103440009C48FFF7D1FF4FF4C8704FF0320244F6AA
:103450002063E0824FF49660228322816381A08101
:1034600004F11C02234600265E8302339342FAD104
:103470008F4B4FF47A721A874FF4FA629A8740F2B0
:103480006C72A3F8402040F23A72A3F844204FF443
:103490007A72A3F866204FF4FA62A3F86A2040F229
:1034A000DC52A3F86E204FF47A72A3F8742040F235
:1034B000DC52A3F8762040F2DC504FF4FA625887D1
:1034C000A3F8782040F24C404FF47A72D887A3F8E2
:1034D0007C2040F27E4040F2DC52A3F84200A3F888
:1034E0007E204FF00C004FF4FA62A3F84800A3F8D6
:1034F0004A00A3F84C00A3F8802040F2DC504FF4BF
:103500007A72A3F86800A3F888204FF47A7040F22A
:10351000DC52DFF8B8C1A3F86C00A3F88A204FF49E
:10352000FA604FF4FA624FF07E55A3F87000A3F8EA
:103530008C2001204FF0FF3283F8720083F87A006C
:1035400083F8942083F8950083F8962083F84660EA
:10355000C3F88450C3F8905083F89700C3F8A0C014
:10356000C3F8ACC0C3F8B0C0C3F8BCC0C3F8CCC08B
:103570004FF07C5CC3F8DCC0C3F8ECC0C3F8FCC0FF
:10358000DFF84CC14FF47A72C3F800C1DFF844C1D0
:10359000A3F89820C3F804C14FF4FA62464FDFF84D
:1035A00038C1A3F89A204FF47A72A3F89C20C3F88C
:1035B000C070C3F808C14FF080474FF4FA62DFF8DB
:1035C0001CC1A3F89E20C3F8D0700022C3F8E0709D
:1035D0004FF07F57C3F8A420C3F8A820C3F8B42045
:1035E000C3F8B820C3F8C420C3F8C820C3F8D42057
:1035F000C3F8D820C3F8E420C3F8E820C3F8F420C7
:10360000C3F8F820C3F81021C3F8F070C3F80CC158
:10361000C3F81421C3F82421C3F82821C3F82C21AE
:10362000C3F83421C3F83821C3F83C21C3F8402142
:10363000C3F84421C3F84821C3F85021C3F85421EA
:10364000C3F85821C3F864211C4A83F81801C3F851
:103650006C211B4A4FF02A00C3F87021194AC3F8A5
:103660001C51C3F87421184A83F82061C3F87821EB
:103670004FF47A7283F83061A3F8320183F84C6119
:1036800083F85C61C3F8605183F86861A3F87C211A
:10369000C0330022C4F8802110349C42F9D1BDE827
:1036A000F041FFF77DBEBDE8F08100BF00FC0108DE
:1036B000D4090020F4D5000800004843A470294133
:1036C0000000304133335340666686400000C842F4
:1036D0000000A041000088410000E0400060EA4690
:1036E000F8B504460E4610464FF07E511546FDF7DC
:1036F000B3FC20BB3046FCF787FE064628460F4643
:10370000FCF782FE02460B4600200E49FCF71CFD2A
:1037100002460B4630463946FCF7CAFE06460F46BF
:1037200020462946FDF704FBFCF76EFE02460B46D9
:1037300030463946FCF70AFDFDF79CF90446204661
:10374000F8BD00BF0000F03F2DE9F8450C46D1F868
:10375000088019681F4616460546FDF7E9FA2168F4
:1037600082467868FDF7E4FA01465046FDF7D8F93D
:1037700061688246B868FDF7DBFA01465046FDF7FE
:10378000CFF9F96882464046FDF7D2FA0146504625
:10379000FDF7C6F9E16882463869FDF7C9FA0146C6
:1037A0005046FDF7BDF9216907463068FDF7C0FABC
:1037B00001463846FDF7B2F9616907467068FDF7C2
:1037C000B7FA01463846FDF7A9F9A1690746B0687E
:1037D000FDF7AEFA01463846FDF7A0F9E169074664
:1037E000F068FDF7A5FA01463846FDF797F9C4F8E9
:1037F0000C806368A360236825606360A369E3614C
:103800006369A361236920616361BDE8F88528B11C
:10381000026811700268013202607047C8B202F09B
:1038200083B92DE9F845161E04460D460FDD00222A
:1038300000E00132A95C0029FBD1B242ACBF0E46C8
:10384000B61A13F0020F02D04FF0300A01E04FF029
:10385000200A13F0010809D04FF0000808E02046C4
:103860005146FFF7D4FF08F10108013E002EF6DCB7
:10387000474603E02046FFF7CAFF0137C8EB0503C0
:10388000D95D0029F6D105E020465146FFF7BFFF7C
:103890000137013E002EF7DC3846BDE8F8852DE9FA
:1038A000FF410A9F05460B9EDDF830E08C4651B97A
:1038B00030238DF804308DF805103A4601A93346BF
:1038C000FFF7AFFF39E03BB10A2A05D1002903DA3F
:1038D000C1F1000C012400E0002404AB002103F836
:1038E000011D0DE0BCFBF2F102FB11C10929C4BFAF
:1038F000AEF13A000918303103F8011DBCFBF2FCAF
:103900009846BCF1000FEDD184B14FB116F0020F13
:1039100006D028462D21FFF77AFF013F012405E05C
:103920002D2203F1FF3803F8012C002428464146DC
:103930003A463346FFF775FF001904B0BDE8F08141
:103940002DE9F04F82468FB00E4614464FF0060B1D
:103950000025A4E0252B40F09C8016F8013F002BA9
:1039600000F0A180252B00F094802D2B02D04FF089
:10397000000806E001364FF0010802E0013648F089
:1039800002083378302BF9D0002291460AE02AB1A0
:103990000A2303FB0B1B0BF0FF0B08E00A2303FBBE
:1039A0000909013633782E2B03D14FF0000B012289
:1039B000F7E7A3F13000C1B20929E8D9732B07D189
:1039C00054F8041B3D4B5046002908BF19465AE0E5
:1039D000642B0BD1033B0293CDF80090CDF804800B
:1039E000271D504621680A22603B0CE0782B0FD13E
:1039F000173BCDF80090CDF8048002932168271D75
:103A000050461022613BFFF74AFF2D183C4645E027
:103A1000582B0BD1173B0293CDF80090CDF80480C2
:103A2000271D504621681022413BECE7752B0AD137
:103A3000143BCDF80090CDF804800293271D50462A
:103A400021680A22DEE7632B0DD1236850468DF8EA
:103A5000343000238DF835300DA94A464346271DE2
:103A6000FFF7DFFED1E7662B18D1073424F00703F8
:103A700005AFD3E9000103F108043A465B4600F0C4
:103A800057FC504639464A464346FFF7CAFE2D18B2
:103A900004E050463178FFF7BAFE0135013633783D
:103AA000002B7FF457AFBAF1000F03D0DAF80030E3
:103AB00000221A7028460FB0BDE8F08FFDD500082F
:103AC0000EB40FB505AA52F8041B019001A8039289
:103AD000FFF736FF04B05DF804EB03B070470FB496
:103AE00007B504AA52F8041B00200192FFF728FF33
:103AF000BDE80E4004B07047034B04491A78885C57
:103B000001321A70704700BF620300206C0300206E
:103B100010B5FFF7F1FF0446FFF7EEFF04EB0020BE
:103B200080B210BD10B5FFF7F3FF0446FFF7F0FFBA
:103B300004EB004010BD000010B5044601F0F4FF96
:103B4000024B1A7854401C7010BD00BF6103002066
:103B500038B50546002401E0FFF7EEFF285D01348B
:103B60000028F9D138BD0000014B1878FFF7E4BFF9
:103B70006103002070B5044624200D46FFF7DCFFEA
:103B80004D20FFF7D9FF002C14BF21203E20FFF766
:103B9000D3FF064B00221A702846FFF7CDFF044BD7
:103BA0001878BDE87040FFF7C7BF00BF6103002071
:103BB0006703002001460120FFF7DCBF014600201B
:103BC000FFF7D8BF70B50B4D0B4C0646C0B228703E
:103BD00001F0AAFF2A782378B6B282EA0303300AFA
:103BE0002370287001F0A0FF23782A7882EA03036B
:103BF000237070BD650300206103002070B5154D72
:103C0000154C0646C0B2287001F08EFF2A78237842
:103C1000300A82EA0303C0B22370287001F084FFE7
:103C20002A782378300C82EA0303C0B2237028700C
:103C300001F07AFF2A782378300E82EA030323709A
:103C4000287001F071FF23782A7882EA0303237039
:103C500070BD00BF630300206103002070B5A44B5A
:103C60001B78002B00F05383BDE87040FEF73CBF8B
:103C700001F08EFE9F4B1A78A2B9242814BF0022AF
:103C800001221A70002A40F04283232803D05228D0
:103C900040F03D8302E0FEF727FF38E3012001F00A
:103CA00067FD34E3012A04D14D280CBF0220002017
:103CB00005E0022A05D13C280CBF03200020187023
:103CC00025E3032A11D1402801D9033A1EE38A4A89
:103CD0008A49107000220A7089490A70894A107056
:103CE00004221A70033A884B10E3042A07D1874A4A
:103CF0001070844A117848401070052206E3052AA6
:103D000040F005837D497C4B0A781B7893427D4BBC
:103D10000AD993F800C080EA0C0C83F800C07C4BF1
:103D2000985401320A70F2E21B78834240F0EC8230
:103D3000764B1B78722B00F0A58223D86A2B5ED0BD
:103D400010D8662B00F03A8106D8642B00F0E6808C
:103D5000652B40F0D482F2E0682B00F0838100F202
:103D60008D8173E16E2B00F0C68105D86C2B00F0BD
:103D7000918100F2BA8142E0702B00F0CA8100F21A
:103D800067823CE0CB2B00F09B8010D8762B00F0B4
:103D9000898205D8742B00F0698200F26C8276E289
:103DA000C92B20D02FD8C82B40F0A98212E0CF2BEE
:103DB00025D005D8CD2B00F0828200F2858289E0E3
:103DC000FA2B00F08482FE2B00F08482D02B40F08E
:103DD00096826AE20024FFF79BFE4E4BE0520234CB
:103DE000102CF8D10BE0FFF787FEFFF785FEFFF7F9
:103DF00099FEFFF797FEFFF78BFEFFF789FE002085
:103E0000FFF7DCFE7EE2444C04F13005FFF774FE60
:103E1000FCF736FFC4F8A000FFF76EFEFFF76CFE5C
:103E2000FCF72EFFC4F8A8001034AC42EED1FFF727
:103E300063FEFCF725FF384CC4F80001FFF75CFE79
:103E4000FFF75AFEFCF71CFFC4F8080100240134F8
:103E5000FFF752FEFFF750FEFFF74EFE032CF6D1A0
:103E6000FFF74AFEFCF70CFF2B4CC4F8D000FFF71D
:103E700043FEFFF741FEFCF703FFD4F8D030C4F84F
:103E8000D800C4F8E030FFF737FED4F8D830C4F8D3
:103E9000E830FFF731FEFCF7F3FEC4F8F000FFF75F
:103EA0002BFEFFF729FEFCF7EBFEC4F8F800002418
:103EB0000134FFF721FE032CFAD1FDF76BFF9EE7DB
:103EC000154C04F11C05FFF723FE60830234AC425D
:103ED000F9D194E7FFF710FEFFF70EFEFFF70CFE97
:103EE000FFF70AFEFFF708FEFFF706FEDAE100BF64
:103EF000980900206603002068030020AC0300201E
:103F00006203002061030020640300206703002097
:103F10006C03002090000020D40900200720FFF748
:103F20004DFED220FFF708FEB94B93F83600FFF79D
:103F300003FE0020FFF700FE4FF000403BE00A20A8
:103F4000FFF73CFEB34BB3F90000FFF73BFE00F078
:103F500065FC00B2FFF736FEAF4BB3F90000FFF788
:103F600031FEAE4B59799A79890041EA42011A79BA
:103F700011435A7841EA4211A94AD07841EAC00176
:103F8000107941EA0011D87941EA8011187A41EAA2
:103F9000C011587A9B7A41EA402141EA0323917A81
:103FA000507B43EA8123D17A43EAC123117B43EA60
:103FB000013343EA4030FFF721FEA3E1994C122080
:103FC000FFF7FCFD98492068FCF7B2FEFDF776F894
:103FD00000B2FFF7F7FD94496068FCF7A9FEFDF712
:103FE0006DF800B2FFF7EEFD8F49A068FCF7A0FE68
:103FF000FDF764F800B2FFF7E5FD8C49E069FCF7D6
:1040000097FEFDF75BF800B2FFF7DCFD8749206AF9
:10401000FCF78EFEFDF752F800B2FFF7D3FD83499F
:10402000606AFCF785FEFDF749F800B2FFF7CAFDAC
:10403000A06CFDF743F800B2FFF7C4FDE06CFDF79C
:104040003DF800B2FFF7BEFD206D4AE01020FFF7FB
:10405000B5FD0024764BE05E0234FFF7B3FD102C73
:10406000F8D14FE11020FFF7A9FD0024714BE05E6D
:104070000234FFF7A7FD102CF8D143E11020FFF721
:104080009DFD00246C4BE05E0234FFF79BFD102C7D
:10409000F8D137E1634C0820FFF790FD20696749AC
:1040A000FCF746FE6049FCF743FEFDF707F800B257
:1040B000FFF788FD60696149FCF73AFE5A49FCF751
:1040C00037FEFCF7FBFF00B2FFF77CFD5B49A06900
:1040D000FCF72EFEFCF7F2FF00B2FFF773FD584B22
:1040E0001868FCF7EBFF00B206E10420FFF766FD5D
:1040F0004C4BD86D5FE70320FFF760FD494B4A4901
:10410000186EFCF715FEFCF7FFFFC0B2FFF714FDB9
:10411000BBE01E20FFF752FD4A4C04F1600554F845
:10412000080CFCF7F1FFC0B2FFF706FD464954F852
:10413000040CFCF7FDFDFCF7E7FFC0B2FFF7FCFC49
:1041400054F8200BFCF7E0FFC0B2FFF7F5FCAC42DF
:10415000E5D13E4CD4F8C000FCF7D6FFC0B2FFF763
:10416000EBFC3949D4F8C400FCF7E2FDFCF7CCFFC6
:10417000C0B2FFF7E1FCD4F8C800FCF7C5FFC0B23D
:10418000FFF7DAFC00240020FFF7D6FC0020FFF741
:10419000D3FC01340020FFF7CFFC032CF3D12B4CD0
:1041A000206EFCF7B1FFC0B2FFF7C6FC2649606E77
:1041B000FCF7BEFDFCF7A8FFC0B2FFF7BDFCA06E88
:1041C000FCF7A2FFC0B2FFF7B7FCD4F8A000FCF7E1
:1041D0009BFFC0B2FFF7B0FC1B49D4F8A400FCF76A
:1041E000A7FDFCF791FFC0B2FFF7A6FCD4F8A8002A
:1041F000FCF78AFFC0B2FFF79FFC0020FFF79CFC92
:104200000020FFF799FC0020FFF796FC7AE000BF42
:10421000D40900208C0800202E080020A4090020CA
:10422000B4090020DC0E0020000020410000C8423C
:10423000000000209008002090000020E02E654241
:10424000CC090020B008002000007A44A808002013
:104250001C20FFF7B3FC314C04F11C05B4F91A0023
:104260000234FFF7AFFCAC42F8D14BE06D20FFF712
:10427000A5FC2B4803E02F20FFF7A0FC2948FFF7FF
:1042800067FC3FE00220FFF799FC002034E00820A3
:10429000FFF794FC0124E0B20134FFF74DFC092C38
:1042A000F9D12FE0FFF728FCA9E50020FFF786FCF5
:1042B0000120FFF7AFF8002001F05AFA22E002F0E7
:1042C000CBFA02F045FC9AE503F0E6F997E5FFF733
:1042D00067F894E5144C0820FFF770FCB4F900006F
:1042E000FFF770FCB4F90200FFF76CFCB4F90400AE
:1042F000FFF768FCB4F90600FFF764FC02E0002059
:10430000FFF758FCFFF730FC084B00221A7001F051
:104310002DFC00287FF4ACAC70BD00BFD409002098
:1043200004D6000874D60008140C00206603002090
:104330002DE9FF4D514C1F46002A18BF144600239B
:10434000002206460D46FCF725FB20B12D2304F87C
:10435000013B05F10045072F19D800220023304604
:104360002946FCF735FB464BFA0038B1D3183046E6
:104370002946D3E90023FBF7E9FE06E0D3183046CF
:104380002946D3E90023FBF7DFFE06460D4600234E
:104390004FF0010803E00A2202FB08F80133BB4298
:1043A000F9D330462946FCF745FB002302460CE0D2
:1043B0004FF00A0CB2FBFCF10CFB11220DF1040AC8
:1043C00030320AF8032001330A46002AF0D11BB923
:1043D000303304F8013B0BE00DF1040C0CEB03014E
:1043E00011F801AD04F802A001326145F8D1E418DA
:1043F000002F3ED0FBF7E6FF02460B46304629462B
:10440000FBF7A2FE824640468B46FBF7DBFF0246E7
:104410000B4650465946FCF74BF8FCF70BFB2E2396
:10442000224602F8013B2E3B08E00A25B0FBF5FCD2
:1044300005FB1C003030C8540133604601A9002838
:10444000F3D1C91803E0302001F8010C0133013128
:10445000BB42F8D323B91446303304F8013B08E0DB
:1044600001A8C11811F801CD814204F801CFF9D19A
:10447000D4180020207004B0BDE8F08DB0030020F7
:10448000A8D6000810B50B490446FCF703FE20B17E
:1044900020460949FCF742FB08E020460749FCF7A3
:1044A000E5FD20B120460449FCF73AFB04462046CE
:1044B00010BD00BFDB0F4940DB0FC940DB0F49C017
:1044C0002DE9F84F044600E001342378202BFBD07F
:1044D000092BF9D02D2B05D101344FF0000ADFF85C
:1044E00070B106E02B2BDFF864B108BF01344FF048
:1044F000000A0026002713E00022534B30463946BD
:10450000FBF7D6FF064628460F46FBF76BFF024631
:104510000B4630463946FBF719FE013406460F4676
:104520002378A3F13005EAB2092AE5D92E2B21D14F
:1045300001344FF00008DFF8109116E0FBF752FF4E
:1045400042464B46FCF7DEF802460B4630463946FB
:10455000FBF7FCFD002206460F46404649463A4B13
:10456000FBF7A6FF01348046894620783038C3B275
:10457000092BE3D92378652B01D0452B4CD16278E8
:10458000631C2D2A02D10133012503E02B2A08BF29
:10459000013300250022144602E00A2000FB041427
:1045A000995C01323039C8B20928F6D9B4F59A7F3E
:1045B00028BF4FF49A740022244B09E01046194694
:1045C0001DA3D3E90023FBF773FF323C02460B46E1
:1045D000312CF3D8A04609E01046194618A3D3E9B8
:1045E0000023FBF765FF083C02460B46072CF3D877
:1045F00008F0070408E0104619460022124BFBF7AA
:1046000057FF013C02460B46002CF4D135B1304631
:104610003946FCF777F805E00C4B00223046394666
:10462000FBF746FF02460B4650465946FBF740FF54
:10463000FCF720FABDE8F88F9A647EC50E1B514A3C
:104640000000000084D79741000024400000F03FA4
:104650000000F0BFAFF300802DE9F74F0568064674
:10466000884628462946FCF763FB74688346214642
:104670002046FCF75DFBB768814639463846FCF7B3
:1046800057FBF668824631463046FCF751FB31460F
:1046900001902046FCF74CFB394603462846009320
:1046A000FCF746FB009B01461846FCF737FA01462B
:1046B000FCF736FA04F0F6FE3946C8F80400204646
:1046C000FCF736FB3146034628460093FCF730FBE7
:1046D000009B01461846FCF723FA0146FCF720FA36
:1046E0004946034658460093FCF71AFA5146FCF730
:1046F00015FA0199FCF712FA009B0146184604F0DE
:104700001DFF3146C8F808003846FCF711FB21466A
:1047100006462846FCF70CFB01463046FCF700FA3B
:104720000146FCF7FDF9494604465846FCF7F6F900
:104730005146FCF7F3F90199FCF7F2F901462046DE
:1047400004F0FCFEC8F80000BDE8FE8F014B18889D
:1047500080B27047D003002030B52A4891B003F0F2
:10476000BBFC294B00250093284B012401934FF4F7
:10477000807306934FF480630793202308932148A6
:104780004FF40053694609930295039404950595E7
:104790000A9503F013FD1B48214603F02FFD4FF44B
:1047A00060231B480BA90D930B958DF830508DF8A5
:1047B00031400E958DF83C4003F0EAFB224603237E
:1047C0001348042103F03CFC1148214603F010FC7F
:1047D0000F48214603F002FC0D4803F013FC0C487F
:1047E00003F015FC0028FAD1094803F015FC08482D
:1047F00003F017FC0028FAD10548012103F016FC4C
:1048000011B030BD080002404C240140D00300200C
:1048100000240140BFF35F8F70470000014B1888F0
:1048200080B27047D2030020F0B54FF4406389B0E6
:10483000ADF8143002238DF8163012330DEB03015E
:1048400005464A488DF8173003F0DEFD47484FF41F
:10485000406103F031FE002402E0032000F072FF0B
:1048600042484FF4806103F021FE0028F5D04FF458
:1048700080613E4803F022FE032000F063FF013414
:104880003A484FF4806103F017FEE4B2032000F0D1
:1048900059FF082CE4D14FF40061344803F00EFEB8
:1048A000032000F04FFF4FF48061304803F006FE14
:1048B000032000F047FF4FF480612C4803F0FCFD1B
:1048C000032000F03FFF4FF40061284803F0F4FD9F
:1048D000032000F037FF4FF44063254CADF818304B
:1048E000022306A98DF81A3020481A338DF81B30A0
:1048F00003F08AFD2560284601AD03F0FFFE28463F
:1049000003F02EFE002220684FF4407103F06AFE8F
:104910004BF6FF73ADF80A304FF48043ADF810301A
:10492000144B0026206829460193ADF8086003F077
:1049300071FE2068012103F021FE07AC22238DF8CF
:104940001C30204601238DF81F308DF81D608DF836
:104950001E6003F0EBFA2123204637468DF81C3009
:104960008DF81D6003F0E2FA09B0F0BD000C0140C3
:10497000E8030020801A060010B54000224CC0B2A7
:1049800020702248224C0170224800210170012031
:104990002070214C2360214C2360214B1A70214B45
:1049A0001870214B1970214B1868838813F4007F0D
:1049B00011D1038813F4807F06D1038813F4007F9C
:1049C000FBD1012103F0E7FD184B4FF4407118684B
:1049D000012203F007FE47F23053124A127812B157
:1049E000013BFAD100E053B9114B1A88013292B25F
:1049F0001A800E4B1868FFF717FF002010BD0A4BF6
:104A0000187880F0010010BDEE030020D5030020CF
:104A1000E5030020D4030020D8030020E003002099
:104A2000D6030020ED030020DC030020E803002073
:104A3000D203002030B540002A4CC0B220702A4872
:104A40002A4C01702A480121017000202070294C55
:104A5000294D2270294C85B02170C5F800D0284915
:104A6000284D102AC5F800D0087005D937E013F892
:104A700000C00DF800C00130C1B29142F7D3224B03
:104A80001868838813F4007F11D1038813F4807FA2
:104A900006D1038813F4007FFBD1012103F07BFDD5
:104AA000194B4FF440711868012203F09BFD47F247
:104AB0003053124A127812B1013BFAD100E053B9D7
:104AC000124B1A88013292B21A800F4B1868FFF706
:104AD000ABFE002003E00A4B187880F0010005B01F
:104AE00030BD00BFEE030020D5030020E503002009
:104AF000D4030020D6030020E0030020ED030020B3
:104B0000DC030020D8030020E8030020D2030020AB
:104B100007B502AB03F8012D0122FFF78BFF0EBD95
:104B2000254B37B51868838A9BB20193019B13F418
:104B3000706F02D0214B01221A70019B13F4E06FB9
:104B40002ED0038B00229BB24FF48061009303F0C0
:104B500049FD019B13F4007F22D1174C2068038884
:104B600013F4007F1CD1058815F480750FD00388DD
:104B700013F4807FFBD1012103F01AFD0E4B18685E
:104B8000038813F4007FFBD1FFF74EFE08E00121FC
:104B900003F00EFD20684FF440712A4603F022FD19
:104BA000054B1A68938A23F470631B041B0C9382D1
:104BB000034B00221A703EBDE8030020DC030020F6
:104BC000ED030020FFF7ACBFFFF7AABF2DE9F04FC0
:104BD000954C85B02068828AD2B212F001063BD093
:104BE0000388012123F400631B041B0C038003F0E2
:104BF000ECFC8E4B00221A708D4B1B78E3B18D4B71
:104C00001B781BB98C4B1B78FF2B15D1894B0122CC
:104C10001A708A4B1B78022B06D1834B1B681A88AB
:104C200092B242F400621A80854B012219787E4BC1
:104C3000186803F0E7FC38E1814B002219787A4BC1
:104C4000186803F0DFFC7C4B1B78FF2B00F02D81F4
:104C50004FF0FF32754BE5E012F0020347D00190B0
:104C6000FFF7D8FD754B01981D78012D19D1704BB8
:104C70001B78B3B16F4B1B789BB1314603F0A5FC99
:104C8000FFF7C8FD20682946038BDBB28DF80F3093
:104C900003F08EFC6B4B20681D704FF480612A4638
:104CA00001E1038B0190DBB28DF80F30FFF7B2FD0D
:104CB000624B01981B78022B09D15D4B1B7833B1F5
:104CC0005C4B1B781BB1002103F07FFCE6E05B4BE3
:104CD0001B78032B07D1564B1B7823B1554B1B7800
:104CE000002B40F0DD804FF480610122DBE012F008
:104CF000040572D04E4ADFF84C811278012688F8FC
:104D00000060002A4FD04B4A1278002A4BD04B4A01
:104D1000464D12784C4F022A2AD9194603F055FC09
:104D2000206895F800A0D7F8009003F068FC4FFACF
:104D30008AFB0BF80900B244314685F800A02068D0
:104D400003F036FC88F80060206895F800803F6822
:104D500003F055FC4FFA88FA0AF80700B04485F8CA
:104D6000008020684FF48061324603F03BFC2DE068
:104D7000314603F01DFC2068D7F800802E7803F040
:104D80003EFC4FFA86FA01360AF80800F6B22E7099
:104D900020683F6803F033FC4FFA86F8023608F8C3
:104DA00007002E7012E0234C237813B9274B1B7891
:104DB0003BB1012103F0FCFB1C4B1A7801321A7045
:104DC00004E0012103F0E7FB01232370164B1B686D
:104DD0001A8812F4807FFBD167E012F0400637D0CA
:104DE000194B124ED3F80080377803F008FC4FFAC5
:104DF00087FA124B01370AF80800FFB237701B78A8
:104E00007FB20337BB4205D120684FF480612A4648
:104E100003F0E8FB094B1878044B1A7851B288422A
:104E200043D101321A7040E0E8030020D70300208C
:104E3000E5030020E4030020D5030020D603002072
:104E4000EE030020EC030020D8030020D403002050
:104E500012F0800F29D0224D2B785AB2B2F1FF3FC9
:104E600011D0204901330968515C2B7003F0C5FB58
:104E70001D4B1A7895F900309A4216D120684FF4EC
:104E8000806132460FE0194B2E70197803F0B5FBA4
:104E9000174B1B7813B9144B1B7833B9154B186893
:104EA0004FF48061002203F09DFB0F4B0C4A1B78EE
:104EB00092F9002001339A420ED10F4B00221A7052
:104EC0000E4B1B782BB10B4B4FF44071186803F05D
:104ED00089FB0B4B00221A7005B0BDE8F08F00BFB4
:104EE000D7030020E0030020D6030020D5030020D4
:104EF000E5030020E8030020E4030020EC03002089
:104F0000ED030020FFF762BEFFF760BE134A1448AE
:104F100013881180C91A038089B240F68C23994204
:104F200003D9104B00221A707047A1F53A73073B62
:104F30009BB240F2DA52934206D80A4B1B78072BF9
:104F40009CBF094A22F81310064B1A7801321A70D6
:104F5000064B4FF000021A80704700BF1C0500206E
:104F60001A05002070050020F0030020D009002061
:104F7000044B1B78834204D9034B53F820305B6801
:104F8000198070471905002020050020044B1B786C
:104F9000834204D9034B53F820305B681980704773
:104FA0001E05002050050020074B084AC018817BD1
:104FB00032F8110040F2DC51A0F53A72063A92B292
:104FC0008A4288BF588F7047D4090020F003002020
:104FD0007FB501AD044628460E4603F0BDFD4FF0F7
:104FE0004703013EADF80430204600232946ADF8C2
:104FF0000860ADF80A30ADF8063003F029FC7FBD3B
:1050000073B50D460446164601A803F047FAADF8FD
:1050100004500EB1282300E018238DF807302046F5
:10502000022301A98DF8063003F0EEF97CBDF0B53E
:1050300085B001AE044630460D46174603F09FFD8D
:105040004FF00103ADF80830204600233146ADF89B
:105050000450ADF80670ADF80A30ADF80C3003F02E
:10506000BBFE05B0F0BD0000194B142270B502FB69
:10507000003303F10802D4784FEA001C154D4000BC
:1050800064B90123D37005EBC00391805CF805007F
:10509000197B0222BDE87040FFF7C9BFB2F804E0F7
:1050A000D180CEEB010189B2198292F802E00A4B5D
:1050B000002423F81E1005EBC003D470197B5CF8A4
:1050C00005002246FFF7B3FF044B1C8070BD00BFF4
:1050D0000004002010D70008F0030020D0090020B1
:1050E0002DE9F04F2D4D13460201545906464FF05D
:1050F0001408760085B002EB050908FB00F80136BC
:105100008B4620464FF6FF710193FFF761FF55F87C
:105110003610D9F80400012205EBC605FFF770FF31
:105120002E79002220463146FFF781FF20460121DB
:1051300003F02EFD6A79DFF868A08DF80C200022BC
:105140008DF80D2003A801328DF80E208DF80F2068
:1051500002F0ECFE019B0AEB08074AF808B0BB72AC
:105160000C2E16D8DFE806F0071515150A151515CB
:105170000D15151510002046022107E020460421D8
:1051800004E02046082101E020461021012203F01E
:105190001CFD384605B0BDE8F08F00BF10D70008F1
:1051A0000004002070B50D460221044603F07DFD89
:1051B000012820460BD1022103F082FD6BB214229C
:1051C0005A43254B2046D65803F062FD27E00421C0
:1051D00003F06BFD01280ED101352046EDB204210C
:1051E00003F06EFD6BB214225A431B4B2046D65877
:1051F00003F051FD13E00821204603F056FD01287D
:1052000011D102352046EDB2082103F059FD6BB2F1
:1052100014225A43104B2046D65803F03FFD014656
:105220002846B04770BD1021204603F03EFD0128FE
:1052300010D103351021EDB2204603F041FD6BB2D1
:1052400014225A43044B2046D65803F02AFD014647
:105250002846B04770BD00BF0004002001480A2165
:10526000FFF7A0BF0008004001480421FFF79ABFE4
:10527000000400404FF080400021FFF793BF000082
:10528000022110B5124803F010FD012810480CD17E
:10529000022103F015FD0F4B0D48D3F8A04003F099
:1052A000F7FC01460820A04710BD102103F0FDFCCB
:1052B00001280CD11021064803F002FD054B0448DB
:1052C000D3F8B44003F0EDFC01460920A04710BD1F
:1052D000002C0140000400202DE9F045444B454FCF
:1052E000142505FB00350301DC5906464FEA460844
:1052F00085B003EB070A204608F10108FFF768FEB6
:1053000057F83810DAF804000022FFF779FE07EBAF
:10531000C80768463F7903F028FC4FF07003ADF8EA
:1053200000304FF00103ADF802304FF00003ADF84C
:1053300004304FF47A73ADF806304FF00203ADF845
:1053400008304FF48073ADF80C300C2F2BD8DFE809
:1053500007F0072A2A2A102A2A2A192A2A2A22008A
:105360002046694603F0CAFA2046082103F038FCBB
:1053700019E02046694603F019FB2046082103F096
:1053800038FC10E02046694603F05CFB204608210B
:1053900003F039FC07E02046694603F09DFB2046F8
:1053A000082103F039FC134B03EB0616B37B1BB14A
:1053B0002046012103F0F9FB2046012103F0E8FB20
:1053C0000C2F10D8DFE807F0070F0F0F090F0F0F92
:1053D0000B0F0F0F0D00343404E0383402E03C347E
:1053E00000E040346C60284605B0BDE8F08500BFA1
:1053F0000004002010D70008037942782DE9F0411D
:10540000002B14BF02230023044602B10133304AAB
:10541000002552F82370785DFF2856D010F0300F29
:1054200000F0F00303D02278002A08BF0023A278FE
:1054300000F00F002AB1A0F10802D2B2012A98BFF1
:105440008023E27822B1021FD2B2032A98BF8023C0
:1054500013F0100F07D000221E49FFF741FE1E4B2C
:1054600008221A702EE013F0200F08D01A4E1B49A4
:105470003278FFF735FE33780133337022E013F0D2
:10548000400F0BD0E3881649164E91FBF3F189B219
:1054900096F80080FFF720FF134B0DE013F0800F0C
:1054A00010D023890E49114E91FBF3F189B296F881
:1054B0000080FFF711FF0E4B43F8280008F10108A8
:1054C00086F8008001350E2DA5D10020BDE8F081C1
:1054D000F0D700080D4F000818050020695000089B
:1054E00040420F0019050020200500201E05002065
:1054F00050050020014B1878704700BF720500204E
:105500001E4B70B51B78E3B11D4B1C781D4B93F8F7
:1055100000C002231C4A5E1CD15C214101F00F0136
:10552000062908D8D55C925D05EA0C0502EB052535
:10553000164A42F821500233102BEBD10F4B0022B8
:105540001A70062802D8124B1B7813B9114B588FCA
:1055500070BD104A0D4B92F84610801839B1827B0D
:1055600053F82200400800F5777080B270BD827B4E
:1055700053F8220000F5777080B270BD72050020EC
:1055800071050020950500201C0C002078050020E6
:1055900094050020D4090020094B0A4A93F84610CC
:1055A000094B19B103211170072202E00221117089
:1055B000032206491A704FF4E130012200F02EBA9E
:1055C000D40900207105002095050020D155000860
:1055D000124B01221A7010B5044600F035F8104A3B
:1055E000104913681060C31A41F2883293420B606D
:1055F00002D90D4B00221A700B4A0C491378E4B201
:105600000F2BCC5407D10A4B01221A70094B4FF0D3
:1056100000021A8010BD0133137010BD94050020E4
:1056200074050020980500209C0500201C0C00201B
:1056300072050020D0090020024B1A6801321A605E
:10564000704700BFA405002009490A4B0A689B68FF
:1056500009688A42F8D1C3F58C33482103F5A07359
:10566000B3FBF1F34FF47A7000FB0230704700BFD8
:10567000A405002010E000E070B5002304460E46AB
:10568000054D5D19EA681033002AF9D1FFF7DCFFF8
:1056900028606E60EC6070BD6806002070B5002365
:1056A00004460E46054D5D19AA680C33002AF9D14F
:1056B000FFF7CAFF28606E60AC6070BDA8050020CF
:1056C0002DE9F04100250C276F43194EBC19A36842
:1056D00053B1FFF7B9FFBA596368821A9A4203D9E6
:1056E000A36898470023A360124C6F00013704EBB6
:1056F000C708D8F80430ABB1FFF7A6FF2E01331965
:1057000032595B68821A9A420CD9D8F8043098470B
:1057100056F80480FFF798FF30513359C8EB030364
:1057200044F837300135102DCDD1BDE8F08100BFF0
:10573000A805002068060020014B1868704700BFCC
:10574000A405002038B50546FFF77EFF0446FFF7A5
:105750007BFF001BA842FAD338BD10B5044604E015
:105760004FF47A70FFF7EEFF013C002CF8D110BD2A
:1057700010B1034A034B1A60034A044BDA607047C6
:10578000EFBEADDEF04F00200400FA0500ED00E0B2
:1057900010B540F2DB1444430A4B10225A61083A18
:1057A0001A61023C074B2046DA6882F01002DA6088
:1057B000DA6882F00802DA60FFF7CFFF1920FFF7FE
:1057C000CCFFEFE7000C014070B500246300084DEA
:1057D000013355F8331007480134FEF780F90F2CD8
:1057E000F4D1D5F8F8100448BDE87040FEF777B959
:1057F0006806002020D8000825D8000870B5514B55
:105800008AB00DF1140C0FCB8CE80F001D20012184
:1058100002F0ECFF4FF40060012102F0E7FF0120ED
:10582000014602F0F1FF0220012102F0EDFF042009
:10583000012102F0E9FF4FF40070012102F0D6FFD0
:105840004FF48040012102F0D1FF4FF4800001218C
:1058500002F0DAFF0120014609AC02F0B9FF022094
:10586000012102F0B5FF002502F0EAFF4FF0FF33FF
:1058700035482146ADF824308DF8275002F0C4FD9C
:105880003248214602F0C0FD3148214602F0BCFDFD
:105890003048012102F014FEBDF818300326ADF89F
:1058A00024309DF81A30059821468DF827308DF860
:1058B000266002F0A9FDBDF820300798ADF824302D
:1058C0009DF8223021468DF826608DF8273002F0B1
:1058D0009BFD214B0C2202FB053300249C601F4BD7
:1058E00003EB051301350833102D5C60F1D16846D8
:1058F00002F01EFF009A1A4B6FF00F01B2FBF3F299
:10590000184B4FF4A0601A60174B1A684FF47A7363
:10591000B2FBF3F222F07F42144B013A5A60144A70
:1059200082F8231007229C601A60084B01321A612A
:105930001D6102F0F1FA2046FDF76CFDFDF726FD32
:105940000AB070BD10D8000800080140000C0140EA
:105950000010014000023000A80500206806002069
:1059600040420F00A0050020E800002010E000E009
:1059700000ED00E0044B1868044B1B68984214BF0C
:1059800000200120704700BF740700207C07002022
:10599000064B07481A68C2F58071013A405C1A60EC
:1059A00012B94FF480721A60704700BF6807002078
:1059B0006C0C0020144870B5048840F22553A4B242
:1059C00004EA03032BB1114B1D6815B103F0DBFA98
:1059D000A84714F0800F16D00D4A0E4913680968C5
:1059E0008B4208D00C49C85C0749013303F03F03E0
:1059F0008880136070BD044840F227710022BDE822
:105A0000704003F09ABA70BD004400407007002057
:105A1000800700206C0700202C0C0020F0B5064603
:105A200087B04FF400300D460121144602F0ECFE21
:105A3000294B02271C7026238DF8143005A8253B1E
:105A40008DF815308DF817308DF8167002F06EFA5B
:105A50004FF00403ADF8103018238DF812708DF854
:105A600013301CB91D4804A902F0CEFC4FF0080207
:105A700048231A4804A9ADF810208DF8133002F01D
:105A8000C3FC4FF00002002C14BF04230C23144865
:105A90006946ADF80420ADF80620ADF80820ADF851
:105AA0000C200096ADF80A3003F072FA0C4840F270
:105AB0002551012203F041FA2CB9094840F227711F
:105AC000012203F03AFA0648012103F029FA054BB6
:105AD0001D6007B0F0BD00BF78070020000801403E
