:1000000019C033C032C031C030C02FC02EC02DC087
:100010002CC02BC02AC029C028C027C026C025C09C
:1000200024C023C03CC121C020C01FC01EC01DC0B1
:100030001CC01BC011241FBECFEFD2E0DEBFCDBF5E
:1000400011E0A0E0B1E0EEE2F4E002C005900D9214
:10005000A034B107D9F712E0A0E4B1E001C01D92CD
:10006000AA36B107E1F78ED0E0C1CACFCF93DF93B4
:10007000A0E0B1E0C0E4D1E020E032E045E85BE0A0
:10008000E0912601F0912701808190912301892B35
:100090008083253040F41396ED91FC911497808174
:1000A0009C91892B808336BB10928500109284002E
:1000B0005093890040938800B19BFECFE0912601C8
:1000C000F09127019081809123018095892380837D
:1000D00036BB10928500109284008881998190939C
:1000E000890080938800B19BFECF253048F4139699
:1000F000ED91FC91149790818C9180958923808358
:100100002F5F17962296283009F0BACFE09126018A
:10011000F0912701808190912301892B808382E0D7
:1001200086BB109285001092840085E89BE0909336
:10013000890080938800B19BFECFE0912601F09169
:10014000270190818091230180958923808382E01B
:1001500086BB109285001092840086EF98E79093FA
:10016000890080938800B19BFECFDF91CF910895E5
:100170008FEF9FEF909389008093880081E08093B8
:1001800081000895FF920F931F93CF93DF938FEF1A
:100190009FEF909389008093880081E08093810095
:1001A00062D07894A0E0B1E01596ED91FC9116979D
:1001B00080819C91892B8083179681E0AA32B807B1
:1001C00099F7C0E0D0E096E0F92E02C0C0E0D0E0A0
:1001D000E0916802F09169022281338180819181EE
:1001E00028173907C9F3CF01B9D0C130D10571F053
:1001F000C130D10530F0C230D10571F0239731F70D
:1002000017C08F3F29F7C1E0D0E0E2CF8F3FF1F672
:10021000C2E0D0E0FF24DCCFEF2DF0E0EE5AFE4F3D
:100220008083F39481E18F1598F6C3E0D0E0D0CFBE
:100230008E3E61F6E2E5F1E0A0E4B1E0108100E07D
:10024000818190E0802B912B85589B408D939D93CD
:10025000329681E0E436F80789F708DFC0E0D0E0A5
:1002600089E0F82EB5CF84E691E0909369028093FF
:10027000680280E890E09093650180936401909318
:1002800067018093660186E08093C2001092C500EA
:1002900083E08093C40080E98093C10008951F9299
:1002A0000F920FB60F9211242F933F938F939F932A
:1002B000AF93BF93EF93FF938091C600A091680224
:1002C000B091690212962D913C911397FD01E20FB6
:1002D000F31F84832F5F3F4F13963C932E93129707
:1002E0000AC012968D919C9113978050914013965D
:1002F0009C938E93129712968D919C9113978F3F9A
:10030000910509F070F7FF91EF91BF91AF919F9127
:100310008F913F912F910F900FBE0F901F901895C6
:10032000DC0112968D919C911397FD01E80FF91F46
:100330006483019606C012968D919C91139780500C
:10034000914013969C938E93129712968D919C9147
:1003500013978F3F910509F070F70895DC018D9197
:100360009C911197FD01E80FF91F2481019605C0AA
:100370008D919C9111978050914011969C938E93F2
:100380008D919C9111978F3F910509F088F7822FED
:100390000895FC0180819181860F971FE80FF11D60
:1003A00084810895FC0180819181860F971F04C08C
:1003B000808191818050914091838083808191815F
:1003C0008F3F910509F0A0F70895DC012D913C9134
:1003D00011970CC03070FD01E20FF31F8481861766
:1003E00019F421E030E00FC02F5F3F4F12968D913E
:1003F0009C9113972817390721F081E021303807A5
:1004000048F320E030E0C9010895FC0122813381E6
:10041000808191812817390710F420503F4F808147
:0E0420009181281B390BC9010895F894FFCF74
:10042E000226002800270001260028002700102998
:10043E00002B002A000829002B002A000429002B7B
:10044E00002A00042600280027000826002800277E
:10045E000010260028002700202600280027000074
:00000001FF
